:100000000C94B2000C94DA000C94DA000C94611F8A
:100010000C94611F0C94611F0C94DA000C94DA00AC
:100020000C94DA000C94DA000C94DA000C94DA00E8
:100030000C94DA000C94DA000C94DA000C94DA00D8
:100040000C94CF230C94DA000C94791B0C94AB1B0A
:100050000C94DA000C94DA000C94DA000C94DA00B8
:100060000C949E220C94DA000517181728173B17DA
:1000700043176F1777177F1787178E178E178E17EF
:100080008E178E178E178E178E178E178E178E1748
:100090008E178E178E178E178E178E178E178E1738
:1000A0008E178E178E178E1705171117181728170A
:1000B0003B17431756175E176617084AD73B3BCEC8
:1000C000016E84BCBFFDC12F3D6C74319ABD568357
:1000D0003DDA3D00C77F11BED9E4BB4C3E916BAA0F
:1000E000AABE000000803F05A84CCDB2D44EB9385E
:1000F00036A9020C50B9918688083CA6AAAA2ABE45
:10010000000000803F000000000800020100000322
:100110000407000000000000000001020408102095
:100120004080010204081020010204081020040489
:10013000040404040404020202020202030303038F
:100140000303000000002300260029000000000037
:10015000250028002B0000000000240027002A00B2
:10016000DB1BBC2111241FBECFEFD8E0DEBFCDBF0B
:1001700013E0A0E0B1E0EAE5F8E502C005900D92D9
:10018000A831B107D9F724E0A8E1B3E001C01D927E
:10019000A93EB207E1F711E0C4E6D1E004C022971E
:1001A000FE010E940B27C036D107C9F70E946A1BC7
:1001B0000C942B2C0C94000025E531E0FC013183DC
:1001C0002083089525E531E0FC01318320830895E3
:1001D00025E531E0FC01318320830C94CD2325E516
:1001E00031E0FC01318320830C94CD230F931F93C6
:1001F000CF93DF93EC0181E691E0998388837D833F
:100200006C8388E090E00E94CB238C010E94060F53
:100210001B830A83C8010E94380F63E08A819B8197
:100220000E940A0F62E08A819B810E94200F65E094
:100230008A819B810E94150F188A198A1A8A1B8A43
:100240001C861D861E861F86DF91CF911F910F9100
:100250000895CF92DF92EF92FF92CF93DF93EC015C
:100260009C01265F3F4FAC01485F5F4FBC016A5F56
:100270007F4F8A819B810E944A0F6E817F818827F0
:1002800077FD8095982F0E949A2826EF38E24CE956
:100290005FE30E940F2A27ED33EA40E75FE30E9405
:1002A0000F2A20E030E048EB50E40E9432276B0137
:1002B0007C0168857985882777FD8095982F0E9435
:1002C0009A2826EF38E24CE95FE30E940F2A2BE7D9
:1002D00034E14EE65FE30E940F2A28EB3EE146E060
:1002E00052E40E943227A70196010E94A5276B01C4
:1002F0007C016C897D898E899F890E9475029B0192
:10030000AC01C701B6010E9432276B017C0120E0DD
:1003100030E0A9010E94F82787FF0AC02BED3FE0DB
:1003200049EC50E4C701B6010E9432276B017C0101
:10033000C701B6010E947C022C813D812115310547
:1003400039F0AB01BC01C9010E94DB079B0101C070
:100350009B01A901BC014C875D876E877F87DF9178
:10036000CF91FF90EF90DF90CF900895FC01448BE8
:10037000558B668B778B0895FC01408B518B628B7C
:10038000738B0895CF92DF92EF92FF92FC01248548
:1003900035854685578560897189828993890E9450
:1003A00031276B017C0120E030E044E353EC0E94F4
:1003B000F82787FF09C020E030E044EB53E4C70191
:1003C000B6010E94322712C020E030E044E353E43B
:1003D000C701B6010E94042A181654F420E030E048
:1003E00044EB53E4C701B6010E9431276B017C0145
:1003F000C701B601FF90EF90DF90CF900895CF93A3
:10040000DF93EC016CE071E08BE393E00E945C1CF5
:100410004C855D856E857F8522E030E08BE393E03F
:100420000E94581E67E171E08BE393E00E945C1C20
:10043000488959896A897B8922E030E08BE393E01F
:100440000E94581E6AE271E08BE393E00E945C1CFC
:10045000CE010E94C201AB01BC0122E030E08BE37F
:1004600093E0DF91CF910C945A1ECF92DF92EF92DE
:10047000FF920F931F93CF93DF936C01EB012FE358
:1004800031E040E050E060E070E0CE010E94A8065C
:10049000C6010E94C2018B019C0184E0E82EF12C70
:1004A00040E050E068E070E0CE010E94C30628E41E
:1004B00031E041E050E060E070E0CE010E94A8062B
:1004C000F601048515852685378541E050E068E012
:1004D00070E0CE010E94C306DF91CF911F910F9172
:1004E000FF90EF90DF90CF90089525E33AEF4EE82C
:1004F0005CE30E940F2A089520EE3EE245E652E4B6
:100500000E940F2A089525E531E0FC013183208304
:10051000089525E531E0FC01318320830C94CD233F
:100520000F931F93CF93DF93EC0184EB91E09983BA
:10053000888383E790E00E94CB238C010E94901473
:100540001B830A838FE190E00E94CB238C0120E083
:100550004BE06AE00E942D201D830C8340E855E2A9
:1005600060E070E0C8010E945D204091B5025091AA
:10057000B6026091B7027091B8024E835F836887BC
:1005800079874A875B876C877D870091B1021091DC
:10059000B2022091B3023091B4020A8B1B8B2C8BD8
:1005A0003D8B4E8B5F8B688F798F4A8F5B8F6C8F03
:1005B0007D8FDF91CF911F910F910895CF93DF939E
:1005C000EC018C819D81DC01ED91FC910480F58131
:1005D000E02D0995892B71F18C819D81DC01ED91D4
:1005E000FC910680F781E02D0995682F8A819B8117
:1005F0000E9497178C819D81DC01ED91FC91048014
:10060000F581E02D0995892B39F79E01225F3F4F37
:10061000AE01465F5F4FBE016A5F7F4F8A819B815B
:100620000E946D188A819B810E94DA186A8B7B8BED
:100630008C8B9D8BDF91CF910895FC016681778132
:10064000808591850895FC016285738584859585F3
:100650000895CF92DF92EF92FF921F93CF93DF9393
:10066000EC01C090B502D090B602E090B702F090D5
:10067000B802A70196016E817F81888599850E94C5
:10068000F827882371F011E0A70196016A857B8520
:100690008C859D850E94F827811101C010E0812F73
:1006A00001C080E0DF91CF911F91FF90EF90DF902C
:1006B000CF900895CF93DF93EC010E942903882304
:1006C00091F169E671E08BE393E00E945C1C4E813E
:1006D0005F81688579852FE030E08BE393E00E94AD
:1006E000581E60E771E08BE393E00E945C1C4A8532
:1006F0005B856C857D852FE030E08BE393E00E9485
:10070000581E6AE771E08BE393E00E945C1C4E8503
:100710005F85688979892AE030E08BE393E0DF9197
:10072000CF910C945B1D64E871E08BE393E0DF9163
:10073000CF910C94791C4F925F926F927F928F921F
:100740009F92AF92BF92CF92DF92EF92FF920F9360
:100750001F93CF93DF93CDB7DEB760970FB6F894B2
:10076000DEBF0FBECDBF2A013B010D831E832F8349
:100770003887CB01BA010E94750269837A838B8323
:100780009C83C701B6010E94750269877A878B87AF
:100790009C87A3019201C701B6010E9431270E94E4
:1007A00075026B017C012D813E814F815885C50109
:1007B000B4010E9431270E9475026D837E838F836E
:1007C000988720E030E040E05FE3C701B6010E9477
:1007D0000F2A0E94722A6B017C0169817A818B81C8
:1007E0009C810E94FC272B013C0169857A858B85C1
:1007F0009C850E94FC2769837A838B839C8320E0FD
:1008000030E040E05FE36D817E818F8198850E94BA
:100810000F2A0E94722A4B015C01A7019601C701B1
:10082000B6010E940F2A6B017C0129813A814B811C
:100830005C81C301B2010E940F2A2B013C01A5017A
:100840009401C501B4010E940F2A9B01AC01C301B0
:10085000B2010E940F2A9B01AC01C701B6010E94A0
:1008600032276B017C019B01AC0160E070E080E805
:100870009FE30E9431270E947C2A9B01AC01C701A3
:10088000B6012D873E874F87588B0E947C2A2D8585
:100890003E854F8558890E94A5279B01AC010E9487
:1008A000322720E73DE642EC5AE40E940F2A609688
:1008B0000FB6F894DEBF0FBECDBFDF91CF911F9171
:1008C0000F91FF90EF90DF90CF90BF90AF909F90EF
:1008D0008F907F906F905F904F9008958F929F922E
:1008E000AF92BF92CF92DF92EF92FF920F931F933E
:1008F000CF93DF93EC016A017B01480159010E940B
:100900002903882361F00A851B852C853D854E814E
:100910005F8168857985CE010E949B0304C060E0F9
:1009200070E080E89FEBDF91CF911F910F91FF90D6
:10093000EF90DF90CF90BF90AF909F908F900895F1
:10094000AF92BF92CF92DF92EF92FF920F931F93DD
:10095000CF93DF935C01EB010E942903882309F404
:10096000A4C0C090B502D090B602E090B702F0905B
:10097000B802A7019601F50166897789808D918D6E
:100980000E94F827882309F458C0A7019601F501B1
:10099000628D738D848D958D0E94F827882309F4CC
:1009A0004CC02AE931E040E050E060E070E0CE0168
:1009B0000E94A806F501068117812085318593E004
:1009C000E92EF12C40E050E064E070E0CE010E949E
:1009D000C3062FE931E040E050E068E070E0CE016E
:1009E0000E94A806F501028513852485358540E01F
:1009F00050E06BE070E0CE010E94C30624EA31E0D3
:100A000041E050E060E070E0CE010E94A806F501F0
:100A1000028D138D248D358D46895789608D718D9A
:100A2000C5010E946E048B019C014FE0E42EF12C65
:100A300041E050E063E070E02AC02AE931E040E0A4
:100A400050E060E070E0CE010E94A806F50106814A
:100A50001781208531858FE0E82EF12C40E050E0B1
:100A600064E070E0CE010E94C3062FE931E041E06E
:100A700050E060E070E0CE010E94A806F50102851A
:100A800013852485358541E050E064E070E0CE01B7
:100A90000E94C306DF91CF911F910F91FF90EF90BD
:100AA000DF90CF90BF90AF90089527EA31E040E00B
:100AB00050E060E070E0CE010E94A8062EE831E030
:100AC00041E050E060E070E0CE01DF91CF911F91F6
:100AD0000F91FF90EF90DF90CF90BF90AF900C946C
:100AE000A8064F925F926F927F928F929F92AF92E1
:100AF000BF92CF92DF92EF92FF920F931F93CF930B
:100B0000DF93CDB7DEB760970FB6F894DEBF0FBEA8
:100B1000CDBF09831A832B833C83CB01BA010E948A
:100B200075022B013C01C701B6010E9475026B01E1
:100B30007C0129813A814B815C81C501B4010E940D
:100B400031270E9475024B015C010E94722A6D835D
:100B50007E838F839887C701B6010E94FC27698333
:100B60007A838B839C83C301B2010E94FC2769872F
:100B70007A878B879C87C701B6010E94722A9B01E6
:100B8000AC01C301B2012D873E874F87588B0E946D
:100B9000722A6B017C01C501B4010E94FC272B0164
:100BA0003C012D853E854F85588969857A858B85E1
:100BB0009C850E940F2A4B015C0129813A814B815F
:100BC0005C81C701B6010E940F2AA30192010E9415
:100BD0000F2A9B01AC01C501B4010E9431276B01B2
:100BE0007C0129813A814B815C816D817E818F817D
:100BF00098850E940F2AA70196010E94A5270E94AE
:100C00007C0220E030E044EB53E40E94322720E0F5
:100C100030E044EB53E460960FB6F894DEBF0FBEAD
:100C2000CDBFDF91CF911F910F91FF90EF90DF909B
:100C3000CF90BF90AF909F908F907F906F905F907C
:100C40004F900C94DC288F929F92AF92BF92CF92DC
:100C5000DF92EF92FF920F931F93CF93DF93EC01FC
:100C60006A017B01480159010E942903882361F030
:100C70000A851B852C853D854E815F816885798538
:100C8000CE010E94710504C060E070E080E89FEB37
:100C9000DF91CF911F910F91FF90EF90DF90CF9058
:100CA000BF90AF909F908F9008956F927F928F9298
:100CB000AF92CF92EF920F93CF93DF93EC0189E144
:100CC00090E00E94CB233C0187E0882E96E0A92E7D
:100CD00025E0C22E34E0E32E00E021E042E067E2AE
:100CE000C3010E94C31A79826882D301ED91FC91FD
:100CF0000480F581E02D20E042E064E1C301099524
:100D000088819981DC01ED91FC910680F781E02DCD
:100D100040E050E063E0099588819981DC01ED9124
:100D2000FC910084F185E02D61E00995888199812D
:100D3000DF91CF910F91EF90CF90AF908F907F90F8
:100D40006F900C947619FC01808191810C946F193D
:100D50000F931F93CF93DF93EC018901423051052C
:100D600068F4888199810E947D19B80188819981F0
:100D7000DF91CF911F910F910C945C1CDF91CF916B
:100D80001F910F9108958F929F92AF92BF92EF9211
:100D9000FF920F931F93CF93DF93EC01480159010A
:100DA00042305105A8F4888199810E947D199701EC
:100DB000B501A40188819981DF91CF911F910F9195
:100DC000FF90EF90BF90AF909F908F900C94581E23
:100DD000DF91CF911F910F91FF90EF90BF90AF9057
:100DE0009F908F900895CF92DF92EF92FF920F9392
:100DF0001F93CF93DF93EC017B018A011982188244
:100E000088E090E09B838A831D821C8280E190E0D1
:100E10000E94CB236C018883D982FA86E9860C175D
:100E20001D0709F482C0D80114968D919C911597E5
:100E30004A815B814817590720F59B838A83880F75
:100E4000991F0E94CB23998388834C815D81F60191
:100E500020E030E02417350789F0A881B981B90175
:100E6000660F771FA60FB71F109721F06081718161
:100E70006D937C932F5F3F4F3296ECCFC6010E945B
:100E8000CD238C819D81F80144815581BA0184175D
:100E9000950708F4BC0120E030E02617370799F0E9
:100EA0006901CC0CDD1CD801ED91FC91EC0DFD1D10
:100EB000E080F180E881F981EC0DFD1DF182E08296
:100EC0002F5F3F4FEACF8417950758F0F8018481D0
:100ED00095812C813D818217930738F59D838C8302
:100EE00024C09C01220F331FD80114964D915C91B0
:100EF00015978417950750F7F801A081B181A20FCB
:100F0000B31FE881F981E20FF31F309721F04D9173
:100F10005C91518340834C815D814F5F5F4F5D8366
:100F20004C8301962E5F3F4FDFCF18861F82DF91E3
:100F3000CF911F910F91FF90EF90DF90CF90089588
:100F40000F931F93CF93DF93EC0189859A850097C8
:100F500011F10E94A3060F8118858C819D810817CD
:100F6000190720F08CEB91E00E945F1B000F111F0E
:100F7000E881F981E00FF11F80819181DC01ED9121
:100F8000FC9169857A850680F781E02DDF91CF910C
:100F90001F910F910994DF91CF911F910F910895A7
:100FA000FC01878190850196648175810E94A0264D
:100FB0009087878308958F929F92AF92BF92CF922E
:100FC000DF92EF92FF92CF93DF93EC01CB01BA0156
:100FD000688B798B8A8B9B8BC880D980EA80FB8059
:100FE000A70196010E940F2A4B015C01A7019601FF
:100FF00060E070E080E89FE30E9431272C853D850A
:101000004E855F850E940F2A9B01AC01C501B4018A
:101010000E9432276C877D878E879F87DF91CF91D3
:10102000FF90EF90DF90CF90BF90AF909F908F9008
:10103000089525E531E0FC0131832083089525E5FD
:1010400031E0FC01318320830C94CD23CF93DF93D7
:10105000EC016BE172E08BE393E00E945C1C6E8913
:101060007F894AE050E08BE393E00E942E1D61E20D
:1010700072E08BE393E00E945C1C688D798D4AE0FE
:1010800050E08BE393E0DF91CF910C94361DCF922B
:10109000DF92EF92FF920F931F93CF93DF936C0138
:1010A000EB012AE232E040E050E060E070E0CE0187
:1010B0000E94A806F60166897789882777FD8095C2
:1010C000982F0E949A288B019C01EE24E394F12C26
:1010D00040E050E066E070E0CE010E94C30621E3EC
:1010E00032E041E050E060E070E0CE010E94A806EE
:1010F000F601608D718D882777FD8095982F0E946D
:101100009A288B019C0141E050E066E070E0CE013E
:101110000E94C306DF91CF911F910F91FF90EF9036
:10112000DF90CF9008952F923F924F925F926F92EF
:101130007F928F929F92AF92BF92CF92DF92EF9267
:10114000FF920F931F93CF93DF93CDB7DEB73C0190
:10115000862F2D883E884F88588CEDE3F2E0D3012E
:101160001196FC93EE9357961C921E9256975996A1
:101170001C921E925897F30186869786A08AB18AA0
:1011800052962D923D924D925C92559712966C9389
:10119000129713967C93139715965C934E9314971E
:1011A00017963C932E93169719961C930E931897A7
:1011B0001B96FC92EE921A971D96DC92CE921C978B
:1011C00061E00E943D2561E0F30184810E943D259C
:1011D00061E0D30116968C910E943D2561E0F301F8
:1011E00080850E943D2561E0D3011A968C910E9472
:1011F0003D2561E0F3018485DF91CF911F910F912F
:10120000FF90EF90DF90CF90BF90AF909F908F9026
:101210007F906F905F904F903F902F900C943D2562
:10122000CF93DF93EC01CB016F3F710519F014F000
:101230008FEF90E09F8B8E8BCA014F3F510519F0C5
:1012400014F08FEF90E0998F888F61E018161906DF
:101250000CF060E08A850E94762561E0888D998D8A
:10126000181619060CF460E08C850E94762561E062
:101270008E899F89181619060CF060E08C810E94F7
:10128000762561E08E899F89181619060CF460E0B6
:101290008E810E9476256E897F89882777FD8095CB
:1012A000982F0E949A282E853F85488959890E9447
:1012B0000F2A0E9467288A810E94B524688D798D43
:1012C000882777FD8095982F0E949A282A893B8944
:1012D0004C895D890E940F2A0E9467288885DF91CA
:1012E000CF910C94B524CF92DF92EF92FF920F939F
:1012F0001F93CF93DF938C016A017B01E90120E00A
:1013000030E0A901C701B6010E94042A18168CF426
:10131000A701960160E070E08FE793E40E94312717
:101320000E9467286C177D070CF4BE014FEF50E058
:1013300011C020E030E04FE753E4C701B6010E943E
:1013400032270E946728AB016C177D070CF4AE01B1
:101350006FEF70E0C801DF91CF911F910F91FF9067
:10136000EF90DF90CF900C941009AF92BF92CF9284
:10137000DF92EF92FF920F931F93CF93DF931F9211
:10138000CDB7DEB75C018B0177FF02C000E010E053
:1013900061E0F501848149830E94762560E0F501D2
:1013A00086810E94762560E0F50182850E9476257F
:1013B00061E0F50184850E9476254981442391F0FE
:1013C0006FEF70E0F50182810E94B5246FEF70E04D
:1013D000F50180850E94B52464E670E080E090E02D
:1013E0000E944824B801882777FD8095982F0E9495
:1013F0009A286B017C01F501268537854089518942
:101400000E940F2A0E946728F50182810E94B5245C
:10141000F5012289338944895589C701B6010E94A3
:101420000F2A0E946728F50180850E94B524F501E6
:10143000178B068B119501951109118F008F0F9055
:10144000DF91CF911F910F91FF90EF90DF90CF90A0
:10145000BF90AF900895AF92BF92CF92DF92EF927C
:10146000FF920F931F93CF93DF931F92CDB7DEB7F9
:101470005C018B0177FF02C000E010E060E0F50145
:10148000848149830E94762561E0F50186810E946E
:10149000762561E0F50182850E94762560E0F50100
:1014A00084850E9476254981442391F06FEF70E096
:1014B000F50182810E94B5246FEF70E0F50180850F
:1014C0000E94B52464E670E080E090E00E94482429
:1014D000B801882777FD8095982F0E949A286B0184
:1014E0007C01F50126853785408951890E940F2AA4
:1014F0000E946728F50182810E94B524F5012289A6
:10150000338944895589C701B6010E940F2A0E9478
:101510006728F50180850E94B52488279927801BBC
:10152000910BF501978B868B118F008F0F90DF91B8
:10153000CF911F910F91FF90EF90DF90CF90BF90D0
:10154000AF900895CF93DF93EC0160E08C810E940F
:10155000762560E08E810E94762560E08A850E9473
:10156000762560E08C850E94762561E08A810E9464
:10157000762561E088850E9476251F8A1E8A198E4D
:10158000188EDF91CF91089525E531E0FC0131837C
:101590002083089525E531E0FC01318320830C94FC
:1015A000CD230F931F93CF93DF93EC0165E472E09B
:1015B0008BE393E00E945C1C8E010E5F1F4FC801FD
:1015C0000E947E14AB01BC0122E030E08BE393E08B
:1015D0000E94581E6BE472E08BE393E00E945C1C57
:1015E000C8010E948414AB01BC0122E030E08BE30F
:1015F00093E00E94581E63E572E08BE393E00E9443
:101600005C1CC8010E948A14AB01BC0122E030E0DE
:101610008BE393E00E94581E6BE572E08BE393E04E
:101620000E945C1CEF96488159816A817B8122E08F
:1016300030E08BE393E0DF91CF911F910F910C94F9
:101640005A1EAF92BF92CF92DF92EF92FF920F930A
:101650001F93CF93DF936C01EB0128E632E040E06B
:1016600050E060E070E0CE010E94A806560182E0E2
:10167000A80EB11CC5010E947E148B019C0182E062
:10168000E82EF12C40E050E063E070E0CE010E94D3
:10169000C3062CE632E040E050E069E070E0CE01A5
:1016A0000E94A806C5010E9484148B019C0140E0A1
:1016B00050E06CE070E0CE010E94C30620E732E00B
:1016C00041E050E060E070E0CE010E94A806C50154
:1016D0000E948A148B019C0141E050E063E070E0BD
:1016E000CE010E94C30624E732E041E050E069E009
:1016F00070E0CE010E94A806F601FF9600811181DC
:101700002281338141E050E06BE070E0CE010E9425
:10171000C306DF91CF911F910F91FF90EF90DF9063
:10172000CF90BF90AF9008956F927F928F929F92CB
:10173000AF92BF92CF92DF92EF92FF920F931F93DF
:10174000CF93DF93EC013C0183E4680E711C4E01E2
:10175000EFE38E0E911CCE01CB961F921F92FF924B
:10176000EF92DF92CF92580169017A018B019301C8
:10177000A401BC01C9970E9411148BE792E09983E0
:101780008883F30110821182128213821BAE1CAE79
:101790001DAE1EAEF40110821182128213820F90D0
:1017A0000F900F900F900F900F90DF91CF911F919E
:1017B0000F91FF90EF90DF90CF90BF90AF909F90F0
:1017C0008F907F906F900895FC0143AF54AF65AF49
:1017D00076AF0895CF96FC016081718182819381FB
:1017E0000895FC01858596850C94D007FC018585BC
:1017F00096850C94A007CF92DF92EF92FF92CF9341
:10180000DF93EC01CF84D888E988FA888B819C81AA
:101810000E941D039B01AC01C701B6010E94F8277D
:10182000811110C0CB88DC88ED88FE888B819C817B
:101830000E9423039B01AC01C701B6010E94F82757
:10184000882389F08B819C810E941D036F87788B90
:10185000898B9A8B8B819C810E9423036B8B7C8B61
:101860008D8B9E8B81E0DF91CF91FF90EF90DF9089
:10187000CF9008950F931F9303ED1BE425E931E406
:1018800046EC5FEC65E372E4FC01838194810E9485
:101890006E0420E030E040E85FE30E94F827881FF4
:1018A0008827881F1F910F910895CF93DF93EC0134
:1018B00081E0888340E06FEF70E08D819E810E941F
:1018C0002B0A60EA7FE080E090E00E9448248D814E
:1018D0009E810E94A20A6CE271E080E090E00E948A
:1018E000482440E06FEF70E08D819E810E94B50931
:1018F00060EA7FE080E090E00E9448248D819E8134
:10190000DF91CF910C94A20A0F931F93CF93DF9393
:10191000EC0103ED1BE425E931E446EC5FEC65E303
:1019200072E48B819C810E942306AB01BC018B85F4
:101930009C85DF91CF911F910F910C94BC01CF93A7
:10194000DF93EC018B859C850E9429018B859C850A
:101950000E94C201AB01BC0189859A850E94E40BFB
:1019600089859A8502960E94D81089859A850E9459
:10197000EA0BAB01BC012AE030E08D819E81DF9152
:10198000CF910C947309CF93DF93EC018B819C81F1
:101990000E9429038823B9F0CE010E94FB0B882303
:1019A00069F0CE010E943A0C882329F0CE01DF9124
:1019B000CF910C94550CCE010E94840CCE01DF9186
:1019C000CF910C949F0CDF91CF910895CF92DF922D
:1019D000EF92FF92CF93DF93EC018881811154C085
:1019E0008B819C810E94DE020E9419246B017C0184
:1019F0004B8D5C8D6D8D7E8DD701C601841B950B43
:101A0000A60BB70B82339105A105B10538F0CB8E3B
:101A1000DC8EED8EFE8ECE010E94C30C4F89588D58
:101A2000698D7A8DD701C601841B950BA60BB70B68
:101A3000AC01BD01483E53406105710538F0CF8AC5
:101A4000D88EE98EFA8ECE010E94F60B4F8D58A1EA
:101A500069A17AA1D701C601841B950BA60BB70B10
:101A6000AC01BD01483853416105710568F0CF8E66
:101A7000D8A2E9A2FAA2CE01DF91CF91FF90EF9018
:101A8000DF90CF900C94F10BDF91CF91FF90EF900E
:101A9000DF90CF900895CF92DF92EF92FF920F9355
:101AA0001F93CF93DF93EC017B018C819D818C018F
:101AB0000F5F1F4F8017910708F046C04A815B8176
:101AC0004017510750F509964817590730F5C88057
:101AD000D9809B838A83880F991F0E94CB23998387
:101AE00088834C815D81F60120E030E024173507C2
:101AF00089F0A881B981B901660F771FA60FB71FBA
:101B0000109721F0608171816D937C932F5F3F4F1F
:101B10003296ECCFC6010E94CD238C819D819C0121
:101B2000220F331F8017910790F4E881F981E20FAB
:101B3000F31F309729F0D7014D915C915183408379
:101B400001962E5F3F4FEECF0817190710F41D8343
:101B50000C83DF91CF911F910F91FF90EF90DF9059
:101B6000CF9008954F925F926F927F928F929F9243
:101B7000AF92BF92CF92DF92EF92FF920F931F939B
:101B8000CF93DF93CDB7DEB72E970FB6F894DEBFB5
:101B90000FBECDBF3C0164E670E080E090E00E94A3
:101BA000482488E190E00E94CB238C0160E070E043
:101BB0000E94F600F301148703874DED5DED65E8A3
:101BC00070E4C8010E94B6018EE190E00E94CB2330
:101BD0008C010E949002F3011483038346EC5FECB6
:101BE00065E372E4F801468B578B608F718F43ED8C
:101BF0005BE465E971E4428F538F648F758F8AE1EE
:101C000090E00E94CB232C018FE38F9380E88F9389
:101C10001F921F92812C912CE0E8AE2EEFE3BE2E96
:101C2000F7E0CF2ED12CA5E0EA2EF12C06E010E053
:101C300024E030E042E050E063E070E0C2010E9446
:101C40009308F3015682458287E490E00E94CB23FB
:101C50004C01A12CB12CBFE8CB2EB2ECDB2EB5EFA2
:101C6000EB2EBDE3FB2E0AE017ED23E23CE340E060
:101C700050E060E771E40E94940BF3019286818644
:101C800061E070E0C40102960E94BF13F3018185F8
:101C9000928500E010E02FE733E440E050E06FE78A
:101CA00073EC02960E94F912F3018185928562E33A
:101CB00070E002960E94AB1282E090E00E94CB237B
:101CC0008C010E945506F301128301831986188640
:101CD00088E090E09B878A871D861C8680E190E0E3
:101CE0000E94CB2399878887F301838194810F9089
:101CF0000F900F900F90009749F09A838983BE014F
:101D00006F5F7F4FCE0108960E944B0DF3018385D4
:101D10009485009749F09A838983BE016F5F7F4F56
:101D2000CE0108960E944B0DF301818592850097A4
:101D300049F09A838983BE016F5F7F4FCE01089679
:101D40000E944B0DF30185819681009749F09A839B
:101D50008983BE016F5F7F4FCE0108960E944B0DB5
:101D60008C859D859E838D8308969C838B83880FAD
:101D7000991F0E94CB239A8389834D815E8180E0E5
:101D800090E08417950799F0A885B9859C01220FEA
:101D9000331FA20FB31FE981FA81E20FF31F3097BF
:101DA00021F02D913C91318320830196EACF8BE085
:101DB00090E00E94CB238C01F30161817281AE011E
:101DC0004F5F5F4F0E94F306F301168705878981F5
:101DD0009A810E94CD23888599850E94CD232E96D5
:101DE0000FB6F894DEBF0FBECDBFDF91CF911F912C
:101DF0000F91FF90EF90DF90CF90BF90AF909F90AA
:101E00008F907F906F905F904F9008952EE1FC012E
:101E1000208308950F93062F22E046E060E0FC0146
:101E200080810E9492100F9108950F93062F23E056
:101E300044E060E0FC0180810E9492100F910895BF
:101E4000462F4295440F407E61E0FC0180810C9456
:101E5000CB0F1F93CF93DF93EC01162F462F62E039
:101E600088810E94CB0F1F83DF91CF911F9108952E
:101E7000CF93DF93EC0140E760E088810E94CB0FB5
:101E800061E0CE010E94200F61E0CE01DF91CF9191
:101E90000C94290FAF92BF92CF92DF92EF92FF92F4
:101EA0000F931F93CF93DF93EC017B015A016901DC
:101EB00000910A0110910B019C012F5F3F4F46E0FA
:101EC00063E088810E94DB0F8F81813029F441E03B
:101ED00062E088810E94CB0F898190E0982F88274B
:101EE0002A81822BF701918380838D8190E0982F46
:101EF00088272E81822BF501918380838B8190E04E
:101F0000982F88272C81822BF60191838083DF9183
:101F1000CF911F910F91FF90EF90DF90CF90BF90E6
:101F2000AF900895EF92FF920F931F93CF93DF939B
:101F300000D0CDB7DEB7062F142F682F8CE194E0C8
:101F400029833A830E949C21602F8CE194E00E94B7
:101F500043212981022FE22E3A81F32E8E2D801B00
:101F6000811740F4F70161917F018CE194E00E94B8
:101F70004321F4CF8CE194E00E94B92191E08111DA
:101F800090E0892F0F900F90DF91CF911F910F91CB
:101F9000FF90EF900895CF93DF931F92CDB7DEB7F8
:101FA00049839E012F5F3F4F41E00E94920F0F90A7
:101FB000DF91CF9108953F924F925F926F927F92FF
:101FC0008F929F92AF92BF92CF92DF92EF92FF9249
:101FD0000F931F93CF93DF9300D000D000D0CDB7E5
:101FE000DEB7682E562E742E3A8329830E94192458
:101FF0006B017C01312C412C872D90E09C838B83DD
:102000004801A12CB12C3714B0F5662D8CE194E079
:102010000E949C21652D8CE194E00E9443218CE17B
:1020200094E00E94B921662D8CE194E00E949C21ED
:102030004B815C81431951094132510514F040E252
:1020400050E0662D8CE194E00E9499218CE194E0AF
:102050000E94EB20892B59F10115110579F10E949D
:1020600019246C197D098E099F09681579058A055F
:102070009B0520F11CC00115110589F10E9419244E
:102080006C197D098E099F0920E030E06017710707
:102090008207930720F1872D90E0242D332727FD19
:1020A000309528173907DCF444244A9418C0872D4A
:1020B00090E2971508F480E2380EA5CFE981FA8105
:1020C000E40DF11D47FCFA95FE83ED838CE194E06D
:1020D0000E94F320ED81FE8180834394B7CF842D4D
:1020E00026960FB6F894DEBF0FBECDBFDF91CF911D
:1020F0001F910F91FF90EF90DF90CF90BF90AF9026
:102100009F908F907F906F905F904F903F90089539
:102110000F931F9389019A0141E00E94DB0F1F91E9
:102120000F910895DF92EF92FF920F931F93CF9339
:10213000DF931F92CDB7DEB7F82EE62ED42E122FE6
:1021400020910A0130910B01AE014F5F5F4F0E9459
:102150008810882319F14D2D50E0411B51094F5F24
:102160005F4FE1E0F0E002C0EE0FFF1F1A95E2F7CB
:102170003197042E01C0EE0F0A94EAF701C0000F58
:102180004A95EAF74E2F409589814823E0234E2B4C
:1021900049836E2D8F2D0E94CB0F01C080E00F90E0
:1021A000DF91CF911F910F91FF90EF90DF900895F5
:1021B0002F923F924F925F926F927F928F929F9257
:1021C000AF92BF92CF92DF92EF92FF920F931F9345
:1021D000CF93DF93CDB7DEB72B970FB6F894DEBF62
:1021E0000FBECDBF9B878A87DC01D896BC91B9838F
:1021F000B11102C01982E2C00E9419246A837B8354
:102200008C839D83EA85FB8580A191A1A2A1B3A1C6
:102210004A815B816C817D81481B590B6A0B7B0B6A
:1022200084A595A5A6A5B7A5481759076A077B07F2
:1022300008F3028CF38DE02D80809180A280B38022
:10224000AA85BB855E96ED91FC915F97A5019401EF
:1022500060817181828193810E9431272B013C0131
:10226000EA85FB8520893189428953890E940F2A9A
:10227000AA85BB8594962D913D914D915C91979740
:102280000E9432276B017C01EA85FB8564A375A35C
:1022900086A397A324A835A806A917A99101A80188
:1022A0000E94042A18161CF4C101D80118C0AA857E
:1022B000BB85D0968D919D910D90BC91A02D8E8364
:1022C0009F83A887B9879C01AD01C701B6010E9411
:1022D000F82787FF0AC08E819F81A885B985EA8586
:1022E000FB8584A395A3A6A3B7A3AA85BB851C964B
:1022F0002D913D914D915C911F97C301B2010E94B8
:102300000F2AEA85FB8524A135A146A157A10E9489
:1023100032276B017C01AA85BB8598962D913D9152
:102320004D915C919B97C501B4010E943127EA85CC
:10233000FB8524893589468957890E940F2A9B018C
:10234000AC01C701B6010E9431276B017C019101EC
:10235000A8010E94042A1816BCF0AA85BB85D09655
:102360002C90D097D1963C90D197D2960C91D29741
:10237000D3961C919101A801B601C7010E94F827CC
:1023800087FD02C016018701AA85BB855C96ED9189
:10239000FC915D97C101D80180839183A283B383AF
:1023A000EA85FB8580A691A6A2A6B3A68A819B8119
:1023B000AC81BD8180A391A3A2A3B3A389812B96F5
:1023C0000FB6F894DEBF0FBECDBFDF91CF911F9146
:1023D0000F91FF90EF90DF90CF90BF90AF909F90C4
:1023E0008F907F906F905F904F903F902F900895C7
:1023F0002F923F924F925F926F927F928F929F9215
:10240000AF92BF92CF92DF92EF92FF920F931F9302
:10241000CF93DF9300D000D0CDB7DEB71C012A01E7
:102420003B014801590120E030E0A901C301B2019C
:102430000E94F82787FD78C020E030E0A901C5019F
:10244000B4010E94F82787FD6FC020E030E0A901A9
:10245000C701B6010E94F82787FD66C0F1014082DE
:1024600051826282738284829582A682B782C086FC
:10247000D186E286F38664A575A586A597A50E94F8
:10248000982820E030E04AE754E40E94FF2769835F
:102490007A838B839C83F101448655866686778692
:1024A0009B01AC01C501B4010E940F2A4B015C01E4
:1024B000F101608B718B828B938B29813A814B81E7
:1024C0005C81C701B6010E94FF276B017C01F1010D
:1024D000648B758B868B978B808D918D019721F501
:1024E000A301920160E070E0CB010E943127F1016D
:1024F0006487758786879787A501940160E070E0FF
:10250000CB010E943127F101608B718B828B938B01
:10251000A701960160E070E0CB010E943127F10134
:10252000648B758B868B978B0F900F900F900F900D
:10253000DF91CF911F910F91FF90EF90DF90CF909F
:10254000BF90AF909F908F907F906F905F904F90D3
:102550003F902F9008958F929F92AF92BF92CF920B
:10256000DF92EF92FF92CF93DF93EC0116161706DE
:10257000ACF56B01EE24D7FCE094FE2CC701B6014C
:102580000E949A284B015C016CA57DA58EA59FA594
:102590000E9498289B01AC01C501B4010E94FF274D
:1025A0004B015C019B01AC01688979898A899B890F
:1025B0000E940F2A688B798B8A8B9B8BA5019401D3
:1025C0006C897D898E899F890E94FF276C8B7D8B0A
:1025D0008E8B9F8BCCA6DDA6EEA6FFA6DF91CF91BA
:1025E000FF90EF90DF90CF90BF90AF909F908F9033
:1025F00008952F923F924F925F926F927F928F92A7
:102600009F92AF92BF92CF92DF92EF92FF920F9381
:102610001F93CF93DF93EC016A017B0148015901BD
:10262000A9019801C701B6010E94042A87FF4EC084
:10263000C8AAD9AAEAAAFBAA8CAA9DAAAEAABFAA2E
:1026400088AD882309F442C02C8C3D8CF101408078
:10265000518062807380A5019401C301B2010E9480
:10266000042A181634F4F10180829182A282B38286
:102670000DC0A7019601C301B2010E94F82787FF90
:1026800005C0F101C082D182E282F3828CA09DA0BC
:10269000AEA0BFA0CCA8DDA8EEA8FFA8A701960118
:1026A000C501B4010E94042A181664F0C8A8D9A86C
:1026B000EAA8FBA8A7019601C501B4010E94F8276A
:1026C00087FF04C0CCA2DDA2EEA2FFA2DF91CF91D2
:1026D0001F910F91FF90EF90DF90CF90BF90AF9040
:1026E0009F908F907F906F905F904F903F902F9032
:1026F00008958F929F92AF92BF92CF92DF92EF9206
:10270000FF92CF93DF93EC01EC8DFD8DC080D180E3
:10271000E280F380CCA2DDA2EEA2FFA2EA8DFB8DC7
:1027200080819181A281B38188A799A7AAA7BBA71D
:102730008CA89DA8AEA8BFA8A5019401C701B601A9
:102740000E94042A181664F088A899A8AAA8BBA811
:10275000A5019401C701B6010E94F82787FF04C0B4
:102760008CA29DA2AEA2BFA2DF91CF91FF90EF906D
:10277000DF90CF90BF90AF909F908F9008951F9360
:10278000CF93DF93EC0111E06130710509F010E0A7
:1027900088AD91E08927181303C0CE010E947913F8
:1027A00018AFDF91CF911F9108950F931F93CF938F
:1027B000DF93EC018B0188AD882361F1888D998DC1
:1027C0006817790739F12C853D854E855F8560E076
:1027D00070E0CB010E9431276C877D878E879F87B1
:1027E000288939894A895B8960E070E0CB010E94C1
:1027F0003127688B798B8A8B9B8B2C893D894E89FD
:102800005F8960E070E0CB010E9431276C8B7D8B8B
:102810008E8B9F8B198F088FDF91CF911F910F9116
:1028200008954F925F926F927F928F929F92AF9294
:10283000BF92CF92DF92EF92FF920F931F93CF93AD
:10284000DF9300D000D0CDB7DEB74C0127013801AF
:10285000A982BA82CB82DC82FC01558F448F738FB0
:10286000628F378F268F10AE10AA11AA12AA13AA50
:1028700080E090E0AFE7B3E484AB95ABA6ABB7AB39
:1028800084E690E0A0E0B0E084A795A7A6A7B7A74C
:102890006B8D7C8DC4010E94D513CF88D88CE98CB8
:1028A000FA8C09811A812B813C81B301A201C401F8
:1028B0000E94F8110E941924F40144A455A466A4AE
:1028C00077A4641975098609970960A371A382A387
:1028D00093A30F900F900F900F90DF91CF911F91C6
:1028E0000F91FF90EF90DF90CF90BF90AF909F90AF
:1028F0008F907F906F905F904F900895FC01608162
:102900007181828193810895FC0164817581868142
:1029100097810895FC01608571858285938508956E
:102920000F931F93FC010FEF1FEF9801008311839A
:102930002283338310861186128613864FEF59EC5B
:102940006AE97BE3408B518B628B738B408F518F95
:10295000628F738F40A351A362A373A340A751A7B3
:1029600062A773A740AB51AB62AB73AB00AF11AFC3
:1029700022AF33AFDC01A05CBF4F8FEF90E0119628
:102980009C938E9314960D931D932D933C931397C4
:1029900018960D931D932D933C93139718961C92A4
:1029A00011961C92509682E08C9311961C9211966F
:1029B0001C9211961C9211961D921D921D921C92B2
:1029C0001397149611961C921E9212961D921C92A9
:1029D000EA5AFF4F10821F910F9108952FEB260F97
:1029E000862F992787FD9095263010F4C797089574
:1029F0006156663018F4875591090895C097089577
:102A00000F931F93FB0160E070E0CB01019120ED7B
:102A1000200F2A30A0F4AAE0B0E09B01AC010E9494
:102A20000F27112707FD1095212F312F600F711FE0
:102A3000821F931F6053710981099109E7CF1F918C
:102A40000F9108950F931F93CF93FC01EA5AFF4F04
:102A5000C1E020812D3219F0C0E08F0103C08C014C
:102A6000095A1F4FB8010E9400159B01AC01A4E652
:102A7000B0E00E940F27F801DF01219130ED320F05
:102A80003A30D0F32E3269F511962C91119730ED32
:102A9000320F3A3030F5332727FD30952053310976
:102AA0004AE0429F8001439F100D1124222717FD09
:102AB0002095322F600F711F821F931F12960C9169
:102AC00020ED200F2A3068F4112707FD10950053E0
:102AD0001109222717FD2095322F600F711F821FC9
:102AE000931FCC2339F090958095709561957F4F19
:102AF0008F4F9F4FCF911F910F9108954F925F92EB
:102B00006F927F928F929F92AF92BF92CF92DF92FD
:102B1000EF92FF92CF93DF93EC01CA5ADF4FBE01D1
:102B20000E9400152B013C0124E630E040E050E01B
:102B30000E94C8269B01AC0160EA76E881E090E043
:102B40000E9490266B017C01FE01819190ED980F0F
:102B50009A30D8F38E3219F5EF0180E1882E87E2A2
:102B6000982EA12CB12CA99180ED8A0F8A30B8F44F
:102B7000BB27A7FDB095D097A50194010E941A2705
:102B8000C60ED71EE81EF91EC501B4012AE030E0CA
:102B900040E050E00E94C82649015A01E4CFC70135
:102BA000B6016D5F7F4F8F4F9F4F26E030E040E0D2
:102BB00050E00E94C82669017A01C301B20124E6EF
:102BC00030E040E050E00E94C82660E472E48FE00C
:102BD00090E00E949026C60ED71EE81EF91EC7017F
:102BE000B601DF91CF91FF90EF90DF90CF90BF9033
:102BF000AF909F908F907F906F905F904F900895CF
:102C0000DB01FA018D91882319F091918917D1F395
:102C1000992787FD90950895CF92DF92EF92FF92CA
:102C20001F93CF93DF93EC01FC01EB5AFF4F108110
:102C3000112309F4A9C0319660810E94EE14182F67
:102C4000FE01E95AFF4F6081CE010E94EE1440E17F
:102C5000149F800D1124FE01EC5AFF4F90818913BF
:102C60008AC074961081112309F458C13596808169
:102C70009181019691838083B59780819181A28112
:102C8000B381349780839183A283B3833C96808100
:102C90009181A281B381349780839183A283B3838E
:102CA000799680818823A1F1813009F037C18C8128
:102CB0009D81AE81BF8188839983AA83BB838C85E4
:102CC0009D85AE85BF8588879987AA87BB878C89B4
:102CD0009D89AE89BF89888B998BAA8BBB8B8C8D84
:102CE0009D8DAE8DBF8D888F998FAA8FBB8F8CA540
:102CF0009DA5AEA5BFA588A799A7AAA7BBA78CA984
:102D00009DA9AEA9BFA988AB99ABAAABBBAB06C1C5
:102D10008CA19DA1AEA1BFA188A399A3AAA3BBA387
:102D20008C819D81AE81BF8188839983AA83BB8377
:102D30008C899D89AE89BF89888B998BAA8BBB8B27
:102D40008C8D9D8DAE8DBF8D888F998FAA8FBB8FF7
:102D5000FE01E05CFF4FDE01AE5BBF4F8D919C91A9
:102D6000918380838CAD9DADAEADBFAD88AF99AF83
:102D7000AAAFBBAFD3C0C159DF4F888199810196FB
:102D80009983888310E0CAC0FC01EA59FF4F308163
:102D90008B599F4F7C0131111DC06E0196E5C90E04
:102DA000D11C43E852E0B601CE010E940016892BE7
:102DB00011F481E00CC049E852E0B601CE010E9456
:102DC0000016892B19F4F7011082A8C082E0D70100
:102DD0008C93A4C0DC01EC91E23009F49FC0CE01D9
:102DE0008A5A9F4FDC012C91222309F497C0B0E24C
:102DF000EB9FF0011124E32B3197E932F10508F044
:102E00008DC0EC5CFF4F0C940927CE010E94221567
:102E10006C837D838E839F830E941924C85BDF4F60
:102E200012C0C859DF4F81E0213409F05DC05DC098
:102E3000CE010E947E156C8B7D8B8E8B9F8B0E94AA
:102E40001924C05BDF4F688379838A839B8366C0C4
:102E5000233509F063C08C899D89AE89BF89B095FF
:102E6000A095909581959F4FAF4FBF4F8C8B9D8BB9
:102E7000AE8BBF8B53C0CE010E947E156C8F7D8FB1
:102E80008E8F9F8F4BC0273509F048C08C8D9D8D4C
:102E9000AE8DBF8DB095A095909581959F4FAF4F0A
:102EA000BF4F8C8F9D8FAE8FBF8F38C0CE010E94D9
:102EB00022156CA77DA78EA79FA730C0CE010E94C8
:102EC00022156CAB7DAB8EAB9FAB28C0BC01CE0195
:102ED0000E9400156C877D878E879F871FC0C85909
:102EE000DF4F81E021330CF480E0888317C00E941B
:102EF000052CCE5BDF4F9927998388830FC0CE01C5
:102F00000E9422156CAF7DAF8EAF9FAF07C0CE0180
:102F10000E9422156CA37DA38EA39FA3812FDF9116
:102F2000CF911F91FF90EF90DF90CF900895CF92B7
:102F3000DF92EF92FF920F931F93CF93DF931F9235
:102F4000CDB7DEB76C01262FFC01E759FF4F40815A
:102F50005181628173814F5F5F4F6F4F7F4F40831D
:102F60005183628373838C0109591F4F8B5A9F4F82
:102F70007C01243281F12CF42A3069F02D30E9F5FE
:102F80000AC02A3241F02C32C1F5F601EC5AFF4F4B
:102F9000808182278083F80180818F3060F4F60180
:102FA000E80FF11DEA5AFF4F1082C60129830E94E3
:102FB0000C16298101C080E0F601EA59FF4F90818B
:102FC0009F5F9083F801108291E02A3209F090E02F
:102FD000F70190832AC0F8011082F601EA59FF4FE9
:102FE000108272971082719682E08083F7011082BE
:102FF000F601E859FF4F108217C0F80180818E302A
:1030000048F491E0980F9083F601E80FF11DEA5A19
:10301000FF4F2083F7018081811106C0F601EC5A31
:10302000FF4F80818227808380E00F90DF91CF91D6
:103030001F910F91FF90EF90DF90CF900895CF9266
:10304000DF92EF92FF920F931F93CF93DF93E901EB
:103050006115710551F0FC01C088D188E288F388C0
:10306000FB01C082D182E282F3824115510551F009
:10307000FC01C08CD18CE28CF38CFA01C082D1822D
:10308000E282F382209701F18C01045B1F4FF8016B
:1030900080819181A281B3818F3F9F4FAF4FBF4FFE
:1030A00061F00E941924F80100811181228133818D
:1030B000601B710B820B930B03C06FEF7FEFCB0193
:1030C000688379838A839B83DF91CF911F910F91CE
:1030D000FF90EF90DF90CF900895AF92BF92CF9284
:1030E000DF92EF92FF920F931F93CF93DF93CDB7B1
:1030F000DEB728970FB6F894DEBF0FBECDBF5B01D9
:103100008A01AE014F5F5F4FBE016B5F7F4F0E9430
:103110001F18CD80DE80EF80F8848FEFC81689EC11
:10312000D8068AE9E8068BE3F80659F0C701B6012C
:103130000E949A2820E034E244E759E40E94FF27E5
:1031400004C060E070E08AE794E4F5016083718375
:1031500082839383FFEFCF16F9ECDF06FAE9EF06DF
:10316000FBE3FF0669F069817A818B819C810E9473
:103170009A2820E034E244E759E40E94FF2704C083
:1031800060E070E08AE794E4F801608371838283F1
:10319000938328960FB6F894DEBF0FBECDBFDF91A4
:1031A000CF911F910F91FF90EF90DF90CF90BF9044
:1031B000AF900895FC0160A171A182A193A16F3F1E
:1031C000F9EC7F07FAE98F07FBE39F0749F00E94BC
:1031D0009A2820E030E048EC52E40E94FF2708954E
:1031E00060E074E284E799E40895FC0112828FEFB5
:1031F0008183108213820895FC018381882331F03A
:10320000611103C08FEF8183089511820895CF93D8
:10321000DF93EC016A838CE194E00E94822141E01B
:103220006A818CE194E00E94992191E0811101C0B2
:1032300090E09B838CE194E00E94F32088838B8153
:1032400090E0DF91CF910895CF93DF93EC018B81D4
:103250008823A9F089818095862388836A818CE1FF
:1032600094E00E949C2168818CE194E00E944321BB
:103270008CE194E00E94B921282F30E002C020E0C8
:1032800030E081E090E0232B11F080E090E0DF91CE
:10329000CF91089508950895DC01ED91FC91028489
:1032A000F385E02D41E0099581E090E00895FC016F
:1032B000138212822DEB32E0318320830895DC01EA
:1032C000ED91FC910084F185E02D6FEF0994DC0114
:1032D000ED91FC910284F385E02D40E0099461E0DA
:1032E0000E94671980ED97E00C94702462E00E94C0
:1032F000671980ED97E00C947024CF93DF93CDB7DE
:10330000DEB728970FB6F894DEBF0FBECDBF1D8283
:1033100020E42E8334E13F8334E5388719822A8301
:1033200020E12B8320E52C83FC012781421710F03C
:103330004FEF420FFC01308550E0FE01E40FF51F16
:10334000303121F4243011F4218101C02581260F70
:103350002068622F28960FB6F894DEBF0FBECDBF4F
:10336000DF91CF910C946719FC016581262F2460B1
:1033700025836C600C946719CF93DF93EC01423086
:1033800018F08C8188608C834F836887222329F012
:10339000413019F48C8184608C8364E670E080E0B5
:1033A00090E00E9448246C8164FD31C0E881F9817D
:1033B0000284F385E02D42E063E0CE01099584E9C3
:1033C00091E10E947024E881F9810284F385E02D67
:1033D00042E063E0CE01099584E991E10E94702406
:1033E000E881F9810284F385E02D42E063E0CE01BB
:1033F000099586E990E00E947024E881F9810284B1
:10340000F385E02D42E062E0CE01099516C06062CE
:10341000CE010E94671984E991E10E9470246C81B9
:103420006062CE010E94671986E990E00E947024D4
:103430006C816062CE010E9467196C816062CE016E
:103440000E94671984E08D83CE010E94B419CE01D9
:103450000E946F1982E08E8366E0CE010E94671998
:10346000CE01DF91CF910C945F1921E001C0220FB2
:103470006A95EAF7DC011C962C931C971A965C93CC
:103480004E931997ED91FC910084F185E02D60E059
:103490000994FC012485222399F081859285009767
:1034A00019F4611105C006C0019721F4611102C031
:1034B000258701C015866585CF010E960C942419C9
:1034C00008950F931F93CF93DF93EC018C01025F5C
:1034D0001F4F6B85C8010E940719019761F461E0D5
:1034E000C8010E94FC181C8260E0C8010E942419D7
:1034F00081E090E002C080E090E0DF91CF911F91E9
:103500000F9108958F92AF92CF92EF920F93CF9336
:10351000DF93CDB7DEB7FC0163871486158612866C
:10352000118681E0982F01C0990F4A95EAF7928B96
:10353000982F01C0990F2A95EAF7938B982F01C015
:10354000990F0A95EAF7948B982F01C0990FEA9486
:10355000EAF7958B982F01C0990FCA94EAF7968BDA
:10356000982F01C0990FAA94EAF7978B01C0880F92
:103570008A94EAF7808FDF91CF910F91EF90CF90EF
:10358000AF908F9008956F927F928F92AF92CF926B
:10359000EF920F93CF93DF9300D01F92CDB7DEB79A
:1035A0003C012B834A8369830E9457198DEC92E07A
:1035B000F30191838083C3010E960E94F5182B813D
:1035C0004A816981C3010E94821A0F900F900F9067
:1035D000DF91CF910F91EF90CF90AF908F907F9030
:1035E0006F900895FF920F931F93CF93DF93EC0199
:1035F000F62E8C01025F1F4F6A896F29C8010E9455
:1036000024196A8960956F21C801DF91CF911F91BC
:103610000F91FF900C94241920E030E050E060FFFF
:1036200005C0FC01E20FF31F7589572B66952F5FCC
:103630003F4F2430310599F7413011F4FC014489A2
:10364000FC016585652B642B0C94F21A0F931F9374
:10365000CF93DF93EC01142F062F0F70423011F43B
:1036600040E00AC070E084E0759567958A95E1F7BF
:10367000CE010E940C1B412F602FCE01DF91CF9114
:103680001F910F910C940C1B0F931F93CF93DF93FB
:1036900000D01F92CDB7DEB78C012B834A8369839C
:1036A0000E94611A2B814A816981C8010F900F9095
:1036B0000F90DF91CF911F910F910C94BC190E9434
:1036C000002C089588E193E00C94B20D88E193E01A
:1036D0000C94E60C0E947A240E94611B0E94621BDB
:1036E000C9EDD5E20E94661B2097E1F30E94D9251F
:1036F000F9CF1F920F920FB60F9211242F938F9331
:103700009F93EF93FF93E0914B03F0914C038081E3
:10371000E0915103F091520382FD12C0908180919B
:1037200054038F5F8F7320915503821751F0E091FE
:103730005403F0E0E55CFC4F958F8093540301C087
:103740008081FF91EF919F918F912F910F900FBEEC
:103750000F901F9018951F920F920FB60F92112481
:103760002F933F934F935F936F937F938F939F9389
:10377000AF93BF93EF93FF938BE393E00E94E72512
:10378000FF91EF91BF91AF919F918F917F916F9139
:103790005F914F913F912F910F900FBE0F901F900F
:1037A00018958BE393E00E94AC2521E0892B09F466
:1037B00020E0822F089510923E0310923D0388EE80
:1037C00093E0A0E0B0E080933F0390934003A09388
:1037D0004103B09342038BE093E090933C038093CA
:1037E0003B0385EC90E0909348038093470384EC7F
:1037F00090E090934A038093490380EC90E090938B
:103800004C0380934B0381EC90E090934E038093A4
:103810004D0382EC90E09093500380934F0386EC2D
:1038200090E09093520380935103109254031092AE
:10383000550310925603109257030895CF92DF92CA
:10384000EF92FF920F931F93CF93DF936C017A0156
:10385000EB01E60EF71E00E010E0CE15DF0561F08B
:103860006991D601ED91FC910190F081E02DC601A6
:103870000995080F191FF1CFC801DF91CF911F9152
:103880000F91FF90EF90DF90CF9008956115710533
:1038900081F0DB010D900020E9F7AD0141505109A5
:1038A000461B570BDC01ED91FC910280F381E02D6A
:1038B000099480E090E008950C94461CDC01ED91A1
:1038C000FC910190F081E02D09940F931F93CF9309
:1038D000DF93EC016DE00E945E1C8C016AE0CE017A
:1038E0000E945E1C800F911FDF91CF911F910F915D
:1038F00008950F931F93CF93DF93EC010E94461C12
:103900008C01CE010E94651C800F911FDF91CF9129
:103910001F910F9108958F929F92AF92BF92CF9275
:10392000DF92EF92FF920F931F93CF93DF93CDB768
:10393000DEB7A1970FB6F894DEBF0FBECDBF7C01F6
:10394000C42EE52FCB01D22E19A221E02D1510F0A7
:103950002AE0D22E8E010F5D1F4F8D2C912CA12CB1
:10396000B12C6C2D7E2FA50194010E94C8268C2DB0
:10397000D29E80191124015011098A3014F4805DFF
:1039800001C0895CF801808321153105410551058D
:1039900021F0C22EE32FCA01E4CFB801C7010E9473
:1039A000461CA1960FB6F894DEBF0FBECDBFDF91C7
:1039B000CF911F910F91FF90EF90DF90CF90BF902C
:1039C000AF909F908F900895CF92DF92EF92FF92E9
:1039D0000F931F93CF93DF93EC016A017B012115B5
:1039E000310579F4E881F9810190F081E02D642FAF
:1039F000DF91CF911F910F91FF90EF90DF90CF90CB
:103A000009942A303105E9F477FF1AC06DE20E946B
:103A10005E1C8C0144275527BA014C195D096E09BB
:103A20007F092AE0CE010E948B1C800F911FDF913D
:103A3000CF911F910F91FF90EF90DF90CF9008955D
:103A40002AE0B701A601CE01DF91CF911F910F911E
:103A5000FF90EF90DF90CF900C948B1C9A01AB01FC
:103A6000662757FD6095762F0C94E41C0F931F93E7
:103A7000CF93DF93EC019A01AB01662757FD609568
:103A8000762F0E94E41C8C01CE010E94651C800FE1
:103A9000911FDF91CF911F910F910895211531054D
:103AA00041F4DC01ED91FC910190F081E02D642F57
:103AB00009940C948B1C0F931F93CF93DF93EC010D
:103AC0000E944E1D8C01CE010E94651C800F911F2B
:103AD000DF91CF911F910F9108954F925F926F9256
:103AE0007F928F929F92AF92BF92CF92DF92EF928E
:103AF000FF920F931F93CF93DF93EC016A017B0139
:103B0000B22E9A01AB01C701B6010E94BD2A8823DB
:103B100019F069ED72E027C026013701E89477F8C3
:103B20002FEF3FEF4FE75FE7C301B2010E94BD2ACD
:103B300081110DC02FEF3FEF4FE75FE7C301B201E7
:103B40000E94F82718161CF46DED72E00CC02FEFE0
:103B50003FEF4FE75FE4C701B6010E94042A181641
:103B6000ACF461EE72E0CE01DF91CF911F910F9125
:103B7000FF90EF90DF90CF90BF90AF909F908F908D
:103B80007F906F905F904F900C94461C2FEF3FEF0B
:103B90004FE75FECC701B6010E94F82787FDE1CF30
:103BA00020E030E0A901C701B6010E94F82787FF95
:103BB0000AC06DE2CE010E945E1C8C01F7FAF094FF
:103BC000F7F8F09402C000E010E0A12C60E070E093
:103BD00080E09FE3AB1441F020E030E040E251E4AC
:103BE0000E94FF27A394F6CF9B01AC01C701B60149
:103BF0000E9432276B017C010E946C282B013C0142
:103C00000E9498289B01AC01C701B6010E94312790
:103C10006B017C012AE0B301A201CE010E948B1C42
:103C2000080F191FBB2039F065EE72E0CE010E942B
:103C3000461C080F191F7B2C772041F120E030E053
:103C400040E251E4C701B6010E940F2A6B017C01DA
:103C50000E9467284B01AA2497FCA094BA2C2AE062
:103C600030E0B501A401CE010E94E41C080F191F29
:103C7000C501B4010E949A289B01AC01C701B6019D
:103C80000E9431276B017C017A94D6CFC801DF9165
:103C9000CF911F910F91FF90EF90DF90CF90BF9049
:103CA000AF909F908F907F906F905F904F9008950E
:103CB0000C946D1D0F931F93CF93DF93EC010E9423
:103CC0006D1D8C01CE010E94651C800F911FDF913C
:103CD000CF911F910F9108950E94002C20911A04FA
:103CE00030911B0428173907B9F49091D8038091BB
:103CF000D903981789F0E091D803F0E0E652FC4F21
:103D000080812091D80330E02F5F3F4F2F733327FE
:103D10002093D80390E008958FEF9FEF08951F93AD
:103D2000CF93DF93DC015C968D919C915D9700971A
:103D300049F481E090E013969C938E93129780E073
:103D400090E03BC05196ED91FC91529750962C918A
:103D50005097322F30951FB75E964C915E9741FB7E
:103D6000772770F941FD6095F8944081772311F031
:103D7000422B01C043234083EC012197F1F748E037
:103D8000508160FF02C0522B01C053235083EC01CD
:103D90002197F1F76695415099F78081772311F0CB
:103DA000832301C0822B80831FBF5C968D919C91E1
:103DB0005D970197F1F781E090E0DF91CF911F913E
:103DC000089520911A0430911B042817390781F4B3
:103DD0009091D8038091D903981751F0E091D803BE
:103DE000F0E0E652FC4F8081992787FD9095089579
:103DF0008FEF9FEF089520911A0430911B0428172C
:103E0000390771F48091D9032091D80390E0805C48
:103E10009F4F821B910960E470E00E94B4260895D0
:103E200080E090E0089520911A0430911B04281737
:103E3000390739F48FB7F8941092D9031092D80348
:103E40008FBF0895E0911A04F0911B04E817F90759
:103E500069F4A389B4899C918589809589238C9381
:103E600010921B0410921A0481E0089580E00895D6
:103E7000CF93DF93EC018A8D9B8D892BF1F080919C
:103E80001A0490911B048C179D07B9F0009711F04C
:103E90000E94221F8E8D8E7F8E8F1092D9031092DA
:103EA000D803D0931B04C0931A04EB89FC8980814A
:103EB0009D89892B808381E001C080E0DF91CF91D3
:103EC00008951F920F920FB60F9211242F933F93D4
:103ED0004F935F936F937F938F939F93AF93BF9312
:103EE000EF93FF93E0911A04F0911B04309709F4CB
:103EF00051C0868DA685B785958581FF04C08C91BC
:103F0000892329F447C08C91892309F043C0A389F0
:103F1000B4899C918589809589238C93868997891A
:103F20000197F1F7208D318DA685B785758558E00D
:103F300040E0C9010197F1F7842F90E095958795AE
:103F4000482F6C91672309F04068515091F7868D96
:103F500081FD40958091D90390E001968F73992758
:103F60002091D803281749F0A091D903B0E0A652B8
:103F7000BC4F4C938093D90303C0868D8160868F9C
:103F8000828D938D0197F1F7A389B4898C919589DE
:103F9000892B8C93FF91EF91BF91AF919F918F915E
:103FA0007F916F915F914F913F912F910F900FBE35
:103FB0000F901F9018951F93CF93DF93EC01162F4E
:103FC0006E8D6695617081E06827812F0E9476254D
:103FD00061E0812F0E943D25812F90E0FC01E65E8B
:103FE000FE4FE491E88BFC01E25DFE4FE491F0E0CE
:103FF000EE0FFF1FE45BFE4F859194919A8B898BA6
:10400000DF91CF911F9108951F93CF93DF93EC0120
:10401000162F60E0812F0E943D258E8D81FD04C00A
:1040200061E0812F0E9476251C87812F90E0FC01A2
:10403000E65EFE4FE491ED87FC01E25DFE4FE49108
:10404000F0E0EE0FFF1FEE5BFE4F859194919F878E
:104050008E87DF91CF911F910895FF920F931F9349
:10406000CF93DF93EC01F62E522F1B821A8208EEBB
:1040700013E020E030E00C831D832E833F838BEE22
:1040800092E0998388831F8A1E8A198E188E1B8E50
:104090001A8E1D8E1C8E8E8D8E7F50FB81F98E8F19
:1040A000642FCE010E94DB1F6F2DCE01DF91CF91D7
:1040B0001F910F91FF900C940420CF93DF93EC019C
:1040C0009A01AB011B8E1A8E198E188E1F8A1E8ABA
:1040D00060E079E08DE390E00E94EA26C901243097
:1040E000310520F0B9016350710902C061E070E050
:1040F0007D8F6C8FEC85E63108F068C0B90176954C
:1041000067956431710518F06351710902C061E06F
:1041100070E07F8B6E8B069718F0C901059702C07F
:1041200081E090E0998F888FC901880F991F820FD5
:10413000931F96958795969587958D30910510F0EC
:104140000C9702C081E090E09B8F8A8F20916800DD
:10415000E83050F091E0EE3008F490E081E001C0EA
:10416000880F9A95EAF701C084E0822B809368005B
:104170002C85283038F02E3040F0263148F48CE67B
:1041800090E008C08DE690E005C08BE690E002C0AC
:1041900080E090E09C8B8B8B283030F481E001C074
:1041A000880F2A95EAF70DC0822F90E02E3010F488
:1041B000089701C00E9791E001C0990F8A95EAF720
:1041C000892F8D8B8C8D9D8D0197F1F7CE01DF911D
:1041D000CF910C94381F80914C0490E020914D04B5
:1041E000821B9109089520914D0480914C04281759
:1041F00050F4E22FF0E0E25BFB4F808190E02F5F14
:1042000020934D0408958FEF9FEF0895E0914D04A2
:1042100080914C04E81730F4F0E0E25BFB4F8081C2
:1042200090E008958FEF9FEF08950895CF92DF9269
:10423000EF92FF920F931F93CF93DF937C01CB01FB
:104240008A0120912804222389F0EB016B01C40E1E
:10425000D51ECC15DD0569F06991D701ED91FC9172
:104260000190F081E02DC7010995F3CF642F0E94E2
:104270007522C801DF91CF911F910F91FF90EF90B0
:10428000DF90CF900895CF93DF931F92CDB7DEB725
:104290006983209128042223D1F02091290420321F
:1042A00040F021E030E0FC013383228380E090E0A5
:1042B00015C080912A04E82FF0E0E55DFB4F99815D
:1042C00090838F5F80932A048093290405C061E066
:1042D000CE0101960E94752281E090E00F90DF915F
:1042E000CF910895FC011382128248EE53E060E002
:1042F00070E044835583668377838BEF92E09183EC
:104300008083089510924D0410924C0410922A0458
:10431000109229040C94C021862F413208F040E20B
:104320006EE474E00E94DE2110924D0480934C04F0
:10433000089521E00C948C2181E0809328046093FF
:104340004B0410922A041092290408950F93062F0B
:1043500021E0409129046BE274E080914B040E94BB
:10436000222210922A0410922904109228040F91FC
:10437000089561E00C94A6218CE194E00C947221E4
:104380001092DB0481E08093D9041092D80461E09C
:1043900082E10E94762561E083E10E947625E9EBC7
:1043A000F0E080818E7F808380818D7F808388E4B0
:1043B0008093B80085E48093BC000895413208F0F2
:1043C0003FC09091DB049111FCCF91E09093DB040E
:1043D0002093D9042FEF20936E041092B304240F7E
:1043E0002093B2049093DA049091DA04880F892B19
:1043F0008093DA048091D804813041F41092D8047B
:104400008091DA048093BB0085EC01C085EE809337
:10441000BC008091DB048130E1F38091B304841708
:1044200010F44091B30424EB34E0FB01D9018A2F4E
:10443000821B841718F48D918193F9CF842F0895EE
:1044400080E008950F93413208F046C09091DB045C
:104450009111FCCF92E09093DB040093D9049FEF7D
:1044600090936E041092B3044093B204FB0164EB8A
:1044700074E0DB019A2F961B941718F491919D9389
:10448000F9CF1092DA049091DA04880F892B809387
:10449000DA048091D804813041F41092D8048091DC
:1044A000DA048093BB0085EC01C085EE8093BC00EC
:1044B000222321F08091DB048230E1F380916E04AD
:1044C0008F3F61F080916E04803251F080916E04D4
:1044D000803341F483E007C081E005C080E003C081
:1044E00082E001C084E00F910895613298F4209138
:1044F000DB04243089F460939004FC0182E994E0A9
:10450000DC012A2F281B261718F421912D93F9CFAF
:1045100080E0089581E0089582E0089585ED80931C
:10452000BC008091BC0084FDFCCF1092DB04089598
:1045300085EC8093BC001092DB0408951F920F92CB
:104540000FB60F9211242F933F934F935F936F9366
:104550007F938F939F93AF93BF93EF93FF9380913C
:10456000B900887F803609F49CC068F5883209F468
:104570005BC090F4803109F454C038F4882309F406
:10458000F5C0883009F44DC0F5C0883109F44CC03D
:10459000803209F45DC0EEC0803409F468C048F48C
:1045A000803309F455C0883309F0E4C080936E0469
:1045B000A8C0803509F44FC0883509F45DC088343F
:1045C00009F0D8C0D5C0883909F4C6C0A8F4883726
:1045D00009F467C038F4883609F463C0803709F4F9
:1045E00060C0C8C0883809F4B7C0803909F45FC01A
:1045F000803809F0BFC05BC0803B09F485C038F447
:10460000803A09F466C0883A09F47EC0B3C0803CA1
:1046100009F4A6C0883C09F4A3C0883B09F489C00A
:10462000A9C08091DA0410C09091B3048091B204C3
:10463000981770F5E091B30481E08E0F8093B30476
:10464000F0E0EC54FB4F80818093BB0085EC85C08B
:1046500080936E048DC0E091B30481E08E0F80934F
:10466000B3048091BB00F0E0EC54FB4F8083909149
:10467000B3048091B2046DC0E091B30481E08E0F69
:104680008093B3048091BB00F0E0EC54FB4F808337
:104690008091D90481116CC081E08093D80484EAB0
:1046A00060C083E08093DB0410926F04CFCF8091D1
:1046B0006F04803208F050C0E0916F0481E08E0FEB
:1046C00080936F048091BB00F0E0E059FB4F808342
:1046D000BDCF80916F04803230F4E0916F04F0E040
:1046E000E059FB4F10820E948E2260916F0470E0AF
:1046F000E091D404F091D50480E794E009951092FC
:104700006F040E94982236C084E08093DB041092EC
:10471000910410929004E091D604F091D704099589
:1047200080919004811105C081E0809390041092E3
:104730009204E091910481E08E0F80939104F0E067
:10474000EE56FB4F80818093BB0090919104809145
:104750009004981708F47ACF85E88093BC000AC0CB
:1047600085EC8093BC001092DB0404C010926E04B0
:104770000E948E22FF91EF91BF91AF919F918F91F7
:104780007F916F915F914F913F912F910F900FBE4D
:104790000F901F9018950C94D92A0C94712B1F928E
:1047A0000F920FB60F9211242F933F938F939F93E5
:1047B000AF93BF938091DD049091DE04A091DF045C
:1047C000B091E0043091DC0423E0230F2D3720F476
:1047D0000196A11DB11D05C026E8230F0296A11D5B
:1047E000B11D2093DC048093DD049093DE04A0933C
:1047F000DF04B093E0048091E1049091E204A09181
:10480000E304B091E4040196A11DB11D8093E1047D
:104810009093E204A093E304B093E404BF91AF91BA
:104820009F918F913F912F910F900FBE0F901F90EE
:1048300018952FB7F8946091DD047091DE04809193
:10484000DF049091E0042FBF08953FB7F894809162
:10485000E1049091E204A091E304B091E40426B550
:10486000A89B05C02F3F19F00196A11DB11D3FBFA8
:104870006627782F892F9A2F620F711D811D911D38
:1048800042E0660F771F881F991F4A95D1F7089558
:10489000CF92DF92EF92FF92CF93DF936B017C0177
:1048A0000E942524EB01C114D104E104F10489F034
:1048B0000E948F260E9425246C1B7D0B683E73404E
:1048C00090F381E0C81AD108E108F108C851DC4F23
:1048D000EACFDF91CF91FF90EF90DF90CF900895D6
:1048E000019739F0880F991F880F991F0297019738
:1048F000F1F70895789484B5826084BD84B58160B1
:1049000084BD85B5826085BD85B5816085BDEEE6D7
:10491000F0E0808181608083E1E8F0E010828081B6
:1049200082608083808181608083E0E8F0E0808124
:1049300081608083E1EBF0E0808184608083E0EB44
:10494000F0E0808181608083EAE7F0E0808184602C
:104950008083808182608083808181608083808188
:10496000806880831092C10008951F93CF93DF93D6
:10497000182FEB0161E00E943D25209711F460E0C3
:1049800004C0CF3FD10539F461E0812FDF91CF9191
:104990001F910C947625E12FF0E0EA5FFE4FE49141
:1049A000E330F9F048F4E130B9F0E230A1F584B534
:1049B000806284BDC8BD34C0E730E9F0E83019F149
:1049C000E43049F580918000806280938000D0932C
:1049D0008B00C0938A0024C084B5806884BDC7BDA5
:1049E0001FC080918000806880938000D0938900F0
:1049F000C093880015C08091B00080688093B0009B
:104A0000C093B3000DC08091B00080628093B0006D
:104A1000C093B40005C0C038D1050CF0B5CFAFCFFE
:104A2000DF91CF911F910895833081F028F4813078
:104A300099F08230A1F008958730A9F08830B9F05C
:104A40008430D1F4809180008F7D03C080918000FC
:104A50008F7780938000089584B58F7702C084B5E6
:104A60008F7D84BD08958091B0008F7703C08091C1
:104A7000B0008F7D8093B0000895CF93DF9390E0D6
:104A8000FC01E65EFE4F2491FC01E25DFE4F849145
:104A9000882349F190E0880F991FFC01EA5AFE4FE4
:104AA000A591B491845B9E4FFC01C591D4919FB7B1
:104AB000611108C0F8948C91209582238C93888191
:104AC00082230AC0623051F4F8948C91322F3095D1
:104AD00083238C938881822B888304C0F8948C91E3
:104AE000822B8C939FBFDF91CF9108950F931F93DB
:104AF000CF93DF931F92CDB7DEB7282F30E0F901B7
:104B0000EA5FFE4F8491F901E65EFE4F1491F901D0
:104B1000E25DFE4F04910023C9F0882321F06983F0
:104B20000E9414256981E02FF0E0EE0FFF1FE45B87
:104B3000FE4FA591B4919FB7F8948C91611103C079
:104B40001095812301C0812B8C939FBF0F90DF9123
:104B5000CF911F910F910895FC01818D228D90E0DE
:104B6000805C9F4F821B91098F7399270895FC01E8
:104B7000918D828D981731F0828DE80FF11D858D12
:104B800090E008958FEF9FEF0895FC01918D828D45
:104B9000981761F0828DDF01A80FB11D5D968C9191
:104BA000928D9F5F9F73928F90E008958FEF9FEF9C
:104BB000089581ED9BE1892B49F080E090E0892BFD
:104BC00029F00E94D11B81110C9400000895FC0172
:104BD000848DDF01A80FB11DA35ABF4F2C91848D86
:104BE00090E001968F739927848FA689B7892C93BB
:104BF000A089B1898C9180648C93938D848D981356
:104C000006C00288F389E02D80818F7D808308951E
:104C1000CF93DF93EC01888D8823C9F0EA89FB8963
:104C2000808185FD05C0A889B9898C9186FD0FC05A
:104C30000FB607FCF5CF808185FFF2CFA889B9892F
:104C40008C9185FFEDCFCE010E94E725E7CFDF9164
:104C5000CF910895CF92DF92FF920F931F93CF933E
:104C6000DF931F92CDB7DEB76C01DC015B969C91A0
:104C70005B975C968C915C97981307C05096ED916A
:104C8000FC915197808185FD32C0F601038D10E0C3
:104C90000F5F1F4F0F731127F02EF601848DF8124E
:104CA00011C00FB607FCF9CFD6015096ED91FC91DB
:104CB0005197808185FFF1CFC60169830E94E72566
:104CC0006981EBCF838DE80FF11DE35AFF4F6083BD
:104CD000D6015B960C935B975296ED91FC9153979E
:104CE00080818062808381E058968C930DC0D601CC
:104CF0005696ED91FC91579760835096ED91FC91FB
:104D0000519780818064808381E090E00F90DF91F3
:104D1000CF911F910F91FF90DF90CF90089508954C
:104D2000DB018F939F930E940F27BF91AF91A29FAA
:104D3000800D911DA39F900DB29F900D1124089599
:104D4000AA1BBB1B51E107C0AA1FBB1FA617B707B1
:104D500010F0A61BB70B881F991F5A95A9F78095CD
:104D60009095BC01CD01089597FB072E16F4009491
:104D700007D077FD09D00E94A02607FC05D03EF49D
:104D8000909581959F4F0895709561957F4F0895F7
:104D9000A1E21A2EAA1BBB1BFD010DC0AA1FBB1F3F
:104DA000EE1FFF1FA217B307E407F50720F0A21BB1
:104DB000B30BE40BF50B661F771F881F991F1A941E
:104DC00069F760957095809590959B01AC01BD0148
:104DD000CF010895052E97FB1EF400940E94012731
:104DE00057FD07D00E94C82607FC03D04EF40C9450
:104DF000012750954095309521953F4F4F4F5F4F7C
:104E0000089590958095709561957F4F8F4F9F4F36
:104E10000895EE0FFF1F0590F491E02D09940E9474
:104E20002227A59F900DB49F900DA49F800D911DEA
:104E300011240895B7FF0C940F270E940F27821B9F
:104E4000930B0895A29FB001B39FC001A39F700D63
:104E5000811D1124911DB29F700D811D1124911D82
:104E600008955058BB27AA270ED083C24CD230F0E9
:104E700051D220F031F49F3F11F41EF41CC20EF405
:104E8000E095E7FB04C2E92F96D280F3BA176207D8
:104E900073078407950718F071F49EF5AEC20EF4FF
:104EA000E0950B2EBA2FA02D0B01B90190010C013A
:104EB000CA01A0011124FF27591B99F0593F50F452
:104EC000503E68F11A16F040A22F232F342F4427AA
:104ED000585FF3CF469537952795A795F0405395A2
:104EE000C9F77EF41F16BA0B620B730B840BBAF072
:104EF0009150A1F0FF0FBB1F661F771F881FC2F7DD
:104F00000EC0BA0F621F731F841F48F487957795F0
:104F10006795B795F7959E3F08F0B3CF9395880FA7
:104F200008F09927EE0F979587950895ECD158F0E2
:104F300080E891E009F49EEFEDD128F040E851E0DF
:104F400059F45EEF09C0B7C158C2E92FE07833D2F7
:104F500068F3092E052AC1F32617370748075907B2
:104F600038F00E2E07F8E02569F0E025E0640AC06D
:104F7000EF6307F8009407FADB01B9019D01DC013A
:104F8000CA01AD01EF934AD0F4D10AD05F91552305
:104F900031F02BED3FE049E450FD49EC63CF08953B
:104FA000DF93DD27B92FBF7740E85FE316161706BA
:104FB00048075B0710F4D92F2BD29F938F937F93D1
:104FC0006F93D8D2EAEBF0E079D1D3D12F913F9112
:104FD0004F915F9130D2DD2349F09058A2EA2AED3B
:104FE0003FE049EC5FE3D0785D274DDFDF91C1C141
:104FF0002AD108F481E0089595D1E395CBC10CD076
:10500000B8C188D140F07FD130F021F45F3F19F072
:105010003EC15111F3C14FC1CED198F39923C9F3C9
:105020005523B1F3951B550BBB27AA2762177307AE
:10503000840738F09F5F5F4F220F331F441FAA1F62
:10504000A9F333D00E2E3AF0E0E830D09150504022
:10505000E695001CCAF729D0FE2F27D0660F771FD0
:10506000881FBB1F261737074807AB07B0E809F0B2
:10507000BB0B802DBF01FF2793585F4F2AF09E3F47
:10508000510568F004C1BAC15F3FECF3983EDCF310
:10509000869577956795B795F7959F5FC9F7880FC0
:1050A000911D9695879597F90895E1E0660F771F12
:1050B000881FBB1F621773078407BA0720F0621BA3
:1050C000730B840BBA0BEE1F88F7E095089504D09C
:1050D0006894B11193C1089576D188F09F5790F0EC
:1050E000B92F9927B751A0F0D1F0660F771F881F0D
:1050F000991F1AF0BA95C9F712C0B13081F07DD16D
:10510000B1E008957AC1672F782F8827B85F39F00A
:10511000B93FCCF3869577956795B395D9F73EF46B
:1051200090958095709561957F4F8F4F9F4F089513
:10513000E89409C097FB3EF4909580957095619531
:105140007F4F8F4F9F4F9923A9F0F92F96E9BB27E7
:105150009395F695879577956795B795F111F8CF63
:10516000FAF4BB0F11F460FF1BC06F5F7F4F8F4FCE
:105170009F4F16C0882311F096E911C0772321F0C4
:105180009EE8872F762F05C0662371F096E8862F5C
:1051900070E060E02AF09A95660F771F881FDAF7B3
:1051A000880F9695879597F90895ADD018F011F06E
:1051B000B1D038F480C022C1E92FFDD0B0F355231F
:1051C000C9F3E7FB6217730784079507A8F199F302
:1051D000E92FFF2788232AF03197660F771F881F52
:1051E000DAF7952F5527442332F091505040220F83
:1051F000331F441FD2F7BB27E91BF50B621B730B50
:10520000840BB109C1F222F4620F731F841FB11D18
:1052100031972AF0660F771F881FBB1FEFCF915081
:1052200050405AF041F0882332F0660F771F881FF4
:1052300091505040C1F7939530C08695779567950A
:105240009F5FD9F7F8CF990F0008550FAA0BE0E838
:10525000FEEF16161706E807F907C0F01216130638
:10526000E407F50798F0621B730B840B950B39F478
:105270000A2661F0232B242B252B21F408950A26DE
:1052800009F4A140A6958FEF811D811D089597F91E
:105290009F6780E870E060E008959F3F31F0915093
:1052A00020F4879577956795B795880F911D96950A
:1052B000879597F908959FEF80EC0895DF93CF933A
:1052C0001F930F93FF92EF92DF927B018C01689402
:1052D00005C0DA2EEF01AFD0FE01E894A59125912B
:1052E000359145915591AEF3EF01CDDDFE0197016A
:1052F000A801DA9479F7DF90EF90FF900F911F915A
:10530000CF91DF91089500240A9416161706180607
:105310000906089500240A941216130614060506B9
:105320000895C9CF50D0E8F3E894E0E0BB279F5739
:10533000F0F02AED3FE049EC06C0EE0FBB0F661F10
:10534000771F881F28F0B23A62077307840728F096
:10535000B25A620B730B840BE3959A9572F78038FF
:1053600030F49A95BB0F661F771F881FD2F79048BD
:1053700096CF092E0394000C11F4882352F0BB0F32
:1053800040F4BF2B11F460FF04C06F5F7F4F8F4F5D
:105390009F4F0895EF93E0FF06C0A2EA2AED3FE099
:1053A00049EC5FEB70DDE5DF0F90039401FC905852
:1053B000E7EEF0E0EDC057FD9058440F551F59F04F
:1053C0005F3F71F04795880F97FB991F61F09F3FF2
:1053D00079F087950895121613061406551FF2CF1B
:1053E0004695F1DF08C0161617061806991FF1CF6B
:1053F00086957105610508940895E894BB27662792
:105400007727CB0197F908951EDF08F48FEF0895F1
:105410009B01AC0160E070E080E89FE3F0CD0BD031
:10542000A8CF71DF28F076DF18F0952309F02FCF91
:1054300042CF1124E3CFBFDFA0F3959FD1F3950FA7
:1054400050E0551F629FF001729FBB27F00DB11D08
:10545000639FAA27F00DB11DAA1F649F6627B00D98
:10546000A11D661F829F2227B00DA11D621F739F81
:10547000B00DA11D621F839FA00D611D221F749F8F
:105480003327A00D611D231F849F600D211D822FD6
:10549000762F6A2F11249F5750408AF0E1F088231D
:1054A0004AF0EE0FFF1FBB1F661F771F881F91502A
:1054B0005040A9F79E3F510570F0E9CE9FCF5F3F66
:1054C000ECF3983EDCF3869577956795B795F7955D
:1054D000E7959F5FC1F7FE2B880F911D96958795E5
:1054E00097F908959F931EDF0F9007FCEE5F52CF50
:1054F00011F40EF4E0CED1CE66DFD0F39923D9F3C8
:10550000CEF39F57550B87FF3CD00024A0E640EA1E
:10551000900180585695979528F4805C660F771F08
:10552000881F20F026173707480730F4621B730BDB
:10553000840B202931294A2BA695179407942025FE
:1055400031254A2758F7660F771F881F20F0261746
:105550003707480730F4620B730B840B200D311DA5
:10556000411DA09581F7B901842F9158880F969518
:10557000879508959B01AC0152CF65DE880B990B8E
:10558000089591505040660F771F881FD2F70895F5
:105590009F938F937F936F93FF93EF939B01AC0146
:1055A0003EDFEF91FF918ADE2F913F914F915F9106
:1055B00036CFCF93DF938230910510F482E090E0F4
:1055C000E091E704F091E80420E030E0A0E0B0E0F2
:1055D000309739F14081518148175907B8F0481781
:1055E000590771F482819381109729F013969C9347
:1055F0008E9312972CC09093E8048093E70427C001
:105600002115310531F04217530718F0A901DB01CC
:1056100001C0EF019A01BD01DF010280F381E02D9D
:10562000D7CF21153105F9F0281B390B243031056E
:1056300080F48A819B816115710521F0FB019383C0
:10564000828304C09093E8048093E704FE013296BD
:1056500044C0FE01E20FF31F819391932250310960
:10566000398328833AC02091E5043091E604232B46
:1056700041F420910201309103013093E60420931C
:10568000E50420910001309101012115310541F41B
:105690002DB73EB74091040150910501241B350BF5
:1056A000E091E504F091E604E217F307A0F42E1B65
:1056B0003F0B2817390778F0AC014E5F5F4F241776
:1056C000350748F04E0F5F1F5093E6044093E50402
:1056D0008193919302C0E0E0F0E0CF01DF91CF91A0
:1056E0000895CF93DF93009709F487C0FC013297A8
:1056F00013821282C091E704D091E804209781F4CC
:1057000020813181280F391F8091E5049091E604B2
:105710008217930779F5F093E604E093E5046DC0F2
:10572000DE0120E030E0AE17BF0750F412964D9135
:105730005C9113979D014115510509F1DA01F3CFF1
:10574000B383A28340815181840F951F8A179B07E1
:1057500071F48D919C911197840F951F02969183FE
:10576000808312968D919C91139793838283211548
:10577000310529F4F093E804E093E7043EC0D90131
:105780001396FC93EE9312974D915D91A40FB51F64
:10579000EA17FB0779F480819181840F951F0296A7
:1057A000D90111969C938E938281938113969C9339
:1057B0008E931297E0E0F0E08A819B81009719F0C8
:1057C000FE01EC01F9CFCE01029628813981820FCA
:1057D000931F2091E5043091E6042817390769F4F6
:1057E000309729F41092E8041092E70402C0138263
:1057F0001282D093E604C093E504DF91CF9108951F
:1058000081E090E0F8940C942B2CFC0188279927D8
:10581000E89421912032E9F3293010F02E30C8F3BA
:105820002B3241F02D3239F4689404C00E94232CAD
:10583000820F911D219120532A30C0F31EF49095C0
:1058400081959F4F08957AE0979F902D879F802D97
:0A585000910D11240895F894FFCF84
:10585A000000E904800001000000E8030A4845410D
:10586A0044494E473A200020202020474F414C20EF
:10587A0048454144494E473A2000202020204845C7
:10588A004144494E47204F46465345543A20004F1B
:10589A004646534554203D0048454144494E473DFC
:1058AA000000000000DC00E8006C1E6C1E00000016
:1058BA0000E200EF00FF0135020A4C41543A200091
:1058CA00202020204C4F4E3A200020202020414703
:1058DA00453A20000A4C4F434154494F4E20554EF9
:1058EA00415641494C41424C45004C41543D004CC3
:1058FA004F4E3D00443D004C4F434154494F4E00EA
:10590A0000000000830289025A03A004496E7661EE
:10591A006C696420737562736372697074000A3DFE
:10592A003D3D3D3D3D3D3D3D3D3D3D3D3D3D3D3D9D
:10593A003D3D3D3D3D3D3D3D3D3D3D3D3D3D3D3D8D
:10594A003D3D3D3D3D3D3D3D3D3D3D3D3D3D3D3D7D
:10595A003D3D3D3D3D3D3D3D3D3D3D3D3D3D3D3D6D
:10596A003D3D3D3D3D3D3D3D3D3D000A4C573A20C4
:10597A00002020202052573A20004C4546543A2015
:10598A000052494748543A20000000000019081FF5
:10599A0008260847080A4B703A2000202020204B8E
:1059AA00693A00202020204B643A00202020204F12
:1059BA0055545055543A20006B703D006B693D00B8
:1059CA006B643D004F3D0000000000C40ACA0AD1C2
:1059DA000A210B4750524D43004750474741004E5A
:1059EA004E4500454E450045534500535345005327
:1059FA00005353570057535700574E57004E4E57B0
:105A0A00000024744900007A44000000004C191E6A
:105A1A001CBC194A194B196C1E000000004C191EB7
:105A2A001C441B351A491A261B6E616E00696E6684
:105A3A00006F7666002E00000000008F1E1E1CFB01
:105A4A001E6E1EE11E131F0000000043211621EBEB
:105A5A0020F32006211521000000002A261E1CAC76
:085A6A0025C525B7250826001B
:00000001FF
