:100000000C94B3000C94DB000C94DB000C94F528EA
:100010000C94F5280C94F5280C94DB000C94B31880
:100020000C94DB000C94DB000C94DB000C94DB00E4
:100030000C94DB000C94DB000C94DB000C94DB00D4
:100040000C94632D0C94DB000C94C6240C94F824BF
:100050000C94DB000C94DB000C94DB000C94DB00B4
:100060000C94322C0C94DB00091F1C1F2C1F3F1F0B
:10007000471F731F7B1F831F8B1F921F921F921F8F
:10008000921F921F921F921F921F921F921F921FE8
:10009000921F921F921F921F921F921F921F921FD8
:1000A000921F921F921F921F091F151F1C1F2C1FAA
:1000B0003F1F471F5A1F621F6A1F084AD73B3BCE8C
:1000C000016E84BCBFFDC12F3D6C74319ABD568357
:1000D0003DDA3D00C77F11BED9E4BB4C3E916BAA0F
:1000E000AABE000000803F05A84CCDB2D44EB9385E
:1000F00036A9020C50B9918688083CA6AAAA2ABE45
:10010000000000803F000000000800020100000322
:100110000407000000000000000001020408102095
:100120004080010204081020010204081020040489
:10013000040404040404020202020202030303038F
:100140000303000000002300260029000000000037
:10015000250028002B0000000000240027002A00B2
:100160007D232825502B11241FBECFEFD8E0DEBF02
:10017000CDBF13E0A0E0B1E0E6EFF9E602C00590E4
:100180000D92A235B107D9F725E0A2E5B3E001C091
:100190001D92AB33B207E1F711E0C6E6D1E004C02F
:1001A0002297FE010E94D92FC036D107C9F70E94BD
:1001B0006E230C94F9340C9400000F931F93CF938B
:1001C000DF93EC018B010E94D91519870887CE01B6
:1001D0000E940B1663E0CE010E94DD1562E0CE01A5
:1001E0000E94F31565E0CE010E94E8151C8A1D8A65
:1001F0001E8A1F8A188A198A1A8A1B8ADF91CF9150
:100200001F910F910895CF92DF92EF92FF92CF93BB
:10021000DF93EC019C01225F3F4FAC01445F5F4FD5
:10022000BC01665F7F4F0E941D166A857B8588270B
:1002300077FD8095982F0E94683126EF38E24CE9CF
:100240005FE30E94DD3227ED33EA40E75FE30E947F
:10025000DD3220E030E048EB50E40E9400306B01DA
:100260007C016C857D85882777FD8095982F0E947D
:10027000683126EF38E24CE95FE30E94DD322BE77C
:1002800034E14EE65FE30E94DD3228EB3EE146E0DA
:1002900052E40E940030A70196010E9473306B0166
:1002A0007C0125E33AEF4EE85CE3688D798D8A8D19
:1002B0009B8D0E94DD329B01AC01C701B6010E94FB
:1002C00000306B017C0120E030E0A9010E94C630C3
:1002D00087FF0AC02BED3FE049EC50E4C701B601AF
:1002E0000E9400306B017C0120EE3EE245E652E4C4
:1002F000C701B6010E94DD322885398521153105F7
:1003000039F0AB01BC01C9010E940F0B9B0101C078
:100310009B01A901BC01488B598B6A8B7B8BDF91B8
:10032000CF91FF90EF90DF90CF900895FC01408F28
:10033000518F628F738F0895FC0160897189828962
:1003400093890895FC016489758986899789089540
:10035000CF92DF92EF92FF92FC012089318942898E
:10036000538964897589868997890E94FF2F6B015B
:100370007C0120E030E044E353EC0E94C63087FF6C
:1003800009C020E030E044EB53E4C701B6010E940D
:10039000003012C020E030E044E353E4C701B6016E
:1003A0000E94D232181654F420E030E044EB53E4BB
:1003B000C701B6010E94FF2F6B017C01C701B60186
:1003C000FF90EF90DF90CF90089526E531E0FC019B
:1003D00031832083089526E531E0FC0131832083B9
:1003E000089526E531E0FC01318320830C94612DD2
:1003F00026E531E0FC01318320830C94612DCF93FD
:10040000DF93EC016DE071E08DE893E00E94A92597
:100410008A819B810E949C01AB01BC0122E030E0FB
:100420008DE893E00E94A52768E171E08DE893E0F4
:100430000E94A9258A819B810E94A201AB01BC0177
:1004400022E030E08DE893E00E94A5276BE271E0A6
:100450008DE893E00E94A9258A819B810E94A801D2
:10046000AB01BC0122E030E08DE893E0DF91CF9159
:100470000C94A727CF92DF92EF92FF920F931F93D6
:10048000CF93DF936C01EB0120E431E040E050E0DA
:1004900060E070E0CE010E948609F60182819381BE
:1004A0000E94A8018B019C0184E0E82EF12C40E021
:1004B00050E068E070E0CE010E949E0929E431E03E
:1004C00041E050E060E070E0CE010E948609F60154
:1004D000828193810E949C018B019C0141E050E04C
:1004E00068E070E0CE010E949E09DF91CF911F91DC
:1004F0000F91FF90EF90DF90CF90089522E631E0CA
:10050000FC01318320837383628308950F931F93CB
:10051000CF93DF93EC018B0102960E94270719838A
:100520000883DF91CF911F910F910895EF92FF9271
:100530000F931F93CF93DF93CDB7DEB728970FB6F6
:10054000F894DEBF0FBECDBF7C0109831A832B83D5
:100550003C834D835E836F837887FC010281138126
:10056000248135814681578160857185CE01019650
:100570000E94930798E0FE013196D70112960190F0
:100580000D929A95E1F791E0892728960FB6F89495
:10059000DEBF0FBECDBFDF91CF911F910F91FF90B6
:1005A000EF9008958F929F92AF92BF92CF92DF9279
:1005B000EF92FF920F931F93CF93DF93CDB7DEB7E8
:1005C00060970FB6F894DEBF0FBECDBF09831A83C4
:1005D0002B833C834D835E836F83788784019501F1
:1005E000A601B701CE0101960E94D7072F8D38A131
:1005F00049A15AA10E94FF2F6B017C0120E030E04D
:1006000044E353EC0E94C63087FF09C020E030E08D
:1006100044EB53E4C701B6010E94003012C020E051
:1006200030E044E353E4C701B6010E94D232181609
:1006300054F420E030E044EB53E4C701B6010E94DB
:10064000FF2F6B017C01C701B60160960FB6F894CD
:10065000DEBF0FBECDBFDF91CF911F910F91FF90F5
:10066000EF90DF90CF90BF90AF909F908F900895C4
:10067000CF93DF93EC01888199810E94940D88814A
:1006800099810E94DC1888819981DF91CF910C9427
:100690009A0DCF92DF92EF92FF92CF93DF93EC010E
:1006A0006A017B0120E030E0A901C701B6010E9488
:1006B000D2320E84DF85C02D181694F4A70196015E
:1006C00060E070E08FE793E40E94FF2F0E943531D5
:1006D000AB016C177D070CF4AE012FEF30E011C0B9
:1006E00020E030E04FE753E4C701B6010E9400303C
:1006F0000E9435319B016C177D070CF49E014FEF72
:1007000050E0BA01C901DF91CF91FF90EF90DF90E7
:10071000CF9008956F927F928F929F92AF92BF92E7
:10072000CF92DF92EF92FF920F931F93CF93DF93BD
:10073000CDB7DEB760970FB6F894DEBF0FBECDBF62
:100740003C0109831A832B833C834D835E836F8333
:10075000788789869A86AB86BC86CD86DE86EF86CC
:10076000F88AF9A0EAA0DBA0CCA0CE0101960E94F5
:100770004F07811104C060E070E0CB0138C00981EF
:100780001A812B813C814D815E816F817885C30107
:100790000E9496028823F1F0CF92DF92EF92FF92AF
:1007A00089849A84AB84BC84CD84DE84EF84F88809
:1007B00009811A812B813C814D815E816F81788511
:1007C000C3010E94D202AB01BC010F900F900F90A9
:1007D0000F9005C0F3014285538564857585C3017B
:1007E0000E943803AB01BC01C3010E94490360961B
:1007F0000FB6F894DEBF0FBECDBFDF91CF911F9132
:100800000F91FF90EF90DF90CF90BF90AF909F90AF
:100810008F907F906F9008950F931F93CF93DF93E6
:10082000EC010E94941C8E010D581F4F20E04BE0FC
:100830006AE0C8010E94C129CE018E569F4F0E94D6
:100840002707CE0186569F4F0E94270740E855E2B2
:1008500060E070E0C8010E94F129CA55DF4F409165
:10086000F1025091F2026091F3027091F402488318
:1008700059836A837B83DF91CF911F910F910895F4
:10088000CF93DF93CDB7DEB728970FB6F894DEBFCE
:100890000FBECDBFFC01EE56FF4F88E0DE01119682
:1008A00001900D928A95E1F729813A814B815C8113
:1008B0006D817E818F81988528960FB6F894DEBF72
:1008C0000FBECDBFDF91CF9108950F931F93CF93AC
:1008D000DF93CDB7DEB728970FB6F894DEBF0FBE13
:1008E000CDBF09831A832B833C834D835E836F8343
:1008F0007887DC01A656BF4F88E0FE013196019053
:100900000D928A95E1F728960FB6F894DEBF0FBED8
:10091000CDBFDF91CF911F910F910895CF93DF93BA
:10092000CDB7DEB728970FB6F894DEBF0FBECDBFA8
:10093000FC01E656FF4F88E0DE01119601900D9212
:100940008A95E1F729813A814B815C816D817E81B5
:100950008F81988528960FB6F894DEBF0FBECDBF65
:10096000DF91CF9108958E559F4FFC016081718179
:100970008281938108950F931F93CF93DF93CDB717
:10098000DEB7A8970FB6F894DEBF0FBECDBFFC014F
:10099000E656FF4F28E0DE01519601900D922A9510
:1009A000E1F728E0FE017196DE01599601900D9263
:1009B0002A95E1F7FC01EE56FF4F88E0DE01119623
:1009C00001900D928A95E1F788E0FE013196DE01F3
:1009D000199601900D928A95E1F788E0FE0139960B
:1009E000DE01919601900D928A95E1F7098D1A8D9D
:1009F0002B8D3C8D4D8D5E8D6F8D78A1CE018196B6
:100A00000E94AA08A8960FB6F894DEBF0FBECDBF0D
:100A1000DF91CF911F910F910895EF92FF920F9365
:100A20001F93CF93DF93CDB7DEB760970FB6F894DF
:100A3000DEBF0FBECDBF7C018C010D581F4FC8011A
:100A40000E948F28892BC1F1C8010E940228682FBB
:100A5000C7010E949B1FC8010E948F28892BA1F704
:100A600097012E553F4FAE01475F5F4FBE01635F59
:100A70007F4FC7010E94712009851A852B853C850F
:100A80004D855E856F857889CE0101960E94350778
:100A9000D701AE56BF4F88E0FE01319601900D920E
:100AA0008A95E1F7C7010E94DE20F701EA55FF4F62
:100AB000608371838283938360960FB6F894DEBF60
:100AC0000FBECDBFDF91CF911F910F91FF90EF909F
:100AD000089526E531E0FC0131832083089526E561
:100AE00031E0FC01318320830C94612D0F931F931F
:100AF000CF93DF93CDB7DEB728970FB6F894DEBF5C
:100B00000FBECDBF8C01FC01828193810E94400405
:100B100029833A834B835C836D837E838F8398879D
:100B2000CE0101960E944F07882309F452C06AE65D
:100B300071E08DE893E00E94A925F80182819381FC
:100B40000E94400429833A834B835C836D837E83B8
:100B50008F839887CE0101960E944307AB01BC01A9
:100B60002FE030E08DE893E00E94A52761E771E077
:100B70008DE893E00E94A925F801828193810E946B
:100B8000400429833A834B835C836D837E838F8308
:100B90009887CE0101960E944907AB01BC012FE066
:100BA00030E08DE893E00E94A5276BE771E08DE8C7
:100BB00093E00E94A925F801828193810E94B304E9
:100BC000AB01BC012AE030E08DE893E00E94A8264A
:100BD00006C065E871E08DE893E00E94C62528967E
:100BE0000FB6F894DEBF0FBECDBFDF91CF911F913E
:100BF0000F910895AF92BF92CF92DF92EF92FF9242
:100C00000F931F93CF93DF93CDB7DEB760970FB6E7
:100C1000F894DEBF0FBECDBF5C016B01FC01828189
:100C200093810E94400429833A834B835C836D83C4
:100C30007E838F839887CE0101960E944F07882379
:100C400009F4DAC0F501828193810E948E04298320
:100C50003A834B835C836D837E838F839887CE0139
:100C600001960E944F072BE931E040E050E060E040
:100C700070E0882309F47CC0C6010E948609F50152
:100C8000828193810E94400429833A834B835C8351
:100C90006D837E838F839887CE0101960E944307E0
:100CA0008B019C0193E0E92EF12C40E050E064E0E0
:100CB00070E0C6010E949E0920EA31E040E050E069
:100CC00068E070E0C6010E948609F5018281938187
:100CD0000E94400429833A834B835C836D837E8327
:100CE0008F839887CE0101960E9449078B019C0152
:100CF00040E050E06BE070E0C6010E949E0925EAEA
:100D000031E041E050E060E070E0C6010E948609F9
:100D1000F501828193810E948E0429873A874B874F
:100D20005C876D877E878F87988BF50182819381A1
:100D30000E94400429833A834B835C836D837E83C6
:100D40008F83988709851A852B853C854D855E851F
:100D50006F857889CE0101960E94AA088B019C01BB
:100D60004FE0E42EF12C41E050E063E070E040C041
:100D7000C6010E948609F501828193810E94400488
:100D800029833A834B835C836D837E838F8398872B
:100D9000CE0101960E9443078B019C018FE0E82E53
:100DA000F12C40E050E064E070E0C6010E949E0932
:100DB00020EA31E041E050E060E070E0C6010E94CE
:100DC0008609F501828193810E94400429833A8338
:100DD0004B835C836D837E838F839887CE010196DE
:100DE0000E9449078B019C0141E050E064E070E003
:100DF000C6010E949E0912C028EA31E040E050E09E
:100E000060E070E0C6010E9486092FE831E041E011
:100E100050E060E070E0C6010E94860960960FB65F
:100E2000F894DEBF0FBECDBFDF91CF911F910F9120
:100E3000FF90EF90DF90CF90BF90AF90089525EB9B
:100E400031E0FC013183208373836283089540E0A5
:100E500050EC69E774E4FC0140835183628373833F
:100E6000448355836683778308950F931F93FC0112
:100E7000408351836283738304831583268337837E
:100E80001F910F910895FC0160817181828193818E
:100E90000895FC0164817581868197810895CF92C0
:100EA000DF92EF92FF92CF93DF93EC01C880D9805D
:100EB000EA80FB8020E030E044EB52ECC701B60151
:100EC0000E94C63087FD27C020E030E044EB52E4AA
:100ED000C701B6010E94D2321816ECF0CC80DD803A
:100EE000EE80FF8020E030E044E353ECC701B60120
:100EF0000E94C63087FD0FC0C1E020E030E044E32F
:100F000053E4C701B6010E94D23218160CF0C0E0BB
:100F100081E08C2701C080E0DF91CF91FF90EF90BE
:100F2000DF90CF900895CF92DF92EF92FF920F93D0
:100F30001F93CF93DF93CDB7DEB728970FB6F89402
:100F4000DEBF0FBECDBF09831A832B833C834D8345
:100F50005E836F837887FC01C080D180E280F3805C
:100F600029813A814B815C81C701B6010E94C6305C
:100F700081110DC011E02D813E814F815885C7013F
:100F8000B6010E94C630811110E0812F01C080E0BF
:100F900028960FB6F894DEBF0FBECDBFDF91CF917C
:100FA0001F910F91FF90EF90DF90CF9008954F9297
:100FB0005F926F927F928F929F92AF92BF92CF92E9
:100FC000DF92EF92FF920F931F93CF93DF93CDB7F2
:100FD000DEB76C970FB6F894DEBF0FBECDBF5C01D5
:100FE00009831A832B833C834D835E836F837887C9
:100FF00025E33AEF4EE85CE3FC0160817181828178
:1010000093810E94DD326B017C0125E33AEF4EE8CB
:101010005CE369817A818B819C810E94DD322B01A6
:101020003C01F50124813581468157816D817E81A6
:101030008F8198850E94FF2F25E33AEF4EE85CE30D
:101040000E94DD324B015C010E9440336D877E8738
:101050008F87988BC301B2010E94CA3069877A8753
:101060008B879C87C701B6010E94CA30698B7A8B37
:101070008B8B9C8BC301B2010E9440339B01AC015E
:10108000C701B601298F3A8F4B8F5C8F0E94403386
:101090006B017C01C501B4010E94CA306D8B7E8B4F
:1010A0008F8B988F298D3A8D4B8D5C8D69897A89CC
:1010B0008B899C890E94DD324B015C0129853A8530
:1010C0004B855C85C701B6010E94DD322D893E89C2
:1010D0004F89588D0E94DD329B01AC01C501B401DE
:1010E0000E94FF2F6B017C0129853A854B855C8529
:1010F0006D857E858F8598890E94DD32A7019601D6
:101100000E94733020EE3EE245E652E40E94DD325A
:1011100020E030E044EB53E40E94003020E030E077
:1011200044EB53E46C960FB6F894DEBF0FBECDBF10
:10113000DF91CF911F910F91FF90EF90DF90CF90B3
:10114000BF90AF909F908F907F906F905F904F90E7
:101150000C94AA312F923F924F925F926F927F929E
:101160008F929F92AF92BF92CF92DF92EF92FF92B7
:101170000F931F93CF93DF93CDB7DEB760970FB672
:10118000F894DEBF0FBECDBF1C0109831A832B83E9
:101190003C834D835E836F837887C980DA80EB80E0
:1011A000FC80FC014080518062807380A301920129
:1011B000C701B6010E94FF2F25E33AEF4EE85CE33A
:1011C0000E94DD3220E030E040E05FE30E94DD324B
:1011D0000E9440334B015C0125E33AEF4EE85CE3AB
:1011E000C301B2010E94DD320E94CA302B013C01D2
:1011F00025E33AEF4EE85CE3C701B6010E94DD3219
:101200000E94CA3069877A878B879C87F101248185
:101210003581468157816D817E818F8198850E94BD
:10122000FF2F25E33AEF4EE85CE30E94DD3220E039
:1012300030E040E05FE30E94DD320E9440336B010A
:101240007C01A5019401C501B4010E94DD324B016E
:101250005C0129853A854B855C85C301B2010E94FA
:10126000DD322B013C01A7019601C701B6010E94A6
:10127000DD329B01AC01C301B2010E94DD329B0152
:10128000AC01C501B4010E9400306B017C019B01DF
:10129000AC0160E070E080E89FE30E94FF2F0E94B5
:1012A0004A339B01AC01C701B6012D873E874F87AA
:1012B000588B0E944A332D853E854F8558890E9460
:1012C00073309B01AC010E94003020E73DE642EC08
:1012D0005AE40E94DD3260960FB6F894DEBF0FBE6E
:1012E000CDBFDF91CF911F910F91FF90EF90DF90D5
:1012F000CF90BF90AF909F908F907F906F905F90B6
:101300004F903F902F9008950C9473210F931F934B
:10131000CF93DF93EC0189014230510550F40E94D4
:101320008121B801CE01DF91CF911F910F910C94D3
:10133000A925DF91CF911F910F9108958F929F92D0
:10134000AF92BF92EF92FF920F931F93CF93DF93D1
:10135000EC01480159014230510590F40E9481216D
:101360009701B501A401CE01DF91CF911F910F919B
:10137000FF90EF90BF90AF909F908F900C94A52717
:10138000DF91CF911F910F91FF90EF90BF90AF90A1
:101390009F908F9008958F92AF92CF92EF920F937C
:1013A000CF93DF93EC0187E0882E96E0A92E25E00D
:1013B000C22E34E0E32E00E021E042E067E2CE01FD
:1013C0000E94C72220E042E064E1CE010E9448234F
:1013D00040E050E063E0CE010E94392261E0CE019E
:1013E0000E944D22CE01DF91CF910F91EF90CF90CF
:1013F000AF908F900C947A21CF92DF92EF92FF9270
:101400000F931F93CF93DF93EC017B018A01198225
:10141000188288E090E09B838A831D821C8280E191
:1014200090E00E945F2D6C018883D982FA86E9865C
:101430000C171D0709F482C0D80114968D919C9158
:1014400015974A815B814817590720F59B838A834A
:10145000880F991F0E945F2D998388834C815D813D
:10146000F60120E030E02417350789F0A881B98122
:10147000B901660F771FA60FB71F109721F0608183
:1014800071816D937C932F5F3F4F3296ECCFC601F5
:101490000E94612D8C819D81F80144815581BA01A2
:1014A0008417950708F4BC0120E030E026173707C1
:1014B00099F06901CC0CDD1CD801ED91FC91EC0D8B
:1014C000FD1DE080F180E881F981EC0DFD1DF182C8
:1014D000E0822F5F3F4FEACF8417950758F0F8015D
:1014E000848195812C813D818217930738F59D83F6
:1014F0008C8324C09C01220F331FD80114964D9178
:101500005C9115978417950750F7F801A081B18178
:10151000A20FB31FE881F981E20FF31F309721F08A
:101520004D915C91518340834C815D814F5F5F4F52
:101530005D834C8301962E5F3F4FDFCF18861F825D
:10154000DF91CF911F910F91FF90EF90DF90CF909F
:1015500008950F931F93CF93DF93EC0189859A85AC
:10156000009711F10E9484090F8118858C819D815B
:101570000817190720F08DEB91E00E946323000FFC
:10158000111FE881F981E00FF11F80819181DC0159
:10159000ED91FC9169857A850680F781E02DDF91D8
:1015A000CF911F910F910994DF91CF911F910F91CE
:1015B0000895FC01878190850196648175810E9460
:1015C0006E2F9087878308950F931F93CF93DF9398
:1015D0008C016FEC71E08DE893E00E94C625C0E0BD
:1015E000D0E0F80184819581C817D90798F4CE011D
:1015F000880F991FD801ED91FC91E80FF91F8081A8
:101600009181DC01ED91FC910480F581E02D09953B
:101610002196E7CFDF91CF911F910F9108958F927F
:101620009F92AF92BF92CF92DF92EF92FF92CF93B1
:10163000DF93EC01CB01BA01688B798B8A8B9B8B92
:10164000C880D980EA80FB80A70196010E94DD3224
:101650004B015C01A701960160E070E080E89FE328
:101660000E94FF2F2C853D854E855F850E94DD32CF
:101670009B01AC01C501B4010E9400306C877D87DD
:101680008E879F87DF91CF91FF90EF90DF90CF9073
:10169000BF90AF909F908F9008952F923F924F925E
:1016A0005F926F927F928F929F92AF92BF92CF92F2
:1016B000DF92EF92FF920F931F93CF93DF93CDB7FB
:1016C000DEB73C01862F2D883E884F88588CF30169
:1016D000158A148A178A168A84869586A686B786FE
:1016E000208A318A428A538A60837183538342837A
:1016F0003583248317830683F186E086D386C286EA
:1017000061E00E94EE2E61E0F30182810E94EE2EE4
:1017100061E0F30184810E94EE2E61E0F301868195
:101720000E94EE2E61E0F30180850E94EE2E61E0C2
:10173000F3018285DF91CF911F910F91FF90EF9080
:10174000DF90CF90BF90AF909F908F907F906F90E1
:101750005F904F903F902F900C94EE2ECF93DF939D
:10176000EC01CB016F3F710519F014F08FEF90E0A1
:101770009D8B8C8BCA014F3F510519F014F08FEFF0
:1017800090E09F8B8E8B61E0181619060CF060E0DC
:1017900088850E94272F61E08E899F891816190677
:1017A0000CF460E08A850E94272F61E08C899D8976
:1017B000181619060CF060E08A810E94272F61E05C
:1017C0008C899D89181619060CF460E08C810E94A2
:1017D000272F6C897D89882777FD8095982F0E9417
:1017E00068312C853D854E855F850E94DD320E94E3
:1017F000353188810E94662E6E897F89882777FD22
:101800008095982F0E946831288939894A895B8997
:101810000E94DD320E9435318E81DF91CF910C9490
:10182000662EAF92BF92CF92DF92EF92FF920F930C
:101830001F93CF93DF931F92CDB7DEB75C018B016F
:1018400077FF02C000E010E060E0F501828149838B
:101850000E94272F61E0F50184810E94272F61E01B
:10186000F50180850E94272F60E0F50182850E94A6
:10187000272F4981442391F06FEF70E0F5018081BB
:101880000E94662E6FEF70E0F50186810E94662E41
:1018900064E670E080E090E00E94DC2DB8018827CB
:1018A00077FD8095982F0E9468316B017C01F501CE
:1018B00024853585468557850E94DD320E94353165
:1018C000F50180810E94662EF501208931894289C7
:1018D0005389C701B6010E94DD320E943531F501FE
:1018E00086810E94662E88279927801B910BF5011F
:1018F000958B848B178B068B0F90DF91CF911F9167
:101900000F91FF90EF90DF90CF90BF90AF90089530
:10191000CF93DF93EC0160E08A810E94272F60E083
:101920008C810E94272F60E088850E94272F60E02D
:101930008A850E94272F61E088810E94272F61E01D
:101940008E810E94272F1D8A1C8A1F8A1E8ADF9182
:10195000CF910895FC01848995890895FC018689B9
:101960009789089526E531E0FC01318320830895AD
:1019700026E531E0FC01318320830C94612DCF9367
:10198000DF93EC016CE172E08DE893E00E94A92501
:101990008A819B810E94AA0C4AE050E0BC018DE83C
:1019A00093E00E947B2662E272E08DE893E00E9461
:1019B000A9258A819B810E94AE0C4AE050E0BC01BF
:1019C0008DE893E0DF91CF910C948326CF92DF9244
:1019D000EF92FF920F931F93CF93DF936C01EB0174
:1019E0002BE232E040E050E060E070E0CE010E9487
:1019F0008609F601828193810E94AA0CBC01882786
:101A000077FD8095982F0E9468318B019C01EE2410
:101A1000E394F12C40E050E066E070E0CE010E94DB
:101A20009E0922E332E041E050E060E070E0CE0148
:101A30000E948609F601828193810E94AE0CBC014E
:101A4000882777FD8095982F0E9468318B019C0133
:101A500041E050E066E070E0CE010E949E09DF9117
:101A6000CF911F910F91FF90EF90DF90CF9008954D
:101A70002EE332E0FC013183208373836283089577
:101A80006F927F928F929F92AF92BF92CF92DF928E
:101A9000EF92FF920F931F93CF93DF93EC013C01E2
:101AA00081E4680E711C4E01EDE38E0E911CCE0197
:101AB000C9961F921F92FF92EF92DF92CF92580128
:101AC00069017A018B019301A401BC01CE010E943E
:101AD000151CF301108211821282138219AE1AAE04
:101AE0001BAE1CAEF40110821182128213820F9081
:101AF0000F900F900F900F900F90DF91CF911F914B
:101B00000F91FF90EF90DF90CF90BF90AF909F909C
:101B10008F907F906F9008958F5B9F4FFC01408363
:101B20005183628373830895FC0141AF52AF63AF69
:101B300074AF0895CD96FC0160817181828193819B
:101B4000089526E531E0FC0131832083089526E5E0
:101B500031E0FC01318320830C94612DCF93DF931E
:101B6000EC0166E472E08DE893E00E94A9258A8189
:101B70009B810E94821CAB01BC0122E030E08DE819
:101B800093E00E94A5276CE472E08DE893E00E9448
:101B9000A9258A819B810E94881CAB01BC0122E09F
:101BA00030E08DE893E00E94A52764E572E08DE8BF
:101BB00093E00E94A9258A819B810E948E1CAB0123
:101BC000BC0122E030E08DE893E00E94A5276CE59F
:101BD00072E08DE893E00E94A9258A819B810E9492
:101BE0009A0DAB01BC0122E030E08DE893E0DF917B
:101BF000CF910C94A727CF92DF92EF92FF920F9391
:101C00001F93CF93DF936C01EB0129E632E040E0B4
:101C100050E060E070E0CE010E948609F60182810A
:101C200093810E94821C8B019C0182E0E82EF12CA2
:101C300040E050E063E070E0CE010E949E092DE696
:101C400032E040E050E069E070E0CE010E94860999
:101C5000F601828193810E94881C8B019C0140E0E7
:101C600050E06CE070E0CE010E949E0921E732E076
:101C700041E050E060E070E0CE010E948609F6018C
:101C8000828193810E948E1C8B019C0141E050E077
:101C900063E070E0CE010E949E0925E732E041E05A
:101CA00050E069E070E0CE010E948609F601828171
:101CB00093810E949A0D8B019C0141E050E06BE002
:101CC00070E0CE010E949E09DF91CF911F910F918C
:101CD000FF90EF90DF90CF9008952CE732E0FC0169
:101CE000318320837383628308950F93FC01718392
:101CF00060834283238304831582168217821086B1
:101D000044EC59E060E070E0418752876387748754
:101D1000158616861786108A44E650E060E070E06B
:101D2000418B528B638B748B158A168A178A108E9F
:101D300044EF51E060E070E0418F528F638F748F09
:101D40000F9108952F923F924F925F926F927F92E0
:101D50008F929F92AF92BF92CF92DF92EF92FF92BB
:101D60000F931F93CF93DF9300D000D000D0CDB757
:101D7000DEB79E838D83FC0182810E94492E8C01F7
:101D8000ED81FE8183810E94492E4C01ED81FE810F
:101D900084810E94492E1C01ED81FE81A580B680C0
:101DA000C780D084B801882777FD8095982F248537
:101DB0002F9323852F9322852F9321852F93EE2414
:101DC000EA9413E0F12E00E010E020E030E0A901F9
:101DD0000E94B9272B013C01ED81FE81A584B684C8
:101DE000C784D088B401882777FD8095982F2489EF
:101DF0002F9323892F9322892F9321892F9320E0DA
:101E000030E0A9010E94B92769837A838B839C8380
:101E1000ED81FE81A588B688C788D08CB10188275E
:101E200077FD8095982F248D2F93238D2F93228DCE
:101E30002F93218D2F9320E030E0A9010E94B92734
:101E40000E94683120E030E048EC52E40E94CD303E
:101E50006B017C0169817A818B819C810E94683150
:101E600020E030E048EC52E40E94CD304B015C01B0
:101E7000C301B2010E94683120E030E048EC52E436
:101E80000E94CD30AB01BC0195018401ED81FE8142
:101E9000808191810E94FC190FB6F894DEBF0FBEBD
:101EA000CDBF26960FB6F894DEBF0FBECDBFDF9133
:101EB000CF911F910F91FF90EF90DF90CF90BF9047
:101EC000AF909F908F907F906F905F904F903F90DA
:101ED0002F900895FC0181A192A10C94D90ACF936F
:101EE000DF93EC018B859C850E94A20E89A19AA1AB
:101EF0000E94E40A89A19AA1DF91CF910C94A90ACA
:101F0000CF93DF93EC018F89988D0E943F138B89CB
:101F10009C89DF91CF910C940301FC01858196810E
:101F20000E94BB0420E030E040E85FE30E94C6303E
:101F3000881F8827881F0895CF93DF93EC0181E0E5
:101F4000888340E06FEF70E08F8198850E94110CCC
:101F500060EA7FE080E090E00E94DC2D8F81988530
:101F6000DF91CF910C94880C6F927F928F929F9209
:101F7000AF92BF92CF92DF92EF92FF920F931F9397
:101F8000CF93DF93CDB7DEB728970FB6F894DEBFB7
:101F90000FBECDBF3C010E94800FF3018581968169
:101FA0000E94400429833A834B835C836D837E8344
:101FB0008F839887CE0101960E944F07882329F0CE
:101FC000C3010E948D0F811137C0F3018789908D65
:101FD0000E94B413811125C0F301838994890E9462
:101FE0009C019F938F937F936F93F30185A096A09D
:101FF000A7A0B0A4C1A4D2A4E3A4F4A409811A8127
:102000002B813C814D815E816F81788581899289A8
:102010000E948A039B01AC010F900F900F900F90CC
:1020200004C040E050E020E030E0B901F3018781D6
:1020300090850E94AE0B03C0C3010E949C0F28969E
:102040000FB6F894DEBF0FBECDBFDF91CF911F91C9
:102050000F91FF90EF90DF90CF90BF90AF909F9047
:102060008F907F906F900895CF92DF92EF92FF92C2
:10207000CF93DF93EC018881811168C00E94AD2D60
:10208000C9A8DAA8EBA8FCA89B01AC012C193D0952
:102090004E095F0969017A0132E3C316D104E104F4
:1020A000F10438F069AB7AAB8BAB9CABCE010E94EC
:1020B000B40F0E94AD2D6B017C0189A99AA9ABA92F
:1020C000BCA9A7019601281B390B4A0B5B0B2531D4
:1020D000310541055105D0F58D819E810E940D0588
:1020E0008DA59EA5AFA5B8A9A7019601281B390B00
:1020F0004A0B5B0BDA01C901883E9340A105B1058B
:1021000038F0CDA6DEA6EFA6F8AACE010E946F0F8A
:102110008DA99EA9AFA9B8ADA7019601281B390BBF
:102120004A0B5B0BDA01C90188389341A105B1055F
:1021300068F0CDAADEAAEFAAF8AECE01DF91CF916A
:10214000FF90EF90DF90CF900C946A0FDF91CF91CA
:10215000FF90EF90DF90CF900895CF92DF92EF92B3
:10216000FF920F931F93CF93DF93EC017B018C8140
:102170009D818C010F5F1F4F8017910708F046C0AB
:102180004A815B814017510750F509964817590756
:1021900030F5C880D9809B838A83880F991F0E945D
:1021A0005F2D998388834C815D81F60120E030E0CA
:1021B0002417350789F0A881B981B901660F771F07
:1021C000A60FB71F109721F0608171816D937C93EA
:1021D0002F5F3F4F3296ECCFC6010E94612D8C815C
:1021E0009D819C01220F331F8017910790F4E88195
:1021F000F981E20FF31F309729F0D7014D915C91DF
:102200005183408301962E5F3F4FEECF0817190789
:1022100010F41D830C83DF91CF911F910F91FF90DC
:10222000EF90DF90CF9008954F925F926F927F92E0
:102230008F929F92AF92BF92CF92DF92EF92FF92D6
:102240000F931F93CF93DF93CDB7DEB72F970FB6C2
:10225000F894DEBF0FBECDBF3C0126E040E855E25A
:1022600060E070E08DE893E00E94642464E872E02E
:102270008DE893E00E94C62564E670E080E090E07F
:102280000E94DC2D8CE190E00E945F2D4C0160E00B
:1022900070E00E94DD00F301948A838A4DED5DEDCC
:1022A00065E870E4C4010E94960183E190E00E9419
:1022B0005F2D4C010E943A14F301908E878A03ED42
:1022C0001BE425E931E446EC5FEC65E372E4CE0102
:1022D00001960E94350788E0FE013196D30195965C
:1022E00001900D928A95E1F78AEA90E00E945F2DB5
:1022F0004C010E940C04F3019682858205A116A16F
:1023000027A130A541A552A563A574A5C4010E94CB
:10231000650488E190E00E945F2D2C018FE38F938C
:1023200080E88F931F921F92812C912CE0E8AE2EB3
:10233000EFE3BE2EF7E0CF2ED12CA5E0EA2EF12C54
:1023400006E010E024E030E042E050E063E070E0BE
:10235000C2010E944D0BF3015086478285E490E054
:102360000E945F2D4C01A12CB12CBFE8CB2EB2EC0A
:10237000DB2EB5EFEB2EBDE3FB2E0AE017ED23E2DB
:102380003CE340E050E060E771E40E94400DF3015F
:102390009686858661E070E0C4010E94C31B00E060
:1023A00010E02FE733E440E050E06FE773ECF30117
:1023B000858596850E94FD1A62E370E0F3018585AC
:1023C00096850E94AF1A80E190E00E945F2D4C013B
:1023D000F301658576850E948602F301928A818ADF
:1023E0008AE090E0F4019787868785E490E00E9478
:1023F0005F2D4C010AE017ED23E23CE340E050E0A2
:1024000060E771E40E94400DF301968E858E61E0D5
:1024100070E0C4010E94C31B00E010E02FE733E42A
:1024200040E050E06FE773ECF301858D968D0E94DC
:10243000FD1A62E370E0F301858D968D0E94AF1A5C
:1024400040E050E060EF71E4F301858D968D0E94CD
:102450008C0D86E190E00E945F2D4C01F301658DAB
:10246000768D0E94D515F301948E838E8DE190E0D8
:102470000E945F2D4C01F301658D768D0FE024E104
:1024800045E10E94750EF30190A2878E89E190E0EC
:102490000E945F2D4C010E94CB09F3019282818240
:1024A0001A86198688E090E09C878B871E861D8699
:1024B00080E190E00E945F2D9A8789870F900F90AE
:1024C0000F900F90F3018789908D892BB1F084E0F4
:1024D00090E00E945F2D4C01F3016789708D0E948E
:1024E0008915F301928E818E9A828982BE016F5F77
:1024F0007F4FCE0109960E94AD10F3018581968130
:10250000892BB1F084E090E00E945F2D4C01F30133
:10251000658176810E941F07F301948283829A82EB
:102520008982BE016F5F7F4FCE0109960E94AD1078
:10253000F30183899489892BB1F084E090E00E94B3
:102540005F2D4C01F301638974890E947E02F301BF
:10255000968A858A9A828982BE016F5F7F4FCE01FB
:1025600009960E94AD10F30185859685892BB1F0FF
:1025700084E090E00E945F2D4C01F3016585768533
:102580000E946D0EF301908A87869A828982BE012D
:102590006F5F7F4FCE0109960E94AD10F3018781D6
:1025A0009085892BB1F084E090E00E945F2D4C0172
:1025B000F301678170850E94380DF3019286818650
:1025C0009A828982BE016F5F7F4FCE0109960E9479
:1025D000AD108D859E859E838D8308969C838B830D
:1025E000880F991F0E945F2D9A8389834D815E8198
:1025F00080E090E08417950799F0A985BA859C0141
:10260000220F331FA20FB31FE981FA81E20FF31FDC
:10261000309721F02D913C91318320830196EACFB0
:102620008BE090E00E945F2D4C01F301618172818B
:10263000AE014F5F5F4F0E94FC09F30192A281A29D
:1026400089819A810E94612D89859A850E94612DD8
:102650002F960FB6F894DEBF0FBECDBFDF91CF919E
:102660001F910F91FF90EF90DF90CF90BF90AF90B0
:102670009F908F907F906F905F904F9008950F93F1
:102680001F93CF93DF93EC01288939898A859B8535
:102690000196B9010E946E2F8C019B878A87821751
:1026A000930720F08DEB91E00E946323000F111F30
:1026B000EC85FD85E00FF11F80819181DF91CF9145
:1026C0001F910F910C94C015FC01808191810C9495
:1026D000CF15FC01828193810C94CF15FC0184817C
:1026E00095810C94CF15FC01868197810C94CF15B0
:1026F000FC01808591850C94CF150E94641321E024
:102700006E3171058105910508F020E0822F089552
:102710000E94691321E06E3171058105910508F071
:1027200020E0822F08950E946E1321E06E31710522
:102730008105910508F020E0822F08950E9473130F
:1027400021E06E3171058105910508F020E0822FAE
:1027500008950E94781321E06E317105810591057D
:1027600008F020E0822F0895CF93DF93EC010E94C0
:102770007D13811114C0CE010E94881381110FC0F6
:10278000CE010E94931381110AC0CE010E949E13B4
:10279000811105C0CE01DF91CF910C94A91381E086
:1027A000DF91CF910895CF92DF92EF92FF920F9336
:1027B0001F93CF93DF93EC017B018C819D818C0172
:1027C0000F5F1F4F8017910708F046C04A815B8159
:1027D0004017510750F509964817590730F5C8803A
:1027E000D9809B838A83880F991F0E945F2D9983CC
:1027F00088834C815D81F60120E030E024173507A5
:1028000089F0A881B981B901660F771FA60FB71F9C
:10281000109721F0608171816D937C932F5F3F4F02
:102820003296ECCFC6010E94612D8C819D819C0166
:10283000220F331F8017910790F4E881F981E20F8E
:10284000F31F309729F0D7014D915C91518340835C
:1028500001962E5F3F4FEECF0817190710F41D8326
:102860000C83DF91CF911F910F91FF90EF90DF903C
:10287000CF900895EF92FF920F931F93CF93DF9322
:10288000EC018C01045F1F4F1D861C8688E090E0E0
:102890009F878E87198A188A80E190E00E945F2DB9
:1028A0009D878C8786E190E00E945F2D7C014CE043
:1028B00050E06CE070E00E949115F982E88286E1B8
:1028C00090E00E945F2D7C014EE050E06EE070E0F1
:1028D0000E949115FB82EA8286E190E00E945F2DC2
:1028E0007C014DE050E06DE070E00E949115FD82AA
:1028F000EC8286E190E00E945F2D7C0148E050E090
:1029000068E070E00E949115FF82EE8286E190E01F
:102910000E945F2D7C0149E050E069E070E00E9478
:102920009115F986E886BE016C5F7F4FC8010E9451
:10293000D313BE016A5F7F4FC8010E94D313BE014B
:10294000C8010E94D313BE01685F7F4FC8010E9477
:10295000D313BE016E5F7F4FC8010E94D3131B8645
:102960001A86DF91CF911F910F91FF90EF900895FC
:1029700026E531E0FC0131832083089526E531E02E
:10298000FC01318320830C94612DCF93DF93EC0104
:1029900060E972E08DE893E00E94A9258A819B811D
:1029A0000E946413AB01BC012AE030E08DE893E0A3
:1029B0000E949B2665E972E08DE893E00E94A925BC
:1029C0008A819B810E946E13AB01BC012AE030E03A
:1029D0008DE893E00E949B266EE972E08DE893E01B
:1029E0000E94A9258A819B810E946913AB01BC01C9
:1029F0002AE030E08DE893E00E949B2667EA72E0CF
:102A00008DE893E00E94A9258A819B810E9478131A
:102A1000AB01BC012AE030E08DE893E00E949B26E8
:102A20006FEA72E08DE893E00E94A9258A819B817C
:102A30000E947313AB01BC012AE030E08DE893E003
:102A4000DF91CF910C94A826CF92DF92EF92FF9264
:102A50000F931F93CF93DF936C01EB01FC018281F5
:102A600093810E946E130E9466318B019C01E12CC0
:102A7000F12C40E050E061E070E0CE010E949E0940
:102A8000F601828193810E9464130E9466318B015A
:102A90009C0140E050E067E070E0CE010E949E099A
:102AA000F601828193810E9469130E9466318B0135
:102AB0009C0140E050E06DE070E0CE010E949E0974
:102AC000F601828193810E9478130E9466318B0106
:102AD0009C0141E050E061E070E0CE010E949E095F
:102AE000F601828193810E9473130E9466318B01EB
:102AF0009C0141E050E06DE070E0CE010E949E0933
:102B0000DF91CF911F910F91FF90EF90DF90CF90C9
:102B100008952BEB32E0FC013183208373836283C1
:102B20000895CF93DF93EC01842F2CE330E0462F00
:102B3000682FCE010E94AB174FE352E46FE070E0C4
:102B40004A8B5B8B6C8B7D8BDF91CF9108950E94BC
:102B5000A018AC0160E070E0DB01CA010197A10997
:102B6000B109CC97A105B10528F03FE322E48FE03D
:102B700090E003C0342F252FCB01632F722F0895CF
:102B8000CF93DF93EC010E94AD2DCE010E94A715DB
:102B90006A8B7B8B8C8B9D8BDF91CF910895FC0191
:102BA00062897389848995890895FC0171836083A2
:102BB00008952EE1FC01208308950F93062F22E053
:102BC00046E060E0FC0180810E9465170F91089546
:102BD0000F93062F23E044E060E0FC0180810E9417
:102BE00065170F910895462F4295440F407E61E08E
:102BF000FC0180810C949E161F93CF93DF93EC0110
:102C0000162F462F62E088810E949E161F83DF9157
:102C1000CF911F910895CF93DF93EC0140E760E0DF
:102C200088810E949E1661E0CE010E94F31561E04A
:102C3000CE01DF91CF910C94FC15AF92BF92CF9251
:102C4000DF92EF92FF920F931F93CF93DF93EC01EC
:102C50007B015A01690100910A0110910B019C014D
:102C60002F5F3F4F46E063E088810E94AE168F8160
:102C7000813029F441E062E088810E949E168981BA
:102C800090E0982F88272A81822BF70191838083F7
:102C90008D8190E0982F88272E81822BF5019183DA
:102CA00080838B8190E0982F88272C81822BF601DE
:102CB00091838083DF91CF911F910F91FF90EF90CF
:102CC000DF90CF90BF90AF900895EF92FF920F9357
:102CD0001F93CF93DF9300D0CDB7DEB7062F142F0D
:102CE000682F8EE694E029833A830E94302B602F70
:102CF0008EE694E00E94D72A2981022FE22E3A81A3
:102D0000F32E8E2D801B811740F4F70161917F0116
:102D10008EE694E00E94D72AF4CF8EE694E00E94DB
:102D20004D2B91E0811190E0892F0F900F90DF9152
:102D3000CF911F910F91FF90EF900895CF93DF9364
:102D40001F92CDB7DEB749839E012F5F3F4F41E011
:102D50000E9465160F90DF91CF9108953F924F9298
:102D60005F926F927F928F929F92AF92BF92CF921B
:102D7000DF92EF92FF920F931F93CF93DF9300D0D8
:102D800000D000D0CDB7DEB7682E562E742E3A8311
:102D900029830E94AD2D6B017C01312C412C872DA4
:102DA00090E09C838B834801A12CB12C3714B0F5A3
:102DB000662D8EE694E00E94302B652D8EE694E021
:102DC0000E94D72A8EE694E00E944D2B662D8EE657
:102DD00094E00E94302B4B815C81431951094132B0
:102DE000510514F040E250E0662D8EE694E00E941A
:102DF0002D2B8EE694E00E947F2A892B59F1011534
:102E0000110579F10E94AD2D6C197D098E099F097C
:102E1000681579058A059B0520F11CC0011511056F
:102E200089F10E94AD2D6C197D098E099F0920E062
:102E300030E0601771078207930720F1872D90E03B
:102E4000242D332727FD309528173907DCF4442437
:102E50004A9418C0872D90E2971508F480E2380E46
:102E6000A5CFE981FA81E40DF11D47FCFA95FE83B7
:102E7000ED838EE694E00E94872AED81FE818083B7
:102E80004394B7CF842D26960FB6F894DEBF0FBEBD
:102E9000CDBFDF91CF911F910F91FF90EF90DF9009
:102EA000CF90BF90AF909F908F907F906F905F90EA
:102EB0004F903F9008950F931F9389019A0141E02D
:102EC0000E94AE161F910F910895DF92EF92FF922C
:102ED0000F931F93CF93DF931F92CDB7DEB7F82EDA
:102EE000E62ED42E122F20910A0130910B01AE0153
:102EF0004F5F5F4F0E945B17882319F14D2D50E003
:102F0000411B51094F5F5F4FE1E0F0E002C0EE0F5F
:102F1000FF1F1A95E2F73197042E01C0EE0F0A94B5
:102F2000EAF701C0000F4A95EAF74E2F40958981D4
:102F30004823E0234E2B49836E2D8F2D0E949E1631
:102F400001C080E00F90DF91CF911F910F91FF9012
:102F5000EF90DF900895CF93DF93DC0170E0FB01E9
:102F6000E65EFE4FE4911496EC931497842F90E064
:102F7000FC01E65EFE4FE4911596EC931597625DB9
:102F80007E4FFB01C491D0E0CC0FDD1FC45BDE4F50
:102F9000FE014591549117965C934E931697FC0150
:102FA000E25DFE4F849190E0880F991F8E5B9E4FEB
:102FB000FC01459154911B965C934E931A97FB012B
:102FC0006491E62FF0E0EE0FFF1FEA5AFE4F859165
:102FD000949119969C938E931897C901253FF1E01F
:102FE0003F0714F084EF91E049E3489F9001499F27
:102FF000300D1124245E3F4F1D963C932E931C9759
:10300000DF91CF9108950F931F93CF93DF93EC013E
:10301000E885F98580819C81892B8083EE81FF8101
:1030200090818C8180958923808384E090E00E9448
:10303000042EEE81FF8180819C81892B80838AE030
:1030400090E00E94042EEE81FF8190818C8180951A
:1030500089238083E885F98590818C8180958923F7
:1030600080830E94B92D605B794B8F4F9F4F6E8795
:103070007F87888B998BEA85FB8580819D81892359
:1030800059F00E94B92D0E851F85288939890617A8
:1030900017072807390778F7EA85FB8580819D8126
:1030A000892369F40E94B92D0E851F8528893989E5
:1030B000061717072807390778F780E00DC00E9428
:1030C000B92D2C853D85620F731F811D911D6E8763
:1030D0007F87888B998B81E0DF91CF911F910F9132
:1030E00008950F931F93CF93DF93EC010E94031871
:1030F000882389F0EA85FB8580819D81892371F091
:103100000E94B92D0E851F85288939890617170752
:103110002807390778F720E030E00CC00E94B92D6D
:103120002C853D85255031094E855F85241B350B47
:10313000260F371FC901DF91CF911F910F9108957D
:103140000E94711831E020E0009709F430E04C96BD
:1031500069E370E00E946E2F832F922F86179707E6
:1031600008F4CB0108951F920F920FB60F9211240D
:103170002F933F934F935F936F937F938F939F937F
:10318000AF93BF93EF93FF93E0915203F0915303FA
:10319000309709F00995FF91EF91BF91AF919F9101
:1031A0008F917F916F915F914F913F912F910F90F0
:1031B0000FBE0F901F9018952F923F924F925F92E3
:1031C0006F927F928F929F92AF92BF92CF92DF9237
:1031D000EF92FF920F931F93CF93DF93CDB7DEB79C
:1031E0002B970FB6F894DEBF0FBECDBF9B878A87A3
:1031F000DC01D896BC91B983B11102C01982E2C03A
:103200000E94AD2D6A837B838C839D83EA85FB8539
:1032100080A191A1A2A1B3A14A815B816C817D8132
:10322000481B590B6A0B7B0B84A595A5A6A5B7A5D2
:10323000481759076A077B0708F3028CF38DE02DC6
:1032400080809180A280B380AA85BB855E96ED9137
:10325000FC915F97A50194016081718182819381C6
:103260000E94FF2F2B013C01EA85FB8520893189D3
:10327000428953890E94DD32AA85BB8594962D919F
:103280003D914D915C9197970E9400306B017C01BC
:10329000EA85FB8564A375A386A397A324A835A814
:1032A00006A917A99101A8010E94D23218161CF490
:1032B000C101D80118C0AA85BB85D0968D919D917A
:1032C0000D90BC91A02D8E839F83A887B9879C0108
:1032D000AD01C701B6010E94C63087FF0AC08E81CA
:1032E0009F81A885B985EA85FB8584A395A3A6A3BC
:1032F000B7A3AA85BB851C962D913D914D915C91FC
:103300001F97C301B2010E94DD32EA85FB8524A12B
:1033100035A146A157A10E9400306B017C01AA850E
:10332000BB8598962D913D914D915C919B97C501E0
:10333000B4010E94FF2FEA85FB85248935894689DF
:1033400057890E94DD329B01AC01C701B6010E9482
:10335000FF2F6B017C019101A8010E94D232181647
:10336000BCF0AA85BB85D0962C90D097D1963C9086
:10337000D197D2960C91D297D3961C919101A80126
:10338000B601C7010E94C63087FD02C01601870141
:10339000AA85BB855C96ED91FC915D97C101D80132
:1033A00080839183A283B383EA85FB8580A691A65F
:1033B000A2A6B3A68A819B81AC81BD8180A391A383
:1033C000A2A3B3A389812B960FB6F894DEBF0FBEDC
:1033D000CDBFDF91CF911F910F91FF90EF90DF90C4
:1033E000CF90BF90AF909F908F907F906F905F90A5
:1033F0004F903F902F9008952F923F924F925F925F
:103400006F927F928F929F92AF92BF92CF92DF92F4
:10341000EF92FF920F931F93CF93DF9300D000D0D2
:10342000CDB7DEB71C012A013B014801590120E05C
:1034300030E0A901C301B2010E94C63087FD78C007
:1034400020E030E0A901C501B4010E94C63087FD2B
:103450006FC020E030E0A901C701B6010E94C6306C
:1034600087FD66C0F101408251826282738284824C
:103470009582A682B782C086D186E286F38664A54D
:1034800075A586A597A50E94663120E030E04AE741
:1034900054E40E94CD3069837A838B839C83F1014D
:1034A00044865586668677869B01AC01C501B401CA
:1034B0000E94DD324B015C01F101608B718B828BCC
:1034C000938B29813A814B815C81C701B6010E94AF
:1034D000CD306B017C01F101648B758B868B978BF2
:1034E000808D918D019721F5A301920160E070E03C
:1034F000CB010E94FF2FF10164877587868797872C
:10350000A501940160E070E0CB010E94FF2FF10162
:10351000608B718B828B938BA701960160E070E0CA
:10352000CB010E94FF2FF101648B758B868B978BEB
:103530000F900F900F900F90DF91CF911F910F91EF
:10354000FF90EF90DF90CF90BF90AF909F908F90C3
:103550007F906F905F904F903F902F9008958F9243
:103560009F92AF92BF92CF92DF92EF92FF92CF9352
:10357000DF93EC0116161706ACF56B01EE24D7FCB1
:10358000E094FE2CC701B6010E9468314B015C013A
:103590006CA57DA58EA59FA50E9466319B01AC01FF
:1035A000C501B4010E94CD304B015C019B01AC010F
:1035B000688979898A899B890E94DD32688B798B39
:1035C0008A8B9B8BA50194016C897D898E899F894B
:1035D0000E94CD306C8B7D8B8E8B9F8BCCA6DDA615
:1035E000EEA6FFA6DF91CF91FF90EF90DF90CF90F6
:1035F000BF90AF909F908F9008952F923F924F92DF
:103600005F926F927F928F929F92AF92BF92CF9272
:10361000DF92EF92FF920F931F93CF93DF93EC0112
:103620006A017B0148015901A9019801C701B6014E
:103630000E94D23287FF4EC0C8AAD9AAEAAAFBAA22
:103640008CAA9DAAAEAABFAA88AD882309F442C05D
:103650002C8C3D8CF1014080518062807380A501EB
:103660009401C301B2010E94D232181634F4F10160
:1036700080829182A282B3820DC0A7019601C3010C
:10368000B2010E94C63087FF05C0F101C082D1821D
:10369000E282F3828CA09DA0AEA0BFA0CCA8DDA842
:1036A000EEA8FFA8A7019601C501B4010E94D2327D
:1036B000181664F0C8A8D9A8EAA8FBA8A701960123
:1036C000C501B4010E94C63087FF04C0CCA2DDA2B0
:1036D000EEA2FFA2DF91CF911F910F91FF90EF908B
:1036E000DF90CF90BF90AF909F908F907F906F9022
:1036F0005F904F903F902F9008958F929F92AF923E
:10370000BF92CF92DF92EF92FF92CF93DF93EC01C3
:10371000EC8DFD8DC080D180E280F380CCA2DDA253
:10372000EEA2FFA2EA8DFB8D80819181A281B381FF
:1037300088A799A7AAA7BBA78CA89DA8AEA8BFA831
:10374000A5019401C701B6010E94D232181664F097
:1037500088A899A8AAA8BBA8A5019401C701B60189
:103760000E94C63087FF04C08CA29DA2AEA2BFA259
:10377000DF91CF91FF90EF90DF90CF90BF90AF900F
:103780009F908F9008951F93CF93DF93EC0111E0EA
:103790006130710509F010E088AD91E089271813B8
:1037A00003C0CE010E947D1B18AFDF91CF911F9106
:1037B00008950F931F93CF93DF93EC018B0188AD96
:1037C000882361F1888D998D6817790739F12C85E7
:1037D0003D854E855F8560E070E0CB010E94FF2F44
:1037E0006C877D878E879F87288939894A895B897D
:1037F00060E070E0CB010E94FF2F688B798B8A8B91
:103800009B8B2C893D894E895F8960E070E0CB01FC
:103810000E94FF2F6C8B7D8B8E8B9F8B198F088F57
:10382000DF91CF911F910F9108954F925F926F9208
:103830007F928F929F92AF92BF92CF92DF92EF9240
:10384000FF920F931F93CF93DF9300D000D0CDB79B
:10385000DEB74C0127013801A982BA82CB82DC8213
:10386000FC01558F448F738F628F378F268F10AE78
:1038700010AA11AA12AA13AA80E090E0AFE7B3E45D
:1038800084AB95ABA6ABB7AB84E690E0A0E0B0E02C
:1038900084A795A7A6A7B7A76B8D7C8DC4010E94AE
:1038A000D91BCF88D88CE98CFA8C09811A812B819D
:1038B0003C81B301A201C4010E94FC190E94AD2DFC
:1038C000F40144A455A466A477A464197509860973
:1038D000970960A371A382A393A30F900F900F90F9
:1038E0000F90DF91CF911F910F91FF90EF90DF909C
:1038F000CF90BF90AF909F908F907F906F905F9090
:103900004F900895FC0160817181828193810895B7
:10391000FC0164817581868197810895FC01608531
:1039200071858285938508950F931F93FC010FEF96
:103930001FEF980100831183228333831086118641
:10394000128613864FEF59EC6AE97BE3408B518B6B
:10395000628B738B408F518F628F738F40A351A303
:1039600062A373A340A751A762A773A740AB51AB53
:1039700062AB73AB00AF11AF22AF33AFDC01A05C21
:10398000BF4F8FEF90E011969C938E9314960D93FA
:103990001D932D933C93139718960D931D932D9380
:1039A0003C93139718961C9211961C92509682E0A5
:1039B0008C9311961C9211961C9211961C92119642
:1039C0001D921D921D921C921397149611961C9293
:1039D0001E9212961D921C92EA5AFF4F10821F915E
:1039E0000F9108952FEB260F862F992787FD90952D
:1039F000263010F4C79708956156663018F487553D
:103A000091090895C09708950F931F93FB0160E0FB
:103A100070E0CB01019120ED200F2A30A0F4AAE044
:103A2000B0E09B01AC010E94DD2F112707FD10952E
:103A3000212F312F600F711F821F931F6053710957
:103A400081099109E7CF1F910F9108950F931F935B
:103A5000CF93FC01EA5AFF4FC1E020812D3219F0CB
:103A6000C0E08F0103C08C01095A1F4FB8010E94AA
:103A7000041D9B01AC01A4E6B0E00E94DD2FF8011B
:103A8000DF01219130ED320F3A30D0F32E3269F55B
:103A900011962C91119730ED320F3A3030F53327D3
:103AA00027FD3095205331094AE0429F8001439F12
:103AB000100D1124222717FD2095322F600F711F42
:103AC000821F931F12960C9120ED200F2A3068F46C
:103AD000112707FD109500531109222717FD209586
:103AE000322F600F711F821F931FCC2339F09095E6
:103AF0008095709561957F4F8F4F9F4FCF911F910C
:103B00000F9108954F925F926F927F928F929F9242
:103B1000AF92BF92CF92DF92EF92FF92CF93DF935B
:103B2000EC01CA5ADF4FBE010E94041D2B013C016B
:103B300024E630E040E050E00E94962F9B01AC016B
:103B400060EA76E881E090E00E945E2F6B017C01E4
:103B5000FE01819190ED980F9A30D8F38E3219F5CD
:103B6000EF0180E1882E87E2982EA12CB12CA9913B
:103B700080ED8A0F8A30B8F4BB27A7FDB095D097A7
:103B8000A50194010E94E82FC60ED71EE81EF91E5B
:103B9000C501B4012AE030E040E050E00E94962FD9
:103BA00049015A01E4CFC701B6016D5F7F4F8F4FC6
:103BB0009F4F26E030E040E050E00E94962F6901E0
:103BC0007A01C301B20124E630E040E050E00E94F7
:103BD000962F60E472E48FE090E00E945E2FC60EA4
:103BE000D71EE81EF91EC701B601DF91CF91FF90E5
:103BF000EF90DF90CF90BF90AF909F908F907F908D
:103C00006F905F904F900895DB01FA018D918823AA
:103C100019F091918917D1F3992787FD909508950F
:103C2000CF92DF92EF92FF921F93CF93DF93EC013D
:103C3000FC01EB5AFF4F1081112309F4A9C0319602
:103C400060810E94F21C182FFE01E95AFF4F60812B
:103C5000CE010E94F21C40E1149F800D1124FE0150
:103C6000EC5AFF4F908189138AC0749610811123FA
:103C700009F458C1359680819181019691838083A2
:103C8000B59780819181A281B3813497808391839C
:103C9000A283B3833C9680819181A281B3813497C2
:103CA00080839183A283B383799680818823A1F155
:103CB000813009F037C18C819D81AE81BF818883BD
:103CC0009983AA83BB838C859D85AE85BF858887B4
:103CD0009987AA87BB878C899D89AE89BF89888B84
:103CE000998BAA8BBB8B8C8D9D8DAE8DBF8D888F54
:103CF000998FAA8FBB8F8CA59DA5AEA5BFA588A7C0
:103D000099A7AAA7BBA78CA99DA9AEA9BFA988AB53
:103D100099ABAAABBBAB06C18CA19DA1AEA1BFA1C3
:103D200088A399A3AAA3BBA38C819D81AE81BF81E7
:103D300088839983AA83BB838C899D89AE89BF8937
:103D4000888B998BAA8BBB8B8C8D9D8DAE8DBF8DF7
:103D5000888F998FAA8FBB8FFE01E05CFF4FDE0139
:103D6000AE5BBF4F8D919C91918380838CAD9DAD57
:103D7000AEADBFAD88AF99AFAAAFBBAFD3C0C1598D
:103D8000DF4F8881998101969983888310E0CAC0AA
:103D9000FC01EA59FF4F30818B599F4F7C01311153
:103DA0001DC06E0196E5C90ED11C43EC52E0B60170
:103DB000CE010E94041E892B11F481E00CC049EC55
:103DC00052E0B601CE010E94041E892B19F4F701BE
:103DD0001082A8C082E0D7018C93A4C0DC01EC91D2
:103DE000E23009F49FC0CE018A5A9F4FDC012C912A
:103DF000222309F497C0B0E2EB9FF0011124E32BDA
:103E00003197E932F10508F08DC0EC5CFF4F0C945E
:103E1000D72FCE010E94261D6C837D838E839F83C6
:103E20000E94AD2DC85BDF4F12C0C859DF4F81E043
:103E3000213409F05DC05DC0CE010E94821D6C8BF3
:103E40007D8B8E8B9F8B0E94AD2DC05BDF4F688377
:103E500079838A839B8366C0233509F063C08C898C
:103E60009D89AE89BF89B095A095909581959F4F0A
:103E7000AF4FBF4F8C8B9D8BAE8BBF8B53C0CE0192
:103E80000E94821D6C8F7D8F8E8F9F8F4BC0273538
:103E900009F048C08C8D9D8DAE8DBF8DB095A095DD
:103EA000909581959F4FAF4FBF4F8C8F9D8FAE8F59
:103EB000BF8F38C0CE010E94261D6CA77DA78EA79C
:103EC0009FA730C0CE010E94261D6CAB7DAB8EAB90
:103ED0009FAB28C0BC01CE010E94041D6C877D876A
:103EE0008E879F871FC0C859DF4F81E021330CF4B4
:103EF00080E0888317C00E94D334CE5BDF4F9927C0
:103F0000998388830FC0CE010E94261D6CAF7DAFC0
:103F10008EAF9FAF07C0CE010E94261D6CA37DA36C
:103F20008EA39FA3812FDF91CF911F91FF90EF90E0
:103F3000DF90CF900895CF92DF92EF92FF920F9390
:103F40001F93CF93DF931F92CDB7DEB76C01262F5F
:103F5000FC01E759FF4F40815181628173814F5FBE
:103F60005F4F6F4F7F4F40835183628373838C0118
:103F700009591F4F8B5A9F4F7C01243281F12CF439
:103F80002A3069F02D30E9F50AC02A3241F02C328E
:103F9000C1F5F601EC5AFF4F808182278083F8013A
:103FA00080818F3060F4F601E80FF11DEA5AFF4F6F
:103FB0001082C60129830E94101E298101C080E061
:103FC000F601EA59FF4F90819F5F9083F8011082BC
:103FD00091E02A3209F090E0F70190832AC0F801BD
:103FE0001082F601EA59FF4F108272971082719683
:103FF00082E08083F7011082F601E859FF4F1082BA
:1040000017C0F80180818E3048F491E0980F9083BA
:10401000F601E80FF11DEA5AFF4F2083F701808176
:10402000811106C0F601EC5AFF4F80818227808300
:1040300080E00F90DF91CF911F910F91FF90EF9053
:10404000DF90CF900895CF92DF92EF92FF920F937F
:104050001F93CF93DF93E9016115710551F0FC01C6
:10406000C088D188E288F388FB01C082D182E282D5
:10407000F3824115510551F0FC01C08CD18CE28CCA
:10408000F38CFA01C082D182E282F382209701F19F
:104090008C01045B1F4FF80180819181A281B38163
:1040A0008F3F9F4FAF4FBF4F61F00E94AD2DF80182
:1040B0000081118122813381601B710B820B930B74
:1040C00003C06FEF7FEFCB01688379838A839B8383
:1040D000DF91CF911F910F91FF90EF90DF90CF90E4
:1040E0000895AF92BF92CF92DF92EF92FF920F931B
:1040F0001F93CF93DF93CDB7DEB728970FB6F89411
:10410000DEBF0FBECDBF5B018A01AE014F5F5F4FC7
:10411000BE016B5F7F4F0E942320CD80DE80EF8049
:10412000F8848FEFC81689ECD8068AE9E8068BE395
:10413000F80659F0C701B6010E94683120E034E268
:1041400044E759E40E94CD3004C060E070E08AE7A3
:1041500094E4F5016083718382839383FFEFCF162C
:10416000F9ECDF06FAE9EF06FBE3FF0669F0698187
:104170007A818B819C810E94683120E034E244E79F
:1041800059E40E94CD3004C060E070E08AE794E416
:10419000F801608371838283938328960FB6F89425
:1041A000DEBF0FBECDBFDF91CF911F910F91FF906A
:1041B000EF90DF90CF90BF90AF900895FC0160A189
:1041C00071A182A193A16F3FF9EC7F07FAE98F07F4
:1041D000FBE39F0749F00E94683120E030E048ECA3
:1041E00052E40E94CD30089560E074E284E799E4DF
:1041F0000895FC0112828FEF81831082138208954B
:10420000FC018381882331F0611103C08FEF81832A
:10421000089511820895CF93DF93EC016A838EE6AF
:1042200094E00E94162B41E06A818EE694E00E94A1
:104230002D2B91E0811101C090E09B838EE694E0EC
:104240000E94872A88838B8190E0DF91CF91089527
:10425000CF93DF93EC018B818823A9F0898180952E
:10426000862388836A818EE694E00E94302B6881E1
:104270008EE694E00E94D72A8EE694E00E944D2BB1
:10428000282F30E002C020E030E081E090E0232BD6
:1042900011F080E090E0DF91CF91089508950895A6
:1042A000DC01ED91FC910284F385E02D41E009955C
:1042B00081E090E00895FC011382128229EF32E040
:1042C000318320830895DC01ED91FC910084F18518
:1042D000E02D6FEF0994DC01ED91FC910284F385F0
:1042E000E02D40E0099461E00E946B2180ED97E0B1
:1042F0000C94042E62E00E946B2180ED97E00C94F8
:10430000042ECF93DF93CDB7DEB728970FB6F8947E
:10431000DEBF0FBECDBF1D8220E42E8334E13F837C
:1043200034E5388719822A8320E12B8320E52C830A
:10433000FC012781421710F04FEF420FFC0130853E
:1043400050E0FE01E40FF51F303121F4243011F468
:10435000218101C02581260F2068622F28960FB683
:10436000F894DEBF0FBECDBFDF91CF910C946B21CF
:10437000FC016581262F246025836C600C946B21E1
:10438000CF93DF93EC01423018F08C8188608C83EE
:104390004F836887222329F0413019F48C8184608F
:1043A0008C8364E670E080E090E00E94DC2D6C81FC
:1043B00064FD31C0E881F9810284F385E02D42E09B
:1043C00063E0CE01099584E991E10E94042EE88121
:1043D000F9810284F385E02D42E063E0CE01099586
:1043E00084E991E10E94042EE881F9810284F38539
:1043F000E02D42E063E0CE01099586E990E00E945D
:10440000042EE881F9810284F385E02D42E062E028
:10441000CE01099516C06062CE010E946B2184E92D
:1044200091E10E94042E6C816062CE010E946B219A
:1044300086E990E00E94042E6C816062CE010E94A9
:104440006B216C816062CE010E946B2184E08D83C0
:10445000CE010E94B821CE010E94732182E08E839A
:1044600066E0CE010E946B21CE01DF91CF910C94CA
:10447000632121E001C0220F6A95EAF7DC011C9656
:104480002C931C971A965C934E931997ED91FC917F
:104490000084F185E02D60E00994FC01248522234D
:1044A00099F081859285009719F4611105C006C0C5
:1044B000019721F4611102C0258701C01586658529
:1044C000CF010E960C94282108950F931F93CF933C
:1044D000DF93EC018C01025F1F4F6B85C8010E94C6
:1044E0000B21019761F461E0C8010E9400211C8248
:1044F00060E0C8010E94282181E090E002C080E0D5
:1045000090E0DF91CF911F910F9108958F92AF921C
:10451000CF92EF920F93CF93DF93CDB7DEB7FC012D
:104520006387148615861286118681E0982F01C054
:10453000990F4A95EAF7928B982F01C0990F2A9507
:10454000EAF7938B982F01C0990F0A95EAF7948B9D
:10455000982F01C0990FEA94EAF7958B982F01C024
:10456000990FCA94EAF7968B982F01C0990FAA94D5
:10457000EAF7978B01C0880F8A94EAF7808FDF9162
:10458000CF910F91EF90CF90AF908F9008956F9251
:104590007F928F92AF92CF92EF920F93CF93DF9350
:1045A00000D01F92CDB7DEB73C012B834A836983CD
:1045B0000E945B2189E093E0F30191838083C30132
:1045C0000E960E94F9202B814A816981C3010E94C5
:1045D00086220F900F900F90DF91CF910F91EF9067
:1045E000CF90AF908F907F906F900895FF920F9330
:1045F0001F93CF93DF93EC01F62E8C01025F1F4FC8
:104600006A896F29C8010E9428216A8960956F21F3
:10461000C801DF91CF911F910F91FF900C94282139
:1046200020E030E050E060FF05C0FC01E20FF31F26
:104630007589572B66952F5F3F4F2430310599F7C9
:10464000413011F4FC014489FC016585652B642B24
:104650000C94F6220F931F93CF93DF93EC01142F4A
:10466000062F0F70423011F440E00AC070E084E081
:10467000759567958A95E1F7CE010E941023412F29
:10468000602FCE01DF91CF911F910F910C941023D9
:104690000F931F93CF93DF9300D01F92CDB7DEB758
:1046A0008C012B834A8369830E9465222B814A8176
:1046B0006981C8010F900F900F90DF91CF911F91EA
:1046C0000F910C94C0210E94CE34089584E593E0AC
:1046D0000C94141184E593E00C9434100E940E2E77
:1046E0000E9465230E946623CEEAD3E20E946A23D9
:1046F0002097E1F30E94AE23F9CF89E793E00C9471
:104700002707FC01818D228D90E0805C9F4F821BEA
:1047100091098F7399270895FC01918D828D9817C7
:1047200031F0828DE80FF11D858D90E008958FEFB7
:104730009FEF0895FC01918D828D981761F0828D15
:10474000DF01A80FB11D5D968C91928D9F5F9F73C5
:10475000928F90E008958FEF9FEF08958EE195E29C
:10476000892B49F080E090E0892B29F00E941E25DA
:1047700081110C9400000895FC01848DDF01A80FC5
:10478000B11DA35ABF4F2C91848D90E001968F7379
:104790009927848FA689B7892C93A089B1898C9198
:1047A00080648C93938D848D981306C00288F3895E
:1047B000E02D80818F7D80830895CF93DF93EC017E
:1047C000888D8823C9F0EA89FB89808185FD05C031
:1047D000A889B9898C9186FD0FC00FB607FCF5CF6B
:1047E000808185FFF2CFA889B9898C9185FFEDCFB3
:1047F000CE010E94BC23E7CFDF91CF910895CF92E5
:10480000DF92FF920F931F93CF93DF931F92CDB749
:10481000DEB76C01DC015B969C915B975C968C919A
:104820005C97981307C05096ED91FC915197808149
:1048300085FD32C0F601038D10E00F5F1F4F0F732F
:104840001127F02EF601848DF81211C00FB607FC67
:10485000F9CFD6015096ED91FC915197808185FF5B
:10486000F1CFC60169830E94BC236981EBCF838DA0
:10487000E80FF11DE35AFF4F6083D6015B960C935E
:104880005B975296ED91FC91539780818062808373
:1048900081E058968C930DC0D6015696ED91FC910F
:1048A000579760835096ED91FC9151978081806479
:1048B000808381E090E00F90DF91CF911F910F9165
:1048C000FF90DF90CF900895BF92CF92DF92EF924A
:1048D000FF92CF93DF93EC016A017B01B22EE8894E
:1048E000F98982E08083411581EE580761057105E1
:1048F000A1F060E079E08DE390E0A70196010E94CD
:10490000962F215031094109510956954795379500
:104910002795211580E1380798F0E889F9891082F8
:1049200060E874E88EE190E0A70196010E94962F5E
:1049300021503109410951095695479537952795D9
:10494000EC85FD853083EE85FF852083188EEC890C
:10495000FD89B082EA89FB89808180618083EA8950
:10496000FB89808188608083EA89FB8980818068F7
:104970008083EA89FB8980818F7D8083DF91CF915D
:10498000FF90EF90DF90CF90BF9008951F920F920D
:104990000FB60F9211242F938F939F93EF93FF9352
:1049A000E0919D03F0919E038081E091A303F0913B
:1049B000A40382FD12C090818091A6038F5F8F7344
:1049C0002091A703821751F0E091A603F0E0E3578E
:1049D000FC4F958F8093A60301C08081FF91EF91DA
:1049E0009F918F912F910F900FBE0F901F90189550
:1049F0001F920F920FB60F9211242F933F934F9354
:104A00005F936F937F938F939F93AF93BF93EF9336
:104A1000FF938DE893E00E94BC23FF91EF91BF913B
:104A2000AF919F918F917F916F915F914F913F9146
:104A30002F910F900FBE0F901F9018958DE893E067
:104A40000E94812321E0892B09F420E0822F089520
:104A50001092900310928F0388EE93E0A0E0B0E0F4
:104A60008093910390939203A0939303B093940344
:104A700089E193E090938E0380938D0385EC90E021
:104A800090939A038093990384EC90E090939C0315
:104A900080939B0380EC90E090939E0380939D0312
:104AA00081EC90E09093A00380939F0382EC90E0D0
:104AB0009093A2038093A10386EC90E09093A403CB
:104AC0008093A3031092A6031092A7031092A80349
:104AD0001092A9030895CF92DF92EF92FF920F9365
:104AE0001F93CF93DF936C017A01EB01E60EF71E63
:104AF00000E010E0CE15DF0561F06991D601ED917F
:104B0000FC910190F081E02DC6010995080F191F55
:104B1000F1CFC801DF91CF911F910F91FF90EF90DE
:104B2000DF90CF9008956115710581F0DB010D9044
:104B30000020E9F7AD0141505109461B570BDC013C
:104B4000ED91FC910280F381E02D099480E090E0EA
:104B500008950C949325DC01ED91FC910190F08176
:104B6000E02D09940F931F93CF93DF93EC016DE039
:104B70000E94AB258C016AE0CE010E94AB25800F1C
:104B8000911FDF91CF911F910F9108950F931F9364
:104B9000CF93DF93EC010E9493258C01CE010E94FC
:104BA000B225800F911FDF91CF911F910F91089532
:104BB0008F929F92AF92BF92CF92DF92EF92FF922D
:104BC0000F931F93CF93DF93CDB7DEB7A1970FB6A7
:104BD000F894DEBF0FBECDBF7C01C42EE52FCB0104
:104BE000D22E19A221E02D1510F02AE0D22E8E012E
:104BF0000F5D1F4F8D2C912CA12CB12C6C2D7E2F75
:104C0000A50194010E94962F8C2DD29E801911240B
:104C1000015011098A3014F4805D01C0895CF801EB
:104C20008083211531054105510521F0C22EE32F66
:104C3000CA01E4CFB801C7010E949325A1960FB61F
:104C4000F894DEBF0FBECDBFDF91CF911F910F91C2
:104C5000FF90EF90DF90CF90BF90AF909F908F909C
:104C60000895CF92DF92EF92FF920F931F93CF930D
:104C7000DF93EC016A017B012115310579F4E881AC
:104C8000F9810190F081E02D642FDF91CF911F9188
:104C90000F91FF90EF90DF90CF9009942A3031056B
:104CA000E9F477FF1AC06DE20E94AB258C0144271E
:104CB0005527BA014C195D096E097F092AE0CE011A
:104CC0000E94D825800F911FDF91CF911F910F91E6
:104CD000FF90EF90DF90CF9008952AE0B701A601F2
:104CE000CE01DF91CF911F910F91FF90EF90DF9058
:104CF000CF900C94D8259A01AB01662757FD60959B
:104D0000762F0C9431260F931F93CF93DF93EC01F2
:104D10009A01AB01662757FD6095762F0E943126D8
:104D20008C01CE010E94B225800F911FDF91CF919F
:104D30001F910F9108952115310541F4DC01ED918A
:104D4000FC910190F081E02D642F09940C94D825FA
:104D50000F931F93CF93DF93EC010E949B268C014E
:104D6000CE010E94B225800F911FDF91CF911F913C
:104D70000F9108954F925F926F927F928F929F92C0
:104D8000AF92BF92CF92DF92EF92FF920F931F9359
:104D9000CF93DF93EC016A017B01B22E9A01AB0144
:104DA000C701B6010E948B33882319F065E273E0D6
:104DB00027C026013701E89477F82FEF3FEF4FE740
:104DC0005FE7C301B2010E948B3381110DC02FEF49
:104DD0003FEF4FE75FE7C301B2010E94C6301816EC
:104DE0001CF469E273E00CC02FEF3FEF4FE75FE484
:104DF000C701B6010E94D2321816ACF46DE273E01E
:104E0000CE01DF91CF911F910F91FF90EF90DF9036
:104E1000CF90BF90AF909F908F907F906F905F905A
:104E20004F900C9493252FEF3FEF4FE75FECC701B6
:104E3000B6010E94C63087FDE1CF20E030E0A90135
:104E4000C701B6010E94C63087FF0AC06DE2CE01DD
:104E50000E94AB258C01F7FAF094F7F8F09402C0A9
:104E600000E010E0A12C60E070E080E09FE3AB1474
:104E700041F020E030E040E251E40E94CD30A394C4
:104E8000F6CF9B01AC01C701B6010E9400306B0157
:104E90007C010E943A312B013C010E9466319B014A
:104EA000AC01C701B6010E94FF2F6B017C012AE013
:104EB000B301A201CE010E94D825080F191FBB2003
:104EC00039F06EE872E0CE010E949325080F191F99
:104ED0007B2C772041F120E030E040E251E4C70133
:104EE000B6010E94DD326B017C010E9435314B011D
:104EF000AA2497FCA094BA2C2AE030E0B501A401C2
:104F0000CE010E943126080F191FC501B4010E946D
:104F100068319B01AC01C701B6010E94FF2F6B01F4
:104F20007C017A94D6CFC801DF91CF911F910F9168
:104F3000FF90EF90DF90CF90BF90AF909F908F90B9
:104F40007F906F905F904F9008950C94BA260F93C6
:104F50001F93CF93DF93EC010E94BA268C01CE0100
:104F60000E94B225800F911FDF91CF911F910F9169
:104F700008954F925F926F927F92AF92BF92CF92BD
:104F8000DF92EF92FF920F931F93CF93DF93CDB7F2
:104F9000DEB729013A01621B730B840B950B29893B
:104FA0003A894B895C892A193B094C095D09298B8F
:104FB0003A8B4B8B5C8B9B01AC0169897A898B891D
:104FC0009C890E945E2FE418F50806091709A801BC
:104FD00097010E94B82F2A0D3B1D4C1D5D1DCA0173
:104FE000B901DF91CF911F910F91FF90EF90DF906A
:104FF000CF90BF90AF907F906F905F904F9008954B
:105000000E94CE3420916C0430916D04281739072A
:10501000B9F490912A0480912B04981789F0E091BB
:105020002A04F0E0E45DFB4F808120912A0430E007
:105030002F5F3F4F2F73332720932A0490E008956A
:105040008FEF9FEF08951F93CF93DF93DC015C9662
:105050008D919C915D97009749F481E090E01396C3
:105060009C938E93129780E090E03BC05196ED9117
:10507000FC91529750962C915097322F30951FB734
:105080005E964C915E9741FB772770F941FD6095E4
:10509000F8944081772311F0422B01C043234083D1
:1050A000EC012197F1F748E0508160FF02C0522BDC
:1050B00001C053235083EC012197F1F766954150CD
:1050C00099F78081772311F0832301C0822B80839D
:1050D0001FBF5C968D919C915D970197F1F781E0E0
:1050E00090E0DF91CF911F91089520916C04309151
:1050F0006D042817390781F490912A0480912B04BC
:10510000981751F0E0912A04F0E0E45DFB4F8081B4
:10511000992787FD909508958FEF9FEF089520912F
:105120006C0430916D042817390771F480912B04B9
:1051300020912A0490E0805C9F4F821B910960E4DB
:1051400070E00E94822F089580E090E00895209101
:105150006C0430916D042817390739F48FB7F8942F
:1051600010922B0410922A048FBF0895E0916C04D2
:10517000F0916D04E817F90769F4A389B4899C914B
:105180008589809589238C9310926D0410926C040C
:1051900081E0089580E00895CF93DF93EC018A8D3C
:1051A0009B8D892BF1F080916C0490916D048C178C
:1051B0009D07B9F0009711F00E94B6288E8D8E7F62
:1051C0008E8F10922B0410922A04D0936D04C093FA
:1051D0006C04EB89FC8980819D89892B808381E027
:1051E00001C080E0DF91CF9108951F920F920FB61A
:1051F0000F9211242F933F934F935F936F937F935D
:105200008F939F93AF93BF93EF93FF93E0916C04C1
:10521000F0916D04309709F451C0868DA685B7854D
:10522000958581FF04C08C91892329F447C08C9116
:10523000892309F043C0A389B4899C91858980950D
:1052400089238C93868997890197F1F7208D318D79
:10525000A685B785758558E040E0C9010197F1F74B
:10526000842F90E095958795482F6C91672309F0DE
:105270004068515091F7868D81FD409580912B04B7
:1052800090E001968F73992720912A04281749F0FE
:10529000A0912B04B0E0A45DBB4F4C9380932B04F2
:1052A00003C0868D8160868F828D938D0197F1F783
:1052B000A389B4898C919589892B8C93FF91EF9167
:1052C000BF91AF919F918F917F916F915F914F911E
:1052D0003F912F910F900FBE0F901F9018951F9325
:1052E000CF93DF93EC01162F6E8D6695617081E090
:1052F0006827812F0E94272F61E0812F0E94EE2EC8
:10530000812F90E0FC01E65EFE4FE491E88BFC010A
:10531000E25DFE4FE491F0E0EE0FFF1FE45BFE4F15
:10532000859194919A8B898BDF91CF911F910895EC
:105330001F93CF93DF93EC01162F60E0812F0E9423
:10534000EE2E8E8D81FD04C061E0812F0E94272FFB
:105350001C87812F90E0FC01E65EFE4FE491ED8713
:10536000FC01E25DFE4FE491F0E0EE0FFF1FEE5B0B
:10537000FE4F859194919F878E87DF91CF911F91EA
:105380000895FF920F931F93CF93DF93EC01F62EB6
:10539000522F1B821A8208EE13E020E030E00C83CB
:1053A0001D832E833F8385E393E0998388831F8A3F
:1053B0001E8A198E188E1B8E1A8E1D8E1C8E8E8D37
:1053C0008E7F50FB81F98E8F642FCE010E946F2952
:1053D0006F2DCE01DF91CF911F910F91FF900C9413
:1053E0009829CF93DF93EC019A01AB011B8E1A8EA3
:1053F000198E188E1F8A1E8A60E079E08DE390E096
:105400000E94B82FC9012430310520F0B901635042
:10541000710902C061E070E07D8F6C8FEC85E63130
:1054200008F068C0B901769567956431710518F088
:105430006351710902C061E070E07F8B6E8B06974B
:1054400018F0C901059702C081E090E0998F888F1C
:10545000C901880F991F820F931F9695879596957E
:1054600087958D30910510F00C9702C081E090E097
:105470009B8F8A8F20916800E83050F091E0EE30E9
:1054800008F490E081E001C0880F9A95EAF701C026
:1054900084E0822B809368002C85283038F02E30F1
:1054A00040F0263148F48CE690E008C08DE690E0AC
:1054B00005C08BE690E002C080E090E09C8B8B8B77
:1054C000283030F481E001C0880F2A95EAF70DC03A
:1054D000822F90E02E3010F4089701C00E9791E0D3
:1054E00001C0990F8A95EAF7892F8D8B8C8D9D8D40
:1054F0000197F1F7CE01DF91CF910C94CC288091E8
:105500009E0490E020919F04821B910908952091B0
:105510009F0480919E04281750F4E22FF0E0E0569B
:10552000FB4F808190E02F5F20939F0408958FEFC1
:105530009FEF0895E0919F0480919E04E81730F456
:10554000F0E0E056FB4F808190E008958FEF9FEFF1
:1055500008950895CF92DF92EF92FF920F931F93D9
:10556000CF93DF937C01CB018A0120917A0422231F
:1055700089F0EB016B01C40ED51ECC15DD0569F079
:105580006991D701ED91FC910190F081E02DC70167
:105590000995F3CF642F0E94092CC801DF91CF91A8
:1055A0001F910F91FF90EF90DF90CF900895CF93D0
:1055B000DF931F92CDB7DEB7698320917A0422234F
:1055C000D1F020917B04203240F021E030E0FC015A
:1055D0003383228380E090E015C080917C04E82F23
:1055E000F0E0E358FB4F998190838F5F80937C04B8
:1055F00080937B0405C061E0CE0101960E94092CD6
:1056000081E090E00F90DF91CF910895FC0113822B
:10561000128248EE53E060E070E044835583668375
:10562000778385E493E091838083089510929F04AB
:1056300010929E0410927C0410927B040C94542BC4
:10564000862F413208F040E260EA74E00E94722B3B
:1056500010929F0480939E04089521E00C94202BC7
:1056600081E080937A0460939D0410927C041092F0
:105670007B0408950F93062F21E040917B046DE792
:1056800074E080919D040E94B62B10927C041092CD
:105690007B0410927A040F91089561E00C943A2BE8
:1056A0008EE694E00C94062B10922D0581E08093F9
:1056B0002B0510922A0561E082E10E94272F61E00C
:1056C00083E10E94272FE9EBF0E080818E7F8083C9
:1056D00080818D7F808388E48093B80085E4809307
:1056E000BC000895413208F03FC090912D05911102
:1056F000FCCF91E090932D0520932B052FEF209365
:10570000C00410920505240F2093040590932C05E6
:1057100090912C05880F892B80932C0580912A0568
:10572000813041F410922A0580912C058093BB00B2
:1057300085EC01C085EE8093BC0080912D05813001
:10574000E1F380910505841710F44091050526E0EA
:1057500035E0FB01D9018A2F821B841718F48D9143
:105760008193F9CF842F089580E008950F934132FB
:1057700008F046C090912D059111FCCF92E09093D6
:105780002D0500932B059FEF9093C0041092050503
:1057900040930405FB0166E075E0DB019A2F961B40
:1057A000941718F491919D93F9CF10922C05909134
:1057B0002C05880F892B80932C0580912A05813038
:1057C00041F410922A0580912C058093BB0085EC52
:1057D00001C085EE8093BC00222321F080912D052D
:1057E0008230E1F38091C0048F3F61F08091C0046A
:1057F000803251F08091C004803341F483E007C0CF
:1058000081E005C080E003C082E001C084E00F9128
:105810000895613298F420912D05243089F4609325
:10582000E204FC0184EE94E0DC012A2F281B2617F9
:1058300018F421912D93F9CF80E0089581E0089527
:1058400082E0089585ED8093BC008091BC0084FDCA
:10585000FCCF10922D05089585EC8093BC0010922A
:105860002D0508951F920F920FB60F9211242F93BA
:105870003F934F935F936F937F938F939F93AF93D8
:10588000BF93EF93FF938091B900887F803609F42E
:105890009CC068F5883209F45BC090F4803109F44B
:1058A00054C038F4882309F4F5C0883009F44DC099
:1058B000F5C0883109F44CC0803209F45DC0EEC0F7
:1058C000803409F468C048F4803309F455C0883343
:1058D00009F0E4C08093C004A8C0803509F44FC02B
:1058E000883509F45DC0883409F0D8C0D5C088393E
:1058F00009F4C6C0A8F4883709F467C038F48836BC
:1059000009F463C0803709F460C0C8C0883809F45E
:10591000B7C0803909F45FC0803809F0BFC05BC0F0
:10592000803B09F485C038F4803A09F466C0883AAF
:1059300009F47EC0B3C0803C09F4A6C0883C09F4D9
:10594000A3C0883B09F489C0A9C080912C0510C070
:105950009091050580910405981770F5E091050573
:1059600081E08E0F80930505F0E0EA5FFA4F8081B9
:105970008093BB0085EC85C08093C0048DC0E0910E
:10598000050581E08E0F809305058091BB00F0E056
:10599000EA5FFA4F808390910505809104056DC000
:1059A000E091050581E08E0F809305058091BB0095
:1059B000F0E0EA5FFA4F808380912B0581116CC083
:1059C00081E080932A0584EA60C083E080932D05FE
:1059D0001092C104CFCF8091C104803208F050C032
:1059E000E091C10481E08E0F8093C1048091BB00DF
:1059F000F0E0EE53FB4F8083BDCF8091C104803235
:105A000030F4E091C104F0E0EE53FB4F10820E94AD
:105A1000222C6091C10470E0E0912605F0912705E9
:105A200082EC94E009951092C1040E942C2C36C09F
:105A300084E080932D051092E3041092E204E0913B
:105A40002805F091290509958091E204811105C08E
:105A500081E08093E2041092E404E091E30481E0A9
:105A60008E0F8093E304F0E0EC51FB4F8081809334
:105A7000BB009091E3048091E204981708F47ACF78
:105A800085E88093BC000AC085EC8093BC0010922E
:105A90002D0504C01092C0040E94222CFF91EF91AA
:105AA000BF91AF919F918F917F916F915F914F9136
:105AB0003F912F910F900FBE0F901F9018950C944F
:105AC000A7330C943F341F920F920FB60F921124FC
:105AD0002F933F938F939F93AF93BF9380912F0505
