:100000000C94B2000C94DA000C94DA000C946B227D
:100010000C946B220C946B220C94DA000C94DA0092
:100020000C94DA000C94DA000C94DA000C94DA00E8
:100030000C94DA000C94DA000C94DA000C94DA00D8
:100040000C94D9260C94DA000C945C1E0C948E1E31
:100050000C94DA000C94DA000C94DA000C94DA00B8
:100060000C94A8250C94DA00A318B618C618D91851
:10007000E1180D1915191D1925192C192C192C19F0
:100080002C192C192C192C192C192C192C192C1948
:100090002C192C192C192C192C192C192C192C1938
:1000A0002C192C192C192C19A318AF18B618C6180E
:1000B000D918E118F418FC180419084AD73B3BCEAC
:1000C000016E84BCBFFDC12F3D6C74319ABD568357
:1000D0003DDA3D00C77F11BED9E4BB4C3E916BAA0F
:1000E000AABE000000803F05A84CCDB2D44EB9385E
:1000F00036A9020C50B9918688083CA6AAAA2ABE45
:10010000000000803F000000000800020100000322
:100110000407000000000000000001020408102095
:100120004080010204081020010204081020040489
:10013000040404040404020202020202030303038F
:100140000303000000002300260029000000000037
:10015000250028002B0000000000240027002A00B2
:10016000BE1EC62411241FBECFEFD8E0DEBFCDBF18
:1001700013E0A0E0B1E0ECEEFDE502C005900D92C9
:10018000A635B107D9F725E0A6E5B3E001C01D9279
:10019000A932B207E1F711E0C4E6D1E004C022972A
:1001A000FE010E94D429C036D107C9F70E94081D5C
:1001B0000C94F42E0C94000026E531E0FC01318310
:1001C0002083089526E531E0FC01318320830895E2
:1001D00026E531E0FC01318320830C94D72626E507
:1001E00031E0FC01318320830C94D7260F931F93B9
:1001F000CF93DF93EC0182E691E0998388837D833E
:100200006C8388E090E00E94D5268C010E94A410A7
:100210001B830A83C8010E94D61063E08A819B81F8
:100220000E94A81062E08A819B810E94BE1065E056
:100230008A819B810E94B31060E08A819B810E9429
:10024000C710188A198A1A8A1B8A1C861D861E8660
:100250001F86DF91CF911F910F910895CF92DF926A
:10026000EF92FF92CF93DF93EC019C01265F3F4F0B
:10027000AC01485F5F4FBC016A5F7F4F8A819B8101
:100280000E94E8106E817F81882777FD8095982FE6
:100290000E94632B26EF38E24CE95FE30E94D82CE2
:1002A00027ED33EA40E75FE30E94D82C20E030E0FE
:1002B00048EB50E40E94FB296B017C01688579853D
:1002C000882777FD8095982F0E94632B26EF38E2D0
:1002D0004CE95FE30E94D82C2BE734E14EE65FE364
:1002E0000E94D82C28EB3EE146E052E40E94FB2914
:1002F000A70196010E946E2A6B017C016C897D89A1
:100300008E899F890E947A029B01AC01C701B601C8
:100310000E94FB296B017C0120E030E0A9010E94D2
:10032000C12A87FF0AC02BED3FE049EC50E4C7012A
:10033000B6010E94FB296B017C01C701B6010E9436
:1003400081022C813D812115310539F0AB01BC01C1
:10035000C9010E940B089B0101C09B01A901BC01BE
:100360004C875D876E877F87DF91CF91FF90EF90FD
:10037000DF90CF900895FC01448B558B668B778B73
:100380000895FC01408B518B628B738B0895CF9243
:10039000DF92EF92FF92FC012485358546855785D3
:1003A00060897189828993890E94FA296B017C0195
:1003B00020E030E044E353EC0E94C12A87FF09C0EB
:1003C00020E030E044EB53E4C701B6010E94FB2972
:1003D00012C020E030E044E353E4C701B6010E94BC
:1003E000CD2C181654F420E030E044EB53E4C70160
:1003F000B6010E94FA296B017C01C701B601FF908A
:10040000EF90DF90CF900895CF93DF93EC016DE0F4
:1004100071E08BE793E00E943F1F4C855D856E8500
:100420007F8522E030E08BE793E00E941B2168E1AA
:1004300071E08BE793E00E943F1F488959896A89E0
:100440007B8922E030E08BE793E00E941B216BE286
:1004500071E08BE793E00E943F1FCE010E94C7012D
:10046000AB01BC0122E030E08BE793E0DF91CF915C
:100470000C941D21CF92DF92EF92FF920F931F9366
:10048000CF93DF936C01EB0120E431E040E050E0DA
:1004900060E070E0CE010E94AD06C6010E94C70177
:1004A0008B019C0184E0E82EF12C40E050E068E0F4
:1004B00070E0CE010E94C80629E431E041E050E03E
:1004C00060E070E0CE010E94AD06F601048515855E
:1004D0002685378541E050E068E070E0CE010E945B
:1004E000C806DF91CF911F910F91FF90EF90DF90A1
:1004F000CF90089525E33AEF4EE85CE30E94D82CB4
:10050000089520EE3EE245E652E40E94D82C08957C
:1005100026E531E0FC0131832083089526E531E0B2
:10052000FC01318320830C94D7260F931F93CF9324
:10053000DF93EC0185EB91E09983888383E790E07A
:100540000E94D5268C010E942E161B830A838FE100
:1005500090E00E94D5268C0120E04BE06AE00E94EA
:1005600037231D830C8340E855E260E070E0C8014A
:100570000E9467234091F5025091F6026091F702C4
:100580007091F8024E835F83688779874A875B871B
:100590006C877D870091F1021091F2022091F302A5
:1005A0003091F4020A8B1B8B2C8B3D8B4E8B5F8B17
:1005B000688F798F4A8F5B8F6C8F7D8FDF91CF91A2
:1005C0001F910F910895CF93DF93EC018C819D8152
:1005D000DC01ED91FC910480F581E02D0995892BDA
:1005E00071F18C819D81DC01ED91FC910680F78198
:1005F000E02D0995682F8A819B810E9435198C8195
:100600009D81DC01ED91FC910480F581E02D09953F
:10061000892B39F79E01225F3F4FAE01465F5F4F46
:10062000BE016A5F7F4F8A819B810E940B1A8A817B
:100630009B810E94781A6A8B7B8B8C8B9D8BDF91C0
:10064000CF910895FC016681778180859185089519
:10065000FC0162857385848595850895CF92DF922C
:10066000EF92FF921F93CF93DF93EC01C090F502BE
:10067000D090F602E090F702F090F802A701960100
:100680006E817F81888599850E94C12A882371F0B7
:1006900011E0A70196016A857B858C859D850E9466
:1006A000C12A811101C010E0812F01C080E0DF91DB
:1006B000CF911F91FF90EF90DF90CF900895CF934F
:1006C000DF93EC010E942E03882391F16AE671E02A
:1006D0008BE793E00E943F1F4E815F81688579859B
:1006E0002FE030E08BE793E00E941B2161E771E08F
:1006F0008BE793E00E943F1F4A855B856C857D8573
:100700002FE030E08BE793E00E941B216BE771E064
:100710008BE793E00E943F1F4E855F85688979894A
:100720002AE030E08BE793E0DF91CF910C941E201C
:1007300065E871E08BE793E0DF91CF910C945C1F4B
:100740004F925F926F927F928F929F92AF92BF92E1
:10075000CF92DF92EF92FF920F931F93CF93DF938D
:10076000CDB7DEB760970FB6F894DEBF0FBECDBF32
:100770002A013B010D831E832F833887CB01BA01E9
:100780000E947A0269837A838B839C83C701B601B6
:100790000E947A0269877A878B879C87A3019201DE
:1007A000C701B6010E94FA290E947A026B017C01FE
:1007B0002D813E814F815885C501B4010E94FA29DF
:1007C0000E947A026D837E838F83988720E030E0D9
:1007D00040E05FE3C701B6010E94D82C0E943B2D88
:1007E0006B017C0169817A818B819C810E94C52A81
:1007F0002B013C0169857A858B859C850E94C52AE1
:1008000069837A838B839C8320E030E040E05FE360
:100810006D817E818F8198850E94D82C0E943B2D0E
:100820004B015C01A7019601C701B6010E94D82CBB
:100830006B017C0129813A814B815C81C301B2014A
:100840000E94D82C2B013C01A5019401C501B401E3
:100850000E94D82C9B01AC01C301B2010E94D82C8C
:100860009B01AC01C701B6010E94FB296B017C0111
:100870009B01AC0160E070E080E89FE30E94FA29F0
:100880000E94452D9B01AC01C701B6012D873E8713
:100890004F87588B0E94452D2D853E854F85588961
:1008A0000E946E2A9B01AC010E94FB2920E73DE6D5
:1008B00042EC5AE40E94D82C60960FB6F894DEBF42
:1008C0000FBECDBFDF91CF911F910F91FF90EF90A1
:1008D000DF90CF90BF90AF909F908F907F906F9060
:1008E0005F904F9008958F929F92AF92BF92CF9258
:1008F000DF92EF92FF920F931F93CF93DF93EC0160
:100900006A017B01480159010E942E03882361F08E
:100910000A851B852C853D854E815F81688579859B
:10092000CE010E94A00304C060E070E080E89FEB6D
:10093000DF91CF911F910F91FF90EF90DF90CF90BB
:10094000BF90AF909F908F900895AF92BF92CF923B
:10095000DF92EF92FF920F931F93CF93DF935C018F
:10096000EB010E942E03882309F4A4C0C090F50275
:10097000D090F602E090F702F090F802A7019601FD
:10098000F50166897789808D918D0E94C12A88231F
:1009900009F458C0A7019601F501628D738D848D0D
:1009A000958D0E94C12A882309F44CC02BE931E0BF
:1009B00040E050E060E070E0CE010E94AD06F5013D
:1009C000068117812085318593E0E92EF12C40E0E6
:1009D00050E064E070E0CE010E94C80620EA31E0F9
:1009E00040E050E068E070E0CE010E94AD06F50105
:1009F000028513852485358540E050E06BE070E08A
:100A0000CE010E94C80625EA31E041E050E060E0F6
:100A100070E0CE010E94AD06F501028D138D248D8C
:100A2000358D46895789608D718DC5010E9473048B
:100A30008B019C014FE0E42EF12C41E050E063E09B
:100A400070E02AC02BE931E040E050E060E070E067
:100A5000CE010E94AD06F501068117812085318502
:100A60008FE0E82EF12C40E050E064E070E0CE0131
:100A70000E94C80620EA31E041E050E060E070E00A
:100A8000CE010E94AD06F5010285138524853585CA
:100A900041E050E064E070E0CE010E94C806DF91C2
:100AA000CF911F910F91FF90EF90DF90CF90BF906B
:100AB000AF90089528EA31E040E050E060E070E057
:100AC000CE010E94AD062FE831E041E050E060E049
:100AD00070E0CE01DF91CF911F910F91FF90EF90C9
:100AE000DF90CF90BF90AF900C94AD064F925F9285
:100AF0006F927F928F929F92AF92BF92CF92DF922E
:100B0000EF92FF920F931F93CF93DF93CDB7DEB792
:100B100060970FB6F894DEBF0FBECDBF09831A836E
:100B20002B833C83CB01BA010E947A022B013C014A
:100B3000C701B6010E947A026B017C0129813A81CA
:100B40004B815C81C501B4010E94FA290E947A029E
:100B50004B015C010E943B2D6D837E838F839887C0
:100B6000C701B6010E94C52A69837A838B839C835F
:100B7000C301B2010E94C52A69877A878B879C8747
:100B8000C701B6010E943B2D9B01AC01C301B2011C
:100B90002D873E874F87588B0E943B2D6B017C0130
:100BA000C501B4010E94C52A2B013C012D853E855B
:100BB0004F85588969857A858B859C850E94D82CBC
:100BC0004B015C0129813A814B815C81C701B601EF
:100BD0000E94D82CA30192010E94D82C9B01AC0149
:100BE000C501B4010E94FA296B017C0129813A8177
:100BF0004B815C816D817E818F8198850E94D82C8C
:100C0000A70196010E946E2A0E94810220E030E036
:100C100044EB53E40E94FB2920E030E044EB53E432
:100C200060960FB6F894DEBF0FBECDBFDF91CF91B7
:100C30001F910F91FF90EF90DF90CF90BF90AF90FA
:100C40009F908F907F906F905F904F900C94A52B0A
:100C50008F929F92AF92BF92CF92DF92EF92FF92CC
:100C60000F931F93CF93DF93EC016A017B0148013F
:100C700059010E942E03882361F00A851B852C856B
:100C80003D854E815F8168857985CE010E9476051C
:100C900004C060E070E080E89FEBDF91CF911F918E
:100CA0000F91FF90EF90DF90CF90BF90AF909F900B
:100CB0008F9008956F927F928F92AF92CF92EF9222
:100CC0000F93CF93DF93EC0189E190E00E94D5264A
:100CD0003C0187E0882E96E0A92E25E0C22E34E064
:100CE000E32E00E021E042E067E2C3010E94611CC4
:100CF00079826882D301ED91FC910480F581E02D29
:100D000020E042E064E1C301099588819981DC011A
:100D1000ED91FC910680F781E02D40E050E063E02A
:100D2000099588819981DC01ED91FC910084F18520
:100D3000E02D61E0099588819981DF91CF910F9134
:100D4000EF90CF90AF908F907F906F900C94141B8A
:100D5000FC01808191810C940D1B0F931F93CF9305
:100D6000DF93EC0189014230510568F48881998153
:100D70000E941B1BB80188819981DF91CF911F913F
:100D80000F910C943F1FDF91CF911F910F91089508
:100D90008F929F92AF92BF92EF92FF920F931F9309
:100DA000CF93DF93EC014801590142305105A8F47B
:100DB000888199810E941B1B9701B501A40188813C
:100DC0009981DF91CF911F910F91FF90EF90BF908C
:100DD000AF909F908F900C941B21DF91CF911F912A
:100DE0000F91FF90EF90BF90AF909F908F900895DC
:100DF000CF92DF92EF92FF920F931F93CF93DF93E7
:100E0000EC017B018A011982188288E090E09B83C3
:100E10008A831D821C8280E190E00E94D5266C01AD
:100E20008883D982FA86E9860C171D0709F482C0E7
:100E3000D80114968D919C9115974A815B81481732
:100E4000590720F59B838A83880F991F0E94D52616
:100E5000998388834C815D81F60120E030E024177E
:100E6000350789F0A881B981B901660F771FA60FF0
:100E7000B71F109721F0608171816D937C932F5F74
:100E80003F4F3296ECCFC6010E94D7268C819D81C0
:100E9000F80144815581BA018417950708F4BC0113
:100EA00020E030E02617370799F06901CC0CDD1CF3
:100EB000D801ED91FC91EC0DFD1DE080F180E88101
:100EC000F981EC0DFD1DF182E0822F5F3F4FEACFEB
:100ED0008417950758F0F801848195812C813D8114
:100EE0008217930738F59D838C8324C09C01220FC1
:100EF000331FD80114964D915C911597841795076F
:100F000050F7F801A081B181A20FB31FE881F981E8
:100F1000E20FF31F309721F04D915C915183408394
:100F20004C815D814F5F5F4F5D834C8301962E5FE7
:100F30003F4FDFCF18861F82DF91CF911F910F9116
:100F4000FF90EF90DF90CF9008950F931F93CF9372
:100F5000DF93EC0189859A85009711F10E94A8061C
:100F60000F8118858C819D810817190720F08DEB62
:100F700091E00E94FD1C000F111FE881F981E00F34
:100F8000F11F80819181DC01ED91FC9169857A8569
:100F90000680F781E02DDF91CF911F910F91099489
:100FA000DF91CF911F910F910895FC01878190856A
:100FB0000196648175810E946929908787830895CD
:100FC0000F931F93CF93DF938C016FEC71E08BE74E
:100FD00093E00E945C1FC0E0D0E0F801848195811D
:100FE000C817D90798F4CE01880F991FD801ED9141
:100FF000FC91E80FF91F80819181DC01ED91FC915A
:101000000480F581E02D09952196E7CFDF91CF91FE
:101010001F910F9108958F929F92AF92BF92CF929E
:10102000DF92EF92FF92CF93DF93EC01CB01BA01F5
:10103000688B798B8A8B9B8BC880D980EA80FB80F8
:10104000A70196010E94D82C4B015C01A7019601D3
:1010500060E070E080E89FE30E94FA292C853D85DE
:101060004E855F850E94D82C9B01AC01C501B4015F
:101070000E94FB296C877D878E879F87DF91CF91A8
:10108000FF90EF90DF90CF90BF90AF909F908F90A8
:101090000895AF92BF92CF92DF92EF92FF920F939B
:1010A0001F93CF93DF931F92CDB7DEB75C018B0107
:1010B00077FF02C000E010E060E0F5018481498321
:1010C0000E949D2861E0F50186810E949D2861E0D3
:1010D000F50182850E949D2860E0F50184850E94CB
:1010E0009D284981442391F06FEF70E0F5018281E2
:1010F0000E94DC276FEF70E0F50180850E94DC27FD
:1011000064E670E080E090E00E945227B8018827F2
:1011100077FD8095982F0E94632B6B017C01F50170
:1011200026853785408951890E94D82C0E94302B12
:10113000F50182810E94DC27F501228933894489E7
:101140005589C701B6010E94D82C0E94302BF501A9
:1011500080850E94DC2788279927801B910BF50149
:10116000978B868B118F008F0F90DF91CF911F91FE
:101170000F91FF90EF90DF90CF90BF90AF900895C8
:10118000CF93DF93EC0160E08C810E949D2860E0AA
:101190008E810E949D2860E08A850E949D2860E0E3
:1011A0008C850E949D2861E08A810E949D2861E0D3
:1011B00088850E949D281F8A1E8A198E188EDF91AD
:1011C000CF91089526E531E0FC0131832083089515
:1011D00026E531E0FC01318320830C94D7260F9360
:1011E0001F93CF93DF93EC016CE172E08BE793E008
:1011F0000E943F1F8E010E5F1F4FC8010E941C16E8
:10120000AB01BC0122E030E08BE793E00E941B21A0
:1012100062E272E08BE793E00E943F1FC8010E94E8
:101220002216AB01BC0122E030E08BE793E00E9484
:101230001B216AE272E08BE793E00E943F1FC80126
:101240000E942816AB01BC0122E030E08BE793E05E
:101250000E941B2162E372E08BE793E00E943F1F34
:10126000EF96488159816A817B8122E030E08BE7EB
:1012700093E0DF91CF911F910F910C941D21AF92BC
:10128000BF92CF92DF92EF92FF920F931F93CF9373
:10129000DF936C01EB012FE332E040E050E060E0CF
:1012A00070E0CE010E94AD06560182E0A80EB11C8E
:1012B000C5010E941C168B019C0182E0E82EF12CD6
:1012C00040E050E063E070E0CE010E94C80623E4F5
:1012D00032E040E050E069E070E0CE010E94AD06EF
:1012E000C5010E9422168B019C0140E050E06CE099
:1012F00070E0CE010E94C80627E432E041E050E0F1
:1013000060E070E0CE010E94AD06C5010E94281683
:101310008B019C0141E050E063E070E0CE010E944F
:10132000C8062BE432E041E050E069E070E0CE0115
:101330000E94AD06F601FF96008111812281338162
:1013400041E050E06BE070E0CE010E94C806DF9102
:10135000CF911F910F91FF90EF90DF90CF90BF90B2
:10136000AF9008956F927F928F929F92AF92BF92AB
:10137000CF92DF92EF92FF920F931F93CF93DF9361
:10138000EC013C0183E4680E711C4E01EFE38E0E0C
:10139000911CCE01CB961F921F92FF92EF92DF928B
:1013A000CF92580169017A018B019301A401BC011C
:1013B000C9970E94AF1582E592E099838883F30173
:1013C00010821182128213821BAE1CAE1DAE1EAEA5
:1013D000F40110821182128213820F900F900F90ED
:1013E0000F900F900F90DF91CF911F910F91FF9071
:1013F000EF90DF90CF90BF90AF909F908F907F90B5
:101400006F900895FC0143AF54AF65AF76AF089578
:101410000F93FC01718360834283238304831582CD
:1014200016821782108644EC59E060E070E0418734
:10143000528763877487158616861786108A44E656
:1014400050E060E070E0418B528B638B748B158AA7
:10145000168A178A108E44EF51E060E070E0418FE9
:10146000528F638F748F0F9108952F923F924F92F6
:101470005F926F927F928F929F92AF92BF92CF9224
:10148000DF92EF92FF920F931F93CF93DF9300D0E1
:1014900000D000D0CDB7DEB79E838D83FC01828162
:1014A0000E94BF278C01ED81FE8183810E94BF27AE
:1014B0004C01ED81FE8184810E94BF271C01ED81DA
:1014C000FE81A580B680C780D084B801882777FDCB
:1014D0008095982F24852F9323852F9322852F93F2
:1014E00021852F93EE24EA9413E0F12E00E010E022
:1014F00020E030E0A9010E942F212B013C01ED8169
:10150000FE81A584B684C784D088B401882777FD7E
:101510008095982F24892F9323892F9322892F93A5
:1015200021892F9320E030E0A9010E942F216983B7
:101530007A838B839C83ED81FE81A588B688C788DA
:10154000D08CB101882777FD8095982F248D2F931B
:10155000238D2F93228D2F93218D2F9320E030E028
:10156000A9010E942F210E94632B20E030E048EC6B
:1015700052E40E94C82A6B017C0169817A818B81C7
:101580009C810E94632B20E030E048EC52E40E94F2
:10159000C82A4B015C01C301B2010E94632B20E009
:1015A00030E048EC52E40E94C82AAB01BC01ED8156
:1015B000FE81808191819501840102960E9496139B
:1015C0000FB6F894DEBF0FBECDBF26960FB6F894C7
:1015D000DEBF0FBECDBFDF91CF911F910F91FF9066
:1015E000EF90DF90CF90BF90AF909F908F907F90C3
:1015F0006F905F904F903F902F900895FC018785EA
:1016000090890C94D507CF93DF93EC018F81988557
:101610000E94350A8F8598890E94E0078F859889F6
:10162000DF91CF910C94A5070F931F93CF93DF9376
:10163000EC0103ED1BE425E931E446EC5FEC65E3E6
:1016400072E48B819C810E942806AB01BC018B85D2
:101650009C85DF91CF911F910F910C94C101CF9385
:10166000DF93EC018B859C850E94C701AB01BC0117
:1016700089859A850E94020A89859A850296DF915A
:10168000CF910C947612CF92DF92EF92FF92CF938C
:10169000DF93EC01C988DA88EB88FC888B819C8118
:1016A0000E9422039B01AC01C701B6010E94C12A1E
:1016B000811110C0CD88DE88EF88F88C8B819C81E9
:1016C0000E9428039B01AC01C701B6010E94C12AF8
:1016D000882389F08B819C810E942203698B7A8BFD
:1016E0008B8B9C8B8B819C810E9428036D8B7E8BC6
:1016F0008F8B988F81E0DF91CF91FF90EF90DF90FB
:10170000CF9008950F931F9303ED1BE425E931E477
:1017100046EC5FEC65E372E4FC01838194810E94F6
:10172000730420E030E040E85FE30E94C12A881F94
:101730008827881F1F910F910895CF93DF93EC01A5
:1017400081E0888340E06FEF70E08D819E810E9490
:10175000490860EA7FE080E090E00E9452278D8196
:101760009E81DF91CF910C94C008CF93DF93EC0161
:101770008D859E850E94DD0E8B819C810E942E03AB
:101780008823D9F08B859C850E942E01CE010E9472
:10179000430B882369F0CE010E94820B882329F035
:1017A000CE01DF91CF910C949D0BCE010E94140BC2
:1017B000CE01DF91CF910C942F0BDF91CF91089543
:1017C000CF92DF92EF92FF92CF93DF93EC0188816B
:1017D000811168C00E942327CD8CDE8CEF8CF8A08D
:1017E0009B01AC012C193D094E095F0969017A0181
:1017F00032E3C316D104E104F10438F06D8F7E8F1B
:101800008F8F98A3CE010E94B50B0E9423276B01F6
:101810007C018D8D9E8DAF8DB8A1A7019601281BEF
:10182000390B4A0B5B0B2531310541055105D0F5CC
:101830008B819C810E94E302898D9A8DAB8DBC8D3A
:10184000A7019601281B390B4A0B5B0BDA01C90172
:10185000883E9340A105B10538F0C98EDA8EEB8E33
:10186000FC8ECE010E94030B89A19AA1ABA1BCA161
:10187000A7019601281B390B4A0B5B0BDA01C90142
:1018800088389341A105B10568F0C9A2DAA2EBA29C
:10189000FCA2CE01DF91CF91FF90EF90DF90CF902F
:1018A0000C94FE0ADF91CF91FF90EF90DF90CF90E4
:1018B0000895CF92DF92EF92FF920F931F93CF93F1
:1018C000DF93EC018B017A018C819D81861797074C
:1018D00008F049C08A819B818617970768F59B01AC
:1018E000285F3F4F8217930738F5C880D9803B8324
:1018F0002A83C901880F991F0E94D526998388835E
:101900004C815D81F60120E030E02417350789F035
:10191000A881B981B901660F771FA60FB71F10976D
:1019200021F0608171816D937C932F5F3F4F3296E0
:10193000ECCFC6010E94D7268C819D819C01220F8D
:10194000331F8017910790F4E881F981E20FF31FAC
:10195000309729F0D7014D915C91518340830196D6
:101960002E5F3F4FEECF6817790710F41D830C836D
:10197000DF91CF911F910F91FF90EF90DF90CF906B
:1019800008956F927F928F929F92AF92BF92CF9263
:10199000DF92EF92FF920F931F93CF93DF93CDB718
:1019A000DEB72E970FB6F894DEBF0FBECDBF4C0149
:1019B00026E040E855E260E070E08BE793E00E94AB
:1019C000FA1D6AE572E08BE793E00E945C1F64E613
:1019D00070E080E090E00E94522788E190E00E9451
:1019E000D5268C0160E070E00E94F600F4011487B7
:1019F00003874DED5DED65E870E4C8010E94BB0111
:101A000085E190E00E94D5268C010E94690FF401C7
:101A1000168705878EE190E00E94D5268C010E94F2
:101A20009502F4011483038346EC5FEC65E372E4F2
:101A3000F801468B578B608F718F43ED5BE465E94E
:101A400071E4428F538F648F758F87E490E00E941A
:101A5000D5263C01A12CB12CEFE8CE2EE2ECDE2EF7
:101A6000E5EFEE2EEDE3FE2E0AE017ED23E23CE378
:101A700040E050E060E771E40E94B209F401728630
:101A8000618661E070E0C30102960E945D15F40179
:101A90008185928500E010E02FE733E440E050E0DC
:101AA0006FE773EC02960E949714F401818592858A
:101AB00062E370E002960E9449148DE190E00E947A
:101AC000D5263C01F401618572850FE024E145E1F2
:101AD0000E94080AF4017086678282E090E00E940A
:101AE000D5268C010E945A06F401128301831986BF
:101AF000188688E090E09B878A871D861C8680E197
:101B000090E00E94D52699878887F401858596857F
:101B1000009769F09A8389836C857D856F5F7F4F1D
:101B2000AE014F5F5F4FCE0108960E94590CF40141
:101B300081859285009769F09A8389836C857D857C
:101B40006F5F7F4FAE014F5F5F4FCE0108960E94DF
:101B5000590C8C859D859E838D8308969C838B83F1
:101B6000880F991F0E94D5269A8389834D815E81B3
:101B700080E090E08417950799F0A885B9859C01CD
:101B8000220F331FA20FB31FE981FA81E20FF31F67
:101B9000309721F02D913C91318320830196EACF3B
:101BA0008BE090E00E94D5268C01F4016181728166
:101BB000AE014F5F5F4F0E94F806F401108B07875C
:101BC00089819A810E94D726888599850E94D72687
:101BD0002E960FB6F894DEBF0FBECDBFDF91CF912A
:101BE0001F910F91FF90EF90DF90CF90BF90AF903B
:101BF0009F908F907F906F900895CF93DF93EC012B
:101C000066E672E08BE793E00E943F1F8A819B812A
:101C10000E949E10AB01BC012AE030E08BE793E00C
:101C20000E9411206BE672E08BE793E00E943F1F59
:101C30008E819F810E949E10AB01BC012AE030E0A2
:101C40008BE793E00E94112064E772E08BE793E05A
:101C50000E943F1F8C819D810E949E10AB01BC01A0
:101C60002AE030E08BE793E00E9411206DE772E0FC
:101C70008BE793E00E943F1F8A859B850E949E1000
:101C8000AB01BC012AE030E08BE793E00E94112019
:101C900065E872E08BE793E00E943F1F8885998595
:101CA0000E949E10AB01BC012AE030E08BE793E07C
:101CB000DF91CF910C941E20CF92DF92EF92FF9292
:101CC0000F931F93CF93DF936C01EB01FC0186818F
:101CD00097810E949E100E94612B8B019C01E12C38
:101CE000F12C40E050E061E070E0CE010E94C806B7
:101CF000F601828193810E949E100E94612B8B01CC
:101D00009C0140E050E067E070E0CE010E94C80610
:101D1000F601848195810E949E100E94612B8B01A7
:101D20009C0140E050E06DE070E0CE010E94C806EA
:101D3000F601828593850E949E100E94612B8B0183
:101D40009C0141E050E061E070E0CE010E94C806D5
:101D5000F601808591850E949E100E94612B8B0167
:101D60009C0141E050E06DE070E0CE010E94C806A9
:101D7000DF91CF911F910F91FF90EF90DF90CF9067
:101D80000895CF93DF93EC0181E992E099838883F2
:101D90008E859F850E94D72686E591E0998388836A
:101DA000DF91CF910895CF93DF93EC010E94C10E94
:101DB000CE01DF91CF910C94D7260F931F93CF9331
:101DC000DF93EC012A893B898C859D850196B901B9
:101DD0000E9469298C019D878C878217930720F0C8
:101DE0008DEB91E00E94FD1C000F111FEE85FF8519
:101DF000E00FF11F80819181DF91CF911F910F91B1
:101E00000C949210CF92DF92EF92FF920F931F9358
:101E1000CF93DF93EC017B018C819D818C010F5F5F
:101E20001F4F8017910708F046C04A815B81401719
:101E3000510750F509964817590730F5C880D980E1
:101E40009B838A83880F991F0E94D5269983888354
:101E50004C815D81F60120E030E02417350789F0E0
:101E6000A881B981B901660F771FA60FB71F109718
:101E700021F0608171816D937C932F5F3F4F32968B
:101E8000ECCFC6010E94D7268C819D819C01220F38
:101E9000331F8017910790F4E881F981E20FF31F57
:101EA000309729F0D7014D915C9151834083019681
:101EB0002E5F3F4FEECF0817190710F41D830C83D8
:101EC000DF91CF911F910F91FF90EF90DF90CF9016
:101ED0000895EF92FF920F931F93CF93DF93EC013E
:101EE00081E992E0998388838E01025F1F4F1F86EC
:101EF0001E8688E090E0998B888B1B8A1A8A80E185
:101F000090E00E94D5269F878E878AE090E00E940D
:101F1000D5267C014CE050E06CE070E00E9440105F
:101F2000FB82EA828AE090E00E94D5267C014EE0A6
:101F300050E06EE070E00E944010FD82EC828AE08A
:101F400090E00E94D5267C014DE050E06DE070E00D
:101F50000E944010FF82EE828AE090E00E94D52627
:101F60007C0148E050E068E070E00E944010F98693
:101F7000E8868AE090E00E94D5267C0149E050E0A6
:101F800069E070E00E944010FB86EA86BE016A5F4D
:101F90007F4FC8010E94020FBE01685F7F4FC801DA
:101FA0000E94020FBE016E5F7F4FC8010E94020FA8
:101FB000BE01665F7F4FC8010E94020FBE016C5FC9
:101FC0007F4FC8010E94020F1D861C86DF91CF91B2
:101FD0001F910F91FF90EF90089526E531E0FC01ED
:101FE00031832083089526E531E0FC01318320838D
:101FF0000C94D726CF93DF93EC0169E972E08BE76D
:1020000093E00E943F1F4E815F81688579852AE0B9
:1020100030E08BE793E00E94112065EA72E08BE7E5
:1020200093E0DF91CF910C945C1FEF92FF920F939E
:102030001F93CF93DF938C01EB0129EA32E040E05C
:1020400050E060E070E0CE010E94AD06F8016681CC
:102050007781808591850E94612B8B019C01EE2404
:10206000E394F12C41E050E060E070E0CE010E948A
:10207000C806DF91CF911F910F91FF90EF900895C7
:10208000FC018BEB92E091838083738362835583A1
:1020900044834FE352E46FE070E0468357836087E8
:1020A00071870895CF93DF93EC0161E08C810E94EA
:1020B000642860E08C810E949D288AE090E00E9464
:1020C0007A2761E08C810E949D2884E190E00E9443
:1020D0007A2760E08C810E949D2860E08A810E94BE
:1020E000642828EB3BE040E050E061E08A810E94F8
:1020F000D3282AE330E040E050E00E949129DA0141
:10210000C9010197A109B109CC97A105B10528F032
:102110006FE372E48FE090E002C0B901CA01DF9181
:10212000CF910895CF93DF93EC010E9452106E83FC
:102130007F8388879987DF91CF910895FC0166811D
:1021400077818085918508952EE1FC012083089593
:102150000F93062F22E046E060E0FC0180810E94A0
:1021600030120F9108950F93062F23E044E060E0B2
:10217000FC0180810E9430120F910895462F4295F4
:10218000440F407E61E0FC0180810C9469111F9333
:10219000CF93DF93EC01162F462F62E088810E94D7
:1021A00069111F83DF91CF911F910895CF93DF9322
:1021B000EC0140E760E088810E94691161E0CE0196
:1021C0000E94BE1061E0CE01DF91CF910C94C71048
:1021D000AF92BF92CF92DF92EF92FF920F931F9335
:1021E000CF93DF93EC017B015A01690100910A0151
:1021F00010910B019C012F5F3F4F46E063E0888107
:102200000E9479118F81813029F441E062E0888158
:102210000E946911898190E0982F88272A81822B5A
:10222000F701918380838D8190E0982F88272E81FC
:10223000822BF501918380838B8190E0982F8827F2
:102240002C81822BF60191838083DF91CF911F91A6
:102250000F91FF90EF90DF90CF90BF90AF900895D7
:10226000EF92FF920F931F93CF93DF9300D0CDB7E0
:10227000DEB7062F142F682F8CE594E029833A836C
:102280000E94A624602F8CE594E00E944D242981B1
:10229000022FE22E3A81F32E8E2D801B811740F4FF
:1022A000F70161917F018CE594E00E944D24F4CF09
:1022B0008CE594E00E94C32491E0811190E0892F85
:1022C0000F900F90DF91CF911F910F91FF90EF90A2
:1022D0000895CF93DF931F92CDB7DEB749839E0158
:1022E0002F5F3F4F41E00E9430110F90DF91CF915F
:1022F00008953F924F925F926F927F928F929F923A
:10230000AF92BF92CF92DF92EF92FF920F931F9303
:10231000CF93DF9300D000D000D0CDB7DEB7682ECA
:10232000562E742E3A8329830E9423276B017C0149
:10233000312C412C872D90E09C838B834801A12C6C
:10234000B12C3714B0F5662D8CE594E00E94A624DC
:10235000652D8CE594E00E944D248CE594E00E946C
:10236000C324662D8CE594E00E94A6244B815C81F9
:10237000431951094132510514F040E250E0662DF5
:102380008CE594E00E94A3248CE594E00E94F52360
:10239000892B59F10115110579F10E9423276C1938
:1023A0007D098E099F09681579058A059B0520F12D
:1023B0001CC00115110589F10E9423276C197D09A4
:1023C0008E099F0920E030E06017710782079307AC
:1023D00020F1872D90E0242D332727FD30952817F5
:1023E0003907DCF444244A9418C0872D90E29715ED
:1023F00008F480E2380EA5CFE981FA81E40DF11DE1
:1024000047FCFA95FE83ED838CE594E00E94FD2362
:10241000ED81FE8180834394B7CF842D26960FB63D
:10242000F894DEBF0FBECDBFDF91CF911F910F910A
:10243000FF90EF90DF90CF90BF90AF909F908F90E4
:102440007F906F905F904F903F9008950F931F93F0
:1024500089019A0141E00E9479111F910F9108951D
:10246000DF92EF92FF920F931F93CF93DF931F9210
:10247000CDB7DEB7F82EE62ED42E122F20910A010A
:1024800030910B01AE014F5F5F4F0E9426128823EF
:1024900019F14D2D50E0411B51094F5F5F4FE1E0B5
:1024A000F0E002C0EE0FFF1F1A95E2F73197042EFD
:1024B00001C0EE0F0A94EAF701C0000F4A95EAF74F
:1024C0004E2F409589814823E0234E2B49836E2D62
:1024D0008F2D0E94691101C080E00F90DF91CF9194
:1024E0001F910F91FF90EF90DF9008952F923F92F0
:1024F0004F925F926F927F928F929F92AF92BF9214
:10250000CF92DF92EF92FF920F931F93CF93DF93BF
:10251000CDB7DEB72B970FB6F894DEBF0FBECDBF99
:102520009B878A87DC01D896BC91B983B11102C020
:102530001982E2C00E9423276A837B838C839D8358
:10254000EA85FB8580A191A1A2A1B3A14A815B810B
:102550006C817D81481B590B6A0B7B0B84A595A56B
:10256000A6A5B7A5481759076A077B0708F3028C89
:10257000F38DE02D80809180A280B380AA85BB85F9
:102580005E96ED91FC915F97A50194016081718148
:10259000828193810E94FA292B013C01EA85FB8507
:1025A00020893189428953890E94D82CAA85BB850C
:1025B00094962D913D914D915C9197970E94FB29A6
:1025C0006B017C01EA85FB8564A375A386A397A3B1
:1025D00024A835A806A917A99101A8010E94CD2C0D
:1025E00018161CF4C101D80118C0AA85BB85D09665
:1025F0008D919D910D90BC91A02D8E839F83A88776
:10260000B9879C01AD01C701B6010E94C12A87FFAD
:102610000AC08E819F81A885B985EA85FB8584A340
:1026200095A3A6A3B7A3AA85BB851C962D913D9122
:102630004D915C911F97C301B2010E94D82CEA858D
:10264000FB8524A135A146A157A10E94FB296B015E
:102650007C01AA85BB8598962D913D914D915C9109
:102660009B97C501B4010E94FA29EA85FB8524895C
:102670003589468957890E94D82C9B01AC01C70136
:10268000B6010E94FA296B017C019101A8010E9408
:10269000CD2C1816BCF0AA85BB85D0962C90D0976F
:1026A000D1963C90D197D2960C91D297D3961C910B
:1026B0009101A801B601C7010E94C12A87FD02C08D
:1026C00016018701AA85BB855C96ED91FC915D970B
:1026D000C101D80180839183A283B383EA85FB85FE
:1026E00080A691A6A2A6B3A68A819B81AC81BD815A
:1026F00080A391A3A2A3B3A389812B960FB6F894CC
:10270000DEBF0FBECDBFDF91CF911F910F91FF9024
:10271000EF90DF90CF90BF90AF909F908F907F9081
:102720006F905F904F903F902F9008952F923F921F
:102730004F925F926F927F928F929F92AF92BF92D1
:10274000CF92DF92EF92FF920F931F93CF93DF937D
:1027500000D000D0CDB7DEB71C012A013B014801F3
:10276000590120E030E0A901C301B2010E94C12A51
:1027700087FD78C020E030E0A901C501B4010E94C6
:10278000C12A87FD6FC020E030E0A901C701B60172
:102790000E94C12A87FD66C0F10140825182628297
:1027A000738284829582A682B782C086D186E286B1
:1027B000F38664A575A586A597A50E94612B20E0E8
:1027C00030E04AE754E40E94C82A69837A838B8305
:1027D0009C83F10144865586668677869B01AC0111
:1027E000C501B4010E94D82C4B015C01F101608B42
:1027F000718B828B938B29813A814B815C81C701DC
:10280000B6010E94C82A6B017C01F101648B758BB3
:10281000868B978B808D918D019721F5A301920175
:1028200060E070E0CB010E94FA29F10164877587AE
:1028300086879787A501940160E070E0CB010E9434
:10284000FA29F101608B718B828B938BA701960122
:1028500060E070E0CB010E94FA29F101648B758B76
:10286000868B978B0F900F900F900F90DF91CF91E9
:102870001F910F91FF90EF90DF90CF90BF90AF909E
:102880009F908F907F906F905F904F903F902F9090
:1028900008958F929F92AF92BF92CF92DF92EF9264
:1028A000FF92CF93DF93EC0116161706ACF56B0180
:1028B000EE24D7FCE094FE2CC701B6010E94632BE6
:1028C0004B015C016CA57DA58EA59FA50E94612B87
:1028D0009B01AC01C501B4010E94C82A4B015C01F7
:1028E0009B01AC01688979898A899B890E94D82CCF
:1028F000688B798B8A8B9B8BA50194016C897D8970
:102900008E899F890E94C82A6C8B7D8B8E8B9F8BB2
:10291000CCA6DDA6EEA6FFA6DF91CF91FF90EF90AB
:10292000DF90CF90BF90AF909F908F9008952F929F
:102930003F924F925F926F927F928F929F92AF924F
:10294000BF92CF92DF92EF92FF920F931F93CF939C
:10295000DF93EC016A017B0148015901A90198014B
:10296000C701B6010E94CD2C87FF4EC0C8AAD9AAC4
:10297000EAAAFBAA8CAA9DAAAEAABFAA88AD882300
:1029800009F442C02C8C3D8CF10140805180628062
:102990007380A5019401C301B2010E94CD2C1816C9
:1029A00034F4F10180829182A282B3820DC0A7012A
:1029B0009601C301B2010E94C12A87FF05C0F1013F
:1029C000C082D182E282F3828CA09DA0AEA0BFA083
:1029D000CCA8DDA8EEA8FFA8A7019601C501B40107
:1029E0000E94CD2C181664F0C8A8D9A8EAA8FBA8A4
:1029F000A7019601C501B4010E94C12A87FF04C046
:102A0000CCA2DDA2EEA2FFA2DF91CF911F910F9188
:102A1000FF90EF90DF90CF90BF90AF909F908F90FE
:102A20007F906F905F904F903F902F9008958F927E
:102A30009F92AF92BF92CF92DF92EF92FF92CF938D
:102A4000DF93EC01EC8DFD8DC080D180E280F380BE
:102A5000CCA2DDA2EEA2FFA2EA8DFB8D8081918146
:102A6000A281B38188A799A7AAA7BBA78CA89DA874
:102A7000AEA8BFA8A5019401C701B6010E94CD2C44
:102A8000181664F088A899A8AAA8BBA8A501940163
:102A9000C701B6010E94C12A87FF04C08CA29DA273
:102AA000AEA2BFA2DF91CF91FF90EF90DF90CF90C9
:102AB000BF90AF909F908F9008951F93CF93DF9317
:102AC000EC0111E06130710509F010E088AD91E092
:102AD0008927181303C0CE010E94171518AFDF9184
:102AE000CF911F9108950F931F93CF93DF93EC0124
:102AF0008B0188AD882361F1888D998D68177907DE
:102B000039F12C853D854E855F8560E070E0CB0115
:102B10000E94FA296C877D878E879F87288939894B
:102B20004A895B8960E070E0CB010E94FA29688BDA
:102B3000798B8A8B9B8B2C893D894E895F8960E0DC
:102B400070E0CB010E94FA296C8B7D8B8E8B9F8B62
:102B5000198F088FDF91CF911F910F9108954F9298
:102B60005F926F927F928F929F92AF92BF92CF921D
:102B7000DF92EF92FF920F931F93CF93DF9300D0DA
:102B800000D0CDB7DEB74C0127013801A982BA8247
:102B9000CB82DC82FC01558F448F738F628F378F1D
:102BA000268F10AE10AA11AA12AA13AA80E090E0F4
:102BB000AFE7B3E484AB95ABA6ABB7AB84E690E0EC
:102BC000A0E0B0E084A795A7A6A7B7A76B8D7C8DE2
:102BD000C4010E947315CF88D88CE98CFA8C0981C6
:102BE0001A812B813C81B301A201C4010E9496137A
:102BF0000E942327F40144A455A466A477A4641971
:102C000075098609970960A371A382A393A30F9006
:102C10000F900F900F90DF91CF911F910F91FF9028
:102C2000EF90DF90CF90BF90AF909F908F907F906C
:102C30006F905F904F900895FC0160817181828157
:102C400093810895FC01648175818681978108953F
:102C5000FC01608571858285938508950F931F938C
:102C6000FC010FEF1FEF9801008311832283338350
:102C700010861186128613864FEF59EC6AE97BE3C2
:102C8000408B518B628B738B408F518F628F738F10
:102C900040A351A362A373A340A751A762A773A740
:102CA00040AB51AB62AB73AB00AF11AF22AF33AFF0
:102CB000DC01A05CBF4F8FEF90E011969C938E9348
:102CC00014960D931D932D933C93139718960D9383
:102CD0001D932D933C93139718961C9211961C925A
:102CE000509682E08C9311961C9211961C9211962C
:102CF0001C9211961D921D921D921C921397149670
:102D000011961C921E9212961D921C92EA5AFF4F27
:102D100010821F910F9108952FEB260F862F992770
:102D200087FD9095263010F4C79708956156663058
:102D300018F4875591090895C09708950F931F932C
:102D4000FB0160E070E0CB01019120ED200F2A3003
:102D5000A0F4AAE0B0E09B01AC010E94D8291127A1
:102D600007FD1095212F312F600F711F821F931FB8
:102D70006053710981099109E7CF1F910F9108955F
:102D80000F931F93CF93FC01EA5AFF4FC1E02081BC
:102D90002D3219F0C0E08F0103C08C01095A1F4F7A
:102DA000B8010E949E169B01AC01A4E6B0E00E940F
:102DB000D829F801DF01219130ED320F3A30D0F3FC
:102DC0002E3269F511962C91119730ED320F3A3071
:102DD00030F5332727FD3095205331094AE0429FD3
:102DE0008001439F100D1124222717FD2095322FBB
:102DF000600F711F821F931F12960C9120ED200F00
:102E00002A3068F4112707FD109500531109222775
:102E100017FD2095322F600F711F821F931FCC2347
:102E200039F090958095709561957F4F8F4F9F4FAA
:102E3000CF911F910F9108954F925F926F927F9261
:102E40008F929F92AF92BF92CF92DF92EF92FF92BA
:102E5000CF93DF93EC01CA5ADF4FBE010E949E164A
:102E60002B013C0124E630E040E050E00E94912933
:102E70009B01AC0160EA76E881E090E00E9459296C
:102E80006B017C01FE01819190ED980F9A30D8F38F
:102E90008E3219F5EF0180E1882E87E2982EA12C61
:102EA000B12CA99180ED8A0F8A30B8F4BB27A7FD19
:102EB000B095D097A50194010E94E329C60ED71EB4
:102EC000E81EF91EC501B4012AE030E040E050E000
:102ED0000E94912949015A01E4CFC701B6016D5FF3
:102EE0007F4F8F4F9F4F26E030E040E050E00E9440
:102EF000912969017A01C301B20124E630E040E082
:102F000050E00E94912960E472E48FE090E00E941A
:102F10005929C60ED71EE81EF91EC701B601DF915A
:102F2000CF91FF90EF90DF90CF90BF90AF909F90A8
:102F30008F907F906F905F904F900895DB01FA0122
:102F40008D91882319F091918917D1F3992787FDE5
:102F500090950895CF92DF92EF92FF921F93CF93B7
:102F6000DF93EC01FC01EB5AFF4F1081112309F4B0
:102F7000A9C0319660810E948C16182FFE01E95A73
:102F8000FF4F6081CE010E948C1640E1149F800D9E
:102F90001124FE01EC5AFF4F908189138AC0749668
:102FA0001081112309F458C13596808191810196D1
:102FB00091838083B59780819181A281B381349779
:102FC00080839183A283B3833C9680819181A28187
:102FD000B381349780839183A283B3837996808170
:102FE0008823A1F1813009F037C18C819D81AE81A8
:102FF000BF8188839983AA83BB838C859D85AE8599
:10300000BF8588879987AA87BB878C899D89AE8968
:10301000BF89888B998BAA8BBB8B8C8D9D8DAE8D38
:10302000BF8D888F998FAA8FBB8F8CA59DA5AEA5CC
:10303000BFA588A799A7AAA7BBA78CA99DA9AEA938
:10304000BFA988AB99ABAAABBBAB06C18CA19DA1B4
:10305000AEA1BFA188A399A3AAA3BBA38C819D8184
:10306000AE81BF8188839983AA83BB838C899D8924
:10307000AE89BF89888B998BAA8BBB8B8C8D9D8DDC
:10308000AE8DBF8D888F998FAA8FBB8FFE01E05CBC
:10309000FF4FDE01AE5BBF4F8D919C91918380838A
:1030A0008CAD9DADAEADBFAD88AF99AFAAAFBBAF94
:1030B000D3C0C159DF4F8881998101969983888354
:1030C00010E0CAC0FC01EA59FF4F30818B599F4F75
:1030D0007C0131111DC06E0196E5C90ED11C43EC77
:1030E00052E0B601CE010E949E17892B11F481E0B7
:1030F0000CC049EC52E0B601CE010E949E17892B0C
:1031000019F4F7011082A8C082E0D7018C93A4C003
:10311000DC01EC91E23009F49FC0CE018A5A9F4F46
:10312000DC012C91222309F497C0B0E2EB9FF0015F
:103130001124E32B3197E932F10508F08DC0EC5CE6
:10314000FF4F0C94D229CE010E94C0166C837D8360
:103150008E839F830E942327C85BDF4F12C0C8590C
:10316000DF4F81E0213409F05DC05DC0CE010E94D7
:103170001C176C8B7D8B8E8B9F8B0E942327C05BD3
:10318000DF4F688379838A839B8366C0233509F088
:1031900063C08C899D89AE89BF89B095A0959095B3
:1031A00081959F4FAF4FBF4F8C8B9D8BAE8BBF8B4D
:1031B00053C0CE010E941C176C8F7D8F8E8F9F8F06
:1031C0004BC0273509F048C08C8D9D8DAE8DBF8DCD
:1031D000B095A095909581959F4FAF4FBF4F8C8F25
:1031E0009D8FAE8FBF8F38C0CE010E94C0166CA7D6
:1031F0007DA78EA79FA730C0CE010E94C0166CABE2
:103200007DAB8EAB9FAB28C0BC01CE010E949E1649
:103210006C877D878E879F871FC0C859DF4F81E0ED
:1032200021330CF480E0888317C00E94CE2ECE5B41
:10323000DF4F9927998388830FC0CE010E94C01663
:103240006CAF7DAF8EAF9FAF07C0CE010E94C0169E
:103250006CA37DA38EA39FA3812FDF91CF911F919C
:10326000FF90EF90DF90CF900895CF92DF92EF9292
:10327000FF920F931F93CF93DF931F92CDB7DEB7CB
:103280006C01262FFC01E759FF4F4081518162817B
:1032900073814F5F5F4F6F4F7F4F408351836283D6
:1032A00073838C0109591F4F8B5A9F4F7C01243225
:1032B00081F12CF42A3069F02D30E9F50AC02A3268
:1032C00041F02C32C1F5F601EC5AFF4F8081822784
:1032D0008083F80180818F3060F4F601E80FF11DE2
:1032E000EA5AFF4F1082C60129830E94AA1729813A
:1032F00001C080E0F601EA59FF4F90819F5F908303
:10330000F801108291E02A3209F090E0F7019083F1
:103310002AC0F8011082F601EA59FF4F1082729715
:103320001082719682E08083F7011082F601E859DD
:10333000FF4F108217C0F80180818E3048F491E071
:10334000980F9083F601E80FF11DEA5AFF4F208392
:10335000F7018081811106C0F601EC5AFF4F808190
:103360008227808380E00F90DF91CF911F910F9192
:10337000FF90EF90DF90CF900895CF92DF92EF9281
:10338000FF920F931F93CF93DF93E90161157105AE
:1033900051F0FC01C088D188E288F388FB01C0822B
:1033A000D182E282F3824115510551F0FC01C08CBB
:1033B000D18CE28CF38CFA01C082D182E282F3825A
:1033C000209701F18C01045B1F4FF80180819181EE
:1033D000A281B3818F3F9F4FAF4FBF4F61F00E94DB
:1033E0002327F8010081118122813381601B710B39
:1033F000820B930B03C06FEF7FEFCB016883798360
:103400008A839B83DF91CF911F910F91FF90EF9063
:10341000DF90CF900895AF92BF92CF92DF92EF925C
:10342000FF920F931F93CF93DF93CDB7DEB728970B
:103430000FB6F894DEBF0FBECDBF5B018A01AE01AF
:103440004F5F5F4FBE016B5F7F4F0E94BD19CD8004
:10345000DE80EF80F8848FEFC81689ECD8068AE901
:10346000E8068BE3F80659F0C701B6010E94632B0A
:1034700020E034E244E759E40E94C82A04C060E036
:1034800070E08AE794E4F50160837183828393831B
:10349000FFEFCF16F9ECDF06FAE9EF06FBE3FF06D4
:1034A00069F069817A818B819C810E94632B20E085
:1034B00034E244E759E40E94C82A04C060E070E0A6
:1034C0008AE794E4F801608371838283938328966A
:1034D0000FB6F894DEBF0FBECDBFDF91CF911F9125
:1034E0000F91FF90EF90DF90CF90BF90AF90089535
:1034F000FC0160A171A182A193A16F3FF9EC7F074C
:10350000FAE98F07FBE39F0749F00E94632B20E055
:1035100030E048EC52E40E94C82A089560E074E26A
:1035200084E799E40895FC0112828FEF8183108271
:1035300013820895FC018381882331F0611103C057
:103540008FEF8183089511820895CF93DF93EC016B
:103550006A838CE594E00E948C2441E06A818CE5CA
:1035600094E00E94A32491E0811101C090E09B832C
:103570008CE594E00E94FD2388838B8190E0DF91AD
:10358000CF910895CF93DF93EC018B818823A9F02D
:1035900089818095862388836A818CE594E00E94E6
:1035A000A62468818CE594E00E944D248CE594E08B
:1035B0000E94C324282F30E002C020E030E081E0E8
:1035C00090E0232B11F080E090E0DF91CF910895FF
:1035D00008950895DC01ED91FC910284F385E02DBE
:1035E00041E0099581E090E00895FC011382128288
:1035F0002DEF32E0318320830895DC01ED91FC91C1
:103600000084F185E02D6FEF0994DC01ED91FC91D0
:103610000284F385E02D40E0099461E00E94051BDF
:1036200080ED97E00C947A2762E00E94051B80ED04
:1036300097E00C947A27CF93DF93CDB7DEB7289726
:103640000FB6F894DEBF0FBECDBF1D8220E42E83DF
:1036500034E13F8334E5388719822A8320E12B83C4
:1036600020E52C83FC012781421710F04FEF420F19
:10367000FC01308550E0FE01E40FF51F303121F4EC
:10368000243011F4218101C02581260F2068622F8A
:1036900028960FB6F894DEBF0FBECDBFDF91CF9155
:1036A0000C94051BFC016581262F246025836C602A
:1036B0000C94051BCF93DF93EC01423018F08C8102
:1036C00088608C834F836887222329F0413019F466
:1036D0008C8184608C8364E670E080E090E00E94DE
:1036E00052276C8164FD31C0E881F9810284F38541
:1036F000E02D42E063E0CE01099584E991E10E946A
:103700007A27E881F9810284F385E02D42E063E0C5
:10371000CE01099584E991E10E947A27E881F98137
:103720000284F385E02D42E063E0CE01099586E94D
:1037300090E00E947A27E881F9810284F385E02DE8
:1037400042E062E0CE01099516C06062CE010E949F
:10375000051B84E991E10E947A276C816062CE01A9
:103760000E94051B86E990E00E947A276C816062C6
:10377000CE010E94051B6C816062CE010E94051B78
:1037800084E08D83CE010E94521BCE010E940D1B4E
:1037900082E08E8366E0CE010E94051BCE01DF91A0
:1037A000CF910C94FD1A21E001C0220F6A95EAF72F
:1037B000DC011C962C931C971A965C934E931997D8
:1037C000ED91FC910084F185E02D60E00994FC010D
:1037D0002485222399F081859285009719F461113F
:1037E00005C006C0019721F4611102C0258701C000
:1037F00015866585CF010E960C94C21A08950F9315
:103800001F93CF93DF93EC018C01025F1F4F6B85F9
:10381000C8010E94A51A019761F461E0C8010E94E5
:103820009A1A1C8260E0C8010E94C21A81E090E0EE
:1038300002C080E090E0DF91CF911F910F91089539
:103840008F92AF92CF92EF920F93CF93DF93CDB73A
:10385000DEB7FC016387148615861286118681E027
:10386000982F01C0990F4A95EAF7928B982F01C0C3
:10387000990F2A95EAF7938B982F01C0990F0A9513
:10388000EAF7948B982F01C0990FEA94EAF7958B89
:10389000982F01C0990FCA94EAF7968B982F01C010
:1038A000990FAA94EAF7978B01C0880F8A94EAF7D8
:1038B000808FDF91CF910F91EF90CF90AF908F904D
:1038C00008956F927F928F92AF92CF92EF920F9363
:1038D000CF93DF9300D01F92CDB7DEB73C012B838F
:1038E0004A8369830E94F51A8DE093E0F301918386
:1038F0008083C3010E960E94931A2B814A816981AD
:10390000C3010E94201C0F900F900F90DF91CF9168
:103910000F91EF90CF90AF908F907F906F90089520
:10392000FF920F931F93CF93DF93EC01F62E8C0140
:10393000025F1F4F6A896F29C8010E94C21A6A89F3
:1039400060956F21C801DF91CF911F910F91FF907A
:103950000C94C21A20E030E050E060FF05C0FC018A
:10396000E20FF31F7589572B66952F5F3F4F243069
:10397000310599F7413011F4FC014489FC0165855A
:10398000652B642B0C94901C0F931F93CF93DF93A4
:10399000EC01142F062F0F70423011F440E00AC0E2
:1039A00070E084E0759567958A95E1F7CE010E94F5
:1039B000AA1C412F602FCE01DF91CF911F910F9153
:1039C0000C94AA1C0F931F93CF93DF9300D01F92E8
:1039D000CDB7DEB78C012B834A8369830E94FF1B1E
:1039E0002B814A816981C8010F900F900F90DF9160
:1039F000CF911F910F910C945A1B0E94C92E0895CC
:103A000086E593E00C94C10C86E593E00C94E00B02
:103A10000E9484270E94FF1C0E94001DC4E4DDE177
:103A20000E94041D2097E1F30E94441DF9CFFC0180
:103A3000818D228D90E0805C9F4F821B91098F7356
:103A400099270895FC01918D828D981731F0828D10
:103A5000E80FF11D858D90E008958FEF9FEF089599
:103A6000FC01918D828D981761F0828DDF01A80F86
:103A7000B11D5D968C91928D9F5F9F73928F90E0A8
:103A800008958FEF9FEF089584EB9EE1892B49F015
:103A900080E090E0892B29F00E94B41E81110C94E3
:103AA00000000895FC01848DDF01A80FB11DA35A09
:103AB000BF4F2C91848D90E001968F739927848F4E
:103AC000A689B7892C93A089B1898C9180648C9345
:103AD000938D848D981306C00288F389E02D808130
:103AE0008F7D80830895CF93DF93EC01888D8823A9
:103AF000C9F0EA89FB89808185FD05C0A889B9895B
:103B00008C9186FD0FC00FB607FCF5CF808185FF35
:103B1000F2CFA889B9898C9185FFEDCFCE010E94A3
:103B2000521DE7CFDF91CF910895CF92DF92FF92A0
:103B30000F931F93CF93DF931F92CDB7DEB76C0126
:103B4000DC015B969C915B975C968C915C979813DB
:103B500007C05096ED91FC915197808185FD32C050
:103B6000F601038D10E00F5F1F4F0F731127F02E2A
:103B7000F601848DF81211C00FB607FCF9CFD601FB
:103B80005096ED91FC915197808185FFF1CFC60150
:103B900069830E94521D6981EBCF838DE80FF11D6F
:103BA000E35AFF4F6083D6015B960C935B97529666
:103BB000ED91FC91539780818062808381E05896DB
:103BC0008C930DC0D6015696ED91FC91579760836A
:103BD0005096ED91FC91519780818064808381E0C3
:103BE00090E00F90DF91CF911F910F91FF90DF90A8
:103BF000CF900895BF92CF92DF92EF92FF92CF9332
:103C0000DF93EC016A017B01B22EE889F98982E039
:103C10008083411581EE580761057105A1F060E0D0
:103C200079E08DE390E0A70196010E94912921504F
:103C30003109410951095695479537952795211521
:103C400080E1380798F0E889F989108260E874E823
:103C50008EE190E0A70196010E949129215031093F
:103C6000410951095695479537952795EC85FD856E
:103C70003083EE85FF852083188EEC89FD89B08224
:103C8000EA89FB89808180618083EA89FB89808160
:103C900088608083EA89FB89808180688083EA89E3
:103CA000FB8980818F7D8083DF91CF91FF90EF90A2
:103CB000DF90CF90BF9008951F920F920FB60F9292
:103CC00011242F938F939F93EF93FF93E0918B0396
:103CD000F0918C038081E0919103F091920382FD39
:103CE00012C09081809194038F5F8F732091950310
:103CF000821751F0E0919403F0E0E558FC4F958F66
:103D00008093940301C08081FF91EF919F918F91E7
:103D10002F910F900FBE0F901F9018951F920F922A
:103D20000FB60F9211242F933F934F935F936F938E
:103D30007F938F939F93AF93BF93EF93FF938BE703
:103D400093E00E94521DFF91EF91BF91AF919F911F
:103D50008F917F916F915F914F913F912F910F9034
:103D60000FBE0F901F9018958BE793E00E94171DD0
:103D700021E0892B09F420E0822F089510927E0320
:103D800010927D0388EE93E0A0E0B0E080937F0383
:103D900090938003A0938103B09382038DE193E01D
:103DA00090937C0380937B0385EC90E09093880351
:103DB0008093870384EC90E090938A038093890337
:103DC00080EC90E090938C0380938B0381EC90E0E7
:103DD00090938E0380938D0382EC90E090939003F8
:103DE00080938F0386EC90E09093920380939103ED
:103DF00010929403109295031092960310929703D9
:103E00000895CF92DF92EF92FF920F931F93CF937B
:103E1000DF936C017A01EB01E60EF71E00E010E083
:103E2000CE15DF0561F06991D601ED91FC9101900D
:103E3000F081E02DC6010995080F191FF1CFC801C7
:103E4000DF91CF911F910F91FF90EF90DF90CF9076
:103E500008956115710581F0DB010D900020E9F7EF
:103E6000AD0141505109461B570BDC01ED91FC910E
:103E70000280F381E02D099480E090E008950C9495
:103E8000291FDC01ED91FC910190F081E02D099456
:103E90000F931F93CF93DF93EC016DE00E94411FBE
:103EA0008C016AE0CE010E94411F800F911FDF91BB
:103EB000CF911F910F9108950F931F93CF93DF938D
:103EC000EC010E94291F8C01CE010E94481F800F27
:103ED000911FDF91CF911F910F9108958F929F9223
:103EE000AF92BF92CF92DF92EF92FF920F931F9308
:103EF000CF93DF93CDB7DEB7A1970FB6F894DEBFAF
:103F00000FBECDBF7C01C42EE52FCB01D22E19A24E
:103F100021E02D1510F02AE0D22E8E010F5D1F4FEB
:103F20008D2C912CA12CB12C6C2D7E2FA5019401F0
:103F30000E9491298C2DD29E8019112401501109C3
:103F40008A3014F4805D01C0895CF80180832115FA
:103F500031054105510521F0C22EE32FCA01E4CFFE
:103F6000B801C7010E94291FA1960FB6F894DEBFC1
:103F70000FBECDBFDF91CF911F910F91FF90EF90BA
:103F8000DF90CF90BF90AF909F908F900895CF9289
:103F9000DF92EF92FF920F931F93CF93DF93EC0189
:103FA0006A017B012115310579F4E881F9810190DD
:103FB000F081E02D642FDF91CF911F910F91FF9041
:103FC000EF90DF90CF9009942A303105E9F477FF24
:103FD0001AC06DE20E94411F8C0144275527BA0187
:103FE0004C195D096E097F092AE0CE010E946E1FFF
:103FF000800F911FDF91CF911F910F91FF90EF9054
:10400000DF90CF9008952AE0B701A601CE01DF919D
:10401000CF911F910F91FF90EF90DF90CF900C9474
:104020006E1F2115310541F4DC01ED91FC910190E9
:10403000F081E02D642F09940C946E1F0F931F9351
:10404000CF93DF93EC010E9411208C01CE010E94DE
:10405000481F800F911FDF91CF911F910F910895FD
:104060004F925F926F927F928F929F92AF92BF9288
:10407000CF92DF92EF92FF920F931F93CF93DF9334
:10408000EC016A017B01B22E9A01AB01C701B601B6
:104090000E94862D882319F069E273E027C026016B
:1040A0003701E89477F82FEF3FEF4FE75FE7C30161
:1040B000B2010E94862D81110DC02FEF3FEF4FE717
:1040C0005FE7C301B2010E94C12A18161CF46DE219
:1040D00073E00CC02FEF3FEF4FE75FE4C701B6017D
:1040E0000E94CD2C1816ACF461E373E0CE01DF9191
:1040F000CF911F910F91FF90EF90DF90CF90BF90E5
:10410000AF909F908F907F906F905F904F900C94A6
:10411000291F2FEF3FEF4FE75FECC701B6010E9469
:10412000C12A87FDE1CF20E030E0A901C701B60137
:104130000E94C12A87FF0AC06DE2CE010E94411F82
:104140008C01F7FAF094F7F8F09402C000E010E068
:10415000A12C60E070E080E09FE3AB1441F020E030
:1041600030E040E251E40E94C82AA394F6CF9B01BC
:10417000AC01C701B6010E94FB296B017C010E94C2
:10418000352B2B013C010E94612B9B01AC01C70127
:10419000B6010E94FA296B017C012AE0B301A20159
:1041A000CE010E946E1F080F191FBB2039F064E674
:1041B00072E0CE010E94291F080F191F7B2C772067
:1041C00041F120E030E040E251E4C701B6010E9435
:1041D000D82C6B017C010E94302B4B01AA2497FC48
:1041E000A094BA2C2AE030E0B501A401CE010E94CF
:1041F000C71F080F191FC501B4010E94632B9B0143
:10420000AC01C701B6010E94FA296B017C017A94C6
:10421000D6CFC801DF91CF911F910F91FF90EF9002
:10422000DF90CF90BF90AF909F908F907F906F90D6
:104230005F904F9008950C9430200F931F93CF936D
:10424000DF93EC010E9430208C01CE010E94481FB8
:10425000800F911FDF91CF911F910F9108954F9281
:104260005F926F927F92AF92BF92CF92DF92EF9266
:10427000FF920F931F93CF93DF93CDB7DEB7290142
:104280003A01621B730B840B950B29893A894B8980
:104290005C892A193B094C095D09298B3A8B4B8BA8
:1042A0005C8B9B01AC0169897A898B899C890E940E
:1042B0005929E418F50806091709A80197010E9471
:1042C000B3292A0D3B1D4C1D5D1DCA01B901DF91AB
:1042D000CF911F910F91FF90EF90DF90CF90BF9003
:1042E000AF907F906F905F904F9008950E94C92E7D
:1042F00020915A0430915B0428173907B9F4909142
:10430000180480911904981789F0E0911804F0E0DE
:10431000E65EFB4F80812091180430E02F5F3F4F15
:104320002F7333272093180490E008958FEF9FEFA9
:1043300008951F93CF93DF93DC015C968D919C9140
:104340005D97009749F481E090E013969C938E93DB
:10435000129780E090E03BC05196ED91FC9152970E
:1043600050962C915097322F30951FB75E964C91F6
:104370005E9741FB772770F941FD6095F894408185
:10438000772311F0422B01C043234083EC01219796
:10439000F1F748E0508160FF02C0522B01C0532367
:1043A0005083EC012197F1F76695415099F7808190
:1043B000772311F0832301C0822B80831FBF5C967B
:1043C0008D919C915D970197F1F781E090E0DF91ED
:1043D000CF911F91089520915A0430915B042817C2
:1043E000390781F49091180480911904981751F0BD
:1043F000E0911804F0E0E65EFB4F8081992787FD8D
:10440000909508958FEF9FEF089520915A04309171
:104410005B042817390771F480911904209118045E
:1044200090E0805C9F4F821B910960E470E00E94E5
:104430007D29089580E090E0089520915A043091FC
:104440005B042817390739F48FB7F89410921904D0
:10445000109218048FBF0895E0915A04F0915B0404
:10446000E817F90769F4A389B4899C918589809537
:1044700089238C9310925B0410925A0481E0089572
:1044800080E00895CF93DF93EC018A8D9B8D892B7B
:10449000F1F080915A0490915B048C179D07B9F05C
:1044A000009711F00E942C228E8D8E7F8E8F10929D
:1044B000190410921804D0935B04C0935A04EB893A
:1044C000FC8980819D89892B808381E001C080E007
:1044D000DF91CF9108951F920F920FB60F92112482
:1044E0002F933F934F935F936F937F938F939F93FC
:1044F000AF93BF93EF93FF93E0915A04F0915B0465
:10450000309709F451C0868DA685B785958581FFC2
:1045100004C08C91892329F447C08C91892309F028
:1045200043C0A389B4899C918589809589238C9304
:10453000868997890197F1F7208D318DA685B785FA
:10454000758558E040E0C9010197F1F7842F90E0AC
:1045500095958795482F6C91672309F040685150D5
:1045600091F7868D81FD40958091190490E0019628
:104570008F73992720911804281749F0A0911904E6
:10458000B0E0A65EBB4F4C938093190403C0868DA8
:104590008160868F828D938D0197F1F7A389B4890D
:1045A0008C919589892B8C93FF91EF91BF91AF915D
:1045B0009F918F917F916F915F914F913F912F913B
:1045C0000F900FBE0F901F9018951F93CF93DF93FE
:1045D000EC01162F6E8D6695617081E06827812F42
:1045E0000E949D2861E0812F0E946428812F90E025
:1045F000FC01E65EFE4FE491E88BFC01E25DFE4FBC
:10460000E491F0E0EE0FFF1FE45BFE4F8591949183
:104610009A8B898BDF91CF911F9108951F93CF9330
:10462000DF93EC01162F60E0812F0E9464288E8DAD
:1046300081FD04C061E0812F0E949D281C87812F8D
:1046400090E0FC01E65EFE4FE491ED87FC01E25D47
:10465000FE4FE491F0E0EE0FFF1FEE5BFE4F859101
:1046600094919F878E87DF91CF911F910895FF923C
:104670000F931F93CF93DF93EC01F62E522F1B82E3
:104680001A8208EE13E020E030E00C831D832E83B5
:104690003F8389E393E0998388831F8A1E8A198E5A
:1046A000188E1B8E1A8E1D8E1C8E8E8D8E7F50FB4B
:1046B00081F98E8F642FCE010E94E5226F2DCE01ED
:1046C000DF91CF911F910F91FF900C940E23CF9308
:1046D000DF93EC019A01AB011B8E1A8E198E188E96
:1046E0001F8A1E8A60E079E08DE390E00E94B32982
:1046F000C9012430310520F0B9016350710902C0AD
:1047000061E070E07D8F6C8FEC85E63108F068C069
:10471000B901769567956431710518F06351710997
:1047200002C061E070E07F8B6E8B069718F0C901C4
:10473000059702C081E090E0998F888FC901880FAA
:10474000991F820F931F96958795969587958D3023
:10475000910510F00C9702C081E090E09B8F8A8F4A
:1047600020916800E83050F091E0EE3008F490E0DD
:1047700081E001C0880F9A95EAF701C084E0822B9E
:10478000809368002C85283038F02E3040F0263198
:1047900048F48CE690E008C08DE690E005C08BE61A
:1047A00090E002C080E090E09C8B8B8B283030F44E
:1047B00081E001C0880F2A95EAF70DC0822F90E0B2
:1047C0002E3010F4089701C00E9791E001C0990FA8
:1047D0008A95EAF7892F8D8B8C8D9D8D0197F1F746
:1047E000CE01DF91CF910C94422280918C0490E015
:1047F00020918D04821B9109089520918D04809150
:104800008C04281750F4E22FF0E0E257FB4F808130
:1048100090E02F5F20938D0408958FEF9FEF089510
:10482000E0918D0480918C04E81730F4F0E0E257B9
:10483000FB4F808190E008958FEF9FEF08950895DA
:10484000CF92DF92EF92FF920F931F93CF93DF935C
:104850007C01CB018A0120916804222389F0EB01BD
:104860006B01C40ED51ECC15DD0569F06991D70129
:10487000ED91FC910190F081E02DC7010995F3CFF6
:10488000642F0E947F25C801DF91CF911F910F9166
:10489000FF90EF90DF90CF900895CF93DF931F921A
:1048A000CDB7DEB76983209168042223D1F020912F
:1048B0006904203240F021E030E0FC0133832283A0
:1048C00080E090E015C080916A04E82FF0E0E5599F
:1048D000FB4F998190838F5F80936A048093690472
:1048E00005C061E0CE0101960E947F2581E090E045
:1048F0000F90DF91CF910895FC011382128248EE50
:1049000053E060E070E0448355836683778389E4F5
:1049100093E091838083089510928D0410928C040B
:1049200010926A04109269040C94CA24862F4132B2
:1049300008F040E26EE874E00E94E82410928D04D2
:1049400080938C04089521E00C94962481E0809358
:10495000680460938B0410926A04109269040895AD
:104960000F93062F21E0409169046BE674E080917B
:104970008B040E942C2510926A04109269041092F4
:1049800068040F91089561E00C94B0248CE594E0E4
:104990000C947C2410921B0581E0809319051092E1
:1049A000180561E082E10E949D2861E083E10E9498
:1049B0009D28E9EBF0E080818E7F808380818D7F70
:1049C000808388E48093B80085E48093BC000895D8
:1049D000413208F03FC090911B059111FCCF91E04E
:1049E00090931B05209319052FEF2093AE0410928E
:1049F000F304240F2093F20490931A0590911A0562
:104A0000880F892B80931A0580911805813041F415
:104A10001092180580911A058093BB0085EC01C0A7
:104A200085EE8093BC0080911B058130E1F380917D
:104A3000F304841710F44091F30424EF34E0FB01F5
:104A4000D9018A2F821B841718F48D918193F9CF95
:104A5000842F089580E008950F93413208F046C0F6
:104A600090911B059111FCCF92E090931B05009350
:104A700019059FEF9093AE041092F3044093F20453
:104A8000FB0164EF74E0DB019A2F961B941718F476
:104A900091919D93F9CF10921A0590911A05880F64
:104AA000892B80931A0580911805813041F410926A
:104AB000180580911A058093BB0085EC01C085EE36
:104AC0008093BC00222321F080911B058230E1F30A
:104AD0008091AE048F3F61F08091AE04803251F03E
:104AE0008091AE04803341F483E007C081E005C0CB
:104AF00080E003C082E001C084E00F91089561323C
:104B000098F420911B05243089F46093D004FC01B3
:104B100082ED94E0DC012A2F281B261718F421913E
:104B20002D93F9CF80E0089581E0089582E0089503
:104B300085ED8093BC008091BC0084FDFCCF109279
:104B40001B05089585EC8093BC0010921B05089509
:104B50001F920F920FB60F9211242F933F934F93F2
:104B60005F936F937F938F939F93AF93BF93EF93D5
:104B7000FF938091B900887F803609F49CC068F566
:104B8000883209F45BC090F4803109F454C038F4E1
:104B9000882309F4F5C0883009F44DC0F5C0883188
:104BA00009F44CC0803209F45DC0EEC0803409F4D1
:104BB00068C048F4803309F455C0883309F0E4C074
:104BC0008093AE04A8C0803509F44FC0883509F43D
:104BD0005DC0883409F0D8C0D5C0883909F4C6C092
:104BE000A8F4883709F467C038F4883609F463C03C
:104BF000803709F460C0C8C0883809F4B7C080396C
:104C000009F45FC0803809F0BFC05BC0803B09F485
:104C100085C038F4803A09F466C0883A09F47EC049
:104C2000B3C0803C09F4A6C0883C09F4A3C0883B0B
:104C300009F489C0A9C080911A0510C09091F304AD
:104C40008091F204981770F5E091F30481E08E0FE3
:104C50008093F304F0E0EC50FB4F80818093BB0025
:104C600085EC85C08093AE048DC0E091F30481E0B3
:104C70008E0F8093F3048091BB00F0E0EC50FB4F6B
:104C800080839091F3048091F2046DC0E091F3046D
:104C900081E08E0F8093F3048091BB00F0E0EC5034
:104CA000FB4F80838091190581116CC081E0809356
:104CB000180584EA60C083E080931B051092AF045E
:104CC000CFCF8091AF04803208F050C0E091AF04A4
:104CD00081E08E0F8093AF048091BB00F0E0E0553F
:104CE000FB4F8083BDCF8091AF04803230F4E091E0
:104CF000AF04F0E0E055FB4F10820E9498256091D0
:104D0000AF0470E0E0911405F091150580EB94E09C
:104D100009951092AF040E94A22536C084E08093CA
:104D20001B051092D1041092D004E0911605F09169
:104D3000170509958091D004811105C081E0809309
:104D4000D0041092D204E091D10481E08E0F8093C0
:104D5000D104F0E0EE52FB4F80818093BB00909134
:104D6000D1048091D004981708F47ACF85E8809315
:104D7000BC000AC085EC8093BC0010921B0504C0E7
:104D80001092AE040E949825FF91EF91BF91AF91D0
:104D90009F918F917F916F915F914F913F912F9153
:104DA0000F900FBE0F901F9018950C94A22D0C948D
:104DB0003A2E1F920F920FB60F9211242F933F930A
:104DC0008F939F93AF93BF9380911D0590911E0584
:104DD000A0911F05B091200530911C0523E0230F01
:104DE0002D3720F40196A11DB11D05C026E8230F23
:104DF0000296A11DB11D20931C0580931D05909363
:104E00001E05A0931F05B093200580912105909168
:104E10002205A0912305B09124050196A11DB11D85
:104E20008093210590932205A0932305B093240538
:104E3000BF91AF919F918F913F912F910F900FBE96
:104E40000F901F9018952FB7F89460911D057091E1
:104E50001E0580911F05909120052FBF08953FB733
:104E6000F8948091210590912205A0912305B0919D
:104E7000240526B5A89B05C02F3F19F00196A11D5A
:104E8000B11D3FBF6627782F892F9A2F620F711DA2
:104E9000811D911D42E0660F771F881F991F4A955B
:104EA000D1F70895CF92DF92EF92FF92CF93DF93E5
:104EB0006B017C010E942F27EB01C114D104E10496
:104EC000F10489F00E9458290E942F276C1B7D0B4A
:104ED000683E734090F381E0C81AD108E108F108F8
:104EE000C851DC4FEACFDF91CF91FF90EF90DF9078
:104EF000CF900895019739F0880F991F880F991F57
:104F000002970197F1F70895789484B5826084BD83
:104F100084B5816084BD85B5826085BD85B58160BD
:104F200085BDEEE6F0E0808181608083E1E8F0E01D
:104F30001082808182608083808181608083E0E84C
:104F4000F0E0808181608083E1EBF0E0808184602B
:104F50008083E0EBF0E0808181608083EAE7F0E02D
:104F60008081846080838081826080838081816091
:104F700080838081806880831092C10008958E3084
:104F800008F08E50877020910C0190E4299F9001C9
:104F90001124822B80937C0080917A00806480931E
:104FA0007A0080917A0086FDFCCF80917800209174
:104FB000790090E0922B08951F93CF93DF93182FE1
:104FC000EB0161E00E946428209711F460E004C0C6
:104FD000CF3FD10539F461E0812FDF91CF911F914F
:104FE0000C949D28E12FF0E0EA5FFE4FE491E3305E
:104FF000F9F048F4E130B9F0E230A1F584B580620F
:1050000084BDC8BD34C0E730E9F0E83019F1E430C0
:1050100049F580918000806280938000D0938B005E
:10502000C0938A0024C084B5806884BDC7BD1FC0FA
:1050300080918000806880938000D0938900C09325
:10504000880015C08091B00080688093B000C09344
:10505000B3000DC08091B00080628093B000C09317
:10506000B40005C0C038D1050CF0B5CFAFCFDF918B
:10507000CF911F910895833081F028F4813099F009
:105080008230A1F008958730A9F08830B9F08430DB
:10509000D1F4809180008F7D03C0809180008F7754
:1050A00080938000089584B58F7702C084B58F7D8A
:1050B00084BD08958091B0008F7703C08091B000C7
:1050C0008F7D8093B0000895CF93DF9390E0FC0133
:1050D000E65EFE4F2491FC01E25DFE4F8491882341
:1050E00049F190E0880F991FFC01EA5AFE4FA59103
:1050F000B491845B9E4FFC01C591D4919FB761111F
:1051000008C0F8948C91209582238C938881822307
:105110000AC0623051F4F8948C91322F3095832379
:105120008C938881822B888304C0F8948C91822B85
:105130008C939FBFDF91CF9108950F931F93CF93CF
:10514000DF931F92CDB7DEB7282F30E0F901EA5F79
:10515000FE4F8491F901E65EFE4F1491F901E25D84
:10516000FE4F04910023C9F0882321F069830E9437
:105170003B286981E02FF0E0EE0FFF1FE45BFE4F5C
:10518000A591B4919FB7F8948C91611103C01095CB
:10519000812301C0812B8C939FBF0F90DF91CF9112
:1051A0001F910F910895CF92DF92EF92FF920F938C
:1051B0001F93CF93DF9390E0FC01E65EFE4FD49106
:1051C000FC01E25DFE4F7491611102C0C0E001C0BC
:1051D000CD2FDA01C901BF70672F70E0660F771F0E
:1051E0006E5B7E4F00E010E09801FB01E590F490CB
:1051F000F70140814D234C131EC0680179014FEF28
:10520000C41AD40AE40AF40A081719072A073B0744
:1052100009F442C097018601E8CF68017901FFEFE8
:10522000CF1ADF0AEF0AFF0A081719072A073B07F8
:1052300099F197018601FB01E590F490F701408117
:105240004D234C13EACF801B910BA20BB30B20E034
:1052500030E0A901FB01E590F490F701F080FD2218
:10526000FC120AC0281739074A075B07A9F02F5F0D
:105270003F4F4F4F5F4FEECFA8E1B0E00E94D829DB
:10528000605F7F4F8F4F9F4F24E09695879577956E
:1052900067952A95D1F703C060E070E0CB01DF91FC
:1052A000CF911F910F91FF90EF90DF90CF900895D5
:1052B0000895DB018F939F930E94D829BF91AF91EE
:1052C000A29F800D911DA39F900DB29F900D112460
:1052D0000895AA1BBB1B51E107C0AA1FBB1FA6173D
:1052E000B70710F0A61BB70B881F991F5A95A9F78F
:1052F00080959095BC01CD01089597FB072E16F47B
:10530000009407D077FD09D00E94692907FC05D0D9
:105310003EF4909581959F4F0895709561957F4FCC
:105320000895A1E21A2EAA1BBB1BFD010DC0AA1FE6
:10533000BB1FEE1FFF1FA217B307E407F50720F0FE
:10534000A21BB30BE40BF50B661F771F881F991F79
:105350001A9469F760957095809590959B01AC01C2
:10536000BD01CF010895052E97FB1EF400940E9405
:10537000CA2957FD07D00E94912907FC03D04EF49B
:105380000C94CA2950954095309521953F4F4F4F29
:105390005F4F089590958095709561957F4F8F4FE1
:1053A0009F4F0895EE0FFF1F0590F491E02D099493
:1053B0000E94EB29A59F900DB49F900DA49F800D96
:1053C000911D11240895B7FF0C94D8290E94D82963
:1053D000821B930B0895A29FB001B39FC001A39FAE
:1053E000700D811D1124911DB29F700D811D11241E
:1053F000911D08955058BB27AA270ED083C24CD2C6
:1054000030F051D220F031F49F3F11F41EF41CC251
:105410000EF4E095E7FB04C2E92F96D280F3BA17A9
:10542000620773078407950718F071F49EF5AEC202
:105430000EF4E0950B2EBA2FA02D0B01B9019001AF
:105440000C01CA01A0011124FF27591B99F0593FF3
:1054500050F4503E68F11A16F040A22F232F342F3B
:105460004427585FF3CF469537952795A795F04089
:105470005395C9F77EF41F16BA0B620B730B840B9E
:10548000BAF09150A1F0FF0FBB1F661F771F881F56
:10549000C2F70EC0BA0F621F731F841F48F48795AE
:1054A00077956795B795F7959E3F08F0B3CF93959D
:1054B000880F08F09927EE0F979587950895ECD1FE
:1054C00058F080E891E009F49EEFEDD128F040E833
:1054D00051E059F45EEF09C0B7C158C2E92FE07836
:1054E00033D268F3092E052AC1F326173707480778
:1054F000590738F00E2E07F8E02569F0E025E06442
:105500000AC0EF6307F8009407FADB01B9019D01B7
:10551000DC01CA01AD01EF934AD0F4D10AD05F910A
:10552000552331F02BED3FE049E450FD49EC63CFCA
:105530000895DF93DD27B92FBF7740E85FE31616A4
:10554000170648075B0710F4D92F2BD29F938F9330
:105550007F936F93D8D2EAEBF0E079D1D3D12F913A
:105560003F914F915F9130D2DD2349F09058A2EAEC
:105570002AED3FE049EC5FE3D0785D274DDFDF9116
:10558000C1C12AD108F481E0089595D1E395CBC13A
:105590000CD0B8C188D140F07FD130F021F45F3F0A
:1055A00019F03EC15111F3C14FC1CED198F39923E7
:1055B000C9F35523B1F3951B550BBB27AA276217D7
:1055C0007307840738F09F5F5F4F220F331F441F1C
:1055D000AA1FA9F333D00E2E3AF0E0E830D0915054
:1055E0005040E695001CCAF729D0FE2F27D0660F41
:1055F000771F881FBB1F261737074807AB07B0E880
:1056000009F0BB0B802DBF01FF2793585F4F2AF095
:105610009E3F510568F004C1BAC15F3FECF3983E6C
:10562000DCF3869577956795B795F7959F5FC9F7F2
:10563000880F911D9695879597F90895E1E0660F7B
:10564000771F881FBB1F621773078407BA0720F0F4
:10565000621B730B840BBA0BEE1F88F7E09508955D
:1056600004D06894B11193C1089576D188F09F5702
:1056700090F0B92F9927B751A0F0D1F0660F771F9E
:10568000881F991F1AF0BA95C9F712C0B13081F07E
:105690007DD1B1E008957AC1672F782F8827B85F50
:1056A00039F0B93FCCF3869577956795B395D9F7DF
:1056B0003EF490958095709561957F4F8F4F9F4FE9
:1056C0000895E89409C097FB3EF4909580957095F5
:1056D00061957F4F8F4F9F4F9923A9F0F92F96E93E
:1056E000BB279395F695879577956795B795F111B3
:1056F000F8CFFAF4BB0F11F460FF1BC06F5F7F4F50
:105700008F4F9F4F16C0882311F096E911C0772361
:1057100021F09EE8872F762F05C0662371F096E86A
:10572000862F70E060E02AF09A95660F771F881F39
:10573000DAF7880F9695879597F90895ADD018F008
:1057400011F0B1D038F480C022C1E92FFDD0B0F300
:105750005523C9F3E7FB6217730784079507A8F180
:1057600099F3E92FFF2788232AF03197660F771FD7
:10577000881FDAF7952F5527442332F09150504077
:10578000220F331F441FD2F7BB27E91BF50B621B07
:10579000730B840BB109C1F222F4620F731F841FD3
:1057A000B11D31972AF0660F771F881FBB1FEFCFFF
:1057B000915050405AF041F0882332F0660F771F25
:1057C000881F91505040C1F7939530C086957795CA
:1057D00067959F5FD9F7F8CF990F0008550FAA0B6F
:1057E000E0E8FEEF16161706E807F907C0F01216F4
:1057F0001306E407F50798F0621B730B840B950BF7
:1058000039F40A2661F0232B242B252B21F408954B
:105810000A2609F4A140A6958FEF811D811D0895E8
:1058200097F99F6780E870E060E008959F3F31F04E
:10583000915020F4879577956795B795880F911DBE
:105840009695879597F908959FEF80EC0895DF93DB
:10585000CF931F930F93FF92EF92DF927B018C0106
:10586000689405C0DA2EEF01AFD0FE01E894A5914F
:105870002591359145915591AEF3EF01CDDDFE01B6
:105880009701A801DA9479F7DF90EF90FF900F91DC
:105890001F91CF91DF91089500240A9416161706E0
:1058A00018060906089500240A9412161306140611
:1058B00005060895C9CF50D0E8F3E894E0E0BB278F
:1058C0009F57F0F02AED3FE049EC06C0EE0FBB0F0A
:1058D000661F771F881F28F0B23A62077307840794
:1058E00028F0B25A620B730B840BE3959A9572F70A
:1058F000803830F49A95BB0F661F771F881FD2F748
:10590000904896CF092E0394000C11F4882352F08E
:10591000BB0F40F4BF2B11F460FF04C06F5F7F4FDB
:105920008F4F9F4F0895EF93E0FF06C0A2EA2AED44
:105930003FE049EC5FEB70DDE5DF0F90039401FC85
:105940009058E7EEF0E0EDC057FD9058440F551F1A
:1059500059F05F3F71F04795880F97FB991F61F0F1
:105960009F3F79F087950895121613061406551F68
:10597000F2CF4695F1DF08C0161617061806991FD4
:10598000F1CF86957105610508940895E894BB27C9
:1059900066277727CB0197F908951EDF08F48FEF6C
:1059A00008959B01AC0160E070E080E89FE3F0CDDA
:1059B0000BD0A8CF71DF28F076DF18F0952309F01F
:1059C0002FCF42CF1124E3CFBFDFA0F3959FD1F3B8
:1059D000950F50E0551F629FF001729FBB27F00D9D
:1059E000B11D639FAA27F00DB11DAA1F649F6627F2
:1059F000B00DA11D661F829F2227B00DA11D621F41
:105A0000739FB00DA11D621F839FA00D611D221FFA
:105A1000749F3327A00D611D231F849F600D211DDE
:105A2000822F762F6A2F11249F5750408AF0E1F081
:105A300088234AF0EE0FFF1FBB1F661F771F881FCA
:105A400091505040A9F79E3F510570F0E9CE9FCF8D
:105A50005F3FECF3983EDCF3869577956795B795B5
:105A6000F795E7959F5FC1F7FE2B880F911D9695DF
:105A7000879597F908959F931EDF0F9007FCEE5FBF
:105A800052CF11F40EF4E0CED1CE66DFD0F39923DD
:105A9000D9F3CEF39F57550B87FF3CD00024A0E6E7
:105AA00040EA900180585695979528F4805C660FDF
:105AB000771F881F20F026173707480730F4621B2E
:105AC000730B840B202931294A2BA6951794079430
:105AD000202531254A2758F7660F771F881F20F0A9
