:100000000C94B2000C94DA000C94DA000C94BD2627
:100010000C94BD260C94BD260C94DA000C947F162B
:100020000C94DA000C94DA000C94DA000C94DA00E8
:100030000C94DA000C94DA000C94DA000C94DA00D8
:100040000C942B2B0C94DA000C948E220C94C0226E
:100050000C94DA000C94DA000C94DA000C94DA00B8
:100060000C94FA290C94DA00D51CE81CF81C0B1D22
:10007000131D3F1D471D4F1D571D5E1D5E1D5E1D3F
:100080005E1D5E1D5E1D5E1D5E1D5E1D5E1D5E1D98
:100090005E1D5E1D5E1D5E1D5E1D5E1D5E1D5E1D88
:1000A0005E1D5E1D5E1D5E1DD51CE11CE81CF81C5E
:1000B0000B1D131D261D2E1D361D084AD73B3BCE9A
:1000C000016E84BCBFFDC12F3D6C74319ABD568357
:1000D0003DDA3D00C77F11BED9E4BB4C3E916BAA0F
:1000E000AABE000000803F05A84CCDB2D44EB9385E
:1000F00036A9020C50B9918688083CA6AAAA2ABE45
:10010000000000803F000000000800020100000322
:100110000407000000000000000001020408102095
:100120004080010204081020010204081020040489
:10013000040404040404020202020202030303038F
:100140000303000000002300260029000000000037
:10015000250028002B0000000000240027002A00B2
:10016000F022182911241FBECFEFD8E0DEBFCDBF8B
:1001700013E0A0E0B1E0E6E8F5E602C005900D92DC
:10018000A238B107D9F725E0A2E8B3E001C01D927B
:10019000AC35B207E1F711E0C4E6D1E004C0229724
:1001A000FE010E94A12DC036D107C9F70E943A2155
:1001B0000C94C1320C94000026E531E0FC0131833F
:1001C0002083089526E531E0FC01318320830895E2
:1001D00026E531E0FC01318320830C94292B26E5B0
:1001E00031E0FC01318320830C94292B0F931F9362
:1001F000CF93DF93EC0182E691E0998388837D833E
:100200006C8388E090E00E94272B8C010E94A5134C
:100210001B830A83C8010E94D71363E08A819B81F4
:100220000E94A91362E08A819B810E94BF1365E04E
:100230008A819B810E94B41360E08A819B810E9425
:10024000C813188A198A1A8A1B8A1C861D861E865C
:100250001F86DF91CF911F910F910895CF92DF926A
:10026000EF92FF92CF93DF93EC019C01265F3F4F0B
:10027000AC01485F5F4FBC016A5F7F4F8A819B8101
:100280000E94E9136E817F81882777FD8095982FE2
:100290000E94302F26EF38E24CE95FE30E94A53040
:1002A00027ED33EA40E75FE30E94A53020E030E02D
:1002B00048EB50E40E94C82D6B017C01688579856C
:1002C000882777FD8095982F0E94302F26EF38E2FF
:1002D0004CE95FE30E94A5302BE734E14EE65FE393
:1002E0000E94A53028EB3EE146E052E40E94C82D72
:1002F000A70196010E943B2E6B017C016C897D89D0
:100300008E899F890E947A029B01AC01C701B601C8
:100310000E94C82D6B017C0120E030E0A9010E9401
:100320008E2E87FF0AC02BED3FE049EC50E4C70159
:10033000B6010E94C82D6B017C01C701B6010E9465
:1003400081022C813D812115310539F0AB01BC01C1
:10035000C9010E942D089B0101C09B01A901BC019C
:100360004C875D876E877F87DF91CF91FF90EF90FD
:10037000DF90CF900895FC01448B558B668B778B73
:100380000895FC01408B518B628B738B0895CF9243
:10039000DF92EF92FF92FC012485358546855785D3
:1003A00060897189828993890E94C72D6B017C01C4
:1003B00020E030E044E353EC0E948E2E87FF09C01A
:1003C00020E030E044EB53E4C701B6010E94C82DA1
:1003D00012C020E030E044E353E4C701B6010E94BC
:1003E0009A30181654F420E030E044EB53E4C7018F
:1003F000B6010E94C72D6B017C01C701B601FF90B9
:10040000EF90DF90CF900895CF93DF93EC016DE0F4
:1004100071E08EEA93E00E9471234C855D856E85C4
:100420007F8522E030E08EEA93E00E946D2568E14E
:1004300071E08EEA93E00E947123488959896A89A4
:100440007B8922E030E08EEA93E00E946D256BE22A
:1004500071E08EEA93E00E947123CE010E94C701F1
:10046000AB01BC0122E030E08EEA93E0DF91CF9156
:100470000C946F25CF92DF92EF92FF920F931F9310
:10048000CF93DF936C01EB0120E431E040E050E0DA
:1004900060E070E0CE010E94CF06C6010E94C70155
:1004A0008B019C0184E0E82EF12C40E050E068E0F4
:1004B00070E0CE010E94EA0629E431E041E050E01C
:1004C00060E070E0CE010E94CF06F601048515853C
:1004D0002685378541E050E068E070E0CE010E945B
:1004E000EA06DF91CF911F910F91FF90EF90DF907F
:1004F000CF90089525E33AEF4EE85CE30E94A530E3
:10050000089520EE3EE245E652E40E94A5300895AB
:100510000F931F93CF93DF93EC0183E790E00E944A
:10052000272B8C010E94601A198308838FE190E0C9
:100530000E94272B8C0120E04BE06AE00E94892773
:100540001B830A8340E855E260E070E0C8010E9426
:10055000B9274091210350912203609123037091A8
:1005600024034C835D836E837F83488759876A8722
:100570007B8700911D0310911E0320911F03309172
:100580002003088B198B2A8B3B8B4C8B5D8B6E8BDE
:100590007F8B488F598F6A8F7B8FDF91CF911F910F
:1005A0000F910895CF93DF93EC018A819B81DC0149
:1005B000ED91FC910480F581E02D0995892B71F175
:1005C0008A819B81DC01ED91FC910680F781E02D11
:1005D0000995682F888199810E94671D8A819B8176
:1005E000DC01ED91FC910480F581E02D0995892BCA
:1005F00039F79E01245F3F4FAE01485F5F4FBE0158
:100600006C5F7F4F888199810E943D1E888199810E
:100610000E94AA1E688B798B8A8B9B8BDF91CF916E
:100620000895FC0164817581868197810895FC019C
:1006300060857185828593850895FC016485758543
:10064000868597850895CF92DF92EF92FF921F9350
:10065000CF93DF93EC01C0902103D0902203E09070
:100660002303F0902403A70196016C817D818E8184
:100670009F810E948E2E882371F011E0A7019601C0
:10068000688579858A859B850E948E2E811101C09F
:1006900010E0812F01C080E0DF91CF911F91FF908A
:1006A000EF90DF90CF9008954F925F926F927F927C
:1006B0008F929F92AF92BF92CF92DF92EF92FF9272
:1006C0000F931F93CF93DF93CDB7DEB760970FB62D
:1006D000F894DEBF0FBECDBF2A013B010D831E8300
:1006E0002F833887CB01BA010E947A0269837A830B
:1006F0008B839C83C701B6010E947A0269877A873F
:100700008B879C87A3019201C701B6010E94C72D68
:100710000E947A026B017C012D813E814F815885B8
:10072000C501B4010E94C72D0E947A026D837E83A9
:100730008F83988720E030E040E05FE3C701B60197
:100740000E94A5300E9408316B017C0169817A8189
:100750008B819C810E94922E2B013C0169857A85B8
:100760008B859C850E94922E69837A838B839C83E0
:1007700020E030E040E05FE36D817E818F819885ED
:100780000E94A5300E9408314B015C01A70196012F
:10079000C701B6010E94A5306B017C0129813A8115
:1007A0004B815C81C301B2010E94A5302B013C0149
:1007B000A5019401C501B4010E94A5309B01AC01C3
:1007C000C301B2010E94A5309B01AC01C701B60173
:1007D0000E94C82D6B017C019B01AC0160E070E0C0
:1007E00080E89FE30E94C72D0E9412319B01AC015B
:1007F000C701B6012D873E874F87588B0E94123163
:100800002D853E854F8558890E943B2E9B01AC016A
:100810000E94C82D20E73DE642EC5AE40E94A53034
:1008200060960FB6F894DEBF0FBECDBFDF91CF91BB
:100830001F910F91FF90EF90DF90CF90BF90AF90FE
:100840009F908F907F906F905F904F9008958F92C0
:100850009F92AF92BF92CF92DF92EF92FF920F934F
:100860001F93CF93DF93EC016A017B01480159018B
:100870000E942303882361F0088519852A853B851A
:100880004C815D816E817F81CE010E94540304C042
:1008900060E070E080E89FEBDF91CF911F910F91B6
:1008A000FF90EF90DF90CF90BF90AF909F908F9090
:1008B00008954F925F926F927F928F929F92AF9224
:1008C000BF92CF92DF92EF92FF920F931F93CF933D
:1008D000DF93CDB7DEB760970FB6F894DEBF0FBEDB
:1008E000CDBF09831A832B833C83CB01BA010E94BD
:1008F0007A022B013C01C701B6010E947A026B010A
:100900007C0129813A814B815C81C501B4010E943F
:10091000C72D0E947A024B015C010E9408316D8351
:100920007E838F839887C701B6010E94922E6983C8
:100930007A838B839C83C301B2010E94922E6987C4
:100940007A878B879C87C701B6010E9408319B017B
:10095000AC01C301B2012D873E874F87588B0E949F
:1009600008316B017C01C501B4010E94922E2B015C
:100970003C012D853E854F85588969857A858B8513
:100980009C850E94A5304B015C0129813A814B81F5
:100990005C81C701B6010E94A530A30192010E94AB
:1009A000A5309B01AC01C501B4010E94C72D6B01AC
:1009B0007C0129813A814B815C816D817E818F81AF
:1009C00098850E94A530A70196010E943B2E0E94A7
:1009D000810220E030E044EB53E40E94C82D20E087
:1009E00030E044EB53E460960FB6F894DEBF0FBEE0
:1009F000CDBFDF91CF911F910F91FF90EF90DF90CE
:100A0000CF90BF90AF909F908F907F906F905F90AE
:100A10004F900C94722F8F929F92AF92BF92CF9271
:100A2000DF92EF92FF920F931F93CF93DF93EC012E
:100A30006A017B01480159010E942303882361F068
:100A4000088519852A853B854C815D816E817F8172
:100A5000CE010E94590404C060E070E080E89FEB82
:100A6000DF91CF911F910F91FF90EF90DF90CF908A
:100A7000BF90AF909F908F90089526E531E0FC01E4
:100A800031832083089526E531E0FC013183208302
:100A90000C94292BAF92BF92CF92DF92EF92FF92EC
:100AA0000F931F93CF93DF935C01EB01FC018281D5
:100AB00093810E942303882309F4B1C0F5010281C8
:100AC0001381C0902103D0902203E0902303F09083
:100AD0002403A7019601F80164897589868997899D
:100AE0000E948E2E882309F45EC0A7019601F801AA
:100AF000608D718D828D938D0E948E2E882309F4D6
:100B000052C02AE631E040E050E060E070E0CE0103
:100B10000E94CF06F501828193810E9411038B010F
:100B20009C0193E0E92EF12C40E050E064E070E09D
:100B3000CE010E94EA062FE631E040E050E068E096
:100B400070E0CE010E94CF06F501828193810E9460
:100B500017038B019C0140E050E06BE070E0CE0198
:100B60000E94EA0624E731E041E050E060E070E0F6
:100B7000CE010E94CF06F50182819381FC01008D98
:100B8000118D228D338D44895589668977890E941C
:100B900027048B019C014FE0E42EF12C41E050E052
:100BA00063E070E02EC02AE631E040E050E060E013
:100BB00070E0CE010E94CF06F501828193810E94F0
:100BC00011038B019C018FE0E82EF12C40E050E0F6
:100BD00064E070E0CE010E94EA062FE631E041E0D9
:100BE00050E060E070E0CE010E94CF06F501828106
:100BF00093810E9417038B019C0141E050E064E067
:100C000070E0CE010E94EA06DF91CF911F910F9113
:100C1000FF90EF90DF90CF90BF90AF90089527E7BF
:100C200031E040E050E060E070E0CE010E94CF068D
:100C300025EA31E041E050E060E070E0CE01DF9174
:100C4000CF911F910F91FF90EF90DF90CF90BF90C9
:100C5000AF900C94CF06CF93DF93EC018A819B81F8
:100C60000E9423038823C1F160E871E08EEA93E0DB
:100C70000E9471238A819B810E941103AB01BC01F8
:100C80002FE030E08EEA93E00E946D2567E871E086
:100C90008EEA93E00E9471238A819B810E94170350
:100CA000AB01BC012FE030E08EEA93E00E946D259D
:100CB00061E971E08EEA93E00E9471238A819B8151
:100CC0000E941D03AB01BC012AE030E08EEA93E0F4
:100CD000DF91CF910C9470246BE971E08EEA93E080
:100CE000DF91CF910C948E2325EB31E0FC01318311
:100CF00020837383628308956F927F928F92AF9265
:100D0000CF92EF920F93CF93DF93EC0189E190E0C4
:100D10000E94272B3C0187E0882E96E0A92E25E033
:100D2000C22E34E0E32E00E021E042E067E2C3019E
:100D30000E94932079826882D301ED91FC91048016
:100D4000F581E02D20E042E064E1C301099588814E
:100D50009981DC01ED91FC910680F781E02D40E066
:100D600050E063E0099588819981DC01ED91FC9167
:100D70000084F185E02D61E0099588819981DF91FA
:100D8000CF910F91EF90CF90AF908F907F906F9019
:100D90000C94461FFC01808191810C943F1F0F939E
:100DA0001F93CF93DF93EC0189014230510568F422
:100DB000888199810E944D1FB80188819981DF91B6
:100DC000CF911F910F910C947123DF91CF911F91BF
:100DD0000F9108958F929F92AF92BF92EF92FF92E0
:100DE0000F931F93CF93DF93EC01480159014230D9
:100DF0005105A8F4888199810E944D1F9701B50182
:100E0000A40188819981DF91CF911F910F91FF906B
:100E1000EF90BF90AF909F908F900C946D25DF91D5
:100E2000CF911F910F91FF90EF90BF90AF909F9047
:100E30008F900895CF92DF92EF92FF920F931F93BE
:100E4000CF93DF93EC017B018A011982188288E03D
:100E500090E09B838A831D821C8280E190E00E9447
:100E6000272B6C018883D982FA86E9860C171D0727
:100E700009F482C0D80114968D919C9115974A81EE
:100E80005B814817590720F59B838A83880F991F38
:100E90000E94272B998388834C815D81F60120E095
:100EA00030E02417350789F0A881B981B901660FB0
:100EB000771FA60FB71F109721F0608171816D9386
:100EC0007C932F5F3F4F3296ECCFC6010E94292BB7
:100ED0008C819D81F80144815581BA018417950761
:100EE00008F4BC0120E030E02617370799F06901CB
:100EF000CC0CDD1CD801ED91FC91EC0DFD1DE080CA
:100F0000F180E881F981EC0DFD1DF182E0822F5F17
:100F10003F4FEACF8417950758F0F80184819581F7
:100F20002C813D818217930738F59D838C8324C0E3
:100F30009C01220F331FD80114964D915C91159797
:100F40008417950750F7F801A081B181A20FB31F54
:100F5000E881F981E20FF31F309721F04D915C9108
:100F6000518340834C815D814F5F5F4F5D834C8334
:100F700001962E5F3F4FDFCF18861F82DF91CF9102
:100F80001F910F91FF90EF90DF90CF9008950F93F6
:100F90001F93CF93DF93EC0189859A85009711F118
:100FA0000E94CA060F8118858C819D810817190738
:100FB00020F08DEB91E00E942F21000F111FE8819E
:100FC000F981E00FF11F80819181DC01ED91FC91AD
:100FD00069857A850680F781E02DDF91CF911F9199
:100FE0000F910994DF91CF911F910F910895FC010A
:100FF000878190850196648175810E94362D908746
:10100000878308950F931F93CF93DF938C016FEC29
:1010100071E08EEA93E00E948E23C0E0D0E0F801F8
:1010200084819581C817D90798F4CE01880F991F3C
:10103000D801ED91FC91E80FF91F80819181DC01CD
:10104000ED91FC910480F581E02D09952196E7CF83
:10105000DF91CF911F910F9108958F929F92AF9240
:10106000BF92CF92DF92EF92FF92CF93DF93EC018A
:10107000CB01BA01688B798B8A8B9B8BC880D98016
:10108000EA80FB80A70196010E94A5304B015C011C
:10109000A701960160E070E080E89FE30E94C72D01
:1010A0002C853D854E855F850E94A5309B01AC0156
:1010B000C501B4010E94C82D6C877D878E879F87EC
:1010C000DF91CF91FF90EF90DF90CF90BF90AF90E6
:1010D0009F908F90089526E531E0FC0131832083B5
:1010E000089526E531E0FC01318320830C94292BFF
:1010F000CF93DF93EC016CE172E08EEA93E00E9403
:1011000071236E897F894AE050E08EEA93E00E9465
:10111000432462E272E08EEA93E00E947123688DBC
:10112000798D4AE050E08EEA93E0DF91CF910C9404
:101130004B24CF92DF92EF92FF920F931F93CF93A6
:10114000DF936C01EB012BE232E040E050E060E025
:1011500070E0CE010E94CF06F60166897789882764
:1011600077FD8095982F0E94302F8B019C01EE24F3
:10117000E394F12C40E050E066E070E0CE010E9484
:10118000EA0622E332E041E050E060E070E0CE01A8
:101190000E94CF06F601608D718D882777FD8095BE
:1011A000982F0E94302F8B019C0141E050E066E0B7
:1011B00070E0CE010E94EA06DF91CF911F910F915E
:1011C000FF90EF90DF90CF9008952F923F924F9233
:1011D0005F926F927F928F929F92AF92BF92CF92C7
:1011E000DF92EF92FF920F931F93CF93DF93CDB7D0
:1011F000DEB73C01862F2D883E884F88588CEEE361
:10120000F2E0D3011196FC93EE9357961C921E9236
:10121000569759961C921E925897F3018686978688
:10122000A08AB18A52962D923D924D925C9255972A
:1012300012966C93129713967C93139715965C9362
:101240004E93149717963C932E93169719961C93CA
:101250000E9318971B96FC92EE921A971D96DC92AD
:10126000CE921C9761E00E94B62C61E0F30184816C
:101270000E94B62C61E0D30116968C910E94B62C88
:1012800061E0F30180850E94B62C61E0D3011A96DB
:101290008C910E94B62C61E0F3018485DF91CF919F
:1012A0001F910F91FF90EF90DF90CF90BF90AF9084
:1012B0009F908F907F906F905F904F903F902F9076
:1012C0000C94B62CCF93DF93EC01CB016F3F7105EB
:1012D00019F014F08FEF90E09F8B8E8BCA014F3F77
:1012E000510519F014F08FEF90E0998F888F61E02D
:1012F000181619060CF060E08A850E94EF2C61E058
:10130000888D998D181619060CF460E08C850E9462
:10131000EF2C61E08E899F89181619060CF060E0A9
:101320008C810E94EF2C61E08E899F891816190626
:101330000CF460E08E810E94EF2C6E897F898827F3
:1013400077FD8095982F0E94302F2E853F85488904
:1013500059890E94A5300E94FD2E8A810E942E2C60
:10136000688D798D882777FD8095982F0E94302F82
:101370002A893B894C895D890E94A5300E94FD2EF7
:101380008885DF91CF910C942E2CAF92BF92CF9293
:10139000DF92EF92FF920F931F93CF93DF931F92F1
:1013A000CDB7DEB75C018B0177FF02C000E010E033
:1013B00060E0F501848149830E94EF2C61E0F50132
:1013C00086810E94EF2C61E0F50182850E94EF2C5E
:1013D00060E0F50184850E94EF2C4981442391F05F
:1013E0006FEF70E0F50182810E942E2C6FEF70E0AC
:1013F000F50180850E942E2C64E670E080E090E08C
:101400000E94A42BB801882777FD8095982F0E9411
:10141000302F6B017C01F501268537854089518984
:101420000E94A5300E94FD2EF50182810E942E2C83
:10143000F5012289338944895589C701B6010E9483
:10144000A5300E94FD2EF50180850E942E2C882754
:101450009927801B910BF501978B868B118F008F3D
:101460000F90DF91CF911F910F91FF90EF90DF9040
:10147000CF90BF90AF900895CF93DF93EC0160E0E1
:101480008C810E94EF2C60E08E810E94EF2C60E046
:101490008A850E94EF2C60E08C850E94EF2C61E031
:1014A0008A810E94EF2C61E088850E94EF2C1F8AC0
:1014B0001E8A198E188EDF91CF9108956F927F92B8
:1014C0008F929F92AF92BF92CF92DF92EF92FF9254
:1014D0000F931F93CF93DF93EC013C0181E4680EDF
:1014E000711C4E01EDE38E0E911CCE01C9961F9228
:1014F0001F92FF92EF92DF92CF92580169017A0119
:101500008B019301A401BC01CE010E94E119F301FA
:10151000108211821282138219AE1AAE1BAE1CAE5B
:10152000F40110821182128213820F900F900F909B
:101530000F900F900F90DF91CF911F910F91FF901F
:10154000EF90DF90CF90BF90AF909F908F907F9063
:101550006F900895FC0141AF52AF63AF74AF08952F
:10156000CD96FC016081718182819381089526E589
:1015700031E0FC0131832083089526E531E0FC0150
:10158000318320830C94292BCF93DF93EC0166E405
:1015900072E08EEA93E00E9471238A819B810E940F
:1015A0004E1AAB01BC0122E030E08EEA93E00E94CB
:1015B0006D256CE472E08EEA93E00E9471238A81CB
:1015C0009B810E94541AAB01BC0122E030E08EEAFC
:1015D00093E00E946D2564E572E08EEA93E00E943C
:1015E00071238A819B810E945A1AAB01BC0122E0BF
:1015F00030E08EEA93E00E946D256CE572E08EEAA1
:1016000093E00E9471238A819B810E94B00AAB0102
:10161000BC0122E030E08EEA93E0DF91CF910C94A0
:101620006F25CF92DF92EF92FF920F931F93CF938C
:10163000DF936C01EB0129E632E040E050E060E02E
:1016400070E0CE010E94CF06F601828193810E9454
:101650004E1A8B019C0182E0E82EF12C40E050E014
:1016600063E070E0CE010E94EA062DE632E040E041
:1016700050E069E070E0CE010E94CF06F601828161
:1016800093810E94541A8B019C0140E050E06CE071
:1016900070E0CE010E94EA0621E732E041E050E02E
:1016A00060E070E0CE010E94CF06F6018281938156
:1016B0000E945A1A8B019C0141E050E063E070E007
:1016C000CE010E94EA0625E732E041E050E069E001
:1016D00070E0CE010E94CF06F601828193810E94C4
:1016E000B00A8B019C0141E050E06BE070E0CE015C
:1016F0000E94EA06DF91CF911F910F91FF90EF902A
:10170000DF90CF9008952CE732E0FC0131832083F5
:101710007383628308950F93FC0171836083428316
:1017200023830483158216821782108644EC59E0C5
:1017300060E070E04187528763877487158616865C
:101740001786108A44E650E060E070E0418B528BCF
:10175000638B748B158A168A178A108E44EF51E0BA
:1017600060E070E0418F528F638F748F0F91089506
:101770002F923F924F925F926F927F928F929F92A1
:10178000AF92BF92CF92DF92EF92FF920F931F938F
:10179000CF93DF9300D000D000D0CDB7DEB79E83CB
:1017A0008D83FC0182810E94112C8C01ED81FE81D0
:1017B00083810E94112C4C01ED81FE8184810E9465
:1017C000112C1C01ED81FE81A580B680C780D084DC
:1017D000B801882777FD8095982F24852F9323853E
:1017E0002F9322852F9321852F93EE24EA9413E0E3
:1017F000F12E00E010E020E030E0A9010E948125F8
:101800002B013C01ED81FE81A584B684C784D0887C
:10181000B401882777FD8095982F24892F932389F9
:101820002F9322892F9321892F9320E030E0A90163
:101830000E94812569837A838B839C83ED81FE815D
:10184000A588B688C788D08CB101882777FD809598
:10185000982F248D2F93238D2F93228D2F93218DBD
:101860002F9320E030E0A9010E9481250E94302FB3
:1018700020E030E048EC52E40E94952E6B017C01A0
:1018800069817A818B819C810E94302F20E030E039
:1018900048EC52E40E94952E4B015C01C301B20159
:1018A0000E94302F20E030E048EC52E40E94952E58
:1018B000AB01BC0195018401ED81FE8180819181A4
:1018C0000E94C8170FB6F894DEBF0FBECDBF269694
:1018D0000FB6F894DEBF0FBECDBFDF91CF911F9141
:1018E0000F91FF90EF90DF90CF90BF90AF909F90BF
:1018F0008F907F906F905F904F903F902F900895C2
:10190000FC01838994890C94F707CF93DF93EC0152
:1019100089859A850E94B80B8B899C890E94020850
:101920008B899C89DF91CF910C94C707CF93DF936C
:10193000EC0189899A890E944B118F859889DF91E2
:10194000CF910C942E01CF92DF92EF92FF92CF9322
:10195000DF93EC018D819E810E942303882399F1FE
:10196000C9A0DAA0EBA0FCA08D819E810E9411038A
:101970009B01AC01C701B6010E948E2E811110C0DF
:10198000CDA0DEA0EFA0F8A48D819E810E94170358
:101990009B01AC01C701B6010E948E2E882399F0ED
:1019A0008D819E810E94110369A37AA38BA39CA3BE
:1019B0008D819E810E9417036DA37EA38FA398A79C
:1019C00081E089A701C019A6DF91CF91FF90EF9028
:1019D000DF90CF9008950F931F9303ED1BE425E94B
:1019E00031E446EC5FEC65E372E4FC0185819681AD
:1019F0000E94270420E030E040E85FE30E948E2E42
:101A0000881F8827881F1F910F910895CF93DF9318
:101A1000EC0181E0888340E06FEF70E08F81988572
:101A20000E94C50960EA7FE080E090E00E94A42B5C
:101A30008F819885DF91CF910C943C0A0F931F936F
:101A4000CF93DF93EC0103ED1BE425E931E446EC91
:101A50005FEC65E372E48D819E810E940B05AB0112
:101A6000BC018F859889DF91CF911F910F910C94C4
:101A7000C101CF93DF93EC018F8598890E94C70144
:101A8000AB01BC018B859C850E94AA0A8B859C8535
:101A9000DF91CF910C94A816CF92DF92EF92FF9234
:101AA0000F931F93CF93DF938B01EA01FC01838592
:101AB00094850E94B00A6B017C0120E030E0A9010E
:101AC0000E949A30181694F4A701960160E070E025
:101AD0008FE793E40E94C72D0E94FD2E6A307105A6
:101AE00014F46AE070E08FEF90E012C020E030E084
:101AF0004FE753E4C701B6010E94C82D0E94FD2E96
:101B0000CB016A30710514F48AE090E06FEF70E069
:101B1000F8017183608399838883DF91CF911F914E
:101B20000F91FF90EF90DF90CF900895EF92FF928A
:101B30000F931F93CF93DF93EC017B018A018D817B
:101B40009E810E9423038823A1F089A5882319F090
:101B5000CE010E941E0DCE010E94390DA801B701D1
:101B6000CE01DF91CF911F910F91FF90EF900C94D8
:101B70004C0DDF91CF911F910F91FF90EF90089541
:101B8000FC01878190850C9462090F931F93CF937A
:101B9000DF9300D000D0CDB7DEB78C010E94960C49
:101BA000C8010E94A30CF80181A5882329F0C8016F
:101BB0000E94EB0C81111DC0F801818992890E945D
:101BC000C011882329F01C821B821A82198209C045
:101BD000AE014F5F5F4FBE016D5F7F4FC8010E9436
:101BE000960D49815A816B817C81C8010E94C00D8C
:101BF00003C0C8010E94060D0F900F900F900F9028
:101C0000DF91CF911F910F910895CF92DF92EF92C4
:101C1000FF92CF93DF93EC018881811168C00E940D
:101C2000752BC98CDA8CEB8CFC8C9B01AC012C19CC
:101C30003D094E095F0969017A0132E3C316D104F7
:101C4000E104F10438F0698F7A8F8B8F9C8FCE017D
:101C50000E94C50D0E94752B6B017C01898D9A8DA8
:101C6000AB8DBC8DA7019601281B390B4A0B5B0B72
:101C70002531310541055105D0F58D819E810E94A8
:101C8000D2028D899E89AF89B88DA7019601281B44
:101C9000390B4A0B5B0BDA01C901883E9340A10561
:101CA000B10538F0CD8ADE8AEF8AF88ECE010E9427
:101CB000850C8D8D9E8DAF8DB8A1A7019601281B37
:101CC000390B4A0B5B0BDA01C90188389341A10536
:101CD000B10568F0CD8EDE8EEF8EF8A2CE01DF91D9
:101CE000CF91FF90EF90DF90CF900C94800CDF911C
:101CF000CF91FF90EF90DF90CF900895CF92DF9239
:101D0000EF92FF920F931F93CF93DF93EC017B0130
:101D10008C819D818C010F5F1F4F8017910708F008
:101D200046C04A815B814017510750F50996481714
:101D3000590730F5C880D9809B838A83880F991F03
:101D40000E94272B998388834C815D81F60120E0D6
:101D500030E02417350789F0A881B981B901660FF1
:101D6000771FA60FB71F109721F0608171816D93C7
:101D70007C932F5F3F4F3296ECCFC6010E94292BF8
:101D80008C819D819C01220F331F8017910790F455
:101D9000E881F981E20FF31F309729F0D7014D91C7
:101DA0005C915183408301962E5F3F4FEECF081721
:101DB000190710F41D830C83DF91CF911F910F91B0
:101DC000FF90EF90DF90CF9008954F925F926F92C7
:101DD0007F928F929F92AF92BF92CF92DF92EF92BB
:101DE000FF920F931F93CF93DF93CDB7DEB72E975C
:101DF0000FB6F894DEBF0FBECDBF3C0126E040E831
:101E000055E260E070E08EEA93E00E942C2264E8E4
:101E100072E08EEA93E00E948E2364E670E080E038
:101E200090E00E94A42B88E190E00E94272B8C0177
:101E300060E070E00E94F600F301108B07874DED23
:101E40005DED65E870E4C8010E94BB0185E190E0AA
:101E50000E94272B8C010E944612F301128B018BEA
:101E60008CE190E00E94272B8C010E948802F301F4
:101E70001683058346EC5FEC65E372E4F801448B5E
:101E8000558B668B778B43ED5BE465E971E4408F9E
:101E9000518F628F738F8AE190E00E94272B2C0173
:101EA0008FE38F9380E88F931F921F92812C912C48
:101EB000E0E8AE2EEFE3BE2EF7E0CF2ED12CA5E06A
:101EC000EA2EF12C06E010E024E030E042E050E0A1
:101ED00063E070E0C2010E94E508F301508647828A
:101EE00085E490E00E94272B4C01A12CB12CBFE887
:101EF000CB2EB2ECDB2EB5EFEB2EBDE3FB2E0AE0D2
:101F000017ED23E23CE340E050E060E771E40E941B
:101F10005E0AF3019486838661E070E0C4010E944A
:101F20008F1900E010E02FE733E440E050E06FE766
:101F300073ECF301838594850E94C91862E370E015
:101F4000F301838594850E947B188DE190E00E94C7
:101F5000272B4C01F301638574850FE024E145E1F3
:101F60000E948B0BF3019286818682E090E00E94B2
:101F7000272B8C010E947C06F301128301831986B2
:101F8000188688E090E09B878A871D861C8680E102
:101F900090E00E94272B99878887F3018189928995
:101FA0000F900F900F900F90009749F09A838983BC
:101FB000BE016F5F7F4FCE0108960E947E0EF30137
:101FC00085819681892BB1F084E090E00E94272BD7
:101FD0008C01F301658176810E947406F3011483FC
:101FE00003831A830983BE016F5F7F4FCE0108967A
:101FF0000E947E0EF30183859485892BB1F084E0E5
:1020000090E00E94272B8C01F301638574850E9468
:10201000830BF301168705871A830983BE016F5F5F
:102020007F4FCE0108960E947E0E8C859D859E83F3
:102030008D8308969C838B83880F991F0E94272B82
:102040009A8389834D815E8180E090E084179507B3
:1020500099F0A885B9859C01220F331FA20FB31FE9
:10206000E981FA81E20FF31F309721F02D913C9125
:10207000318320830196EACF8BE090E00E94272BEA
:102080008C01F30161817281AE014F5F5F4F0E944D
:102090001A07F301148B038B89819A810E94292BE3
:1020A000888599850E94292B2E960FB6F894DEBF5D
:1020B0000FBECDBFDF91CF911F910F91FF90EF9099
:1020C000DF90CF90BF90AF909F908F907F906F9058
:1020D0005F904F900895CF93DF93EC0160E972E039
:1020E0008EEA93E00E9471238A819B810E949F1354
:1020F000AB01BC012AE030E08EEA93E00E94632449
:1021000065E972E08EEA93E00E9471238E819F81DF
:102110000E949F13AB01BC012AE030E08EEA93E0FD
:102120000E9463246EE972E08EEA93E00E947123BC
:102130008C819D810E949F13AB01BC012AE030E09D
:102140008EEA93E00E94632467EA72E08EEA93E0ED
:102150000E9471238A859B850E949F13AB01BC015D
:102160002AE030E08EEA93E00E9463246FEA72E096
:102170008EEA93E00E947123888599850E949F13BF
:10218000AB01BC012AE030E08EEA93E0DF91CF9111
:102190000C947024CF92DF92EF92FF920F931F93D3
:1021A000CF93DF936C01EB01FC01868197810E9444
:1021B0009F130E942E2F8B019C01E12CF12C40E0FB
:1021C00050E061E070E0CE010E94EA06F6018281F3
:1021D00093810E949F130E942E2F8B019C0140E04F
:1021E00050E067E070E0CE010E94EA06F6018481CB
:1021F00095810E949F130E942E2F8B019C0140E02D
:1022000050E06DE070E0CE010E94EA06F6018285A2
:1022100093850E949F130E942E2F8B019C0141E009
:1022200050E061E070E0CE010E94EA06F601808590
:1022300091850E949F130E942E2F8B019C0141E0EB
:1022400050E06DE070E0CE010E94EA06DF91CF9190
:102250001F910F91FF90EF90DF90CF900895CF9353
:10226000DF93EC018BEB92E0998388838E859F85C9
:102270000E94292B86E591E099838883DF91CF9195
:102280000895CF93DF93EC010E942F11CE01DF91CF
:10229000CF910C94292B0F931F93CF93DF93EC01D5
:1022A0002A893B898C859D850196B9010E94362D2E
:1022B0008C019D878C878217930720F08DEB91E02E
:1022C0000E942F21000F111FEE85FF85E00FF11FE7
:1022D00080819181DF91CF911F910F910C946B13AD
:1022E000FC01828193810C949F13FC018481958170
:1022F0000C949F13FC01868197810C949F13FC0121
:10230000808591850C949F13FC01828593850C94A4
:102310009F130E94701121E06E31710581059105B6
:1023200008F020E0822F08950E94751121E06E319F
:1023300071058105910508F020E0822F08950E9423
:102340007A1121E06E3171058105910508F020E0D8
:10235000822F08950E947F1121E06E317105810561
:10236000910508F020E0822F08950E94841121E059
:102370006E3171058105910508F020E0822F0895E6
:10238000CF93DF93EC010E948911811114C0CE011B
:102390000E94941181110FC0CE010E949F118111E2
:1023A0000AC0CE010E94AA11811105C0CE01DF91A1
:1023B000CF910C94B51181E0DF91CF910895CF9228
:1023C000DF92EF92FF920F931F93CF93DF93EC0175
:1023D0007B018C819D818C010F5F1F4F80179107BE
:1023E00008F046C04A815B814017510750F50996B5
:1023F0004817590730F5C880D9809B838A83880F96
:10240000991F0E94272B998388834C815D81F60157
:1024100020E030E02417350789F0A881B981B9019F
:10242000660F771FA60FB71F109721F0608171818B
:102430006D937C932F5F3F4F3296ECCFC6010E9485
:10244000292B8C819D819C01220F331F80179107BE
:1024500090F4E881F981E20FF31F309729F0D7015A
:102460004D915C915183408301962E5F3F4FEECF9B
:102470000817190710F41D830C83DF91CF911F916A
:102480000F91FF90EF90DF90CF900895EF92FF9221
:102490000F931F93CF93DF93EC018BEB92E0998323
:1024A00088838E01025F1F4F1F861E8688E090E0A2
:1024B000998B888B1B8A1A8A80E190E00E94272BD7
:1024C0009F878E8788E090E00E94272B7C014CE05C
:1024D00050E06CE070E00E941D13FB82EA8288E00D
:1024E00090E00E94272B7C014EE050E06EE070E00F
:1024F0000E941D13FD82EC8288E090E00E94272B51
:102500007C014DE050E06DE070E00E941D13FF8201
:10251000EE8288E090E00E94272B7C0148E050E0AA
:1025200068E070E00E941D13F986E88688E090E07C
:102530000E94272B7C0149E050E069E070E00E9496
:102540001D13FB86EA86BE016A5F7F4FC8010E94A9
:10255000DF11BE01685F7F4FC8010E94DF11BE011D
:102560006E5F7F4FC8010E94DF11BE01665F7F4F23
:10257000C8010E94DF11BE016C5F7F4FC8010E943D
:10258000DF111D861C86DF91CF911F910F91FF9067
:10259000EF90089526E531E0FC0131832083089512
:1025A00026E531E0FC01318320830C94292BCF9365
:1025B000DF93EC0163EC72E08EEA93E00E947123FA
:1025C0004A815B816C817D812AE030E08EEA93E074
:1025D0000E9463246FEC72E08EEA93E0DF91CF916A
:1025E0000C948E23EF92FF920F931F93CF93DF9360
:1025F0008C01EB0123ED32E040E050E060E070E060
:10260000CE010E94CF06F801628173818481958199
:102610000E942E2F8B019C01EE24E394F12C41E0CB
:1026200050E060E070E0CE010E94EA06DF91CF91B9
:102630001F910F91FF90EF900895CF92DF92FF923C
:102640000F931F93CF93DF931F92CDB7DEB76C012B
:10265000F42E87EE92E0F6019183808382E190E090
:1026600069830E94272B8C012CE330E06981462F7F
:102670006F2D0E947715F601178306834FE352E40E
:102680006FE070E042835383648375830F90DF9122
:10269000CF911F910F91FF90DF90CF900895FC0193
:1026A000868197810E946C16AC0160E070E0DB01CE
:1026B000CA010197A109B109CC97A105B10528F07C
:1026C0003FE322E48FE090E003C0342F252FCB01BD
:1026D000632F722F0895CF92DF92EF92FF92CF93E4
:1026E000DF93EC010E94752B6B017C01CE010E94EF
:1026F0004F13AB01BC014A835B836C837D832AE06B
:1027000030E08EEA93E00E94632461EE72E08EEA8C
:1027100093E00E9471230E94752BAB01BC014C1900
:102720005D096E097F092AE030E08EEA93E0DF91CF
:10273000CF91FF90EF90DF90CF900C947024FC012C
:10274000628173818481958108952EE1FC0120834B
:1027500008950F93062F22E046E060E0FC0180819F
:102760000E9431150F9108950F93062F23E044E046
:1027700060E0FC0180810E9431150F910895462F81
:102780004295440F407E61E0FC0180810C946A1404
:102790001F93CF93DF93EC01162F462F62E08881C1
:1027A0000E946A141F83DF91CF911F910895CF93E8
:1027B000DF93EC0140E760E088810E946A1461E0E9
:1027C000CE010E94BF1361E0CE01DF91CF910C9446
:1027D000C813AF92BF92CF92DF92EF92FF920F9306
:1027E0001F93CF93DF93EC017B015A0169010091A4
:1027F0000A0110910B019C012F5F3F4F46E063E0FF
:1028000088810E947A148F81813029F441E062E04E
:1028100088810E946A14898190E0982F88272A81F4
:10282000822BF701918380838D8190E0982F8827F8
:102830002E81822BF501918380838B8190E0982FEC
:1028400088272C81822BF60191838083DF91CF91A1
:102850001F910F91FF90EF90DF90CF90BF90AF90BE
:102860000895EF92FF920F931F93CF93DF9300D0C1
:10287000CDB7DEB7062F142F682F8FE894E0298399
:102880003A830E94F828602F8FE894E00E949F28E6
:102890002981022FE22E3A81F32E8E2D801B811783
:1028A00040F4F70161917F018FE894E00E949F2836
:1028B000F4CF8FE894E00E94152991E0811190E017
:1028C000892F0F900F90DF91CF911F910F91FF9063
:1028D000EF900895CF93DF931F92CDB7DEB7498372
:1028E0009E012F5F3F4F41E00E9431140F90DF9116
:1028F000CF9108953F924F925F926F927F928F9205
:102900009F92AF92BF92CF92DF92EF92FF920F937E
:102910001F93CF93DF9300D000D000D0CDB7DEB7A8
:10292000682E562E742E3A8329830E94752B6B01D4
:102930007C01312C412C872D90E09C838B834801B6
:10294000A12CB12C3714B0F5662D8FE894E00E94CD
:10295000F828652D8FE894E00E949F288FE894E086
:102960000E941529662D8FE894E00E94F8284B817B
:102970005C81431951094132510514F040E250E0A5
:10298000662D8FE894E00E94F5288FE894E00E947D
:102990004728892B59F10115110579F10E94752BF2
:1029A0006C197D098E099F09681579058A059B05B3
:1029B00020F11CC00115110589F10E94752B6C19BD
:1029C0007D098E099F0920E030E0601771078207BA
:1029D000930720F1872D90E0242D332727FD309594
:1029E00028173907DCF444244A9418C0872D90E254
:1029F000971508F480E2380EA5CFE981FA81E40D3D
:102A0000F11D47FCFA95FE83ED838FE894E00E9468
:102A10004F28ED81FE8180834394B7CF842D269685
:102A20000FB6F894DEBF0FBECDBFDF91CF911F91DF
:102A30000F91FF90EF90DF90CF90BF90AF909F905D
:102A40008F907F906F905F904F903F9008950F937D
:102A50001F9389019A0141E00E947A141F910F91FE
:102A60000895DF92EF92FF920F931F93CF93DF931E
:102A70001F92CDB7DEB7F82EE62ED42E122F20915E
:102A80000A0130910B01AE014F5F5F4F0E94271585
:102A9000882319F14D2D50E0411B51094F5F5F4FC5
:102AA000E1E0F0E002C0EE0FFF1F1A95E2F7319768
:102AB000042E01C0EE0F0A94EAF701C0000F4A95F8
:102AC000EAF74E2F409589814823E0234E2B498316
:102AD0006E2D8F2D0E946A1401C080E00F90DF914F
:102AE000CF911F910F91FF90EF90DF900895CF93BA
:102AF000DF93DC0170E0FB01E65EFE4FE49114968B
:102B0000EC931497842F90E0FC01E65EFE4FE49175
:102B10001596EC931597625D7E4FFB01C491D0E052
:102B2000CC0FDD1FC45BDE4FFE014591549117961B
:102B30005C934E931697FC01E25DFE4F849190E00A
:102B4000880F991F8E5B9E4FFC01459154911B96F7
:102B50005C934E931A97FB016491E62FF0E0EE0F21
:102B6000FF1FEA5AFE4F8591949119969C938E937C
:102B70001897C901253FF1E03F0714F084EF91E079
:102B800049E3489F9001499F300D1124245E3F4F37
:102B90001D963C932E931C97DF91CF9108950F9330
:102BA0001F93CF93DF93EC01E885F98580819C81A9
:102BB000892B8083EE81FF8190818C818095892390
:102BC000808384E090E00E94CC2BEE81FF818081A5
:102BD0009C81892B80838AE090E00E94CC2BEE813F
:102BE000FF8190818C81809589238083E885F98598
:102BF00090818C818095892380830E94812B605BEA
:102C0000794B8F4F9F4F6E877F87888B998BEA8593
:102C1000FB8580819D81892359F00E94812B0E853F
:102C20001F8528893989061717072807390778F774
:102C3000EA85FB8580819D81892369F40E94812B2F
:102C40000E851F8528893989061717072807390730
:102C500078F780E00DC00E94812B2C853D85620FA6
:102C6000731F811D911D6E877F87888B998B81E0F3
:102C7000DF91CF911F910F9108950F931F93CF93E1
:102C8000DF93EC010E94CF15882389F0EA85FB854C
:102C900080819D81892371F00E94812B0E851F8583
:102CA00028893989061717072807390778F720E098
:102CB00030E00CC00E94812B2C853D8525503109C8
:102CC0004E855F85241B350B260F371FC901DF9109
:102CD000CF911F910F9108950E943D1631E020E0A1
:102CE000009709F430E04C9669E370E00E94362DBD
:102CF000832F922F8617970708F4CB0108951F9210
:102D00000F920FB60F9211242F933F934F935F931F
:102D10006F937F938F939F93AF93BF93EF93FF93A3
:102D2000E0918203F0918303309709F00995FF91B8
:102D3000EF91BF91AF919F918F917F916F915F9133
:102D40004F913F912F910F900FBE0F901F901895AC
:102D50002F923F924F925F926F927F928F929F92AB
:102D6000AF92BF92CF92DF92EF92FF920F931F9399
:102D7000CF93DF93CDB7DEB72B970FB6F894DEBFB6
:102D80000FBECDBF9B878A87DC01D896BC91B983E3
:102D9000B11102C01982E2C00E94752B6A837B8345
:102DA0008C839D83EA85FB8580A191A1A2A1B3A11B
:102DB0004A815B816C817D81481B590B6A0B7B0BBF
:102DC00084A595A5A6A5B7A5481759076A077B0747
:102DD00008F3028CF38DE02D80809180A280B38077
:102DE000AA85BB855E96ED91FC915F97A501940144
:102DF00060817181828193810E94C72D2B013C01EA
:102E0000EA85FB8520893189428953890E94A53052
:102E1000AA85BB8594962D913D914D915C91979794
:102E20000E94C82D6B017C01EA85FB8564A375A314
:102E300086A397A324A835A806A917A99101A801DC
:102E40000E949A3018161CF4C101D80118C0AA8536
:102E5000BB85D0968D919D910D90BC91A02D8E83B8
:102E60009F83A887B9879C01AD01C701B6010E9465
:102E70008E2E87FF0AC08E819F81A885B985EA853D
:102E8000FB8584A395A3A6A3B7A3AA85BB851C969F
:102E90002D913D914D915C911F97C301B2010E940C
:102EA000A530EA85FB8524A135A146A157A10E9442
:102EB000C82D6B017C01AA85BB8598962D913D910B
:102EC0004D915C919B97C501B4010E94C72DEA8585
:102ED000FB8524893589468957890E94A5309B0145
:102EE000AC01C701B6010E94C72D6B017C019101A5
:102EF000A8010E949A301816BCF0AA85BB85D0960E
:102F00002C90D097D1963C90D197D2960C91D29795
:102F1000D3961C919101A801B601C7010E948E2E83
:102F200087FD02C016018701AA85BB855C96ED91DD
:102F3000FC915D97C101D80180839183A283B38303
:102F4000EA85FB8580A691A6A2A6B3A68A819B816D
:102F5000AC81BD8180A391A3A2A3B3A389812B9649
:102F60000FB6F894DEBF0FBECDBFDF91CF911F919A
:102F70000F91FF90EF90DF90CF90BF90AF909F9018
:102F80008F907F906F905F904F903F902F9008951B
:102F90002F923F924F925F926F927F928F929F9269
:102FA000AF92BF92CF92DF92EF92FF920F931F9357
:102FB000CF93DF9300D000D0CDB7DEB71C012A013C
:102FC0003B014801590120E030E0A901C301B201F1
:102FD0000E948E2E87FD78C020E030E0A901C50157
:102FE000B4010E948E2E87FD6FC020E030E0A90161
:102FF000C701B6010E948E2E87FD66C0F101408296
:1030000051826282738284829582A682B782C08650
:10301000D186E286F38664A575A586A597A50E944C
:103020002E2F20E030E04AE754E40E94952E698379
:103030007A838B839C83F1014486558666867786E6
:103040009B01AC01C501B4010E94A5304B015C019C
:10305000F101608B718B828B938B29813A814B813B
:103060005C81C701B6010E94952E6B017C01F101C4
:10307000648B758B868B978B808D918D019721F555
:10308000A301920160E070E0CB010E94C72DF10125
:103090006487758786879787A501940160E070E053
:1030A000CB010E94C72DF101608B718B828B938BBA
:1030B000A701960160E070E0CB010E94C72DF101ED
:1030C000648B758B868B978B0F900F900F900F9062
:1030D000DF91CF911F910F91FF90EF90DF90CF90F4
:1030E000BF90AF909F908F907F906F905F904F9028
:1030F0003F902F9008958F929F92AF92BF92CF9260
:10310000DF92EF92FF92CF93DF93EC011616170632
:10311000ACF56B01EE24D7FCE094FE2CC701B601A0
:103120000E94302F4B015C016CA57DA58EA59FA54B
:103130000E942E2F9B01AC01C501B4010E94952E67
:103140004B015C019B01AC01688979898A899B8963
:103150000E94A530688B798B8A8B9B8BA50194018B
:103160006C897D898E899F890E94952E6C8B7D8BC1
:103170008E8B9F8BCCA6DDA6EEA6FFA6DF91CF910E
:10318000FF90EF90DF90CF90BF90AF909F908F9087
:1031900008952F923F924F925F926F927F928F92FB
:1031A0009F92AF92BF92CF92DF92EF92FF920F93D6
:1031B0001F93CF93DF93EC016A017B014801590112
:1031C000A9019801C701B6010E949A3087FF4EC03D
:1031D000C8AAD9AAEAAAFBAA8CAA9DAAAEAABFAA83
:1031E00088AD882309F442C02C8C3D8CF1014080CD
:1031F000518062807380A5019401C301B2010E94D5
:103200009A30181634F4F10180829182A282B3823E
:103210000DC0A7019601C301B2010E948E2E87FF47
:1032200005C0F101C082D182E282F3828CA09DA010
:10323000AEA0BFA0CCA8DDA8EEA8FFA8A70196016C
:10324000C501B4010E949A30181664F0C8A8D9A824
:10325000EAA8FBA8A7019601C501B4010E948E2E21
:1032600087FF04C0CCA2DDA2EEA2FFA2DF91CF9126
:103270001F910F91FF90EF90DF90CF90BF90AF9094
:103280009F908F907F906F905F904F903F902F9086
:1032900008958F929F92AF92BF92CF92DF92EF925A
:1032A000FF92CF93DF93EC01EC8DFD8DC080D18038
:1032B000E280F380CCA2DDA2EEA2FFA2EA8DFB8D1C
:1032C00080819181A281B38188A799A7AAA7BBA772
:1032D0008CA89DA8AEA8BFA8A5019401C701B601FE
:1032E0000E949A30181664F088A899A8AAA8BBA8CA
:1032F000A5019401C701B6010E948E2E87FF04C06C
:103300008CA29DA2AEA2BFA2DF91CF91FF90EF90C1
:10331000DF90CF90BF90AF909F908F9008951F93B4
:10332000CF93DF93EC0111E06130710509F010E0FB
:1033300088AD91E08927181303C0CE010E94491976
:1033400018AFDF91CF911F9108950F931F93CF93E3
:10335000DF93EC018B0188AD882361F1888D998D15
:103360006817790739F12C853D854E855F8560E0CA
:1033700070E0CB010E94C72D6C877D878E879F8769
:10338000288939894A895B8960E070E0CB010E9415
:10339000C72D688B798B8A8B9B8B2C893D894E89B5
:1033A0005F8960E070E0CB010E94C72D6C8B7D8B44
:1033B0008E8B9F8B198F088FDF91CF911F910F916B
:1033C00008954F925F926F927F928F929F92AF92E9
:1033D000BF92CF92DF92EF92FF920F931F93CF9302
:1033E000DF9300D000D0CDB7DEB74C012701380104
:1033F000A982BA82CB82DC82FC01558F448F738F05
:10340000628F378F268F10AE10AA11AA12AA13AAA4
:1034100080E090E0AFE7B3E484AB95ABA6ABB7AB8D
:1034200084E690E0A0E0B0E084A795A7A6A7B7A7A0
:103430006B8D7C8DC4010E94A519CF88D88CE98C36
:10344000FA8C09811A812B813C81B301A201C4014C
:103450000E94C8170E94752BF40144A455A466A4C9
:1034600077A4641975098609970960A371A382A3DB
:1034700093A30F900F900F900F90DF91CF911F911A
:103480000F91FF90EF90DF90CF90BF90AF909F9003
:103490008F907F906F905F904F900895FC016081B6
:1034A0007181828193810895FC0164817581868197
:1034B00097810895FC0160857185828593850895C3
:1034C0000F931F93FC010FEF1FEF980100831183EF
:1034D0002283338310861186128613864FEF59ECB0
:1034E0006AE97BE3408B518B628B738B408F518FEA
:1034F000628F738F40A351A362A373A340A751A708
:1035000062A773A740AB51AB62AB73AB00AF11AF17
:1035100022AF33AFDC01A05CBF4F8FEF90E011967C
:103520009C938E9314960D931D932D933C93139718
:1035300018960D931D932D933C93139718961C92F8
:1035400011961C92509682E08C9311961C921196C3
:103550001C9211961C9211961D921D921D921C9206
:103560001397149611961C921E9212961D921C92FD
:10357000EA5AFF4F10821F910F9108952FEB260FEB
:10358000862F992787FD9095263010F4C7970895C8
:103590006156663018F4875591090895C0970895CB
:1035A0000F931F93FB0160E070E0CB01019120EDD0
:1035B000200F2A30A0F4AAE0B0E09B01AC010E94E9
:1035C000A52D112707FD1095212F312F600F711F99
:1035D000821F931F6053710981099109E7CF1F91E1
:1035E0000F9108950F931F93CF93FC01EA5AFF4F59
:1035F000C1E020812D3219F0C0E08F0103C08C01A1
:10360000095A1F4FB8010E94D01A9B01AC01A4E6D1
:10361000B0E00E94A52DF801DF01219130ED320FBD
:103620003A30D0F32E3269F511962C91119730ED86
:10363000320F3A3030F5332727FD309520533109CA
:103640004AE0429F8001439F100D1124222717FD5D
:103650002095322F600F711F821F931F12960C91BD
:1036600020ED200F2A3068F4112707FD1095005334
:103670001109222717FD2095322F600F711F821F1D
:10368000931FCC2339F090958095709561957F4F6D
:103690008F4F9F4FCF911F910F9108954F925F923F
:1036A0006F927F928F929F92AF92BF92CF92DF9252
:1036B000EF92FF92CF93DF93EC01CA5ADF4FBE0126
:1036C0000E94D01A2B013C0124E630E040E050E09B
:1036D0000E945E2D9B01AC0160EA76E881E090E0FB
:1036E0000E94262D6B017C01FE01819190ED980FC7
:1036F0009A30D8F38E3219F5EF0180E1882E87E2F7
:10370000982EA12CB12CA99180ED8A0F8A30B8F4A3
:10371000BB27A7FDB095D097A50194010E94B02DBD
:10372000C60ED71EE81EF91EC501B4012AE030E01E
:1037300040E050E00E945E2D49015A01E4CFC701EC
:10374000B6016D5F7F4F8F4F9F4F26E030E040E026
:1037500050E00E945E2D69017A01C301B20124E6A6
:1037600030E040E050E00E945E2D60E472E48FE0C3
:1037700090E00E94262DC60ED71EE81EF91EC70136
:10378000B601DF91CF91FF90EF90DF90CF90BF9087
:10379000AF909F908F907F906F905F904F90089523
:1037A000DB01FA018D91882319F091918917D1F3EA
:1037B000992787FD90950895CF92DF92EF92FF921F
:1037C0001F93CF93DF93EC01FC01EB5AFF4F108165
:1037D000112309F4A9C0319660810E94BE1A182FE6
:1037E000FE01E95AFF4F6081CE010E94BE1A40E1FE
:1037F000149F800D1124FE01EC5AFF4F9081891314
:103800008AC074961081112309F458C135968081BD
:103810009181019691838083B59780819181A28166
:10382000B381349780839183A283B3833C96808154
:103830009181A281B381349780839183A283B383E2
:10384000799680818823A1F1813009F037C18C817C
:103850009D81AE81BF8188839983AA83BB838C8538
:103860009D85AE85BF8588879987AA87BB878C8908
:103870009D89AE89BF89888B998BAA8BBB8B8C8DD8
:103880009D8DAE8DBF8D888F998FAA8FBB8F8CA594
:103890009DA5AEA5BFA588A799A7AAA7BBA78CA9D8
:1038A0009DA9AEA9BFA988AB99ABAAABBBAB06C11A
:1038B0008CA19DA1AEA1BFA188A399A3AAA3BBA3DC
:1038C0008C819D81AE81BF8188839983AA83BB83CC
:1038D0008C899D89AE89BF89888B998BAA8BBB8B7C
:1038E0008C8D9D8DAE8DBF8D888F998FAA8FBB8F4C
:1038F000FE01E05CFF4FDE01AE5BBF4F8D919C91FE
:10390000918380838CAD9DADAEADBFAD88AF99AFD7
:10391000AAAFBBAFD3C0C159DF4F8881998101964F
:103920009983888310E0CAC0FC01EA59FF4F3081B7
:103930008B599F4F7C0131111DC06E0196E5C90E58
:10394000D11C4FEE52E0B601CE010E94D01B892B54
:1039500011F481E00CC045EF52E0B601CE010E94A7
:10396000D01B892B19F4F7011082A8C082E0D7017F
:103970008C93A4C0DC01EC91E23009F49FC0CE012D
:103980008A5A9F4FDC012C91222309F497C0B0E2A0
:10399000EB9FF0011124E32B3197E932F10508F098
:1039A0008DC0EC5CFF4F0C949F2DCE010E94F21A4B
:1039B0006C837D838E839F830E94752BC85BDF4F52
:1039C00012C0C859DF4F81E0213409F05DC05DC0ED
:1039D000CE010E944E1B6C8B7D8B8E8B9F8B0E9429
:1039E000752BC05BDF4F688379838A839B8366C0B6
:1039F000233509F063C08C899D89AE89BF89B09554
:103A0000A095909581959F4FAF4FBF4F8C8B9D8B0D
:103A1000AE8BBF8B53C0CE010E944E1B6C8F7D8F2F
:103A20008E8F9F8F4BC0273509F048C08C8D9D8DA0
:103A3000AE8DBF8DB095A095909581959F4FAF4F5E
:103A4000BF4F8C8F9D8FAE8FBF8F38C0CE010E942D
:103A5000F21A6CA77DA78EA79FA730C0CE010E9447
:103A6000F21A6CAB7DAB8EAB9FAB28C0BC01CE0114
:103A70000E94D01A6C877D878E879F871FC0C85988
:103A8000DF4F81E021330CF480E0888317C00E946F
:103A90009B32CE5BDF4F9927998388830FC0CE017D
:103AA0000E94F21A6CAF7DAF8EAF9FAF07C0CE0100
:103AB0000E94F21A6CA37DA38EA39FA3812FDF9196
:103AC000CF911F91FF90EF90DF90CF900895CF920C
:103AD000DF92EF92FF920F931F93CF93DF931F928A
:103AE000CDB7DEB76C01262FFC01E759FF4F4081AF
:103AF0005181628173814F5F5F4F6F4F7F4F408372
:103B00005183628373838C0109591F4F8B5A9F4FD6
:103B10007C01243281F12CF42A3069F02D30E9F552
:103B20000AC02A3241F02C32C1F5F601EC5AFF4F9F
:103B3000808182278083F80180818F3060F4F601D4
:103B4000E80FF11DEA5AFF4F1082C60129830E9437
:103B5000DC1B298101C080E0F601EA59FF4F90810A
:103B60009F5F9083F801108291E02A3209F090E083
:103B7000F70190832AC0F8011082F601EA59FF4F3D
:103B8000108272971082719682E08083F701108212
:103B9000F601E859FF4F108217C0F80180818E307E
:103BA00048F491E0980F9083F601E80FF11DEA5A6E
:103BB000FF4F2083F7018081811106C0F601EC5A86
:103BC000FF4F80818227808380E00F90DF91CF912B
:103BD0001F910F91FF90EF90DF90CF900895CF92BB
:103BE000DF92EF92FF920F931F93CF93DF93E90140
:103BF0006115710551F0FC01C088D188E288F38815
:103C0000FB01C082D182E282F3824115510551F05D
:103C1000FC01C08CD18CE28CF38CFA01C082D18281
:103C2000E282F382209701F18C01045B1F4FF801BF
:103C300080819181A281B3818F3F9F4FAF4FBF4F52
:103C400061F00E94752BF80100811181228133817E
:103C5000601B710B820B930B03C06FEF7FEFCB01E7
:103C6000688379838A839B83DF91CF911F910F9122
:103C7000FF90EF90DF90CF900895AF92BF92CF92D8
:103C8000DF92EF92FF920F931F93CF93DF93CDB705
:103C9000DEB728970FB6F894DEBF0FBECDBF5B012D
:103CA0008A01AE014F5F5F4FBE016B5F7F4F0E9485
:103CB000EF1DCD80DE80EF80F8848FEFC81689EC91
:103CC000D8068AE9E8068BE3F80659F0C701B60181
:103CD0000E94302F20E034E244E759E40E94952E00
:103CE00004C060E070E08AE794E4F50160837183CA
:103CF00082839383FFEFCF16F9ECDF06FAE9EF0634
:103D0000FBE3FF0669F069817A818B819C810E94C7
:103D1000302F20E034E244E759E40E94952E04C09D
:103D200060E070E08AE794E4F80160837183828345
:103D3000938328960FB6F894DEBF0FBECDBFDF91F8
:103D4000CF911F910F91FF90EF90DF90CF90BF9098
:103D5000AF900895FC0160A171A182A193A16F3F72
:103D6000F9EC7F07FAE98F07FBE39F0749F00E9410
:103D7000302F20E030E048EC52E40E94952E089568
:103D800060E074E284E799E40895FC0112828FEF09
:103D90008183108213820895FC018381882331F08E
:103DA000611103C08FEF8183089511820895CF932D
:103DB000DF93EC016A838FE894E00E94DE2841E003
:103DC0006A818FE894E00E94F52891E0811101C09A
:103DD00090E09B838FE894E00E944F2888838B813A
:103DE00090E0DF91CF910895CF93DF93EC018B8129
:103DF0008823A9F089818095862388836A818FE84A
:103E000094E00E94F82868818FE894E00E949F283F
:103E10008FE894E00E941529282F30E002C020E0AE
:103E200030E081E090E0232B11F080E090E0DF9122
:103E3000CF91089508950895DC01ED91FC910284DD
:103E4000F385E02D41E0099581E090E00895FC01C3
:103E50001382128229E233E0318320830895DC014A
:103E6000ED91FC910084F185E02D6FEF0994DC0168
:103E7000ED91FC910284F385E02D40E0099461E02E
:103E80000E94371F80ED97E00C94CC2B62E00E94DB
:103E9000371F80ED97E00C94CC2BCF93DF93CDB7F9
:103EA000DEB728970FB6F894DEBF0FBECDBF1D82D8
:103EB00020E42E8334E13F8334E5388719822A8356
:103EC00020E12B8320E52C83FC012781421710F091
:103ED0004FEF420FFC01308550E0FE01E40FF51F6B
:103EE000303121F4243011F4218101C02581260FC5
:103EF0002068622F28960FB6F894DEBF0FBECDBFA4
:103F0000DF91CF910C94371FFC016581262F24602F
:103F100025836C600C94371FCF93DF93EC01423004
:103F200018F08C8188608C834F836887222329F066
:103F3000413019F48C8184608C8364E670E080E009
:103F400090E00E94A42B6C8164FD31C0E881F9816E
:103F50000284F385E02D42E063E0CE01099584E917
:103F600091E10E94CC2BE881F9810284F385E02D58
:103F700042E063E0CE01099584E991E10E94CC2BF7
:103F8000E881F9810284F385E02D42E063E0CE010F
:103F9000099586E990E00E94CC2BE881F9810284A2
:103FA000F385E02D42E062E0CE01099516C0606223
:103FB000CE010E94371F84E991E10E94CC2B6C81D5
:103FC0006062CE010E94371F86E990E00E94CC2BF0
:103FD0006C816062CE010E94371F6C816062CE01ED
:103FE0000E94371F84E08D83CE010E94841FCE0182
:103FF0000E943F1F82E08E8366E0CE010E94371F41
:10400000CE01DF91CF910C942F1F21E001C0220F30
:104010006A95EAF7DC011C962C931C971A965C9320
:104020004E931997ED91FC910084F185E02D60E0AD
:104030000994FC012485222399F0818592850097BB
:1040400019F4611105C006C0019721F4611102C085
:10405000258701C015866585CF010E960C94F41E48
:1040600008950F931F93CF93DF93EC018C01025FB0
:104070001F4F6B85C8010E94D71E019761F461E054
:10408000C8010E94CC1E1C8260E0C8010E94F41E80
:1040900081E090E002C080E090E0DF91CF911F913D
:1040A0000F9108958F92AF92CF92EF920F93CF938B
:1040B000DF93CDB7DEB7FC016387148615861286C1
:1040C000118681E0982F01C0990F4A95EAF7928BEB
:1040D000982F01C0990F2A95EAF7938B982F01C06A
:1040E000990F0A95EAF7948B982F01C0990FEA94DB
:1040F000EAF7958B982F01C0990FCA94EAF7968B2F
:10410000982F01C0990FAA94EAF7978B01C0880FE6
:104110008A94EAF7808FDF91CF910F91EF90CF9043
:10412000AF908F9008956F927F928F92AF92CF92BF
:10413000EF920F93CF93DF9300D01F92CDB7DEB7EE
:104140003C012B834A8369830E94271F89E393E004
:10415000F30191838083C3010E960E94C51E2B81BB
:104160004A816981C3010E9452200F900F900F90E5
:10417000DF91CF910F91EF90CF90AF908F907F9084
:104180006F900895FF920F931F93CF93DF93EC01ED
:10419000F62E8C01025F1F4F6A896F29C8010E94A9
:1041A000F41E6A8960956F21C801DF91CF911F913C
:1041B0000F91FF900C94F41E20E030E050E060FF7F
:1041C00005C0FC01E20FF31F7589572B66952F5F21
:1041D0003F4F2430310599F7413011F4FC014489F7
:1041E000FC016585652B642B0C94C2200F931F93F3
:1041F000CF93DF93EC01142F062F0F70423011F490
:1042000040E00AC070E084E0759567958A95E1F713
:10421000CE010E94DC20412F602FCE01DF91CF9193
:104220001F910F910C94DC200F931F93CF93DF937A
:1042300000D01F92CDB7DEB78C012B834A836983F0
:104240000E9431202B814A816981C8010F900F9013
:104250000F90DF91CF911F910F910C948C1F0E94B2
:104260009632089584E893E00C94E50E84E893E098
:104270000C94050E0E94D62B0E9431210E943221FF
:10428000C6E7D1E20E9436212097E1F30E94762111
:10429000F9CFFC01818D228D90E0805C9F4F821BC5
:1042A00091098F7399270895FC01918D828D98173C
:1042B00031F0828DE80FF11D858D90E008958FEF2C
:1042C0009FEF0895FC01918D828D981761F0828D8A
:1042D000DF01A80FB11D5D968C91928D9F5F9F733A
:1042E000928F90E008958FEF9FEF089586EE92E20F
:1042F000892B49F080E090E0892B29F00E94E6228A
:1043000081110C9400000895FC01848DDF01A80F39
:10431000B11DA35ABF4F2C91848D90E001968F73ED
:104320009927848FA689B7892C93A089B1898C910C
:1043300080648C93938D848D981306C00288F389D2
:10434000E02D80818F7D80830895CF93DF93EC01F2
:10435000888D8823C9F0EA89FB89808185FD05C0A5
:10436000A889B9898C9186FD0FC00FB607FCF5CFDF
:10437000808185FFF2CFA889B9898C9185FFEDCF27
:10438000CE010E948421E7CFDF91CF910895CF9293
:10439000DF92FF920F931F93CF93DF931F92CDB7BE
:1043A000DEB76C01DC015B969C915B975C968C910F
:1043B0005C97981307C05096ED91FC9151978081BE
:1043C00085FD32C0F601038D10E00F5F1F4F0F73A4
:1043D0001127F02EF601848DF81211C00FB607FCDC
:1043E000F9CFD6015096ED91FC915197808185FFD0
:1043F000F1CFC60169830E9484216981EBCF838D4F
:10440000E80FF11DE35AFF4F6083D6015B960C93D2
:104410005B975296ED91FC915397808180628083E7
:1044200081E058968C930DC0D6015696ED91FC9183
:10443000579760835096ED91FC91519780818064ED
:10444000808381E090E00F90DF91CF911F910F91D9
:10445000FF90DF90CF900895BF92CF92DF92EF92BE
:10446000FF92CF93DF93EC016A017B01B22EE889C2
:10447000F98982E08083411581EE58076105710555
:10448000A1F060E079E08DE390E0A70196010E9441
:104490005E2D2150310941095109569547953795AF
:1044A0002795211580E1380798F0E889F98910826D
:1044B00060E874E88EE190E0A70196010E945E2D0D
:1044C000215031094109510956954795379527954E
:1044D000EC85FD853083EE85FF852083188EEC8981
:1044E000FD89B082EA89FB89808180618083EA89C5
:1044F000FB89808188608083EA89FB89808180686C
:104500008083EA89FB8980818F7D8083DF91CF91D1
:10451000FF90EF90DF90CF90BF9008951F920F9281
:104520000FB60F9211242F938F939F93EF93FF93C6
:10453000E091BE03F091BF038081E091C403F0914C
:10454000C50382FD12C090818091C7038F5F8F7376
:104550002091C803821751F0E091C703F0E0E255C3
:10456000FC4F958F8093C70301C08081FF91EF912D
:104570009F918F912F910F900FBE0F901F901895C4
:104580001F920F920FB60F9211242F933F934F93C8
:104590005F936F937F938F939F93AF93BF93EF93AB
:1045A000FF938EEA93E00E948421FF91EF91BF91E7
:1045B000AF919F918F917F916F915F914F913F91BB
:1045C0002F910F900FBE0F901F9018958EEA93E0D9
:1045D0000E94492121E0892B09F420E0822F0895CF
:1045E0001092B1031092B00388EE93E0A0E0B0E027
:1045F0008093B2039093B303A093B403B093B50335
:1046000089E493E09093AF038093AE0385EC90E050
:104610009093BB038093BA0384EC90E09093BD0326
:104620008093BC0380EC90E09093BF038093BE0323
:1046300081EC90E09093C1038093C00382EC90E002
:104640009093C3038093C20386EC90E09093C503DC
:104650008093C4031092C7031092C8031092C90339
:104660001092CA030895CF92DF92EF92FF920F93B8
:104670001F93CF93DF936C017A01EB01E60EF71ED7
:1046800000E010E0CE15DF0561F06991D601ED91F3
:10469000FC910190F081E02DC6010995080F191FCA
:1046A000F1CFC801DF91CF911F910F91FF90EF9053
:1046B000DF90CF9008956115710581F0DB010D90B9
:1046C0000020E9F7AD0141505109461B570BDC01B1
:1046D000ED91FC910280F381E02D099480E090E05F
:1046E00008950C945B23DC01ED91FC910190F08125
:1046F000E02D09940F931F93CF93DF93EC016DE0AE
:104700000E9473238C016AE0CE010E947323800F04
:10471000911FDF91CF911F910F9108950F931F93D8
:10472000CF93DF93EC010E945B238C01CE010E94AA
:104730007A23800F911FDF91CF911F910F910895E0
:104740008F929F92AF92BF92CF92DF92EF92FF92A1
:104750000F931F93CF93DF93CDB7DEB7A1970FB61B
:10476000F894DEBF0FBECDBF7C01C42EE52FCB0178
:10477000D22E19A221E02D1510F02AE0D22E8E01A2
:104780000F5D1F4F8D2C912CA12CB12C6C2D7E2FE9
:10479000A50194010E945E2D8C2DD29E80191124BA
:1047A000015011098A3014F4805D01C0895CF80160
:1047B0008083211531054105510521F0C22EE32FDB
:1047C000CA01E4CFB801C7010E945B23A1960FB6CE
:1047D000F894DEBF0FBECDBFDF91CF911F910F9137
:1047E000FF90EF90DF90CF90BF90AF909F908F9011
:1047F0000895CF92DF92EF92FF920F931F93CF9382
:10480000DF93EC016A017B012115310579F4E88120
:10481000F9810190F081E02D642FDF91CF911F91FC
:104820000F91FF90EF90DF90CF9009942A303105DF
:10483000E9F477FF1AC06DE20E9473238C014427CC
:104840005527BA014C195D096E097F092AE0CE018E
:104850000E94A023800F911FDF91CF911F910F9194
:10486000FF90EF90DF90CF9008952AE0B701A60166
:10487000CE01DF91CF911F910F91FF90EF90DF90CC
:10488000CF900C94A0239A01AB01662757FD609549
:10489000762F0C94F9230F931F93CF93DF93EC01A2
:1048A0009A01AB01662757FD6095762F0E94F92388
:1048B0008C01CE010E947A23800F911FDF91CF914E
:1048C0001F910F9108952115310541F4DC01ED91FF
:1048D000FC910190F081E02D642F09940C94A023A9
:1048E0000F931F93CF93DF93EC010E9463248C01FD
:1048F000CE010E947A23800F911FDF91CF911F91EB
:104900000F9108954F925F926F927F928F929F9234
:10491000AF92BF92CF92DF92EF92FF920F931F93CD
:10492000CF93DF93EC016A017B01B22E9A01AB01B8
:10493000C701B6010E945331882319F065E573E081
:1049400027C026013701E89477F82FEF3FEF4FE7B4
:104950005FE7C301B2010E94533181110DC02FEFF7
:104960003FEF4FE75FE7C301B2010E948E2E18169A
:104970001CF469E573E00CC02FEF3FEF4FE75FE4F5
:10498000C701B6010E949A301816ACF46DE573E0C9
:10499000CE01DF91CF911F910F91FF90EF90DF90AB
:1049A000CF90BF90AF909F908F907F906F905F90CF
:1049B0004F900C945B232FEF3FEF4FE75FECC70165
:1049C000B6010E948E2E87FDE1CF20E030E0A901E4
:1049D000C701B6010E948E2E87FF0AC06DE2CE018C
:1049E0000E9473238C01F7FAF094F7F8F09402C058
:1049F00000E010E0A12C60E070E080E09FE3AB14E9
:104A000041F020E030E040E251E40E94952EA39472
:104A1000F6CF9B01AC01C701B6010E94C82D6B0106
:104A20007C010E94022F2B013C010E942E2F9B0132
:104A3000AC01C701B6010E94C72D6B017C012AE0C1
:104A4000B301A201CE010E94A023080F191FBB20B1
:104A500039F06EE872E0CE010E945B23080F191F47
:104A60007B2C772041F120E030E040E251E4C701A7
:104A7000B6010E94A5306B017C010E94FD2E4B0106
:104A8000AA2497FCA094BA2C2AE030E0B501A40136
:104A9000CE010E94F923080F191FC501B4010E941D
:104AA000302F9B01AC01C701B6010E94C72D6B01DD
:104AB0007C017A94D6CFC801DF91CF911F910F91DD
:104AC000FF90EF90DF90CF90BF90AF909F908F902E
:104AD0007F906F905F904F9008950C9482240F9375
:104AE0001F93CF93DF93EC010E9482248C01CE01AF
:104AF0000E947A23800F911FDF91CF911F910F9118
:104B000008954F925F926F927F92AF92BF92CF9231
:104B1000DF92EF92FF920F931F93CF93DF93CDB766
:104B2000DEB729013A01621B730B840B950B2989AF
:104B30003A894B895C892A193B094C095D09298B03
:104B40003A8B4B8B5C8B9B01AC0169897A898B8991
:104B50009C890E94262DE418F50806091709A8016A
:104B600097010E94802D2A0D3B1D4C1D5D1DCA0121
:104B7000B901DF91CF911F910F91FF90EF90DF90DE
:104B8000CF90BF90AF907F906F905F904F900895BF
:104B90000E94963220918D0430918E042817390797
:104BA000B9F490914B0480914C04981789F0E091EE
:104BB0004B04F0E0E35BFB4F808120914B0430E03D
:104BC0002F5F3F4F2F73332720934B0490E00895BE
:104BD0008FEF9FEF08951F93CF93DF93DC015C96D7
:104BE0008D919C915D97009749F481E090E0139638
:104BF0009C938E93129780E090E03BC05196ED918C
:104C0000FC91529750962C915097322F30951FB7A8
:104C10005E964C915E9741FB772770F941FD609558
:104C2000F8944081772311F0422B01C04323408345
:104C3000EC012197F1F748E0508160FF02C0522B50
:104C400001C053235083EC012197F1F76695415041
:104C500099F78081772311F0832301C0822B808311
:104C60001FBF5C968D919C915D970197F1F781E054
:104C700090E0DF91CF911F91089520918D043091A4
:104C80008E042817390781F490914B0480914C04CD
:104C9000981751F0E0914B04F0E0E35BFB4F80810B
:104CA000992787FD909508958FEF9FEF08952091A4
:104CB0008D0430918E042817390771F480914C04CB
:104CC00020914B0490E0805C9F4F821B910960E42F
:104CD00070E00E944A2D089580E090E008952091B0
:104CE0008D0430918E042817390739F48FB7F89462
:104CF00010924C0410924B048FBF0895E0918D04E4
:104D0000F0918E04E817F90769F4A389B4899C919E
:104D10008589809589238C9310928E0410928D043E
:104D200081E0089580E00895CF93DF93EC018A8DB0
:104D30009B8D892BF1F080918D0490918E048C17BE
:104D40009D07B9F0009711F00E947E268E8D8E7F10
:104D50008E8F10924C0410924B04D0938E04C0930B
:104D60008D04EB89FC8980819D89892B808381E07A
:104D700001C080E0DF91CF9108951F920F920FB68E
:104D80000F9211242F933F934F935F936F937F93D1
:104D90008F939F93AF93BF93EF93FF93E0918D0415
:104DA000F0918E04309709F451C0868DA685B785A1
:104DB000958581FF04C08C91892329F447C08C918B
:104DC000892309F043C0A389B4899C918589809582
:104DD00089238C93868997890197F1F7208D318DEE
:104DE000A685B785758558E040E0C9010197F1F7C0
:104DF000842F90E095958795482F6C91672309F053
:104E00004068515091F7868D81FD409580914C040A
:104E100090E001968F73992720914B04281749F051
:104E2000A0914C04B0E0A35BBB4F4C9380934C0427
:104E300003C0868D8160868F828D938D0197F1F7F7
:104E4000A389B4898C919589892B8C93FF91EF91DB
:104E5000BF91AF919F918F917F916F915F914F9192
:104E60003F912F910F900FBE0F901F9018951F9399
:104E7000CF93DF93EC01162F6E8D6695617081E004
:104E80006827812F0E94EF2C61E0812F0E94B62CB1
:104E9000812F90E0FC01E65EFE4FE491E88BFC017F
:104EA000E25DFE4FE491F0E0EE0FFF1FE45BFE4F8A
:104EB000859194919A8B898BDF91CF911F91089561
:104EC0001F93CF93DF93EC01162F60E0812F0E9498
:104ED000B62C8E8D81FD04C061E0812F0E94EF2CE5
:104EE0001C87812F90E0FC01E65EFE4FE491ED8788
:104EF000FC01E25DFE4FE491F0E0EE0FFF1FEE5B80
:104F0000FE4F859194919F878E87DF91CF911F915E
:104F10000895FF920F931F93CF93DF93EC01F62E2A
:104F2000522F1B821A8208EE13E020E030E00C833F
:104F30001D832E833F8385E693E0998388831F8AB0
:104F40001E8A198E188E1B8E1A8E1D8E1C8E8E8DAB
:104F50008E7F50FB81F98E8F642FCE010E94372700
:104F60006F2DCE01DF91CF911F910F91FF900C9487
:104F70006027CF93DF93EC019A01AB011B8E1A8E51
:104F8000198E188E1F8A1E8A60E079E08DE390E00A
:104F90000E94802DC9012430310520F0B9016350F1
:104FA000710902C061E070E07D8F6C8FEC85E631A5
:104FB00008F068C0B901769567956431710518F0FD
:104FC0006351710902C061E070E07F8B6E8B0697C0
:104FD00018F0C901059702C081E090E0998F888F91
:104FE000C901880F991F820F931F969587959695F3
:104FF00087958D30910510F00C9702C081E090E00C
:105000009B8F8A8F20916800E83050F091E0EE305D
:1050100008F490E081E001C0880F9A95EAF701C09A
:1050200084E0822B809368002C85283038F02E3065
:1050300040F0263148F48CE690E008C08DE690E020
:1050400005C08BE690E002C080E090E09C8B8B8BEB
:10505000283030F481E001C0880F2A95EAF70DC0AE
:10506000822F90E02E3010F4089701C00E9791E047
:1050700001C0990F8A95EAF7892F8D8B8C8D9D8DB4
:105080000197F1F7CE01DF91CF910C949426809196
:10509000BF0490E02091C004821B910908952091E3
:1050A000C0048091BF04281750F4E22FF0E0EF53C2
:1050B000FB4F808190E02F5F2093C00408958FEF15
:1050C0009FEF0895E091C0048091BF04E81730F489
:1050D000F0E0EF53FB4F808190E008958FEF9FEF5A
:1050E00008950895CF92DF92EF92FF920F931F934E
:1050F000CF93DF937C01CB018A0120919B04222373
:1051000089F0EB016B01C40ED51ECC15DD0569F0ED
:105110006991D701ED91FC910190F081E02DC701DB
:105120000995F3CF642F0E94D129C801DF91CF9157
:105130001F910F91FF90EF90DF90CF900895CF9344
:10514000DF931F92CDB7DEB7698320919B042223A2
:10515000D1F020919C04203240F021E030E0FC01AD
:105160003383228380E090E015C080919D04E82F76
:10517000F0E0E256FB4F998190838F5F80939D040E
:1051800080939C0405C061E0CE0101960E94D12964
:1051900081E090E00F90DF91CF910895FC011382A0
:1051A000128248EE53E060E070E0448355836683EA
:1051B000778385E793E09183808308951092C004FC
:1051C0001092BF0410929D0410929C040C941C2910
:1051D000862F413208F040E261EC74E00E943A29E7
:1051E0001092C0048093BF04089521E00C94E82835
:1051F00081E080939B046093BE0410929D04109202
:105200009C0408950F93062F21E040919C046EE9C1
:1052100074E08091BE040E947E2910929D04109239
:105220009C0410929B040F91089561E00C94022954
:105230008FE894E00C94CE2810924E0581E0809384
:105240004C0510924B0561E082E10E94EF2C61E079
:1052500083E10E94EF2CE9EBF0E080818E7F808378
:1052600080818D7F808388E48093B80085E480937B
:10527000BC000895413208F03FC090914E05911155
:10528000FCCF91E090934E0520934C052FEF209397
:10529000E10410922605240F2093250590934D05D7
:1052A00090914D05880F892B80934D0580914B057A
:1052B000813041F410924B0580914D058093BB00E5
:1052C00085EC01C085EE8093BC0080914E05813055
:1052D000E1F380912605841710F44091260527E21A
:1052E00035E0FB01D9018A2F821B841718F48D91B8
:1052F0008193F9CF842F089580E008950F93413270
:1053000008F046C090914E059111FCCF92E0909329
:105310004E0500934C059FEF9093E10410922605F3
:1053200040932505FB0167E275E0DB019A2F961B90
:10533000941718F491919D93F9CF10924D05909187
:105340004D05880F892B80934D0580914B05813049
:1053500041F410924B0580914D058093BB0085EC84
:1053600001C085EE8093BC00222321F080914E0580
:105370008230E1F38091E1048F3F61F08091E1049C
:10538000803251F08091E104803341F483E007C022
:1053900081E005C080E003C082E001C084E00F919D
:1053A0000895613298F420914E05243089F4609379
:1053B0000305FC0185E095E0DC012A2F281B261758
:1053C00018F421912D93F9CF80E0089581E008959C
:1053D00082E0089585ED8093BC008091BC0084FD3F
:1053E000FCCF10924E05089585EC8093BC0010927E
:1053F0004E0508951F920F920FB60F9211242F930E
:105400003F934F935F936F937F938F939F93AF934C
:10541000BF93EF93FF938091B900887F803609F4A2
:105420009CC068F5883209F45BC090F4803109F4BF
:1054300054C038F4882309F4F5C0883009F44DC00D
:10544000F5C0883109F44CC0803209F45DC0EEC06B
:10545000803409F468C048F4803309F455C08833B7
:1054600009F0E4C08093E104A8C0803509F44FC07E
:10547000883509F45DC0883409F0D8C0D5C08839B2
:1054800009F4C6C0A8F4883709F467C038F4883630
:1054900009F463C0803709F460C0C8C0883809F4D3
:1054A000B7C0803909F45FC0803809F0BFC05BC065
:1054B000803B09F485C038F4803A09F466C0883A24
:1054C00009F47EC0B3C0803C09F4A6C0883C09F44E
:1054D000A3C0883B09F489C0A9C080914D0510C0C4
:1054E0009091260580912505981770F5E091260585
:1054F00081E08E0F80932605F0E0E95DFA4F808110
:105500008093BB0085EC85C08093E1048DC0E09161
:10551000260581E08E0F809326058091BB00F0E088
:10552000E95DFA4F808390912605809125056DC035
:10553000E091260581E08E0F809326058091BB00C7
:10554000F0E0E95DFA4F808380914C0581116CC0D9
:1055500081E080934B0584EA60C083E080934E0530
:105560001092E204CFCF8091E204803208F050C064
:10557000E091E20481E08E0F8093E2048091BB0011
:10558000F0E0ED51FB4F8083BDCF8091E20480328B
:1055900030F4E091E204F0E0ED51FB4F10820E9404
:1055A000EA296091E20470E0E0914705F091480536
:1055B00083EE94E009951092E2040E94F42936C02B
:1055C00084E080934E051092040510920305E0914B
:1055D0004905F0914A05099580910305811105C09F
:1055E00081E08093030510920505E091040581E0B8
:1055F0008E0F80930405F0E0EB5FFA4F808180937B
:10560000BB009091040580910305981708F47ACFA8
:1056100085E88093BC000AC085EC8093BC001092A2
:105620004E0504C01092E1040E94EA29FF91EF9117
:10563000BF91AF919F918F917F916F915F914F91AA
:105640003F912F910F900FBE0F901F9018950C94C3
:105650006F310C9407321F920F920FB60F921124E4
:105660002F933F938F939F93AF93BF938091500558
:1056700090915105A0915205B091530530914F057D
:1056800023E0230F2D3720F40196A11DB11D05C085
:1056900026E8230F0296A11DB11D20934F0580938C
:1056A000500590935105A0935205B09353058091F6
:1056B000540590915505A0915605B0915705019656
:1056C000A11DB11D8093540590935505A0935605D7
:1056D000B0935705BF91AF919F918F913F912F91BB
:1056E0000F900FBE0F901F9018952FB7F8946091F0
:1056F00050057091510580915205909153052FBF2F
:1057000008953FB7F8948091540590915505A09164
:105710005605B091570526B5A89B05C02F3F19F037
:105720000196A11DB11D3FBF6627782F892F9A2FA3
:10573000620F711D811D911D42E0660F771F881F4A
:10574000991F4A95D1F70895CF92DF92EF92FF9279
:10575000CF93DF936B017C010E94812BEB01C1147D
:10576000D104E104F10489F00E94252D0E94812BCF
:105770006C1B7D0B683E734090F381E0C81AD10822
:10578000E108F108C851DC4FEACFDF91CF91FF90DB
:10579000EF90DF90CF900895019739F0880F991F0F
:1057A000880F991F02970197F1F70895789484B5AF
:1057B000826084BD84B5816084BD85B5826085BD0D
:1057C00085B5816085BDEEE6F0E0808181608083F3
:1057D000E1E8F0E0108280818260808380818160D6
:1057E0008083E0E8F0E0808181608083E1EBF0E09D
:1057F000808184608083E0EBF0E080818160808341
:10580000EAE7F0E080818460808380818260808329
:105810008081816080838081806880831092C10054
:1058200008958E3008F08E50877020910C0190E41E
:10583000299F90011124822B80937C0080917A0013
:10584000806480937A0080917A0086FDFCCF8091FD
:1058500078002091790090E0922B08951F93CF93C8
:10586000DF93182FEB0161E00E94B62C209711F412
:1058700060E004C0CF3FD10539F461E0812FDF91B2
:10588000CF911F910C94EF2CE12FF0E0EA5FFE4FD7
:10589000E491E330F9F048F4E130B9F0E230A1F5F9
:1058A00084B5806284BDC8BD34C0E730E9F0E8301B
:1058B00019F1E43049F58091800080628093800086
:1058C000D0938B00C0938A0024C084B5806884BDC7
:1058D000C7BD1FC080918000806880938000D093F6
:1058E0008900C093880015C08091B00080688093C3
:1058F000B000C093B3000DC08091B000806280936F
:10590000B000C093B40005C0C038D1050CF0B5CFCD
:10591000AFCFDF91CF911F910895833081F028F4AC
:10592000813099F08230A1F008958730A9F0883055
:10593000B9F08430D1F4809180008F7D03C08091D4
:1059400080008F7780938000089584B58F7702C0A0
:1059500084B58F7D84BD08958091B0008F7703C09A
:105960008091B0008F7D8093B0000895CF93DF9336
:1059700090E0FC01E65EFE4F2491FC01E25DFE4FEB
:105980008491882349F190E0880F991FFC01EA5A1D
:10599000FE4FA591B491845B9E4FFC01C591D491BB
:1059A0009FB7611108C0F8948C91209582238C9345
:1059B000888182230AC0623051F4F8948C91322F8E
:1059C000309583238C938881822B888304C0F8943C
:1059D0008C91822B8C939FBFDF91CF9108950F9371
:1059E0001F93CF93DF931F92CDB7DEB7282F30E000
:1059F000F901EA5FFE4F8491F901E65EFE4F1491D2
:105A0000F901E25DFE4F04910023C9F0882321F0E3
:105A100069830E948D2C6981E02FF0E0EE0FFF1F5B
:105A2000E45BFE4FA591B4919FB7F8948C916111FE
:105A300003C01095812301C0812B8C939FBF0F90D1
:105A4000DF91CF911F910F9108950895DB018F93FE
:105A50009F930E94A52DBF91AF91A29F800D911D94
:105A6000A39F900DB29F900D11240895AA1BBB1BFC
:105A700051E107C0AA1FBB1FA617B70710F0A61B4E
:105A8000B70B881F991F5A95A9F780959095BC016F
:105A9000CD01089597FB072E16F4009407D077FDEB
:105AA00009D00E94362D07FC05D03EF490958195D3
:105AB0009F4F0895709561957F4F0895A1E21A2E2A
:105AC000AA1BBB1BFD010DC0AA1FBB1FEE1FFF1FA2
:105AD000A217B307E407F50720F0A21BB30BE40BF2
