:100000000C9462000C948A000C948A000C948A0070
:100010000C948A000C948A000C948A000C948A0038
:100020000C948A000C948A000C948A000C948A0028
:100030000C948A000C948A000C948A000C948A0018
:100040000C9480080C948A000C94B1070C94E3077C
:100050000C948A000C948A000C948A000C948A00F8
:100060000C948A000C948A00000000080002010031
:100070000003040700000000000000000102040863
:100080001020408001020408102001020408102002
:10009000040404040404040402020202020203032E
:1000A00003030303000000002300260029000000D2
:1000B0000000250028002B0000000000240027007D
:1000C0002A00130811241FBECFEFD8E0DEBFCDBF3A
:1000D00011E0A0E0B1E0EAE3FCE102C005900D927E
:1000E000A631B107D9F721E0A6E1B1E001C01D9228
:1000F000A23EB207E1F710E0C4ECD0E004C02297C2
:10010000FE010E94C60AC23CD107C9F70E94BF0681
:100110000C941B0E0C9400002F923F924F925F9212
:100120006F927F928F929F92AF92BF92CF92DF9207
:10013000EF92FF920F931F93CF93DF93CDB7DEB76C
:100140003C01862F2D883E884F88588CF301848689
:100150009586A686B786208A318A428A538A60832A
:100160007183538342833583248317830683F18607
:10017000E086D386C28661E00E94A30961E0F301B4
:1001800082810E94A30961E0F30184810E94A30996
:1001900061E0F30186810E94A30961E0F30180859B
:1001A0000E94A30961E0F3018285DF91CF911F9145
:1001B0000F91FF90EF90DF90CF90BF90AF909F9006
:1001C0008F907F906F905F904F903F902F900C9406
:1001D000A309EF92FF920F931F93CF93DF93EC014C
:1001E000CB0161302FEF720714F481E09FEF7C01A7
:1001F0008FEFE816F10421F01CF0EE24EA94F12CC4
:100200008A0141302FEF520714F401E01FEF0F3F36
:10021000110519F014F00FEF10E061E0101611064F
:100220000CF060E088850E94DC0961E01016110680
:100230000CF460E08A850E94DC0961E01E141F0452
:100240000CF060E08A810E94DC0961E01E141F044A
:100250000CF460E08C810E94DC09B701882777FDEF
:100260008095982F0E94DD0B2C853D854E855F85FE
:100270000E94910C0E94AA0B88810E941B09B80160
:10028000882777FD8095982F0E94DD0B2889398972
:100290004A895B890E94910C0E94AA0B8E81DF9192
:1002A000CF911F910F91FF90EF900C941B09CF936A
:1002B000DF93EC01862F688379835B834A8360E058
:1002C0000E94A30961E08A81DF91CF910C94A30978
:1002D000CF93DF93EC0160E08A810E94DC098AE021
:1002E00090E00E94D60861E08A810E94DC0984E1E6
:1002F00090E00E94D60860E08A810E94DC0920E438
:1003000032E44FE050E061E088810E94120A2AE363
:1003100030E040E050E00E94970A2D3281E038073B
:100320004105510528F06FE372E48FE090E002C0D0
:10033000B901CA01DF91CF9108952F923F924F9258
:100340005F926F927F928F929F92AF92BF92CF9265
:10035000DF92EF92FF920F931F93CF93DF93CDB76E
:10036000DEB72B970FB6F894DEBF0FBECDBF9B87CD
:100370008A87DC01D896BC91B983B11102C0198279
:10038000E2C00E94CA086A837B838C839D83EA85CE
:10039000FB8580A191A1A2A1B3A14A815B816C815F
:1003A0007D81481B590B6A0B7B0B84A595A5A6A5DF
:1003B000B7A5481759076A077B0708F3028CF38D26
:1003C000E02D80809180A280B380AA85BB855E9657
:1003D000ED91FC915F97A50194016081718182810B
:1003E00093810E94D90A2B013C01EA85FB85208973
:1003F0003189428953890E94910CAA85BB859496C4
:100400002D913D914D915C9197970E94DA0A6B0175
:100410007C01EA85FB8564A375A386A397A324A822
:1004200035A806A917A99101A8010E948D0C1816DC
:100430001CF4C101D80118C0AA85BB85D0968D9146
:100440009D910D90BC91A02D8E839F83A887B98725
:100450009C01AD01C701B6010E943E0B87FF0AC097
:100460008E819F81A885B985EA85FB8584A395A3A4
:10047000A6A3B7A3AA85BB851C962D913D914D914E
:100480005C911F97C301B2010E94910CEA85FB8524
:1004900024A135A146A157A10E94DA0A6B017C0173
:1004A000AA85BB8598962D913D914D915C919B9726
:1004B000C501B4010E94D90AEA85FB8524893589E2
:1004C000468957890E94910C9B01AC01C701B60176
:1004D0000E94D90A6B017C019101A8010E948D0C38
:1004E0001816BCF0AA85BB85D0962C90D097D196D3
:1004F0003C90D197D2960C91D297D3961C919101B2
:10050000A801B601C7010E943E0B87FD02C016017B
:100510008701AA85BB855C96ED91FC915D97C10131
:10052000D80180839183A283B383EA85FB8580A66B
:1005300091A6A2A6B3A68A819B81AC81BD8180A32E
:1005400091A3A2A3B3A389812B960FB6F894DEBF23
:100550000FBECDBFDF91CF911F910F91FF90EF9014
:10056000DF90CF90BF90AF909F908F907F906F90D3
:100570005F904F903F902F9008952F923F924F920F
:100580005F926F927F928F929F92AF92BF92CF9223
:10059000DF92EF92FF920F931F93CF93DF9300D0E0
:1005A00000D0CDB7DEB71C012A013B01480159013B
:1005B00020E030E0A901C301B2010E943E0B87FD9B
:1005C00078C020E030E0A901C501B4010E943E0BD3
:1005D00087FD6FC020E030E0A901C701B6010E948D
:1005E0003E0B87FD66C0F1014082518262827382B8
:1005F00084829582A682B782C086D186E286F386FF
:1006000064A575A586A597A50E94DB0B20E030E0C8
:100610004AE754E40E94420B69837A838B839C836C
:10062000F10144865586668677869B01AC01C5013B
:10063000B4010E94910C4B015C01F101608B718B44
:10064000828B938B29813A814B815C81C701B601F2
:100650000E94420B6B017C01F101648B758B868BD0
:10066000978B808D918D019721F5A301920160E018
:1006700070E0CB010E94D90AF101648775878687F3
:100680009787A501940160E070E0CB010E94D90A30
:10069000F101608B718B828B938BA701960160E0D7
:1006A00070E0CB010E94D90AF101648B758B868BB7
:1006B000978B0F900F900F900F90DF91CF911F911C
:1006C0000F91FF90EF90DF90CF90BF90AF909F90F1
:1006D0008F907F906F905F904F903F902F900895F4
:1006E0008F929F92AF92BF92CF92DF92EF92FF9242
:1006F000CF93DF93EC0116161706ACF56B01EE24D1
:10070000D7FCE094FE2CC701B6010E94DD0B4B0123
:100710005C016CA57DA58EA59FA50E94DB0B9B01AE
:10072000AC01C501B4010E94420B4B015C019B016D
:10073000AC01688979898A899B890E94910C688BB0
:10074000798B8A8B9B8BA50194016C897D898E891D
:100750009F890E94420B6C8B7D8B8E8B9F8BCCA6CE
:10076000DDA6EEA6FFA6DF91CF91FF90EF90DF9080
:10077000CF90BF90AF909F908F9008952F923F920F
:100780004F925F926F927F928F929F92AF92BF92A1
:10079000CF92DF92EF92FF920F931F93CF93DF934D
:1007A000EC016A017B0148015901A9019801C701C7
:1007B000B6010E948D0C87FF4EC0C8AAD9AAEAAA2A
:1007C000FBAA8CAA9DAAAEAABFAA88AD882309F469
:1007D00042C02C8C3D8CF10140805180628073803E
:1007E000A5019401C301B2010E948D0C181634F4C6
:1007F000F10180829182A282B3820DC0A70196018D
:10080000C301B2010E943E0B87FF05C0F101C08207
:10081000D182E282F3828CA09DA0AEA0BFA0CCA822
:10082000DDA8EEA8FFA8A7019601C501B4010E94AA
:100830008D0C181664F0C8A8D9A8EAA8FBA8A701CF
:100840009601C501B4010E943E0B87FF04C0CCA2F3
:10085000DDA2EEA2FFA2DF91CF911F910F91FF9039
:10086000EF90DF90CF90BF90AF909F908F907F9050
:100870006F905F904F903F902F9008958F929F922E
:10088000AF92BF92CF92DF92EF92FF92CF93DF931E
:10089000EC01EC8DFD8DC080D180E280F380CCA294
:1008A000DDA2EEA2FFA2EA8DFB8D80819181A28163
:1008B000B38188A799A7AAA7BBA78CA89DA8AEA813
:1008C000BFA8A5019401C701B6010E948D0C18169E
:1008D00064F088A899A8AAA8BBA8A5019401C7019B
:1008E000B6010E943E0B87FF04C08CA29DA2AEA25F
:1008F000BFA2DF91CF91FF90EF90DF90CF90BF909C
:10090000AF909F908F9008951F93CF93DF93EC014A
:1009100011E06130710509F010E088AD91E08927A0
:10092000181303C0CE010E943E0418AFDF91CF918F
:100930001F9108950F931F93CF93DF93EC018B01C9
:1009400088AD882361F1888D998D6817790739F111
:100950002C853D854E855F8560E070E0CB010E946F
:10096000D90A6C877D878E879F87288939894A892C
:100970005B8960E070E0CB010E94D90A688B798BBB
:100980008A8B9B8B2C893D894E895F8960E070E062
:10099000CB010E94D90A6C8B7D8B8E8B9F8B198F1C
:1009A000088FDF91CF911F910F9108954F925F9221
:1009B0006F927F928F929F92AF92BF92CF92DF926F
:1009C000EF92FF920F931F93CF93DF9300D000D04D
:1009D000CDB7DEB74C0127013801A982BA82CB829C
:1009E000DC82FC01558F448F738F628F378F268F87
:1009F00010AE10AA11AA12AA13AA80E090E0AFE7E5
:100A0000B3E484AB95ABA6ABB7AB84E690E0A0E0D3
:100A1000B0E084A795A7A6A7B7A76B8D7C8DC4016E
:100A20000E949A04CF88D88CE98CFA8C09811A81AB
:100A30002B813C81B301A201C4010E94BD020E942E
:100A4000CA08F40144A455A466A477A464197509DE
:100A50008609970960A371A382A393A30F900F90B7
:100A60000F900F90DF91CF911F910F91FF90EF901A
:100A7000DF90CF90BF90AF909F908F907F906F90BE
:100A80005F904F9008956F927F928F929F92AF9256
:100A9000BF92CF92DF92EF92FF920F931F93CF936B
:100AA000DF93EC0184E190E00E947E083C018FE33B
:100AB0008F9380E88F931F921F92812C912C80E856
:100AC000A82E8FE3B82E97E0C92ED12C25E0E22E78
:100AD000F12C06E010E024E030E042E050E063E07A
:100AE00070E0C3010E948C007982688280E090E00F
:100AF000A0EFB1E48A879B87AC87BD8789E390E04C
:100B00000E947E084C019E01265F3F4FAE014A5F66
:100B10005F4FBE016E5F7F4F1F921F9280E48F93E5
:100B20001F921F921F92A12CB12CE0E2CE2EE1E485
:100B3000DE2EE12CF12C00EA10E4C4010E94D60460
:100B40009F868E8661E070E0C4010E9484046AE0A2
:100B500070E08E859F850E94700300E010E02FE713
:100B600033E440E050E06FE773EC8E859F850E9490
:100B7000BE0384E090E00E947E084C0148E050E013
:100B800069E070E00E945701998A888A8DB79EB704
:100B90000A960FB6F8949EBF0FBE8DBFDF91CF911E
:100BA0001F910F91FF90EF90DF90CF90BF90AF908B
:100BB0009F908F907F906F900895CF93DF93EC017B
:100BC000888999890E9468010E94DB0B6A837B8374
:100BD0008C839D838E859F85DF91CF910C949D01A1
:100BE000CF92DF92EF92FF92CF93DF93EC01CE8012
:100BF000DF80E884F98420E030E0A901C701B60174
:100C00000E943E0B87FF0FC020E030E04FE753E427
:100C1000C701B6010E94DA0A0E94AA0B362F972F4D
:100C20002FEF80E00EC0A701960160E070E08FE733
:100C300093E40E94D90A0E94AA0B262F872F3FEF28
:100C400090E0432F592F4436510514F444E650E008
:100C5000622F782F6436710514F464E670E08881A1
:100C60009981DF91CF91FF90EF90DF90CF900C941E
:100C7000E900CF93DF93EC010E94DD05CE01DF9107
:100C8000CF910C94F005CF92DF92EF92FF920F93E9
:100C90001F93CF93DF93EC010E94CA080A891B8936
:100CA0002C893D896B017C01C01AD10AE20AF30A42
:100CB00048EEC41643E0D406E104F10420F06A8B48
:100CC0007B8B8C8B9D8B0E891F89288D398D6B01B9
:100CD0007C01C01AD10AE20AF30A97018601083C96
:100CE00011052105310520F06E8B7F8B888F998F40
:100CF0000A8D1B8D2C8D3D8D6B017C01C01AD10A94
:100D0000E20AF30A9701860104361105210531052F
:100D100020F06A8F7B8F8C8F9D8F0E8D1F8D28A169
:100D200039A16B017C01C01AD10AE20AF30A9701CA
:100D300086010A3011052105310578F06E8F7F8F0D
:100D400088A399A3CE01DF91CF911F910F91FF90BE
:100D5000EF90DF90CF900C943906DF91CF911F91E7
:100D60000F91FF90EF90DF90CF900895089586E166
:100D700091E00C94430586E191E00C9443060E94B7
:100D8000E0080E94B6060E94B706CBEFD6E00E94AC
:100D9000BB062097E1F30E94FB06F9CFFC01818D91
:100DA000228D90E0805C9F4F821B91098F73992761
:100DB0000895FC01918D828D981731F0828DE80F96
:100DC000F11D858D90E008958FEF9FEF0895FC0150
:100DD000918D828D981761F0828DDF01A80FB11D72
:100DE0005D968C91928D9F5F9F73928F90E0089596
:100DF0008FEF9FEF089589E098E0892B49F080E01C
:100E000090E0892B29F00E94090881110C940000C0
:100E10000895FC01848DDF01A80FB11DA35ABF4FB7
:100E20002C91848D90E001968F739927848FA689E9
:100E3000B7892C93A089B1898C9180648C93938D10
:100E4000848D981306C00288F389E02D80818F7D00
:100E500080830895CF93DF93EC01888D8823C9F0B8
:100E6000EA89FB89808185FD05C0A889B9898C91B3
:100E700086FD0FC00FB607FCF5CF808185FFF2CF4E
:100E8000A889B9898C9185FFEDCFCE010E94090711
:100E9000E7CFDF91CF910895CF92DF92FF920F932A
:100EA0001F93CF93DF931F92CDB7DEB76C01DC01A8
:100EB0005B969C915B975C968C915C97981307C0AE
:100EC0005096ED91FC915197808185FD32C0F601DD
:100ED000038D10E00F5F1F4F0F731127F02EF601E7
:100EE000848DF81211C00FB607FCF9CFD6015096C9
:100EF000ED91FC915197808185FFF1CFC601698307
:100F00000E9409076981EBCF838DE80FF11DE35A39
:100F1000FF4F6083D6015B960C935B975296ED91E1
:100F2000FC91539780818062808381E058968C93F6
:100F30000DC0D6015696ED91FC915797608350965F
:100F4000ED91FC91519780818064808381E090E0F5
:100F50000F90DF91CF911F910F91FF90DF90CF9075
:100F600008951F920F920FB60F9211242F938F9313
:100F70009F93EF93FF93E0914801F09149018081A5
:100F8000E0914E01F0914F0182FD12C0908180915D
:100F900051018F5F8F7320915201821751F0E091C0
:100FA0005101F0E0E85CFE4F958F8093510101C044
:100FB0008081FF91EF919F918F912F910F900FBEA4
:100FC0000F901F9018951F920F920FB60F92112439
:100FD0002F933F934F935F936F937F938F939F9341
:100FE000AF93BF93EF93FF9388E391E00E940907CB
:100FF000FF91EF91BF91AF919F918F917F916F91F1
:101000005F914F913F912F910F900FBE0F901F90C6
:10101000189588E391E00E94CE0621E0892B09F41F
:1010200020E0822F089510923B0110923A0188EE41
:1010300093E0A0E0B0E080933C0190933D01A09349
:101040003E01B0933F018AE091E090933901809393
:10105000380185EC90E0909345018093440184EC45
:1010600090E0909347018093460180EC90E090934C
:1010700049018093480181EC90E090934B0180936B
:101080004A0182EC90E090934D0180934C0186ECF4
:1010900090E090934F0180934E0110925101109275
:1010A000520110925301109254010895CF92DF9291
:1010B000EF92FF920F931F93CF93DF936C017A010E
:1010C000EB01E60EF71E00E010E0CE15DF0561F043
:1010D0006991D601ED91FC910190F081E02DC6015E
:1010E0000995080F191FF1CFC801DF91CF911F910A
:1010F0000F91FF90EF90DF90CF9008950C94F40C37
:101100001F920F920FB60F9211242F933F938F933C
:101110009F93AF93BF938091D6019091D701A091F7
:10112000D801B091D9013091D50123E0230F2D379B
:1011300020F40196A11DB11D05C026E8230F0296DB
:10114000A11DB11D2093D5018093D6019093D701A5
:10115000A093D801B093D9018091DA019091DB017D
:10116000A091DC01B091DD010196A11DB11D80931C
:10117000DA019093DB01A093DC01B093DD01BF9114
:10118000AF919F918F913F912F910F900FBE0F9034
:101190001F9018952FB7F8946091D6017091D701E0
:1011A0008091D8019091D9012FBF0895019739F00E
:1011B000880F991F880F991F02970197F1F70895DB
:1011C000789484B5826084BD84B5816084BD85B522
:1011D000826085BD85B5816085BDEEE6F0E08081E9
:1011E00081608083E1E8F0E010828081826080830A
:1011F000808181608083E0E8F0E08081816080838D
:10120000E1EBF0E0808184608083E0EBF0E08081BE
:1012100081608083EAE7F0E0808184608083808160
:101220008260808380818160808380818068808308
:101230001092C10008951F93CF93DF93182FEB01F5
:1012400061E00E94A309209711F460E004C0CF3F41
:10125000D10539F461E0812FDF91CF911F910C947A
:10126000DC09E12FF0E0E859FF4FE491E330F9F0B9
:1012700048F4E130B9F0E230A1F584B5806284BD74
:10128000C8BD34C0E730E9F0E83019F1E43049F581
:1012900080918000806280938000D0938B00C09307
:1012A0008A0024C084B5806884BDC7BD1FC08091FA
:1012B0008000806880938000D0938900C09388006C
:1012C00015C08091B00080688093B000C093B300D7
:1012D0000DC08091B00080628093B000C093B400D4
:1012E00005C0C038D1050CF0B5CFAFCFDF91CF919D
:1012F0001F910895833081F028F4813099F0823075
:10130000A1F008958730A9F08830B9F08430D1F485
:10131000809180008F7D03C0809180008F778093C3
:101320008000089584B58F7702C084B58F7D84BD19
:1013300008958091B0008F7703C08091B0008F7DB9
:101340008093B0000895CF93DF9390E0FC01E458C0
:10135000FF4F2491FC01E057FF4F8491882349F10E
:1013600090E0880F991FFC01E854FF4FA591B491BC
:1013700082559F4FFC01C591D4919FB7611108C060
:10138000F8948C91209582238C93888182230AC0C3
:10139000623051F4F8948C91322F309583238C93E2
:1013A0008881822B888304C0F8948C91822B8C9343
:1013B0009FBFDF91CF9108950F931F93CF93DF933A
:1013C0001F92CDB7DEB7282F30E0F901E859FF4F63
:1013D0008491F901E458FF4F1491F901E057FF4F50
:1013E00004910023C9F0882321F069830E947A09BF
:1013F0006981E02FF0E0EE0FFF1FE255FF4FA5914E
:10140000B4919FB7F8948C91611103C0109581231A
:1014100001C0812B8C939FBF0F90DF91CF911F91C3
:101420000F910895CF92DF92EF92FF920F931F9347
:10143000CF93DF9390E0FC01E458FF4FD491FC017F
:10144000E057FF4F7491611102C0C0E001C0CD2F81
:10145000DA01C901BF70672F70E0660F771F6C5506
:101460007F4F00E010E09801FB01E590F490F70158
:1014700040814D234C131EC0680179014FEFC41AFF
:10148000D40AE40AF40A081719072A073B0709F4E3
:1014900042C097018601E8CF68017901FFEFCF1ABA
:1014A000DF0AEF0AFF0A081719072A073B0799F115
:1014B00097018601FB01E590F490F70140814D23EF
:1014C0004C13EACF801B910BA20BB30B20E030E052
:1014D000A901FB01E590F490F701F080FD22FC12D8
:1014E0000AC0281739074A075B07A9F02F5F3F4F4B
:1014F0004F4F5F4FEECFA8E1B0E00E94B90A605FA6
:101500007F4F8F4F9F4F24E09695879577956795EE
:101510002A95D1F703C060E070E0CB01DF91CF9155
:101520001F910F91FF90EF90DF90CF900895A1E26F
:101530001A2EAA1BBB1BFD010DC0AA1FBB1FEE1F4D
:10154000FF1FA217B307E407F50720F0A21BB30B98
:10155000E40BF50B661F771F881F991F1A9469F714
:1015600060957095809590959B01AC01BD01CF0170
:1015700008950E94CA0AA59F900DB49F900DA49F44
:10158000800D911D11240895EE0FFF1F0590F49119
:10159000E02D0994A29FB001B39FC001A39F700DDD
:1015A000811D1124911DB29F700D811D1124911D6B
:1015B00008955058BB27AA270ED075C166D130F0C8
:1015C0006BD120F031F49F3F11F41EF45BC10EF497
:1015D000E095E7FB51C1E92F77D180F3BA17620795
:1015E00073078407950718F071F49EF58FC10EF408
:1015F000E0950B2EBA2FA02D0B01B90190010C0123
:10160000CA01A0011124FF27591B99F0593F50F43A
:10161000503E68F11A16F040A22F232F342F442792
:10162000585FF3CF469537952795A795F04053958A
:10163000C9F77EF41F16BA0B620B730B840BBAF05A
:101640009150A1F0FF0FBB1F661F771F881FC2F7C5
:101650000EC0BA0F621F731F841F48F487957795D9
:101660006795B795F7959E3F08F0B3CF9395880F90
:1016700008F09927EE0F979587950895D9D008F42B
:1016800081E008950CD00FC107D140F0FED030F0BA
:1016900021F45F3F19F0F0C0511139C1F3C014D1EA
:1016A00098F39923C9F35523B1F3951B550BBB2729
:1016B000AA2762177307840738F09F5F5F4F220FD6
:1016C000331F441FAA1FA9F333D00E2E3AF0E0E8CF
:1016D00030D091505040E695001CCAF729D0FE2F1B
:1016E00027D0660F771F881FBB1F261737074807AD
:1016F000AB07B0E809F0BB0B802DBF01FF27935863
:101700005F4F2AF09E3F510568F0B6C000C15F3FB1
:10171000ECF3983EDCF3869577956795B795F7954A
:101720009F5FC9F7880F911D9695879597F9089542
:10173000E1E0660F771F881FBB1F621773078407DE
:10174000BA0720F0621B730B840BBA0BEE1F88F7ED
:10175000E095089504D06894B111D9C00895BCD023
:1017600088F09F5790F0B92F9927B751A0F0D1F08A
:10177000660F771F881F991F1AF0BA95C9F712C014
:10178000B13081F0C3D0B1E00895C0C0672F782F89
:101790008827B85F39F0B93FCCF386957795679580
:1017A000B395D9F73EF490958095709561957F4FEC
:1017B0008F4F9F4F0895E89409C097FB3EF4909592
:1017C0008095709561957F4F8F4F9F4F9923A9F01A
:1017D000F92F96E9BB279395F695879577956795A9
:1017E000B795F111F8CFFAF4BB0F11F460FF1BC0ED
:1017F0006F5F7F4F8F4F9F4F16C0882311F096E980
:1018000011C0772321F09EE8872F762F05C066232D
:1018100071F096E8862F70E060E02AF09A95660FE6
:10182000771F881FDAF7880F9695879597F908959F
:10183000990F0008550FAA0BE0E8FEEF16161706E1
:10184000E807F907C0F012161306E407F50798F049
:10185000621B730B840B950B39F40A2661F0232B62
:10186000242B252B21F408950A2609F4A140A695DE
:101870008FEF811D811D089597F99F6780E870E0C3
:1018800060E008959FEF80EC089500240A941616F6
:10189000170618060906089500240A94121613065E
:1018A000140605060895092E0394000C11F48823EC
:1018B00052F0BB0F40F4BF2B11F460FF04C06F5F08
:1018C0007F4F8F4F9F4F089557FD9058440F551FDE
:1018D00059F05F3F71F04795880F97FB991F61F0B2
:1018E0009F3F79F087950895121613061406551F29
:1018F000F2CF4695F1DF08C0161617061806991F95
:10190000F1CF86957105610508940895E894BB2789
:1019100066277727CB0197F908958ADF08F48FEFC0
:1019200008950BD0C0CFB1DF28F0B6DF18F09523B3
:1019300009F0A2CFA7CF1124EACFC6DFA0F3959F6D
:10194000D1F3950F50E0551F629FF001729FBB27A6
:10195000F00DB11D639FAA27F00DB11DAA1F649F52
:101960006627B00DA11D661F829F2227B00DA11D05
:10197000621F739FB00DA11D621F839FA00D611D8B
:10198000221F749F3327A00D611D231F849F600DAC
:10199000211D822F762F6A2F11249F5750408AF0E5
:1019A000E1F088234AF0EE0FFF1FBB1F661F771F71
:1019B000881F91505040A9F79E3F510570F05CCFB1
:1019C000A6CF5F3FECF3983EDCF38695779567955D
:1019D000B795F795E7959F5FC1F7FE2B880F911D8F
:1019E0009695879597F90895CF93DF938230910567
:1019F00010F482E090E0E091E001F091E10120E05C
:101A000030E0A0E0B0E0309739F1408151814817D3
:101A10005907B8F04817590771F4828193811097DC
:101A200029F013969C938E9312972CC09093E1010A
:101A30008093E00127C02115310531F0421753078B
:101A400018F0A901DB0101C0EF019A01BD01DF011E
:101A50000280F381E02DD7CF21153105F9F0281B45
:101A6000390B2430310580F48A819B816115710521
:101A700021F0FB019383828304C09093E101809362
:101A8000E001FE01329644C0FE01E20FF31F819394
:101A9000919322503109398328833AC02091DE0185
:101AA0003091DF01232B41F4209102013091030199
:101AB0003093DF012093DE0120910001309101017C
:101AC0002115310541F42DB73EB7409104015091E5
:101AD0000501241B350BE091DE01F091DF01E217D7
:101AE000F307A0F42E1B3F0B2817390778F0AC0141
:101AF0004E5F5F4F2417350748F04E0F5F1F50931E
:101B0000DF014093DE018193919302C0E0E0F0E0B9
:101B1000CF01DF91CF910895CF93DF93009709F420
:101B200087C0FC01329713821282C091E001D091EC
:101B3000E101209781F420813181280F391F8091A4
:101B4000DE019091DF018217930779F5F093DF01B1
:101B5000E093DE016DC0DE0120E030E0AE17BF078C
:101B600050F412964D915C9113979D0141155105CA
:101B700009F1DA01F3CFB383A28340815181840F4D
:101B8000951F8A179B0771F48D919C911197840F73
:101B9000951F02969183808312968D919C91139745
:101BA000938382832115310529F4F093E101E093B9
:101BB000E0013EC0D9011396FC93EE9312974D912C
:101BC0005D91A40FB51FEA17FB0779F4808191811D
:101BD000840F951F0296D90111969C938E93828152
:101BE000938113969C938E931297E0E0F0E08A81A4
:101BF0009B81009719F0FE01EC01F9CFCE0102960E
:101C000028813981820F931F2091DE013091DF01FD
:101C10002817390769F4309729F41092E1011092DE
:101C2000E00102C013821282D093DF01C093DE0173
:0A1C3000DF91CF910895F894FFCFE3
:101C3A000000E2018000000000004C075608CE06B2
:061C4A00E706D9062A0797
:00000001FF
