:100000000C9462000C948A000C948A000C948A0070
:100010000C948A000C948A000C948A000C948A0038
:100020000C948A000C948A000C948A000C948A0028
:100030000C948A000C948A000C948A000C948A0018
:100040000C94660C0C948A000C945B090C948D093A
:100050000C948A000C948A000C948A000C948A00F8
:100060000C948A000C948A00000000080002010031
:100070000003040700000000000000000102040863
:100080001020408001020408102001020408102002
:10009000040404040404040402020202020203032E
:1000A00003030303000000002300260029000000D2
:1000B0000000250028002B0000000000240027007D
:1000C0002A00BD0911241FBECFEFD8E0DEBFCDBF8F
:1000D00011E0A0E0B1E0E8EEF3E202C005900D927D
:1000E000AC33B107D9F722E0ACE3B1E001C01D9217
:1000F000A232B207E1F710E0C4ECD0E004C02297CE
:10010000FE010E94990EC23CD107C9F70E94070860
:100110000C94F2110C940000CF92DF92EF92FF92B8
:100120000F931F93CF93DF93EC01CB01BA016801CA
:100130007901A90198010E94AD0E9B01AC01C70194
:10014000B6010E94150F688379838A839B83DF91B0
:10015000CF911F910F91FF90EF90DF90CF90089576
:100160008F929F92AF92BF92CF92DF92EF92FF92C7
:10017000CF93DF93EC01CB01BA01C880D980EA802C
:10018000FB80A70196010E9464104B015C01A7014E
:10019000960160E070E080E89FE30E94AC0E2C8145
:1001A0003D814E815F810E9464109B01AC01C501BD
:1001B000B4010E94AD0E6C837D838E839F83DF919B
:1001C000CF91FF90EF90DF90CF90BF90AF909F9036
:1001D0008F9008952F923F924F925F926F927F92ED
:1001E0008F929F92AF92BF92CF92DF92EF92FF9247
:1001F0000F931F93CF93DF93CDB7DEB73C01862FCC
:100200002D883E884F88588CF30184869586A68673
:10021000B786208A318A428A538A608371835383E6
:1002200042833583248317830683F186E086D38651
:10023000C28661E00E94470D61E0F30182810E9465
:10024000470D61E0F30184810E94470D61E0F301F5
:1002500086810E94470D61E0F30180850E94470D71
:1002600061E0F3018285DF91CF911F910F91FF90A3
:10027000EF90DF90CF90BF90AF909F908F907F9046
:100280006F905F904F903F902F900C94470DCF93BD
:10029000DF93EC01862F688379835B834A8360E078
:1002A0000E94470D61E08A81DF91CF910C94470D48
:1002B000CF93DF93EC0160E08A810E94800D8AE099
:1002C00090E00E94BC0C61E08A810E94800D84E174
:1002D00090E00E94BC0C60E08A810E94800D20E4C6
:1002E00032E44FE050E061E088810E94B60D2AE3DD
:1002F00030E040E050E00E944B0E2D3281E03807A4
:100300004105510528F06FE372E48FE090E002C0F0
:10031000B901CA01DF91CF9108952F923F924F9278
:100320005F926F927F928F929F92AF92BF92CF9285
:10033000DF92EF92FF920F931F93CF93DF93CDB78E
:10034000DEB72B970FB6F894DEBF0FBECDBF9B87ED
:100350008A87DC01D896BC91B983B11102C0198299
:10036000E2C00E94B00C6A837B838C839D83EA8504
:10037000FB8580A191A1A2A1B3A14A815B816C817F
:100380007D81481B590B6A0B7B0B84A595A5A6A5FF
:10039000B7A5481759076A077B0708F3028CF38D46
:1003A000E02D80809180A280B380AA85BB855E9677
:1003B000ED91FC915F97A50194016081718182812B
:1003C00093810E94AC0E2B013C01EA85FB852089BC
:1003D0003189428953890E946410AA85BB8594960D
:1003E0002D913D914D915C9197970E94AD0E6B01BF
:1003F0007C01EA85FB8564A375A386A397A324A843
:1004000035A806A917A99101A8010E946010181625
:100410001CF4C101D80118C0AA85BB85D0968D9166
:100420009D910D90BC91A02D8E839F83A887B98745
:100430009C01AD01C701B6010E94110F87FF0AC0E0
:100440008E819F81A885B985EA85FB8584A395A3C4
:10045000A6A3B7A3AA85BB851C962D913D914D916E
:100460005C911F97C301B2010E946410EA85FB856D
:1004700024A135A146A157A10E94AD0E6B017C01BC
:10048000AA85BB8598962D913D914D915C919B9746
:10049000C501B4010E94AC0EEA85FB85248935892B
:1004A000468957890E9464109B01AC01C701B601BF
:1004B0000E94AC0E6B017C019101A8010E946010AA
:1004C0001816BCF0AA85BB85D0962C90D097D196F3
:1004D0003C90D197D2960C91D297D3961C919101D2
:1004E000A801B601C7010E94110F87FD02C01601C5
:1004F0008701AA85BB855C96ED91FC915D97C10152
:10050000D80180839183A283B383EA85FB8580A68B
:1005100091A6A2A6B3A68A819B81AC81BD8180A34E
:1005200091A3A2A3B3A389812B960FB6F894DEBF43
:100530000FBECDBFDF91CF911F910F91FF90EF9034
:10054000DF90CF90BF90AF909F908F907F906F90F3
:100550005F904F903F902F9008952F923F924F922F
:100560005F926F927F928F929F92AF92BF92CF9243
:10057000DF92EF92FF920F931F93CF93DF9300D000
:1005800000D0CDB7DEB71C012A013B01480159015B
:1005900020E030E0A901C301B2010E94110F87FDE4
:1005A00078C020E030E0A901C501B4010E94110F1C
:1005B00087FD6FC020E030E0A901C701B6010E94AD
:1005C000110F87FD66C0F101408251826282738201
:1005D00084829582A682B782C086D186E286F3861F
:1005E00064A575A586A597A50E94AE0F20E030E012
:1005F0004AE754E40E94150F69837A838B839C83B6
:10060000F10144865586668677869B01AC01C5015B
:10061000B4010E9464104B015C01F101608B718B8D
:10062000828B938B29813A814B815C81C701B60112
:100630000E94150F6B017C01F101648B758B868B19
:10064000978B808D918D019721F5A301920160E038
:1006500070E0CB010E94AC0EF1016487758786873C
:100660009787A501940160E070E0CB010E94AC0E79
:10067000F101608B718B828B938BA701960160E0F7
:1006800070E0CB010E94AC0EF101648B758B868B00
:10069000978B0F900F900F900F90DF91CF911F913C
:1006A0000F91FF90EF90DF90CF90BF90AF909F9011
:1006B0008F907F906F905F904F903F902F90089514
:1006C0008F929F92AF92BF92CF92DF92EF92FF9262
:1006D000CF93DF93EC0116161706ACF56B01EE24F1
:1006E000D7FCE094FE2CC701B6010E94B00F4B016D
:1006F0005C016CA57DA58EA59FA50E94AE0F9B01F8
:10070000AC01C501B4010E94150F4B015C019B01B6
:10071000AC01688979898A899B890E946410688BF9
:10072000798B8A8B9B8BA50194016C897D898E893D
:100730009F890E94150F6C8B7D8B8E8B9F8BCCA617
:10074000DDA6EEA6FFA6DF91CF91FF90EF90DF90A0
:10075000CF90BF90AF909F908F9008952F923F922F
:100760004F925F926F927F928F929F92AF92BF92C1
:10077000CF92DF92EF92FF920F931F93CF93DF936D
:10078000EC016A017B0148015901A9019801C701E7
:10079000B6010E94601087FF4EC0C8AAD9AAEAAA73
:1007A000FBAA8CAA9DAAAEAABFAA88AD882309F489
:1007B00042C02C8C3D8CF10140805180628073805E
:1007C000A5019401C301B2010E946010181634F40F
:1007D000F10180829182A282B3820DC0A7019601AD
:1007E000C301B2010E94110F87FF05C0F101C08251
:1007F000D182E282F3828CA09DA0AEA0BFA0CCA843
:10080000DDA8EEA8FFA8A7019601C501B4010E94CA
:100810006010181664F0C8A8D9A8EAA8FBA8A70118
:100820009601C501B4010E94110F87FF04C0CCA23C
:10083000DDA2EEA2FFA2DF91CF911F910F91FF9059
:10084000EF90DF90CF90BF90AF909F908F907F9070
:100850006F905F904F903F902F9008958F929F924E
:10086000AF92BF92CF92DF92EF92FF92CF93DF933E
:10087000EC01EC8DFD8DC080D180E280F380CCA2B4
:10088000DDA2EEA2FFA2EA8DFB8D80819181A28183
:10089000B38188A799A7AAA7BBA78CA89DA8AEA833
:1008A000BFA8A5019401C701B6010E9460101816E7
:1008B00064F088A899A8AAA8BBA8A5019401C701BB
:1008C000B6010E94110F87FF04C08CA29DA2AEA2A8
:1008D000BFA2DF91CF91FF90EF90DF90CF90BF90BC
:1008E000AF909F908F9008951F93CF93DF93EC016B
:1008F00011E06130710509F010E088AD91E08927C1
:10090000181303C0CE010E942E0418AFDF91CF91BF
:100910001F9108950F931F93CF93DF93EC018B01E9
:1009200088AD882361F1888D998D6817790739F131
:100930002C853D854E855F8560E070E0CB010E948F
:10094000AC0E6C877D878E879F87288939894A8975
:100950005B8960E070E0CB010E94AC0E688B798B04
:100960008A8B9B8B2C893D894E895F8960E070E082
:10097000CB010E94AC0E6C8B7D8B8E8B9F8B198F65
:10098000088FDF91CF911F910F9108954F925F9241
:100990006F927F928F929F92AF92BF92CF92DF928F
:1009A000EF92FF920F931F93CF93DF9300D000D06D
:1009B000CDB7DEB74C0127013801A982BA82CB82BC
:1009C000DC82FC01558F448F738F628F378F268FA7
:1009D00010AE10AA11AA12AA13AA80E090E0AFE705
:1009E000B3E484AB95ABA6ABB7AB84E690E0A0E0F4
:1009F000B0E084A795A7A6A7B7A76B8D7C8DC4018F
:100A00000E948A04CF88D88CE98CFA8C09811A81DB
:100A10002B813C81B301A201C4010E94AD020E945E
:100A2000B00CF40144A455A466A477A46419750914
:100A30008609970960A371A382A393A30F900F90D7
:100A40000F900F90DF91CF911F910F91FF90EF903A
:100A5000DF90CF90BF90AF909F908F907F906F90DE
:100A60005F904F9008956F927F928F929F92AF9276
:100A7000BF92CF92DF92EF92FF920F931F93CF938B
:100A8000DF93EC0126E040E855E260E070E088E7A3
:100A900091E00E94F90884E090E00E94640C8C01CF
:100AA00048E050E069E070E00E94470119A708A7FC
:100AB00084E190E00E94640C3C018FE38F9380E816
:100AC0008F931F921F92812C912C80E8A82E8FE388
:100AD000B82E97E0C92ED12C25E0E22EF12C06E0AD
:100AE00010E024E030E042E050E063E070E0C30159
:100AF0000E94EA007982688288E090E00E94640C9B
:100B00007C010AE017ED23E23CE34DEC5CEC6CE485
:100B10007DE30E948C00FBA6EAA680E090E0A0EFB7
:100B2000B1E48AA39BA3ACA3BDA389E390E00E9498
:100B3000640C4C019E012E5D3F4FAE01425E5F4F43
:100B4000BE01665E7F4F1F921F9280E48F931F92BB
:100B50001F921F92A12CB12CE0E2CE2EE1E4DE2EFA
:100B6000E12CF12C00EA10E4C4010E94C6049FA20B
:100B70008EA2CA88DB88EC88FD880A851B852C85B7
:100B80003D854A815B816C817D81C4010E94AD02FB
:100B900061E070E08EA19FA10E9474046AE070E0A1
:100BA0008EA19FA10E94600300E010E02FE733E4D4
:100BB00040E050E06FE773EC8EA19FA10E94AE036E
:100BC0008DB79EB70A960FB6F8949EBF0FBE8DBF25
:100BD000DF91CF911F910F91FF90EF90DF90CF9019
:100BE000BF90AF909F908F907F906F9008956F927D
:100BF0007F928F929F92AF92BF92CF92DF92EF92AD
:100C0000FF920F931F93CF93DF93EC018EE00E942E
:100C1000010D8C018FE00E94010D3C0180E10E94DA
:100C2000010D4C01B801882777FD8095982F1F9200
:100C30001F9221E62F9328EA2F93A12CB12C650156
:100C4000EE24EA9413E0F12E00E010E020E030E022
:100C5000A9010E941D0C0E94B00F20E030E048EC7A
:100C600052E40E94150F6A837B838C839D83B301BA
:100C7000882777FD8095982F1F92772473947F9211
:100C800026E82F9320EA2F9320E030E0A9010E946C
:100C90001D0C0E94B00F20E030E048EC52E40E94AE
:100CA000150F6A877B878C879D87B401882777FD1E
:100CB0008095982F1F921F927F9224EF2F9320E010
:100CC00030E0A9010E941D0C0E94B00F20E030E02E
:100CD00048EC52E40E94150F4B015C016A8B7B8B40
:100CE0008C8B9D8BCA80DB80EC80FD808DB79EB79E
:100CF0000C960FB6F8949EBF0FBE8DBF2E813F811C
:100D000048855985C701B6010E94110F811117C08E
:100D10002E853F85488959896A857B858C859D8587
:100D20000E94110F81110BC02E893F89488D598D6A
:100D3000C501B4010E94110F882309F450C022E0BC
:100D400030E0B701A60188E791E00E94090C6BE052
:100D500071E088E791E00E943E0A4A855B856C85D8
:100D60007D8522E030E088E791E00E94090C6BE08D
:100D700071E088E791E00E943E0A4A895B896C89AC
:100D80007D8922E030E088E791E00E940B0CCA8860
:100D9000DB88EC88FD880A851B852C853D854A818A
:100DA0005B816C817D818EA19FA10E94AD028A81B1
:100DB0009B81AC81BD818E839F83A887B9878A85FB
:100DC0009B85AC85BD858E879F87A88BB98B8A89CB
:100DD0009B89AC89BD898E8B9F8BA88FB98FDF9142
:100DE000CF911F910F91FF90EF90DF90CF90BF9028
:100DF000AF909F908F907F906F900895CF93DF93E7
:100E0000EC0188A599A50E9458010E94AE0FAB0184
:100E1000BC018AA59BA50E94B0006A8F7B8F8C8F36
:100E20009D8F8EA19FA1DF91CF910C948D01CF92C8
:100E3000DF92EF92FF920F931F93CF93DF93EC011A
:100E4000CE8CDF8CE8A0F9A020E030E0A901C7013A
:100E5000B6010E94110F87FF0FC020E030E04FE77E
:100E600053E4C701B6010E94AD0E0E947D0F062F0C
:100E7000E72E1FEFF12C0EC0A701960160E070E095
:100E80008FE793E40E94AC0E0E947D0F162FF72E81
:100E90000FEFE12C6EE071E088E791E00E943E0ADE
:100EA0004A8D5B8D6C8D7D8D22E030E088E791E08E
:100EB0000E94090C64E171E088E791E00E943E0A1B
:100EC000602F7E2D6E31710514F46EE170E04AE002
:100ED00050E088E791E00E94FE0A69E171E088E74E
:100EE00091E00E943E0A612F7F2D6E31710514F44E
:100EF0006EE170E04AE050E088E791E0DF91CF9149
:100F00001F910F91FF90EF90DF90CF900C94060B04
:100F1000CF93DF93EC010E94FE06CE01DF91CF91CB
:100F20000C941707CF92DF92EF92FF92CF93DF934B
:100F3000EC010E94B00C6B017C014CA55DA56EA577
:100F40007FA5D701C601841B950BA60BB70BAC017F
:100F5000BD01483E53406105710538F0CCA6DDA6C1
:100F6000EEA6FFA6CE010E94F70548A959A96AA9D5
:100F70007BA9D701C601841B950BA60BB70B883C38
:100F80009105A105B10520F0C8AAD9AAEAAAFBAA31
:100F90004CA95DA96EA97FA9D701C601841B950B39
:100FA000A60BB70B84369105A105B10520F0CCAA9C
:100FB000DDAAEEAAFFAA48AD59AD6AAD7BADD70157
:100FC000C601841B950BA60BB70B8A309105A105B2
:100FD000B10568F0C8AED9AEEAAEFBAECE01DF9186
:100FE000CF91FF90EF90DF90CF900C948807DF9126
:100FF000CF91FF90EF90DF90CF90089508958CE30C
:1010000091E00C9433058CE391E00C9492070E94DC
:10101000C60C0E94FE070E94FF07C3E4D8E00E94AE
:1010200003082097E1F30E944308F9CFFC01818D6A
:10103000228D90E0805C9F4F821B91098F739927CE
:101040000895FC01918D828D981731F0828DE80F03
:10105000F11D858D90E008958FEF9FEF0895FC01BD
:10106000918D828D981761F0828DDF01A80FB11DDF
:101070005D968C91928D9F5F9F73928F90E0089503
:101080008FEF9FEF089583EB99E0892B49F080E083
:1010900090E0892B29F00E94B30981110C94000083
:1010A0000895FC01848DDF01A80FB11DA35ABF4F25
:1010B0002C91848D90E001968F739927848FA68957
:1010C000B7892C93A089B1898C9180648C93938D7E
:1010D000848D981306C00288F389E02D80818F7D6E
:1010E00080830895CF93DF93EC01888D8823C9F026
:1010F000EA89FB89808185FD05C0A889B9898C9121
:1011000086FD0FC00FB607FCF5CF808185FFF2CFBB
:10111000A889B9898C9185FFEDCFCE010E94510835
:10112000E7CFDF91CF910895CF92DF92FF920F9397
:101130001F93CF93DF931F92CDB7DEB76C01DC0115
:101140005B969C915B975C968C915C97981307C01B
:101150005096ED91FC915197808185FD32C0F6014A
:10116000038D10E00F5F1F4F0F731127F02EF60154
:10117000848DF81211C00FB607FCF9CFD601509636
:10118000ED91FC915197808185FFF1CFC601698374
:101190000E9451086981EBCF838DE80FF11DE35A5E
:1011A000FF4F6083D6015B960C935B975296ED914F
:1011B000FC91539780818062808381E058968C9364
:1011C0000DC0D6015696ED91FC91579760835096CD
:1011D000ED91FC91519780818064808381E090E063
:1011E0000F90DF91CF911F910F91FF90DF90CF90E3
:1011F0000895BF92CF92DF92EF92FF92CF93DF9349
:10120000EC016A017B01B22EE889F98982E08083D2
:10121000411581EE580761057105A1F060E079E0A4
:101220008DE390E0A70196010E944B0E21503109F9
:10123000410951095695479537952795211580E124
:10124000380798F0E889F989108260E874E88EE13F
:1012500090E0A70196010E944B0E215031094109EF
:1012600051095695479537952795EC85FD8530832F
:10127000EE85FF852083188EEC89FD89B082EA898E
:10128000FB89808180618083EA89FB898081886015
:101290008083EA89FB89808180688083EA89FB8971
:1012A00080818F7D8083DF91CF91FF90EF90DF90E1
:1012B000CF90BF9008951F920F920FB60F921124F6
:1012C0002F938F939F93EF93FF93E0918801F09179
:1012D00089018081E0918E01F0918F0182FD12C021
:1012E0009081809191018F5F8F732091920182177D
:1012F00051F0E0919101F0E0E858FE4F958F809316
:10130000910101C08081FF91EF919F918F912F9169
:101310000F900FBE0F901F9018951F920F920FB64F
:101320000F9211242F933F934F935F936F937F936B
:101330008F939F93AF93BF93EF93FF9388E791E0D1
:101340000E945108FF91EF91BF91AF919F918F91B2
:101350007F916F915F914F913F912F910F900FBEB1
:101360000F901F90189588E791E00E94160821E0E1
:10137000892B09F420E0822F089510927B011092AE
:101380007A0188EE93E0A0E0B0E080937C01909336
:101390007D01A0937E01B0937F0181E291E0909363
:1013A00079018093780185EC90E09093850180939A
:1013B000840184EC90E0909387018093860180EC17
:1013C00090E0909389018093880181EC90E0909364
:1013D0008B0180938A0182EC90E090938D01809341
:1013E0008C0186EC90E090938F0180938E01109297
:1013F000910110929201109293011092940108951C
:10140000CF92DF92EF92FF920F931F93CF93DF93D0
:101410006C017A01EB01E60EF71E00E010E0CE153C
:10142000DF0561F06991D601ED91FC910190F081A9
:10143000E02DC6010995080F191FF1CFC801DF91F2
:10144000CF911F910F91FF90EF90DF90CF90089573
:101450006115710581F0DB010D900020E9F7AD0108
:1014600041505109461B570BDC01ED91FC91028064
:10147000F381E02D099480E090E008950C94280A0F
:10148000DC01ED91FC910190F081E02D09940F9326
:101490001F93CF93DF93EC016DE00E94400A8C0113
:1014A0006AE0CE010E94400A800F911FDF91CF9128
:1014B0001F910F9108958F929F92AF92BF92CF92FA
:1014C000DF92EF92FF920F931F93CF93DF93CDB7ED
:1014D000DEB7A1970FB6F894DEBF0FBECDBF7C017B
:1014E000C42EE52FCB01D22E19A221E02D1510F02C
:1014F0002AE0D22E8E010F5D1F4F8D2C912CA12C36
:10150000B12C6C2D7E2FA50194010E944B0E8C2DC9
:10151000D29E80191124015011098A3014F4805D83
:1015200001C0895CF8018083211531054105510511
:1015300021F0C22EE32FCA01E4CFB801C7010E94F7
:10154000280AA1960FB6F894DEBF0FBECDBFDF917B
:10155000CF911F910F91FF90EF90DF90CF90BF90B0
:10156000AF909F908F900895CF92DF92EF92FF926D
:101570000F931F93CF93DF93EC016A017B01211539
:10158000310579F4E881F9810190F081E02D642F33
:10159000DF91CF911F910F91FF90EF90DF90CF904F
:1015A00009942A303105E9F477FF1AC06DE20E94F0
:1015B000400A8C0144275527BA014C195D096E0970
:1015C0007F092AE0CE010E945B0A800F911FDF9104
:1015D000CF911F910F91FF90EF90DF90CF900895E2
:1015E0002AE0B701A601CE01DF91CF911F910F91A3
:1015F000FF90EF90DF90CF900C945B0A9A01AB01C3
:10160000662757FD6095762F0C94B40A0F931F93AD
:10161000CF93DF93EC019A01AB01662757FD6095EC
:10162000762F0E94B40A8C01CE010E94470A800FD7
:10163000911FDF91CF911F910F9108954F925F926B
:101640006F927F928F929F92AF92BF92CF92DF92D2
:10165000EF92FF920F931F93CF93DF93EC016A01F8
:101660007B01B22E9A01AB01C701B6010E94C710DF
:10167000882319F06DE271E027C026013701E89454
:1016800077F82FEF3FEF4FE75FE7C301B2010E940A
:10169000C71081110DC02FEF3FEF4FE75FE7C30188
:1016A000B2010E94110F18161CF461E371E00CC026
:1016B0002FEF3FEF4FE75FE4C701B6010E946010D4
:1016C0001816ACF465E371E0CE01DF91CF911F9164
:1016D0000F91FF90EF90DF90CF90BF90AF909F90D1
:1016E0008F907F906F905F904F900C94280A2FEF0F
:1016F0003FEF4FE75FECC701B6010E94110F87FD76
:10170000E1CF20E030E0A901C701B6010E94110F2E
:1017100087FF0AC06DE2CE010E94400A8C01F7FAF1
:10172000F094F7F8F09402C000E010E0A12C60E023
:1017300070E080E09FE3AB1441F020E030E040E255
:1017400051E40E94150FA394F6CF9B01AC01C70191
:10175000B6010E94AD0E6B017C010E94820F2B012D
:101760003C010E94AE0F9B01AC01C701B6010E9473
:10177000AC0E6B017C012AE0B301A201CE010E94F4
:101780005B0A080F191FBB2039F069E371E0CE0135
:101790000E94280A080F191F7B2C772041F120E0B6
:1017A00030E040E251E4C701B6010E9464106B01D1
:1017B0007C010E947D0F4B01AA2497FCA094BA2CB7
:1017C0002AE030E0B501A401CE010E94B40A080F5E
:1017D000191FC501B4010E94B00F9B01AC01C701E4
:1017E000B6010E94AC0E6B017C017A94D6CFC80181
:1017F000DF91CF911F910F91FF90EF90DF90CF90ED
:10180000BF90AF909F908F907F906F905F904F9020
:1018100008950C941E0B0F931F93CF93DF93EC014D
:101820000E941E0B8C01CE010E94470A800F911F5F
:10183000DF91CF911F910F9108954F925F926F9218
:101840007F92AF92BF92CF92DF92EF92FF920F936F
:101850001F93CF93DF93CDB7DEB729013A01621B07
:10186000730B840B950B29893A894B895C892A195A
:101870003B094C095D09298B3A8B4B8B5C8B9B0197
:10188000AC0169897A898B899C890E943B0EE41896
:10189000F50806091709A80197010E946D0E2A0D87
:1018A0003B1D4C1D5D1DCA01B901DF91CF911F91F8
:1018B0000F91FF90EF90DF90CF90BF90AF907F900F
:1018C0006F905F904F9008950C94CB101F920F92E1
:1018D0000FB60F9211242F933F938F939F93AF9343
:1018E000BF938091160290911702A0911802B091B7
:1018F00019023091150223E0230F2D3720F40196B1
:10190000A11DB11D05C026E8230F0296A11DB11D22
:10191000209315028093160290931702A093180249
:10192000B093190280911A0290911B02A0911C029F
:10193000B0911D020196A11DB11D80931A029093D2
:101940001B02A0931C02B0931D02BF91AF919F9107
:101950008F913F912F910F900FBE0F901F90189570
:101960002FB7F894609116027091170280911802B7
:10197000909119022FBF0895019739F0880F991F90
:10198000880F991F02970197F1F70895789484B50D
:10199000826084BD84B5816084BD85B5826085BD6B
:1019A00085B5816085BDEEE6F0E080818160808351
:1019B000E1E8F0E010828081826080838081816034
:1019C0008083E0E8F0E0808181608083E1EBF0E0FB
:1019D000808184608083E0EBF0E08081816080839F
:1019E000EAE7F0E080818460808380818260808388
:1019F0008081816080838081806880831092C100B3
:101A000008958E3008F08E50877020910A0190E47E
:101A1000299F90011124822B80937C0080917A0071
:101A2000806480937A0080917A0086FDFCCF80915B
:101A300078002091790090E0922B0895833081F016
:101A400028F4813099F08230A1F008958730A9F010
:101A50008830B9F08430D1F4809180008F7D03C04C
:101A6000809180008F7780938000089584B58F7770
:101A700002C084B58F7D84BD08958091B0008F77BA
:101A800003C08091B0008F7D8093B0000895CF9304
:101A9000DF9390E0FC01E458FF4F2491FC01E057F4
:101AA000FF4F8491882349F190E0880F991FFC0132
:101AB000E854FF4FA591B49182559F4FFC01C59109
:101AC000D4919FB7611108C0F8948C91209582231E
:101AD0008C93888182230AC0623051F4F8948C91EF
:101AE000322F309583238C938881822B888304C086
:101AF000F8948C91822B8C939FBFDF91CF910895A6
:101B00000F931F93CF93DF931F92CDB7DEB7282F8C
:101B100030E0F901E859FF4F8491F901E458FF4F93
:101B20001491F901E057FF4F04910023C9F0882375
:101B300021F069830E941E0D6981E02FF0E0EE0F15
:101B4000FF1FE255FF4FA591B4919FB7F8948C9178
:101B5000611103C01095812301C0812B8C939FBF1D
:101B60000F90DF91CF911F910F910895CF92DF9247
:101B7000EF92FF920F931F93CF93DF9390E0FC01BE
:101B8000E458FF4FD491FC01E057FF4F749161116D
:101B900002C0C0E001C0CD2FDA01C901BF70672FBC
:101BA00070E0660F771F6C557F4F00E010E09801E2
:101BB000FB01E590F490F70140814D234C131EC0CA
:101BC000680179014FEFC41AD40AE40AF40A08172D
:101BD00019072A073B0709F442C097018601E8CF9D
:101BE00068017901FFEFCF1ADF0AEF0AFF0A081731
:101BF00019072A073B0799F197018601FB01E59038
:101C0000F490F70140814D234C13EACF801B910BD8
:101C1000A20BB30B20E030E0A901FB01E590F490AA
:101C2000F701F080FD22FC120AC0281739074A0785
:101C30005B07A9F02F5F3F4F4F4F5F4FEECFA8E1FB
:101C4000B0E00E948C0E605F7F4F8F4F9F4F24E06B
:101C500096958795779567952A95D1F703C060E0AB
:101C600070E0CB01DF91CF911F910F91FF90EF902A
:101C7000DF90CF900895DB018F939F930E948C0E8D
:101C8000BF91AF91A29F800D911DA39F900DB29F18
:101C9000900D11240895A1E21A2EAA1BBB1BFD0171
:101CA0000DC0AA1FBB1FEE1FFF1FA217B307E4073B
:101CB000F50720F0A21BB30BE40BF50B661F771F93
:101CC000881F991F1A9469F7609570958095909573
:101CD0009B01AC01BD01CF010895052E97FB1EF4B9
:101CE00000940E94840E57FD07D00E944B0E07FC03
:101CF00003D04EF40C94840E509540953095219568
:101D00003F4F4F4F5F4F0895909580957095619527
:101D10007F4F8F4F9F4F08950E949D0EA59F900D5E
:101D2000B49F900DA49F800D911D11240895EE0F76
:101D3000FF1F0590F491E02D0994A29FB001B39F7D
:101D4000C001A39F700D811D1124911DB29F700DC4
:101D5000811D1124911D08955058BB27AA270ED02C
:101D600075C166D130F06BD120F031F49F3F11F492
:101D70001EF45BC10EF4E095E7FB51C1E92F77D16A
:101D800080F3BA17620773078407950718F071F498
:101D90009EF58FC10EF4E0950B2EBA2FA02D0B01EE
:101DA000B90190010C01CA01A0011124FF27591BA0
:101DB00099F0593F50F4503E68F11A16F040A22FA6
:101DC000232F342F4427585FF3CF46953795279517
:101DD000A795F0405395C9F77EF41F16BA0B620B16
:101DE000730B840BBAF09150A1F0FF0FBB1F661F5D
:101DF000771F881FC2F70EC0BA0F621F731F841FA0
:101E000048F4879577956795B795F7959E3F08F0C5
:101E1000B3CF9395880F08F09927EE0F9795879584
:101E20000895D9D008F481E008950CD00FC107D1EE
:101E300040F0FED030F021F45F3F19F0F0C05111B6
:101E400039C1F3C014D198F39923C9F35523B1F3E1
:101E5000951B550BBB27AA2762177307840738F019
:101E60009F5F5F4F220F331F441FAA1FA9F333D078
:101E70000E2E3AF0E0E830D091505040E695001C2C
:101E8000CAF729D0FE2F27D0660F771F881FBB1FE8
:101E9000261737074807AB07B0E809F0BB0B802DC2
:101EA000BF01FF2793585F4F2AF09E3F510568F00E
:101EB000B6C000C15F3FECF3983EDCF386957795A2
:101EC0006795B795F7959F5FC9F7880F911D969510
:101ED000879597F90895E1E0660F771F881FBB1F6C
:101EE000621773078407BA0720F0621B730B840B19
:101EF000BA0BEE1F88F7E095089504D06894B111ED
:101F0000D9C00895BCD088F09F5790F0B92F992779
:101F1000B751A0F0D1F0660F771F881F991F1AF0F4
:101F2000BA95C9F712C0B13081F0C3D0B1E00895BD
:101F3000C0C0672F782F8827B85F39F0B93FCCF33E
:101F4000869577956795B395D9F73EF490958095EA
:101F5000709561957F4F8F4F9F4F0895E89409C00A
:101F600097FB3EF490958095709561957F4F8F4FCC
:101F70009F4F9923A9F0F92F96E9BB279395F695E2
:101F8000879577956795B795F111F8CFFAF4BB0F60
:101F900011F460FF1BC06F5F7F4F8F4F9F4F16C0C4
:101FA000882311F096E911C0772321F09EE8872F4E
:101FB000762F05C0662371F096E8862F70E060E00A
:101FC0002AF09A95660F771F881FDAF7880F969583
:101FD000879597F90895990F0008550FAA0BE0E827
:101FE000FEEF16161706E807F907C0F012161306DB
:101FF000E407F50798F0621B730B840B950B39F41B
:102000000A2661F0232B242B252B21F408950A2680
:1020100009F4A140A6958FEF811D811D089597F9C0
:102020009F6780E870E060E008959FEF80EC08957E
:1020300000240A94161617061806090608950024A7
:102040000A9412161306140605060895092E039421
:10205000000C11F4882352F0BB0F40F4BF2B11F495
:1020600060FF04C06F5F7F4F8F4F9F4F089557FDF4
:102070009058440F551F59F05F3F71F04795880FF6
:1020800097FB991F61F09F3F79F08795089512168D
:1020900013061406551FF2CF4695F1DF08C0161639
:1020A00017061806991FF1CF8695710561050894EA
:1020B0000895E894BB2766277727CB0197F9089501
:1020C0008ADF08F48FEF08950BD0C0CFB1DF28F07E
:1020D000B6DF18F0952309F0A2CFA7CF1124EACFDD
:1020E000C6DFA0F3959FD1F3950F50E0551F629F77
:1020F000F001729FBB27F00DB11D639FAA27F00D61
:10210000B11DAA1F649F6627B00DA11D661F829F87
:102110002227B00DA11D621F739FB00DA11D621F6C
:10212000839FA00D611D221F749F3327A00D611D89
:10213000231F849F600D211D822F762F6A2F11246B
:102140009F5750408AF0E1F088234AF0EE0FFF1FBE
:10215000BB1F661F771F881F91505040A9F79E3FF5
:10216000510570F05CCFA6CF5F3FECF3983EDCF3F7
:10217000869577956795B795F795E7959F5FC1F732
:10218000FE2B880F911D9695879597F9089523DF6B
:10219000880B990B0895CF93DF938230910510F44B
:1021A00082E090E0E0912002F091210220E030E016
:1021B000A0E0B0E0309739F14081518148175907CC
:1021C000B8F04817590771F482819381109729F06C
:1021D00013969C938E9312972CC090932102809318
:1021E000200227C02115310531F04217530718F09E
:1021F000A901DB0101C0EF019A01BD01DF010280ED
:10220000F381E02DD7CF21153105F9F0281B390BCB
:102210002430310580F48A819B816115710521F09C
:10222000FB019383828304C0909321028093200258
:10223000FE01329644C0FE01E20FF31F8193919399
:1022400022503109398328833AC020911E023091EF
:102250001F02232B41F4209102013091030130939E
:102260001F0220931E0220910001309101012115CF
:10227000310541F42DB73EB740910401509105015D
:10228000241B350BE0911E02F0911F02E217F307A9
:10229000A0F42E1B3F0B2817390778F0AC014E5FD6
:1022A0005F4F2417350748F04E0F5F1F50931F02F2
:1022B00040931E028193919302C0E0E0F0E0CF01D1
:1022C000DF91CF910895CF93DF93009709F487C0F2
:1022D000FC01329713821282C0912002D091210218
:1022E000209781F420813181280F391F80911E02AF
:1022F00090911F028217930779F5F0931F02E093E4
:102300001E026DC0DE0120E030E0AE17BF0750F4C2
:1023100012964D915C9113979D014115510509F15C
:10232000DA01F3CFB383A28340815181840F951FDB
:102330008A179B0771F48D919C911197840F951FBB
:1023400002969183808312968D919C91139793832B
:1023500082832115310529F4F0932102E0932002B4
:102360003EC0D9011396FC93EE9312974D915D9167
:10237000A40FB51FEA17FB0779F480819181840FC0
:10238000951F0296D90111969C938E938281938119
:1023900013969C938E931297E0E0F0E08A819B81E4
:1023A000009719F0FE01EC01F9CFCE0102962881C9
:1023B0003981820F931F20911E0230911F0228172E
:1023C000390769F4309729F4109221021092200203
:1023D00002C013821282D0931F02C0931E02DF91AB
:0823E000CF910895F894FFCF9E
:1023E80000002202800001000000012C20000944A6
:1023F80053543D000952573D00094C570000000056
:10240800009408000A16082F08210872086E616EE9
:0C24180000696E66006F7666002E000002
:00000001FF
