:100000000C94B2000C94DA000C94DA000C940E1FDD
:100010000C940E1F0C940E1F0C94DA000C94DA0052
:100020000C94DA000C94DA000C94DA000C94DA00E8
:100030000C94DA000C94DA000C94DA000C94DA00D8
:100040000C947C230C94DA000C94461B0C94781BC3
:100050000C94DA000C94DA000C94DA000C94DA00B8
:100060000C944B220C94DA00D216E516F5160817FC
:1000700010173C1744174C1754175B175B175B1787
:100080005B175B175B175B175B175B175B175B17E0
:100090005B175B175B175B175B175B175B175B17D0
:1000A0005B175B175B175B17D216DE16E516F516A6
:1000B0000817101723172B173317084AD73B3BCEC7
:1000C000016E84BCBFFDC12F3D6C74319ABD568357
:1000D0003DDA3D00C77F11BED9E4BB4C3E916BAA0F
:1000E000AABE000000803F05A84CCDB2D44EB9385E
:1000F00036A9020C50B9918688083CA6AAAA2ABE45
:10010000000000803F000000000800020100000322
:100110000407000000000000000001020408102095
:100120004080010204081020010204081020040489
:10013000040404040404020202020202030303038F
:100140000303000000002300260029000000000037
:10015000250028002B0000000000240027002A00B2
:10016000A81B692111241FBECFEFD8E0DEBFCDBF91
:1001700013E0A0E0B1E0EEEBF8E502C005900D92CF
:10018000AA34B107D9F725E0AAE4B3E001C01D9273
:10019000AD31B207E1F711E0C4E6D1E004C0229727
:1001A000FE010E943D27C036D107C9F70E94371BC8
:1001B0000C945D2C0C94000025E531E0FC013183AA
:1001C0002083089525E531E0FC01318320830895E3
:1001D00025E531E0FC01318320830C947A2325E569
:1001E00031E0FC01318320830C947A230F931F9319
:1001F000CF93DF93EC0181E691E0998388837D833F
:100200006C8388E090E00E9478238C010E94D30EDA
:100210001B830A83C8010E94050F63E08A819B81CA
:100220000E94D70E62E08A819B810E94ED0E65E0FC
:100230008A819B810E94E20E60E08A819B810E94FC
:10024000F60E188A198A1A8A1B8A1C861D861E8633
:100250001F86DF91CF911F910F910895CF92DF926A
:10026000EF92FF92CF93DF93EC019C01265F3F4F0B
:10027000AC01485F5F4FBC016A5F7F4F8A819B8101
:100280000E94170F6E817F81882777FD8095982FB8
:100290000E94CC2826EF38E24CE95FE30E94412A15
:1002A00027ED33EA40E75FE30E94412A20E030E097
:1002B00048EB50E40E9464276B017C0168857985D6
:1002C000882777FD8095982F0E94CC2826EF38E26A
:1002D0004CE95FE30E94412A2BE734E14EE65FE3FD
:1002E0000E94412A28EB3EE146E052E40E94642746
:1002F000A70196010E94D7276B017C016C897D893B
:100300008E899F890E947A029B01AC01C701B601C8
:100310000E9464276B017C0120E030E0A9010E946B
:100320002A2887FF0AC02BED3FE049EC50E4C701C3
:10033000B6010E9464276B017C01C701B6010E94CF
:1003400081022C813D812115310539F0AB01BC01C1
:10035000C9010E94E0079B0101C09B01A901BC01EA
:100360004C875D876E877F87DF91CF91FF90EF90FD
:10037000DF90CF900895FC01448B558B668B778B73
:100380000895FC01408B518B628B738B0895CF9243
:10039000DF92EF92FF92FC012485358546855785D3
:1003A00060897189828993890E9463276B017C012E
:1003B00020E030E044E353EC0E942A2887FF09C084
:1003C00020E030E044EB53E4C701B6010E9464270B
:1003D00012C020E030E044E353E4C701B6010E94BC
:1003E000362A181654F420E030E044EB53E4C701F9
:1003F000B6010E9463276B017C01C701B601FF9023
:10040000EF90DF90CF900895CF93DF93EC016CE0F5
:1004100071E08FE693E00E94291C4C855D856E8516
:100420007F8522E030E08FE693E00E94051E67E1C1
:1004300071E08FE693E00E94291C488959896A89F6
:100440007B8922E030E08FE693E00E94051E6AE29D
:1004500071E08FE693E00E94291CCE010E94C70143
:10046000AB01BC0122E030E08FE693E0DF91CF9159
:100470000C94071ECF92DF92EF92FF920F931F937F
:10048000CF93DF936C01EB012FE331E040E050E0CC
:1004900060E070E0CE010E94AD06C6010E94C70177
:1004A0008B019C0184E0E82EF12C40E050E068E0F4
:1004B00070E0CE010E94C80628E431E041E050E03F
:1004C00060E070E0CE010E94AD06F601048515855E
:1004D0002685378541E050E068E070E0CE010E945B
:1004E000C806DF91CF911F910F91FF90EF90DF90A1
:1004F000CF90089525E33AEF4EE85CE30E94412A4D
:10050000089520EE3EE245E652E40E94412A089515
:1005100025E531E0FC0131832083089525E531E0B4
:10052000FC01318320830C947A230F931F93CF9384
:10053000DF93EC0184EB91E09983888383E790E07B
:100540000E9478238C010E945D141B830A838FE133
:1005500090E00E9478238C0120E04BE06AE00E944A
:10056000DA1F1D830C8340E855E260E070E0C801AB
:100570000E940A204091E8025091E9026091EA024B
:100580007091EB024E835F83688779874A875B8728
:100590006C877D870091E4021091E5022091E602CC
:1005A0003091E7020A8B1B8B2C8B3D8B4E8B5F8B24
:1005B000688F798F4A8F5B8F6C8F7D8FDF91CF91A2
:1005C0001F910F910895CF93DF93EC018C819D8152
:1005D000DC01ED91FC910480F581E02D0995892BDA
:1005E00071F18C819D81DC01ED91FC910680F78198
:1005F000E02D0995682F8A819B810E9464178C8168
:100600009D81DC01ED91FC910480F581E02D09953F
:10061000892B39F79E01225F3F4FAE01465F5F4F46
:10062000BE016A5F7F4F8A819B810E943A188A814E
:100630009B810E94A7186A8B7B8B8C8B9D8BDF9193
:10064000CF910895FC016681778180859185089519
:10065000FC0162857385848595850895CF92DF922C
:10066000EF92FF921F93CF93DF93EC01C090E802CB
:10067000D090E902E090EA02F090EB02A701960127
:100680006E817F81888599850E942A28882371F050
:1006900011E0A70196016A857B858C859D850E9466
:1006A0002A28811101C010E0812F01C080E0DF9174
:1006B000CF911F91FF90EF90DF90CF900895CF934F
:1006C000DF93EC010E942E03882391F169E671E02B
:1006D0008FE693E00E94291C4E815F8168857985B1
:1006E0002FE030E08FE693E00E94051E60E771E0A6
:1006F0008FE693E00E94291C4A855B856C857D8589
:100700002FE030E08FE693E00E94051E6AE771E07B
:100710008FE693E00E94291C4E855F856889798960
:100720002AE030E08FE693E0DF91CF910C94081D32
:1007300064E871E08FE693E0DF91CF910C94461C62
:100740004F925F926F927F928F929F92AF92BF92E1
:10075000CF92DF92EF92FF920F931F93CF93DF938D
:10076000CDB7DEB760970FB6F894DEBF0FBECDBF32
:100770002A013B010D831E832F833887CB01BA01E9
:100780000E947A0269837A838B839C83C701B601B6
:100790000E947A0269877A878B879C87A3019201DE
:1007A000C701B6010E9463270E947A026B017C0197
:1007B0002D813E814F815885C501B4010E94632778
:1007C0000E947A026D837E838F83988720E030E0D9
:1007D00040E05FE3C701B6010E94412A0E94A42ABB
:1007E0006B017C0169817A818B819C810E942E281A
:1007F0002B013C0169857A858B859C850E942E287A
:1008000069837A838B839C8320E030E040E05FE360
:100810006D817E818F8198850E94412A0E94A42A41
:100820004B015C01A7019601C701B6010E94412A54
:100830006B017C0129813A814B815C81C301B2014A
:100840000E94412A2B013C01A5019401C501B4017C
:100850000E94412A9B01AC01C301B2010E94412ABE
:100860009B01AC01C701B6010E9464276B017C01AA
:100870009B01AC0160E070E080E89FE30E94632789
:100880000E94AE2A9B01AC01C701B6012D873E87AD
:100890004F87588B0E94AE2A2D853E854F855889FB
:1008A0000E94D7279B01AC010E94642720E73DE608
:1008B00042EC5AE40E94412A60960FB6F894DEBFDB
:1008C0000FBECDBFDF91CF911F910F91FF90EF90A1
:1008D000DF90CF90BF90AF909F908F907F906F9060
:1008E0005F904F9008958F929F92AF92BF92CF9258
:1008F000DF92EF92FF920F931F93CF93DF93EC0160
:100900006A017B01480159010E942E03882361F08E
:100910000A851B852C853D854E815F81688579859B
:10092000CE010E94A00304C060E070E080E89FEB6D
:10093000DF91CF911F910F91FF90EF90DF90CF90BB
:10094000BF90AF909F908F900895AF92BF92CF923B
:10095000DF92EF92FF920F931F93CF93DF935C018F
:10096000EB010E942E03882309F4A4C0C090E80282
:10097000D090E902E090EA02F090EB02A701960124
:10098000F50166897789808D918D0E942A288823B8
:1009900009F458C0A7019601F501628D738D848D0D
:1009A000958D0E942A28882309F44CC02AE931E059
:1009B00040E050E060E070E0CE010E94AD06F5013D
:1009C000068117812085318593E0E92EF12C40E0E6
:1009D00050E064E070E0CE010E94C8062FE931E0EB
:1009E00040E050E068E070E0CE010E94AD06F50105
:1009F000028513852485358540E050E06BE070E08A
:100A0000CE010E94C80624EA31E041E050E060E0F7
:100A100070E0CE010E94AD06F501028D138D248D8C
:100A2000358D46895789608D718DC5010E9473048B
:100A30008B019C014FE0E42EF12C41E050E063E09B
:100A400070E02AC02AE931E040E050E060E070E068
:100A5000CE010E94AD06F501068117812085318502
:100A60008FE0E82EF12C40E050E064E070E0CE0131
:100A70000E94C8062FE931E041E050E060E070E0FC
:100A8000CE010E94AD06F5010285138524853585CA
:100A900041E050E064E070E0CE010E94C806DF91C2
:100AA000CF911F910F91FF90EF90DF90CF90BF906B
:100AB000AF90089527EA31E040E050E060E070E058
:100AC000CE010E94AD062EE831E041E050E060E04A
:100AD00070E0CE01DF91CF911F910F91FF90EF90C9
:100AE000DF90CF90BF90AF900C94AD064F925F9285
:100AF0006F927F928F929F92AF92BF92CF92DF922E
:100B0000EF92FF920F931F93CF93DF93CDB7DEB792
:100B100060970FB6F894DEBF0FBECDBF09831A836E
:100B20002B833C83CB01BA010E947A022B013C014A
:100B3000C701B6010E947A026B017C0129813A81CA
:100B40004B815C81C501B4010E9463270E947A0237
:100B50004B015C010E94A42A6D837E838F8398875A
:100B6000C701B6010E942E2869837A838B839C83F8
:100B7000C301B2010E942E2869877A878B879C87E0
:100B8000C701B6010E94A42A9B01AC01C301B201B6
:100B90002D873E874F87588B0E94A42A6B017C01CA
:100BA000C501B4010E942E282B013C012D853E85F4
:100BB0004F85588969857A858B859C850E94412A55
:100BC0004B015C0129813A814B815C81C701B601EF
:100BD0000E94412AA30192010E94412A9B01AC017B
:100BE000C501B4010E9463276B017C0129813A8110
:100BF0004B815C816D817E818F8198850E94412A25
:100C0000A70196010E94D7270E94810220E030E0D0
:100C100044EB53E40E94642720E030E044EB53E4CB
:100C200060960FB6F894DEBF0FBECDBFDF91CF91B7
:100C30001F910F91FF90EF90DF90CF90BF90AF90FA
:100C40009F908F907F906F905F904F900C940E29A3
:100C50008F929F92AF92BF92CF92DF92EF92FF92CC
:100C60000F931F93CF93DF93EC016A017B0148013F
:100C700059010E942E03882361F00A851B852C856B
:100C80003D854E815F8168857985CE010E9476051C
:100C900004C060E070E080E89FEBDF91CF911F918E
:100CA0000F91FF90EF90DF90CF90BF90AF909F900B
:100CB0008F9008956F927F928F92AF92CF92EF9222
:100CC0000F93CF93DF93EC0189E190E00E947823AA
:100CD0003C0187E0882E96E0A92E25E0C22E34E064
:100CE000E32E00E021E042E067E2C3010E94901A97
:100CF00079826882D301ED91FC910480F581E02D29
:100D000020E042E064E1C301099588819981DC011A
:100D1000ED91FC910680F781E02D40E050E063E02A
:100D2000099588819981DC01ED91FC910084F18520
:100D3000E02D61E0099588819981DF91CF910F9134
:100D4000EF90CF90AF908F907F906F900C9443195D
:100D5000FC01808191810C943C190F931F93CF93D8
:100D6000DF93EC0189014230510568F48881998153
:100D70000E944A19B80188819981DF91CF911F9112
:100D80000F910C94291CDF91CF911F910F91089521
:100D90008F929F92AF92BF92EF92FF920F931F9309
:100DA000CF93DF93EC014801590142305105A8F47B
:100DB000888199810E944A199701B501A40188810F
:100DC0009981DF91CF911F910F91FF90EF90BF908C
:100DD000AF909F908F900C94051EDF91CF911F9143
:100DE0000F91FF90EF90BF90AF909F908F900895DC
:100DF000CF92DF92EF92FF920F931F93CF93DF93E7
:100E0000EC017B018A011982188288E090E09B83C3
:100E10008A831D821C8280E190E00E9478236C010D
:100E20008883D982FA86E9860C171D0709F482C0E7
:100E3000D80114968D919C9115974A815B81481732
:100E4000590720F59B838A83880F991F0E94782376
:100E5000998388834C815D81F60120E030E024177E
:100E6000350789F0A881B981B901660F771FA60FF0
:100E7000B71F109721F0608171816D937C932F5F74
:100E80003F4F3296ECCFC6010E947A238C819D8120
:100E9000F80144815581BA018417950708F4BC0113
:100EA00020E030E02617370799F06901CC0CDD1CF3
:100EB000D801ED91FC91EC0DFD1DE080F180E88101
:100EC000F981EC0DFD1DF182E0822F5F3F4FEACFEB
:100ED0008417950758F0F801848195812C813D8114
:100EE0008217930738F59D838C8324C09C01220FC1
:100EF000331FD80114964D915C911597841795076F
:100F000050F7F801A081B181A20FB31FE881F981E8
:100F1000E20FF31F309721F04D915C915183408394
:100F20004C815D814F5F5F4F5D834C8301962E5FE7
:100F30003F4FDFCF18861F82DF91CF911F910F9116
:100F4000FF90EF90DF90CF9008950F931F93CF9372
:100F5000DF93EC0189859A85009711F10E94A8061C
:100F60000F8118858C819D810817190720F08CEB63
:100F700091E00E942C1B000F111FE881F981E00F06
:100F8000F11F80819181DC01ED91FC9169857A8569
:100F90000680F781E02DDF91CF911F910F91099489
:100FA000DF91CF911F910F910895FC01878190856A
:100FB0000196648175810E94D22690878783089567
:100FC0008F929F92AF92BF92CF92DF92EF92FF9259
:100FD000CF93DF93EC01CB01BA01688B798B8A8BBD
:100FE0009B8BC880D980EA80FB80A70196010E9474
:100FF000412A4B015C01A701960160E070E080E8A6
:101000009FE30E9463272C853D854E855F850E9466
:10101000412A9B01AC01C501B4010E9464276C8781
:101020007D878E879F87DF91CF91FF90EF90DF9034
:10103000CF90BF90AF909F908F900895AF92BF9246
:10104000CF92DF92EF92FF920F931F93CF93DF9394
:101050001F92CDB7DEB75C018B0177FF02C000E0C5
:1010600010E060E0F501848149830E94232561E05E
:10107000F50186810E94232561E0F50182850E94A9
:10108000232560E0F50184850E94232549814423BE
:1010900091F06FEF70E0F50182810E9462246FEFA2
:1010A00070E0F50180850E94622464E670E080E0D3
:1010B00090E00E94F523B801882777FD8095982F4E
:1010C0000E94CC286B017C01F5012685378540897B
:1010D00051890E94412A0E949928F50182810E942B
:1010E0006224F5012289338944895589C701B601F3
:1010F0000E94412A0E949928F50180850E9462245D
:1011000088279927801B910BF501978B868B118F70
:10111000008F0F90DF91CF911F910F91FF90EF9073
:10112000DF90CF90BF90AF900895CF93DF93EC0105
:1011300060E08C810E94232560E08E810E9423253F
:1011400060E08A850E94232560E08C850E9423252B
:1011500061E08A810E94232561E088850E94232521
:101160001F8A1E8A198E188EDF91CF91089525E56A
:1011700031E0FC0131832083089525E531E0FC0155
:10118000318320830C947A230F931F93CF93DF93A3
:10119000EC016BE172E08FE693E00E94291C8E0166
:1011A0000E5F1F4FC8010E944B14AB01BC0122E02F
:1011B00030E08FE693E00E94051E61E272E08FE668
:1011C00093E00E94291CC8010E945114AB01BC018C
:1011D00022E030E08FE693E00E94051E69E272E0B3
:1011E0008FE693E00E94291CC8010E945714AB01AE
:1011F000BC0122E030E08FE693E00E94051E61E32F
:1012000072E08FE693E00E94291CEF964881598195
:101210006A817B8122E030E08FE693E0DF91CF911D
:101220001F910F910C94071EAF92BF92CF92DF9245
:10123000EF92FF920F931F93CF93DF936C01EB011B
:101240002EE332E040E050E060E070E0CE010E942A
:10125000AD06560182E0A80EB11CC5010E944B14D8
:101260008B019C0182E0E82EF12C40E050E063E02D
:1012700070E0CE010E94C80622E432E040E050E077
:1012800069E070E0CE010E94AD06C5010E945114D4
:101290008B019C0140E050E06CE070E0CE010E94C8
:1012A000C80626E432E041E050E060E070E0CE01A4
:1012B0000E94AD06C5010E9457148B019C0141E0BC
:1012C00050E063E070E0CE010E94C8062AE432E0FC
:1012D00041E050E069E070E0CE010E94AD06F60109
:1012E000FF96008111812281338141E050E06BE063
:1012F00070E0CE010E94C806DF91CF911F910F913F
:10130000FF90EF90DF90CF90BF90AF9008956F92D5
:101310007F928F929F92AF92BF92CF92DF92EF9285
:10132000FF920F931F93CF93DF93EC013C0183E473
:10133000680E711C4E01EFE38E0E911CCE01CB9610
:101340001F921F92FF92EF92DF92CF925801690194
:101350007A018B019301A401BC01C9970E94DE139D
:1013600081E592E099838883F301108211821282D1
:1013700013821BAE1CAE1DAE1EAEF4011082118294
:10138000128213820F900F900F900F900F900F907A
:10139000DF91CF911F910F91FF90EF90DF90CF9051
:1013A000BF90AF909F908F907F906F900895FC01B9
:1013B00043AF54AF65AF76AF08956F927F928F922F
:1013C0009F92AF92BF92CF92DF92EF92FF920F93D4
:1013D0001F93CF93DF93CDB7DEB727970FB6F8945F
:1013E000DEBF0FBECDBF4C0164E670E080E090E050
:1013F0000E94F52388E190E00E9478238C0160E050
:1014000070E00E94F600F401148703874DED5DED56
:1014100065E870E4C8010E94BB0185E190E00E948C
:1014200078238C010E94940DF401168705878EE1C4
:1014300090E00E9478238C010E949502F4011483AD
:10144000038346EC5FEC65E372E4F801468B578B4F
:10145000608F718F43ED5BE465E971E4428F538FD8
:10146000648F758F87E490E00E9478233C01A12C63
:10147000B12CEFE8CE2EE2ECDE2EE5EFEE2EEDE322
:10148000FE2E0AE017ED23E23CE340E050E060E787
:1014900071E40E948709F4017286618661E070E060
:1014A000C30102960E948C13F4018185928500E0AD
:1014B00010E02FE733E440E050E06FE773EC029672
:1014C0000E94C612F4018185928562E370E0029663
:1014D0000E94781282E090E00E9478238C010E94A2
:1014E0005A06F4011283018380E190E00E94782380
:1014F0008C01F40185859685009749F00115110549
:1015000019F0F8019183808381E090E002C080E0CF
:1015100090E09E838D8308969C838B83880F991F10
:101520000E9478239A8389832D813E81D80180E0AF
:1015300090E08217930789F0E981FA81AC01440FAA
:10154000551FE40FF51F309729F04D915C911197CD
:101550005183408301961296ECCF8BE090E00E947D
:1015600078233C01F40161817281AE014F5F5F4FCE
:101570000E94F806F401708A678689819A810E9428
:101580007A23C8010E947A2327960FB6F894DEBF0B
:101590000FBECDBFDF91CF911F910F91FF90EF90C4
:1015A000DF90CF90BF90AF909F908F907F906F9083
:1015B0000895FC01878590890C94D507FC018785E7
:1015C00090890C94A507CF92DF92EF92FF92CF9370
:1015D000DF93EC01C988DA88EB88FC888B819C81D9
:1015E0000E9422039B01AC01C701B6010E942A2878
:1015F000811110C0CD88DE88EF88F88C8B819C81AA
:101600000E9428039B01AC01C701B6010E942A2851
:10161000882389F08B819C810E942203698B7A8BBD
:101620008B8B9C8B8B819C810E9428036D8B7E8B86
:101630008F8B988F81E0DF91CF91FF90EF90DF90BB
:10164000CF9008950F931F9303ED1BE425E931E438
:1016500046EC5FEC65E372E4FC01838194810E94B7
:10166000730420E030E040E85FE30E942A28881FEE
:101670008827881F1F910F910895CF93DF93EC0166
:1016800081E0888340E06FEF70E08D819E810E9451
:101690001E0860EA7FE080E090E00E94F5238D81E3
:1016A0009E81DF91CF910C9495080F931F93CF9358
:1016B000DF93EC018B859C850E942E0103ED1BE4DA
:1016C00025E931E446EC5FEC65E372E48B819C81B3
:1016D0000E942806AB01BC018B859C85DF91CF91D0
:1016E0001F910F910C94C101CF93DF93EC018B8577
:1016F0009C850E94C701AB01BC0189859A850E9427
:10170000D70989859A850296DF91CF910C94A5100F
:10171000CF93DF93EC018D859E850E94080D8B8110
:101720009C810E942E038823B9F0CE010E94E30A17
:10173000882369F0CE010E94220B882329F0CE0174
:10174000DF91CF910C943D0BCE010E94550BCE0141
:10175000DF91CF910C94740BDF91CF910895CF92CC
:10176000DF92EF92FF92CF93DF93EC01888181119A
:1017700068C00E94C623CD8CDE8CEF8CF8A09B0144
:10178000AC012C193D094E095F0969017A0132E368
:10179000C316D104E104F10438F06D8F7E8F8F8F72
:1017A00098A3CE010E94880B0E94C6236B017C0186
:1017B0008D8D9E8DAF8DB8A1A7019601281B390B89
:1017C0004A0B5B0B2531310541055105D0F58B8165
:1017D0009C810E94E302898D9A8DAB8DBC8DA701FF
:1017E0009601281B390B4A0B5B0BDA01C901883EB5
:1017F0009340A105B10538F0C98EDA8EEB8EFC8ED0
:10180000CE010E94DE0A89A19AA1ABA1BCA1A701C9
:101810009601281B390B4A0B5B0BDA01C90188388A
:101820009341A105B10568F0C9A2DAA2EBA2FCA21E
:10183000CE01DF91CF91FF90EF90DF90CF900C948D
:10184000D90ADF91CF91FF90EF90DF90CF9008956C
:10185000CF93DF93EC0169E572E08FE693E00E949D
:10186000291C8A819B810E94CD0EAB01BC012AE01C
:1018700030E08FE693E00E94FB1C6EE572E08FE69D
:1018800093E00E94291C8E819F810E94CD0EAB01A6
:10189000BC012AE030E08FE693E00E94FB1C67E683
:1018A00072E08FE693E00E94291C8C819D810E944A
:1018B000CD0EAB01BC012AE030E08FE693E00E9440
:1018C000FB1C60E772E08FE693E00E94291C8A858A
:1018D0009B850E94CD0EAB01BC012AE030E08FE673
:1018E00093E00E94FB1C68E772E08FE693E00E94A1
:1018F000291C888599850E94CD0EAB01BC012AE088
:1019000030E08FE693E0DF91CF910C94081DCF92E9
:10191000DF92EF92FF920F931F93CF93DF936C01AF
:10192000EB01FC01868197810E94CD0E0E94CA289E
:101930008B019C01E12CF12C40E050E061E070E073
:10194000CE010E94C806F601828193810E94CD0ECD
:101950000E94CA288B019C0140E050E067E070E0E3
:10196000CE010E94C806F601848195810E94CD0EA9
:101970000E94CA288B019C0140E050E06DE070E0BD
:10198000CE010E94C806F601828593850E94CD0E85
:101990000E94CA288B019C0141E050E061E070E0A8
:1019A000CE010E94C806F601808591850E94CD0E69
:1019B0000E94CA288B019C0141E050E06DE070E07C
:1019C000CE010E94C806DF91CF911F910F91FF9029
:1019D000EF90DF90CF900895CF93DF93EC0184E8F0
:1019E00092E0998388838E859F850E947A2385E57E
:1019F00091E099838883DF91CF910895CF93DF930E
:101A0000EC010E94EC0CCE01DF91CF910C947A2373
:101A10000F931F93CF93DF93EC012A893B898C8529
:101A20009D850196B9010E94D2268C019D878C87E5
:101A30008217930720F08CEB91E00E942C1B000F83
:101A4000111FEE85FF85E00FF11F80819181DF91ED
:101A5000CF911F910F910C94C10ECF92DF92EF9214
:101A6000FF920F931F93CF93DF93EC017B018C8147
:101A70009D818C010F5F1F4F8017910708F046C0B2
:101A80004A815B814017510750F50996481759075D
:101A900030F5C880D9809B838A83880F991F0E9464
:101AA0007823998388834C815D81F60120E030E0C2
:101AB0002417350789F0A881B981B901660F771F0E
:101AC000A60FB71F109721F0608171816D937C93F1
:101AD0002F5F3F4F3296ECCFC6010E947A238C8154
:101AE0009D819C01220F331F8017910790F4E8819C
:101AF000F981E20FF31F309729F0D7014D915C91E6
:101B00005183408301962E5F3F4FEECF0817190790
:101B100010F41D830C83DF91CF911F910F91FF90E3
:101B2000EF90DF90CF900895EF92FF920F931F9365
:101B3000CF93DF93EC0184E892E0998388838E0150
:101B4000025F1F4F1F861E8688E090E0998B888B6E
:101B50001B8A1A8A80E190E00E9478239F878E87F3
:101B60008AE090E00E9478237C0140E150E061E14E
:101B700070E00E946B0EFB82EA828AE090E00E9495
:101B800078237C0148E050E069E070E00E946B0E31
:101B9000FD82EC828AE090E00E9478237C014DE097
:101BA00050E06CE070E00E946B0EFF82EE828AE0F3
:101BB00090E00E9478237C014EE050E06FE070E0FE
:101BC0000E946B0EF986E8868AE090E00E947823F6
:101BD0007C0140E050E061E070E00E946B0EFB860B
:101BE000EA86BE016A5F7F4FC8010E942D0DBE01CB
:101BF000685F7F4FC8010E942D0DBE016E5F7F4F51
:101C0000C8010E942D0DBE01665F7F4FC8010E9472
:101C10002D0DBE016C5F7F4FC8010E942D0D1D86EA
:101C20001C86DF91CF911F910F91FF90EF90089547
:101C300025E531E0FC0131832083089525E531E07D
:101C4000FC01318320830C947A23CF93DF93EC0142
:101C50006CE872E08FE693E00E94291C4E815F8160
:101C6000688579852AE030E08FE693E00E94FB1CCE
:101C700068E972E08FE693E0DF91CF910C94461C07
:101C8000EF92FF920F931F93CF93DF938C01EB01A1
:101C90002CE932E040E050E060E070E0CE010E94CC
:101CA000AD06F80166817781808591850E94CA28FA
:101CB0008B019C01EE24E394F12C41E050E060E0C4
:101CC00070E0CE010E94C806DF91CF911F910F9165
:101CD000FF90EF900895CF93DF93EC01862F2EEACB
:101CE00032E0398328836A837B835D834C8360E0A1
:101CF0000E94EA2461E08C810E94EA244FE352E4CE
:101D00006FE070E04E835F8368877987DF91CF91C2
:101D10000895CF93DF93EC0160E08C810E9423252E
:101D20008AE090E00E941D2461E08C810E942325BE
:101D300084E190E00E941D2460E08C810E942325B4
:101D400028EB3BE040E050E061E08A810E945925A9
:101D50002AE330E040E050E00E94FA26DA01C901AF
:101D60000197A109B109CC97A105B10528F06FE34E
:101D700072E48FE090E002C0B901CA01DF91CF9117
:101D80000895CF93DF93EC010E94890E6E837F83C9
:101D900088879987DF91CF910895FC0166817781CB
:101DA0008085918508952EE1FC01208308950F938D
:101DB000062F22E046E060E0FC0180810E945F1077
:101DC0000F9108950F93062F23E044E060E0FC019B
:101DD00080810E945F100F910895462F4295440F15
:101DE000407E61E0FC0180810C94980F1F93CF939B
:101DF000DF93EC01162F462F62E088810E94980F36
:101E00001F83DF91CF911F910895CF93DF93EC0152
:101E100040E760E088810E94980F61E0CE010E9457
:101E2000ED0E61E0CE01DF91CF910C94F60EAF92F2
:101E3000BF92CF92DF92EF92FF920F931F93CF93B7
:101E4000DF93EC017B015A01690100910A011091B5
:101E50000B019C012F5F3F4F46E063E088810E94A9
:101E6000A80F8F81813029F441E062E088810E94CF
:101E7000980F898190E0982F88272A81822BF7017B
:101E8000918380838D8190E0982F88272E81822BEB
:101E9000F501918380838B8190E0982F88272C8196
:101EA000822BF60191838083DF91CF911F910F9157
:101EB000FF90EF90DF90CF90BF90AF900895EF929A
:101EC000FF920F931F93CF93DF9300D0CDB7DEB770
:101ED000062F142F682F80E594E029833A830E940F
:101EE0004921602F80E594E00E94F0202981022F93
:101EF000E22E3A81F32E8E2D801B811740F4F701DC
:101F000061917F0180E594E00E94F020F4CF80E5AC
:101F100094E00E94662191E0811190E0892F0F905A
:101F20000F90DF91CF911F910F91FF90EF90089547
:101F3000CF93DF931F92CDB7DEB749839E012F5F0A
:101F40003F4F41E00E945F0F0F90DF91CF910895C6
:101F50003F924F925F926F927F928F929F92AF9239
:101F6000BF92CF92DF92EF92FF920F931F93CF9386
:101F7000DF9300D000D000D0CDB7DEB7682E562E4C
:101F8000742E3A8329830E94C6236B017C01312C75
:101F9000412C872D90E09C838B834801A12CB12C90
:101FA0003714B0F5662D80E594E00E944921652D37
:101FB00080E594E00E94F02080E594E00E94662194
:101FC000662D80E594E00E9449214B815C81431994
:101FD00051094132510514F040E250E0662D80E590
:101FE00094E00E94462180E594E00E949820892B8D
:101FF00059F10115110579F10E94C6236C197D096B
:102000008E099F09681579058A059B0520F11CC07A
:102010000115110589F10E94C6236C197D098E09ED
:102020009F0920E030E0601771078207930720F1D5
:10203000872D90E0242D332727FD30952817390769
:10204000DCF444244A9418C0872D90E2971508F4D4
:1020500080E2380EA5CFE981FA81E40DF11D47FC3D
:10206000FA95FE83ED8380E594E00E94A020ED8147
:10207000FE8180834394B7CF842D26960FB6F894C3
:10208000DEBF0FBECDBFDF91CF911F910F91FF90AB
:10209000EF90DF90CF90BF90AF909F908F907F9008
:1020A0006F905F904F903F9008950F931F93890119
:1020B0009A0141E00E94A80F1F910F910895DF92AD
:1020C000EF92FF920F931F93CF93DF931F92CDB7A1
:1020D000DEB7F82EE62ED42E122F20910A01309171
:1020E0000B01AE014F5F5F4F0E945510882319F11D
:1020F0004D2D50E0411B51094F5F5F4FE1E0F0E093
:1021000002C0EE0FFF1F1A95E2F73197042E01C0AF
:10211000EE0F0A94EAF701C0000F4A95EAF74E2F36
:10212000409589814823E0234E2B49836E2D8F2DC6
:102130000E94980F01C080E00F90DF91CF911F9116
:102140000F91FF90EF90DF9008952F923F924F9262
:102150005F926F927F928F929F92AF92BF92CF9237
:10216000DF92EF92FF920F931F93CF93DF93CDB740
:10217000DEB72B970FB6F894DEBF0FBECDBF9B879F
:102180008A87DC01D896BC91B983B11102C019824B
:10219000E2C00E94C6236A837B838C839D83EA8589
:1021A000FB8580A191A1A2A1B3A14A815B816C8131
:1021B0007D81481B590B6A0B7B0B84A595A5A6A5B1
:1021C000B7A5481759076A077B0708F3028CF38DF8
:1021D000E02D80809180A280B380AA85BB855E9629
:1021E000ED91FC915F97A5019401608171818281DD
:1021F00093810E9463272B013C01EA85FB8520899E
:102200003189428953890E94412AAA85BB859496C7
:102210002D913D914D915C9197970E9464276B01A0
:102220007C01EA85FB8564A375A386A397A324A8F4
:1022300035A806A917A99101A8010E94362A1816E7
:102240001CF4C101D80118C0AA85BB85D0968D9118
:102250009D910D90BC91A02D8E839F83A887B987F7
:102260009C01AD01C701B6010E942A2887FF0AC060
:102270008E819F81A885B985EA85FB8584A395A376
:10228000A6A3B7A3AA85BB851C962D913D914D9120
:102290005C911F97C301B2010E94412AEA85FB8528
:1022A00024A135A146A157A10E9464276B017C019E
:1022B000AA85BB8598962D913D914D915C919B97F8
:1022C000C501B4010E946327EA85FB85248935890D
:1022D000468957890E94412A9B01AC01C701B6017A
:1022E0000E9463276B017C019101A8010E94362A9C
:1022F0001816BCF0AA85BB85D0962C90D097D196A5
:102300003C90D197D2960C91D297D3961C91910183
:10231000A801B601C7010E942A2887FD02C0160144
:102320008701AA85BB855C96ED91FC915D97C10103
:10233000D80180839183A283B383EA85FB8580A63D
:1023400091A6A2A6B3A68A819B81AC81BD8180A300
:1023500091A3A2A3B3A389812B960FB6F894DEBFF5
:102360000FBECDBFDF91CF911F910F91FF90EF90E6
:10237000DF90CF90BF90AF909F908F907F906F90A5
:102380005F904F903F902F9008952F923F924F92E1
:102390005F926F927F928F929F92AF92BF92CF92F5
:1023A000DF92EF92FF920F931F93CF93DF9300D0B2
:1023B00000D0CDB7DEB71C012A013B01480159010D
:1023C00020E030E0A901C301B2010E942A2887FD64
:1023D00078C020E030E0A901C501B4010E942A289C
:1023E00087FD6FC020E030E0A901C701B6010E945F
:1023F0002A2887FD66C0F101408251826282738281
:1024000084829582A682B782C086D186E286F386D0
:1024100064A575A586A597A50E94CA2820E030E08E
:102420004AE754E40E94312869837A838B839C8332
:10243000F10144865586668677869B01AC01C5010D
:10244000B4010E94412A4B015C01F101608B718B48
:10245000828B938B29813A814B815C81C701B601C4
:102460000E9431286B017C01F101648B758B868B96
:10247000978B808D918D019721F5A301920160E0EA
:1024800070E0CB010E946327F1016487758786871E
:102490009787A501940160E070E0CB010E9463275B
:1024A000F101608B718B828B938BA701960160E0A9
:1024B00070E0CB010E946327F101648B758B868BE2
:1024C000978B0F900F900F900F90DF91CF911F91EE
:1024D0000F91FF90EF90DF90CF90BF90AF909F90C3
:1024E0008F907F906F905F904F903F902F900895C6
:1024F0008F929F92AF92BF92CF92DF92EF92FF9214
:10250000CF93DF93EC0116161706ACF56B01EE24A2
:10251000D7FCE094FE2CC701B6010E94CC284B01E9
:102520005C016CA57DA58EA59FA50E94CA289B0174
:10253000AC01C501B4010E9431284B015C019B0133
:10254000AC01688979898A899B890E94412A688BB4
:10255000798B8A8B9B8BA50194016C897D898E89EF
:102560009F890E9431286C8B7D8B8E8B9F8BCCA694
:10257000DDA6EEA6FFA6DF91CF91FF90EF90DF9052
:10258000CF90BF90AF909F908F9008952F923F92E1
:102590004F925F926F927F928F929F92AF92BF9273
:1025A000CF92DF92EF92FF920F931F93CF93DF931F
:1025B000EC016A017B0148015901A9019801C70199
:1025C000B6010E94362A87FF4EC0C8AAD9AAEAAA35
:1025D000FBAA8CAA9DAAAEAABFAA88AD882309F43B
:1025E00042C02C8C3D8CF101408051806280738010
:1025F000A5019401C301B2010E94362A181634F4D1
:10260000F10180829182A282B3820DC0A70196015E
:10261000C301B2010E942A2887FF05C0F101C082D0
:10262000D182E282F3828CA09DA0AEA0BFA0CCA8F4
:10263000DDA8EEA8FFA8A7019601C501B4010E947C
:10264000362A181664F0C8A8D9A8EAA8FBA8A701DA
:102650009601C501B4010E942A2887FF04C0CCA2BC
:10266000DDA2EEA2FFA2DF91CF911F910F91FF900B
:10267000EF90DF90CF90BF90AF909F908F907F9022
:102680006F905F904F903F902F9008958F929F9200
:10269000AF92BF92CF92DF92EF92FF92CF93DF93F0
:1026A000EC01EC8DFD8DC080D180E280F380CCA266
:1026B000DDA2EEA2FFA2EA8DFB8D80819181A28135
:1026C000B38188A799A7AAA7BBA78CA89DA8AEA8E5
:1026D000BFA8A5019401C701B6010E94362A1816A9
:1026E00064F088A899A8AAA8BBA8A5019401C7016D
:1026F000B6010E942A2887FF04C08CA29DA2AEA228
:10270000BFA2DF91CF91FF90EF90DF90CF90BF906D
:10271000AF909F908F9008951F93CF93DF93EC011C
:1027200011E06130710509F010E088AD91E0892772
:10273000181303C0CE010E94461318AFDF91CF914A
:102740001F9108950F931F93CF93DF93EC018B019B
:1027500088AD882361F1888D998D6817790739F1E3
:102760002C853D854E855F8560E070E0CB010E9441
:1027700063276C877D878E879F87288939894A8957
:102780005B8960E070E0CB010E946327688B798BE6
:102790008A8B9B8B2C893D894E895F8960E070E034
:1027A000CB010E9463276C8B7D8B8E8B9F8B198F47
:1027B000088FDF91CF911F910F9108954F925F92F3
:1027C0006F927F928F929F92AF92BF92CF92DF9241
:1027D000EF92FF920F931F93CF93DF9300D000D01F
:1027E000CDB7DEB74C0127013801A982BA82CB826E
:1027F000DC82FC01558F448F738F628F378F268F59
:1028000010AE10AA11AA12AA13AA80E090E0AFE7B6
:10281000B3E484AB95ABA6ABB7AB84E690E0A0E0A5
:10282000B0E084A795A7A6A7B7A76B8D7C8DC40140
:102830000E94A213CF88D88CE98CFA8C09811A8166
:102840002B813C81B301A201C4010E94C5110E94E9
:10285000C623F40144A455A466A477A46419750999
:102860008609970960A371A382A393A30F900F9089
:102870000F900F90DF91CF911F910F91FF90EF90EC
:10288000DF90CF90BF90AF909F908F907F906F9090
:102890005F904F900895FC016081718182819381E6
:1028A0000895FC0164817581868197810895FC01FA
:1028B000608571858285938508950F931F93FC0130
:1028C0000FEF1FEF9801008311832283338310865B
:1028D0001186128613864FEF59EC6AE97BE3408B31
:1028E000518B628B738B408F518F628F738F40A39C
:1028F00051A362A373A340A751A762A773A740ABDC
:1029000051AB62AB73AB00AF11AF22AF33AFDC01A1
:10291000A05CBF4F8FEF90E011969C938E9314961E
:102920000D931D932D933C93139718960D931D9320
:102930002D933C93139718961C9211961C925096C7
:1029400082E08C9311961C9211961C9211961C9207
:1029500011961D921D921D921C921397149611961A
:102960001C921E9212961D921C92EA5AFF4F1082E0
:102970001F910F9108952FEB260F862F992787FD22
:102980009095263010F4C79708956156663018F474
:10299000875591090895C09708950F931F93FB01E0
:1029A00060E070E0CB01019120ED200F2A30A0F40F
:1029B000AAE0B0E09B01AC010E944127112707FD6E
:1029C0001095212F312F600F711F821F931F6053AD
:1029D000710981099109E7CF1F910F9108950F9314
:1029E0001F93CF93FC01EA5AFF4FC1E020812D32A3
:1029F00019F0C0E08F0103C08C01095A1F4FB801C4
:102A00000E94CD149B01AC01A4E6B0E00E944127D6
:102A1000F801DF01219130ED320F3A30D0F32E3240
:102A200069F511962C91119730ED320F3A3030F54F
:102A3000332727FD3095205331094AE0429F80011A
:102A4000439F100D1124222717FD2095322F600F70
:102A5000711F821F931F12960C9120ED200F2A30B8
:102A600068F4112707FD109500531109222717FD5F
:102A70002095322F600F711F821F931FCC2339F0D6
:102A800090958095709561957F4F8F4F9F4FCF9117
:102A90001F910F9108954F925F926F927F928F9244
:102AA0009F92AF92BF92CF92DF92EF92FF92CF931D
:102AB000DF93EC01CA5ADF4FBE010E94CD142B01F7
:102AC0003C0124E630E040E050E00E94FA269B0101
:102AD000AC0160EA76E881E090E00E94C2266B01DA
:102AE0007C01FE01819190ED980F9A30D8F38E32DF
:102AF00019F5EF0180E1882E87E2982EA12CB12CE8
:102B0000A99180ED8A0F8A30B8F4BB27A7FDB09554
:102B1000D097A50194010E944C27C60ED71EE81E2F
:102B2000F91EC501B4012AE030E040E050E00E9407
:102B3000FA2649015A01E4CFC701B6016D5F7F4F04
:102B40008F4F9F4F26E030E040E050E00E94FA2691
:102B500069017A01C301B20124E630E040E050E0AF
:102B60000E94FA2660E472E48FE090E00E94C226A0
:102B7000C60ED71EE81EF91EC701B601DF91CF9120
:102B8000FF90EF90DF90CF90BF90AF909F908F908D
:102B90007F906F905F904F900895DB01FA018D91C7
:102BA000882319F091918917D1F3992787FD909582
:102BB0000895CF92DF92EF92FF921F93CF93DF930E
:102BC000EC01FC01EB5AFF4F1081112309F4A9C05D
:102BD000319660810E94BB14182FFE01E95AFF4F05
:102BE0006081CE010E94BB1440E1149F800D11242E
:102BF000FE01EC5AFF4F908189138AC074961081B0
:102C0000112309F458C135968081918101969183F1
:102C10008083B59780819181A281B381349780832D
:102C20009183A283B3833C9680819181A281B381F9
:102C3000349780839183A283B3837996808188239C
:102C4000A1F1813009F037C18C819D81AE81BF81B6
:102C500088839983AA83BB838C859D85AE85BF8538
:102C600088879987AA87BB878C899D89AE89BF8908
:102C7000888B998BAA8BBB8B8C8D9D8DAE8DBF8DD8
:102C8000888F998FAA8FBB8F8CA59DA5AEA5BFA558
:102C900088A799A7AAA7BBA78CA99DA9AEA9BFA9D8
:102CA00088AB99ABAAABBBAB06C18CA19DA1AEA171
:102CB000BFA188A399A3AAA3BBA38C819D81AE8148
:102CC000BF8188839983AA83BB838C899D89AE89C0
:102CD000BF89888B998BAA8BBB8B8C8D9D8DAE8D7C
:102CE000BF8D888F998FAA8FBB8FFE01E05CFF4F4D
:102CF000DE01AE5BBF4F8D919C91918380838CAD43
:102D00009DADAEADBFAD88AF99AFAAAFBBAFD3C0DD
:102D1000C159DF4F8881998101969983888310E09A
:102D2000CAC0FC01EA59FF4F30818B599F4F7C018B
:102D300031111DC06E0196E5C90ED11C46EB52E063
:102D4000B601CE010E94CD15892B11F481E00CC093
:102D50004CEB52E0B601CE010E94CD15892B19F43F
:102D6000F7011082A8C082E0D7018C93A4C0DC01D7
:102D7000EC91E23009F49FC0CE018A5A9F4FDC01EA
:102D80002C91222309F497C0B0E2EB9FF0011124AB
:102D9000E32B3197E932F10508F08DC0EC5CFF4F71
:102DA0000C943B27CE010E94EF146C837D838E83AD
:102DB0009F830E94C623C85BDF4F12C0C859DF4FF4
:102DC00081E0213409F05DC05DC0CE010E944B1549
:102DD0006C8B7D8B8E8B9F8B0E94C623C05BDF4FDD
:102DE000688379838A839B8366C0233509F063C037
:102DF0008C899D89AE89BF89B095A0959095819564
:102E00009F4FAF4FBF4F8C8B9D8BAE8BBF8B53C0F3
:102E1000CE010E944B156C8F7D8F8E8F9F8F4BC084
:102E2000273509F048C08C8D9D8DAE8DBF8DB09536
:102E3000A095909581959F4FAF4FBF4F8C8F9D8FE1
:102E4000AE8FBF8F38C0CE010E94EF146CA77DA754
:102E50008EA79FA730C0CE010E94EF146CAB7DAB54
:102E60008EAB9FAB28C0BC01CE010E94CD146C87F5
:102E70007D878E879F871FC0C859DF4F81E0213330
:102E80000CF480E0888317C00E94372CCE5BDF4FA4
:102E90009927998388830FC0CE010E94EF146CAFED
:102EA0007DAF8EAF9FAF07C0CE010E94EF146CA321
:102EB0007DA38EA39FA3812FDF91CF911F91FF90C0
:102EC000EF90DF90CF900895CF92DF92EF92FF9234
:102ED0000F931F93CF93DF931F92CDB7DEB76C0193
:102EE000262FFC01E759FF4F408151816281738198
:102EF0004F5F5F4F6F4F7F4F408351836283738378
:102F00008C0109591F4F8B5A9F4F7C01243281F14C
:102F10002CF42A3069F02D30E9F50AC02A3241F04C
:102F20002C32C1F5F601EC5AFF4F80818227808355
:102F3000F80180818F3060F4F601E80FF11DEA5A44
:102F4000FF4F1082C60129830E94D915298101C033
:102F500080E0F601EA59FF4F90819F5F9083F8016E
:102F6000108291E02A3209F090E0F70190832AC0A4
:102F7000F8011082F601EA59FF4F10827297108211
:102F8000719682E08083F7011082F601E859FF4FC5
:102F9000108217C0F80180818E3048F491E0980FBC
:102FA0009083F601E80FF11DEA5AFF4F2083F701E5
:102FB0008081811106C0F601EC5AFF4F8081822783
:102FC000808380E00F90DF91CF911F910F91FF9050
:102FD000EF90DF90CF900895CF92DF92EF92FF9223
:102FE0000F931F93CF93DF93E9016115710551F0A2
:102FF000FC01C088D188E288F388FB01C082D182BD
:10300000E282F3824115510551F0FC01C08CD18C54
:10301000E28CF38CFA01C082D182E282F3822097A3
:1030200001F18C01045B1F4FF80180819181A28125
:10303000B3818F3F9F4FAF4FBF4F61F00E94C623B8
:10304000F8010081118122813381601B710B820B99
:10305000930B03C06FEF7FEFCB01688379838A8383
:103060009B83DF91CF911F910F91FF90EF90DF90A5
:10307000CF900895AF92BF92CF92DF92EF92FF92DE
:103080000F931F93CF93DF93CDB7DEB728970FB67B
:10309000F894DEBF0FBECDBF5B018A01AE014F5F6A
:1030A0005F4FBE016B5F7F4F0E94EC17CD80DE80CB
:1030B000EF80F8848FEFC81689ECD8068AE9E80615
:1030C0008BE3F80659F0C701B6010E94CC2820E036
:1030D00034E244E759E40E94312804C060E070E023
:1030E0008AE794E4F5016083718382839383FFEF21
:1030F000CF16F9ECDF06FAE9EF06FBE3FF0669F00D
:1031000069817A818B819C810E94CC2820E034E205
:1031100044E759E40E94312804C060E070E08AE787
:1031200094E4F801608371838283938328960FB6B9
:10313000F894DEBF0FBECDBFDF91CF911F910F91ED
:10314000FF90EF90DF90CF90BF90AF900895FC017B
:1031500060A171A182A193A16F3FF9EC7F07FAE909
:103160008F07FBE39F0749F00E94CC2820E030E066
:1031700048EC52E40E943128089560E074E284E74C
:1031800099E40895FC0112828FEF818310821382EB
:103190000895FC018381882331F0611103C08FEF12
:1031A0008183089511820895CF93DF93EC016A83A0
:1031B00080E594E00E942F2141E06A8180E594E05F
:1031C0000E94462191E0811101C090E09B8380E53F
:1031D00094E00E94A02088838B8190E0DF91CF91C2
:1031E0000895CF93DF93EC018B818823A9F0898127
:1031F0008095862388836A8180E594E00E94492136
:10320000688180E594E00E94F02080E594E00E94CF
:103210006621282F30E002C020E030E081E090E01D
:10322000232B11F080E090E0DF91CF910895089575
:103230000895DC01ED91FC910284F385E02D41E0DD
:10324000099581E090E00895FC011382128220EF3D
:1032500032E0318320830895DC01ED91FC910084FC
:10326000F185E02D6FEF0994DC01ED91FC91028472
:10327000F385E02D40E0099461E00E94341980ED6F
:1032800097E00C941D2462E00E94341980ED97E0D1
:103290000C941D24CF93DF93CDB7DEB728970FB6DC
:1032A000F894DEBF0FBECDBF1D8220E42E8334E133
:1032B0003F8334E5388719822A8320E12B8320E578
:1032C0002C83FC012781421710F04FEF420FFC01C5
:1032D000308550E0FE01E40FF51F303121F4243039
:1032E00011F4218101C02581260F2068622F2896C4
:1032F0000FB6F894DEBF0FBECDBFDF91CF910C9417
:103300003419FC016581262F246025836C600C94A0
:103310003419CF93DF93EC01423018F08C81886030
:103320008C834F836887222329F0413019F48C81E4
:1033300084608C8364E670E080E090E00E94F52376
:103340006C8164FD31C0E881F9810284F385E02D50
:1033500042E063E0CE01099584E991E10E941D24D9
:10336000E881F9810284F385E02D42E063E0CE013B
:10337000099584E991E10E941D24E881F981028484
:10338000F385E02D42E063E0CE01099586E990E007
:103390000E941D24E881F9810284F385E02D42E03A
:1033A00062E0CE01099516C06062CE010E94341918
:1033B00084E991E10E941D246C816062CE010E942B
:1033C000341986E990E00E941D246C816062CE0170
:1033D0000E9434196C816062CE010E94341984E02D
:1033E0008D83CE010E948119CE010E943C1982E09A
:1033F0008E8366E0CE010E943419CE01DF91CF9119
:103400000C942C1921E001C0220F6A95EAF7DC0127
:103410001C962C931C971A965C934E931997ED91DA
:10342000FC910084F185E02D60E00994FC01248585
:10343000222399F081859285009719F4611105C0C6
:1034400006C0019721F4611102C0258701C01586CD
:103450006585CF010E960C94F11808950F931F9374
:10346000CF93DF93EC018C01025F1F4F6B85C80186
:103470000E94D418019761F461E0C8010E94C91844
:103480001C8260E0C8010E94F11881E090E002C057
:1034900080E090E0DF91CF911F910F9108958F927E
:1034A000AF92CF92EF920F93CF93DF93CDB7DEB76A
:1034B000FC016387148615861286118681E0982F99
:1034C00001C0990F4A95EAF7928B982F01C0990F86
:1034D0002A95EAF7938B982F01C0990F0A95EAF77E
:1034E000948B982F01C0990FEA94EAF7958B982F47
:1034F00001C0990FCA94EAF7968B982F01C0990FD3
:10350000AA94EAF7978B01C0880F8A94EAF7808F14
:10351000DF91CF910F91EF90CF90AF908F90089562
:103520006F927F928F92AF92CF92EF920F93CF9341
:10353000DF9300D01F92CDB7DEB73C012B834A83C7
:1035400069830E94241980E093E0F30191838083D2
:10355000C3010E960E94C2182B814A816981C30162
:103560000E944F1A0F900F900F90DF91CF910F9103
:10357000EF90CF90AF908F907F906F900895FF92D3
:103580000F931F93CF93DF93EC01F62E8C01025F14
:103590001F4F6A896F29C8010E94F1186A896095D6
:1035A0006F21C801DF91CF911F910F91FF900C9473
:1035B000F11820E030E050E060FF05C0FC01E20FB0
:1035C000F31F7589572B66952F5F3F4F24303105C8
:1035D00099F7413011F4FC014489FC016585652BA4
:1035E000642B0C94BF1A0F931F93CF93DF93EC01BE
:1035F000142F062F0F70423011F440E00AC070E023
:1036000084E0759567958A95E1F7CE010E94D91AF5
:10361000412F602FCE01DF91CF911F910F910C941C
:10362000D91A0F931F93CF93DF9300D01F92CDB77A
:10363000DEB78C012B834A8369830E942E1A2B816B
:103640004A816981C8010F900F900F90DF91CF914F
:103650001F910F910C9489190E94322C08958AE4CD
:1036600093E00C94DD098AE493E00C94AF0B0E9484
:1036700027240E942E1B0E942F1BCBE0D6E20E9423
:10368000331B2097E1F30E940B26F9CF1F920F9274
:103690000FB60F9211242F938F939F93EF93FF9365
:1036A000E0917F03F09180038081E0918503F091A8
:1036B000860382FD12C09081809188038F5F8F7393
:1036C00020918903821751F0E0918803F0E0E159DD
:1036D000FC4F958F8093880301C08081FF91EF910B
:1036E0009F918F912F910F900FBE0F901F90189563
:1036F0001F920F920FB60F9211242F933F934F9367
:103700005F936F937F938F939F93AF93BF93EF9349
:10371000FF938FE693E00E941926FF91EF91BF91EE
:10372000AF919F918F917F916F915F914F913F9159
:103730002F910F900FBE0F901F9018958FE693E07A
:103740000E94DE2521E0892B09F420E0822F0895D4
:10375000109272031092710388EE93E0A0E0B0E043
:103760008093730390937403A0937503B0937603CF
:103770008EE393E09093700380936F0385EC90E069
:1037800090937C0380937B0384EC90E090937E0382
:1037900080937D0380EC90E09093800380937F037F
:1037A00081EC90E0909382038093810382EC90E01F
:1037B000909384038093830386EC90E09093860338
:1037C00080938503109288031092890310928A03D4
:1037D00010928B030895CF92DF92EF92FF920F9396
:1037E0001F93CF93DF936C017A01EB01E60EF71E76
:1037F00000E010E0CE15DF0561F06991D601ED9192
:10380000FC910190F081E02DC6010995080F191F68
:10381000F1CFC801DF91CF911F910F91FF90EF90F1
:10382000DF90CF9008956115710581F0DB010D9057
:103830000020E9F7AD0141505109461B570BDC014F
:10384000ED91FC910280F381E02D099480E090E0FD
:1038500008950C94131CDC01ED91FC910190F08112
:10386000E02D09940F931F93CF93DF93EC016DE04C
:103870000E942B1C8C016AE0CE010E942B1C800F41
:10388000911FDF91CF911F910F9108950F931F9377
:10389000CF93DF93EC010E94131C8C01CE010E9498
:1038A000321C800F911FDF91CF911F910F910895CE
:1038B0008F929F92AF92BF92CF92DF92EF92FF9240
:1038C0000F931F93CF93DF93CDB7DEB7A1970FB6BA
:1038D000F894DEBF0FBECDBF7C01C42EE52FCB0117
:1038E000D22E19A221E02D1510F02AE0D22E8E0141
:1038F0000F5D1F4F8D2C912CA12CB12C6C2D7E2F88
:10390000A50194010E94FA268C2DD29E80191124C3
:10391000015011098A3014F4805D01C0895CF801FE
:103920008083211531054105510521F0C22EE32F79
:10393000CA01E4CFB801C7010E94131CA1960FB6BB
:10394000F894DEBF0FBECDBFDF91CF911F910F91D5
:10395000FF90EF90DF90CF90BF90AF909F908F90AF
:103960000895CF92DF92EF92FF920F931F93CF9320
:10397000DF93EC016A017B012115310579F4E881BF
:10398000F9810190F081E02D642FDF91CF911F919B
:103990000F91FF90EF90DF90CF9009942A3031057E
:1039A000E9F477FF1AC06DE20E942B1C8C014427BA
:1039B0005527BA014C195D096E097F092AE0CE012D
:1039C0000E94581C800F911FDF91CF911F910F9182
:1039D000FF90EF90DF90CF9008952AE0B701A60105
:1039E000CE01DF91CF911F910F91FF90EF90DF906B
:1039F000CF900C94581C2115310541F4DC01ED9158
:103A0000FC910190F081E02D642F09940C94581CD6
:103A10000F931F93CF93DF93EC010E94FB1C8C014B
:103A2000CE010E94321C800F911FDF91CF911F9118
:103A30000F9108954F925F926F927F928F929F9213
:103A4000AF92BF92CF92DF92EF92FF920F931F93AC
:103A5000CF93DF93EC016A017B01B22E9A01AB0197
:103A6000C701B6010E94EF2A882319F06CE073E0C9
:103A700027C026013701E89477F82FEF3FEF4FE793
:103A80005FE7C301B2010E94EF2A81110DC02FEF41
:103A90003FEF4FE75FE7C301B2010E942A281816E3
:103AA0001CF460E173E00CC02FEF3FEF4FE75FE4E1
:103AB000C701B6010E94362A1816ACF464E173E01F
:103AC000CE01DF91CF911F910F91FF90EF90DF908A
:103AD000CF90BF90AF909F908F907F906F905F90AE
:103AE0004F900C94131C2FEF3FEF4FE75FECC70193
:103AF000B6010E942A2887FDE1CF20E030E0A9012D
:103B0000C701B6010E942A2887FF0AC06DE2CE01D4
:103B10000E942B1C8C01F7FAF094F7F8F09402C085
:103B200000E010E0A12C60E070E080E09FE3AB14C7
:103B300041F020E030E040E251E40E943128A394BB
:103B4000F6CF9B01AC01C701B6010E9464276B014F
:103B50007C010E949E282B013C010E94CA289B01E7
:103B6000AC01C701B6010E9463276B017C012AE00A
:103B7000B301A201CE010E94581C080F191FBB20DF
:103B800039F068E173E0CE010E94131C080F191F81
:103B90007B2C772041F120E030E040E251E4C70186
:103BA000B6010E94412A6B017C010E9499284B01B9
:103BB000AA2497FCA094BA2C2AE030E0B501A40115
:103BC000CE010E94B11C080F191FC501B4010E944B
:103BD000CC289B01AC01C701B6010E9463276B0191
:103BE0007C017A94D6CFC801DF91CF911F910F91BC
:103BF000FF90EF90DF90CF90BF90AF909F908F900D
:103C00007F906F905F904F9008950C941A1D0F93C2
:103C10001F93CF93DF93EC010E941A1D8C01CE01FC
:103C20000E94321C800F911FDF91CF911F910F9145
:103C300008950E94322C20914E0430914F04281791
:103C40003907B9F490910C0480910D04981789F00C
:103C5000E0910C04F0E0E25FFB4F808120910C04C6
:103C600030E02F5F3F4F2F73332720930C0490E0F9
:103C700008958FEF9FEF08951F93CF93DF93DC019B
:103C80005C968D919C915D97009749F481E090E05E
:103C900013969C938E93129780E090E03BC05196D0
:103CA000ED91FC91529750962C915097322F309570
:103CB0001FB75E964C915E9741FB772770F941FDE7
:103CC0006095F8944081772311F0422B01C0432383
:103CD0004083EC012197F1F748E0508160FF02C07A
:103CE000522B01C053235083EC012197F1F76695C5
:103CF000415099F78081772311F0832301C0822BF3
:103D000080831FBF5C968D919C915D970197F1F721
:103D100081E090E0DF91CF911F91089520914E04B2
:103D200030914F042817390781F490910C04809149
:103D30000D04981751F0E0910C04F0E0E25FFB4FA6
:103D40008081992787FD909508958FEF9FEF0895C3
:103D500020914E0430914F042817390771F4809157
:103D60000D0420910C0490E0805C9F4F821B910910
:103D700060E470E00E94E626089580E090E00895F7
:103D800020914E0430914F042817390739F48FB72A
:103D9000F89410920D0410920C048FBF0895E091D6
:103DA0004E04F0914F04E817F90769F4A389B48928
:103DB0009C918589809589238C9310924F04109251
:103DC0004E0481E0089580E00895CF93DF93EC01E5
:103DD0008A8D9B8D892BF1F080914E0490914F0438
:103DE0008C179D07B9F0009711F00E94CF1E8E8DA1
:103DF0008E7F8E8F10920D0410920C04D0934F047E
:103E0000C0934E04EB89FC8980819D89892B808336
:103E100081E001C080E0DF91CF9108951F920F9261
:103E20000FB60F9211242F933F934F935F936F938D
:103E30007F938F939F93AF93BF93EF93FF93E09103
:103E40004E04F0914F04309709F451C0868DA68539
:103E5000B785958581FF04C08C91892329F447C0DB
:103E60008C91892309F043C0A389B4899C918589E9
:103E7000809589238C93868997890197F1F7208D06
:103E8000318DA685B785758558E040E0C901019759
:103E9000F1F7842F90E095958795482F6C916723D3
:103EA00009F04068515091F7868D81FD40958091D1
:103EB0000D0490E001968F73992720910C04281728
:103EC00049F0A0910D04B0E0A25FBB4F4C938093EA
:103ED0000D0403C0868D8160868F828D938D01973E
:103EE000F1F7A389B4898C919589892B8C93FF91E3
:103EF000EF91BF91AF919F918F917F916F915F9162
:103F00004F913F912F910F900FBE0F901F901895DA
:103F10001F93CF93DF93EC01162F6E8D6695617022
:103F200081E06827812F0E94232561E0812F0E9474
:103F3000EA24812F90E0FC01E65EFE4FE491E88BDD
:103F4000FC01E25DFE4FE491F0E0EE0FFF1FE45B49
:103F5000FE4F859194919A8B898BDF91CF911F9120
:103F600008951F93CF93DF93EC01162F60E0812F0C
:103F70000E94EA248E8D81FD04C061E0812F0E94A1
:103F800023251C87812F90E0FC01E65EFE4FE49123
:103F9000ED87FC01E25DFE4FE491F0E0EE0FFF1FC4
:103FA000EE5BFE4F859194919F878E87DF91CF9135
:103FB0001F910895FF920F931F93CF93DF93EC010E
:103FC000F62E522F1B821A8208EE13E020E030E01A
:103FD0000C831D832E833F838EE193E09983888336
:103FE0001F8A1E8A198E188E1B8E1A8E1D8E1C8E8D
:103FF0008E8D8E7F50FB81F98E8F642FCE010E94B3
:10400000881F6F2DCE01DF91CF911F910F91FF90EF
:104010000C94B11FCF93DF93EC019A01AB011B8E7F
:104020001A8E198E188E1F8A1E8A60E079E08DE341
:1040300090E00E941C27C9012430310520F0B9010D
:104040006350710902C061E070E07D8F6C8FEC8578
:10405000E63108F068C0B90176956795643171055D
:1040600018F06351710902C061E070E07F8B6E8BC4
:10407000069718F0C901059702C081E090E0998F7A
:10408000888FC901880F991F820F931F9695879576
:10409000969587958D30910510F00C9702C081E0C0
:1040A00090E09B8F8A8F20916800E83050F091E07B
:1040B000EE3008F490E081E001C0880F9A95EAF7AD
:1040C00001C084E0822B809368002C85283038F072
:1040D0002E3040F0263148F48CE690E008C08DE6A2
:1040E00090E005C08BE690E002C080E090E09C8B01
:1040F0008B8B283030F481E001C0880F2A95EAF7D5
:104100000DC0822F90E02E3010F4089701C00E975A
:1041100091E001C0990F8A95EAF7892F8D8B8C8DDC
:104120009D8D0197F1F7CE01DF91CF910C94E51EA3
:104130008091800490E020918104821B9109089570
:104140002091810480918004281750F4E22FF0E040
:10415000EE57FB4F808190E02F5F209381040895FC
:104160008FEF9FEF0895E091810480918004E8171C
:1041700030F4F0E0EE57FB4F808190E008958FEF30
:104180009FEF08950895CF92DF92EF92FF920F93E1
:104190001F93CF93DF937C01CB018A0120915C04B4
:1041A000222389F0EB016B01C40ED51ECC15DD0571
:1041B00069F06991D701ED91FC910190F081E02DBA
:1041C000C7010995F3CF642F0E942222C801DF9115
:1041D000CF911F910F91FF90EF90DF90CF900895B6
:1041E000CF93DF931F92CDB7DEB7698320915C0434
:1041F0002223D1F020915D04203240F021E030E014
:10420000FC013383228380E090E015C080915E043E
:10421000E82FF0E0E15AFB4F998190838F5F809304
:104220005E0480935D0405C061E0CE0101960E94AA
:10423000222281E090E00F90DF91CF910895FC0160
:104240001382128248EE53E060E070E044835583AD
:10425000668377838EE293E0918380830895109242
:1042600081041092800410925E0410925D040C94FC
:104270006D21862F413208F040E262E874E00E942E
:104280008B211092810480938004089521E00C9486
:10429000392181E080935C0460937F0410925E0476
:1042A00010925D0408950F93062F21E040915D0464
:1042B0006FE574E080917F040E94CF2110925E042C
:1042C00010925D0410925C040F91089561E00C94CB
:1042D000532180E594E00C941F2110920F0581E09A
:1042E00080930D0510920C0561E082E10E94232568
:1042F00061E083E10E942325E9EBF0E080818E7F7D
:10430000808380818D7F808388E48093B80085E4FA
:104310008093BC000895413208F03FC090910F0592
:104320009111FCCF91E090930F0520930D052FEF95
:104330002093A2041092E704240F2093E6049093A4
:104340000E0590910E05880F892B80930E058091A4
:104350000C05813041F410920C0580910E0580937C
:10436000BB0085EC01C085EE8093BC0080910F05F9
:104370008130E1F38091E704841710F44091E70461
:1043800028EE34E0FB01D9018A2F821B841718F430
:104390008D918193F9CF842F089580E008950F9334
:1043A000413208F046C090910F059111FCCF92E088
:1043B00090930F0500930D059FEF9093A204109228
:1043C000E7044093E604FB0168EE74E0DB019A2FFA
:1043D000961B941718F491919D93F9CF10920E05A6
:1043E00090910E05880F892B80930E0580910C0506
:1043F000813041F410920C0580910E058093BB0032
:1044000085EC01C085EE8093BC00222321F08091D1
:104410000F058230E1F38091A2048F3F61F080911B
:10442000A204803251F08091A204803341F483E0F1
:1044300007C081E005C080E003C082E001C084E0E5
:104440000F910895613298F420910F05243089F47A
:104450006093C404FC0186EC94E0DC012A2F281B45
:10446000261718F421912D93F9CF80E0089581E06B
:10447000089582E0089585ED8093BC008091BC0092
:1044800084FDFCCF10920F05089585EC8093BC004D
:1044900010920F0508951F920F920FB60F921124DC
:1044A0002F933F934F935F936F937F938F939F933C
:1044B000AF93BF93EF93FF938091B900887F8036CD
:1044C00009F49CC068F5883209F45BC090F480312F
:1044D00009F454C038F4882309F4F5C0883009F48D
:1044E0004DC0F5C0883109F44CC0803209F45DC07C
:1044F000EEC0803409F468C048F4803309F455C034
:10450000883309F0E4C08093A204A8C0803509F480
:104510004FC0883509F45DC0883409F0D8C0D5C0D3
:10452000883909F4C6C0A8F4883709F467C038F49C
:10453000883609F463C0803709F460C0C8C0883881
:1045400009F4B7C0803909F45FC0803809F0BFC0F2
:104550005BC0803B09F485C038F4803A09F466C03A
:10456000883A09F47EC0B3C0803C09F4A6C0883CF8
:1045700009F4A3C0883B09F489C0A9C080910E0545
:1045800010C09091E7048091E604981770F5E091CF
:10459000E70481E08E0F8093E704F0E0E851FB4FE1
:1045A00080818093BB0085EC85C08093A2048DC080
:1045B000E091E70481E08E0F8093E7048091BB00D7
:1045C000F0E0E851FB4F80839091E7048091E6048E
:1045D0006DC0E091E70481E08E0F8093E704809145
:1045E000BB00F0E0E851FB4F808380910D05811105
:1045F0006CC081E080930C0584EA60C083E0809306
:104600000F051092A304CFCF8091A304803208F04D
:1046100050C0E091A30481E08E0F8093A3048091A9
:10462000BB00F0E0EC55FB4F8083BDCF8091A3042D
:10463000803230F4E091A304F0E0EC55FB4F10829F
:104640000E943B226091A30470E0E0910805F09184
:10465000090584EA94E009951092A3040E9445227A
:1046600036C084E080930F051092C5041092C404F4
:10467000E0910A05F0910B0509958091C404811120
:1046800005C081E08093C4041092C604E091C50483
:1046900081E08E0F8093C504F0E0EA53FB4F8081E8
:1046A0008093BB009091C5048091C404981708F4CE
:1046B0007ACF85E88093BC000AC085EC8093BC006B
:1046C00010920F0504C01092A2040E943B22FF9199
:1046D000EF91BF91AF919F918F917F916F915F917A
:1046E0004F913F912F910F900FBE0F901F901895F3
:1046F0000C940B2B0C94A32B1F920F920FB60F92BE
:1047000011242F933F938F939F93AF93BF938091E7
:10471000110590911205A0911305B09114053091E7
:10472000100523E0230F2D3720F40196A11DB11DA4
:1047300005C026E8230F0296A11DB11D2093100588
:104740008093110590931205A0931305B09314055F
:104750008091150590911605A0911705B091180547
:104760000196A11DB11D8093150590931605A09388
:104770001705B0931805BF91AF919F918F913F910D
:104780002F910F900FBE0F901F9018952FB7F89490
:104790006091110570911205809113059091140597
:1047A0002FBF08953FB7F894809115059091160595
:1047B000A0911705B091180526B5A89B05C02F3FFD
:1047C00019F00196A11DB11D3FBF6627782F892FD3
:1047D0009A2F620F711D811D911D42E0660F771F98
:1047E000881F991F4A95D1F70895CF92DF92EF92D3
:1047F000FF92CF93DF936B017C010E94D223EB01E8
:10480000C114D104E104F10489F00E94C1260E9480
:10481000D2236C1B7D0B683E734090F381E0C81A75
:10482000D108E108F108C851DC4FEACFDF91CF9100
:10483000FF90EF90DF90CF900895019739F0880FA7
:10484000991F880F991F02970197F1F7089578949F
:1048500084B5826084BD84B5816084BD85B5826085
:1048600085BD85B5816085BDEEE6F0E08081816023
:104870008083E1E8F0E01082808182608083808123
:1048800081608083E0E8F0E0808181608083E1EBFB
:10489000F0E0808184608083E0EBF0E080818160E3
:1048A0008083EAE7F0E08081846080838081826099
:1048B0008083808181608083808180688083109282
:1048C000C10008951F93CF93DF93182FEB0161E090
:1048D0000E94EA24209711F460E004C0CF3FD10584
:1048E00039F461E0812FDF91CF911F910C94232542
:1048F000E12FF0E0EA5FFE4FE491E330F9F048F495
:10490000E130B9F0E230A1F584B5806284BDC8BD64
:1049100034C0E730E9F0E83019F1E43049F580912E
:104920008000806280938000D0938B00C0938A00C7
:1049300024C084B5806884BDC7BD1FC0809180003D
:10494000806880938000D0938900C093880015C050
:104950008091B00080688093B000C093B3000DC018
:104960008091B00080628093B000C093B40005C015
:10497000C038D1050CF0B5CFAFCFDF91CF911F91EB
:104980000895833081F028F4813099F08230A1F0CD
:1049900008958730A9F08830B9F08430D1F480913F
:1049A00080008F7D03C0809180008F77809380008E
:1049B000089584B58F7702C084B58F7D84BD089536
:1049C0008091B0008F7703C08091B0008F7D80937D
:1049D000B0000895CF93DF9390E0FC01E65EFE4FB8
:1049E0002491FC01E25DFE4F8491882349F190E01F
:1049F000880F991FFC01EA5AFE4FA591B491845B80
:104A00009E4FFC01C591D4919FB7611108C0F894E5
:104A10008C91209582238C93888182230AC06230F6
:104A200051F4F8948C91322F309583238C938881A4
:104A3000822B888304C0F8948C91822B8C939FBF27
:104A4000DF91CF9108950F931F93CF93DF931F9220
:104A5000CDB7DEB7282F30E0F901EA5FFE4F849131
:104A6000F901E65EFE4F1491F901E25DFE4F0491FB
:104A70000023C9F0882321F069830E94C124698141
:104A8000E02FF0E0EE0FFF1FE45BFE4FA591B49125
:104A90009FB7F8948C91611103C01095812301C0D8
:104AA000812B8C939FBF0F90DF91CF911F910F911E
:104AB0000895CF92DF92EF92FF920F931F93CF93BF
:104AC000DF9390E0FC01E65EFE4FD491FC01E25DD5
:104AD000FE4F7491611102C0C0E001C0CD2FDA0118
:104AE000C901BF70672F70E0660F771F6E5B7E4F46
:104AF00000E010E09801FB01E590F490F70140819F
:104B00004D234C131EC0680179014FEFC41AD40A1B
:104B1000E40AF40A081719072A073B0709F442C0F8
:104B200097018601E8CF68017901FFEFCF1ADF0A0C
:104B3000EF0AFF0A081719072A073B0799F197019F
:104B40008601FB01E590F490F70140814D234C1361
:104B5000EACF801B910BA20BB30B20E030E0A90140
:104B6000FB01E590F490F701F080FD22FC120AC0F1
:104B7000281739074A075B07A9F02F5F3F4F4F4FB0
:104B80005F4FEECFA8E1B0E00E944127605F7F4F0A
:104B90008F4F9F4F24E096958795779567952A9537
:104BA000D1F703C060E070E0CB01DF91CF911F919E
:104BB0000F91FF90EF90DF90CF900895FC01818DD1
:104BC000228D90E0805C9F4F821B91098F73992703
:104BD0000895FC01918D828D981731F0828DE80F38
:104BE000F11D858D90E008958FEF9FEF0895FC01F2
:104BF000918D828D981761F0828DDF01A80FB11D14
:104C00005D968C91928D9F5F9F73928F90E0089537
:104C10008FEF9FEF08958EE99BE1892B49F080E0AB
:104C200090E0892B29F00E949E1B81110C940000BA
:104C30000895FC01848DDF01A80FB11DA35ABF4F59
:104C40002C91848D90E001968F739927848FA6898B
:104C5000B7892C93A089B1898C9180648C93938DB2
:104C6000848D981306C00288F389E02D80818F7DA2
:104C700080830895CF93DF93EC01888D8823C9F05A
:104C8000EA89FB89808185FD05C0A889B9898C9155
:104C900086FD0FC00FB607FCF5CF808185FFF2CFF0
:104CA000A889B9898C9185FFEDCFCE010E94192684
:104CB000E7CFDF91CF910895CF92DF92FF920F93CC
:104CC0001F93CF93DF931F92CDB7DEB76C01DC014A
:104CD0005B969C915B975C968C915C97981307C050
:104CE0005096ED91FC915197808185FD32C0F6017F
:104CF000038D10E00F5F1F4F0F731127F02EF60189
:104D0000848DF81211C00FB607FCF9CFD60150966A
:104D1000ED91FC915197808185FFF1CFC6016983A8
:104D20000E9419266981EBCF838DE80FF11DE35AAC
:104D3000FF4F6083D6015B960C935B975296ED9183
:104D4000FC91539780818062808381E058968C9398
:104D50000DC0D6015696ED91FC9157976083509601
:104D6000ED91FC91519780818064808381E090E097
:104D70000F90DF91CF911F910F91FF90DF90CF9017
:104D800008950895DB018F939F930E944127BF915F
:104D9000AF91A29F800D911DA39F900DB29F900D8A
:104DA00011240895AA1BBB1B51E107C0AA1FBB1FFA
:104DB000A617B70710F0A61BB70B881F991F5A95A7
:104DC000A9F780959095BC01CD01089597FB072E1A
:104DD00016F4009407D077FD09D00E94D22607FC74
:104DE00005D03EF4909581959F4F089570956195FB
:104DF0007F4F0895A1E21A2EAA1BBB1BFD010DC017
:104E0000AA1FBB1FEE1FFF1FA217B307E407F5077A
:104E100020F0A21BB30BE40BF50B661F771F881F56
:104E2000991F1A9469F760957095809590959B01EC
:104E3000AC01BD01CF010895052E97FB1EF400942F
:104E40000E94332757FD07D00E94FA2607FC03D0A3
:104E50004EF40C94332750954095309521953F4F53
:104E60004F4F5F4F089590958095709561957F4F56
:104E70008F4F9F4F0895EE0FFF1F0590F491E02D87
:104E800009940E945427A59F900DB49F900DA49F54
:104E9000800D911D11240895B7FF0C9441270E94A5
:104EA0004127821B930B0895A29FB001B39FC001BD
:104EB000A39F700D811D1124911DB29F700D811D46
:104EC0001124911D08955058BB27AA270ED083C2E4
:104ED0004CD230F051D220F031F49F3F11F41EF447
:104EE0001CC20EF4E095E7FB04C2E92F96D280F3D2
:104EF000BA17620773078407950718F071F49EF5D7
:104F0000AEC20EF4E0950B2EBA2FA02D0B01B90105
:104F100090010C01CA01A0011124FF27591B99F02F
:104F2000593F50F4503E68F11A16F040A22F232F3B
:104F3000342F4427585FF3CF469537952795A7958B
:104F4000F0405395C9F77EF41F16BA0B620B730B32
:104F5000840BBAF09150A1F0FF0FBB1F661F771FA3
:104F6000881FC2F70EC0BA0F621F731F841F48F458
:104F7000879577956795B795F7959E3F08F0B3CFDE
:104F80009395880F08F09927EE0F979587950895C8
:104F9000ECD158F080E891E009F49EEFEDD128F0D3
:104FA00040E851E059F45EEF09C0B7C158C2E92F9B
:104FB000E07833D268F3092E052AC1F326173707A4
:104FC0004807590738F00E2E07F8E02569F0E0256C
:104FD000E0640AC0EF6307F8009407FADB01B90147
:104FE0009D01DC01CA01AD01EF934AD0F4D10AD092
:104FF0005F91552331F02BED3FE049E450FD49EC42
:1050000063CF0895DF93DD27B92FBF7740E85FE3D3
:105010001616170648075B0710F4D92F2BD29F935B
:105020008F937F936F93D8D2EAEBF0E079D1D3D10D
:105030002F913F914F915F9130D2DD2349F09058ED
:10504000A2EA2AED3FE049EC5FE3D0785D274DDF2F
:10505000DF91C1C12AD108F481E0089595D1E3958B
:10506000CBC10CD0B8C188D140F07FD130F021F451
:105070005F3F19F03EC15111F3C14FC1CED198F33A
:105080009923C9F35523B1F3951B550BBB27AA27C9
:1050900062177307840738F09F5F5F4F220F331F3B
:1050A000441FAA1FA9F333D00E2E3AF0E0E830D007
:1050B00091505040E695001CCAF729D0FE2F27D00A
:1050C000660F771F881FBB1F261737074807AB07D8
:1050D000B0E809F0BB0B802DBF01FF2793585F4F4D
:1050E0002AF09E3F510568F004C1BAC15F3FECF35E
:1050F000983EDCF3869577956795B795F7959F5F12
:10510000C9F7880F911D9695879597F90895E1E065
:10511000660F771F881FBB1F621773078407BA07C4
:1051200020F0621B730B840BBA0BEE1F88F7E0951F
:10513000089504D06894B11193C1089576D188F090
:105140009F5790F0B92F9927B751A0F0D1F0660F73
:10515000771F881F991F1AF0BA95C9F712C0B1308E
:1051600081F07DD1B1E008957AC1672F782F88272B
:10517000B85F39F0B93FCCF3869577956795B395CD
:10518000D9F73EF490958095709561957F4F8F4F3C
:105190009F4F0895E89409C097FB3EF49095809541
:1051A000709561957F4F8F4F9F4F9923A9F0F92FED
:1051B00096E9BB279395F695879577956795B7956B
:1051C000F111F8CFFAF4BB0F11F460FF1BC06F5F51
:1051D0007F4F8F4F9F4F16C0882311F096E911C063
:1051E000772321F09EE8872F762F05C0662371F084
:1051F00096E8862F70E060E02AF09A95660F771F98
:10520000881FDAF7880F9695879597F90895ADD09E
:1052100018F011F0B1D038F480C022C1E92FFDD0D0
:10522000B0F35523C9F3E7FB6217730784079507AB
:10523000A8F199F3E92FFF2788232AF03197660F09
:10524000771F881FDAF7952F5527442332F09150A6
:105250005040220F331F441FD2F7BB27E91BF50B29
:10526000621B730B840BB109C1F222F4620F731F2E
:10527000841FB11D31972AF0660F771F881FBB1F4F
:10528000EFCF915050405AF041F0882332F0660F32
:10529000771F881F91505040C1F7939530C0869575
:1052A000779567959F5FD9F7F8CF990F0008550F4D
:1052B000AA0BE0E8FEEF16161706E807F907C0F09C
:1052C00012161306E407F50798F0621B730B840BA4
:1052D000950B39F40A2661F0232B242B252B21F47E
:1052E00008950A2609F4A140A6958FEF811D811D1E
:1052F000089597F99F6780E870E060E008959F3F08
:1053000031F0915020F4879577956795B795880F80
:10531000911D9695879597F908959FEF80EC0895D4
:10532000DF93CF931F930F93FF92EF92DF927B0156
:105330008C01689405C0DA2EEF01AFD0FE01E8942D
:10534000A5912591359145915591AEF3EF01CDDDB4
:10535000FE019701A801DA9479F7DF90EF90FF90B2
:105360000F911F91CF91DF91089500240A94161692
:10537000170618060906089500240A941216130643
:10538000140605060895C9CF50D0E8F3E894E0E08C
:10539000BB279F57F0F02AED3FE049EC06C0EE0F27
:1053A000BB0F661F771F881F28F0B23A620773078A
:1053B000840728F0B25A620B730B840BE3959A951D
:1053C00072F7803830F49A95BB0F661F771F881FDD
:1053D000D2F7904896CF092E0394000C11F488233D
:1053E00052F0BB0F40F4BF2B11F460FF04C06F5F9D
:1053F0007F4F8F4F9F4F0895EF93E0FF06C0A2EAC3
:105400002AED3FE049EC5FEB70DDE5DF0F900394A0
:1054100001FC9058E7EEF0E0EDC057FD9058440FC6
:10542000551F59F05F3F71F04795880F97FB991F03
:1054300061F09F3F79F087950895121613061406C0
:10544000551FF2CF4695F1DF08C01616170618064D
:10545000991FF1CF86957105610508940895E89428
:10546000BB2766277727CB0197F908951EDF08F43D
:105470008FEF08959B01AC0160E070E080E89FE34E
:10548000F0CD0BD0A8CF71DF28F076DF18F0952390
:1054900009F02FCF42CF1124E3CFBFDFA0F3959FB8
:1054A000D1F3950F50E0551F629FF001729FBB270B
:1054B000F00DB11D639FAA27F00DB11DAA1F649FB7
:1054C0006627B00DA11D661F829F2227B00DA11D6A
:1054D000621F739FB00DA11D621F839FA00D611DF0
:1054E000221F749F3327A00D611D231F849F600D11
:1054F000211D822F762F6A2F11249F5750408AF04A
:10550000E1F088234AF0EE0FFF1FBB1F661F771FD5
:10551000881F91505040A9F79E3F510570F0E9CE89
:105520009FCF5F3FECF3983EDCF3869577956795C8
:10553000B795F795E7959F5FC1F7FE2B880F911DF3
:105540009695879597F908959F931EDF0F9007FC16
:10555000EE5F52CF11F40EF4E0CED1CE66DFD0F381
:105560009923D9F3CEF39F57550B87FF3CD00024E6
:10557000A0E640EA900180585695979528F4805C03
:10558000660F771F881F20F026173707480730F46B
:10559000621B730B840B202931294A2BA695179483
:1055A0000794202531254A2758F7660F771F881F53
:1055B00020F026173707480730F4620B730B840B73
:1055C000200D311D411DA09581F7B901842F9158FF
:1055D000880F9695879508959B01AC0152CF65DEA3
:1055E000880B990B089591505040660F771F881FC4
:1055F000D2F708959F938F937F936F93FF93EF93C9
:105600009B01AC013EDFEF91FF918ADE2F913F912C
:105610004F915F9136CFCF93DF938230910510F495
:1056200082E090E0E0911B05F0911C0520E030E065
:10563000A0E0B0E0309739F1408151814817590717
:10564000B8F04817590771F482819381109729F0B7
:1056500013969C938E9312972CC090931C05809365
:105660001B0527C02115310531F04217530718F0EB
:10567000A901DB0101C0EF019A01BD01DF01028038
:10568000F381E02DD7CF21153105F9F0281B390B17
:105690002430310580F48A819B816115710521F0E8
:1056A000FB019383828304C090931C0580931B05A8
:1056B000FE01329644C0FE01E20FF31F81939193E5
:1056C00022503109398328833AC02091190530913D
:1056D0001A05232B41F420910201309103013093EC
:1056E0001A0520931905209100013091010121151F
:1056F000310541F42DB73EB74091040150910501A9
:10570000241B350BE0911905F0911A05E217F307F8
:10571000A0F42E1B3F0B2817390778F0AC014E5F21
:105720005F4F2417350748F04E0F5F1F50931A053F
:10573000409319058193919302C0E0E0F0E0CF011E
:10574000DF91CF910895CF93DF93009709F487C03D
:10575000FC01329713821282C0911B05D0911C0567
:10576000209781F420813181280F391F80911905FC
:1057700090911A058217930779F5F0931A05E09333
:1057800019056DC0DE0120E030E0AE17BF0750F410
:1057900012964D915C9113979D014115510509F1A8
:1057A000DA01F3CFB383A28340815181840F951F27
:1057B0008A179B0771F48D919C911197840F951F07
:1057C00002969183808312968D919C911397938377
:1057D00082832115310529F4F0931C05E0931B0504
:1057E0003EC0D9011396FC93EE9312974D915D91B3
:1057F000A40FB51FEA17FB0779F480819181840F0C
:10580000951F0296D90111969C938E938281938164
:1058100013969C938E931297E0E0F0E08A819B812F
:10582000009719F0FE01EC01F9CFCE010296288114
:105830003981820F931F2091190530911A0528177D
:10584000390769F4309729F410921C0510921B0552
:1058500002C013821282D0931A05C0931905DF91FA
:10586000CF91089581E090E0F8940C945D2CFC01B8
:1058700088279927E89421912032E9F3293010F004
:105880002E30C8F32B3241F02D3239F4689404C025
:105890000E94552C820F911D219120532A30C0F374
:1058A0001EF4909581959F4F08957AE0979F902DD3
:0E58B000879F802D910D11240895F894FFCF4D
:1058BE0000001D05800001000000E8030A48454174
:1058CE0044494E473A200020202020474F414C208B
:1058DE0048454144494E473A200020202020484563
:1058EE004144494E47204F46465345543A20004FB7
:1058FE004646534554203D0048454144494E473D98
:10590E000000000000DC00E800191E191E00000057
:10591E0000E200EF0004023A020A4C41543A200021
:10592E00202020204C4F4E3A20002020202041479E
:10593E00453A20000A4C4F434154494F4E20554E94
:10594E00415641494C41424C45004C41543D004C5E
:10595E004F4E3D00443D004C4F434154494F4E0085
:10596E000000000088028E025F03A504496E766176
:10597E006C696420737562736372697074000A3D9A
:10598E003D3D3D3D3D3D3D3D3D3D3D3D3D3D3D3D39
:10599E003D3D3D3D3D3D3D3D3D3D3D3D3D3D3D3D29
:1059AE003D3D3D3D3D3D3D3D3D3D3D3D3D3D3D3D19
:1059BE003D3D3D3D3D3D3D3D3D3D3D3D3D3D3D3D09
:1059CE003D3D3D3D3D3D3D3D3D3D000A4B703A2048
:1059DE0000202020204B693A00202020204B643AE2
:1059EE0000202020204F55545055543A20006B7003
:1059FE003D006B693D006B643D004F3D00000000B3
:105A0E0000B708BD08C40814090A463A2000202031
:105A1E002020464C3A20002020202046523A2000DA
:105A2E00202020204C3A200020202020523A200016
:105A3E0000000000EC0CFE0C280C870C0A444953A5
:105A4E0054414E43453A200020636D00444953545F
:105A5E00414E43452028636D290000000000180EBA
:105A6E001E0E250E400E4750524D430047504747DD
:105A7E0041004E4E4500454E45004553450053539B
:105A8E00450053005353570057535700574E570076
:105A9E004E4E57000024744900007A440000000066
:105AAE001919EB1B891917191819191E0000000076
:105ABE001919EB1B111B021A161AF31A6E616E00DE
:105ACE00696E66006F7666002E00000000003C1EB8
