:100000000C94B2000C94DA000C94DA000C94B42630
:100010000C94B4260C94B4260C94DA000C94761646
:100020000C94DA000C94DA000C94DA000C94DA00E8
:100030000C94DA000C94DA000C94DA000C94DA00D8
:100040000C94222B0C94DA000C9485220C94B72289
:100050000C94DA000C94DA000C94DA000C94DA00B8
:100060000C94F1290C94DA00CC1CDF1CEF1C021D4F
:100070000A1D361D3E1D461D4E1D551D551D551D87
:10008000551D551D551D551D551D551D551D551DE0
:10009000551D551D551D551D551D551D551D551DD0
:1000A000551D551D551D551DCC1CD81CDF1CEF1CA6
:1000B000021D0A1D1D1D251D2D1D084AD73B3BCEC7
:1000C000016E84BCBFFDC12F3D6C74319ABD568357
:1000D0003DDA3D00C77F11BED9E4BB4C3E916BAA0F
:1000E000AABE000000803F05A84CCDB2D44EB9385E
:1000F00036A9020C50B9918688083CA6AAAA2ABE45
:10010000000000803F000000000800020100000322
:100110000407000000000000000001020408102095
:100120004080010204081020010204081020040489
:10013000040404040404020202020202030303038F
:100140000303000000002300260029000000000037
:10015000250028002B0000000000240027002A00B2
:10016000E7220F2911241FBECFEFD8E0DEBFCDBF9D
:1001700013E0A0E0B1E0E4E7F5E602C005900D92DF
:10018000A835B107D9F725E0A8E5B3E001C01D9275
:10019000A833B207E1F711E0C4E6D1E004C022972A
:1001A000FE010E94982DC036D107C9F70E94312167
:1001B0000C94B8320C9400000F931F93CF93DF93ED
:1001C000EC017B836A8388E090E00E941E2B8C0107
:1001D0000E949C1319830883C8010E94CE1363E018
:1001E000888199810E94A01362E0888199810E9490
:1001F000B61365E0888199810E94AB1360E0888125
:1002000099810E94BF131E861F86188A198A1A8632
:100210001B861C861D86DF91CF911F910F9108953B
:10022000CF92DF92EF92FF92CF93DF93EC019C018C
:10023000285F3F4FAC014A5F5F4FBC016C5F7F4F4F
:10024000888199810E94E0136C817D81882777FDE8
:100250008095982F0E94272F26EF38E24CE95FE324
:100260000E949C3027ED33EA40E75FE30E949C3018
:1002700020E030E048EB50E40E94BF2D6B017C0190
:100280006E817F81882777FD8095982F0E94272F88
:1002900026EF38E24CE95FE30E949C302BE734E123
:1002A0004EE65FE30E949C3028EB3EE146E052E4DC
:1002B0000E94BF2DA70196010E94322E6B017C0186
:1002C0006A897B898C899D890E9493029B01AC017C
:1002D000C701B6010E94BF2D6B017C0120E030E018
:1002E000A9010E94852E87FF0AC02BED3FE049EC53
:1002F00050E4C701B6010E94BF2D6B017C01C7010C
:10030000B6010E949A022A813B812115310539F0FC
:10031000AB01BC01C9010E9446089B0101C09B01C1
:10032000A901BC014A875B876C877D87DF91CF91EC
:10033000FF90EF90DF90CF900895FC01428B538B9C
:10034000648B758B0895FC01628573858485958522
:100350000895FC0146875787608B718B0895FC01D7
:1003600066857785808991890895CF92DF92EF9293
:10037000FF92FC0122853385448555856685778506
:10038000808991890E94BE2D6B017C0120E030E0C4
:1003900044E353EC0E94852E87FF09C020E030E043
:1003A00044EB53E4C701B6010E94BF2D12C020E008
:1003B00030E044E353E4C701B6010E9491301816BF
:1003C00054F420E030E044EB53E4C701B6010E944E
:1003D000BE2D6B017C01C701B601FF90EF90DF904D
:1003E000CF90089526E531E0FC0131832083089504
:1003F00026E531E0FC0131832083089526E531E0D4
:10040000FC01318320830C94202B26E531E0FC0194
:10041000318320830C94202BCF93DF93EC016DE08C
:1004200071E08AE893E00E9468238A819B810E94A0
:10043000A301AB01BC0122E030E08AE893E00E9416
:10044000642568E171E08AE893E00E9468238A816C
:100450009B810E94AF01AB01BC0122E030E08AE841
:1004600093E00E9464256BE271E08AE893E00E94C9
:1004700068238A819B810E94B501AB01BC0122E007
:1004800030E08AE893E0DF91CF910C946625CF921B
:10049000DF92EF92FF920F931F93CF93DF936C0144
:1004A000EB0120E431E040E050E060E070E0CE019C
:1004B0000E94E806F601828193810E94B5018B01BA
:1004C0009C0184E0E82EF12C40E050E068E070E010
:1004D000CE010E94030729E431E041E050E060E0F2
:1004E00070E0CE010E94E806F601828193810E94AD
:1004F000A3018B019C0141E050E068E070E0CE0177
:100500000E940307DF91CF911F910F91FF90EF9011
:10051000DF90CF90089522E631E0FC013183208303
:1005200073836283089525E33AEF4EE85CE30E940B
:100530009C30089520EE3EE245E652E40E949C3055
:1005400008950F931F93CF93DF93EC0183E790E01F
:100550000E941E2B8C010E94571A198308838FE179
:1005600090E00E941E2B8C0120E04BE06AE00E948C
:1005700080271B830A8340E855E260E070E0C801F1
:100580000E94B0274091F7025091F8026091F90261
:100590007091FA024C835D836E837F83488759870D
:1005A0006A877B870091F3021091F4022091F50293
:1005B0003091F602088B198B2A8B3B8B4C8B5D8B11
:1005C0006E8B7F8B488F598F6A8F7B8FDF91CF9196
:1005D0001F910F910895CF93DF93EC018A819B8146
:1005E000DC01ED91FC910480F581E02D0995892BCA
:1005F00071F18A819B81DC01ED91FC910680F7818C
:10060000E02D0995682F888199810E945E1D8A815D
:100610009B81DC01ED91FC910480F581E02D099531
:10062000892B39F79E01245F3F4FAE01485F5F4F32
:10063000BE016C5F7F4F888199810E94341E888142
:1006400099810E94A11E688B798B8A8B9B8BDF918D
:10065000CF910895FC016481758186819781089509
:10066000FC0160857185828593850895FC01648510
:100670007585868597850895CF92DF92EF92FF92D8
:100680001F93CF93DF93EC01C090F702D090F80254
:10069000E090F902F090FA02A70196016C817D8149
:1006A0008E819F810E94852E882371F011E0A70121
:1006B0009601688579858A859B850E94852E8111A2
:1006C00001C010E0812F01C080E0DF91CF911F9128
:1006D000FF90EF90DF90CF9008954F925F926F92CE
:1006E0007F928F929F92AF92BF92CF92DF92EF92C2
:1006F000FF920F931F93CF93DF93CDB7DEB7609731
:100700000FB6F894DEBF0FBECDBF2A013B010D83AB
:100710001E832F833887CB01BA010E94930269831D
:100720007A838B839C83C701B6010E9493026987F9
:100730007A878B879C87A3019201C701B6010E942B
:10074000BE2D0E9493026B017C012D813E814F8161
:100750005885C501B4010E94BE2D0E9493026D838D
:100760007E838F83988720E030E040E05FE3C7011D
:10077000B6010E949C300E94FF306B017C016981B0
:100780007A818B819C810E94892E2B013C01698595
:100790007A858B859C850E94892E69837A838B83D9
:1007A0009C8320E030E040E05FE36D817E818F81BB
:1007B00098850E949C300E94FF304B015C01A7018C
:1007C0009601C701B6010E949C306B017C01298112
:1007D0003A814B815C81C301B2010E949C302B01A4
:1007E0003C01A5019401C501B4010E949C309B010C
:1007F000AC01C301B2010E949C309B01AC01C70156
:10080000B6010E94BF2D6B017C019B01AC0160E031
:1008100070E080E89FE30E94BE2D0E9409319B0199
:10082000AC01C701B6012D873E874F87588B0E94C8
:1008300009312D853E854F8558890E94322E9B01B6
:10084000AC010E94BF2D20E73DE642EC5AE40E9435
:100850009C3060960FB6F894DEBF0FBECDBFDF911F
:10086000CF911F910F91FF90EF90DF90CF90BF90AD
:10087000AF909F908F907F906F905F904F90089572
:100880008F929F92AF92BF92CF92DF92EF92FF92A0
:100890000F931F93CF93DF93EC016A017B01480113
:1008A00059010E943C03882361F0088519852A8537
:1008B0003B854C815D816E817F81CE010E946D03FD
:1008C00004C060E070E080E89FEBDF91CF911F9162
:1008D0000F91FF90EF90DF90CF90BF90AF909F90DF
:1008E0008F9008954F925F926F927F928F929F9216
:1008F000AF92BF92CF92DF92EF92FF920F931F932E
:10090000CF93DF93CDB7DEB760970FB6F894DEBF15
:100910000FBECDBF09831A832B833C83CB01BA0161
:100920000E9493022B013C01C701B6010E94930271
:100930006B017C0129813A814B815C81C501B40145
:100940000E94BE2D0E9493024B015C010E94FF3069
:100950006D837E838F839887C701B6010E94892E9D
:1009600069837A838B839C83C301B2010E94892EA1
:1009700069877A878B879C87C701B6010E94FF3001
:100980009B01AC01C301B2012D873E874F87588B75
:100990000E94FF306B017C01C501B4010E94892EC9
:1009A0002B013C012D853E854F85588969857A85C7
:1009B0008B859C850E949C304B015C0129813A818A
:1009C0004B815C81C701B6010E949C30A30192015A
:1009D0000E949C309B01AC01C501B4010E94BE2D58
:1009E0006B017C0129813A814B815C816D817E8123
:1009F0008F8198850E949C30A70196010E94322E1B
:100A00000E949A0220E030E044EB53E40E94BF2DA4
:100A100020E030E044EB53E460960FB6F894DEBF7C
:100A20000FBECDBFDF91CF911F910F91FF90EF903F
:100A3000DF90CF90BF90AF909F908F907F906F90FE
:100A40005F904F900C94692F8F929F92AF92BF92BC
:100A5000CF92DF92EF92FF920F931F93CF93DF938A
:100A6000EC016A017B01480159010E943C03882383
:100A700061F0088519852A853B854C815D816E81F1
:100A80007F81CE010E94720404C060E070E080E8C3
:100A90009FEBDF91CF911F910F91FF90EF90DF902F
:100AA000CF90BF90AF909F908F90089526E531E052
:100AB000FC0131832083089526E531E0FC01318378
:100AC00020830C94202BAF92BF92CF92DF92EF92B3
:100AD000FF920F931F93CF93DF935C01EB01FC0117
:100AE000828193810E943C03882309F4B1C0F501FF
:100AF00002811381C090F702D090F802E090F902D1
:100B0000F090FA02A7019601F80164897589868937
:100B100097890E94852E882309F45EC0A70196015B
:100B2000F801608D718D828D938D0E94852E8823B2
:100B300009F452C02AE631E040E050E060E070E0A5
:100B4000CE010E94E806F501828193810E942A036A
:100B50008B019C0193E0E92EF12C40E050E064E031
:100B600070E0CE010E9403072FE631E040E050E044
:100B700068E070E0CE010E94E806F5018281938171
:100B80000E9430038B019C0140E050E06BE070E07C
:100B9000CE010E94030724E731E041E050E060E02D
:100BA00070E0CE010E94E806F50182819381FC018C
:100BB000008D118D228D338D448955896689778901
:100BC0000E9440048B019C014FE0E42EF12C41E097
:100BD00050E063E070E02EC02AE631E040E050E0F3
:100BE00060E070E0CE010E94E806F5018281938109
:100BF0000E942A038B019C018FE0E82EF12C40E03B
:100C000050E064E070E0CE010E9403072FE631E07F
:100C100041E050E060E070E0CE010E94E806F5019E
:100C2000828193810E9430038B019C0141E050E05E
:100C300064E070E0CE010E940307DF91CF911F9125
:100C40000F91FF90EF90DF90CF90BF90AF900895FD
:100C500027E731E040E050E060E070E0CE010E9424
:100C6000E80625EA31E041E050E060E070E0CE01C6
:100C7000DF91CF911F910F91FF90EF90DF90CF9078
:100C8000BF90AF900C94E806CF93DF93EC018A817C
:100C90009B810E943C038823C1F160E871E08AE8EF
:100CA00093E00E9468238A819B810E942A03AB0102
:100CB000BC012FE030E08AE893E00E94642567E8F9
:100CC00071E08AE893E00E9468238A819B810E94F8
:100CD0003003AB01BC012FE030E08AE893E00E94D2
:100CE000642561E971E08AE893E00E9468238A81C3
:100CF0009B810E943603AB01BC012AE030E08AE808
:100D000093E0DF91CF910C9467246BE971E08AE85E
:100D100093E0DF91CF910C94852325EB31E0FC012A
:100D2000318320837383628308956F927F928F92C1
:100D3000AF92CF92EF920F93CF93DF93EC0189E1C3
:100D400090E00E941E2B3C0187E0882E96E0A92EA1
:100D500025E0C22E34E0E32E00E021E042E067E22D
:100D6000C3010E948A2079826882D301ED91FC91AF
:100D70000480F581E02D20E042E064E1C3010995A3
:100D800088819981DC01ED91FC910680F781E02D4D
:100D900040E050E063E0099588819981DC01ED91A4
:100DA000FC910084F185E02D61E0099588819981AD
:100DB000DF91CF910F91EF90CF90AF908F907F9078
:100DC0006F900C943D1FFC01808191810C94361F23
:100DD0000F931F93CF93DF93EC01890142305105AC
:100DE00068F4888199810E94441FB80188819981A3
:100DF000DF91CF911F910F910C946823DF91CF91D8
:100E00001F910F9108958F929F92AF92BF92EF9290
:100E1000FF920F931F93CF93DF93EC014801590189
:100E200042305105A8F4888199810E94441F97019E
:100E3000B501A40188819981DF91CF911F910F9114
:100E4000FF90EF90BF90AF909F908F900C9464258F
:100E5000DF91CF911F910F91FF90EF90BF90AF90D6
:100E60009F908F900895CF92DF92EF92FF920F9311
:100E70001F93CF93DF93EC017B018A0119821882C3
:100E800088E090E09B838A831D821C8280E190E051
:100E90000E941E2B6C018883D982FA86E9860C1782
:100EA0001D0709F482C0D80114968D919C91159765
:100EB0004A815B814817590720F59B838A83880FF5
:100EC000991F0E941E2B998388834C815D81F601B6
:100ED00020E030E02417350789F0A881B981B901F5
:100EE000660F771FA60FB71F109721F060817181E1
:100EF0006D937C932F5F3F4F3296ECCFC6010E94DB
:100F0000202B8C819D81F80144815581BA01841781
:100F1000950708F4BC0120E030E02617370799F068
:100F20006901CC0CDD1CD801ED91FC91EC0DFD1D8F
:100F3000E080F180E881F981EC0DFD1DF182E08215
:100F40002F5F3F4FEACF8417950758F0F80184814F
:100F500095812C813D818217930738F59D838C8381
:100F600024C09C01220F331FD80114964D915C912F
:100F700015978417950750F7F801A081B181A20F4A
:100F8000B31FE881F981E20FF31F309721F04D91F3
:100F90005C91518340834C815D814F5F5F4F5D83E6
:100FA0004C8301962E5F3F4FDFCF18861F82DF9163
:100FB000CF911F910F91FF90EF90DF90CF90089508
:100FC0000F931F93CF93DF93EC0189859A85009748
:100FD00011F10E94E3060F8118858C819D8108170D
:100FE000190720F08DEB91E00E942621000F111FC0
:100FF000E881F981E00FF11F80819181DC01ED91A1
:10100000FC9169857A850680F781E02DDF91CF918B
:101010001F910F910994DF91CF911F910F91089526
:10102000FC01878190850196648175810E942D2D38
:101030009087878308950F931F93CF93DF938C013D
:101040006FEC71E08AE893E00E948523C0E0D0E075
:10105000F80184819581C817D90798F4CE01880FCB
:10106000991FD801ED91FC91E80FF91F80819181C2
:10107000DC01ED91FC910480F581E02D099521962C
:10108000E7CFDF91CF911F910F9108958F929F929B
:10109000AF92BF92CF92DF92EF92FF92CF93DF9306
:1010A000EC01CB01BA01688B798B8A8B9B8BC88052
:1010B000D980EA80FB80A70196010E949C304B01F9
:1010C0005C01A701960160E070E080E89FE30E9468
:1010D000BE2D2C853D854E855F850E949C309B01F1
:1010E000AC01C501B4010E94BF2D6C877D878E873E
:1010F0009F87DF91CF91FF90EF90DF90CF90BF90CF
:10110000AF909F908F9008952F923F924F925F9251
:101110006F927F928F929F92AF92BF92CF92DF9207
:10112000EF92FF920F931F93CF93DF93CDB7DEB76C
:101130003C01862F2D883E884F88588CF301158AF4
:10114000148A178A168A84869586A686B786208A88
:10115000318A428A538A6083718353834283358301
:10116000248317830683F186E086D386C28661E0F6
:101170000E94AD2C61E0F30182810E94AD2C61E000
:10118000F30184810E94AD2C61E0F30186810E940D
:10119000AD2C61E0F30180850E94AD2C61E0F3018C
:1011A0008285DF91CF911F910F91FF90EF90DF909B
:1011B000CF90BF90AF909F908F907F906F905F90F7
:1011C0004F903F902F900C94AD2CCF93DF93EC0178
:1011D000CB016F3F710519F014F08FEF90E09D8BFC
:1011E0008C8BCA014F3F510519F014F08FEF90E03E
:1011F0009F8B8E8B61E0181619060CF060E08885D5
:101200000E94E62C61E08E899F89181619060CF45D
:1012100060E08A850E94E62C61E08C899D89181621
:1012200019060CF060E08A810E94E62C61E08C894E
:101230009D89181619060CF460E08C810E94E62C3A
:101240006C897D89882777FD8095982F0E94272FAC
:101250002C853D854E855F850E949C300E94F42E32
:1012600088810E94252C6E897F89882777FD80954B
:10127000982F0E94272F288939894A895B890E94E3
:101280009C300E94F42E8E81DF91CF910C94252CFE
:10129000AF92BF92CF92DF92EF92FF920F931F9384
:1012A000CF93DF931F92CDB7DEB75C018B0177FF41
:1012B00002C000E010E060E0F501828149830E94F5
:1012C000E62C61E0F50184810E94E62C61E0F501E5
:1012D00080850E94E62C60E0F50182850E94E62C64
:1012E0004981442391F06FEF70E0F50180810E9405
:1012F000252C6FEF70E0F50186810E94252C64E6B5
:1013000070E080E090E00E949B2BB801882777FD79
:101310008095982F0E94272F6B017C01F501248571
:101320003585468557850E949C300E94F42EF50134
:1013300080810E94252CF5012089318942895389B9
:10134000C701B6010E949C300E94F42EF5018681EF
:101350000E94252C88279927801B910BF501958BDE
:10136000848B178B068B0F90DF91CF911F910F917C
:10137000FF90EF90DF90CF90BF90AF900895CF9304
:10138000DF93EC0160E08A810E94E62C60E08C81B2
:101390000E94E62C60E088850E94E62C60E08A8549
:1013A0000E94E62C61E088810E94E62C61E08E813B
:1013B0000E94E62C1D8A1C8A1F8A1E8ADF91CF910B
:1013C0000895FC01848995890895FC01868997898F
:1013D000089526E531E0FC0131832083089526E558
:1013E00031E0FC01318320830C94202BCF93DF93D9
:1013F000EC016CE172E08AE893E00E9468238A8144
:101400009B810E94E1094AE050E0BC018AE893E038
:101410000E943A2462E272E08AE893E00E94682324
:101420008A819B810E94E5094AE050E0BC018AE87C
:1014300093E0DF91CF910C944224CF92DF92EF9210
:10144000FF920F931F93CF93DF936C01EB012BE27D
:1014500032E040E050E060E070E0CE010E94E8063B
:10146000F601828193810E94E109BC01882777FD02
:101470008095982F0E94272F8B019C01EE24E394E6
:10148000F12C40E050E066E070E0CE010E940307DE
:1014900022E332E041E050E060E070E0CE010E94E3
:1014A000E806F601828193810E94E509BC01882744
:1014B00077FD8095982F0E94272F8B019C0141E09A
:1014C00050E066E070E0CE010E940307DF91CF910B
:1014D0001F910F91FF90EF90DF90CF9008952EE332
:1014E00032E0FC01318320837383628308956F921D
:1014F0007F928F929F92AF92BF92CF92DF92EF92A4
:10150000FF920F931F93CF93DF93EC013C0181E493
:10151000680E711C4E01EDE38E0E911CCE01C99632
:101520001F921F92FF92EF92DF92CF9258016901B2
:101530007A018B019301A401BC01CE010E94D8194C
:10154000F301108211821282138219AE1AAE1BAE01
:101550001CAEF40110821182128213820F900F9040
:101560000F900F900F900F90DF91CF911F910F91DF
:10157000FF90EF90DF90CF90BF90AF909F908F90B3
:101580007F906F900895FC0141AF52AF63AF74AF8D
:101590000895CD96FC0160817181828193810895C7
:1015A00026E531E0FC0131832083089526E531E012
:1015B000FC01318320830C94202BCF93DF93EC012B
:1015C00066E472E08AE893E00E9468238A819B8146
:1015D0000E94451AAB01BC0122E030E08AE893E0AA
:1015E0000E9464256CE472E08AE893E00E9468231C
:1015F0008A819B810E944B1AAB01BC0122E030E042
:101600008AE893E00E94642564E572E08AE893E04A
:101610000E9468238A819B810E94511AAB01BC0100
:1016200022E030E08AE893E00E9464256CE572E0F5
:101630008AE893E00E9468238A819B810E94C90AFC
:10164000AB01BC0122E030E08AE893E0DF91CF916A
:101650000C946625CF92DF92EF92FF920F931F9327
:10166000CF93DF936C01EB0129E632E040E050E0DC
:1016700060E070E0CE010E94E806F601828193816D
:101680000E94451A8B019C0182E0E82EF12C40E07B
:1016900050E063E070E0CE010E9403072DE632E0E7
:1016A00040E050E069E070E0CE010E94E806F601FB
:1016B000828193810E944B1A8B019C0140E050E093
:1016C0006CE070E0CE010E94030721E732E041E0C8
:1016D00050E060E070E0CE010E94E806F6018281F1
:1016E00093810E94511A8B019C0141E050E063E01C
:1016F00070E0CE010E94030725E732E041E050E0B0
:1017000069E070E0CE010E94E806F60182819381D3
:101710000E94C90A8B019C0141E050E06BE070E03F
:10172000CE010E940307DF91CF911F910F91FF908F
:10173000EF90DF90CF9008952CE732E0FC013183E9
:1017400020837383628308950F93FC017183608308
:10175000428323830483158216821782108644EC09
:1017600059E060E070E0418752876387748715868F
:1017700016861786108A44E650E060E070E0418BE0
:10178000528B638B748B158A168A178A108E44EFDE
:1017900051E060E070E0418F528F638F748F0F9142
:1017A00008952F923F924F925F926F927F928F9205
:1017B0009F92AF92BF92CF92DF92EF92FF920F93E0
:1017C0001F93CF93DF9300D000D000D0CDB7DEB70A
:1017D0009E838D83FC0182810E94082C8C01ED8107
:1017E000FE8183810E94082C4C01ED81FE81848161
:1017F0000E94082C1C01ED81FE81A580B680C78067
:10180000D084B801882777FD8095982F24852F9361
:1018100023852F9322852F9321852F93EE24EA94FD
:1018200013E0F12E00E010E020E030E0A9010E947A
:1018300078252B013C01ED81FE81A584B684C78407
:10184000D088B401882777FD8095982F24892F931D
:1018500023892F9322892F9321892F9320E030E031
:10186000A9010E94782569837A838B839C83ED810B
:10187000FE81A588B688C788D08CB101882777FDFE
:101880008095982F248D2F93238D2F93228D2F9326
:10189000218D2F9320E030E0A9010E9478250E943D
:1018A000272F20E030E048EC52E40E948C2E6B01A0
:1018B0007C0169817A818B819C810E94272F20E0A5
:1018C00030E048EC52E40E948C2E4B015C01C301D5
:1018D000B2010E94272F20E030E048EC52E40E9441
:1018E0008C2EAB01BC0195018401ED81FE818081CC
:1018F00091810E94BF170FB6F894DEBF0FBECDBF17
:1019000026960FB6F894DEBF0FBECDBFDF91CF9104
:101910001F910F91FF90EF90DF90CF90BF90AF900D
:101920009F908F907F906F905F904F903F902F90FF
:101930000895FC01818D928D0C941008CF93DF9354
:10194000EC018B859C850E94D10B898D9A8D0E941C
:101950001B08898D9A8DDF91CF910C94E007CF936E
:10196000DF93EC018D899E890E94C71089899A892D
:10197000DF91CF910C941001CF92DF92EF92FF9202
:10198000CF93DF93EC018D819E810E943C038823DD
:1019900099F1CFA0D8A4E9A4FAA48D819E810E94D8
:1019A0002A039B01AC01C701B6010E94852E81115B
:1019B00010C0CBA4DCA4EDA4FEA48D819E810E9466
:1019C00030039B01AC01C701B6010E94852E88231C
:1019D00099F08D819E810E942A036FA378A789A721
:1019E0009AA78D819E810E9430036BA77CA78DA74B
:1019F0009EA781E08FA701C01FA6DF91CF91FF9026
:101A0000EF90DF90CF9008950F931F9303ED1BE4A9
:101A100025E931E446EC5FEC65E372E4FC01858185
:101A200096810E94400420E030E040E85FE30E949D
:101A3000852E881F8827881F1F910F910895CF93A7
:101A4000DF93EC0181E0888340E06FEF70E08F81ED
:101A500098850E94480960EA7FE080E090E00E945B
:101A60009B2B8F819885DF91CF910C94BF090F93A9
:101A70001F93CF93DF93EC0103ED1BE425E931E4E1
:101A800046EC5FEC65E372E48D819E810E94240543
:101A9000AB01BC0189899A89DF91CF911F910F9188
:101AA0000C94A901CF93DF93EC0189899A890E9454
:101AB000B501AB01BC018D859E850E94C30A8D8551
:101AC0009E85DF91CF910C949F16CF92DF92EF927B
:101AD000FF920F931F93CF93DF938B01EA01FC01D9
:101AE000858596850E94C90A6B017C0120E030E063
:101AF000A9010E949130181694F4A701960160E0A4
:101B000070E08FE793E40E94BE2D0E94F42E6A30AD
:101B1000710514F46AE070E08FEF90E012C020E0ED
:101B200030E04FE753E4C701B6010E94BF2D0E9489
:101B3000F42ECB016A30710514F48AE090E06FEF67
:101B400070E0F8017183608399838883DF91CF917E
:101B50001F910F91FF90EF90DF90CF900895EF923B
:101B6000FF920F931F93CF93DF93EC017B018A01C8
:101B70008D819E810E943C038823A1F08FA588233C
:101B800019F0CE010E94370DCE010E94520DA8011E
:101B9000B701CE01DF91CF911F910F91FF90EF9090
:101BA0000C94650DDF91CF911F910F91FF90EF90F5
:101BB0000895FC01878190850C94E5080F931F938D
:101BC000CF93DF9300D000D0CDB7DEB78C010E9459
:101BD000AF0CC8010E94BC0CF80187A5882329F02E
:101BE000C8010E94040D81111DC0F80185899689E4
:101BF0000E943C11882329F01C821B821A821982C0
:101C000009C0AE014F5F5F4FBE016D5F7F4FC801DE
:101C10000E94AF0D49815A816B817C81C8010E946D
:101C2000D90D03C0C8010E941F0D0F900F900F9097
:101C30000F90DF91CF911F910F910895CF92DF9276
:101C4000EF92FF92CF93DF93EC018881811168C0FE
:101C50000E946C2BCF8CD8A0E9A0FAA09B01AC010C
:101C60002C193D094E095F0969017A0132E3C31657
:101C7000D104E104F10438F06F8F78A389A39AA30B
:101C8000CE010E94DE0D0E946C2B6B017C018F8DBA
:101C900098A1A9A1BAA1A7019601281B390B4A0B4B
:101CA0005B0B2531310541055105D0F58D819E81B4
:101CB0000E94EB028B8D9C8DAD8DBE8DA701960190
:101CC000281B390B4A0B5B0BDA01C901883E934094
:101CD000A105B10538F0CB8EDC8EED8EFE8ECE01E7
:101CE0000E949E0C8BA19CA1ADA1BEA1A701960153
:101CF000281B390B4A0B5B0BDA01C9018838934169
:101D0000A105B10568F0CBA2DCA2EDA2FEA2CE0136
:101D1000DF91CF91FF90EF90DF90CF900C94990CD2
:101D2000DF91CF91FF90EF90DF90CF900895CF9209
:101D3000DF92EF92FF920F931F93CF93DF93EC010B
:101D40007B018C819D818C010F5F1F4F8017910754
:101D500008F046C04A815B814017510750F509964B
:101D60004817590730F5C880D9809B838A83880F2C
:101D7000991F0E941E2B998388834C815D81F601F7
:101D800020E030E02417350789F0A881B981B90136
:101D9000660F771FA60FB71F109721F06081718122
:101DA0006D937C932F5F3F4F3296ECCFC6010E941C
:101DB000202B8C819D819C01220F331F801791075E
:101DC00090F4E881F981E20FF31F309729F0D701F1
:101DD0004D915C915183408301962E5F3F4FEECF32
:101DE0000817190710F41D830C83DF91CF911F9101
:101DF0000F91FF90EF90DF90CF9008954F925F92F8
:101E00006F927F928F929F92AF92BF92CF92DF920A
:101E1000EF92FF920F931F93CF93DF93CDB7DEB76F
:101E20002E970FB6F894DEBF0FBECDBF3C0126E063
:101E300040E855E260E070E08AE893E00E942322E7
:101E400064E872E08AE893E00E94852364E670E02B
:101E500080E090E00E949B2B86E190E00E941E2B88
:101E60008C0160E070E00E94DC00F301128B018BBA
:101E70004DED5DED65E870E4C8010E949D0183E1D0
:101E800090E00E941E2B8C010E94C211F301168B60
:101E9000058B8CE190E00E941E2B8C010E94A10218
:101EA000F3011683058346EC5FEC65E372E4F80109
:101EB000448B558B668B778B43ED5BE465E971E46E
:101EC000408F518F628F738F88E190E00E941E2BAC
:101ED0002C018FE38F9380E88F931F921F92812CA8
:101EE000912CE0E8AE2EEFE3BE2EF7E0CF2ED12C02
:101EF000A5E0EA2EF12C06E010E024E030E042E01C
:101F000050E063E070E0C2010E948408F301508653
:101F1000478285E490E00E941E2B4C01A12CB12C3D
:101F2000BFE8CB2EB2ECDB2EB5EFEB2EBDE3FB2EE4
:101F30000AE017ED23E23CE340E050E060E771E4A3
:101F40000E94770AF3019686858661E070E0C401FD
:101F50000E94861900E010E02FE733E440E050E0F3
:101F60006FE773ECF301858596850E94C01862E3E4
:101F700070E0F301858596850E9472188DE190E0EE
:101F80000E941E2B4C01F301658576850FE024E14C
:101F900045E10E94A40BF3019486838682E090E0E1
:101FA0000E941E2B8C010E949506F301128301836F
:101FB0001986188688E090E09B878A871D861C8694
:101FC00080E190E00E941E2B998788870F900F90E8
:101FD0000F900F90F30185899689892BB1F084E0E9
:101FE00090E00E941E2B8C01F301658976890E9486
:101FF0001113F301108F078B1A830983BE016F5FE2
:102000007F4FCE0108960E94970EF301858196813D
:10201000892BB1F084E090E00E941E2B8C01F3012B
:10202000658176810E948D06F301148303831A83F0
:102030000983BE016F5F7F4FCE0108960E94970E05
:10204000F30181899289892BB1F084E090E00E94AC
:102050001E2B8C01F301618972890E948B02F301AE
:10206000148B038B1A830983BE016F5F7F4FCE01F0
:1020700008960E94970EF30185859685892BB1F00D
:1020800084E090E00E941E2B8C01F301658576852B
:102090000E949C0BF301108B07871A830983BE01F2
:1020A0006F5F7F4FCE0108960E94970EF3018781E4
:1020B0009085892BB1F084E090E00E941E2B8C016A
:1020C000F301678170850E946F0AF301128701870F
:1020D0001A830983BE016F5F7F4FCE0108960E946D
:1020E000970E8C859D859E838D8308969C838B831C
:1020F000880F991F0E941E2B9A8389834D815E81D0
:1021000080E090E08417950799F0A885B9859C0137
:10211000220F331FA20FB31FE981FA81E20FF31FD1
:10212000309721F02D913C91318320830196EACFA5
:102130008BE090E00E941E2B8C01F3016181728183
:10214000AE014F5F5F4F0E943307F301128F018F83
:1021500089819A810E94202B888599850E94202B55
:102160002E960FB6F894DEBF0FBECDBFDF91CF9194
:102170001F910F91FF90EF90DF90CF90BF90AF90A5
:102180009F908F907F906F905F904F9008950F93E6
:102190001F93CF93DF93EC01288939898A859B852A
:1021A0000196B9010E942D2D8C019B878A87821789
:1021B000930720F08DEB91E00E942621000F111F64
:1021C000EC85FD85E00FF11F80819181DF91CF913A
:1021D0001F910F910C946213FC01808191810C94EA
:1021E0009613FC01828193810C949613FC018481E7
:1021F00095810C949613FC01868197810C9496131B
:10220000FC01808591850C9496130E94EC1021E0CE
:102210006E3171058105910508F020E0822F089547
:102220000E94F11021E06E3171058105910508F0E1
:1022300020E0822F08950E94F61021E06E31710592
:102240008105910508F020E0822F08950E94FB107F
:1022500021E06E3171058105910508F020E0822FA3
:1022600008950E94001121E06E31710581059105EC
:1022700008F020E0822F0895CF93DF93EC010E94B5
:102280000511811114C0CE010E94101181110FC0DF
:10229000CE010E941B1181110AC0CE010E9426119D
:1022A000811105C0CE01DF91CF910C94311181E0F5
:1022B000DF91CF910895CF92DF92EF92FF920F932B
:1022C0001F93CF93DF93EC017B018C819D818C0167
:1022D0000F5F1F4F8017910708F046C04A815B814E
:1022E0004017510750F509964817590730F5C8802F
:1022F000D9809B838A83880F991F0E941E2B998304
:1023000088834C815D81F60120E030E02417350799
:1023100089F0A881B981B901660F771FA60FB71F91
:10232000109721F0608171816D937C932F5F3F4FF7
:102330003296ECCFC6010E94202B8C819D819C019E
:10234000220F331F8017910790F4E881F981E20F83
:10235000F31F309729F0D7014D915C915183408351
:1023600001962E5F3F4FEECF0817190710F41D831B
:102370000C83DF91CF911F910F91FF90EF90DF9031
:10238000CF900895EF92FF920F931F93CF93DF9317
:10239000EC018C01045F1F4F1D861C8688E090E0D5
:1023A0009F878E87198A188A80E190E00E941E2BF1
:1023B0009D878C8786E090E00E941E2B7C014CE07C
:1023C00050E06CE070E00E941913F982E88286E028
:1023D00090E00E941E2B7C014EE050E06EE070E029
:1023E0000E941913FB82EA8286E090E00E941E2B75
:1023F0007C014DE050E06DE070E00E941913FD8219
:10240000EC8286E090E00E941E2B7C0148E050E0C8
:1024100068E070E00E941913FF82EE8286E090E08F
:102420000E941E2B7C0149E050E069E070E00E94B0
:102430001913F986E886BE016C5F7F4FC8010E94C0
:102440005B11BE016A5F7F4FC8010E945B11BE0134
:10245000C8010E945B11BE01685F7F4FC8010E94E6
:102460005B11BE016E5F7F4FC8010E945B111B862E
:102470001A86DF91CF911F910F91FF90EF900895F1
:1024800026E531E0FC0131832083089526E531E023
:10249000FC01318320830C94202BCF93DF93EC013C
:1024A00060E972E08AE893E00E9468238A819B8158
:1024B0000E94EC10AB01BC012AE030E08AE893E016
:1024C0000E945A2465E972E08AE893E00E9468233A
:1024D0008A819B810E94F610AB01BC012AE030E0AA
:1024E0008AE893E00E945A246EE972E08AE893E059
:1024F0000E9468238A819B810E94F110AB01BC017C
:102500002AE030E08AE893E00E945A2467EA72E009
:102510008AE893E00E9468238A819B810E940011CF
:10252000AB01BC012AE030E08AE893E00E945A2423
:102530006FEA72E08AE893E00E9468238A819B81B7
:102540000E94FB10AB01BC012AE030E08AE893E076
:10255000DF91CF910C946724CF92DF92EF92FF929C
:102560000F931F93CF93DF936C01EB01FC018281EA
:1025700093810E94F6100E94252F8B019C01E12C73
:10258000F12C40E050E061E070E0CE010E940307D2
:10259000F601828193810E94EC100E94252F8B010D
:1025A0009C0140E050E067E070E0CE010E9403072C
:1025B000F601828193810E94F1100E94252F8B01E8
:1025C0009C0140E050E06DE070E0CE010E94030706
:1025D000F601828193810E9400110E94252F8B01B8
:1025E0009C0141E050E061E070E0CE010E940307F1
:1025F000F601828193810E94FB100E94252F8B019E
:102600009C0141E050E06DE070E0CE010E940307C4
:10261000DF91CF911F910F91FF90EF90DF90CF90BE
:1026200008952BEB32E0FC013183208373836283B6
:102630000895CF92DF92FF920F931F93CF93DF9372
:102640001F92CDB7DEB76C01F42E82E190E0698372
:102650000E941E2B8C012CE330E06981462F6F2DE8
:102660000E946E15F601158304834FE352E46FE078
:1026700070E040835183628373830F90DF91CF9129
:102680001F910F91FF90DF90CF900895FC018481FE
:1026900095810E946316AC0160E070E0DB01CA0125
:1026A0000197A109B109CC97A105B10528F03FE335
:1026B00022E48FE090E003C0342F252FCB01632F5D
:1026C000722F0895CF92DF92EF92FF92CF93DF9314
:1026D000EC010E946C2B6B017C01CE010E94461321
:1026E000AB01BC01488359836A837B832AE030E0D5
:1026F0008AE893E00E945A2463EC72E08AE893E04F
:102700000E9468230E946C2BAB01BC014C195D092F
:102710006E097F092AE030E08AE893E0DF91CF91EB
:10272000FF90EF90DF90CF900C946724FC016081C4
:1027300071818281938108952EE1FC0120830895A7
:102740000F93062F22E046E060E0FC0180810E94AA
:1027500028150F9108950F93062F23E044E060E0C1
:10276000FC0180810E9428150F910895462F429503
:10277000440F407E61E0FC0180810C9461141F9342
:10278000CF93DF93EC01162F462F62E088810E94E1
:1027900061141F83DF91CF911F910895CF93DF9331
:1027A000EC0140E760E088810E94611461E0CE01A5
:1027B0000E94B61361E0CE01DF91CF910C94BF135C
:1027C000AF92BF92CF92DF92EF92FF920F931F933F
:1027D000CF93DF93EC017B015A01690100910A015B
:1027E00010910B019C012F5F3F4F46E063E0888111
:1027F0000E9471148F81813029F441E062E0888168
:102800000E946114898190E0982F88272A81822B69
:10281000F701918380838D8190E0982F88272E8106
:10282000822BF501918380838B8190E0982F8827FC
:102830002C81822BF60191838083DF91CF911F91B0
:102840000F91FF90EF90DF90CF90BF90AF900895E1
:10285000EF92FF920F931F93CF93DF9300D0CDB7EA
:10286000DEB7062F142F682F8BE694E029833A8376
:102870000E94EF28602F8BE694E00E949628298121
:10288000022FE22E3A81F32E8E2D801B811740F409
:10289000F70161917F018BE694E00E949628F4CFC6
:1028A0008BE694E00E940C2991E0811190E0892F41
:1028B0000F900F90DF91CF911F910F91FF90EF90AC
:1028C0000895CF93DF931F92CDB7DEB749839E0162
:1028D0002F5F3F4F41E00E9428140F90DF91CF916E
:1028E00008953F924F925F926F927F928F929F9244
:1028F000AF92BF92CF92DF92EF92FF920F931F930E
:10290000CF93DF9300D000D000D0CDB7DEB7682ED4
:10291000562E742E3A8329830E946C2B6B017C0106
:10292000312C412C872D90E09C838B834801A12C76
:10293000B12C3714B0F5662D8BE694E00E94EF2899
:10294000652D8BE694E00E9496288BE694E00E9429
:102950000C29662D8BE694E00E94EF284B815C8168
:10296000431951094132510514F040E250E0662DFF
:102970008BE694E00E94EC288BE694E00E943E28CF
:10298000892B59F10115110579F10E946C2B6C19F5
:102990007D098E099F09681579058A059B0520F137
:1029A0001CC00115110589F10E946C2B6C197D0961
:1029B0008E099F0920E030E06017710782079307B6
:1029C00020F1872D90E0242D332727FD30952817FF
:1029D0003907DCF444244A9418C0872D90E29715F7
:1029E00008F480E2380EA5CFE981FA81E40DF11DEB
:1029F00047FCFA95FE83ED838BE694E00E9446281F
:102A0000ED81FE8180834394B7CF842D26960FB647
:102A1000F894DEBF0FBECDBFDF91CF911F910F9114
:102A2000FF90EF90DF90CF90BF90AF909F908F90EE
:102A30007F906F905F904F903F9008950F931F93FA
:102A400089019A0141E00E9471141F910F9108952C
:102A5000DF92EF92FF920F931F93CF93DF931F921A
:102A6000CDB7DEB7F82EE62ED42E122F20910A0114
:102A700030910B01AE014F5F5F4F0E941E158823FE
:102A800019F14D2D50E0411B51094F5F5F4FE1E0BF
:102A9000F0E002C0EE0FFF1F1A95E2F73197042E07
:102AA00001C0EE0F0A94EAF701C0000F4A95EAF759
:102AB0004E2F409589814823E0234E2B49836E2D6C
:102AC0008F2D0E94611401C080E00F90DF91CF91A3
:102AD0001F910F91FF90EF90DF900895CF93DF93B8
:102AE000DC0170E0FB01E65EFE4FE4911496EC938E
:102AF0001497842F90E0FC01E65EFE4FE49115965A
:102B0000EC931597625D7E4FFB01C491D0E0CC0F32
:102B1000DD1FC45BDE4FFE014591549117965C9317
:102B20004E931697FC01E25DFE4F849190E0880F72
:102B3000991F8E5B9E4FFC01459154911B965C93AF
:102B40004E931A97FB016491E62FF0E0EE0FFF1F02
:102B5000EA5AFE4F8591949119969C938E931897FB
:102B6000C901253FF1E03F0714F084EF91E049E30C
:102B7000489F9001499F300D1124245E3F4F1D96C0
:102B80003C932E931C97DF91CF9108950F931F9341
:102B9000CF93DF93EC01E885F98580819C81892BB7
:102BA0008083EE81FF8190818C8180958923808351
:102BB00084E090E00E94C32BEE81FF8180819C81A4
:102BC000892B80838AE090E00E94C32BEE81FF81F5
:102BD00090818C81809589238083E885F985908117
:102BE0008C818095892380830E94782B605B794B50
:102BF0008F4F9F4F6E877F87888B998BEA85FB85E8
:102C000080819D81892359F00E94782B0E851F8534
:102C100028893989061717072807390778F7EA85B9
:102C2000FB8580819D81892369F40E94782B0E8524
:102C30001F8528893989061717072807390778F764
:102C400080E00DC00E94782B2C853D85620F731F9C
:102C5000811D911D6E877F87888B998B81E0DF9125
:102C6000CF911F910F9108950F931F93CF93DF93EF
:102C7000EC010E94C615882389F0EA85FB858081D6
:102C80009D81892371F00E94782B0E851F852889EC
:102C90003989061717072807390778F720E030E049
:102CA0000CC00E94782B2C853D85255031094E851E
:102CB0005F85241B350B260F371FC901DF91CF918C
:102CC0001F910F9108950E94341631E020E0009783
:102CD00009F430E04C9669E370E00E942D2D832FBB
:102CE000922F8617970708F4CB0108951F920F9231
:102CF0000FB60F9211242F933F934F935F936F93CF
:102D00007F938F939F93AF93BF93EF93FF93E09144
:102D10005803F0915903309709F00995FF91EF910D
:102D2000BF91AF919F918F917F916F915F914F91E3
:102D30003F912F910F900FBE0F901F9018952F92DB
:102D40003F924F925F926F927F928F929F92AF923B
:102D5000BF92CF92DF92EF92FF920F931F93CF9388
:102D6000DF93CDB7DEB72B970FB6F894DEBF0FBE5B
:102D7000CDBF9B878A87DC01D896BC91B983B111FE
:102D800002C01982E2C00E946C2B6A837B838C8311
:102D90009D83EA85FB8580A191A1A2A1B3A14A816F
:102DA0005B816C817D81481B590B6A0B7B0B84A571
:102DB00095A5A6A5B7A5481759076A077B0708F385
:102DC000028CF38DE02D80809180A280B380AA8553
:102DD000BB855E96ED91FC915F97A50194016081A2
:102DE0007181828193810E94BE2D2B013C01EA8575
:102DF000FB8520893189428953890E949C30AA85AC
:102E0000BB8594962D913D914D915C9197970E9431
:102E1000BF2D6B017C01EA85FB8564A375A386A3A6
:102E200097A324A835A806A917A99101A8010E9473
:102E3000913018161CF4C101D80118C0AA85BB85B1
:102E4000D0968D919D910D90BC91A02D8E839F83E6
:102E5000A887B9879C01AD01C701B6010E94852EE4
:102E600087FF0AC08E819F81A885B985EA85FB8589
:102E700084A395A3A6A3B7A3AA85BB851C962D9171
:102E80003D914D915C911F97C301B2010E949C300E
:102E9000EA85FB8524A135A146A157A10E94BF2D3B
:102EA0006B017C01AA85BB8598962D913D914D9132
:102EB0005C919B97C501B4010E94BE2DEA85FB85FC
:102EC00024893589468957890E949C309B01AC0131
:102ED000C701B6010E94BE2D6B017C019101A801C2
:102EE0000E9491301816BCF0AA85BB85D0962C9014
:102EF000D097D1963C90D197D2960C91D297D396F9
:102F00001C919101A801B601C7010E94852E87FD81
:102F100002C016018701AA85BB855C96ED91FC91E4
:102F20005D97C101D80180839183A283B383EA8531
:102F3000FB8580A691A6A2A6B3A68A819B81AC81BF
:102F4000BD8180A391A3A2A3B3A389812B960FB6C1
:102F5000F894DEBF0FBECDBFDF91CF911F910F91CF
:102F6000FF90EF90DF90CF90BF90AF909F908F90A9
:102F70007F906F905F904F903F902F9008952F9289
:102F80003F924F925F926F927F928F929F92AF92F9
:102F9000BF92CF92DF92EF92FF920F931F93CF9346
:102FA000DF9300D000D0CDB7DEB71C012A013B0172
:102FB0004801590120E030E0A901C301B2010E949B
:102FC000852E87FD78C020E030E0A901C501B4015D
:102FD0000E94852E87FD6FC020E030E0A901C70167
:102FE000B6010E94852E87FD66C0F10140825182A4
:102FF0006282738284829582A682B782C086D186DD
:10300000E286F38664A575A586A597A50E94252F5F
:1030100020E030E04AE754E40E948C2E69837A83F2
:103020008B839C83F10144865586668677869B0157
:10303000AC01C501B4010E949C304B015C01F1015F
:10304000608B718B828B938B29813A814B815C8160
:10305000C701B6010E948C2E6B017C01F101648BCB
:10306000758B868B978B808D918D019721F5A301B0
:10307000920160E070E0CB010E94BE2DF1016487F7
:10308000758786879787A501940160E070E0CB0182
:103090000E94BE2DF101608B718B828B938BA701F7
:1030A000960160E070E0CB010E94BE2DF101648BBF
:1030B000758B868B978B0F900F900F900F90DF91F1
:1030C000CF911F910F91FF90EF90DF90CF90BF9025
:1030D000AF909F908F907F906F905F904F903F90B8
:1030E0002F9008958F929F92AF92BF92CF92DF92CE
:1030F000EF92FF92CF93DF93EC0116161706ACF513
:103100006B01EE24D7FCE094FE2CC701B6010E94AF
:10311000272F4B015C016CA57DA58EA59FA50E9464
:10312000252F9B01AC01C501B4010E948C2E4B01DF
:103130005C019B01AC01688979898A899B890E941D
:103140009C30688B798B8A8B9B8BA50194016C8951
:103150007D898E899F890E948C2E6C8B7D8B8E8BB6
:103160009F8BCCA6DDA6EEA6FFA6DF91CF91FF90A8
:10317000EF90DF90CF90BF90AF909F908F90089589
:103180002F923F924F925F926F927F928F929F9277
:10319000AF92BF92CF92DF92EF92FF920F931F9365
:1031A000CF93DF93EC016A017B0148015901A9012A
:1031B0009801C701B6010E94913087FF4EC0C8AA8E
:1031C000D9AAEAAAFBAA8CAA9DAAAEAABFAA88ADD0
:1031D000882309F442C02C8C3D8CF1014080518041
:1031E00062807380A5019401C301B2010E949130F5
:1031F000181634F4F10180829182A282B3820DC04C
:10320000A7019601C301B2010E94852E87FF05C068
:10321000F101C082D182E282F3828CA09DA0AEA097
:10322000BFA0CCA8DDA8EEA8FFA8A7019601C50104
:10323000B4010E949130181664F0C8A8D9A8EAA871
:10324000FBA8A7019601C501B4010E94852E87FF46
:1032500004C0CCA2DDA2EEA2FFA2DF91CF911F910C
:103260000F91FF90EF90DF90CF90BF90AF909F9025
:103270008F907F906F905F904F903F902F90089528
:103280008F929F92AF92BF92CF92DF92EF92FF9276
:10329000CF93DF93EC01EC8DFD8DC080D180E28077
:1032A000F380CCA2DDA2EEA2FFA2EA8DFB8D80818D
:1032B0009181A281B38188A799A7AAA7BBA78CA84F
:1032C0009DA8AEA8BFA8A5019401C701B6010E94A0
:1032D0009130181664F088A899A8AAA8BBA8A501DF
:1032E0009401C701B6010E94852E87FF04C08CA2FD
:1032F0009DA2AEA2BFA2DF91CF91FF90EF90DF9091
:10330000CF90BF90AF909F908F9008951F93CF93D1
:10331000DF93EC0111E06130710509F010E088AD38
:1033200091E08927181303C0CE010E94401918AFFD
:10333000DF91CF911F9108950F931F93CF93DF9348
:10334000EC018B0188AD882361F1888D998D681718
:10335000790739F12C853D854E855F8560E070E009
:10336000CB010E94BE2D6C877D878E879F87288921
:1033700039894A895B8960E070E0CB010E94BE2DEB
:10338000688B798B8A8B9B8B2C893D894E895F89D1
:1033900060E070E0CB010E94BE2D6C8B7D8B8E8B2C
:1033A0009F8B198F088FDF91CF911F910F910895F7
:1033B0004F925F926F927F928F929F92AF92BF9245
:1033C000CF92DF92EF92FF920F931F93CF93DF93F1
:1033D00000D000D0CDB7DEB74C0127013801A9825B
:1033E000BA82CB82DC82FC01558F448F738F628F4F
:1033F000378F268F10AE10AA11AA12AA13AA80E046
:1034000090E0AFE7B3E484AB95ABA6ABB7AB84E693
:1034100090E0A0E0B0E084A795A7A6A7B7A76B8D22
:103420007C8DC4010E949C19CF88D88CE98CFA8CC1
:1034300009811A812B813C81B301A201C4010E9440
:10344000BF170E946C2BF40144A455A466A477A472
:10345000641975098609970960A371A382A393A3D0
:103460000F900F900F900F90DF91CF911F910F91C0
:10347000FF90EF90DF90CF90BF90AF909F908F9094
:103480007F906F905F904F900895FC0160817181F3
:10349000828193810895FC01648175818681978181
:1034A0000895FC01608571858285938508950F9349
:1034B0001F93FC010FEF1FEF9801008311832283FC
:1034C000338310861186128613864FEF59EC6AE912
:1034D0007BE3408B518B628B738B408F518F628F5C
:1034E000738F40A351A362A373A340A751A762A700
:1034F00073A740AB51AB62AB73AB00AF11AF22AF60
:1035000033AFDC01A05CBF4F8FEF90E011969C932E
:103510008E9314960D931D932D933C9313971896A9
:103520000D931D932D933C93139718961C9211960F
:103530001C92509682E08C9311961C9211961C92CC
:1035400011961C9211961D921D921D921C9213971A
:10355000149611961C921E9212961D921C92EA5A73
:10356000FF4F10821F910F9108952FEB260F862F8A
:10357000992787FD9095263010F4C79708956156D6
:10358000663018F4875591090895C09708950F93F0
:103590001F93FB0160E070E0CB01019120ED200F53
:1035A0002A30A0F4AAE0B0E09B01AC010E949C2D5F
:1035B000112707FD1095212F312F600F711F821FDA
:1035C000931F6053710981099109E7CF1F910F91F2
:1035D00008950F931F93CF93FC01EA5AFF4FC1E068
:1035E00020812D3219F0C0E08F0103C08C01095AEF
:1035F0001F4FB8010E94C71A9B01AC01A4E6B0E0BE
:103600000E949C2DF801DF01219130ED320F3A30FC
:10361000D0F32E3269F511962C91119730ED320FBF
:103620003A3030F5332727FD3095205331094AE0F1
:10363000429F8001439F100D1124222717FD2095E2
:10364000322F600F711F821F931F12960C9120ED75
:10365000200F2A3068F4112707FD10950053110937
:10366000222717FD2095322F600F711F821F931F95
:10367000CC2339F090958095709561957F4F8F4F51
:103680009F4FCF911F910F9108954F925F926F922C
:103690007F928F929F92AF92BF92CF92DF92EF92E2
:1036A000FF92CF93DF93EC01CA5ADF4FBE010E9415
:1036B000C71A2B013C0124E630E040E050E00E94B4
:1036C000552D9B01AC0160EA76E881E090E00E9414
:1036D0001D2D6B017C01FE01819190ED980F9A30B8
:1036E000D8F38E3219F5EF0180E1882E87E2982E0B
:1036F000A12CB12CA99180ED8A0F8A30B8F4BB2798
:10370000A7FDB095D097A50194010E94A72DC60EE4
:10371000D71EE81EF91EC501B4012AE030E040E0E2
:1037200050E00E94552D49015A01E4CFC701B6016E
:103730006D5F7F4F8F4F9F4F26E030E040E050E0BD
:103740000E94552D69017A01C301B20124E630E0DF
:1037500040E050E00E94552D60E472E48FE090E07C
:103760000E941D2DC60ED71EE81EF91EC701B60108
:10377000DF91CF91FF90EF90DF90CF90BF90AF900F
:103780009F908F907F906F905F904F900895DB0196
:10379000FA018D91882319F091918917D1F3992716
:1037A00087FD90950895CF92DF92EF92FF921F933D
:1037B000CF93DF93EC01FC01EB5AFF4F10811123F3
:1037C00009F4A9C0319660810E94B51A182FFE0134
:1037D000E95AFF4F6081CE010E94B51A40E1149F63
:1037E000800D1124FE01EC5AFF4F908189138AC08D
:1037F00074961081112309F458C135968081918106
:10380000019691838083B59780819181A281B38154
:10381000349780839183A283B3833C968081918186
:10382000A281B381349780839183A283B3837996F5
:1038300080818823A1F1813009F037C18C819D817D
:10384000AE81BF8188839983AA83BB838C859D8544
:10385000AE85BF8588879987AA87BB878C899D8914
:10386000AE89BF89888B998BAA8BBB8B8C8D9D8DE4
:10387000AE8DBF8D888F998FAA8FBB8F8CA59DA58C
:10388000AEA5BFA588A799A7AAA7BBA78CA99DA9E4
:10389000AEA9BFA988AB99ABAAABBBAB06C18CA143
:1038A0009DA1AEA1BFA188A399A3AAA3BBA38C810C
:1038B0009D81AE81BF8188839983AA83BB838C89D4
:1038C0009D89AE89BF89888B998BAA8BBB8B8C8D88
:1038D0009D8DAE8DBF8D888F998FAA8FBB8FFE0176
:1038E000E05CFF4FDE01AE5BBF4F8D919C919183F9
:1038F00080838CAD9DADAEADBFAD88AF99AFAAAFA3
:10390000BBAFD3C0C159DF4F88819981019699839C
:10391000888310E0CAC0FC01EA59FF4F30818B59FF
:103920009F4F7C0131111DC06E0196E5C90ED11C5F
:1039300045EC52E0B601CE010E94C71B892B11F461
:1039400081E00CC04BEC52E0B601CE010E94C71BD7
:10395000892B19F4F7011082A8C082E0D7018C935B
:10396000A4C0DC01EC91E23009F49FC0CE018A5A78
:103970009F4FDC012C91222309F497C0B0E2EB9F0A
:10398000F0011124E32B3197E932F10508F08DC0E5
:10399000EC5CFF4F0C94962DCE010E94E91A6C83CB
:1039A0007D838E839F830E946C2BC85BDF4F12C088
:1039B000C859DF4F81E0213409F05DC05DC0CE0100
:1039C0000E94451B6C8B7D8B8E8B9F8B0E946C2B7A
:1039D000C05BDF4F688379838A839B8366C023350E
:1039E00009F063C08C899D89AE89BF89B095A09587
:1039F000909581959F4FAF4FBF4F8C8B9D8BAE8B1A
:103A0000BF8B53C0CE010E94451B6C8F7D8F8E8F64
:103A10009F8F4BC0273509F048C08C8D9D8DAE8D92
:103A2000BF8DB095A095909581959F4FAF4FBF4F9B
:103A30008C8F9D8FAE8FBF8F38C0CE010E94E91A48
:103A40006CA77DA78EA79FA730C0CE010E94E91A60
:103A50006CAB7DAB8EAB9FAB28C0BC01CE010E948E
:103A6000C71A6C877D878E879F871FC0C859DF4F15
:103A700081E021330CF480E0888317C00E949232E9
:103A8000CE5BDF4F9927998388830FC0CE010E94B8
:103A9000E91A6CAF7DAF8EAF9FAF07C0CE010E9419
:103AA000E91A6CA37DA38EA39FA3812FDF91CF91F1
:103AB0001F91FF90EF90DF90CF900895CF92DF920B
:103AC000EF92FF920F931F93CF93DF931F92CDB787
:103AD000DEB76C01262FFC01E759FF4F4081518171
:103AE000628173814F5F5F4F6F4F7F4F4083518380
:103AF000628373838C0109591F4F8B5A9F4F7C013E
:103B0000243281F12CF42A3069F02D30E9F50AC015
:103B10002A3241F02C32C1F5F601EC5AFF4F808178
:103B200082278083F80180818F3060F4F601E80FEE
:103B3000F11DEA5AFF4F1082C60129830E94D31B50
:103B4000298101C080E0F601EA59FF4F90819F5F13
:103B50009083F801108291E02A3209F090E0F70199
:103B600090832AC0F8011082F601EA59FF4F1082B3
:103B700072971082719682E08083F7011082F601BD
:103B8000E859FF4F108217C0F80180818E3048F449
:103B900091E0980F9083F601E80FF11DEA5AFF4F6C
:103BA0002083F7018081811106C0F601EC5AFF4F96
:103BB00080818227808380E00F90DF91CF911F91D9
:103BC0000F91FF90EF90DF90CF900895CF92DF920A
:103BD000EF92FF920F931F93CF93DF93E90161154B
:103BE000710551F0FC01C088D188E288F388FB019F
:103BF000C082D182E282F3824115510551F0FC016D
:103C0000C08CD18CE28CF38CFA01C082D182E2822A
:103C1000F382209701F18C01045B1F4FF801808132
:103C20009181A281B3818F3F9F4FAF4FBF4F61F012
:103C30000E946C2BF8010081118122813381601B6D
:103C4000710B820B930B03C06FEF7FEFCB01688387
:103C500079838A839B83DF91CF911F910F91FF908E
:103C6000EF90DF90CF900895AF92BF92CF92DF9206
:103C7000EF92FF920F931F93CF93DF93CDB7DEB7F1
:103C800028970FB6F894DEBF0FBECDBF5B018A0147
:103C9000AE014F5F5F4FBE016B5F7F4F0E94E61D1D
:103CA000CD80DE80EF80F8848FEFC81689ECD806CF
:103CB0008AE9E8068BE3F80659F0C701B6010E94CD
:103CC000272F20E034E244E759E40E948C2E04C000
:103CD00060E070E08AE794E4F50160837183828399
:103CE0009383FFEFCF16F9ECDF06FAE9EF06FBE36B
:103CF000FF0669F069817A818B819C810E94272F60
:103D000020E034E244E759E40E948C2E04C060E0D5
:103D100070E08AE794E4F80160837183828393837F
:103D200028960FB6F894DEBF0FBECDBFDF91CF91BE
:103D30001F910F91FF90EF90DF90CF90BF90AF90C9
:103D40000895FC0160A171A182A193A16F3FF9ECDC
:103D50007F07FAE98F07FBE39F0749F00E94272FAF
:103D600020E030E048EC52E40E948C2E089560E0A0
:103D700074E284E799E40895FC0112828FEF818355
:103D8000108213820895FC018381882331F0611130
:103D900003C08FEF8183089511820895CF93DF933D
:103DA000EC016A838BE694E00E94D52841E06A81A9
:103DB0008BE694E00E94EC2891E0811101C090E034
:103DC0009B838BE694E00E94462888838B8190E059
:103DD000DF91CF910895CF93DF93EC018B818823FE
:103DE000A9F089818095862388836A818BE694E097
:103DF0000E94EF2868818BE694E00E9496288BE66B
:103E000094E00E940C29282F30E002C020E030E02E
:103E100081E090E0232B11F080E090E0DF91CF91E2
:103E2000089508950895DC01ED91FC910284F385D5
:103E3000E02D41E0099581E090E00895FC011382B6
:103E400012822FEF32E0318320830895DC01ED915F
:103E5000FC910084F185E02D6FEF0994DC01ED9178
:103E6000FC910284F385E02D40E0099461E00E941A
:103E70002E1F80ED97E00C94C32B62E00E942E1F52
:103E800080ED97E00C94C32BCF93DF93CDB7DEB7D3
:103E900028970FB6F894DEBF0FBECDBF1D8220E479
:103EA0002E8334E13F8334E5388719822A8320E169
:103EB0002B8320E52C83FC012781421710F04FEF64
:103EC000420FFC01308550E0FE01E40FF51F303158
:103ED00021F4243011F4218101C02581260F2068AE
:103EE000622F28960FB6F894DEBF0FBECDBFDF91CC
:103EF000CF910C942E1FFC016581262F2460258311
:103F00006C600C942E1FCF93DF93EC01423018F0BD
:103F10008C8188608C834F836887222329F041300D
:103F200019F48C8184608C8364E670E080E090E01A
:103F30000E949B2B6C8164FD31C0E881F981028471
:103F4000F385E02D42E063E0CE01099584E991E13B
:103F50000E94C32BE881F9810284F385E02D42E0C1
:103F600063E0CE01099584E991E10E94C32BE881C9
:103F7000F9810284F385E02D42E063E0CE010995EA
:103F800086E990E00E94C32BE881F9810284F385E1
:103F9000E02D42E062E0CE01099516C06062CE01DC
:103FA0000E942E1F84E991E10E94C32B6C81606204
:103FB000CE010E942E1F86E990E00E94C32B6C81E7
:103FC0006062CE010E942E1F6C816062CE010E9451
:103FD0002E1F84E08D83CE010E947B1FCE010E94A4
:103FE000361F82E08E8366E0CE010E942E1FCE0136
:103FF000DF91CF910C94261F21E001C0220F6A951A
:10400000EAF7DC011C962C931C971A965C934E934E
:104010001997ED91FC910084F185E02D60E0099401
:10402000FC012485222399F081859285009719F45B
:10403000611105C006C0019721F4611102C02587F6
:1040400001C015866585CF010E960C94EB1E089570
:104050000F931F93CF93DF93EC018C01025F1F4FEF
:104060006B85C8010E94CE1E019761F461E0C80112
:104070000E94C31E1C8260E0C8010E94EB1E81E00A
:1040800090E002C080E090E0DF91CF911F910F910E
:1040900008958F92AF92CF92EF920F93CF93DF93C9
:1040A000CDB7DEB7FC0163871486158612861186AC
:1040B00081E0982F01C0990F4A95EAF7928B982FCB
:1040C00001C0990F2A95EAF7938B982F01C0990F99
:1040D0000A95EAF7948B982F01C0990FEA94EAF7B2
:1040E000958B982F01C0990FCA94EAF7968B982F59
:1040F00001C0990FAA94EAF7978B01C0880F8A94A0
:10410000EAF7808FDF91CF910F91EF90CF90AF9032
:104110008F9008956F927F928F92AF92CF92EF928D
:104120000F93CF93DF9300D01F92CDB7DEB73C0142
:104130002B834A8369830E941E1F8FE093E0F30163
:1041400091838083C3010E960E94BC1E2B814A81FD
:104150006981C3010E9449200F900F900F90DF9159
:10416000CF910F91EF90CF90AF908F907F906F9005
:104170000895FF920F931F93CF93DF93EC01F62ED8
:104180008C01025F1F4F6A896F29C8010E94EB1ED4
:104190006A8960956F21C801DF91CF911F910F91BE
:1041A000FF900C94EB1E20E030E050E060FF05C073
:1041B000FC01E20FF31F7589572B66952F5F3F4F68
:1041C0002430310599F7413011F4FC014489FC0198
:1041D0006585652B642B0C94B9200F931F93CF93A7
:1041E000DF93EC01142F062F0F70423011F440E0E2
:1041F0000AC070E084E0759567958A95E1F7CE0175
:104200000E94D320412F602FCE01DF91CF911F91CB
:104210000F910C94D3200F931F93CF93DF9300D073
:104220001F92CDB7DEB78C012B834A8369830E942E
:1042300028202B814A816981C8010F900F900F902F
:10424000DF91CF911F910F910C94831F0E948D32AB
:1042500008958AE593E00C94FE0E8AE593E00C94B1
:104260001E0E0E94CD2B0E9428210E942921CDE6FE
:10427000D1E20E942D212097E1F30E946D21F9CF18
:10428000FC01818D228D90E0805C9F4F821B910903
:104290008F7399270895FC01918D828D981731F0C5
:1042A000828DE80FF11D858D90E008958FEF9FEFCF
:1042B0000895FC01918D828D981761F0828DDF0148
:1042C000A80FB11D5D968C91928D9F5F9F73928F09
:1042D00090E008958FEF9FEF08958DED92E2892B86
:1042E00049F080E090E0892B29F00E94DD228111C5
:1042F0000C9400000895FC01848DDF01A80FB11D0E
:10430000A35ABF4F2C91848D90E001968F7399270B
:10431000848FA689B7892C93A089B1898C918064F8
:104320008C93938D848D981306C00288F389E02DB9
:1043300080818F7D80830895CF93DF93EC01888DFA
:104340008823C9F0EA89FB89808185FD05C0A88999
:10435000B9898C9186FD0FC00FB607FCF5CF80811F
:1043600085FFF2CFA889B9898C9185FFEDCFCE0169
:104370000E947B21E7CFDF91CF910895CF92DF920A
:10438000FF920F931F93CF93DF931F92CDB7DEB7AA
:104390006C01DC015B969C915B975C968C915C97C1
:1043A000981307C05096ED91FC915197808185FD3F
:1043B00032C0F601038D10E00F5F1F4F0F731127FE
:1043C000F02EF601848DF81211C00FB607FCF9CF5C
:1043D000D6015096ED91FC915197808185FFF1CFE8
:1043E000C60169830E947B216981EBCF838DE80F31
:1043F000F11DE35AFF4F6083D6015B960C935B97E8
:104400005296ED91FC91539780818062808381E088
:1044100058968C930DC0D6015696ED91FC91579706
:1044200060835096ED91FC915197808180648083E8
:1044300081E090E00F90DF91CF911F910F91FF905D
:10444000DF90CF900895BF92CF92DF92EF92FF92CC
:10445000CF93DF93EC016A017B01B22EE889F989E1
:1044600082E08083411581EE580761057105A1F056
:1044700060E079E08DE390E0A70196010E94552D60
:10448000215031094109510956954795379527958E
:10449000211580E1380798F0E889F989108260E8F1
:1044A00074E88EE190E0A70196010E94552D2150FD
:1044B0003109410951095695479537952795EC855E
:1044C000FD853083EE85FF852083188EEC89FD897C
:1044D000B082EA89FB89808180618083EA89FB89D7
:1044E000808188608083EA89FB89808180688083FD
:1044F000EA89FB8980818F7D8083DF91CF91FF9056
:10450000EF90DF90CF90BF9008951F920F920FB65B
:104510000F9211242F938F939F93EF93FF93E0912A
:104520009A03F0919B038081E091A003F091A10395
:1045300082FD12C090818091A3038F5F8F732091C1
:10454000A403821751F0E091A303F0E0E657FC4F7B
:10455000958F8093A30301C08081FF91EF919F917C
:104560008F912F910F900FBE0F901F9018951F9253
:104570000F920FB60F9211242F933F934F935F9397
:104580006F937F938F939F93AF93BF93EF93FF931B
:104590008AE893E00E947B21FF91EF91BF91AF9158
:1045A0009F918F917F916F915F914F913F912F914B
:1045B0000F900FBE0F901F9018958AE893E00E940D
:1045C000402121E0892B09F420E0822F08951092E8
:1045D0008D0310928C0388EE93E0A0E0B0E080930E
:1045E0008E0390938F03A0939003B09391038FE178
:1045F00093E090938B0380938A0385EC90E09093F3
:1046000097038093960384EC90E0909399038093B2
:10461000980380EC90E090939B0380939A0381EC45
:1046200090E090939D0380939C0382EC90E09093A4
:104630009F0380939E0386EC90E09093A103809368
:10464000A0031092A3031092A4031092A50310924A
:10465000A6030895CF92DF92EF92FF920F931F93DC
:10466000CF93DF936C017A01EB01E60EF71E00E0B9
:1046700010E0CE15DF0561F06991D601ED91FC9156
:104680000190F081E02DC6010995080F191FF1CFA7
:10469000C801DF91CF911F910F91FF90EF90DF90B4
:1046A000CF9008956115710581F0DB010D90002018
:1046B000E9F7AD0141505109461B570BDC01ED9163
:1046C000FC910280F381E02D099480E090E0089550
:1046D0000C945223DC01ED91FC910190F081E02DCE
:1046E00009940F931F93CF93DF93EC016DE00E9429
:1046F0006A238C016AE0CE010E946A23800F911F19
:10470000DF91CF911F910F9108950F931F93CF9336
:10471000DF93EC010E9452238C01CE010E94712391
:10472000800F911FDF91CF911F910F9108958F926C
:104730009F92AF92BF92CF92DF92EF92FF920F9330
:104740001F93CF93DF93CDB7DEB7A1970FB6F89441
:10475000DEBF0FBECDBF7C01C42EE52FCB01D22E14
:1047600019A221E02D1510F02AE0D22E8E010F5D46
:104770001F4F8D2C912CA12CB12C6C2D7E2FA501BF
:1047800094010E94552D8C2DD29E80191124015028
:1047900011098A3014F4805D01C0895CF8018083BE
:1047A000211531054105510521F0C22EE32FCA0123
:1047B000E4CFB801C7010E945223A1960FB6F89426
:1047C000DEBF0FBECDBFDF91CF911F910F91FF9044
:1047D000EF90DF90CF90BF90AF909F908F90089513
:1047E000CF92DF92EF92FF920F931F93CF93DF93BD
:1047F000EC016A017B012115310579F4E881F98129
:104800000190F081E02D642FDF91CF911F910F91E6
:10481000FF90EF90DF90CF9009942A303105E9F4B2
:1048200077FF1AC06DE20E946A238C014427552746
:10483000BA014C195D096E097F092AE0CE010E9478
:104840009723800F911FDF91CF911F910F91FF90C0
:10485000EF90DF90CF9008952AE0B701A601CE0136
:10486000DF91CF911F910F91FF90EF90DF90CF904C
:104870000C9497239A01AB01662757FD6095762F1C
:104880000C94F0230F931F93CF93DF93EC019A01C5
:10489000AB01662757FD6095762F0E94F0238C01AF
:1048A000CE010E947123800F911FDF91CF911F9144
:1048B0000F9108952115310541F4DC01ED91FC9132
:1048C0000190F081E02D642F09940C9497230F93AD
:1048D0001F93CF93DF93EC010E945A248C01CE01E9
:1048E0000E947123800F911FDF91CF911F910F9133
:1048F00008954F925F926F927F928F929F92AF92A4
:10490000BF92CF92DF92EF92FF920F931F93CF93BC
:10491000DF93EC016A017B01B22E9A01AB01C70162
:10492000B6010E944A31882319F06BE273E027C078
:1049300026013701E89477F82FEF3FEF4FE75FE765
:10494000C301B2010E944A3181110DC02FEF3FEF28
:104950004FE75FE7C301B2010E94852E18161CF4D1
:104960006FE273E00CC02FEF3FEF4FE75FE4C7014A
:10497000B6010E9491301816ACF463E373E0CE01E7
:10498000DF91CF911F910F91FF90EF90DF90CF902B
:10499000BF90AF909F908F907F906F905F904F905F
:1049A0000C9452232FEF3FEF4FE75FECC701B601A6
:1049B0000E94852E87FDE1CF20E030E0A901C701EC
:1049C000B6010E94852E87FF0AC06DE2CE010E94CB
:1049D0006A238C01F7FAF094F7F8F09402C000E033
:1049E00010E0A12C60E070E080E09FE3AB1441F0A8
:1049F00020E030E040E251E40E948C2EA394F6CFF8
:104A00009B01AC01C701B6010E94BF2D6B017C0167
:104A10000E94F92E2B013C010E94252F9B01AC0125
:104A2000C701B6010E94BE2D6B017C012AE0B301D3
:104A3000A201CE010E949723080F191FBB2039F055
:104A40006EE872E0CE010E945223080F191F7B2CE2
:104A5000772041F120E030E040E251E4C701B601A7
:104A60000E949C306B017C010E94F42E4B01AA2411
:104A700097FCA094BA2C2AE030E0B501A401CE0145
:104A80000E94F023080F191FC501B4010E94272FAF
:104A90009B01AC01C701B6010E94BE2D6B017C01D8
:104AA0007A94D6CFC801DF91CF911F910F91FF90DB
:104AB000EF90DF90CF90BF90AF909F908F907F90BE
:104AC0006F905F904F9008950C9479240F931F93EB
:104AD000CF93DF93EC010E9479248C01CE010E94D8
:104AE0007123800F911FDF91CF911F910F91089536
:104AF0004F925F926F927F92AF92BF92CF92DF926E
:104B0000EF92FF920F931F93CF93DF93CDB7DEB752
:104B100029013A01621B730B840B950B29893A8991
:104B20004B895C892A193B094C095D09298B3A8B11
:104B30004B8B5C8B9B01AC0169897A898B899C8941
:104B40000E941D2DE418F50806091709A801970110
:104B50000E94772D2A0D3B1D4C1D5D1DCA01B90118
:104B6000DF91CF911F910F91FF90EF90DF90CF9049
:104B7000BF90AF907F906F905F904F9008950E948C
:104B80008D322091690430916A0428173907B9F4ED
:104B90009091270480912804981789F0E0912704C8
:104BA000F0E0E75DFB4F80812091270430E02F5F2C
:104BB0003F4F2F7333272093270490E008958FEF02
:104BC0009FEF08951F93CF93DF93DC015C968D9147
:104BD0009C915D97009749F481E090E013969C9337
:104BE0008E93129780E090E03BC05196ED91FC913E
:104BF000529750962C915097322F30951FB75E9652
:104C00004C915E9741FB772770F941FD6095F894D0
:104C10004081772311F0422B01C043234083EC01F4
:104C20002197F1F748E0508160FF02C0522B01C08C
:104C300053235083EC012197F1F76695415099F782
:104C40008081772311F0832301C0822B80831FBFD3
:104C50005C968D919C915D970197F1F781E090E0D2
:104C6000DF91CF911F9108952091690430916A04DA
:104C70002817390781F49091270480912804981708
:104C800051F0E0912704F0E0E75DFB4F8081992728
:104C900087FD909508958FEF9FEF08952091690407
:104CA00030916A042817390771F480912804209103
:104CB000270490E0805C9F4F821B910960E470E0C4
:104CC0000E94412D089580E090E0089520916904AC
:104CD00030916A042817390739F48FB7F894109285
:104CE0002804109227048FBF0895E0916904F09181
:104CF0006A04E817F90769F4A389B4899C91858946
:104D0000809589238C9310926A041092690481E043
:104D1000089580E00895CF93DF93EC018A8D9B8DF9
:104D2000892BF1F08091690490916A048C179D079A
:104D3000B9F0009711F00E9475268E8D8E7F8E8FB0
:104D40001092280410922704D0936A04C093690437
:104D5000EB89FC8980819D89892B808381E001C05A
:104D600080E0DF91CF9108951F920F920FB60F92BE
:104D700011242F933F934F935F936F937F938F9360
:104D80009F93AF93BF93EF93FF93E0916904F091EA
:104D90006A04309709F451C0868DA685B78595853C
:104DA00081FF04C08C91892329F447C08C91892309
:104DB00009F043C0A389B4899C9185898095892392
:104DC0008C93868997890197F1F7208D318DA6857F
:104DD000B785758558E040E0C9010197F1F7842F48
:104DE00090E095958795482F6C91672309F040686E
:104DF000515091F7868D81FD40958091280490E077
:104E000001968F73992720912704281749F0A091C4
:104E10002804B0E0A75DBB4F4C938093280403C0E7
:104E2000868D8160868F828D938D0197F1F7A3899E
:104E3000B4898C919589892B8C93FF91EF91BF91C7
:104E4000AF919F918F917F916F915F914F913F9122
:104E50002F910F900FBE0F901F9018951F93CF9317
:104E6000DF93EC01162F6E8D6695617081E06827E7
:104E7000812F0E94E62C61E0812F0E94AD2C812FB2
:104E800090E0FC01E65EFE4FE491E88BFC01E25D00
:104E9000FE4FE491F0E0EE0FFF1FE45BFE4F8591C3
:104EA00094919A8B898BDF91CF911F9108951F93D5
:104EB000CF93DF93EC01162F60E0812F0E94AD2C81
:104EC0008E8D81FD04C061E0812F0E94E62C1C873D
:104ED000812F90E0FC01E65EFE4FE491ED87FC013E
:104EE000E25DFE4FE491F0E0EE0FFF1FEE5BFE4F40
:104EF000859194919F878E87DF91CF911F9108951F
:104F0000FF920F931F93CF93DF93EC01F62E522F56
:104F10001B821A8208EE13E020E030E00C831D8330
:104F20002E833F838BE393E0998388831F8A1E8AB5
:104F3000198E188E1B8E1A8E1D8E1C8E8E8D8E7F56
:104F400050FB81F98E8F642FCE010E942E276F2D8A
:104F5000CE01DF91CF911F910F91FF900C945727B5
:104F6000CF93DF93EC019A01AB011B8E1A8E198E41
:104F7000188E1F8A1E8A60E079E08DE390E00E941F
:104F8000772DC9012430310520F0B9016350710932
:104F900002C061E070E07D8F6C8FEC85E63108F037
:104FA00068C0B901769567956431710518F0635151
:104FB000710902C061E070E07F8B6E8B069718F07C
:104FC000C901059702C081E090E0998F888FC901DF
:104FD000880F991F820F931F9695879596958795B1
:104FE0008D30910510F00C9702C081E090E09B8F0E
:104FF0008A8F20916800E83050F091E0EE3008F49C
:1050000090E081E001C0880F9A95EAF701C084E042
:10501000822B809368002C85283038F02E3040F0A9
:10502000263148F48CE690E008C08DE690E005C09B
:105030008BE690E002C080E090E09C8B8B8B283068
:1050400030F481E001C0880F2A95EAF70DC0822F65
:1050500090E02E3010F4089701C00E9791E001C047
:10506000990F8A95EAF7892F8D8B8C8D9D8D0197ED
:10507000F1F7CE01DF91CF910C948B2680919B04A8
:1050800090E020919C04821B9109089520919C043A
:1050900080919B04281750F4E22FF0E0E356FB4F79
:1050A000808190E02F5F20939C0408958FEF9FEF05
:1050B0000895E0919C0480919B04E81730F4F0E09F
:1050C000E356FB4F808190E008958FEF9FEF0895A6
:1050D0000895CF92DF92EF92FF920F931F93CF9399
:1050E000DF937C01CB018A0120917704222389F090
:1050F000EB016B01C40ED51ECC15DD0569F069917D
:10510000D701ED91FC910190F081E02DC701099547
:10511000F3CF642F0E94C829C801DF91CF911F915E
:105120000F91FF90EF90DF90CF900895CF93DF9392
:105130001F92CDB7DEB76983209177042223D1F087
:1051400020917804203240F021E030E0FC013383EC
:10515000228380E090E015C080917904E82FF0E090
:10516000E658FB4F998190838F5F809379048093F9
:10517000780405C061E0CE0101960E94C82981E053
:1051800090E00F90DF91CF910895FC01138212827D
:1051900048EE53E060E070E0448355836683778394
:1051A0008BE493E091838083089510929C04109285
:1051B0009B0410927904109278040C941329862F82
:1051C000413208F040E26DE974E00E94312910920A
:1051D0009C0480939B04089521E00C94DF2881E0D7
:1051E0008093770460939A04109279041092780463
:1051F00008950F93062F21E0409178046AE774E048
:1052000080919A040E947529109279041092780472
:10521000109277040F91089561E00C94F9288BE6C1
:1052200094E00C94C52810922A0581E0809328050B
:105230001092270561E082E10E94E62C61E083E1A3
:105240000E94E62CE9EBF0E080818E7F80838081F4
:105250008D7F808388E48093B80085E48093BC00D0
:105260000895413208F03FC090912A059111FCCF7A
:1052700091E090932A05209328052FEF2093BD04F9
:1052800010920205240F2093010590932905909117
:105290002905880F892B8093290580912705813066
:1052A00041F410922705809129058093BB0085EC7D
:1052B00001C085EE8093BC0080912A058130E1F326
:1052C00080910205841710F44091020523E035E037
:1052D000FB01D9018A2F821B841718F48D918193C9
:1052E000F9CF842F089580E008950F93413208F09C
:1052F00046C090912A059111FCCF92E090932A0527
:10530000009328059FEF9093BD04109202054093EF
:105310000105FB0163E075E0DB019A2F961B9417F2
:1053200018F491919D93F9CF109229059091290538
:10533000880F892B8093290580912705813041F4BE
:1053400010922705809129058093BB0085EC01C050
:1053500085EE8093BC00222321F080912A058230C3
:10536000E1F38091BD048F3F61F08091BD048032F4
:1053700051F08091BD04803341F483E007C081E0A7
:1053800005C080E003C082E001C084E00F91089571
:10539000613298F420912A05243089F46093DF0467
:1053A000FC0181EE94E0DC012A2F281B261718F45B
:1053B00021912D93F9CF80E0089581E0089582E056
:1053C000089585ED8093BC008091BC0084FDFCCFE6
:1053D00010922A05089585EC8093BC0010922A054E
:1053E00008951F920F920FB60F9211242F933F939F
:1053F0004F935F936F937F938F939F93AF93BF93DD
:10540000EF93FF938091B900887F803609F49CC0A8
:1054100068F5883209F45BC090F4803109F454C017
:1054200038F4882309F4F5C0883009F44DC0F5C07C
:10543000883109F44CC0803209F45DC0EEC080347C
:1054400009F468C048F4803309F455C0883309F082
:10545000E4C08093BD04A8C0803509F44FC08835EE
:1054600009F45DC0883409F0D8C0D5C0883909F482
:10547000C6C0A8F4883709F467C038F4883609F440
:1054800063C0803709F460C0C8C0883809F4B7C069
:10549000803909F45FC0803809F0BFC05BC0803B31
:1054A00009F485C038F4803A09F466C0883A09F4F2
:1054B0007EC0B3C0803C09F4A6C0883C09F4A3C0F8
:1054C000883B09F489C0A9C08091290510C090913A
:1054D000020580910105981770F5E091020581E0C1
:1054E0008E0F80930205F0E0ED5FFA4F808180938C
:1054F000BB0085EC85C08093BD048DC0E0910205A2
:1055000081E08E0F809302058091BB00F0E0ED5F9B
:10551000FA4F808390910205809101056DC0E09162
:10552000020581E08E0F809302058091BB00F0E0C0
:10553000ED5FFA4F80838091280581116CC081E076
:105540008093270584EA60C083E080932A05109247
:10555000BE04CFCF8091BE04803208F050C0E091ED
:10556000BE0481E08E0F8093BE048091BB00F0E00A
:10557000E154FB4F8083BDCF8091BE04803230F474
:10558000E091BE04F0E0E154FB4F10820E94E1295B
:105590006091BE0470E0E0912305F09124058FEB4B
:1055A00094E009951092BE040E94EB2936C084E075
:1055B00080932A051092E0041092DF04E091250503
:1055C000F091260509958091DF04811105C081E0E5
:1055D0008093DF041092E104E091E00481E08E0FFB
:1055E0008093E004F0E0EF51FB4F80818093BB009B
:1055F0009091E0048091DF04981708F47ACF85E851
:105600008093BC000AC085EC8093BC0010922A05F0
:1056100004C01092BD040E94E129FF91EF91BF9157
:10562000AF919F918F917F916F915F914F913F913A
:105630002F910F900FBE0F901F9018950C9466310C
:105640000C94FE311F920F920FB60F9211242F93DC
:105650003F938F939F93AF93BF9380912C0590912D
:105660002D05A0912E05B0912F0530912B0523E03B
:10567000230F2D3720F40196A11DB11D05C026E88A
:10568000230F0296A11DB11D20932B0580932C059D
:1056900090932D05A0932E05B0932F058091300592
:1056A00090913105A0913205B09133050196A11D6D
:1056B000B11D8093300590933105A0933205B093CE
:1056C0003305BF91AF919F918F913F912F910F9093
:1056D0000FBE0F901F9018952FB7F89460912C056E
:1056E00070912D0580912E0590912F052FBF089563
:1056F0003FB7F8948091300590913105A091320523
:10570000B091330526B5A89B05C02F3F19F001962F
:10571000A11DB11D3FBF6627782F892F9A2F620FD9
:10572000711D811D911D42E0660F771F881F991F13
:105730004A95D1F70895CF92DF92EF92FF92CF93DF
:10574000DF936B017C010E94782BEB01C114D10423
:10575000E104F10489F00E941C2D0E94782B6C1B3F
:105760007D0B683E734090F381E0C81AD108E108D0
:10577000F108C851DC4FEACFDF91CF91FF90EF9055
:10578000DF90CF900895019739F0880F991F880F07
:10579000991F02970197F1F70895789484B5826074
:1057A00084BD84B5816084BD85B5826085BD85B5C5
:1057B000816085BDEEE6F0E0808181608083E1E874
:1057C000F0E01082808182608083808181608083AC
:1057D000E0E8F0E0808181608083E1EBF0E08081AF
:1057E00084608083E0EBF0E0808181608083EAE781
:1057F000F0E080818460808380818260808380810A
:10580000816080838081806880831092C1000895C8
:105810008E3008F08E50877020910C0190E4299F03
:1058200090011124822B80937C0080917A00806407
:1058300080937A0080917A0086FDFCCF8091780079
:105840002091790090E0922B08951F93CF93DF93DE
:10585000182FEB0161E00E94AD2C209711F460E05D
:1058600004C0CF3FD10539F461E0812FDF91CF91A2
:105870001F910C94E62CE12FF0E0EA5FFE4FE491DB
:10588000E330F9F048F4E130B9F0E230A1F584B545
:10589000806284BDC8BD34C0E730E9F0E83019F15A
:1058A000E43049F580918000806280938000D0933D
:1058B0008B00C0938A0024C084B5806884BDC7BDB6
:1058C0001FC080918000806880938000D093890001
:1058D000C093880015C08091B00080688093B000AC
:1058E000C093B3000DC08091B00080628093B0007F
:1058F000C093B40005C0C038D1050CF0B5CFAFCF10
:10590000DF91CF911F910895833081F028F4813089
:1059100099F08230A1F008958730A9F08830B9F06D
:105920008430D1F4809180008F7D03C0809180000D
:105930008F7780938000089584B58F7702C084B5F7
:105940008F7D84BD08958091B0008F7703C08091D2
:10595000B0008F7D8093B0000895CF93DF9390E0E7
:10596000FC01E65EFE4F2491FC01E25DFE4F849156
:10597000882349F190E0880F991FFC01EA5AFE4FF5
:10598000A591B491845B9E4FFC01C591D4919FB7C2
:10599000611108C0F8948C91209582238C938881A2
:1059A00082230AC0623051F4F8948C91322F3095E2
:1059B00083238C938881822B888304C0F8948C91F4
:1059C000822B8C939FBFDF91CF9108950F931F93EC
:1059D000CF93DF931F92CDB7DEB7282F30E0F901C8
:1059E000EA5FFE4F8491F901E65EFE4F1491F901E2
:1059F000E25DFE4F04910023C9F0882321F0698302
:105A00000E94842C6981E02FF0E0EE0FFF1FE45B21
:105A1000FE4FA591B4919FB7F8948C91611103C08A
:105A20001095812301C0812B8C939FBF0F90DF9134
:105A3000CF911F910F9108950895DB018F939F934C
:105A40000E949C2DBF91AF91A29F800D911DA39F9D
:105A5000900DB29F900D11240895AA1BBB1B51E11C
:105A600007C0AA1FBB1FA617B70710F0A61BB70BCE
:105A7000881F991F5A95A9F780959095BC01CD0173
:105A8000089597FB072E16F4009407D077FD09D0F0
:105A90000E942D2D07FC05D03EF4909581959F4FD7
:105AA0000895709561957F4F0895A1E21A2EAA1B63
:105AB000BB1BFD010DC0AA1FBB1FEE1FFF1FA217BE
:105AC000B307E407F50720F0A21BB30BE40BF50BBB
:105AD000661F771F881F991F1A9469F76095709544
