:100000000C94B2000C94DA000C94DA000C94F020FA
:100010000C94F0200C94F0200C94DA000C94DA008C
:100020000C94DA000C94DA000C94DA000C94DA00E8
:100030000C94DA000C94DA000C94DA000C94DA00D8
:100040000C945E250C94DA000C94281D0C945A1D17
:100050000C94DA000C94DA000C94DA000C94DA00B8
:100060000C942D240C94DA006F1782179217A517A1
:10007000AD17D917E117E917F117F817F817F8179F
:10008000F817F817F817F817F817F817F817F817F8
:10009000F817F817F817F817F817F817F817F817E8
:1000A000F817F817F817F8176F177B1782179217BA
:1000B000A517AD17C017C817D017084AD73B3BCEB6
:1000C000016E84BCBFFDC12F3D6C74319ABD568357
:1000D0003DDA3D00C77F11BED9E4BB4C3E916BAA0F
:1000E000AABE000000803F05A84CCDB2D44EB9385E
:1000F00036A9020C50B9918688083CA6AAAA2ABE45
:10010000000000803F000000000800020100000322
:100110000407000000000000000001020408102095
:100120004080010204081020010204081020040489
:10013000040404040404020202020202030303038F
:100140000303000000002300260029000000000037
:10015000250028002B0000000000240027002A00B2
:100160008A1D4B2311241FBECFEFD8E0DEBFCDBFC9
:1001700013E0A0E0B1E0ECEBFAE502C005900D92CF
:10018000A634B107D9F725E0A6E4B3E001C01D927B
:10019000A931B207E1F711E0C4E6D1E004C022972B
:1001A000FE010E943C28C036D107C9F70E94D41B2B
:1001B0000C945C2D0C94000025E531E0FC013183AA
:1001C0002083089525E531E0FC01318320830895E3
:1001D00025E531E0FC01318320830C945C2525E585
:1001E00031E0FC01318320830C945C250F931F9335
:1001F000CF93DF93EC0181E691E0998388837D833F
:100200006C8388E090E00E945A258C010E94700F58
:100210001B830A83C8010E94A20F63E08A819B812D
:100220000E94740F62E08A819B810E948A0F65E0C0
:100230008A819B810E947F0F60E08A819B810E945E
:10024000930F188A198A1A8A1B8A1C861D861E8695
:100250001F86DF91CF911F910F910895CF92DF926A
:10026000EF92FF92CF93DF93EC019C01265F3F4F0B
:10027000AC01485F5F4FBC016A5F7F4F8A819B8101
:100280000E94B40F6E817F81882777FD8095982F1B
:100290000E94CB2926EF38E24CE95FE30E94402B15
:1002A00027ED33EA40E75FE30E94402B20E030E097
:1002B00048EB50E40E9463286B017C0168857985D6
:1002C000882777FD8095982F0E94CB2926EF38E26A
:1002D0004CE95FE30E94402B2BE734E14EE65FE3FD
:1002E0000E94402B28EB3EE146E052E40E94632846
:1002F000A70196010E94D6286B017C016C897D893B
:100300008E899F890E947A029B01AC01C701B601C8
:100310000E9463286B017C0120E030E0A9010E946B
:10032000292987FF0AC02BED3FE049EC50E4C701C3
:10033000B6010E9463286B017C01C701B6010E94CF
:1003400081022C813D812115310539F0AB01BC01C1
:10035000C9010E940B089B0101C09B01A901BC01BE
:100360004C875D876E877F87DF91CF91FF90EF90FD
:10037000DF90CF900895FC01448B558B668B778B73
:100380000895FC01408B518B628B738B0895CF9243
:10039000DF92EF92FF92FC012485358546855785D3
:1003A00060897189828993890E9462286B017C012E
:1003B00020E030E044E353EC0E94292987FF09C084
:1003C00020E030E044EB53E4C701B6010E9463280B
:1003D00012C020E030E044E353E4C701B6010E94BC
:1003E000352B181654F420E030E044EB53E4C701F9
:1003F000B6010E9462286B017C01C701B601FF9023
:10040000EF90DF90CF900895CF93DF93EC016CE0F5
:1004100071E08BE693E00E940B1E4C855D856E8536
:100420007F8522E030E08BE693E00E94E71F67E1E2
:1004300071E08BE693E00E940B1E488959896A8916
:100440007B8922E030E08BE693E00E94E71F6AE2BE
:1004500071E08BE693E00E940B1ECE010E94C70163
:10046000AB01BC0122E030E08BE693E0DF91CF915D
:100470000C94E91FCF92DF92EF92FF920F931F939C
:10048000CF93DF936C01EB012FE331E040E050E0CC
:1004900060E070E0CE010E94AD06C6010E94C70177
:1004A0008B019C0184E0E82EF12C40E050E068E0F4
:1004B00070E0CE010E94C80628E431E041E050E03F
:1004C00060E070E0CE010E94AD06F601048515855E
:1004D0002685378541E050E068E070E0CE010E945B
:1004E000C806DF91CF911F910F91FF90EF90DF90A1
:1004F000CF90089525E33AEF4EE85CE30E94402B4D
:10050000089520EE3EE245E652E40E94402B089515
:1005100025E531E0FC0131832083089525E531E0B4
:10052000FC01318320830C945C250F931F93CF93A0
:10053000DF93EC0184EB91E09983888383E790E07B
:100540000E945A258C010E94FA141B830A838FE1B2
:1005500090E00E945A258C0120E04BE06AE00E9466
:10056000BC211D830C8340E855E260E070E0C801C7
:100570000E94EC214091E5025091E6026091E70271
:100580007091E8024E835F83688779874A875B872B
:100590006C877D870091E1021091E2022091E302D5
:1005A0003091E4020A8B1B8B2C8B3D8B4E8B5F8B27
:1005B000688F798F4A8F5B8F6C8F7D8FDF91CF91A2
:1005C0001F910F910895CF93DF93EC018C819D8152
:1005D000DC01ED91FC910480F581E02D0995892BDA
:1005E00071F18C819D81DC01ED91FC910680F78198
:1005F000E02D0995682F8A819B810E9401188C81CA
:100600009D81DC01ED91FC910480F581E02D09953F
:10061000892B39F79E01225F3F4FAE01465F5F4F46
:10062000BE016A5F7F4F8A819B810E94D7188A81B1
:100630009B810E9444196A8B7B8B8C8B9D8BDF91F5
:10064000CF910895FC016681778180859185089519
:10065000FC0162857385848595850895CF92DF922C
:10066000EF92FF921F93CF93DF93EC01C090E502CE
:10067000D090E602E090E702F090E802A701960130
:100680006E817F81888599850E942929882371F050
:1006900011E0A70196016A857B858C859D850E9466
:1006A0002929811101C010E0812F01C080E0DF9174
:1006B000CF911F91FF90EF90DF90CF900895CF934F
:1006C000DF93EC010E942E03882391F169E671E02B
:1006D0008BE693E00E940B1E4E815F8168857985D1
:1006E0002FE030E08BE693E00E94E71F60E771E0C7
:1006F0008BE693E00E940B1E4A855B856C857D85A9
:100700002FE030E08BE693E00E94E71F6AE771E09C
:100710008BE693E00E940B1E4E855F856889798980
:100720002AE030E08BE693E0DF91CF910C94EA1E53
:1007300064E871E08BE693E0DF91CF910C94281E82
:100740004F925F926F927F928F929F92AF92BF92E1
:10075000CF92DF92EF92FF920F931F93CF93DF938D
:10076000CDB7DEB760970FB6F894DEBF0FBECDBF32
:100770002A013B010D831E832F833887CB01BA01E9
:100780000E947A0269837A838B839C83C701B601B6
:100790000E947A0269877A878B879C87A3019201DE
:1007A000C701B6010E9462280E947A026B017C0197
:1007B0002D813E814F815885C501B4010E94622878
:1007C0000E947A026D837E838F83988720E030E0D9
:1007D00040E05FE3C701B6010E94402B0E94A32BBB
:1007E0006B017C0169817A818B819C810E942D291A
:1007F0002B013C0169857A858B859C850E942D297A
:1008000069837A838B839C8320E030E040E05FE360
:100810006D817E818F8198850E94402B0E94A32B41
:100820004B015C01A7019601C701B6010E94402B54
:100830006B017C0129813A814B815C81C301B2014A
:100840000E94402B2B013C01A5019401C501B4017C
:100850000E94402B9B01AC01C301B2010E94402BBE
:100860009B01AC01C701B6010E9463286B017C01AA
:100870009B01AC0160E070E080E89FE30E94622889
:100880000E94AD2B9B01AC01C701B6012D873E87AD
:100890004F87588B0E94AD2B2D853E854F855889FB
:1008A0000E94D6289B01AC010E94632820E73DE608
:1008B00042EC5AE40E94402B60960FB6F894DEBFDB
:1008C0000FBECDBFDF91CF911F910F91FF90EF90A1
:1008D000DF90CF90BF90AF909F908F907F906F9060
:1008E0005F904F9008958F929F92AF92BF92CF9258
:1008F000DF92EF92FF920F931F93CF93DF93EC0160
:100900006A017B01480159010E942E03882361F08E
:100910000A851B852C853D854E815F81688579859B
:10092000CE010E94A00304C060E070E080E89FEB6D
:10093000DF91CF911F910F91FF90EF90DF90CF90BB
:10094000BF90AF909F908F900895AF92BF92CF923B
:10095000DF92EF92FF920F931F93CF93DF935C018F
:10096000EB010E942E03882309F4A4C0C090E50285
:10097000D090E602E090E702F090E802A70196012D
:10098000F50166897789808D918D0E9429298823B8
:1009900009F458C0A7019601F501628D738D848D0D
:1009A000958D0E942929882309F44CC02AE931E059
:1009B00040E050E060E070E0CE010E94AD06F5013D
:1009C000068117812085318593E0E92EF12C40E0E6
:1009D00050E064E070E0CE010E94C8062FE931E0EB
:1009E00040E050E068E070E0CE010E94AD06F50105
:1009F000028513852485358540E050E06BE070E08A
:100A0000CE010E94C80624EA31E041E050E060E0F7
:100A100070E0CE010E94AD06F501028D138D248D8C
:100A2000358D46895789608D718DC5010E9473048B
:100A30008B019C014FE0E42EF12C41E050E063E09B
:100A400070E02AC02AE931E040E050E060E070E068
:100A5000CE010E94AD06F501068117812085318502
:100A60008FE0E82EF12C40E050E064E070E0CE0131
:100A70000E94C8062FE931E041E050E060E070E0FC
:100A8000CE010E94AD06F5010285138524853585CA
:100A900041E050E064E070E0CE010E94C806DF91C2
:100AA000CF911F910F91FF90EF90DF90CF90BF906B
:100AB000AF90089527EA31E040E050E060E070E058
:100AC000CE010E94AD062EE831E041E050E060E04A
:100AD00070E0CE01DF91CF911F910F91FF90EF90C9
:100AE000DF90CF90BF90AF900C94AD064F925F9285
:100AF0006F927F928F929F92AF92BF92CF92DF922E
:100B0000EF92FF920F931F93CF93DF93CDB7DEB792
:100B100060970FB6F894DEBF0FBECDBF09831A836E
:100B20002B833C83CB01BA010E947A022B013C014A
:100B3000C701B6010E947A026B017C0129813A81CA
:100B40004B815C81C501B4010E9462280E947A0237
:100B50004B015C010E94A32B6D837E838F8398875A
:100B6000C701B6010E942D2969837A838B839C83F8
:100B7000C301B2010E942D2969877A878B879C87E0
:100B8000C701B6010E94A32B9B01AC01C301B201B6
:100B90002D873E874F87588B0E94A32B6B017C01CA
:100BA000C501B4010E942D292B013C012D853E85F4
:100BB0004F85588969857A858B859C850E94402B55
:100BC0004B015C0129813A814B815C81C701B601EF
:100BD0000E94402BA30192010E94402B9B01AC017B
:100BE000C501B4010E9462286B017C0129813A8110
:100BF0004B815C816D817E818F8198850E94402B25
:100C0000A70196010E94D6280E94810220E030E0D0
:100C100044EB53E40E94632820E030E044EB53E4CB
:100C200060960FB6F894DEBF0FBECDBFDF91CF91B7
:100C30001F910F91FF90EF90DF90CF90BF90AF90FA
:100C40009F908F907F906F905F904F900C940D2AA3
:100C50008F929F92AF92BF92CF92DF92EF92FF92CC
:100C60000F931F93CF93DF93EC016A017B0148013F
:100C700059010E942E03882361F00A851B852C856B
:100C80003D854E815F8168857985CE010E9476051C
:100C900004C060E070E080E89FEBDF91CF911F918E
:100CA0000F91FF90EF90DF90CF90BF90AF909F900B
:100CB0008F9008956F927F928F92AF92CF92EF9222
:100CC0000F93CF93DF93EC0189E190E00E945A25C6
:100CD0003C0187E0882E96E0A92E25E0C22E34E064
:100CE000E32E00E021E042E067E2C3010E942D1BF9
:100CF00079826882D301ED91FC910480F581E02D29
:100D000020E042E064E1C301099588819981DC011A
:100D1000ED91FC910680F781E02D40E050E063E02A
:100D2000099588819981DC01ED91FC910084F18520
:100D3000E02D61E0099588819981DF91CF910F9134
:100D4000EF90CF90AF908F907F906F900C94E019C0
:100D5000FC01808191810C94D9190F931F93CF933B
:100D6000DF93EC0189014230510568F48881998153
:100D70000E94E719B80188819981DF91CF911F9175
:100D80000F910C940B1EDF91CF911F910F9108953D
:100D90008F929F92AF92BF92EF92FF920F931F9309
:100DA000CF93DF93EC014801590142305105A8F47B
:100DB000888199810E94E7199701B501A401888172
:100DC0009981DF91CF911F910F91FF90EF90BF908C
:100DD000AF909F908F900C94E71FDF91CF911F9160
:100DE0000F91FF90EF90BF90AF909F908F900895DC
:100DF000CF92DF92EF92FF920F931F93CF93DF93E7
:100E0000EC017B018A011982188288E090E09B83C3
:100E10008A831D821C8280E190E00E945A256C0129
:100E20008883D982FA86E9860C171D0709F482C0E7
:100E3000D80114968D919C9115974A815B81481732
:100E4000590720F59B838A83880F991F0E945A2592
:100E5000998388834C815D81F60120E030E024177E
:100E6000350789F0A881B981B901660F771FA60FF0
:100E7000B71F109721F0608171816D937C932F5F74
:100E80003F4F3296ECCFC6010E945C258C819D813C
:100E9000F80144815581BA018417950708F4BC0113
:100EA00020E030E02617370799F06901CC0CDD1CF3
:100EB000D801ED91FC91EC0DFD1DE080F180E88101
:100EC000F981EC0DFD1DF182E0822F5F3F4FEACFEB
:100ED0008417950758F0F801848195812C813D8114
:100EE0008217930738F59D838C8324C09C01220FC1
:100EF000331FD80114964D915C911597841795076F
:100F000050F7F801A081B181A20FB31FE881F981E8
:100F1000E20FF31F309721F04D915C915183408394
:100F20004C815D814F5F5F4F5D834C8301962E5FE7
:100F30003F4FDFCF18861F82DF91CF911F910F9116
:100F4000FF90EF90DF90CF9008950F931F93CF9372
:100F5000DF93EC0189859A85009711F10E94A8061C
:100F60000F8118858C819D810817190720F08CEB63
:100F700091E00E94C91B000F111FE881F981E00F69
:100F8000F11F80819181DC01ED91FC9169857A8569
:100F90000680F781E02DDF91CF911F910F91099489
:100FA000DF91CF911F910F910895FC01878190856A
:100FB0000196648175810E94D12790878783089567
:100FC0000F931F93CF93DF938C016EEC71E08BE650
:100FD00093E00E94281EC0E0D0E0F8018481958152
:100FE000C817D90798F4CE01880F991FD801ED9141
:100FF000FC91E80FF91F80819181DC01ED91FC915A
:101000000480F581E02D09952196E7CFDF91CF91FE
:101010001F910F9108958F929F92AF92BF92CF929E
:10102000DF92EF92FF92CF93DF93EC01CB01BA01F5
:10103000688B798B8A8B9B8BC880D980EA80FB80F8
:10104000A70196010E94402B4B015C01A70196016C
:1010500060E070E080E89FE30E9462282C853D8577
:101060004E855F850E94402B9B01AC01C501B401F8
:101070000E9463286C877D878E879F87DF91CF9141
:10108000FF90EF90DF90CF90BF90AF909F908F90A8
:101090000895AF92BF92CF92DF92EF92FF920F939B
:1010A0001F93CF93DF931F92CDB7DEB75C018B0107
:1010B00077FF02C000E010E060E0F5018481498321
:1010C0000E94052761E0F50186810E94052761E005
:1010D000F50182850E94052760E0F50184850E9464
:1010E00005274981442391F06FEF70E0F50182817B
:1010F0000E9444266FEF70E0F50180850E9444262F
:1011000064E670E080E090E00E94D725B80188276F
:1011100077FD8095982F0E94CB296B017C01F5010A
:1011200026853785408951890E94402B0E94982945
:10113000F50182810E944426F50122893389448980
:101140005589C701B6010E94402B0E949829F501DC
:1011500080850E94442688279927801B910BF501E2
:10116000978B868B118F008F0F90DF91CF911F91FE
:101170000F91FF90EF90DF90CF90BF90AF900895C8
:10118000CF93DF93EC0160E08C810E94052760E043
:101190008E810E94052760E08A850E94052760E015
:1011A0008C850E94052761E08A810E94052761E005
:1011B00088850E9405271F8A1E8A198E188EDF9146
:1011C000CF91089525E531E0FC0131832083089516
:1011D00025E531E0FC01318320830C945C250F93DD
:1011E0001F93CF93DF93EC016BE172E08BE693E00A
:1011F0000E940B1E8E010E5F1F4FC8010E94E81453
:10120000AB01BC0122E030E08BE693E00E94E71FD7
:1012100061E272E08BE693E00E940B1EC8010E941F
:10122000EE14AB01BC0122E030E08BE693E00E94BB
:10123000E71F69E272E08BE693E00E940B1EC80193
:101240000E94F414AB01BC0122E030E08BE693E095
:101250000E94E71F61E372E08BE693E00E940B1EA1
:10126000EF96488159816A817B8122E030E08BE6EC
:1012700093E0DF91CF911F910F910C94E91FAF92F2
:10128000BF92CF92DF92EF92FF920F931F93CF9373
:10129000DF936C01EB012EE332E040E050E060E0D0
:1012A00070E0CE010E94AD06560182E0A80EB11C8E
:1012B000C5010E94E8148B019C0182E0E82EF12C0C
:1012C00040E050E063E070E0CE010E94C80622E4F6
:1012D00032E040E050E069E070E0CE010E94AD06EF
:1012E000C5010E94EE148B019C0140E050E06CE0CF
:1012F00070E0CE010E94C80626E432E041E050E0F2
:1013000060E070E0CE010E94AD06C5010E94F414B9
:101310008B019C0141E050E063E070E0CE010E944F
:10132000C8062AE432E041E050E069E070E0CE0116
:101330000E94AD06F601FF96008111812281338162
:1013400041E050E06BE070E0CE010E94C806DF9102
:10135000CF911F910F91FF90EF90DF90CF90BF90B2
:10136000AF9008956F927F928F929F92AF92BF92AB
:10137000CF92DF92EF92FF920F931F93CF93DF9361
:10138000EC013C0183E4680E711C4E01EFE38E0E0C
:10139000911CCE01CB961F921F92FF92EF92DF928B
:1013A000CF92580169017A018B019301A401BC011C
:1013B000C9970E947B1481E592E099838883F301A9
:1013C00010821182128213821BAE1CAE1DAE1EAEA5
:1013D000F40110821182128213820F900F900F90ED
:1013E0000F900F900F90DF91CF911F910F91FF9071
:1013F000EF90DF90CF90BF90AF909F908F907F90B5
:101400006F900895FC0143AF54AF65AF76AF089578
:10141000FC01878590890C94D507CF93DF93EC016D
:101420008F8598890E94E0078F859889DF91CF91F9
:101430000C94A507CF92DF92EF92FF92CF93DF93A8
:10144000EC01C988DA88EB88FC888B819C810E943A
:1014500022039B01AC01C701B6010E942929811119
:1014600010C0CD88DE88EF88F88C8B819C810E942B
:1014700028039B01AC01C701B6010E9429298823DA
:1014800089F08B819C810E942203698B7A8B8B8BE4
:101490009C8B8B819C810E9428036D8B7E8B8F8B14
:1014A000988F81E0DF91CF91FF90EF90DF90CF9008
:1014B00008950F931F9303ED1BE425E931E446ECF7
:1014C0005FEC65E372E4FC01838194810E94730404
:1014D00020E030E040E85FE30E942929881F882748
:1014E000881F1F910F910895CF93DF93EC0181E046
:1014F000888340E06FEF70E08D819E810E944908F3
:1015000060EA7FE080E090E00E94D7258D819E8197
:10151000DF91CF910C94C0080F931F93CF93DF936B
:10152000EC0103ED1BE425E931E446EC5FEC65E3F7
:1015300072E48B819C810E942806AB01BC018B85E3
:101540009C85DF91CF911F910F910C94C101CF9396
:10155000DF93EC018B859C850E942E018B859C85F9
:101560000E94C701AB01BC0189859A850E94020ACD
:1015700089859A850296DF91CF910C944211CF9381
:10158000DF93EC018B819C810E942E038823D9F08C
:101590008D859E850E94CC0DCE010E941A0A88235B
:1015A00069F0CE010E94590A882329F0CE01DF910B
:1015B000CF910C94740ACE010E948C0ACE01DF9167
:1015C000CF910C94A70ADF91CF910895CF92DF922B
:1015D000EF92FF92CF93DF93EC018881811168C075
:1015E0000E94A825CD8CDE8CEF8CF8A09B01AC016D
:1015F0002C193D094E095F0969017A0132E3C316CE
:10160000D104E104F10438F06D8F7E8F8F8F98A3A1
:10161000CE010E94BF0A0E94A8256B017C018D8D1E
:101620009E8DAF8DB8A1A7019601281B390B4A0BDF
:101630005B0B2531310541055105D0F58B819C812E
:101640000E94E302898D9A8DAB8DBC8DA701960116
:10165000281B390B4A0B5B0BDA01C901883E93400A
:10166000A105B10538F0C98EDA8EEB8EFC8ECE0165
:101670000E940D0A89A19AA1ABA1BCA1A701960164
:10168000281B390B4A0B5B0BDA01C90188389341DF
:10169000A105B10568F0C9A2DAA2EBA2FCA2CE01B5
:1016A000DF91CF91FF90EF90DF90CF900C94080ADC
:1016B000DF91CF91FF90EF90DF90CF900895CF9280
:1016C000DF92EF92FF920F931F93CF93DF93EC0182
:1016D0007B018C819D818C010F5F1F4F80179107CB
:1016E00008F046C04A815B814017510750F50996C2
:1016F0004817590730F5C880D9809B838A83880FA3
:10170000991F0E945A25998388834C815D81F60137
:1017100020E030E02417350789F0A881B981B901AC
:10172000660F771FA60FB71F109721F06081718198
:101730006D937C932F5F3F4F3296ECCFC6010E9492
:101740005C258C819D819C01220F331F801791079E
:1017500090F4E881F981E20FF31F309729F0D70167
:101760004D915C915183408301962E5F3F4FEECFA8
:101770000817190710F41D830C83DF91CF911F9177
:101780000F91FF90EF90DF90CF9008956F927F922E
:101790008F929F92AF92BF92CF92DF92EF92FF9281
:1017A0000F931F93CF93DF93CDB7DEB72E970FB66E
:1017B000F894DEBF0FBECDBF4C0126E040E855E2F5
:1017C00060E070E08BE693E00E94C61C69E572E081
:1017D0008BE693E00E94281E64E670E080E090E0D3
:1017E0000E94D72588E190E00E945A258C0160E094
:1017F00070E00E94F600F401148703874DED5DED63
:1018000065E870E4C8010E94BB0181E190E00E949C
:101810005A258C010E945B0EF401168705878EE124
:1018200090E00E945A258C010E949502F4011483D5
:10183000038346EC5FEC65E372E4F801468B578B5B
:10184000608F718F43ED5BE465E971E4428F538FE4
:10185000648F758F87E490E00E945A253C01A12C8B
:10186000B12CEFE8CE2EE2ECDE2EE5EFEE2EEDE32E
:10187000FE2E0AE017ED23E23CE340E050E060E793
:1018800071E40E94B209F4017286618661E070E041
:10189000C30102960E942914F4018185928500E01B
:1018A00010E02FE733E440E050E06FE773EC02967E
:1018B0000E946313F4018185928562E370E00296D1
:1018C0000E94151382E090E00E945A258C010E942C
:1018D0005A06F401128301831986188688E090E085
:1018E0009B878A871D861C8680E190E00E945A258E
:1018F00099878887F40185859685009749F09A83B2
:101900008983BE016F5F7F4FCE0108960E945F0BF7
:10191000F40183819481009749F09A838983BE0101
:101920006F5F7F4FCE0108960E945F0BF4018385A5
:101930009485009749F09A838983BE016F5F7F4F3A
:10194000CE0108960E945F0BF40181859285009775
:1019500049F09A838983BE016F5F7F4FCE0108965D
:101960000E945F0BF40185819681009749F09A836C
:101970008983BE016F5F7F4FCE0108960E945F0B87
:101980008C859D859E838D8308969C838B83880F91
:10199000991F0E945A259A8389834D815E8180E038
:1019A00090E08417950799F0A885B9859C01220FCE
:1019B000331FA20FB31FE981FA81E20FF31F3097A3
:1019C00021F02D913C91318320830196EACF8BE069
:1019D00090E00E945A258C01F40161817281AE0170
:1019E0004F5F5F4F0E94F806F401108B07878981D3
:1019F0009A810E945C25888599850E945C252E9697
:101A00000FB6F894DEBF0FBECDBFDF91CF911F910F
:101A10000F91FF90EF90DF90CF90BF90AF909F908D
:101A20008F907F906F900895CF93DF93EC0165E6E0
:101A300072E08BE693E00E940B1E8E819F810E94D4
:101A40006A0FAB01BC012AE030E08BE693E00E9414
:101A5000DD1E6AE672E08BE693E00E940B1E8C812D
:101A60009D810E946A0FAB01BC012AE030E08BE649
:101A700093E00E94DD1E6FE672E08BE693E00E9429
:101A80000B1E8A819B810E946A0FAB01BC012AE078
:101A900030E08BE693E0DF91CF910C94EA1ECF9279
:101AA000DF92EF92FF920F931F93CF93DF936C011E
:101AB000EB0124E732E040E050E060E070E0CE016E
:101AC0000E94AD06F601868197810E946A0F0E94EE
:101AD000C9298B019C01EE24E394F12C42E050E0F3
:101AE00060E070E0CE010E94C80627E732E040E0E7
:101AF00050E061E070E0CE010E94AD06F601848105
:101B000095810E946A0F0E94C9298B019C0142E0C5
:101B100050E061E070E0CE010E94C8062AE732E0A2
:101B200049E050E061E070E0CE010E94AD06F601B0
:101B3000828193810E946A0F0E94C9298B019C01B6
:101B40004BE050E061E070E0CE010E94C806DF91FA
:101B5000CF911F910F91FF90EF90DF90CF9008955C
:101B6000CF93DF93EC0181E892E0998388838A85A3
:101B70009B850E945C2585E591E099838883DF91B0
:101B8000CF910895CF93DF93EC010E94B00DCE0169
:101B9000DF91CF910C945C250F931F93CF93DF932C
:101BA000EC01088519858E859F850817190720F097
:101BB0008CEB91E00E94C91B000F111FEA85FB8589
:101BC000E00FF11F808191810E945E0F88859985C9
:101BD00001966E857F850E94D12799878887DF913E
:101BE000CF911F910F910895CF92DF92EF92FF92C4
:101BF0000F931F93CF93DF93EC017B018C819D8129
:101C00008C010F5F1F4F8017910708F046C04A8173
:101C10005B814017510750F509964817590730F571
:101C2000C880D9809B838A83880F991F0E945A2578
:101C3000998388834C815D81F60120E030E0241790
:101C4000350789F0A881B981B901660F771FA60F02
:101C5000B71F109721F0608171816D937C932F5F86
:101C60003F4F3296ECCFC6010E945C258C819D814E
:101C70009C01220F331F8017910790F4E881F981AE
:101C8000E20FF31F309729F0D7014D915C915183FA
:101C9000408301962E5F3F4FEECF0817190710F4CF
:101CA0001D830C83DF91CF911F910F91FF90EF90D7
:101CB000DF90CF900895EF92FF920F931F93CF93F1
:101CC000DF93EC0181E892E0998388838E01065FBF
:101CD0001F4F1B861A8688E090E09D878C871F86A1
:101CE0001E8680E190E00E945A259B878A878AE0C1
:101CF00090E00E945A257C0141E050E061E070E0F4
:101D00000E940C0FFF82EE828AE090E00E945A252A
:101D10007C0141E050E061E070E00E940C0FFB822A
:101D2000EA828AE090E00E945A257C0141E050E07E
:101D300061E070E00E940C0FFD82EC82BE016A5FE0
:101D40007F4FC8010E94F40DBE016E5F7F4FC80136
:101D50000E94F40DBE016C5F7F4FC8010E94F40D1C
:101D600019861886DF91CF911F910F91FF90EF9008
:101D7000089525E531E0FC0131832083089525E5B0
:101D800031E0FC01318320830C945C25CF93DF93F9
:101D9000EC0169E872E08BE693E00E940B1E4E8135
:101DA0005F81688579852AE030E08BE693E00E94C8
:101DB000DD1E65E972E08BE693E0DF91CF910C9434
:101DC000281EEF92FF920F931F93CF93DF938C0106
:101DD000EB0129E932E040E050E060E070E0CE0144
:101DE0000E94AD06F80166817781808591850E9409
:101DF000C9298B019C01EE24E394F12C41E050E0D1
:101E000060E070E0CE010E94C806DF91CF911F9183
:101E10000F91FF90EF900895CF93DF93EC01862F01
:101E20002BEA32E0398328836A837B835D834C838A
:101E300060E00E94CC2661E08C810E94CC261E824C
:101E40001F8218861986DF91CF910895CF93DF9373
:101E5000EC0160E08C810E9405278AE090E00E94FE
:101E6000FF2561E08C810E94052784E190E00E94BB
:101E7000FF2560E08C810E94052728EB3BE040E0D5
:101E800050E061E08A810E943B272AE330E040E095
:101E900050E00E94F927DA01C9010197A109B109AF
:101EA000CC97A105B10528F06FE372E48FE090E0D4
:101EB00002C0B901CA01DF91CF910895CF93DF939A
:101EC000EC010E94260F6E837F8388879987DF91BC
:101ED000CF910895FC016681778180859185089571
:101EE0002EE1FC01208308950F93062F22E046E0A7
:101EF00060E0FC0180810E94FC100F9108950F9317
:101F0000062F23E044E060E0FC0180810E94FC1089
:101F10000F910895462F4295440F407E61E0FC01E9
:101F200080810C9435101F93CF93DF93EC01162F13
:101F3000462F62E088810E9435101F83DF91CF9188
:101F40001F910895CF93DF93EC0140E760E0888113
:101F50000E94351061E0CE010E948A0F61E0CE013F
:101F6000DF91CF910C94930FAF92BF92CF92DF92FB
:101F7000EF92FF920F931F93CF93DF93EC017B01BE
:101F80005A01690100910A0110910B019C012F5F18
:101F90003F4F46E063E088810E9445108F81813089
:101FA00029F441E062E088810E943510898190E047
:101FB000982F88272A81822BF701918380838D8136
:101FC00090E0982F88272E81822BF50191838083C2
:101FD0008B8190E0982F88272C81822BF6019183AA
:101FE0008083DF91CF911F910F91FF90EF90DF9051
:101FF000CF90BF90AF900895EF92FF920F931F93F1
:10200000CF93DF9300D0CDB7DEB7062F142F682F04
:102010008CE494E029833A830E942B23602F8CE484
:1020200094E00E94D2222981022FE22E3A81F32EDF
:102030008E2D801B811740F4F70161917F018CE4A4
:1020400094E00E94D222F4CF8CE494E00E944823D2
:1020500091E0811190E0892F0F900F90DF91CF9147
:102060001F910F91FF90EF900895CF93DF931F92F0
:10207000CDB7DEB749839E012F5F3F4F41E00E94FD
:10208000FC0F0F90DF91CF9108953F924F925F9296
:102090006F927F928F929F92AF92BF92CF92DF9278
:1020A000EF92FF920F931F93CF93DF9300D000D056
:1020B00000D0CDB7DEB7682E562E742E3A83298312
:1020C0000E94A8256B017C01312C412C872D90E0CA
:1020D0009C838B834801A12CB12C3714B0F5662D5D
:1020E0008CE494E00E942B23652D8CE494E00E9404
:1020F000D2228CE494E00E944823662D8CE494E084
:102100000E942B234B815C814319510941325105B7
:1021100014F040E250E0662D8CE494E00E94282305
:102120008CE494E00E947A22892B59F10115110563
:1021300079F10E94A8256C197D098E099F096815FF
:1021400079058A059B0520F11CC00115110589F14F
:102150000E94A8256C197D098E099F0920E030E0B6
:10216000601771078207930720F1872D90E0242DD7
:10217000332727FD309528173907DCF444244A9487
:1021800018C0872D90E2971508F480E2380EA5CF8D
:10219000E981FA81E40DF11D47FCFA95FE83ED8398
:1021A0008CE494E00E948222ED81FE81808343943E
:1021B000B7CF842D26960FB6F894DEBF0FBECDBFE5
:1021C000DF91CF911F910F91FF90EF90DF90CF9013
:1021D000BF90AF909F908F907F906F905F904F9047
:1021E0003F9008950F931F9389019A0141E00E9447
:1021F00045101F910F910895DF92EF92FF920F9378
:102200001F93CF93DF931F92CDB7DEB7F82EE62E44
:10221000D42E122F20910A0130910B01AE014F5F95
:102220005F4F0E94F210882319F14D2D50E0411BA1
:1022300051094F5F5F4FE1E0F0E002C0EE0FFF1F7A
:102240001A95E2F73197042E01C0EE0F0A94EAF7CF
:1022500001C0000F4A95EAF74E2F40958981482327
:10226000E0234E2B49836E2D8F2D0E94351001C027
:1022700080E00F90DF91CF911F910F91FF90EF9031
:10228000DF9008952F923F924F925F926F927F92CC
:102290008F929F92AF92BF92CF92DF92EF92FF9276
:1022A0000F931F93CF93DF93CDB7DEB72B970FB666
:1022B000F894DEBF0FBECDBF9B878A87DC01D8961E
:1022C000BC91B983B11102C01982E2C00E94A82555
:1022D0006A837B838C839D83EA85FB8580A191A1A2
:1022E000A2A1B3A14A815B816C817D81481B590BFE
:1022F0006A0B7B0B84A595A5A6A5B7A5481759071A
:102300006A077B0708F3028CF38DE02D80809180B3
:10231000A280B380AA85BB855E96ED91FC915F9704
:10232000A501940160817181828193810E9462285C
:102330002B013C01EA85FB8520893189428953893B
:102340000E94402BAA85BB8594962D913D914D917D
:102350005C9197970E9463286B017C01EA85FB855D
:1023600064A375A386A397A324A835A806A917A9D3
:102370009101A8010E94352B18161CF4C101D80147
:1023800018C0AA85BB85D0968D919D910D90BC916A
:10239000A02D8E839F83A887B9879C01AD01C701BB
:1023A000B6010E94292987FF0AC08E819F81A885D6
:1023B000B985EA85FB8584A395A3A6A3B7A3AA85BF
:1023C000BB851C962D913D914D915C911F97C3014A
:1023D000B2010E94402BEA85FB8524A135A146A1CC
:1023E00057A10E9463286B017C01AA85BB85989642
:1023F0002D913D914D915C919B97C501B4010E9437
:102400006228EA85FB8524893589468957890E9497
:10241000402B9B01AC01C701B6010E9462286B01F1
:102420007C019101A8010E94352B1816BCF0AA85E9
:10243000BB85D0962C90D097D1963C90D197D296D0
:102440000C91D297D3961C919101A801B601C701B6
:102450000E94292987FD02C016018701AA85BB8534
:102460005C96ED91FC915D97C101D80180839183C9
:10247000A283B383EA85FB8580A691A6A2A6B3A614
:102480008A819B81AC81BD8180A391A3A2A3B3A3C8
:1024900089812B960FB6F894DEBF0FBECDBFDF91BA
:1024A000CF911F910F91FF90EF90DF90CF90BF9051
:1024B000AF909F908F907F906F905F904F903F90E4
:1024C0002F9008952F923F924F925F926F927F923A
:1024D0008F929F92AF92BF92CF92DF92EF92FF9234
:1024E0000F931F93CF93DF9300D000D0CDB7DEB70B
:1024F0001C012A013B014801590120E030E0A901FB
:10250000C301B2010E94292987FD78C020E030E094
:10251000A901C501B4010E94292987FD6FC020E0EF
:1025200030E0A901C701B6010E94292987FD66C0D4
:10253000F101408251826282738284829582A682F6
:10254000B782C086D186E286F38664A575A586A586
:1025500097A50E94C92920E030E04AE754E40E9490
:10256000302969837A838B839C83F1014486558665
:10257000668677869B01AC01C501B4010E94402BA1
:102580004B015C01F101608B718B828B938B2981F4
:102590003A814B815C81C701B6010E9430296B01F1
:1025A0007C01F101648B758B868B978B808D918D6F
:1025B000019721F5A301920160E070E0CB010E9438
:1025C0006228F1016487758786879787A501940142
:1025D00060E070E0CB010E946228F101608B718B9A
:1025E000828B938BA701960160E070E0CB010E9483
:1025F0006228F101648B758B868B978B0F900F90FF
:102600000F900F90DF91CF911F910F91FF90EF905E
:10261000DF90CF90BF90AF909F908F907F906F9002
:102620005F904F903F902F9008958F929F92AF921E
:10263000BF92CF92DF92EF92FF92CF93DF93EC01A4
:1026400016161706ACF56B01EE24D7FCE094FE2CB1
:10265000C701B6010E94CB294B015C016CA57DA589
:102660008EA59FA50E94C9299B01AC01C501B4019B
:102670000E9430294B015C019B01AC01688979897A
:102680008A899B890E94402B688B798B8A8B9B8BD4
:10269000A50194016C897D898E899F890E943029CA
:1026A0006C8B7D8B8E8B9F8BCCA6DDA6EEA6FFA6BA
:1026B000DF91CF91FF90EF90DF90CF90BF90AF90E0
:1026C0009F908F9008952F923F924F925F926F92BA
:1026D0007F928F929F92AF92BF92CF92DF92EF92B2
:1026E000FF920F931F93CF93DF93EC016A017B015D
:1026F00048015901A9019801C701B6010E94352B73
:1027000087FF4EC0C8AAD9AAEAAAFBAA8CAA9DAA8A
:10271000AEAABFAA88AD882309F442C02C8C3D8C98
:10272000F1014080518062807380A5019401C30152
:10273000B2010E94352B181634F4F1018082918287
:10274000A282B3820DC0A7019601C301B2010E940B
:10275000292987FF05C0F101C082D182E282F3827C
:102760008CA09DA0AEA0BFA0CCA8DDA8EEA8FFA81D
:10277000A7019601C501B4010E94352B181664F01B
:10278000C8A8D9A8EAA8FBA8A7019601C501B40169
:102790000E94292987FF04C0CCA2DDA2EEA2FFA2DD
:1027A000DF91CF911F910F91FF90EF90DF90CF902D
:1027B000BF90AF909F908F907F906F905F904F9061
:1027C0003F902F9008958F929F92AF92BF92CF9299
:1027D000DF92EF92FF92CF93DF93EC01EC8DFD8DB2
:1027E000C080D180E280F380CCA2DDA2EEA2FFA265
:1027F000EA8DFB8D80819181A281B38188A799A701
:10280000AAA7BBA78CA89DA8AEA8BFA8A5019401A4
:10281000C701B6010E94352B181664F088A899A844
:10282000AAA8BBA8A5019401C701B6010E94292945
:1028300087FF04C08CA29DA2AEA2BFA2DF91CF9160
:10284000FF90EF90DF90CF90BF90AF909F908F90D0
:1028500008951F93CF93DF93EC0111E06130710570
:1028600009F010E088AD91E08927181303C0CE016C
:102870000E94E31318AFDF91CF911F9108950F933A
:102880001F93CF93DF93EC018B0188AD882361F117
:10289000888D998D6817790739F12C853D854E858E
:1028A0005F8560E070E0CB010E9462286C877D87C5
:1028B0008E879F87288939894A895B8960E070E023
:1028C000CB010E946228688B798B8A8B9B8B2C8929
:1028D0003D894E895F8960E070E0CB010E946228EB
:1028E0006C8B7D8B8E8B9F8B198F088FDF91CF9197
:1028F0001F910F9108954F925F926F927F928F92E6
:102900009F92AF92BF92CF92DF92EF92FF920F937E
:102910001F93CF93DF9300D000D0CDB7DEB74C012B
:1029200027013801A982BA82CB82DC82FC01558F53
:10293000448F738F628F378F268F10AE10AA11AA23
:1029400012AA13AA80E090E0AFE7B3E484AB95ABA2
:10295000A6ABB7AB84E690E0A0E0B0E084A795A773
:10296000A6A7B7A76B8D7C8DC4010E943F14CF88AA
:10297000D88CE98CFA8C09811A812B813C81B301B6
:10298000A201C4010E9462120E94A825F40144A47D
:1029900055A466A477A4641975098609970960A3EC
:1029A00071A382A393A30F900F900F900F90DF91CC
:1029B000CF911F910F91FF90EF90DF90CF90BF903C
:1029C000AF909F908F907F906F905F904F90089501
:1029D000FC0160817181828193810895FC01648191
:1029E0007581868197810895FC0160857185828556
:1029F000938508950F931F93FC010FEF1FEF98012C
:102A000000831183228333831086118612861386F6
:102A10004FEF59EC6AE97BE3408B518B628B738BF0
:102A2000408F518F628F738F40A351A362A373A312
:102A300040A751A762A773A740AB51AB62AB73AB82
:102A400000AF11AF22AF33AFDC01A05CBF4F8FEFFF
:102A500090E011969C938E9314960D931D932D9355
:102A60003C93139718960D931D932D933C931397B6
:102A700018961C9211961C92509682E08C93119697
:102A80001C9211961C9211961C9211961D921D92E9
:102A90001D921C921397149611961C921E921296D8
:102AA0001D921C92EA5AFF4F10821F910F910895B8
:102AB0002FEB260F862F992787FD9095263010F44F
:102AC000C79708956156663018F48755910908959F
:102AD000C09708950F931F93FB0160E070E0CB0156
:102AE000019120ED200F2A30A0F4AAE0B0E09B0174
:102AF000AC010E944028112707FD1095212F312F8E
:102B0000600F711F821F931F605371098109910922
:102B1000E7CF1F910F9108950F931F93CF93FC015F
:102B2000EA5AFF4FC1E020812D3219F0C0E08F0139
:102B300003C08C01095A1F4FB8010E946A159B01FE
:102B4000AC01A4E6B0E00E944028F801DF01219129
:102B500030ED320F3A30D0F32E3269F511962C91C8
:102B6000119730ED320F3A3030F5332727FD30958D
:102B7000205331094AE0429F8001439F100D1124E8
:102B8000222717FD2095322F600F711F821F931F80
:102B900012960C9120ED200F2A3068F4112707FDC2
:102BA000109500531109222717FD2095322F600F31
:102BB000711F821F931FCC2339F0909580957095DB
:102BC00061957F4F8F4F9F4FCF911F910F91089528
:102BD0004F925F926F927F928F929F92AF92BF922D
:102BE000CF92DF92EF92FF92CF93DF93EC01CA5A1C
:102BF000DF4FBE010E946A152B013C0124E630E044
:102C000040E050E00E94F9279B01AC0160EA76E8C1
:102C100081E090E00E94C1276B017C01FE0181915F
:102C200090ED980F9A30D8F38E3219F5EF0180E1CC
:102C3000882E87E2982EA12CB12CA99180ED8A0FC5
:102C40008A30B8F4BB27A7FDB095D097A5019401B1
:102C50000E944B28C60ED71EE81EF91EC501B401FE
:102C60002AE030E040E050E00E94F92749015A0193
:102C7000E4CFC701B6016D5F7F4F8F4F9F4F26E0B6
:102C800030E040E050E00E94F92769017A01C30179
:102C9000B20124E630E040E050E00E94F92760E411
:102CA00072E48FE090E00E94C127C60ED71EE81E96
:102CB000F91EC701B601DF91CF91FF90EF90DF9031
:102CC000CF90BF90AF909F908F907F906F905F90CC
:102CD0004F900895DB01FA018D91882319F09191AD
:102CE0008917D1F3992787FD90950895CF92DF92A8
:102CF000EF92FF921F93CF93DF93EC01FC01EB5A0D
:102D0000FF4F1081112309F4A9C0319660810E9400
:102D10005815182FFE01E95AFF4F6081CE010E941D
:102D2000581540E1149F800D1124FE01EC5AFF4F0D
:102D3000908189138AC074961081112309F458C1B7
:102D4000359680819181019691838083B5978081AA
:102D50009181A281B381349780839183A283B383CD
:102D60003C9680819181A281B38134978083918345
:102D7000A283B383799680818823A1F1813009F001
:102D800037C18C819D81AE81BF8188839983AA835D
:102D9000BB838C859D85AE85BF8588879987AA87EB
:102DA000BB878C899D89AE89BF89888B998BAA8BBB
:102DB000BB8B8C8D9D8DAE8DBF8D888F998FAA8F8B
:102DC000BB8F8CA59DA5AEA5BFA588A799A7AAA7CF
:102DD000BBA78CA99DA9AEA9BFA988AB99ABAAAB8B
:102DE000BBAB06C18CA19DA1AEA1BFA188A399A335
:102DF000AAA3BBA38C819D81AE81BF818883998367
:102E0000AA83BB838C899D89AE89BF89888B998B66
:102E1000AA8BBB8B8C8D9D8DAE8DBF8D888F998F2E
:102E2000AA8FBB8FFE01E05CFF4FDE01AE5BBF4FA0
:102E30008D919C91918380838CAD9DADAEADBFADE6
:102E400088AF99AFAAAFBBAFD3C0C159DF4F88815C
:102E5000998101969983888310E0CAC0FC01EA59E0
:102E6000FF4F30818B599F4F7C0131111DC06E0186
:102E700096E5C90ED11C43EB52E0B601CE010E948B
:102E80006A16892B11F481E00CC049EB52E0B601BF
:102E9000CE010E946A16892B19F4F7011082A8C08E
:102EA00082E0D7018C93A4C0DC01EC91E23009F4FC
:102EB0009FC0CE018A5A9F4FDC012C91222309F436
:102EC00097C0B0E2EB9FF0011124E32B3197E93278
:102ED000F10508F08DC0EC5CFF4F0C943A28CE0150
:102EE0000E948C156C837D838E839F830E94A8250E
:102EF000C85BDF4F12C0C859DF4F81E0213409F0B1
:102F00005DC05DC0CE010E94E8156C8B7D8B8E8B01
:102F10009F8B0E94A825C05BDF4F688379838A83DB
:102F20009B8366C0233509F063C08C899D89AE8977
:102F3000BF89B095A095909581959F4FAF4FBF4F9A
:102F40008C8B9D8BAE8BBF8B53C0CE010E94E8153E
:102F50006C8F7D8F8E8F9F8F4BC0273509F048C0B7
:102F60008C8D9D8DAE8DBF8DB095A09590958195E2
:102F70009F4FAF4FBF4F8C8F9D8FAE8FBF8F38C08D
:102F8000CE010E948C156CA77DA78EA79FA730C08D
:102F9000CE010E948C156CAB7DAB8EAB9FAB28C075
:102FA000BC01CE010E946A156C877D878E879F8742
:102FB0001FC0C859DF4F81E021330CF480E08883C3
:102FC00017C00E94362DCE5BDF4F992799838883E7
:102FD0000FC0CE010E948C156CAF7DAF8EAF9FAF3E
:102FE00007C0CE010E948C156CA37DA38EA39FA366
:102FF000812FDF91CF911F91FF90EF90DF90CF90C5
:103000000895CF92DF92EF92FF920F931F93CF9389
:10301000DF931F92CDB7DEB76C01262FFC01E75975
:10302000FF4F40815181628173814F5F5F4F6F4FCE
:103030007F4F40835183628373838C0109591F4FF3
:103040008B5A9F4F7C01243281F12CF42A3069F095
:103050002D30E9F50AC02A3241F02C32C1F5F601D3
:10306000EC5AFF4F808182278083F80180818F3066
:1030700060F4F601E80FF11DEA5AFF4F1082C60115
:1030800029830E947616298101C080E0F601EA5961
:10309000FF4F90819F5F9083F801108291E02A3268
:1030A00009F090E0F70190832AC0F8011082F60140
:1030B000EA59FF4F108272971082719682E08083E6
:1030C000F7011082F601E859FF4F108217C0F8018E
:1030D00080818E3048F491E0980F9083F601E80FDC
:1030E000F11DEA5AFF4F2083F7018081811106C04C
:1030F000F601EC5AFF4F80818227808380E00F9099
:10310000DF91CF911F910F91FF90EF90DF90CF90C3
:103110000895CF92DF92EF92FF920F931F93CF9378
:10312000DF93E9016115710551F0FC01C088D18878
:10313000E288F388FB01C082D182E282F3824115EA
:10314000510551F0FC01C08CD18CE28CF38CFA015A
:10315000C082D182E282F382209701F18C01045B6C
:103160001F4FF80180819181A281B3818F3F9F4FD2
:10317000AF4FBF4F61F00E94A825F8010081118177
:1031800022813381601B710B820B930B03C06FEFA5
:103190007FEFCB01688379838A839B83DF91CF9113
:1031A0001F910F91FF90EF90DF90CF900895AF9215
:1031B000BF92CF92DF92EF92FF920F931F93CF9324
:1031C000DF93CDB7DEB728970FB6F894DEBF0FBEFA
:1031D000CDBF5B018A01AE014F5F5F4FBE016B5FE8
:1031E0007F4F0E948918CD80DE80EF80F8848FEFBA
:1031F000C81689ECD8068AE9E8068BE3F80659F088
:10320000C701B6010E94CB2920E034E244E759E42B
:103210000E94302904C060E070E08AE794E4F50180
:103220006083718382839383FFEFCF16F9ECDF060F
:10323000FAE9EF06FBE3FF0669F069817A818B8189
:103240009C810E94CB2920E034E244E759E40E94AB
:10325000302904C060E070E08AE794E4F8016083FC
:1032600071838283938328960FB6F894DEBF0FBED6
:10327000CDBFDF91CF911F910F91FF90EF90DF9025
:10328000CF90BF90AF900895FC0160A171A182A181
:1032900093A16F3FF9EC7F07FAE98F07FBE39F07E4
:1032A00049F00E94CB2920E030E048EC52E40E9433
:1032B0003029089560E074E284E799E40895FC0100
:1032C00012828FEF8183108213820895FC01838123
:1032D000882331F0611103C08FEF8183089511823B
:1032E0000895CF93DF93EC016A838CE494E00E940D
:1032F000112341E06A818CE494E00E94282391E04C
:10330000811101C090E09B838CE494E00E948222B2
:1033100088838B8190E0DF91CF910895CF93DF93E5
:10332000EC018B818823A9F089818095862388838D
:103330006A818CE494E00E942B2368818CE494E001
:103340000E94D2228CE494E00E944823282F30E08F
:1033500002C020E030E081E090E0232B11F080E01B
:1033600090E0DF91CF91089508950895DC01ED91EB
:10337000FC910284F385E02D41E0099581E090E025
:103380000895FC01138212822DEE32E031832083F6
:103390000895DC01ED91FC910084F185E02D6FEF43
:1033A0000994DC01ED91FC910284F385E02D40E06D
:1033B000099461E00E94D11980ED97E00C94FF25FB
:1033C00062E00E94D11980ED97E00C94FF25CF9325
:1033D000DF93CDB7DEB728970FB6F894DEBF0FBEE8
:1033E000CDBF1D8220E42E8334E13F8334E538874E
:1033F00019822A8320E12B8320E52C83FC0127817D
:10340000421710F04FEF420FFC01308550E0FE01F3
:10341000E40FF51F303121F4243011F4218101C073
:103420002581260F2068622F28960FB6F894DEBFFC
:103430000FBECDBFDF91CF910C94D119FC016581F6
:10344000262F246025836C600C94D119CF93DF93D1
:10345000EC01423018F08C8188608C834F83688740
:10346000222329F0413019F48C8184608C8364E636
:1034700070E080E090E00E94D7256C8164FD31C04F
:10348000E881F9810284F385E02D42E063E0CE011A
:10349000099584E991E10E94FF25E881F981028480
:1034A000F385E02D42E063E0CE01099584E991E1E6
:1034B0000E94FF25E881F9810284F385E02D42E036
:1034C00063E0CE01099586E990E00E94FF25E8813E
:1034D000F9810284F385E02D42E062E0CE01099596
:1034E00016C06062CE010E94D11984E991E10E9468
:1034F000FF256C816062CE010E94D11986E990E0BF
:103500000E94FF256C816062CE010E94D1196C81FE
:103510006062CE010E94D11984E08D83CE010E94A9
:103520001E1ACE010E94D91982E08E8366E0CE0178
:103530000E94D119CE01DF91CF910C94C91921E0DD
:1035400001C0220F6A95EAF7DC011C962C931C97A8
:103550001A965C934E931997ED91FC910084F18536
:10356000E02D60E00994FC012485222399F08185F7
:103570009285009719F4611105C006C0019721F4E6
:10358000611102C0258701C015866585CF010E96A1
:103590000C948E1908950F931F93CF93DF93EC0132
:1035A0008C01025F1F4F6B85C8010E947119019742
:1035B00061F461E0C8010E9466191C8260E0C801E4
:1035C0000E948E1981E090E002C080E090E0DF91DF
:1035D000CF911F910F9108958F92AF92CF92EF925A
:1035E0000F93CF93DF93CDB7DEB7FC0163871486CB
:1035F00015861286118681E0982F01C0990F4A9591
:10360000EAF7928B982F01C0990F2A95EAF7938BCE
:10361000982F01C0990F0A95EAF7948B982F01C053
:10362000990FEA94EAF7958B982F01C0990FCA94E5
:10363000EAF7968B982F01C0990FAA94EAF7978B17
:1036400001C0880F8A94EAF7808FDF91CF910F91A4
:10365000EF90CF90AF908F9008956F927F928F925E
:10366000AF92CF92EF920F93CF93DF9300D01F9240
:10367000CDB7DEB73C012B834A8369830E94C11911
:103680008DEF92E0F30191838083C3010E960E9437
:103690005F192B814A816981C3010E94EC1A0F9046
:1036A0000F900F90DF91CF910F91EF90CF90AF904F
:1036B0008F907F906F900895FF920F931F93CF93F9
:1036C000DF93EC01F62E8C01025F1F4F6A896F2990
:1036D000C8010E948E196A8960956F21C801DF9127
:1036E000CF911F910F91FF900C948E1920E030E044
:1036F00050E060FF05C0FC01E20FF31F7589572BF6
:1037000066952F5F3F4F2430310599F7413011F412
:10371000FC014489FC016585652B642B0C945C1BC2
:103720000F931F93CF93DF93EC01142F062F0F708D
:10373000423011F440E00AC070E084E0759567956E
:103740008A95E1F7CE010E94761B412F602FCE01B2
:10375000DF91CF911F910F910C94761B0F931F93C4
:10376000CF93DF9300D01F92CDB7DEB78C012B83B0
:103770004A8369830E94CB1A2B814A816981C801DF
:103780000F900F900F90DF91CF911F910F910C949C
:10379000261A0E94312D089586E493E00C94C60BFE
:1037A00086E493E00C94E60A0E9409260E94CB1B53
:1037B0000E94CC1BC0E1DCE10E94D01B2097E1F30A
:1037C0000E94101CF9CFFC01818D228D90E0805C5D
:1037D0009F4F821B91098F7399270895FC01918D4A
:1037E000828D981731F0828DE80FF11D858D90E064
:1037F00008958FEF9FEF0895FC01918D828D9817AA
:1038000061F0828DDF01A80FB11D5D968C91928DC4
:103810009F5F9F73928F90E008958FEF9FEF0895C1
:1038200080E89DE1892B49F080E090E0892B29F028
:103830000E94801D81110C9400000895FC01848D6C
:10384000DF01A80FB11DA35ABF4F2C91848D90E0CA
:1038500001968F739927848FA689B7892C93A089A5
:10386000B1898C9180648C93938D848D981306C05C
:103870000288F389E02D80818F7D80830895CF9326
:10388000DF93EC01888D8823C9F0EA89FB89808168
:1038900085FD05C0A889B9898C9186FD0FC00FB63A
:1038A00007FCF5CF808185FFF2CFA889B9898C917B
:1038B00085FFEDCFCE010E941E1CE7CFDF91CF9197
:1038C0000895CF92DF92FF920F931F93CF93DF93D0
:1038D0001F92CDB7DEB76C01DC015B969C915B97C4
:1038E0005C968C915C97981307C05096ED91FC9173
:1038F0005197808185FD32C0F601038D10E00F5F86
:103900001F4F0F731127F02EF601848DF81211C08E
:103910000FB607FCF9CFD6015096ED91FC91519767
:10392000808185FFF1CFC60169830E941E1C6981D9
:10393000EBCF838DE80FF11DE35AFF4F6083D60173
:103940005B960C935B975296ED91FC915397808117
:103950008062808381E058968C930DC0D601569684
:10396000ED91FC91579760835096ED91FC915197A2
:1039700080818064808381E090E00F90DF91CF911F
:103980001F910F91FF90DF90CF900895BF92CF923B
:10399000DF92EF92FF92CF93DF93EC016A017B01FC
:1039A000B22EE889F98982E08083411581EE5807BB
:1039B00061057105A1F060E079E08DE390E0A70179
:1039C00096010E94F9272150310941095109569564
:1039D000479537952795211580E1380798F0E889B4
:1039E000F989108260E874E88EE190E0A701960101
:1039F0000E94F927215031094109510956954795EF
:103A000037952795EC85FD853083EE85FF852083EE
:103A1000188EEC89FD89B082EA89FB8980818061FA
:103A20008083EA89FB89808188608083EA89FB89B9
:103A3000808180688083EA89FB8980818F7D808393
:103A4000DF91CF91FF90EF90DF90CF90BF900895DE
:103A50001F920F920FB60F9211242F938F939F9363
:103A6000EF93FF93E0917B03F0917C038081E091E1
:103A70008103F091820382FD12C0908180918403C2
:103A80008F5F8F7320918503821751F0E09184033B
:103A9000F0E0E559FC4F958F8093840301C080814D
:103AA000FF91EF919F918F912F910F900FBE0F90EB
:103AB0001F9018951F920F920FB60F9211242F93FB
:103AC0003F934F935F936F937F938F939F93AF93A6
:103AD000BF93EF93FF938BE693E00E941E1CFF9130
:103AE000EF91BF91AF919F918F917F916F915F9176
:103AF0004F913F912F910F900FBE0F901F901895EF
:103B00008BE693E00E94E31B21E0892B09F420E07F
:103B1000822F089510926E0310926D0388EE93E049
:103B2000A0E0B0E080936F0390937003A0937103C3
:103B3000B09372038DE093E090936C0380936B03DA
:103B400085EC90E0909378038093770384EC90E089
:103B500090937A038093790380EC90E090937C03B8
:103B600080937B0381EC90E090937E0380937D03B0
:103B700082EC90E09093800380937F0386EC90E04A
:103B800090938203809381031092840310928503A3
:103B900010928603109287030895CF92DF92EF92DE
:103BA000FF920F931F93CF93DF936C017A01EB0188
:103BB000E60EF71E00E010E0CE15DF0561F069911A
:103BC000D601ED91FC910190F081E02DC60109959F
:103BD000080F191FF1CFC801DF91CF911F910F91ED
:103BE000FF90EF90DF90CF9008956115710581F0FF
:103BF000DB010D900020E9F7AD0141505109461B52
:103C0000570BDC01ED91FC910280F381E02D0994CA
:103C100080E090E008950C94F51DDC01ED91FC919D
:103C20000190F081E02D09940F931F93CF93DF93C0
:103C3000EC016DE00E940D1E8C016AE0CE010E9435
:103C40000D1E800F911FDF91CF911F910F9108954D
:103C50000F931F93CF93DF93EC010E94F51D8C010E
:103C6000CE010E94141E800F911FDF91CF911F91F2
:103C70000F9108958F929F92AF92BF92CF92DF9251
:103C8000EF92FF920F931F93CF93DF93CDB7DEB7E1
:103C9000A1970FB6F894DEBF0FBECDBF7C01C42E36
:103CA000E52FCB01D22E19A221E02D1510F02AE02C
:103CB000D22E8E010F5D1F4F8D2C912CA12CB12C7B
:103CC0006C2D7E2FA50194010E94F9278C2DD29E88
:103CD00080191124015011098A3014F4805D01C04B
:103CE000895CF8018083211531054105510521F0DA
:103CF000C22EE32FCA01E4CFB801C7010E94F51D0F
:103D0000A1960FB6F894DEBF0FBECDBFDF91CF9165
:103D10001F910F91FF90EF90DF90CF90BF90AF90E9
:103D20009F908F900895CF92DF92EF92FF920F9322
:103D30001F93CF93DF93EC016A017B0121153105BD
:103D400079F4E881F9810190F081E02D642FDF9111
:103D5000CF911F910F91FF90EF90DF90CF9009943A
:103D60002A303105E9F477FF1AC06DE20E940D1E7A
:103D70008C0144275527BA014C195D096E097F094A
:103D80002AE0CE010E943A1E800F911FDF91CF9151
:103D90001F910F91FF90EF90DF90CF9008952AE050
:103DA000B701A601CE01DF91CF911F910F91FF9036
:103DB000EF90DF90CF900C943A1E2115310541F41D
:103DC000DC01ED91FC910190F081E02D642F0994CC
:103DD0000C943A1E0F931F93CF93DF93EC010E9434
:103DE000DD1E8C01CE010E94141E800F911FDF91F9
:103DF000CF911F910F9108954F925F926F927F9292
:103E00008F929F92AF92BF92CF92DF92EF92FF92EA
:103E10000F931F93CF93DF93EC016A017B01B22EC6
:103E20009A01AB01C701B6010E94EE2B882319F05D
:103E300069E173E027C026013701E89477F82FEF96
:103E40003FEF4FE75FE7C301B2010E94EE2B811104
:103E50000DC02FEF3FEF4FE75FE7C301B2010E94B4
:103E6000292918161CF46DE173E00CC02FEF3FEF09
:103E70004FE75FE4C701B6010E94352B1816ACF47A
:103E800061E273E0CE01DF91CF911F910F91FF901E
:103E9000EF90DF90CF90BF90AF909F908F907F90EA
:103EA0006F905F904F900C94F51D2FEF3FEF4FE711
:103EB0005FECC701B6010E94292987FDE1CF20E010
:103EC00030E0A901C701B6010E94292987FF0AC075
:103ED0006DE2CE010E940D1E8C01F7FAF094F7F806
:103EE000F09402C000E010E0A12C60E070E080E0FF
:103EF0009FE3AB1441F020E030E040E251E40E9447
:103F00003029A394F6CF9B01AC01C701B6010E94F2
:103F100063286B017C010E949D292B013C010E94BA
:103F2000C9299B01AC01C701B6010E9462286B013F
:103F30007C012AE0B301A201CE010E943A1E080FC3
:103F4000191FBB2039F063E672E0CE010E94F51D17
:103F5000080F191F7B2C772041F120E030E040E270
:103F600051E4C701B6010E94402B6B017C010E9405
:103F700098294B01AA2497FCA094BA2C2AE030E09F
:103F8000B501A401CE010E94931E080F191FC5019F
:103F9000B4010E94CB299B01AC01C701B6010E946C
:103FA00062286B017C017A94D6CFC801DF91CF9152
:103FB0001F910F91FF90EF90DF90CF90BF90AF9047
:103FC0009F908F907F906F905F904F9008950C948A
:103FD000FC1E0F931F93CF93DF93EC010E94FC1EF6
:103FE0008C01CE010E94141E800F911FDF91CF9192
:103FF0001F910F9108950E94312D20914A04309114
:104000004B0428173907B9F49091080480910904EA
:10401000981789F0E0910804F0E0E65FFB4F80819B
:104020002091080430E02F5F3F4F2F7333272093F8
:10403000080490E008958FEF9FEF08951F93CF93AA
:10404000DF93DC015C968D919C915D97009749F41C
:1040500081E090E013969C938E93129780E090E01D
:104060003BC05196ED91FC91529750962C915097F0
:10407000322F30951FB75E964C915E9741FB7727A4
:1040800070F941FD6095F8944081772311F0422B3F
:1040900001C043234083EC012197F1F748E05081B0
:1040A00060FF02C0522B01C053235083EC012197C3
:1040B000F1F76695415099F78081772311F08323BA
:1040C00001C0822B80831FBF5C968D919C915D9770
:1040D0000197F1F781E090E0DF91CF911F91089572
:1040E00020914A0430914B042817390781F49091AC
:1040F000080480910904981751F0E0910804F0E059
:10410000E65FFB4F8081992787FD909508958FEF9B
:104110009FEF089520914A0430914B0428173907E6
:1041200071F4809109042091080490E0805C9F4F15
:10413000821B910960E470E00E94E527089580E009
:1041400090E0089520914A0430914B0428173907D4
:1041500039F48FB7F89410920904109208048FBFB5
:104160000895E0914A04F0914B04E817F90769F4C7
:10417000A389B4899C918589809589238C93109219
:104180004B0410924A0481E0089580E00895CF9393
:10419000DF93EC018A8D9B8D892BF1F080914A048D
:1041A00090914B048C179D07B9F0009711F00E9475
:1041B000B1208E8D8E7F8E8F10920904109208048C
:1041C000D0934B04C0934A04EB89FC8980819D897C
:1041D000892B808381E001C080E0DF91CF91089539
:1041E0001F920F920FB60F9211242F933F934F936C
:1041F0005F936F937F938F939F93AF93BF93EF934F
:10420000FF93E0914A04F0914B04309709F451C0B8
:10421000868DA685B785958581FF04C08C918923FD
:1042200029F447C08C91892309F043C0A389B4893C
:104230009C918589809589238C938689978901979C
:10424000F1F7208D318DA685B785758558E040E062
:10425000C9010197F1F7842F90E095958795482F34
:104260006C91672309F04068515091F7868D81FD6C
:1042700040958091090490E001968F7399272091D1
:104280000804281749F0A0910904B0E0A65FBB4FCD
:104290004C938093090403C0868D8160868F828D44
:1042A000938D0197F1F7A389B4898C919589892B16
:1042B0008C93FF91EF91BF91AF919F918F917F91DF
:1042C0006F915F914F913F912F910F900FBE0F9083
:1042D0001F9018951F93CF93DF93EC01162F6E8DCF
:1042E0006695617081E06827812F0E94052761E053
:1042F000812F0E94CC26812F90E0FC01E65EFE4FCC
:10430000E491E88BFC01E25DFE4FE491F0E0EE0FFA
:10431000FF1FE45BFE4F859194919A8B898BDF910F
:10432000CF911F9108951F93CF93DF93EC01162F28
:1043300060E0812F0E94CC268E8D81FD04C061E05B
:10434000812F0E9405271C87812F90E0FC01E65EEB
:10435000FE4FE491ED87FC01E25DFE4FE491F0E059
:10436000EE0FFF1FEE5BFE4F859194919F878E8726
:10437000DF91CF911F910895FF920F931F93CF93D9
:10438000DF93EC01F62E522F1B821A8208EE13E007
:1043900020E030E00C831D832E833F8389E293E08D
:1043A000998388831F8A1E8A198E188E1B8E1A8EF7
:1043B0001D8E1C8E8E8D8E7F50FB81F98E8F642F0B
:1043C000CE010E946A216F2DCE01DF91CF911F9106
:1043D0000F91FF900C949321CF93DF93EC019A01FE
:1043E000AB011B8E1A8E198E188E1F8A1E8A60E0F2
:1043F00079E08DE390E00E941B28C901243031054B
:1044000020F0B9016350710902C061E070E07D8F56
:104410006C8FEC85E63108F068C0B9017695679538
:104420006431710518F06351710902C061E070E0F8
:104430007F8B6E8B069718F0C901059702C081E04B
:1044400090E0998F888FC901880F991F820F931F61
:1044500096958795969587958D30910510F00C97D8
:1044600002C081E090E09B8F8A8F20916800E83045
:1044700050F091E0EE3008F490E081E001C0880F48
:104480009A95EAF701C084E0822B809368002C851E
:10449000283038F02E3040F0263148F48CE690E099
:1044A00008C08DE690E005C08BE690E002C080E099
:1044B00090E09C8B8B8B283030F481E001C0880F1A
:1044C0002A95EAF70DC0822F90E02E3010F408975D
:1044D00001C00E9791E001C0990F8A95EAF7892FE4
:1044E0008D8B8C8D9D8D0197F1F7CE01DF91CF9152
:1044F0000C94C72080917C0490E020917D04821B65
:104500009109089520917D0480917C04281750F42E
:10451000E22FF0E0E258FB4F808190E02F5F209384
:104520007D0408958FEF9FEF0895E0917D048091C1
:104530007C04E81730F4F0E0E258FB4F808190E013
:1045400008958FEF9FEF08950895CF92DF92EF9235
:10455000FF920F931F93CF93DF937C01CB018A01CE
:1045600020915804222389F0EB016B01C40ED51E63
:10457000CC15DD0569F06991D701ED91FC910190B1
:10458000F081E02DC7010995F3CF642F0E94042428
:10459000C801DF91CF911F910F91FF90EF90DF90B5
:1045A000CF900895CF93DF931F92CDB7DEB7698385
:1045B000209158042223D1F020915904203240F058
:1045C00021E030E0FC013383228380E090E015C0DD
:1045D00080915A04E82FF0E0E55AFB4F99819083CF
:1045E0008F5F80935A048093590405C061E0CE0127
:1045F00001960E94042481E090E00F90DF91CF911A
:104600000895FC011382128248EE53E060E070E0EE
:10461000448355836683778389E393E09183808322
:10462000089510927D0410927C0410925A04109206
:1046300059040C944F23862F413208F040E26EE774
:1046400074E00E946D2310927D0480937C04089591
:1046500021E00C941B2381E08093580460937B0439
:1046600010925A041092590408950F93062F21E0D6
:10467000409159046BE574E080917B040E94B12362
:1046800010925A0410925904109258040F910895F0
:1046900061E00C9435238CE494E00C940123109297
:1046A0000B0581E0809309051092080561E082E125
:1046B0000E94052761E083E10E940527E9EBF0E015
:1046C00080818E7F808380818D7F808388E480934A
:1046D000B80085E48093BC000895413208F03FC0E3
:1046E00090910B059111FCCF91E090930B052093D5
:1046F00009052FEF20939E041092E304240F2093CA
:10470000E20490930A0590910A05880F892B809303
:104710000A0580910805813041F4109208058091C6
:104720000A058093BB0085EC01C085EE8093BC0038
:1047300080910B058130E1F38091E304841710F43C
:104740004091E30424EE34E0FB01D9018A2F821B5F
:10475000841718F48D918193F9CF842F089580E008
:1047600008950F93413208F046C090910B059111C6
:10477000FCCF92E090930B05009309059FEF909377
:104780009E041092E3044093E204FB0164EE74E0A3
:10479000DB019A2F961B941718F491919D93F9CFF2
:1047A00010920A0590910A05880F892B80930A05BB
:1047B00080910805813041F41092080580910A0526
:1047C0008093BB0085EC01C085EE8093BC00222362
:1047D00021F080910B058230E1F380919E048F3FA0
:1047E00061F080919E04803251F080919E0480336C
:1047F00041F483E007C081E005C080E003C082E0AF
:1048000001C084E00F910895613298F420910B0566
:10481000243089F46093C004FC0182EC94E0DC0154
:104820002A2F281B261718F421912D93F9CF80E009
:10483000089581E0089582E0089585ED8093BC009D
:104840008091BC0084FDFCCF10920B05089585EC8F
:104850008093BC0010920B0508951F920F920FB623
:104860000F9211242F933F934F935F936F937F93F6
:104870008F939F93AF93BF93EF93FF938091B90072
:10488000887F803609F49CC068F5883209F45BC0E3
:1048900090F4803109F454C038F4882309F4F5C049
:1048A000883009F44DC0F5C0883109F44CC080321D
:1048B00009F45DC0EEC0803409F468C048F4803368
:1048C00009F455C0883309F0E4C080939E04A8C061
:1048D000803509F44FC0883509F45DC0883409F08B
:1048E000D8C0D5C0883909F4C6C0A8F4883709F4FF
:1048F00067C038F4883609F463C0803709F460C0B3
:10490000C8C0883809F4B7C0803909F45FC080385E
:1049100009F0BFC05BC0803B09F485C038F4803A21
:1049200009F466C0883A09F47EC0B3C0803C09F43B
:10493000A6C0883C09F4A3C0883B09F489C0A9C07B
:1049400080910A0510C09091E3048091E2049817C9
:1049500070F5E091E30481E08E0F8093E304F0E0D2
:10496000EC51FB4F80818093BB0085EC85C0809328
:104970009E048DC0E091E30481E08E0F8093E304F8
:104980008091BB00F0E0EC51FB4F80839091E304F9
:104990008091E2046DC0E091E30481E08E0F80938A
:1049A000E3048091BB00F0E0EC51FB4F80838091E9
:1049B000090581116CC081E08093080584EA60C01C
:1049C00083E080930B0510929F04CFCF80919F04CA
:1049D000803208F050C0E0919F0481E08E0F8093F8
:1049E0009F048091BB00F0E0E056FB4F8083BDCF79
:1049F00080919F04803230F4E0919F04F0E0E05613
:104A0000FB4F10820E941D2460919F0470E0E09192
:104A10000405F091050580EA94E0099510929F0441
:104A20000E94272436C084E080930B051092C104B5
:104A30001092C004E0910605F09107050995809158
:104A4000C004811105C081E08093C0041092C204AB
:104A5000E091C10481E08E0F8093C104F0E0EE5339
:104A6000FB4F80818093BB009091C1048091C00472
:104A7000981708F47ACF85E88093BC000AC085ECCB
:104A80008093BC0010920B0504C010929E040E94FB
:104A90001D24FF91EF91BF91AF919F918F917F91D5
:104AA0006F915F914F913F912F910F900FBE0F909B
:104AB0001F9018950C940A2C0C94A22C1F920F9204
:104AC0000FB60F9211242F933F938F939F93AF9321
:104AD000BF9380910D0590910E05A0910F05B091A7
:104AE000100530910C0523E0230F2D3720F401969B
:104AF000A11DB11D05C026E8230F0296A11DB11D01
:104B000020930C0580930D0590930E05A0930F053F
:104B1000B09310058091110590911205A091130595
:104B2000B09114050196A11DB11D809311059093BC
:104B30001205A0931305B0931405BF91AF919F91F7
:104B40008F913F912F910F900FBE0F901F9018954E
:104B50002FB7F89460910D0570910E0580910F05A7
:104B6000909110052FBF08953FB7F89480911105DB
:104B700090911205A0911305B091140526B5A89B3C
:104B800005C02F3F19F00196A11DB11D3FBF66273B
:104B9000782F892F9A2F620F711D811D911D42E080
:104BA000660F771F881F991F4A95D1F70895CF92F6
:104BB000DF92EF92FF92CF93DF936B017C010E9413
:104BC000B425EB01C114D104E104F10489F00E9481
:104BD000C0270E94B4256C1B7D0B683E734090F388
:104BE00081E0C81AD108E108F108C851DC4FEACFCA
:104BF000DF91CF91FF90EF90DF90CF9008950197D4
:104C000039F0880F991F880F991F02970197F1F7C4
:104C10000895789484B5826084BD84B5816084BD34
:104C200085B5826085BD85B5816085BDEEE6F0E025
:104C3000808181608083E1E8F0E010828081826081
:104C40008083808181608083E0E8F0E08081816002
:104C50008083E1EBF0E0808184608083E0EBF0E032
:104C6000808181608083EAE7F0E0808184608083D6
:104C70008081826080838081816080838081806880
:104C800080831092C10008951F93CF93DF93182F54
:104C9000EB0161E00E94CC26209711F460E004C093
:104CA000CF3FD10539F461E0812FDF91CF911F9182
:104CB0000C940527E12FF0E0EA5FFE4FE491E3302A
:104CC000F9F048F4E130B9F0E230A1F584B5806242
:104CD00084BDC8BD34C0E730E9F0E83019F1E430F4
:104CE00049F580918000806280938000D0938B0092
:104CF000C0938A0024C084B5806884BDC7BD1FC02E
:104D000080918000806880938000D0938900C09358
:104D1000880015C08091B00080688093B000C09377
:104D2000B3000DC08091B00080628093B000C0934A
:104D3000B40005C0C038D1050CF0B5CFAFCFDF91BE
:104D4000CF911F910895833081F028F4813099F03C
:104D50008230A1F008958730A9F08830B9F084300E
:104D6000D1F4809180008F7D03C0809180008F7787
:104D700080938000089584B58F7702C084B58F7DBD
:104D800084BD08958091B0008F7703C08091B000FA
:104D90008F7D8093B0000895CF93DF9390E0FC0166
:104DA000E65EFE4F2491FC01E25DFE4F8491882374
:104DB00049F190E0880F991FFC01EA5AFE4FA59136
:104DC000B491845B9E4FFC01C591D4919FB7611152
:104DD00008C0F8948C91209582238C93888182233B
:104DE0000AC0623051F4F8948C91322F30958323AD
:104DF0008C938881822B888304C0F8948C91822BB9
:104E00008C939FBFDF91CF9108950F931F93CF9302
:104E1000DF931F92CDB7DEB7282F30E0F901EA5FAC
:104E2000FE4F8491F901E65EFE4F1491F901E25DB7
:104E3000FE4F04910023C9F0882321F069830E946A
:104E4000A3266981E02FF0E0EE0FFF1FE45BFE4F29
:104E5000A591B4919FB7F8948C91611103C01095FE
:104E6000812301C0812B8C939FBF0F90DF91CF9145
:104E70001F910F910895CF92DF92EF92FF920F93BF
:104E80001F93CF93DF9390E0FC01E65EFE4FD49139
:104E9000FC01E25DFE4F7491611102C0C0E001C0EF
:104EA000CD2FDA01C901BF70672F70E0660F771F41
:104EB0006E5B7E4F00E010E09801FB01E590F490FE
:104EC000F70140814D234C131EC0680179014FEF5B
:104ED000C41AD40AE40AF40A081719072A073B0778
:104EE00009F442C097018601E8CF68017901FFEF1C
:104EF000CF1ADF0AEF0AFF0A081719072A073B072C
:104F000099F197018601FB01E590F490F70140814A
:104F10004D234C13EACF801B910BA20BB30B20E067
:104F200030E0A901FB01E590F490F701F080FD224B
:104F3000FC120AC0281739074A075B07A9F02F5F40
:104F40003F4F4F4F5F4FEECFA8E1B0E00E944028A7
:104F5000605F7F4F8F4F9F4F24E0969587957795A1
:104F600067952A95D1F703C060E070E0CB01DF912F
:104F7000CF911F910F91FF90EF90DF90CF90089508
:104F80000895DB018F939F930E944028BF91AF91BA
:104F9000A29F800D911DA39F900DB29F900D112493
:104FA0000895AA1BBB1B51E107C0AA1FBB1FA61770
:104FB000B70710F0A61BB70B881F991F5A95A9F7C2
:104FC00080959095BC01CD01089597FB072E16F4AE
:104FD000009407D077FD09D00E94D12707FC05D0A7
:104FE0003EF4909581959F4F0895709561957F4F00
:104FF0000895A1E21A2EAA1BBB1BFD010DC0AA1F1A
:10500000BB1FEE1FFF1FA217B307E407F50720F031
:10501000A21BB30BE40BF50B661F771F881F991FAC
:105020001A9469F760957095809590959B01AC01F5
:10503000BD01CF010895052E97FB1EF400940E9438
:10504000322857FD07D00E94F92707FC03D04EF401
:105050000C94322850954095309521953F4F4F4FF5
:105060005F4F089590958095709561957F4F8F4F14
:105070009F4F0895EE0FFF1F0590F491E02D0994C6
:105080000E945328A59F900DB49F900DA49F800D62
:10509000911D11240895B7FF0C9440280E944028C8
:1050A000821B930B0895A29FB001B39FC001A39FE1
:1050B000700D811D1124911DB29F700D811D112451
:1050C000911D08955058BB27AA270ED083C24CD2F9
:1050D00030F051D220F031F49F3F11F41EF41CC285
:1050E0000EF4E095E7FB04C2E92F96D280F3BA17DD
:1050F000620773078407950718F071F49EF5AEC236
:105100000EF4E0950B2EBA2FA02D0B01B9019001E2
:105110000C01CA01A0011124FF27591B99F0593F26
:1051200050F4503E68F11A16F040A22F232F342F6E
:105130004427585FF3CF469537952795A795F040BC
:105140005395C9F77EF41F16BA0B620B730B840BD1
:10515000BAF09150A1F0FF0FBB1F661F771F881F89
:10516000C2F70EC0BA0F621F731F841F48F48795E1
:1051700077956795B795F7959E3F08F0B3CF9395D0
:10518000880F08F09927EE0F979587950895ECD131
:1051900058F080E891E009F49EEFEDD128F040E866
:1051A00051E059F45EEF09C0B7C158C2E92FE07869
:1051B00033D268F3092E052AC1F3261737074807AB
:1051C000590738F00E2E07F8E02569F0E025E06475
:1051D0000AC0EF6307F8009407FADB01B9019D01EB
:1051E000DC01CA01AD01EF934AD0F4D10AD05F913E
:1051F000552331F02BED3FE049E450FD49EC63CFFE
:105200000895DF93DD27B92FBF7740E85FE31616D7
:10521000170648075B0710F4D92F2BD29F938F9363
:105220007F936F93D8D2EAEBF0E079D1D3D12F916D
:105230003F914F915F9130D2DD2349F09058A2EA1F
:105240002AED3FE049EC5FE3D0785D274DDFDF9149
:10525000C1C12AD108F481E0089595D1E395CBC16D
:105260000CD0B8C188D140F07FD130F021F45F3F3D
:1052700019F03EC15111F3C14FC1CED198F399231A
:10528000C9F35523B1F3951B550BBB27AA2762170A
:105290007307840738F09F5F5F4F220F331F441F4F
:1052A000AA1FA9F333D00E2E3AF0E0E830D0915087
:1052B0005040E695001CCAF729D0FE2F27D0660F74
:1052C000771F881FBB1F261737074807AB07B0E8B3
:1052D00009F0BB0B802DBF01FF2793585F4F2AF0C9
:1052E0009E3F510568F004C1BAC15F3FECF3983EA0
:1052F000DCF3869577956795B795F7959F5FC9F726
:10530000880F911D9695879597F90895E1E0660FAE
:10531000771F881FBB1F621773078407BA0720F027
:10532000621B730B840BBA0BEE1F88F7E095089590
:1053300004D06894B11193C1089576D188F09F5735
:1053400090F0B92F9927B751A0F0D1F0660F771FD1
:10535000881F991F1AF0BA95C9F712C0B13081F0B1
:105360007DD1B1E008957AC1672F782F8827B85F83
:1053700039F0B93FCCF3869577956795B395D9F712
:105380003EF490958095709561957F4F8F4F9F4F1C
:105390000895E89409C097FB3EF490958095709528
:1053A00061957F4F8F4F9F4F9923A9F0F92F96E971
:1053B000BB279395F695879577956795B795F111E6
:1053C000F8CFFAF4BB0F11F460FF1BC06F5F7F4F83
:1053D0008F4F9F4F16C0882311F096E911C0772395
:1053E00021F09EE8872F762F05C0662371F096E89E
:1053F000862F70E060E02AF09A95660F771F881F6D
:10540000DAF7880F9695879597F90895ADD018F03B
:1054100011F0B1D038F480C022C1E92FFDD0B0F333
:105420005523C9F3E7FB6217730784079507A8F1B3
:1054300099F3E92FFF2788232AF03197660F771F0A
:10544000881FDAF7952F5527442332F091505040AA
:10545000220F331F441FD2F7BB27E91BF50B621B3A
:10546000730B840BB109C1F222F4620F731F841F06
:10547000B11D31972AF0660F771F881FBB1FEFCF32
:10548000915050405AF041F0882332F0660F771F58
:10549000881F91505040C1F7939530C086957795FD
:1054A00067959F5FD9F7F8CF990F0008550FAA0BA2
:1054B000E0E8FEEF16161706E807F907C0F0121627
:1054C0001306E407F50798F0621B730B840B950B2A
:1054D00039F40A2661F0232B242B252B21F408957F
:1054E0000A2609F4A140A6958FEF811D811D08951C
:1054F00097F99F6780E870E060E008959F3F31F082
:10550000915020F4879577956795B795880F911DF1
:105510009695879597F908959FEF80EC0895DF930E
:10552000CF931F930F93FF92EF92DF927B018C0139
:10553000689405C0DA2EEF01AFD0FE01E894A59182
:105540002591359145915591AEF3EF01CDDDFE01E9
:105550009701A801DA9479F7DF90EF90FF900F910F
:105560001F91CF91DF91089500240A941616170613
:1055700018060906089500240A9412161306140644
:1055800005060895C9CF50D0E8F3E894E0E0BB27C2
:105590009F57F0F02AED3FE049EC06C0EE0FBB0F3D
:1055A000661F771F881F28F0B23A620773078407C7
:1055B00028F0B25A620B730B840BE3959A9572F73D
:1055C000803830F49A95BB0F661F771F881FD2F77B
:1055D000904896CF092E0394000C11F4882352F0C2
:1055E000BB0F40F4BF2B11F460FF04C06F5F7F4F0F
:1055F0008F4F9F4F0895EF93E0FF06C0A2EA2AED78
:105600003FE049EC5FEB70DDE5DF0F90039401FCB8
:105610009058E7EEF0E0EDC057FD9058440F551F4D
:1056200059F05F3F71F04795880F97FB991F61F024
:105630009F3F79F087950895121613061406551F9B
:10564000F2CF4695F1DF08C0161617061806991F07
:10565000F1CF86957105610508940895E894BB27FC
:1056600066277727CB0197F908951EDF08F48FEF9F
:1056700008959B01AC0160E070E080E89FE3F0CD0D
:105680000BD0A8CF71DF28F076DF18F0952309F052
:105690002FCF42CF1124E3CFBFDFA0F3959FD1F3EB
:1056A000950F50E0551F629FF001729FBB27F00DD0
:1056B000B11D639FAA27F00DB11DAA1F649F662725
:1056C000B00DA11D661F829F2227B00DA11D621F74
:1056D000739FB00DA11D621F839FA00D611D221F2E
:1056E000749F3327A00D611D231F849F600D211D12
:1056F000822F762F6A2F11249F5750408AF0E1F0B5
:1057000088234AF0EE0FFF1FBB1F661F771F881FFD
:1057100091505040A9F79E3F510570F0E9CE9FCFC0
:105720005F3FECF3983EDCF3869577956795B795E8
:10573000F795E7959F5FC1F7FE2B880F911D969512
:10574000879597F908959F931EDF0F9007FCEE5FF2
:1057500052CF11F40EF4E0CED1CE66DFD0F3992310
:10576000D9F3CEF39F57550B87FF3CD00024A0E61A
:1057700040EA900180585695979528F4805C660F12
:10578000771F881F20F026173707480730F4621B61
:10579000730B840B202931294A2BA6951794079463
:1057A000202531254A2758F7660F771F881F20F0DC
:1057B00026173707480730F4620B730B840B200D54
:1057C000311D411DA09581F7B901842F9158880F93
:1057D0009695879508959B01AC0152CF65DE880BA5
:1057E000990B089591505040660F771F881FD2F78C
:1057F00008959F938F937F936F93FF93EF939B01F4
:10580000AC013EDFEF91FF918ADE2F913F914F91E6
:105810005F9136CFCF93DF938230910510F482E011
:1058200090E0E0911705F091180520E030E0A0E04D
:10583000B0E0309739F14081518148175907B8F0ED
:105840004817590771F482819381109729F01396B4
:105850009C938E9312972CC09093180580931705F4
:1058600027C02115310531F04217530718F0A9015F
:10587000DB0101C0EF019A01BD01DF010280F3816C
:10588000E02DD7CF21153105F9F0281B390B243035
:10589000310580F48A819B816115710521F0FB013E
:1058A0009383828304C09093180580931705FE01AB
:1058B000329644C0FE01E20FF31F81939193225070
:1058C0003109398328833AC0209115053091160596
:1058D000232B41F4209102013091030130931605EE
:1058E000209315052091000130910101211531050A
:1058F00041F42DB73EB74091040150910501241B9E
:10590000350BE0911505F0911605E217F307A0F4A9
:105910002E1B3F0B2817390778F0AC014E5F5F4F05
:105920002417350748F04E0F5F1F5093160540931C
:1059300015058193919302C0E0E0F0E0CF01DF9183
:10594000CF910895CF93DF93009709F487C0FC01AE
:10595000329713821282C0911705D09118052097B3
:1059600081F420813181280F391F80911505909194
:1059700016058217930779F5F0931605E093150540
:105980006DC0DE0120E030E0AE17BF0750F4129684
:105990004D915C9113979D014115510509F1DA0173
:1059A000F3CFB383A28340815181840F951F8A175F
:1059B0009B0771F48D919C911197840F951F02960E
:1059C0009183808312968D919C9113979383828308
:1059D0002115310529F4F0931805E09317053EC011
:1059E000D9011396FC93EE9312974D915D91A40FFC
:1059F000B51FEA17FB0779F480819181840F951F09
:105A00000296D90111969C938E938281938113966D
:105A10009C938E931297E0E0F0E08A819B8100973F
:105A200019F0FE01EC01F9CFCE01029628813981EF
:105A3000820F931F209115053091160528173907FD
:105A400069F4309729F4109218051092170502C0D6
:105A500013821282D0931605C0931505DF91CF9162
:105A6000089581E090E0F8940C945C2DFC01882767
:105A70009927E89421912032E9F3293010F02E3053
:105A8000C8F32B3241F02D3239F4689404C00E94DF
:105A9000542D820F911D219120532A30C0F31EF402
:105AA000909581959F4F08957AE0979F902D879FBD
:0C5AB000802D910D11240895F894FFCF73
:105ABC0000001905800001000000E8030A48454178
:105ACC0044494E473A200020202020474F414C208B
