:100000000C9462000C948A000C948A000C948A0070
:100010000C948A000C948A000C948A000C948A0038
:100020000C948A000C948A000C948A000C948A0028
:100030000C948A000C948A000C948A000C948A0018
:100040000C94520C0C948A000C9467090C94990936
:100050000C948A000C948A000C948A000C948A00F8
:100060000C948A000C948A00000000080002010031
:100070000003040700000000000000000102040863
:100080001020408001020408102001020408102002
:10009000040404040404040402020202020203032E
:1000A00003030303000000002300260029000000D2
:1000B0000000250028002B0000000000240027007D
:1000C0002A00C90911241FBECFEFD8E0DEBFCDBF83
:1000D00011E0A0E0B1E0EEE7F4E202C005900D927D
:1000E000A233B107D9F722E0A2E3B1E001C01D922B
:1000F000A831B207E1F710E0C4ECD0E004C02297C9
:10010000FE010E94E40EC23CD107C9F70E94130809
:100110000C943D120C940000CF92DF92EF92FF926C
:100120000F931F93CF93DF93EC01CB01BA016801CA
:100130007901A90198010E94F80E9B01AC01C70149
:10014000B6010E94600F688379838A839B83DF9165
:10015000CF911F910F91FF90EF90DF90CF90089576
:100160002F923F924F925F926F927F928F929F92C7
:10017000AF92BF92CF92DF92EF92FF920F931F93B5
:10018000CF93DF93CDB7DEB73C01862F2D883E8815
:100190004F88588CF30184869586A686B786208A78
:1001A000318A428A538A60837183538342833583C1
:1001B000248317830683F186E086D386C28661E0B6
:1001C0000E94920D61E0F30182810E94920D61E034
:1001D000F30184810E94920D61E0F30186810E9407
:1001E000920D61E0F30180850E94920D61E0F301C0
:1001F0008285DF91CF911F910F91FF90EF90DF905B
:10020000CF90BF90AF909F908F907F906F905F90B6
:100210004F903F902F900C94920DEF92FF920F937E
:100220001F93CF93DF93EC01CB0161302FEF720767
:1002300014F481E09FEF7C018FEFE816F10421F0C8
:100240001CF0EE24EA94F12C8A0141302FEF520782
:1002500014F401E01FEF0F3F110519F014F00FEF38
:1002600010E061E0101611060CF060E088850E9435
:10027000CB0D61E0101611060CF460E08A850E9437
:10028000CB0D61E01E141F040CF060E08A810E9417
:10029000CB0D61E01E141F040CF460E08C810E9401
:1002A000CB0DB701882777FD8095982F0E94FB0F13
:1002B0002C853D854E855F850E94AF100E94C80F3A
:1002C00088810E940A0DB801882777FD8095982FB4
:1002D0000E94FB0F288939894A895B890E94AF10E7
:1002E0000E94C80F8E81DF91CF911F910F91FF90D7
:1002F000EF900C940A0DCF93DF93EC01862F688367
:1003000079835B834A8360E00E94920D61E08A8179
:10031000DF91CF910C94920DCF93DF93EC0160E0CD
:100320008A810E94CB0D8AE090E00E94A80C61E0D7
:100330008A810E94CB0D84E190E00E94A80C60E0CD
:100340008A810E94CB0D20E432E44FE050E061E06E
:1003500088810E94010E2AE330E040E050E00E94D4
:10036000960E2D3281E038074105510528F06FE3E4
:1003700072E48FE090E002C0B901CA01DF91CF9131
:1003800008952F923F924F925F926F927F928F9239
:100390009F92AF92BF92CF92DF92EF92FF920F9314
:1003A0001F93CF93DF93CDB7DEB72B970FB6F8949B
:1003B000DEBF0FBECDBF9B878A87DC01D896BC917C
:1003C000B983B11102C01982E2C00E949C0C6A83F9
:1003D0007B838C839D83EA85FB8580A191A1A2A16B
:1003E000B3A14A815B816C817D81481B590B6A0BEB
:1003F0007B0B84A595A5A6A5B7A5481759076A073D
:100400007B0708F3028CF38DE02D80809180A28021
:10041000B380AA85BB855E96ED91FC915F97A5019F
:10042000940160817181828193810E94F70E2B017A
:100430003C01EA85FB8520893189428953890E94E4
:10044000AF10AA85BB8594962D913D914D915C91FD
:1004500097970E94F80E6B017C01EA85FB8564A3E7
:1004600075A386A397A324A835A806A917A9910167
:10047000A8010E94AB1018161CF4C101D80118C0C5
:10048000AA85BB85D0968D919D910D90BC91A02D94
:100490008E839F83A887B9879C01AD01C701B601F0
:1004A0000E945C0F87FF0AC08E819F81A885B98555
:1004B000EA85FB8584A395A3A6A3B7A3AA85BB85DC
:1004C0001C962D913D914D915C911F97C301B201F6
:1004D0000E94AF10EA85FB8524A135A146A157A152
:1004E0000E94F80E6B017C01AA85BB8598962D9120
:1004F0003D914D915C919B97C501B4010E94F70E0F
:10050000EA85FB8524893589468957890E94AF1081
:100510009B01AC01C701B6010E94F70E6B017C0183
:100520009101A8010E94AB101816BCF0AA85BB85EA
:10053000D0962C90D097D1963C90D197D2960C9192
:10054000D297D3961C919101A801B601C7010E94D0
:100550005C0F87FD02C016018701AA85BB855C96EA
:10056000ED91FC915D97C101D80180839183A283B5
:10057000B383EA85FB8580A691A6A2A6B3A68A814D
:100580009B81AC81BD8180A391A3A2A3B3A38981E8
:100590002B960FB6F894DEBF0FBECDBFDF91CF9183
:1005A0001F910F91FF90EF90DF90CF90BF90AF9091
:1005B0009F908F907F906F905F904F903F902F9083
:1005C00008952F923F924F925F926F927F928F92F7
:1005D0009F92AF92BF92CF92DF92EF92FF920F93D2
:1005E0001F93CF93DF9300D000D0CDB7DEB71C01AF
:1005F0002A013B014801590120E030E0A901C30173
:10060000B2010E945C0F87FD78C020E030E0A901B4
:10061000C501B4010E945C0F87FD6FC020E030E08F
:10062000A901C701B6010E945C0F87FD66C0F101F8
:10063000408251826282738284829582A682B782CE
:10064000C086D186E286F38664A575A586A597A5A2
:100650000E94F90F20E030E04AE754E40E94600F66
:1006600069837A838B839C83F101448655866686F1
:1006700077869B01AC01C501B4010E94AF104B010C
:100680005C01F101608B718B828B938B29813A81A4
:100690004B815C81C701B6010E94600F6B017C0138
:1006A000F101648B758B868B978B808D918D019773
:1006B00021F5A301920160E070E0CB010E94F70EEA
:1006C000F1016487758786879787A501940160E0AB
:1006D00070E0CB010E94F70EF101608B718B828B71
:1006E000938BA701960160E070E0CB010E94F70EAA
:1006F000F101648B758B868B978B0F900F900F9009
:100700000F90DF91CF911F910F91FF90EF90DF90AD
:10071000CF90BF90AF909F908F907F906F905F90A1
:100720004F903F902F9008958F929F92AF92BF92DB
:10073000CF92DF92EF92FF92CF93DF93EC011616E8
:100740001706ACF56B01EE24D7FCE094FE2CC70134
:10075000B6010E94FB0F4B015C016CA57DA58EA527
:100760009FA50E94F90F9B01AC01C501B4010E9435
:10077000600F4B015C019B01AC01688979898A8912
:100780009B890E94AF10688B798B8A8B9B8BA5010C
:1007900094016C897D898E899F890E94600F6C8B82
:1007A0007D8B8E8B9F8BCCA6DDA6EEA6FFA6DF9160
:1007B000CF91FF90EF90DF90CF90BF90AF909F9040
:1007C0008F9008952F923F924F925F926F927F92F7
:1007D0008F929F92AF92BF92CF92DF92EF92FF9251
:1007E0000F931F93CF93DF93EC016A017B014801C4
:1007F0005901A9019801C701B6010E94AB1087FFFA
:100800004EC0C8AAD9AAEAAAFBAA8CAA9DAAAEAAD7
:10081000BFAA88AD882309F442C02C8C3D8CF1011D
:100820004080518062807380A5019401C301B201B0
:100830000E94AB10181634F4F10180829182A282DA
:10084000B3820DC0A7019601C301B2010E945C0FE3
:1008500087FF05C0F101C082D182E282F3828CA0C1
:100860009DA0AEA0BFA0CCA8DDA8EEA8FFA8A701C0
:100870009601C501B4010E94AB10181664F0C8A817
:10088000D9A8EAA8FBA8A7019601C501B4010E9456
:100890005C0F87FF04C0CCA2DDA2EEA2FFA2DF9115
:1008A000CF911F910F91FF90EF90DF90CF90BF906D
:1008B000AF909F908F907F906F905F904F903F9000
:1008C0002F9008958F929F92AF92BF92CF92DF9216
:1008D000EF92FF92CF93DF93EC01EC8DFD8DC08002
:1008E000D180E280F380CCA2DDA2EEA2FFA2EA8D4D
:1008F000FB8D80819181A281B38188A799A7AAA746
:10090000BBA78CA89DA8AEA8BFA8A5019401C7014C
:10091000B6010E94AB10181664F088A899A8AAA87E
:10092000BBA8A5019401C701B6010E945C0F87FF17
:1009300004C08CA29DA2AEA2BFA2DF91CF91FF9076
:10094000EF90DF90CF90BF90AF909F908F900895E1
:100950001F93CF93DF93EC0111E06130710509F033
:1009600010E088AD91E08927181303C0CE010E94E2
:10097000620418AFDF91CF911F9108950F931F93D9
:10098000CF93DF93EC018B0188AD882361F1888DD3
:10099000998D6817790739F12C853D854E855F85DE
:1009A00060E070E0CB010E94F70E6C877D878E8738
:1009B0009F87288939894A895B8960E070E0CB018B
:1009C0000E94F70E688B798B8A8B9B8B2C893D89D3
:1009D0004E895F8960E070E0CB010E94F70E6C8B5E
:1009E0007D8B8E8B9F8B198F088FDF91CF911F91FD
:1009F0000F9108954F925F926F927F928F929F9284
:100A0000AF92BF92CF92DF92EF92FF920F931F931C
:100A1000CF93DF9300D000D0CDB7DEB74C012701D4
:100A20003801A982BA82CB82DC82FC01558F448FC7
:100A3000738F628F378F268F10AE10AA11AA12AA59
:100A400013AA80E090E0AFE7B3E484AB95ABA6AB2C
:100A5000B7AB84E690E0A0E0B0E084A795A7A6A796
:100A6000B7A76B8D7C8DC4010E94BE04CF88D88C43
:100A7000E98CFA8C09811A812B813C81B301A20196
:100A8000C4010E94E1020E949C0CF40144A455A4FC
:100A900066A477A4641975098609970960A371A3F0
:100AA00082A393A30F900F900F900F90DF91CF919F
:100AB0001F910F91FF90EF90DF90CF90BF90AF907C
:100AC0009F908F907F906F905F904F9008954F927E
:100AD0005F927F928F929F92AF92BF92CF92DF925E
:100AE000EF92FF920F931F93CF93DF93EC0126E0D9
:100AF00040E855E260E070E08EE691E00E94050972
:100B000084E090E00E94500C8C0148E050E069E0E5
:100B100070E00E947B011DA70CA784E190E00E9479
:100B2000500C2C018FE38F9380E8782E7F921F92D8
:100B30001F92812C912C90E8A92E9FE3B92E27E0DB
:100B4000C22ED12C35E0E32EF12C06E010E024E09B
:100B500030E042E050E063E070E0C2010E94B0008B
:100B60005982488288E090E00E94500C7C010DEC94
:100B70001CEC2CE43DE34AE057ED63EA7BE30E9482
:100B80008C00FBAAEAAA80E090E0A0EFB1E48EA37B
:100B90009FA3A8A7B9A789E390E00E94500C4C013D
:100BA0009E012A5D3F4FAE01425E5F4FBE01665E11
:100BB0007F4F1F921F928EE38F937F921F921F92FF
:100BC000EAE0AE2EE7EDBE2EE3E2CE2EECE3DE2E23
:100BD000E12CF12C00EA10E4C4010E94FA049BA667
:100BE0008AA6CA88DB88EC88FD880A851B852C8547
:100BF0003D854A815B816C817D81C4010E94E10257
:100C000061E070E08AA59BA50E94A80462E370E001
:100C10008AA59BA50E94940300E010E02FE733E42F
:100C200040E050E06FE773EC8AA59BA50E94E203C9
:100C30008DB79EB70A960FB6F8949EBF0FBE8DBFB4
:100C4000DF91CF911F910F91FF90EF90DF90CF90A8
:100C5000BF90AF909F908F907F905F904F9008953E
:100C60006F927F928F929F92AF92BF92CF92DF92BC
:100C7000EF92FF920F931F93CF93DF93EC018EE0DF
:100C80000E94ED0C8C018FE00E94ED0C3C0180E194
:100C90000E94ED0C4C01B801882777FD8095982FB4
:100CA0001F921F9221E62F9328EA2F93A12CB12C9B
:100CB0006501EE24EA9413E0F12E00E010E020E05C
:100CC00030E0A9010E94090C0E94FB0F20E030E0F7
:100CD00048EC52E40E94600F6A837B838C839D837F
:100CE000B301882777FD8095982F1F9277247394FE
:100CF0007F9226E82F9320EA2F9320E030E0A9018D
:100D00000E94090C0E94FB0F20E030E048EC52E406
:100D10000E94600F6A877B878C879D87B401882734
:100D200077FD8095982F1F921F927F9224EF2F932B
:100D300020E030E0A9010E94090C0E94FB0F20E096
:100D400030E048EC52E40E94600F4B015C016A8B7A
:100D50007B8B8C8B9D8BCA80DB80EC80FD808DB77C
:100D60009EB70C960FB6F8949EBF0FBE8DBF2E8116
:100D70003F8148855985C701B6010E945C0F8111EA
:100D800017C02E853F85488959896A857B858C8562
:100D90009D850E945C0F81110BC02E893F89488D73
:100DA000598DC501B4010E945C0F882309F450C01D
:100DB00022E030E0B701A6018EE691E00E94F50B3B
:100DC0006BE071E08EE691E00E944A0A4A855B85FD
:100DD0006C857D8522E030E08EE691E00E94F50B87
:100DE0006BE071E08EE691E00E944A0A4A895B89D5
:100DF0006C897D8922E030E08EE691E00E94F70B5D
:100E0000CA88DB88EC88FD880A851B852C853D8592
:100E10004A815B816C817D818AA59BA50E94E1024C
:100E20008A819B81AC81BD818E839F83A887B9878E
:100E30008A859B85AC85BD858E879F87A88BB98B5E
:100E40008A899B89AC89BD898E8B9F8BA88FB98F2E
:100E5000DF91CF911F910F91FF90EF90DF90CF9096
:100E6000BF90AF909F908F907F906F900895CF9399
:100E7000DF93EC018CA59DA50E948C010E94F90FC7
:100E80006A8F7B8F8C8F9D8F8AA59BA5DF91CF91D9
:100E90000C94C101CF92DF92EF92FF920F931F93B8
:100EA000CF93DF93EC01CE8CDF8CE8A0F9A020E09B
:100EB00030E0A901C701B6010E945C0F87FF15C091
:100EC00020E030E04FE753E4C701B6010E94F80E7E
:100ED0000E94C80F7B018AE0E816F1041CF41AE0B6
:100EE000E12EF12C0FEF10E013C0A701960160E096
:100EF00070E08FE793E40E94F70E0E94C80F8B0109
:100F00006A30710514F40AE010E0EE24EA94F12C42
:100F10002EA53FA548A959A96A8D7B8D8C8D9D8DE5
:100F20000E945C0F8823C1F06EE071E08EE691E0D4
:100F30000E944A0A4A8D5B8D6C8D7D8D22E030E0E7
:100F40008EE691E00E94F70B8A8D9B8DAC8DBD8D56
:100F50008EA79FA7A8ABB9ABA701B80188819981DB
:100F6000DF91CF911F910F91FF90EF90DF90CF9085
:100F70000C940D01CF93DF93EC010E943707CE0153
:100F8000DF91CF910C944A07CF92DF92EF92FF92BC
:100F9000CF93DF93EC010E949C0C6B017C014CA968
:100FA0005DA96EA97FA9D701C601841B950BA60B6D
:100FB000B70BAC01BD01483E53406105710538F0E7
:100FC000CCAADDAAEEAAFFAACE010E94300648AD47
:100FD00059AD6AAD7BADD701C601841B950BA60B3D
:100FE000B70B82339105A105B10568F0C8AED9AE43
:100FF000EAAEFBAECE01DF91CF91FF90EF90DF9094
:10100000CF900C94BA07DF91CF91FF90EF90DF90D3
:10101000CF900895089582E391E00C94670582E3F0
:1010200091E00C94C4070E94B20C0E940A080E942E
:101030000B08CFE4D8E00E940F082097E1F30E944C
:101040004F08F9CFFC01818D228D90E0805C9F4F8D
:10105000821B91098F7399270895FC01918D828DD0
:10106000981731F0828DE80FF11D858D90E008957D
:101070008FEF9FEF0895FC01918D828D981761F09D
:10108000828DDF01A80FB11D5D968C91928D9F5FBF
:101090009F73928F90E008958FEF9FEF08958FEBED
:1010A00099E0892B49F080E090E0892B29F00E949B
:1010B000BF0981110C9400000895FC01848DDF01AB
:1010C000A80FB11DA35ABF4F2C91848D90E00196BB
:1010D0008F739927848FA689B7892C93A089B189AA
:1010E0008C9180648C93938D848D981306C00288B4
:1010F000F389E02D80818F7D80830895CF93DF93E6
:10110000EC01888D8823C9F0EA89FB89808185FDFF
:1011100005C0A889B9898C9186FD0FC00FB607FC60
:10112000F5CF808185FFF2CFA889B9898C9185FFA1
:10113000EDCFCE010E945D08E7CFDF91CF910895FA
:10114000CF92DF92FF920F931F93CF93DF931F9263
:10115000CDB7DEB76C01DC015B969C915B975C962A
:101160008C915C97981307C05096ED91FC91519724
:10117000808185FD32C0F601038D10E00F5F1F4FA7
:101180000F731127F02EF601848DF81211C00FB6DF
:1011900007FCF9CFD6015096ED91FC9151978081D3
:1011A00085FFF1CFC60169830E945D086981EBCF9D
:1011B000838DE80FF11DE35AFF4F6083D6015B96E4
:1011C0000C935B975296ED91FC91539780818062CE
:1011D000808381E058968C930DC0D6015696ED9190
:1011E000FC91579760835096ED91FC9151978081C7
:1011F0008064808381E090E00F90DF91CF911F9118
:101200000F91FF90DF90CF900895BF92CF92DF9221
:10121000EF92FF92CF93DF93EC016A017B01B22E34
:10122000E889F98982E08083411581EE58076105DC
:101230007105A1F060E079E08DE390E0A7019601EF
:101240000E94960E21503109410951095695479542
:1012500037952795211580E1380798F0E889F989B5
:10126000108260E874E88EE190E0A70196010E9488
:10127000960E2150310941095109569547953795E8
:101280002795EC85FD853083EE85FF852083188EBC
:10129000EC89FD89B082EA89FB8980818061808345
:1012A000EA89FB89808188608083EA89FB89808163
:1012B00080688083EA89FB8980818F7D8083DF91CC
:1012C000CF91FF90EF90DF90CF90BF9008951F9245
:1012D0000F920FB60F9211242F938F939F93EF933A
:1012E000FF93E0917E01F0917F018081E091840184
:1012F000F091850182FD12C09081809187018F5FFE
:101300008F7320918801821751F0E0918701F0E0FE
:10131000E259FE4F958F8093870101C08081FF9134
:10132000EF919F918F912F910F900FBE0F901F9073
:1013300018951F920F920FB60F9211242F933F937F
:101340004F935F936F937F938F939F93AF93BF93CD
:10135000EF93FF938EE691E00E945D08FF91EF917D
:10136000BF91AF919F918F917F916F915F914F91BD
:101370003F912F910F900FBE0F901F9018958EE602
:1013800091E00E94220821E0892B09F420E0822FBD
:101390000895109271011092700188EE93E0A0E020
:1013A000B0E08093720190937301A0937401B093A5
:1013B000750188E191E090936F0180936E0185EC57
:1013C00090E090937B0180937A0184EC90E090937D
:1013D0007D0180937C0180EC90E090937F0180936D
:1013E0007E0181EC90E0909381018093800182ECFA
:1013F00090E0909383018093820186EC90E090933B
:1014000085018093840110928701109288011092C7
:10141000890110928A010895CF92DF92EF92FF9294
:101420000F931F93CF93DF936C017A01EB01E60ECC
:10143000F71E00E010E0CE15DF0561F06991D601DE
:10144000ED91FC910190F081E02DC6010995080F06
:10145000191FF1CFC801DF91CF911F910F91FF901C
:10146000EF90DF90CF9008956115710581F0DB0159
:101470000D900020E9F7AD0141505109461B570B73
:10148000DC01ED91FC910280F381E02D099480E074
:1014900090E008950C94340ADC01ED91FC910190E8
:1014A000F081E02D09940F931F93CF93DF93EC010C
:1014B0006DE00E944C0A8C016AE0CE010E944C0A49
:1014C000800F911FDF91CF911F910F9108958F92FF
:1014D0009F92AF92BF92CF92DF92EF92FF920F93C3
:1014E0001F93CF93DF93CDB7DEB7A1970FB6F894D4
:1014F000DEBF0FBECDBF7C01C42EE52FCB01D22EA7
:1015000019A221E02D1510F02AE0D22E8E010F5DD8
:101510001F4F8D2C912CA12CB12C6C2D7E2FA50151
:1015200094010E94960E8C2DD29E80191124015098
:1015300011098A3014F4805D01C0895CF801808350
:10154000211531054105510521F0C22EE32FCA01B5
:10155000E4CFB801C7010E94340AA1960FB6F894EF
:10156000DEBF0FBECDBFDF91CF911F910F91FF90D6
:10157000EF90DF90CF90BF90AF909F908F900895A5
:10158000CF92DF92EF92FF920F931F93CF93DF934F
:10159000EC016A017B012115310579F4E881F981BB
:1015A0000190F081E02D642FDF91CF911F910F9179
:1015B000FF90EF90DF90CF9009942A303105E9F445
:1015C00077FF1AC06DE20E944C0A8C014427552710
:1015D000BA014C195D096E097F092AE0CE010E940B
:1015E000670A800F911FDF91CF911F910F91FF909C
:1015F000EF90DF90CF9008952AE0B701A601CE01C9
:10160000DF91CF911F910F91FF90EF90DF90CF90DE
:101610000C94670A4F925F926F927F928F929F9283
:10162000AF92BF92CF92DF92EF92FF920F931F93F0
:10163000CF93DF93EC016A017B01B22E9A01AB01DB
:10164000C701B6010E941211882319F064E271E00B
:1016500027C026013701E89477F82FEF3FEF4FE7D7
:101660005FE7C301B2010E94121181110DC02FEF7B
:101670003FEF4FE75FE7C301B2010E945C0F18160E
:101680001CF468E271E00CC02FEF3FEF4FE75FE41E
:10169000C701B6010E94AB101816ACF46CE271E001
:1016A000CE01DF91CF911F910F91FF90EF90DF90CE
:1016B000CF90BF90AF909F908F907F906F905F90F2
:1016C0004F900C94340A2FEF3FEF4FE75FECC701C8
:1016D000B6010E945C0F87FDE1CF20E030E0A90158
:1016E000C701B6010E945C0F87FF0AC06DE2CE0100
:1016F0000E944C0A8C01F7FAF094F7F8F09402C0BB
:1017000000E010E0A12C60E070E080E09FE3AB140B
:1017100041F020E030E040E251E40E94600FA394E9
:10172000F6CF9B01AC01C701B6010E94F80E6B0118
:101730007C010E94CD0F2B013C010E94F90F9B01FF
:10174000AC01C701B6010E94F70E6B017C012AE0D3
:10175000B301A201CE010E94670A080F191FBB2026
:1017600039F060E371E0CE010E94340A080F191FBE
:101770007B2C772041F120E030E040E251E4C701CA
:10178000B6010E94AF106B017C010E94C80F4B0193
:10179000AA2497FCA094BA2C2AE030E0B501A40159
:1017A000CE010E94C00A080F191FC501B4010E9492
:1017B000FB0F9B01AC01C701B6010E94F70E6B0144
:1017C0007C017A94D6CFC801DF91CF911F910F9100
:1017D000FF90EF90DF90CF90BF90AF909F908F9051
:1017E0007F906F905F904F9008950C940A0B0F9329
:1017F0001F93CF93DF93EC010E940A0B8C01CE0163
:101800000E94530A800F911FDF91CF911F910F917A
:1018100008954F925F926F927F92AF92BF92CF9254
:10182000DF92EF92FF920F931F93CF93DF93CDB789
:10183000DEB729013A01621B730B840B950B2989D2
:101840003A894B895C892A193B094C095D09298B26
:101850003A8B4B8B5C8B9B01AC0169897A898B89B4
:101860009C890E94860EE418F50806091709A8014C
:1018700097010E94B80E2A0D3B1D4C1D5D1DCA012B
:10188000B901DF91CF911F910F91FF90EF90DF9001
:10189000CF90BF90AF907F906F905F904F900895E2
:1018A0000C9416111F920F920FB60F9211242F93C2
:1018B0003F938F939F93AF93BF9380910C0290912E
:1018C0000D02A0910E02B0910F0230910B0223E0A5
:1018D000230F2D3720F40196A11DB11D05C026E868
:1018E000230F0296A11DB11D20930B0280930C02C1
:1018F00090930D02A0930E02B0930F0280911002FC
:1019000090911102A0911202B09113020196A11DB3
:10191000B11D8093100290931102A0931202B09314
:101920001302BF91AF919F918F913F912F910F9093
:101930000FBE0F901F9018952FB7F89460910C026E
:1019400070910D0280910E0290910F022FBF0895A9
:10195000019739F0880F991F880F991F02970197F7
:10196000F1F70895789484B5826084BD84B5816070
:1019700084BD85B5826085BD85B5816085BDEEE697
:10198000F0E0808181608083E1E8F0E01082808176
:1019900082608083808181608083E0E8F0E08081E4
:1019A00081608083E1EBF0E0808184608083E0EB04
:1019B000F0E0808181608083EAE7F0E080818460EC
:1019C0008083808182608083808181608083808148
:1019D000806880831092C10008958E3008F08E5088
:1019E000877020910A0190E4299F90011124822B95
:1019F00080937C0080917A00806480937A0080914B
:101A00007A0086FDFCCF809178002091790090E0EB
:101A1000922B08951F93CF93DF93182FEB0161E072
:101A20000E94920D209711F460E004C0CF3FD105D1
:101A300039F461E0812FDF91CF911F910C94CB0D90
:101A4000E12FF0E0E859FF4FE491E330F9F048F47A
:101A5000E130B9F0E230A1F584B5806284BDC8BD43
:101A600034C0E730E9F0E83019F1E43049F580910D
:101A70008000806280938000D0938B00C0938A00A6
:101A800024C084B5806884BDC7BD1FC0809180001C
:101A9000806880938000D0938900C093880015C02F
:101AA0008091B00080688093B000C093B3000DC0F7
:101AB0008091B00080628093B000C093B40005C0F4
:101AC000C038D1050CF0B5CFAFCFDF91CF911F91CA
:101AD0000895833081F028F4813099F08230A1F0AC
:101AE00008958730A9F08830B9F08430D1F480911E
:101AF00080008F7D03C0809180008F77809380006D
:101B0000089584B58F7702C084B58F7D84BD089514
:101B10008091B0008F7703C08091B0008F7D80935B
:101B2000B0000895CF93DF9390E0FC01E458FF4F9D
:101B30002491FC01E057FF4F8491882349F190E004
:101B4000880F991FFC01E854FF4FA591B49182556D
:101B50009F4FFC01C591D4919FB7611108C0F894C3
:101B60008C91209582238C93888182230AC06230D5
:101B700051F4F8948C91322F309583238C93888183
:101B8000822B888304C0F8948C91822B8C939FBF06
:101B9000DF91CF9108950F931F93CF93DF931F92FF
:101BA000CDB7DEB7282F30E0F901E859FF4F849117
:101BB000F901E458FF4F1491F901E057FF4F0491E8
:101BC0000023C9F0882321F069830E94690D69818F
:101BD000E02FF0E0EE0FFF1FE255FF4FA591B4910B
:101BE0009FB7F8948C91611103C01095812301C0B7
:101BF000812B8C939FBF0F90DF91CF911F910F91FD
:101C00000895CF92DF92EF92FF920F931F93CF939D
:101C1000DF9390E0FC01E458FF4FD491FC01E057C2
:101C2000FF4F7491611102C0C0E001C0CD2FDA01F5
:101C3000C901BF70672F70E0660F771F6C557F4F2B
:101C400000E010E09801FB01E590F490F70140817D
:101C50004D234C131EC0680179014FEFC41AD40AFA
:101C6000E40AF40A081719072A073B0709F442C0D7
:101C700097018601E8CF68017901FFEFCF1ADF0AEB
:101C8000EF0AFF0A081719072A073B0799F197017E
:101C90008601FB01E590F490F70140814D234C1340
:101CA000EACF801B910BA20BB30B20E030E0A9011F
:101CB000FB01E590F490F701F080FD22FC120AC0D0
:101CC000281739074A075B07A9F02F5F3F4F4F4F8F
:101CD0005F4FEECFA8E1B0E00E94D70E605F7F4F6C
:101CE0008F4F9F4F24E096958795779567952A9516
:101CF000D1F703C060E070E0CB01DF91CF911F917D
:101D00000F91FF90EF90DF90CF900895DB018F93BC
:101D10009F930E94D70EBF91AF91A29F800D911DFE
:101D2000A39F900DB29F900D11240895A1E21A2E49
:101D3000AA1BBB1BFD010DC0AA1FBB1FEE1FFF1F6F
:101D4000A217B307E407F50720F0A21BB30BE40BBF
:101D5000F50B661F771F881F991F1A9469F7609506
:101D60007095809590959B01AC01BD01CF010895C0
:101D7000052E97FB1EF400940E94CF0E57FD07D04E
:101D80000E94960E07FC03D04EF40C94CF0E509593
:101D90004095309521953F4F4F4F5F4F0895909557
:101DA0008095709561957F4F8F4F9F4F08950E944A
:101DB000E80EA59F900DB49F900DA49F800D911DDE
:101DC00011240895EE0FFF1F0590F491E02D099462
:101DD000A29FB001B39FC001A39F700D811D11246C
:101DE000911DB29F700D811D1124911D08955058B1
:101DF000BB27AA270ED075C166D130F06BD120F079
:101E000031F49F3F11F41EF45BC10EF4E095E7FB43
:101E100051C1E92F77D180F3BA176207730784079E
:101E2000950718F071F49EF58FC10EF4E0950B2E16
:101E3000BA2FA02D0B01B90190010C01CA01A0011C
:101E40001124FF27591B99F0593F50F4503E68F177
:101E50001A16F040A22F232F342F4427585FF3CFB8
:101E6000469537952795A795F0405395C9F77EF489
:101E70001F16BA0B620B730B840BBAF09150A1F0D2
:101E8000FF0FBB1F661F771F881FC2F70EC0BA0F58
:101E9000621F731F841F48F4879577956795B795E0
:101EA000F7959E3F08F0B3CF9395880F08F09927D8
:101EB000EE0F979587950895D9D008F481E008959D
:101EC0000CD00FC107D140F0FED030F021F45F3FBD
:101ED00019F0F0C0511139C1F3C014D198F399230E
:101EE000C9F35523B1F3951B550BBB27AA276217DE
:101EF0007307840738F09F5F5F4F220F331F441F23
:101F0000AA1FA9F333D00E2E3AF0E0E830D091505A
:101F10005040E695001CCAF729D0FE2F27D0660F47
:101F2000771F881FBB1F261737074807AB07B0E886
:101F300009F0BB0B802DBF01FF2793585F4F2AF09C
:101F40009E3F510568F0B6C000C15F3FECF3983E7C
:101F5000DCF3869577956795B795F7959F5FC9F7F9
:101F6000880F911D9695879597F90895E1E0660F82
:101F7000771F881FBB1F621773078407BA0720F0FB
:101F8000621B730B840BBA0BEE1F88F7E095089564
:101F900004D06894B111D9C00895BCD088F09F577F
:101FA00090F0B92F9927B751A0F0D1F0660F771FA5
:101FB000881F991F1AF0BA95C9F712C0B13081F085
:101FC000C3D0B1E00895C0C0672F782F8827B85FCD
:101FD00039F0B93FCCF3869577956795B395D9F7E6
:101FE0003EF490958095709561957F4F8F4F9F4FF0
:101FF0000895E89409C097FB3EF4909580957095FC
:1020000061957F4F8F4F9F4F9923A9F0F92F96E944
:10201000BB279395F695879577956795B795F111B9
:10202000F8CFFAF4BB0F11F460FF1BC06F5F7F4F56
:102030008F4F9F4F16C0882311F096E911C0772368
:1020400021F09EE8872F762F05C0662371F096E871
:10205000862F70E060E02AF09A95660F771F881F40
:10206000DAF7880F9695879597F90895990F0008E4
:10207000550FAA0BE0E8FEEF16161706E807F9075A
:10208000C0F012161306E407F50798F0621B730BF5
:10209000840B950B39F40A2661F0232B242B252B76
:1020A00021F408950A2609F4A140A6958FEF811D19
:1020B000811D089597F99F6780E870E060E00895BA
:1020C0009FEF80EC089500240A9416161706180650
:1020D0000906089500240A9412161306140605062C
:1020E0000895092E0394000C11F4882352F0BB0FBD
:1020F00040F4BF2B11F460FF04C06F5F7F4F8F4F20
:102100009F4F089557FD9058440F551F59F05F3F5A
:1021100071F04795880F97FB991F61F09F3F79F009
:1021200087950895121613061406551FF2CF46958B
:10213000F1DF08C0161617061806991FF1CF86950D
:102140007105610508940895E894BB2766277727F1
:10215000CB0197F908958ADF08F48FEF08950BD02B
:10216000C0CFB1DF28F0B6DF18F0952309F0A2CF79
:10217000A7CF1124EACFC6DFA0F3959FD1F3950F27
:1021800050E0551F629FF001729FBB27F00DB11DFB
:10219000639FAA27F00DB11DAA1F649F6627B00D8B
:1021A000A11D661F829F2227B00DA11D621F739F74
:1021B000B00DA11D621F839FA00D611D221F749F82
:1021C0003327A00D611D231F849F600D211D822FC9
:1021D000762F6A2F11249F5750408AF0E1F0882310
:1021E0004AF0EE0FFF1FBB1F661F771F881F91501D
:1021F0005040A9F79E3F510570F05CCFA6CF5F3FDE
:10220000ECF3983EDCF3869577956795B795F7954F
:10221000E7959F5FC1F7FE2B880F911D96958795D7
:1022200097F9089523DF880B990B0895CF93DF93D7
:102230008230910510F482E090E0E0911602F09176
:10224000170220E030E0A0E0B0E0309739F14081A3
:10225000518148175907B8F04817590771F482811E
:102260009381109729F013969C938E9312972CC00C
:10227000909317028093160227C02115310531F083
:102280004217530718F0A901DB0101C0EF019A01C1
:10229000BD01DF010280F381E02DD7CF211531058B
:1022A000F9F0281B390B2430310580F48A819B8199
:1022B0006115710521F0FB019383828304C0909323
:1022C000170280931602FE01329644C0FE01E20F0F
:1022D000F31F8193919322503109398328833AC0A7
:1022E0002091140230911502232B41F42091020118
:1022F00030910301309315022093140220910001C4
:10230000309101012115310541F42DB73EB74091BF
:10231000040150910501241B350BE0911402F0914A
:102320001502E217F307A0F42E1B3F0B28173907FD
:1023300078F0AC014E5F5F4F2417350748F04E0F21
:102340005F1F50931502409314028193919302C032
:10235000E0E0F0E0CF01DF91CF910895CF93DF93DC
:10236000009709F487C0FC01329713821282C09152
:102370001602D0911702209781F420813181280F15
:10238000391F80911402909115028217930779F5F5
:10239000F0931502E09314026DC0DE0120E030E0FE
:1023A000AE17BF0750F412964D915C9113979D01A3
:1023B0004115510509F1DA01F3CFB383A2834081BE
:1023C0005181840F951F8A179B0771F48D919C9101
:1023D0001197840F951F02969183808312968D9199
:1023E0009C911397938382832115310529F4F093EF
:1023F0001702E09316023EC0D9011396FC93EE93A8
:1024000012974D915D91A40FB51FEA17FB0779F460
:1024100080819181840F951F0296D90111969C931A
:102420008E938281938113969C938E931297E0E012
:10243000F0E08A819B81009719F0FE01EC01F9CF51
:10244000CE01029628813981820F931F20911402B8
:10245000309115022817390769F4309729F4109242
:1024600017021092160202C013821282D093150234
:0E247000C0931402DF91CF910895F894FFCF2E
:10247E0000001802800001000000012C2000094419
:10248E0053543D0000000000A0080C0A22083B082F
:10249E002D087E086E616E00696E66006F766600AE
:0224AE002E00FE
:00000001FF
