:100000000C946B000C9493000C9493000C9493004C
:100010000C9493000C9493000C9493000C94930014
:100020000C9493000C9493000C9493000C94930004
:100030000C9493000C9493000C9493000C949300F4
:100040000C9448100C9493000C948B0A0C94BD0AE9
:100050000C9493000C9493000C9493000C949300D4
:100060000C94190F0C949300084AD73B3BCE016EB9
:1000700084BCBFFDC12F3D6C74319ABD56833DDAFF
:100080003D00C77F11BED9E4BB4C3E916BAAAABE0E
:10009000000000803F00010204081020408001029F
:1000A00004081020010204081020040404040404BD
:1000B000040402020202020203030303030300001A
:1000C0000000250028002B0000000000240027006D
:1000D0002A00ED0A550E11241FBECFEFD8E0DEBF77
:1000E000CDBF11E0A0E0B1E0EAE8FBE202C005907C
:1000F0000D92A43CB107D9F723E0A4ECB1E001C014
:100100001D92AC36B207E1F710E0C6EDD0E004C0B6
:100110002297FE010E94D911C23DD107C9F70E9462
:1001200037090C94C3150C9400002EE1FC012083C8
:1001300008950F931F93CF93DF93EC0100910A0171
:1001400010910B019C012F5F3F4F43E06AE08881D3
:100150000E947701833051F48981883439F48A818F
:10016000843321F481E09B81933309F080E0DF91B7
:10017000CF911F910F910895462F4295440F407ED5
:1001800061E0FC0180810C9467011F93CF93DF93A2
:10019000EC01162F462F62E088810E9467011F83C1
:1001A000DF91CF911F910895CF93DF93EC0140E74A
:1001B00060E088810E94670161E0CE010E94BC007E
:1001C00061E0CE01DF91CF910C94C500AF92BF9258
:1001D000CF92DF92EF92FF920F931F93CF93DF9313
:1001E000EC017B015A01690100910A0110910B0198
:1001F0009C012F5F3F4F46E063E088810E947701BA
:100200008F81813029F441E062E088810E9467019A
:10021000898190E0982F88272A81822BF70191838A
:1002200080838D8190E0982F88272E81822BF50185
:10023000918380838B8190E0982F88272C81822B5B
:10024000F60191838083DF91CF911F910F91FF90F1
:10025000EF90DF90CF90BF90AF900895EF92FF9214
:100260000F931F93CF93DF9300D0CDB7DEB7062F48
:10027000142F682F8FE992E029833A830E94350E6C
:10028000602F8FE992E00E94E60D2981022FE22E75
:100290003A81F32E8E2D801B811740F4F701619176
:1002A0007F018FE992E00E94E60DF4CF8FE992E0A2
:1002B0000E94520E91E0811190E0892F0F900F90D3
:1002C000DF91CF911F910F91FF90EF900895CF9301
:1002D000DF931F92CDB7DEB749839E012F5F3F4F5B
:1002E00041E00E942E010F90DF91CF9108953F923F
:1002F0004F925F926F927F928F929F92AF92BF9236
:10030000CF92DF92EF92FF920F931F93CF93DF93E1
:1003100000D000D000D0CDB7DEB7682E562E742E98
:100320003A8329830E9492106B017C01312C412C6D
:10033000872D90E09C838B834801A12CB12C37142E
:10034000B0F5662D8FE992E00E94350E652D8FE99C
:1003500092E00E94E60D8FE992E00E94520E662D17
:100360008FE992E00E94350E4B815C81431951095F
:100370004132510514F040E250E0662D8FE992E0E1
:100380000E94320E8FE992E00E948E0D892B59F166
:100390000115110579F10E9492106C197D098E09E1
:1003A0009F09681579058A059B0520F11CC0011578
:1003B000110589F10E9492106C197D098E099F091F
:1003C00020E030E0601771078207930720F1872D46
:1003D00090E0242D332727FD309528173907DCF4CA
:1003E00044244A9418C0872D90E2971508F480E2BF
:1003F000380EA5CFE981FA81E40DF11D47FCFA958D
:10040000FE83ED838FE992E00E94960DED81FE81DF
:1004100080834394B7CF842D26960FB6F894DEBF21
:100420000FBECDBFDF91CF911F910F91FF90EF9045
:10043000DF90CF90BF90AF909F908F907F906F9004
:100440005F904F903F900895CF92DF92EF92FF928E
:100450000F931F93CF93DF93EC01CB01BA01680197
:100460007901A90198010E94ED119B01AC01C7011E
:10047000B6010E94B712688379838A839B83DF91D8
:10048000CF911F910F91FF90EF90DF90CF90089543
:100490002F923F924F925F926F927F928F929F9294
:1004A000AF92BF92CF92DF92EF92FF920F931F9382
:1004B000CF93DF93CDB7DEB73C01862F2D883E88E2
:1004C0004F88588CF30184869586A686B786208A45
:1004D000318A428A538A608371835383428335838E
:1004E000248317830683F186E086D386C28661E083
:1004F0000E94411161E0F30182810E94411161E09B
:10050000F30184810E94411161E0F30186810E9420
:10051000411161E0F30180850E94411161E0F30126
:100520008285DF91CF911F910F91FF90EF90DF9027
:10053000CF90BF90AF909F908F907F906F905F9083
:100540004F903F902F900C9441112F923F924F92D9
:100550005F926F927F928F929F92AF92BF92CF9253
:10056000DF92EF92FF920F931F93CF93DF93CDB75C
:10057000DEB72B970FB6F894DEBF0FBECDBF9B87BB
:100580008A87DC01D896BC91B983B11102C0198267
:10059000E2C00E9492106A837B838C839D83EA85EC
:1005A000FB8580A191A1A2A1B3A14A815B816C814D
:1005B0007D81481B590B6A0B7B0B84A595A5A6A5CD
:1005C000B7A5481759076A077B0708F3028CF38D14
:1005D000E02D80809180A280B380AA85BB855E9645
:1005E000ED91FC915F97A5019401608171818281F9
:1005F00093810E94EC112B013C01EA85FB85208947
:100600003189428953890E943214AA85BB85949608
:100610002D913D914D915C9197970E94ED116B0149
:100620007C01EA85FB8564A375A386A397A324A810
:1006300035A806A917A99101A8010E942714181628
:100640001CF4C101D80118C0AA85BB85D0968D9134
:100650009D910D90BC91A02D8E839F83A887B98713
:100660009C01AD01C701B6010E94B31287FF0AC009
:100670008E819F81A885B985EA85FB8584A395A392
:10068000A6A3B7A3AA85BB851C962D913D914D913C
:100690005C911F97C301B2010E943214EA85FB8569
:1006A00024A135A146A157A10E94ED116B017C0147
:1006B000AA85BB8598962D913D914D915C919B9714
:1006C000C501B4010E94EC11EA85FB8524893589B6
:1006D000468957890E9432149B01AC01C701B601BB
:1006E0000E94EC116B017C019101A8010E9427146A
:1006F0001816BCF0AA85BB85D0962C90D097D196C1
:100700003C90D197D2960C91D297D3961C9191019F
:10071000A801B601C7010E94B31287FD02C01601ED
:100720008701AA85BB855C96ED91FC915D97C1011F
:10073000D80180839183A283B383EA85FB8580A659
:1007400091A6A2A6B3A68A819B81AC81BD8180A31C
:1007500091A3A2A3B3A389812B960FB6F894DEBF11
:100760000FBECDBFDF91CF911F910F91FF90EF9002
:10077000DF90CF90BF90AF909F908F907F906F90C1
:100780005F904F903F902F9008952F923F924F92FD
:100790005F926F927F928F929F92AF92BF92CF9211
:1007A000DF92EF92FF920F931F93CF93DF9300D0CE
:1007B00000D0CDB7DEB71C012A013B014801590129
:1007C00020E030E0A901C301B2010E94B31287FD0D
:1007D00078C020E030E0A901C501B4010E94B31245
:1007E00087FD6FC020E030E0A901C701B6010E947B
:1007F000B31287FD66C0F10140825182628273822A
:1008000084829582A682B782C086D186E286F386EC
:1008100064A575A586A597A50E94501320E030E039
:100820004AE754E40E94B71269837A838B839C83DE
:10083000F10144865586668677869B01AC01C50129
:10084000B4010E9432144B015C01F101608B718B89
:10085000828B938B29813A814B815C81C701B601E0
:100860000E94B7126B017C01F101648B758B868B42
:10087000978B808D918D019721F5A301920160E006
:1008800070E0CB010E94EC11F101648775878687C7
:100890009787A501940160E070E0CB010E94EC1104
:1008A000F101608B718B828B938BA701960160E0C5
:1008B00070E0CB010E94EC11F101648B758B868B8B
:1008C000978B0F900F900F900F90DF91CF911F910A
:1008D0000F91FF90EF90DF90CF90BF90AF909F90DF
:1008E0008F907F906F905F904F903F902F900895E2
:1008F0008F929F92AF92BF92CF92DF92EF92FF9230
:10090000CF93DF93EC0116161706ACF56B01EE24BE
:10091000D7FCE094FE2CC701B6010E9452134B0194
:100920005C016CA57DA58EA59FA50E9450139B011F
:10093000AC01C501B4010E94B7124B015C019B01DF
:10094000AC01688979898A899B890E943214688BF5
:10095000798B8A8B9B8BA50194016C897D898E890B
:100960009F890E94B7126C8B7D8B8E8B9F8BCCA640
:10097000DDA6EEA6FFA6DF91CF91FF90EF90DF906E
:10098000CF90BF90AF909F908F9008952F923F92FD
:100990004F925F926F927F928F929F92AF92BF928F
:1009A000CF92DF92EF92FF920F931F93CF93DF933B
:1009B000EC016A017B0148015901A9019801C701B5
:1009C000B6010E94271487FF4EC0C8AAD9AAEAAA76
:1009D000FBAA8CAA9DAAAEAABFAA88AD882309F457
:1009E00042C02C8C3D8CF10140805180628073802C
:1009F000A5019401C301B2010E942714181634F412
:100A0000F10180829182A282B3820DC0A70196017A
:100A1000C301B2010E94B31287FF05C0F101C08279
:100A2000D182E282F3828CA09DA0AEA0BFA0CCA810
:100A3000DDA8EEA8FFA8A7019601C501B4010E9498
:100A40002714181664F0C8A8D9A8EAA8FBA8A7011B
:100A50009601C501B4010E94B31287FF04C0CCA265
:100A6000DDA2EEA2FFA2DF91CF911F910F91FF9027
:100A7000EF90DF90CF90BF90AF909F908F907F903E
:100A80006F905F904F903F902F9008958F929F921C
:100A9000AF92BF92CF92DF92EF92FF92CF93DF930C
:100AA000EC01EC8DFD8DC080D180E280F380CCA282
:100AB000DDA2EEA2FFA2EA8DFB8D80819181A28151
:100AC000B38188A799A7AAA7BBA78CA89DA8AEA801
:100AD000BFA8A5019401C701B6010E9427141816EA
:100AE00064F088A899A8AAA8BBA8A5019401C70189
:100AF000B6010E94B31287FF04C08CA29DA2AEA2D1
:100B0000BFA2DF91CF91FF90EF90DF90CF90BF9089
:100B1000AF909F908F9008951F93CF93DF93EC0138
:100B200011E06130710509F010E088AD91E089278E
:100B3000181303C0CE010E94460518AFDF91CF9174
:100B40001F9108950F931F93CF93DF93EC018B01B7
:100B500088AD882361F1888D998D6817790739F1FF
:100B60002C853D854E855F8560E070E0CB010E945D
:100B7000EC116C877D878E879F87288939894A8900
:100B80005B8960E070E0CB010E94EC11688B798B8F
:100B90008A8B9B8B2C893D894E895F8960E070E050
:100BA000CB010E94EC116C8B7D8B8E8B9F8B198FF0
:100BB000088FDF91CF911F910F9108954F925F920F
:100BC0006F927F928F929F92AF92BF92CF92DF925D
:100BD000EF92FF920F931F93CF93DF9300D000D03B
:100BE000CDB7DEB74C0127013801A982BA82CB828A
:100BF000DC82FC01558F448F738F628F378F268F75
:100C000010AE10AA11AA12AA13AA80E090E0AFE7D2
:100C1000B3E484AB95ABA6ABB7AB84E690E0A0E0C1
:100C2000B0E084A795A7A6A7B7A76B8D7C8DC4015C
:100C30000E94A205CF88D88CE98CFA8C09811A8190
:100C40002B813C81B301A201C4010E94C5030E9413
:100C50009210F40144A455A466A477A464197509FC
:100C60008609970960A371A382A393A30F900F90A5
:100C70000F900F90DF91CF911F910F91FF90EF9008
:100C8000DF90CF90BF90AF909F908F907F906F90AC
:100C90005F904F9008955F926F927F928F929F9294
:100CA000AF92BF92CF92DF92EF92FF920F931F937A
:100CB000CF93DF93EC0126E040E855E260E070E07E
:100CC00082E092E00E94290A64E670E080E090E011
:100CD0000E94C11067E471E082E092E00E948B0BF9
:100CE00088E090E00E9446108C010E9495001B83D2
:100CF0000A83C8010E94D40063E671E082E092E0BA
:100D00000E948B0B8A819B810E949900882319F095
:100D10006DE071E002C06CE271E082E092E00E945E
:100D20008B0B60ED77E080E090E00E94C11084E1E1
:100D300090E00E9446103C018FE38F9380E8582E8C
:100D40005F921F921F92812C912C90E8A92E9FE315
:100D5000B92E27E0C22ED12C35E0E32EF12C06E08F
:100D600010E024E030E042E050E063E070E0C301D6
:100D70000E9448027982688288E090E00E944610D2
:100D80007C010DEC1CEC2CE43DE34AE057ED63EAFA
:100D90007BE30E942402FDAAECAA1EA61FA618AAA5
:100DA00019AA89E390E00E9446104C019E01225D41
:100DB0003F4FAE014A5D5F4FBE016E5D7F4F1F9298
:100DC0001F928EE38F935F921F921F92EAE0AE2EE6
:100DD000E7EDBE2EE3E2CE2EECE3DE2EE12CF12C8D
:100DE00000EA10E4C4010E94DE059BAA8AAACA8C0C
:100DF000DB8CEC8CFD8C0A891B892C893D894A850A
:100E00005B856C857D85C4010E94C50361E070E04F
:100E10008AA99BA90E948C0562E370E08AA99BA91C
:100E20000E94780400E010E02FE733E440E050E057
:100E30006FE773EC8AA99BA90E94C6048DB79EB781
:100E40000A960FB6F8949EBF0FBE8DBFDF91CF916B
:100E50001F910F91FF90EF90DF90CF90BF90AF90D8
:100E60009F908F907F906F905F9008956F927F9288
:100E70008F929F92AF92BF92CF92DF92EF92FF92AA
:100E80000F931F93CF93DF93EC018EE00E94241108
:100E90008C018FE00E9424113C0180E10E9424110A
:100EA0004C01B801882777FD8095982F1F921F92DB
:100EB00021E62F9328EA2F93A12CB12C6501EE2473
:100EC000EA9413E0F12E00E010E020E030E0A90108
:100ED0000E94470D0E94521320E030E048EC52E49B
:100EE0000E94B7126A877B878C879D87B30188270A
:100EF00077FD8095982F1F92772473947F9226E830
:100F00002F9320EA2F9320E030E0A9010E94470DA3
:100F10000E94521320E030E048EC52E40E94B712E5
:100F20006A8B7B8B8C8B9D8BB401882777FD80959A
:100F3000982F1F921F927F9224EF2F9320E030E092
:100F4000A9010E94470D0E94521320E030E048ECB6
:100F500052E40E94B7124B015C016A8F7B8F8C8F29
:100F60009D8FCA84DB84EC84FD848DB79EB70C967C
:100F70000FB6F8949EBF0FBE8DBF2E853F85488962
:100F80005989C701B6010E94B312811117C02E8979
:100F90003F89488D598D6A897B898C899D890E94FA
:100FA000B31281110BC02E8D3F8D48A159A1C501EF
:100FB000B4010E94B312882309F450C022E030E04B
:100FC000B701A60182E092E00E94330D61E871E072
:100FD00082E092E00E946E0B4A895B896C897D8970
:100FE00022E030E082E092E00E94330D61E871E09F
:100FF00082E092E00E946E0B4A8D5B8D6C8D7D8D40
:1010000022E030E082E092E00E94350DCA8CDB8C59
:10101000EC8CFD8C0A891B892C893D894A855B856E
:101020006C857D858AA99BA90E94C5038A859B85BD
:10103000AC85BD858E879F87A88BB98B8A899B8954
:10104000AC89BD898E8B9F8BA88FB98F8A8D9B8D24
:10105000AC8DBD8D8E8F9F8FA8A3B9A3DF91CF914B
:101060001F910F91FF90EF90DF90CF90BF90AF90C6
:101070009F908F907F906F900895FC0112A213A211
:1010800014A215A282A993A90C94A502CF92DF9273
:10109000EF92FF920F931F93CF93DF9300D000D076
:1010A000CDB7DEB78C019C01285F3F4FAC014A5F92
:1010B0005F4FBC016C5F7F4FFC01828193810E9476
:1010C000E60064E871E082E092E00E946E0BF801B5
:1010D000648175814AE050E082E092E00E94400C19
:1010E00066E971E082E092E00E946E0BF801668191
:1010F00077814AE050E082E092E00E94400C66E98D
:1011000071E082E092E00E946E0BF80160857185CB
:101110004AE050E082E092E00E94400C66E971E013
:1011200082E092E00E946E0BF8016481758188274D
:1011300077FD8095982F0E9452139B01AC01F80116
:1011400066817781882777FD8095982F29833A8358
:101150004B835C830E94521329813A814B815C81CD
:101160000E9460126B017C0120E030E0A9010E9426
:10117000B31287FF0AC02BED3FE049EC50E4C701F2
:10118000B6010E94ED116B017C016EE871E082E016
:1011900092E00E946E0B20E030E044E353E4C7018C
:1011A000B6010E9432142BED3FE049E450E40E9466
:1011B000B712AB01BC0122E030E082E092E00E9475
:1011C000350D0E9492106B017C01F80186A997A948
:1011D000A0ADB1ADA7019601281B390B4A0B5B0BE3
:1011E000DA01C901883E9340A105B10538F0C6AACD
:1011F000D7AAE0AEF1AEC8010E943607F80182AD71
:1012000093ADA4ADB5ADA7019601281B390B4A0BD0
:101210005B0B223331054105510598F0C2AED3AEC8
:10122000E4AEF5AEC8010F900F900F900F90DF91D4
:10123000CF911F910F91FF90EF90DF90CF900C9482
:101240003D080F900F900F900F90DF91CF911F915D
:101250000F91FF90EF90DF90CF900895089584EC68
:1012600091E00C944B0684EC91E00C9446080E94AB
:10127000E9100E942E090E942F09C3E7D9E00E94BD
:1012800033092097E1F30E947309F9CFFC01818DA6
:10129000228D90E0805C9F4F821B91098F7399276C
:1012A0000895FC01918D828D981731F0828DE80FA1
:1012B000F11D858D90E008958FEF9FEF0895FC015B
:1012C000918D828D981761F0828DDF01A80FB11D7D
:1012D0005D968C91928D9F5F9F73928F90E00895A1
:1012E0008FEF9FEF089583EE9AE0892B49F080E01D
:1012F00090E0892B29F00E94E30A81110C940000F0
:101300000895FC01848DDF01A80FB11DA35ABF4FC2
:101310002C91848D90E001968F739927848FA689F4
:10132000B7892C93A089B1898C9180648C93938D1B
:10133000848D981306C00288F389E02D80818F7D0B
:1013400080830895CF93DF93EC01888D8823C9F0C3
:10135000EA89FB89808185FD05C0A889B9898C91BE
:1013600086FD0FC00FB607FCF5CF808185FFF2CF59
:10137000A889B9898C9185FFEDCFCE010E948109A2
:10138000E7CFDF91CF910895CF92DF92FF920F9335
:101390001F93CF93DF931F92CDB7DEB76C01DC01B3
:1013A0005B969C915B975C968C915C97981307C0B9
:1013B0005096ED91FC915197808185FD32C0F601E8
:1013C000038D10E00F5F1F4F0F731127F02EF601F2
:1013D000848DF81211C00FB607FCF9CFD6015096D4
:1013E000ED91FC915197808185FFF1CFC601698312
:1013F0000E9481096981EBCF838DE80FF11DE35ACB
:10140000FF4F6083D6015B960C935B975296ED91EC
:10141000FC91539780818062808381E058968C9301
:101420000DC0D6015696ED91FC915797608350966A
:10143000ED91FC91519780818064808381E090E000
:101440000F90DF91CF911F910F91FF90DF90CF9080
:101450000895BF92CF92DF92EF92FF92CF93DF93E6
:10146000EC016A017B01B22EE889F98982E0808370
:10147000411581EE580761057105A1F060E079E042
:101480008DE390E0A70196010E948B112150310954
:10149000410951095695479537952795211580E1C2
:1014A000380798F0E889F989108260E874E88EE1DD
:1014B00090E0A70196010E948B112150310941094A
:1014C00051095695479537952795EC85FD853083CD
:1014D000EE85FF852083188EEC89FD89B082EA892C
:1014E000FB89808180618083EA89FB8980818860B3
:1014F0008083EA89FB89808180688083EA89FB890F
:1015000080818F7D8083DF91CF91FF90EF90DF907E
:10151000CF90BF9008951F920F920FB60F92112493
:101520002F938F939F93EF93FF93E0911202F0918B
:1015300013028081E0911802F091190282FD12C01D
:10154000908180911B028F5F8F7320911C02821704
:1015500051F0E0911B02F0E0EE5FFD4F958F80931C
:101560001B0201C08081FF91EF919F918F912F917C
:101570000F900FBE0F901F9018951F920F920FB6ED
:101580000F9211242F933F934F935F936F937F9309
:101590008F939F93AF93BF93EF93FF9382E092E07B
:1015A0000E948109FF91EF91BF91AF919F918F911F
:1015B0007F916F915F914F913F912F910F900FBE4F
:1015C0000F901F90189582E092E00E94460921E05A
:1015D000892B09F420E0822F0895109205021092C1
:1015E000040288EE93E0A0E0B0E0809306029093BE
:1015F0000702A0930802B09309028CE991E090934E
:1016000003028093020285EC90E090930F02809396
:101610000E0284EC90E0909311028093100280EC13
:1016200090E0909313028093120281EC90E09093EB
:1016300015028093140282EC90E09093170280933D
:10164000160286EC90E09093190280931802109293
:101650001B0210921C0210921D0210921E0208958D
:10166000CF92DF92EF92FF920F931F93CF93DF936E
:101670006C017A01EB01E60EF71E00E010E0CE15DA
:10168000DF0561F06991D601ED91FC910190F08147
:10169000E02DC6010995080F191FF1CFC801DF9190
:1016A000CF911F910F91FF90EF90DF90CF90089511
:1016B0006115710581F0DB010D900020E9F7AD01A6
:1016C00041505109461B570BDC01ED91FC91028002
:1016D000F381E02D099480E090E008950C94580B7C
:1016E000DC01ED91FC910190F081E02D09940F93C4
:1016F0001F93CF93DF93EC016DE00E94700B8C0180
:101700006AE0CE010E94700B800F911FDF91CF9194
:101710001F910F9108950F931F93CF93DF93EC01C7
:101720000E94580B8C01CE010E94770B800F911FF5
:10173000DF91CF911F910F9108958F929F92AF9259
:10174000BF92CF92DF92EF92FF920F931F93CF93AE
:10175000DF93CDB7DEB7A1970FB6F894DEBF0FBE0B
:10176000CDBF7C01C42EE52FCB01D22E19A221E0E2
:101770002D1510F02AE0D22E8E010F5D1F4F8D2CFB
:10178000912CA12CB12C6C2D7E2FA50194010E94CF
:101790008B118C2DD29E80191124015011098A3091
:1017A00014F4805D01C0895CF80180832115310546
:1017B0004105510521F0C22EE32FCA01E4CFB80143
:1017C000C7010E94580BA1960FB6F894DEBF0FBE5A
:1017D000CDBFDF91CF911F910F91FF90EF90DF90E0
:1017E000CF90BF90AF909F908F900895CF92DF924F
:1017F000EF92FF920F931F93CF93DF93EC016A0157
:101800007B012115310579F4E881F9810190F0819E
:10181000E02D642FDF91CF911F910F91FF90EF90FA
:10182000DF90CF9009942A303105E9F477FF1AC090
:101830006DE20E94700B8C0144275527BA014C19A8
:101840005D096E097F092AE0CE010E949D0B800F81
:10185000911FDF91CF911F910F91FF90EF90DF903B
:10186000CF9008952AE0B701A601CE01DF91CF9174
:101870001F910F91FF90EF90DF90CF900C949D0BF4
:101880009A01AB01662757FD6095762F0C94F60BF5
:101890004F925F926F927F928F929F92AF92BF9280
:1018A000CF92DF92EF92FF920F931F93CF93DF932C
:1018B000EC016A017B01B22E9A01AB01C701B601AE
:1018C0000E949814882319F068EA71E027C0260165
:1018D0003701E89477F82FEF3FEF4FE75FE7C30159
:1018E000B2010E94981481110DC02FEF3FEF4FE716
:1018F0005FE7C301B2010E94B31218161CF46CEA30
:1019000071E00CC02FEF3FEF4FE75FE4C701B60176
:101910000E9427141816ACF460EB71E0CE01DF9141
:10192000CF911F910F91FF90EF90DF90CF90BF90DC
:10193000AF909F908F907F906F905F904F900C949E
:10194000580B2FEF3FEF4FE75FECC701B6010E9446
:10195000B31287FDE1CF20E030E0A901C701B60155
:101960000E94B31287FF0AC06DE2CE010E94700B85
:101970008C01F7FAF094F7F8F09402C000E010E060
:10198000A12C60E070E080E09FE3AB1441F020E028
:1019900030E040E251E40E94B712A394F6CF9B01DD
:1019A000AC01C701B6010E94ED116B017C010E94E0
:1019B00024132B013C010E9450139B01AC01C70171
:1019C000B6010E94EC116B017C012AE0B301A20177
:1019D000CE010E949D0B080F191FBB2039F061E654
:1019E00071E0CE010E94580B080F191F7B2C772045
:1019F00041F120E030E040E251E4C701B6010E942D
:101A000032146B017C010E941F134B01AA2497FC26
:101A1000A094BA2C2AE030E0B501A401CE010E94C6
:101A2000F60B080F191FC501B4010E9452139B0148
:101A3000AC01C701B6010E94EC116B017C017A94E4
:101A4000D6CFC801DF91CF911F910F91FF90EF90FA
:101A5000DF90CF90BF90AF909F908F907F906F90CE
:101A60005F904F9008950C94480C0F931F93CF9361
:101A7000DF93EC010E94480C8C01CE010E94770B91
:101A8000800F911FDF91CF911F910F9108954F9279
:101A90005F926F927F92AF92BF92CF92DF92EF925E
:101AA000FF920F931F93CF93DF93CDB7DEB729013A
:101AB0003A01621B730B840B950B29893A894B8978
:101AC0005C892A193B094C095D09298B3A8B4B8BA0
:101AD0005C8B9B01AC0169897A898B899C890E9406
:101AE0007B11E418F50806091709A80197010E945F
:101AF000AD112A0D3B1D4C1D5D1DCA01B901DF91C1
:101B0000CF911F910F91FF90EF90DF90CF90BF90FA
:101B1000AF907F906F905F904F9008958091CF022B
:101B200090E02091D002821B910908952091D0026B
:101B30008091CF02281750F4E22FF0E0EF52FD4FD2
:101B4000808190E02F5F2093D00208958FEF9FEF68
:101B50000895E091D0028091CF02E81730F4F0E0D0
:101B6000EF52FD4F808190E008958FEF9FEF089531
:101B70000895CF92DF92EF92FF920F931F93CF932E
:101B8000DF937C01CB018A012091AB02222389F0F3
:101B9000EB016B01C40ED51ECC15DD0569F0699112
:101BA000D701ED91FC910190F081E02DC7010995DD
:101BB000F3CF642F0E94F00EC801DF91CF911F91E7
:101BC0000F91FF90EF90DF90CF900895CF93DF9328
:101BD0001F92CDB7DEB769832091AB022223D1F0EB
:101BE0002091AC02203240F021E030E0FC01338350
:101BF000228380E090E015C08091AD02E82FF0E0F4
:101C0000E255FD4F998190838F5F8093AD02809361
:101C1000AC0205C061E0CE0101960E94F00E81E0A9
:101C200090E00F90DF91CF910895FC011382128212
:101C300048EE53E060E070E0448355836683778329
:101C400088EB91E0918380830895862F413208F0DC
:101C500040E261ED72E00E94590E1092D002809332
:101C6000CF02089521E00C94250E81E08093AB0211
:101C70006093CE021092AD021092AC0208950F93C1
:101C8000062F21E04091AC026EEA72E08091CE0214
:101C90000E949D0E1092AD021092AC021092AB0207
:101CA0000F91089561E00C943F0E8FE992E00C943F
:101CB000150E413208F03FC090915E039111FCCFA8
:101CC00091E090935E0320935C032FEF2093F10249
:101CD00010923603240F2093350390935D03909167
:101CE0005D03880F892B80935D0380915B038130B6
:101CF00041F410925B0380915D038093BB0085ECFF
:101D000001C085EE8093BC0080915E038130E1F3D9
:101D100080913603841710F44091360327E333E0B3
:101D2000FB01D9018A2F821B841718F48D918193AE
:101D3000F9CF842F089580E008950F93413208F081
:101D400046C090915E039111FCCF92E090935E03A8
:101D500000935C039FEF9093F1021092360340933F
:101D60003503FB0167E373E0DB019A2F961B9417A1
:101D700018F491919D93F9CF10925D0390915D03BA
:101D8000880F892B80935D0380915B03813041F440
:101D900010925B0380915D038093BB0085EC01C0D2
:101DA00085EE8093BC00222321F080915E03823077
:101DB000E1F38091F1028F3F61F08091F102803276
:101DC00051F08091F102803341F483E007C081E05B
:101DD00005C080E003C082E001C084E00F91089557
:101DE000613298F420915E03243089F460931303E8
:101DF000FC0185E193E0DC012A2F281B261718F44B
:101E000021912D93F9CF80E0089581E0089582E03B
:101E1000089585ED8093BC008091BC0084FDFCCFCB
:101E200010925E03089585EC8093BC0010925E03CF
:101E300008951F920F920FB60F9211242F933F9384
:101E40004F935F936F937F938F939F93AF93BF93C2
:101E5000EF93FF938091B900887F803609F49CC08E
:101E600068F5883209F45BC090F4803109F454C0FD
:101E700038F4882309F4F5C0883009F44DC0F5C062
:101E8000883109F44CC0803209F45DC0EEC0803462
:101E900009F468C048F4803309F455C0883309F068
:101EA000E4C08093F102A8C0803509F44FC08835A2
:101EB00009F45DC0883409F0D8C0D5C0883909F468
:101EC000C6C0A8F4883709F467C038F4883609F426
:101ED00063C0803709F460C0C8C0883809F4B7C04F
:101EE000803909F45FC0803809F0BFC05BC0803B17
:101EF00009F485C038F4803A09F466C0883A09F4D8
:101F00007EC0B3C0803C09F4A6C0883C09F4A3C0DD
:101F1000883B09F489C0A9C080915D0310C09091ED
:101F2000360380913503981770F5E091360381E010
:101F30008E0F80933603F0E0E95CFC4F8081809344
:101F4000BB0085EC85C08093F1028DC0E091360323
:101F500081E08E0F809336038091BB00F0E0E95C56
:101F6000FC4F808390913603809135036DC0E091E2
:101F7000360381E08E0F809336038091BB00F0E042
:101F8000E95CFC4F808380915C0381116CC081E02F
:101F900080935B0384EA60C083E080935E031092C9
:101FA000F202CFCF8091F202803208F050C0E0916F
:101FB000F20281E08E0F8093F2028091BB00F0E08C
:101FC000ED50FD4F8083BDCF8091F202803230F41E
:101FD000E091F202F0E0ED50FD4F10820E94090FF7
:101FE0006091F20270E0E0915703F091580383EFA3
:101FF00092E009951092F2020E94130F36C084E01D
:1020000080935E031092140310921303E09159031E
:10201000F0915A03099580911303811105C081E065
:102020008093130310921503E091140381E08E0F47
:1020300080931403F0E0EB5EFC4F80818093BB0043
:102040009091140380911303981708F47ACF85E8D0
:102050008093BC000AC085EC8093BC0010925E03A4
:1020600004C01092F1020E94090FFF91EF91BF91FD
:10207000AF919F918F917F916F915F914F913F9120
:102080002F910F900FBE0F901F9018950C949C14D9
:102090001F920F920FB60F9211242F933F938F939D
:1020A0009F93AF93BF938091600390916103A09140
:1020B0006203B091630330915F0323E0230F2D3758
:1020C00020F40196A11DB11D05C026E8230F02963C
:1020D000A11DB11D20935F03809360039093610362
:1020E000A0936203B09363038091640390916503AE
:1020F000A0916603B09167030196A11DB11D809365
:10210000640390936503A0936603B0936703BF9144
:10211000AF919F918F913F912F910F900FBE0F9094
:102120001F9018952FB7F894609160037091610328
:1021300080916203909163032FBF08953FB7F89495
:102140008091640390916503A0916603B091670349
:1021500026B5A89B05C02F3F19F00196A11DB11D02
:102160003FBF6627782F892F9A2F620F711D811D1F
:10217000911D42E0660F771F881F991F4A95D1F77E
:102180000895CF92DF92EF92FF92CF93DF936B018E
:102190007C010E949E10EB01C114D104E104F10402
:1021A00089F00E947A110E949E106C1B7D0B683E84
:1021B000734090F381E0C81AD108E108F108C851D2
:1021C000DC4FEACFDF91CF91FF90EF90DF90CF907F
:1021D0000895789484B5826084BD84B5816084BD9F
:1021E00085B5826085BD85B5816085BDEEE6F0E090
:1021F000808181608083E1E8F0E0108280818260EC
:102200008083808181608083E0E8F0E0808181606C
:102210008083E1EBF0E0808184608083E0EBF0E09C
:10222000808181608083EAE7F0E080818460808340
:1022300080818260808380818160808380818068EA
:1022400080831092C10008958E3008F08E50877000
:1022500020910C0190E4299F90011124822B8093FE
:102260007C0080917A00806480937A0080917A006B
:1022700086FDFCCF809178002091790090E0922B30
:102280000895CF93DF9390E0FC01EA56FF4F24912D
:10229000FC01E655FF4F8491882349F190E0880FB7
:1022A000991FFC01E853FF4FA591B49182549F4FB1
:1022B000FC01C591D4919FB7611108C0F8948C912D
:1022C000209582238C93888182230AC0623051F446
:1022D000F8948C91322F309583238C938881822BB4
:1022E000888304C0F8948C91822B8C939FBFDF91DC
:1022F000CF9108950895DB018F939F930E94CC1195
:10230000BF91AF91A29F800D911DA39F900DB29F91
:10231000900D11240895A1E21A2EAA1BBB1BFD01EA
:102320000DC0AA1FBB1FEE1FFF1FA217B307E407B4
:10233000F50720F0A21BB30BE40BF50B661F771F0C
:10234000881F991F1A9469F76095709580959095EC
:102350009B01AC01BD01CF010895052E97FB1EF432
:1023600000940E94C41157FD07D00E948B1107FCF6
:1023700003D04EF40C94C41150954095309521959E
:102380003F4F4F4F5F4F08959095809570956195A1
:102390007F4F8F4F9F4F08950E94DD11A59F900D95
:1023A000B49F900DA49F800D911D11240895EE0FF0
:1023B000FF1F0590F491E02D0994A29FB001B39FF7
:1023C000C001A39F700D811D1124911DB29F700D3E
:1023D000811D1124911D08955058BB27AA270ED0A6
:1023E000FCC1EDD130F0F2D120F031F49F3F11F477
:1023F0001EF4BDC10EF4E095E7FBB3C1E92FFED199
:1024000080F3BA17620773078407950718F071F411
:102410009EF516C20EF4E0950B2EBA2FA02D0B01DF
:10242000B90190010C01CA01A0011124FF27591B19
:1024300099F0593F50F4503E68F11A16F040A22F1F
:10244000232F342F4427585FF3CF46953795279590
:10245000A795F0405395C9F77EF41F16BA0B620B8F
:10246000730B840BBAF09150A1F0FF0FBB1F661FD6
:10247000771F881FC2F70EC0BA0F621F731F841F19
:1024800048F4879577956795B795F7959E3F08F03F
:10249000B3CF9395880F08F09927EE0F97958795FE
:1024A00008958DD158F080E891E009F49EEF8ED127
:1024B00028F040E851E059F45EEF09C058C1C0C1AE
:1024C000E92FE0789BD168F3092E052AC1F326177E
:1024D00037074807590738F00E2E07F8E02569F04E
:1024E000E025E0640AC0EF6307F8009407FADB0117
:1024F000B9019D01DC01CA01AD01EF9347D06DD157
:102500000AD05F91552331F02BED3FE049E450FDB7
:1025100049EC63CF0895DF93DD27B92FBF7740E8FB
:102520005FE31616170648075B0710F4D92F93D1FF
:102530009F938F937F936F93F8D1E8E6F0E01AD1E1
:102540004CD12F913F914F915F9198D1DD2349F06C
:102550009058A2EA2AED3FE049EC5FE3D0785D278E
:102560004DDFDF913AC1D9D008F481E008950CD055
:1025700034C12CD140F023D130F021F45F3F19F069
:10258000F0C051115EC1F3C039D198F39923C9F35A
:102590005523B1F3951B550BBB27AA276217730769
:1025A000840738F09F5F5F4F220F331F441FAA1F1D
:1025B000A9F333D00E2E3AF0E0E830D091505040DD
:1025C000E695001CCAF729D0FE2F27D0660F771F8B
:1025D000881FBB1F261737074807AB07B0E809F06D
:1025E000BB0B802DBF01FF2793585F4F2AF09E3F02
:1025F000510568F0B6C025C15F3FECF3983EDCF3AF
:10260000869577956795B795F7959F5FC9F7880F7A
:10261000911D9695879597F90895E1E0660F771FCC
:10262000881FBB1F621773078407BA0720F0621B5D
:10263000730B840BBA0BEE1F88F7E095089504D056
:102640006894B111FEC00895E1D088F09F5790F0D2
:10265000B92F9927B751A0F0D1F0660F771F881FC7
:10266000991F1AF0BA95C9F712C0B13081F0E8D0BD
:10267000B1E00895E5C0672F782F8827B85F39F05B
:10268000B93FCCF3869577956795B395D9F73EF426
:1026900090958095709561957F4F8F4F9F4F0895CE
:1026A000E89409C097FB3EF49095809570956195EC
:1026B0007F4F8F4F9F4F9923A9F0F92F96E9BB27A2
:1026C0009395F695879577956795B795F111F8CF1E
:1026D000FAF4BB0F11F460FF1BC06F5F7F4F8F4F89
:1026E0009F4F16C0882311F096E911C0772321F07F
:1026F0009EE8872F762F05C0662371F096E8862F17
:1027000070E060E02AF09A95660F771F881FDAF76D
:10271000880F9695879597F90895990F0008550F9A
:10272000AA0BE0E8FEEF16161706E807F907C0F057
:1027300012161306E407F50798F0621B730B840B5F
:10274000950B39F40A2661F0232B242B252B21F439
:1027500008950A2609F4A140A6958FEF811D811DD9
:10276000089597F99F6780E870E060E008959FEF13
:1027700080EC0895DF93CF931F930F93FF92EF9216
:10278000DF927B018C01689405C0DA2EEF0176D0D0
:10279000FE01E894A5912591359145915591AEF3AF
:1027A000EF012CDEFE019701A801DA9479F7DF90A2
:1027B000EF90FF900F911F91CF91DF91089500242A
:1027C0000A941616170618060906089500240A9496
:1027D00012161306140605060895092E0394000C1C
:1027E00011F4882352F0BB0F40F4BF2B11F460FFAB
:1027F00004C06F5F7F4F8F4F9F4F089557FD9058D4
:10280000440F551F59F05F3F71F04795880F97FBB4
:10281000991F61F09F3F79F087950895121613066E
:102820001406551FF2CF4695F1DF08C0161617069D
:102830001806991FF1CF86957105610508940895D2
:10284000E894BB2766277727CB0197F9089565DFC2
:1028500008F48FEF08959B01AC0160E070E080E820
:102860009FE385CE0BD0B9CFAADF28F0AFDF18F0F9
:10287000952309F076CF7BCF1124E3CFBFDFA0F300
:10288000959FD1F3950F50E0551F629FF001729F05
:10289000BB27F00DB11D639FAA27F00DB11DAA1F24
:1028A000649F6627B00DA11D661F829F2227B00D71
:1028B000A11D621F739FB00DA11D621F839FA00DFC
:1028C000611D221F749F3327A00D611D231F849F4C
:1028D000600D211D822F762F6A2F11249F575040A3
:1028E0008AF0E1F088234AF0EE0FFF1FBB1F661F3E
:1028F000771F881F91505040A9F79E3F510570F0F7
:1029000030CF9FCF5F3FECF3983EDCF38695779511
:102910006795B795F795E7959F5FC1F7FE2B880FF1
:10292000911D9695879597F908959B01AC019ACFD3
:10293000F4DE880B990B0895CF93DF9382309105D5
:1029400010F482E090E0E0916A03F0916B0320E0E4
:1029500030E0A0E0B0E0309739F140815181481774
:102960005907B8F04817590771F48281938110977D
:1029700029F013969C938E9312972CC090936B031F
:1029800080936A0327C02115310531F042175307A0
:1029900018F0A901DB0101C0EF019A01BD01DF01BF
:1029A0000280F381E02DD7CF21153105F9F0281BE6
:1029B000390B2430310580F48A819B8161157105C2
:1029C00021F0FB019383828304C090936B03809377
:1029D0006A03FE01329644C0FE01E20FF31F8193A9
:1029E000919322503109398328833AC0209168039A
:1029F00030916903232B41F42091020130910301AE
:102A00003093690320936803209100013091010104
:102A10002115310541F42DB73EB740910401509185
:102A20000501241B350BE0916803F0916903E2175F
:102A3000F307A0F42E1B3F0B2817390778F0AC01E1
:102A40004E5F5F4F2417350748F04E0F5F1F5093BE
:102A50006903409368038193919302C0E0E0F0E042
:102A6000CF01DF91CF910895CF93DF93009709F4C1
:102A700087C0FC01329713821282C0916A03D09101
:102A80006B03209781F420813181280F391F8091B9
:102A90006803909169038217930779F5F0936903AE
:102AA000E09368036DC0DE0120E030E0AE17BF07A1
:102AB00050F412964D915C9113979D01411551056B
:102AC00009F1DA01F3CFB383A28340815181840FEE
:102AD000951F8A179B0771F48D919C911197840F14
:102AE000951F02969183808312968D919C911397E6
:102AF000938382832115310529F4F0936B03E093CE
:102B00006A033EC0D9011396FC93EE9312974D9140
:102B10005D91A40FB51FEA17FB0779F480819181BD
:102B2000840F951F0296D90111969C938E938281F2
:102B3000938113969C938E931297E0E0F0E08A8144
:102B40009B81009719F0FE01EC01F9CFCE010296AE
:102B500028813981820F931F209168033091690386
:102B60002817390769F4309729F410926B031092F3
:102B70006A0302C013821282D0936903C093680370
:0A2B8000DF91CF910895F894FFCF84
:102B8A0000006C03800001000000E80301484D4387
:102B9A00353838334C20636F6E6E656374696F6EB7
:102BAA00207375636365737366756C00484D4335AE
:102BBA003838334C20636F6E6E656374696F6E20AC
:102BCA006661696C656400496E697469616C697AE9
:102BDA00696E672049324320646576696365732E9E
:102BEA002E2E0054657374696E6720646576696376
:102BFA006520636F6E6E656374696F6E732E2E2E19
:102C0A00002C2000436F6D706173733A0900686588
:102C1A006164696E673A090000000000C409300B5C
:102C2A0046095F095109A2096E616E00696E660064
:102C3A006F76660000000000E60DB90D8E0D960D48
:042C4A00A90DB80D0B
:00000001FF
