:100000000C94B3000C94DB000C94DB000C94E52DF5
:100010000C94E52D0C94E52D0C94DB000C94A31DA1
:100020000C94DB000C94DB000C94DB000C94DB00E4
:100030000C94DB000C94DB000C94DB000C94DB00D4
:100040000C9453320C94DB000C94B6290C94E829E0
:100050000C94DB000C94DB000C94DB000C94DB00B4
:100060000C9422310C94DB00F9230C241C242F2443
:10007000372463246B2473247B24822482248224E7
:100080008224822482248224822482248224822440
:100090008224822482248224822482248224822430
:1000A0008224822482248224F92305240C241C2403
:1000B0002F2437244A2452245A24084AD73B3BCEC3
:1000C000016E84BCBFFDC12F3D6C74319ABD568357
:1000D0003DDA3D00C77F11BED9E4BB4C3E916BAA0F
:1000E000AABE000000803F05A84CCDB2D44EB9385E
:1000F00036A9020C50B9918688083CA6AAAA2ABE45
:10010000000000803F000000000800020100000322
:100110000407000000000000000001020408102095
:100120004080010204081020010204081020040489
:10013000040404040404020202020202030303038F
:100140000303000000002300260029000000000037
:10015000250028002B0000000000240027002A00B2
:100160006D28182A403011241FBECFEFD8E0DEBF23
:10017000CDBF13E0A0E0B1E0E6EDF3E702C00590EB
:100180000D92AA39B107D9F725E0AAE9B3E001C079
:100190001D92A838B207E1F711E0C6E6D1E004C02D
:1001A0002297FE010E94C934C036D107C9F70E94C8
:1001B0005E280C94E9390C9400000F931F93CF93A1
:1001C000DF93EC018B010E94C91A19870887CE01C1
:1001D0000E94FB1A63E0CE010E94CD1A62E0CE01BC
:1001E0000E94E31A65E0CE010E94D81A1C8A1D8A7B
:1001F0001E8A1F8A188A198A1A8A1B8ADF91CF9150
:100200001F910F910895CF92DF92EF92FF92CF93BB
:10021000DF93EC019C01225F3F4FAC01445F5F4FD5
:10022000BC01665F7F4F0E940D1B6A857B85882716
:1002300077FD8095982F0E94583626EF38E24CE9DA
:100240005FE30E94CD3727ED33EA40E75FE30E948A
:10025000CD3720E030E048EB50E40E94F0346B01F1
:100260007C016C857D85882777FD8095982F0E947D
:10027000583626EF38E24CE95FE30E94CD372BE792
:1002800034E14EE65FE30E94CD3728EB3EE146E0E5
:1002900052E40E94F034A70196010E9463356B017D
:1002A0007C0125E33AEF4EE85CE3688D798D8A8D19
:1002B0009B8D0E94CD379B01AC01C701B6010E9406
:1002C000F0346B017C0120E030E0A9010E94B635DA
:1002D00087FF0AC02BED3FE049EC50E4C701B601AF
:1002E0000E94F0346B017C0120EE3EE245E652E4D0
:1002F000C701B6010E94CD37288539852115310502
:1003000039F0AB01BC01C9010E94150B9B0101C072
:100310009B01A901BC01488B598B6A8B7B8BDF91B8
:10032000CF91FF90EF90DF90CF900895FC01408F28
:10033000518F628F738F0895FC0160897189828962
:1003400093890895FC01448B558B668B778B0895B8
:10035000FC0164897589868997890895CF92DF9217
:10036000EF92FF92FC012089318942895389648987
:100370007589868997890E94EF346B017C0120E0A2
:1003800030E044E353EC0E94B63587FF09C020E01B
:1003900030E044EB53E4C701B6010E94F03412C0D0
:1003A00020E030E044E353E4C701B6010E94C237C5
:1003B000181654F420E030E044EB53E4C701B601D2
:1003C0000E94EF346B017C01C701B601FF90EF90F2
:1003D000DF90CF90089526E531E0FC013183208342
:1003E000089526E531E0FC0131832083089526E558
:1003F00031E0FC01318320830C94513226E531E059
:10040000FC01318320830C945132CF93DF93EC01B4
:100410006DE071E08AED93E00E94992A8A819B81C8
:100420000E949C01AB01BC0122E030E08AED93E028
:100430000E94952C68E171E08AED93E00E94992A70
:100440008A819B810E94A801AB01BC0122E030E0BF
:100450008AED93E00E94952C6BE271E08AED93E0C7
:100460000E94992A8A819B810E94AE01AB01BC0146
:1004700022E030E08AED93E0DF91CF910C94972C4D
:10048000CF92DF92EF92FF920F931F93CF93DF9360
:100490006C01EB0120E431E040E050E060E070E00E
:1004A000CE010E948C09F601828193810E94AE01E7
:1004B0008B019C0184E0E82EF12C40E050E068E0E4
:1004C00070E0CE010E94A40929E431E041E050E04F
:1004D00060E070E0CE010E948C09F6018281938178
:1004E0000E949C018B019C0141E050E068E070E0BB
:1004F000CE010E94A409DF91CF911F910F91FF902F
:10050000EF90DF90CF90089522E631E0FC01318337
:1005100020837383628308950F931F93CF93DF9398
:10052000EC018B0102960E942D0719830883DF914D
:10053000CF911F910F910895EF92FF920F931F9308
:10054000CF93DF93CDB7DEB728970FB6F894DEBF11
:100550000FBECDBF7C0109831A832B833C834D835F
:100560005E836F837887FC0102811381248135814A
:100570004681578160857185CE0101960E94990759
:1005800098E0FE013196D701129601900D929A954E
:10059000E1F791E0892728960FB6F894DEBF0FBEE9
:1005A000CDBFDF91CF911F910F91FF90EF900895F4
:1005B0008F929F92AF92BF92CF92DF92EF92FF9273
:1005C0000F931F93CF93DF93CDB7DEB760970FB62E
:1005D000F894DEBF0FBECDBF09831A832B833C8303
:1005E0004D835E836F83788784019501A601B701EF
:1005F000CE0101960E94DD072F8D38A149A15AA195
:100600000E94EF346B017C0120E030E044E353ECC6
:100610000E94B63587FF09C020E030E044EB53E488
:10062000C701B6010E94F03412C020E030E044E37C
:1006300053E4C701B6010E94C237181654F420E0F3
:1006400030E044EB53E4C701B6010E94EF346B0184
:100650007C01C701B60160960FB6F894DEBF0FBEED
:10066000CDBFDF91CF911F910F91FF90EF90DF9061
:10067000CF90BF90AF909F908F900895CF93DF93CE
:10068000EC01888199810E943A0F888199810E94AA
:10069000CC1D88819981DF91CF910C94400FCF922E
:1006A000DF92EF92FF92CF93DF93EC016A017B011F
:1006B00020E030E0A901C701B6010E94C2370E84D4
:1006C000DF85C02D181694F4A701960160E070E054
:1006D0008FE793E40E94EF340E942536AB016C173C
:1006E0007D070CF4AE012FEF30E011C020E030E0C8
:1006F0004FE753E4C701B6010E94F0340E9425364B
:100700009B016C177D070CF49E014FEF50E0BA017E
:10071000C901DF91CF91FF90EF90DF90CF900895C6
:100720006F927F928F929F92AF92BF92CF92DF9201
:10073000EF92FF920F931F93CF93DF93CDB7DEB766
:1007400060970FB6F894DEBF0FBECDBF3C010983A2
:100750001A832B833C834D835E836F8378878986DE
:100760009A86AB86BC86CD86DE86EF86F88AF9A0AF
:10077000EAA0DBA0CCA0CE0101960E945507811112
:1007800004C060E070E0CB0138C009811A812B8180
:100790003C814D815E816F817885C3010E949C02FE
:1007A0008823F1F0CF92DF92EF92FF9289849A84AE
:1007B000AB84BC84CD84DE84EF84F88809811A81FF
:1007C0002B813C814D815E816F817885C3010E94C0
:1007D000D802AB01BC010F900F900F900F9005C095
:1007E000F3014285538564857585C3010E943E03EC
:1007F000AB01BC01C3010E944F0360960FB6F89491
:10080000DEBF0FBECDBFDF91CF911F910F91FF9043
:10081000EF90DF90CF90BF90AF909F908F907F90A0
:100820006F9008950F931F93CF93DF93EC010E9475
:1008300084218E010D581F4F20E04BE06AE0C80173
:100840000E94B12ECE018E569F4F0E942D07CE01E1
:1008500086569F4F0E942D0740E855E260E070E009
:10086000C8010E94E12ECA55DF4F40913A035091D2
:100870003B0360913C0370913D03488359836A8335
:100880007B83DF91CF911F910F910895CF93DF93D9
:10089000CDB7DEB728970FB6F894DEBF0FBECDBF39
:1008A000FC01EE56FF4F88E0DE01119601900D929B
:1008B0008A95E1F729813A814B815C816D817E8146
:1008C0008F81988528960FB6F894DEBF0FBECDBFF6
:1008D000DF91CF9108950F931F93CF93DF93CDB7FF
:1008E000DEB728970FB6F894DEBF0FBECDBF0983E1
:1008F0001A832B833C834D835E836F837887DC016F
:10090000A656BF4F88E0FE01319601900D928A9560
:10091000E1F728960FB6F894DEBF0FBECDBFDF918A
:10092000CF911F910F910895CF93DF93CDB7DEB78D
:1009300028970FB6F894DEBF0FBECDBFFC01E65678
:10094000FF4F88E0DE01119601900D928A95E1F744
:1009500029813A814B815C816D817E818F8198856F
:1009600028960FB6F894DEBF0FBECDBFDF91CF91B2
:1009700008958E559F4FFC01608171818281938122
:1009800008950F931F93CF93DF93CDB7DEB7A8974A
:100990000FB6F894DEBF0FBECDBFFC01E656FF4F89
:1009A00028E0DE01519601900D922A95E1F728E0AA
:1009B000FE017196DE01599601900D922A95E1F79C
:1009C000FC01EE56FF4F88E0DE01119601900D927A
:1009D0008A95E1F788E0FE013196DE0119960190D3
:1009E0000D928A95E1F788E0FE013996DE01919635
:1009F00001900D928A95E1F7098D1A8D2B8D3C8D12
:100A00004D8D5E8D6F8D78A1CE0181960E94B008CC
:100A1000A8960FB6F894DEBF0FBECDBFDF91CF9181
:100A20001F910F910895EF92FF920F931F93CF9311
:100A3000DF93CDB7DEB760970FB6F894DEBF0FBE79
:100A4000CDBF7C018C010D581F4FC8010E947F2D26
:100A5000892BC1F1C8010E94F22C682FC7010E94A6
:100A60008B24C8010E947F2D892BA1F797012E5559
:100A70003F4FAE01475F5F4FBE01635F7F4FC701CE
:100A80000E94612509851A852B853C854D855E85EB
:100A90006F857889CE0101960E943B07D701AE563B
:100AA000BF4F88E0FE01319601900D928A95E1F7E3
:100AB000C7010E94CE25F701EA55FF4F608371837D
:100AC0008283938360960FB6F894DEBF0FBECDBFCE
:100AD000DF91CF911F910F91FF90EF90089526E540
:100AE00031E0FC0131832083089526E531E0FC01EB
:100AF000318320830C9451320F931F93CF93DF9354
:100B0000CDB7DEB728970FB6F894DEBF0FBECDBFC6
:100B10008C01FC01828193810E94460429833A83DF
:100B20004B835C836D837E838F839887CE01019690
:100B30000E945507882309F452C06AE671E08AEDE5
:100B400093E00E94992AF801828193810E944604D1
:100B500029833A834B835C836D837E838F8398875D
:100B6000CE0101960E944907AB01BC012FE030E0A5
:100B70008AED93E00E94952C61E771E08AED93E0A5
:100B80000E94992AF801828193810E944604298358
:100B90003A834B835C836D837E838F839887CE01FA
:100BA00001960E944F07AB01BC012FE030E08AEDB7
:100BB00093E00E94952C6BE771E08AED93E00E9430
:100BC000992AF801828193810E94B904AB01BC018A
:100BD0002AE030E08AED93E00E94982B06C065E899
:100BE00071E08AED93E00E94B62A28960FB6F89439
:100BF000DEBF0FBECDBFDF91CF911F910F91089542
:100C0000AF92BF92CF92DF92EF92FF920F931F931A
:100C1000CF93DF93CDB7DEB760970FB6F894DEBF02
:100C20000FBECDBF5C016B01FC01828193810E94EC
:100C3000460429833A834B835C836D837E838F8351
:100C40009887CE0101960E945507882309F4DAC0DF
:100C5000F501828193810E94940429833A834B8316
:100C60005C836D837E838F839887CE0101960E947B
:100C700055072BE931E040E050E060E070E0882368
:100C800009F47CC0C6010E948C09F5018281938120
:100C90000E94460429833A834B835C836D837E8361
:100CA0008F839887CE0101960E9449078B019C0192
:100CB00093E0E92EF12C40E050E064E070E0C601E2
:100CC0000E94A40920EA31E040E050E068E070E0D2
:100CD000C6010E948C09F501828193810E9446041D
:100CE00029833A834B835C836D837E838F839887CC
:100CF000CE0101960E944F078B019C0140E050E01D
:100D00006BE070E0C6010E94A40925EA31E041E0F1
:100D100050E060E070E0C6010E948C09F50182811C
:100D200093810E94940429873A874B875C876D875B
:100D30007E878F87988BF501828193810E9446047C
:100D400029833A834B835C836D837E838F8398876B
:100D500009851A852B853C854D855E856F8578894B
:100D6000CE0101960E94B0088B019C014FE0E42E59
:100D7000F12C41E050E063E070E040C0C6010E9409
:100D80008C09F501828193810E94460429833A836C
:100D90004B835C836D837E838F839887CE0101961E
:100DA0000E9449078B019C018FE0E82EF12C40E066
:100DB00050E064E070E0C6010E94A40920EA31E03E
:100DC00041E050E060E070E0C6010E948C09F5014E
:100DD000828193810E94460429833A834B835C83FA
:100DE0006D837E838F839887CE0101960E944F0783
:100DF0008B019C0141E050E064E070E0C6010E947C
:100E0000A40912C020E832E040E050E060E070E069
:100E1000C6010E948C092FE831E041E050E060E01B
:100E200070E0C6010E948C0960960FB6F894DEBF90
:100E30000FBECDBFDF91CF911F910F91FF90EF902B
:100E4000DF90CF90BF90AF9008952CEA31E0FC0185
:100E50003183208373836283089540E050EC69E717
:100E600074E4FC014083518362837383448355831C
:100E70006683778308950F931F93FC01408351830A
:100E80006283738304831583268337831F910F91B5
:100E90000895FC0160817181828193810895FC0134
:100EA00064817581868197810895CF92DF92EF9258
:100EB000FF92CF93DF93EC01C880D980EA80FB805A
:100EC00020E030E044EB52ECC701B6010E94B63599
:100ED00087FD27C020E030E044EB52E4C701B601B3
:100EE0000E94C2371816ECF0CC80DD80EE80FF80C7
:100EF00020E030E044E353ECC701B6010E94B63570
:100F000087FD0FC0C1E020E030E044E353E4C701B7
:100F1000B6010E94C23718160CF0C0E081E08C27A1
:100F200001C080E0DF91CF91FF90EF90DF90CF90F4
:100F30000895CF92DF92EF92FF920F931F93CF937A
:100F4000DF93CDB7DEB728970FB6F894DEBF0FBE9C
:100F5000CDBF09831A832B833C834D835E836F83CC
:100F60007887FC01C080D180E280F38029813A81BA
:100F70004B815C81C701B6010E94B63581110DC05D
:100F800011E02D813E814F815885C701B6010E9435
:100F9000B635811110E0812F01C080E028960FB690
:100FA000F894DEBF0FBECDBFDF91CF911F910F919F
:100FB000FF90EF90DF90CF9008954F925F926F92E5
:100FC0007F928F929F92AF92BF92CF92DF92EF92D9
:100FD000FF920F931F93CF93DF93CDB7DEB76C973C
:100FE0000FB6F894DEBF0FBECDBF5C0109831A8334
:100FF0002B833C834D835E836F83788725E33AEFB1
:101000004EE85CE3FC0160817181828193810E94E2
:10101000CD376B017C0125E33AEF4EE85CE3698153
:101020007A818B819C810E94CD372B013C01F50197
:1010300024813581468157816D817E818F8198859C
:101040000E94EF3425E33AEF4EE85CE30E94CD378F
:101050004B015C010E9430386D877E878F87988BAB
:10106000C301B2010E94BA3569877A878B879C8752
:10107000C701B6010E94BA35698B7A8B8B8B9C8B2A
:10108000C301B2010E9430389B01AC01C701B60117
:10109000298F3A8F4B8F5C8F0E9430386B017C0117
:1010A000C501B4010E94BA356D8B7E8B8F8B988FF2
:1010B000298D3A8D4B8D5C8D69897A898B899C89C4
:1010C0000E94CD374B015C0129853A854B855C85B3
:1010D000C701B6010E94CD372D893E894F89588DB1
:1010E0000E94CD379B01AC01C501B4010E94EF34D1
:1010F0006B017C0129853A854B855C856D857E85F4
:101100008F8598890E94CD37A70196010E9463358B
:1011100020EE3EE245E652E40E94CD3720E030E08A
:1011200044EB53E40E94F03420E030E044EB53E41D
:101130006C960FB6F894DEBF0FBECDBFDF91CF9196
:101140001F910F91FF90EF90DF90CF90BF90AF90E5
:101150009F908F907F906F905F904F900C949A36F5
:101160002F923F924F925F926F927F928F929F92B7
:10117000AF92BF92CF92DF92EF92FF920F931F93A5
:10118000CF93DF93CDB7DEB760970FB6F894DEBF8D
:101190000FBECDBF1C0109831A832B833C834D8373
:1011A0005E836F837887C980DA80EB80FC80FC01E6
:1011B0004080518062807380A3019201C701B60113
:1011C0000E94EF3425E33AEF4EE85CE30E94CD370E
:1011D00020E030E040E05FE30E94CD370E943038ED
:1011E0004B015C0125E33AEF4EE85CE3C301B20139
:1011F0000E94CD370E94BA352B013C0125E33AEF1E
:101200004EE85CE3C701B6010E94CD370E94BA35B3
:1012100069877A878B879C87F10124813581468194
:1012200057816D817E818F8198850E94EF3425E3FF
:101230003AEF4EE85CE30E94CD3720E030E040E03A
:101240005FE30E94CD370E9430386B017C01A5011D
:101250009401C501B4010E94CD374B015C01298581
:101260003A854B855C85C301B2010E94CD372B01C5
:101270003C01A7019601C701B6010E94CD379B0131
:10128000AC01C301B2010E94CD379B01AC01C50185
:10129000B4010E94F0346B017C019B01AC0160E061
:1012A00070E080E89FE30E94EF340E943A389B018F
:1012B000AC01C701B6012D873E874F87588B0E942E
:1012C0003A382D853E854F8558890E9463359B01AC
:1012D000AC010E94F03420E73DE642EC5AE40E9463
:1012E000CD3760960FB6F894DEBF0FBECDBFDF914D
:1012F000CF911F910F91FF90EF90DF90CF90BF9013
:10130000AF909F908F907F906F905F904F903F90A5
:101310002F9008950C9463260F931F93CF93DF9320
:10132000EC0189014230510550F40E947126B80148
:10133000CE01DF91CF911F910F910C94992ADF91EB
:10134000CF911F910F9108958F929F92AF92BF926C
:10135000EF92FF920F931F93CF93DF93EC0148011D
:1013600059014230510590F40E9471269701B50150
:10137000A401CE01DF91CF911F910F91FF90EF90CB
:10138000BF90AF909F908F900C94952CDF91CF9150
:101390001F910F91FF90EF90BF90AF909F908F9013
:1013A00008958F92AF92CF92EF920F93CF93DF93E6
:1013B000EC0187E0882E96E0A92E25E0C22E34E0CD
:1013C000E32E00E021E042E067E2CE010E94B72771
:1013D00020E042E064E1CE010E94382840E050E085
:1013E00063E0CE010E94292761E0CE010E943D27E3
:1013F000CE01DF91CF910F91EF90CF90AF908F9072
:101400000C946A26CF92DF92EF92FF920F931F9374
:10141000CF93DF93EC017B018A011982188288E067
:1014200090E09B838A831D821C8280E190E00E9471
:101430004F326C018883D982FA86E9860C171D0722
:1014400009F482C0D80114968D919C9115974A8118
:101450005B814817590720F59B838A83880F991F62
:101460000E944F32998388834C815D81F60120E090
:1014700030E02417350789F0A881B981B901660FDA
:10148000771FA60FB71F109721F0608171816D93B0
:101490007C932F5F3F4F3296ECCFC6010E945132B2
:1014A0008C819D81F80144815581BA01841795078B
:1014B00008F4BC0120E030E02617370799F06901F5
:1014C000CC0CDD1CD801ED91FC91EC0DFD1DE080F4
:1014D000F180E881F981EC0DFD1DF182E0822F5F42
:1014E0003F4FEACF8417950758F0F8018481958122
:1014F0002C813D818217930738F59D838C8324C00E
:101500009C01220F331FD80114964D915C911597C1
:101510008417950750F7F801A081B181A20FB31F7E
:10152000E881F981E20FF31F309721F04D915C9132
:10153000518340834C815D814F5F5F4F5D834C835E
:1015400001962E5F3F4FDFCF18861F82DF91CF912C
:101550001F910F91FF90EF90DF90CF9008950F9320
:101560001F93CF93DF93EC0189859A85009711F142
:101570000E948A090F8118858C819D81081719079F
:1015800020F084EB91E00E945328000F111FE881A6
:10159000F981E00FF11F80819181DC01ED91FC91D7
:1015A00069857A850680F781E02DDF91CF911F91C3
:1015B0000F910994DF91CF911F910F910895FC0134
:1015C000878190850196648175810E945E34908741
:1015D000878308950F931F93CF93DF938C0166EC5D
:1015E00071E08AED93E00E94B62AC0E0D0E0F801F5
:1015F00084819581C817D90798F4CE01880F991F67
:10160000D801ED91FC91E80FF91F80819181DC01F7
:10161000ED91FC910480F581E02D09952196E7CFAD
:10162000DF91CF911F910F9108958F929F92AF926A
:10163000BF92CF92DF92EF92FF92CF93DF93EC01B4
:10164000CB01BA01688B798B8A8B9B8BC880D98040
:10165000EA80FB80A70196010E94CD374B015C0117
:10166000A701960160E070E080E89FE30E94EF34FC
:101670002C853D854E855F850E94CD379B01AC0151
:10168000C501B4010E94F0346C877D878E879F87E7
:10169000DF91CF91FF90EF90DF90CF90BF90AF9010
:1016A0009F908F9008952F923F924F925F926F92EA
:1016B0007F928F929F92AF92BF92CF92DF92EF92E2
:1016C000FF920F931F93CF93DF93CDB7DEB73C010B
:1016D000862F2D883E884F88588CF301158A148AEE
:1016E000178A168A84869586A686B786208A318AC6
:1016F000428A538A60837183538342833583248370
:1017000017830683F186E086D386C28661E00E9455
:10171000DE3361E0F30182810E94DE3361E0F30198
:1017200084810E94DE3361E0F30186810E94DE3312
:1017300061E0F30180850E94DE3361E0F301828580
:10174000DF91CF911F910F91FF90EF90DF90CF909D
:10175000BF90AF909F908F907F906F905F904F90D1
:101760003F902F900C94DE33CF93DF93EC01CB01AD
:101770006F3F710519F014F08FEF90E09D8B8C8B0B
:10178000CA014F3F510519F014F08FEF90E09F8B85
:101790008E8B61E0181619060CF060E088850E94B7
:1017A000173461E08E899F89181619060CF460E0E1
:1017B0008A850E94173461E08C899D891816190664
:1017C0000CF060E08A810E94173461E08C899D8969
:1017D000181619060CF460E08C810E9417346C898D
:1017E0007D8977FF03C0719561957109882777FD21
:1017F0008095982F0E9458362C853D854E855F85B3
:101800000E94CD370E94253688810E9456336E890A
:101810007F8977FF03C0719561957109882777FDEE
:101820008095982F0E945836288939894A895B8982
:101830000E94CD370E9425368E81DF91CF910C9486
:101840005633AF92BF92CF92DF92EF92FF920F93F7
:101850001F93CF93DF931F92CDB7DEB75C018B014F
:1018600077FF02C000E010E060E0F501828149836B
:101870000E94173461E0F50184810E94173461E011
:10188000F50180850E94173460E0F50182850E9491
:1018900017344981442391F06FEF70E0F5018081A6
:1018A0000E9456336FEF70E0F50186810E94563337
:1018B00064E670E080E090E00E94CC32B8018827B6
:1018C00077FD8095982F0E9458366B017C01F501B9
:1018D00024853585468557850E94CD370E9425365B
:1018E000F50180810E945633F501208931894289B2
:1018F0005389C701B6010E94CD370E942536F501F4
:1019000086810E94563388279927801B910BF50109
:10191000958B848B178B068B0F90DF91CF911F9146
:101920000F91FF90EF90DF90CF90BF90AF90089510
:10193000CF93DF93EC0160E08A810E94173460E06E
:101940008C810E94173460E088850E94173460E023
:101950008A850E94173461E088810E94173461E013
:101960008E810E9417341D8A1C8A1F8A1E8ADF916D
:10197000CF910895FC01848995890895FC01868999
:101980009789089526E531E0FC013183208308958D
:1019900026E531E0FC01318320830C945132CF9352
:1019A000DF93EC0163E172E08AED93E00E94992AF3
:1019B0008A819B810E94BA0C4AE050E0BC018AED0A
:1019C00093E00E946B2B69E172E08AED93E00E9444
:1019D000992A8A819B810E94BE0C4AE050E0BC019A
:1019E0008AED93E0DF91CF910C94732BCF92DF922D
:1019F000EF92FF920F931F93CF93DF936C01EB0154
:101A000022E232E040E050E060E070E0CE010E946F
:101A10008C09F601828193810E94BA0CBC0188274F
:101A200077FD8095982F0E9458368B019C01EE24FB
:101A3000E394F12C40E050E066E070E0CE010E94BB
:101A4000A40929E232E041E050E060E070E0CE011C
:101A50000E948C09F601828193810E94BE0CBC0118
:101A6000882777FD8095982F0E9458368B019C011E
:101A700041E050E066E070E0CE010E94A409DF91F1
:101A8000CF911F910F91FF90EF90DF90CF9008952D
:101A900025E332E0FC013183208373836283089560
:101AA000FC0140E050EC69E774E4408351836283B9
:101AB0007383448355836683778340875187628726
:101AC00073874487558766877787408B518B628BF6
:101AD000738B148A158A168A178A108E118E128EAD
:101AE000138E08958F929F92AF92BF92CF92DF9202
:101AF000EF92FF920F931F93CF93DF93CDB7DEB793
:101B0000FC0140835183628373830483158326839E
:101B10003783C086D186E286F38684869586A6863C
:101B2000B7864F85588969897A89408B518B628B3A
:101B3000738B4B895C896D897E89448B558B668B51
:101B4000778B4F89588D698D7A8D408F518F628F39
:101B5000738FDF91CF911F910F91FF90EF90DF90E6
:101B6000CF90BF90AF909F908F900895CF92DF92CB
:101B7000EF92FF92CF93DF93EC01CC88DD88EE8863
:101B8000FF88A7019601688179818A819B810E94E3
:101B9000B63587FD2AC0A7019601688579858A85B3
:101BA0009B850E94B63587FD20C0A70196016C81F8
:101BB0007D818E819F810E94B63587FD16C0A70169
:101BC0009601688979898A899B890E94B63587FD43
:101BD0000CC0A70196016C857D858E859F850E942E
:101BE000B635881F8827881F01C081E0DF91CF911B
:101BF000FF90EF90DF90CF900895CF92DF92EF9219
:101C0000FF921F93CF93DF93EC01C88CD98CEA8CA1
:101C1000FB8CA7019601688179818A819B810E9452
:101C2000C237181664F5A70196016C817D818E81FB
:101C30009F810E94C237181614F5A7019601688586
:101C400079858A859B850E94C2371816C4F4A7013E
:101C500096016C857D858E859F850E94C2371816FA
:101C600074F411E0A7019601688979898A899B89B2
:101C70000E94C23718160CF010E0812F01C080E0DE
:101C8000DF91CF911F91FF90EF90DF90CF9008955B
:101C9000FC0160817181828193810895FC016085DE
:101CA0007185828593850895FC01648175818681A3
:101CB00097810895FC0160897189828993890895CB
:101CC000FC0164857585868597850895CF93DF939C
:101CD000EC01288539854A855B85688979898A89F7
:101CE0009B890E94B63587FF02C0609601C0289686
:101CF000688179818A819B81DF91CF910895CF930B
:101D0000DF93EC012C813D814E815F816C857D8567
:101D10008E859F850E94B63587FF02C02C9601C034
:101D20002496688179818A819B81DF91CF91089582
:101D3000AF92BF92CF92DF92EF92FF920F931F93D9
:101D4000CF93DF93EC010E94660E5B016C01CE0124
:101D50000E947F0E7B018C019B01AC01B501C60185
:101D60000E94B63587FF02C075018601B880C98020
:101D7000DA80CB812B2D3C2D4D2D5C2FB701C80176
:101D80000E94B63587FF04C0BE2CCF2CD02EC12FA9
:101D90006B2D7C2D8D2D9C2FDF91CF911F910F915D
:101DA000FF90EF90DF90CF90BF90AF900895FC012F
:101DB000248935894689578960817181828193811F
:101DC0000E94B635881F8827881F08956F927F92DA
:101DD0008F929F92AF92BF92CF92DF92EF92FF923B
:101DE0000F931F93CF93DF93EC013C0181E4680EC6
:101DF000711C4E01EDE38E0E911CCE01C9961F920F
:101E00001F92FF92EF92DF92CF92580169017A01FF
:101E10008B019301A401BC01CE010E940521F301B5
:101E2000108211821282138219AE1AAE1BAE1CAE42
:101E3000F40110821182128213820F900F900F9082
:101E40000F900F900F90DF91CF911F910F91FF9006
:101E5000EF90DF90CF90BF90AF909F908F907F904A
:101E60006F9008958F5B9F4FFC0140835183628385
:101E700073830895FC0141AF52AF63AF74AF08950F
:101E8000CD96FC016081718182819381089526E560
:101E900031E0FC0131832083089526E531E0FC0127
:101EA000318320830C945132CF93DF93EC016DE3A7
:101EB00072E08AED93E00E94992A8A819B810E94B8
:101EC0007221AB01BC0122E030E08AED93E00E9478
:101ED000952C63E472E08AED93E00E94992A8A814E
:101EE0009B810E947821AB01BC0122E030E08AEDA9
:101EF00093E00E94952C6BE472E08AED93E00E94DF
:101F0000992A8A819B810E947E21AB01BC0122E03B
:101F100030E08AED93E00E94952C63E572E08AED53
:101F200093E00E94992A8A819B810E94400FAB0115
:101F3000BC0122E030E08AED93E0DF91CF910C9478
:101F4000972CCF92DF92EF92FF920F931F93CF9334
:101F5000DF936C01EB0120E632E040E050E060E00E
:101F600070E0CE010E948C09F601828193810E946B
:101F700072218B019C0182E0E82EF12C40E050E0C0
:101F800063E070E0CE010E94A40924E632E040E064
:101F900050E069E070E0CE010E948C09F601828178
:101FA00093810E9478218B019C0140E050E06CE01D
:101FB00070E0CE010E94A40928E632E041E050E042
:101FC00060E070E0CE010E948C09F601828193816D
:101FD0000E947E218B019C0141E050E063E070E0B3
:101FE000CE010E94A4092CE632E041E050E069E015
:101FF00070E0CE010E948C09F601828193810E94DB
:10200000400F8B019C0141E050E06BE070E0CE019D
:102010000E94A409DF91CF911F910F91FF90EF9043
:10202000DF90CF90089523E732E0FC0131832083D5
:102030007383628308950F93FC01718360834283ED
:1020400023830483158216821782108649E150E0AB
:1020500060E070E041875287638774871586168633
:102060001786108A41E050E060E070E0418B528BAF
:10207000638B748B158A168A178A108E45E050E0A0
:1020800060E070E0418F528F638F748F0F910895DD
:102090002F923F924F925F926F927F928F929F9278
:1020A000AF92BF92CF92DF92EF92FF920F931F9366
:1020B000CF93DF93CDB7DEB72A970FB6F894DEBF84
:1020C0000FBECDBF9A878987DC0112968C910E9442
:1020D00039332C01E985FA8583810E9439334C011B
:1020E000A985BA8514968C910E9439331C01E98523
:1020F000FA852581368147815085A4E6B0E00E94AB
:10210000CD345B016C01662457FC6094762C2185EC
:102110003285438554850E94CD349F938F937F935E
:102120006F93EE24EA9413E0F12E00E010E020E03B
:1021300030E0A901C301B2010E94A92C2B013C018E
:10214000A985BA851D962D913D914D915C91509731
:10215000A4E6B0E00E94CD345B016C01C401AA2763
:1021600097FDA095BA2F89839A83AB83BC83A985F9
:10217000BA8551962D913D914D915C915497A4E66D
:10218000B0E00E94CD349F938F937F936F9320E0B4
:1021900030E0A90169817A818B819C810E94A92C00
:1021A00069837A838B839C83E985FA8525893689BF
:1021B0004789508DA4E6B0E00E94CD345B016C01EC
:1021C000C101AA2797FDA095BA2F8D839E83AF8367
:1021D000B887218D328D438D548DA4E6B0E00E94E6
:1021E000CD349F938F937F936F9320E030E0A901CC
:1021F0006D817E818F8198850E94A92C0E9458361E
:1022000020E030E048EC52E40E94BD356B017C01D7
:1022100069817A818B819C810E94583620E030E070
:1022200048EC52E40E94BD354B015C01C301B20190
:102230000E94583620E030E048EC52E40E94BD3560
:10224000AB01BC0195018401A985BA858D919C9152
:102250000E94EC1E0FB6F894DEBF0FBECDBF2A96CB
:102260000FB6F894DEBF0FBECDBFDF91CF911F91A7
:102270000F91FF90EF90DF90CF90BF90AF909F9025
:102280008F907F906F905F904F903F902F90089528
:10229000EF92FF920F931F93CF93DF93CDB7DEB7EB
:1022A00028970FB6F894DEBF0FBECDBF7C01FC01AE
:1022B000868597850E94460429833A834B835C83F5
:1022C0006D837E838F839887CE0101960E94550788
:1022D000882309F48AC0F70186A597A5A0A9B1A90A
:1022E000892B8A2B8B2B41F40E949D32F70166A724
:1022F00077A780AB91AB79C00E949D32F70106A50C
:1023000017A520A931A9601B710B820B930B6131BA
:1023100077428105910508F468C0F70186859785A5
:102320000E94B904683E73408105910508F05DC0C4
:10233000F701868597850E944604F701228333833F
:1023400044835583668377838087918789019A01C7
:10235000AB01BC01868597850E946B04F7018285DD
:1023600093850E948A092BE732E040E050E060E06C
:1023700070E0F701828593850E948C0929E832E09C
:1023800041E050E060E070E0F701828593850E94B3
:102390008C0960ED77E080E090E00E94CC32F7019C
:1023A000828593850E948A092DE832E040E050E062
:1023B00060E070E0F701828593850E948C092CE92A
:1023C00032E041E050E060E070E0F7018285938503
:1023D0000E948C0960E177E280E090E00E94CC32BC
:1023E00081E090E0F7019183808328960FB6F894FE
:1023F000DEBF0FBECDBFDF91CF911F910F91FF9038
:10240000EF900895FC0184A595A50C94DF0ACF9365
:10241000DF93EC018E899F890E94481088A599A5B9
:102420000E9448108CA59DA50E94EA0A8CA59DA536
:10243000DF91CF910C94AF0ACF93DF93EC0188A189
:1024400099A10E94C7168C8D9D8DDF91CF910C9420
:102450000301FC01868597850E94C10420E030E0DD
:1024600040E85FE30E94B635881F8827881F0895DB
:10247000CF93DF93EC0183E090E0998388836BEA4C
:1024800072E08AED93E00E94B62A8A859B850E94BD
:102490008A0928EB32E040E050E060E070E08A8595
:1024A0009B850E948C0920EB32E041E050E060E027
:1024B00070E08A859B850E948C0940E06FEF70E098
:1024C000888999890E94210C60EA7FE080E090E091
:1024D0000E94CC3288899989DF91CF910C94980C15
:1024E0008F929F92AF92BF92CF92DF92EF92FF9224
:1024F000CF93DF9300D000D0CDB7DEB77C01CE0103
:1025000041960E947F0E4B015C01CE0141960E94D4
:10251000660E9B01AC01F701848D958D29833A836A
:102520004B835C830E94AE016B017C0129813A815F
:102530004B815C81C501B4010E94B63520E030E0DA
:10254000A90187FF08C0C701B6010E94C23718164B
:1025500044F080E007C0C701B6010E94B63587FF8E
:10256000F8CF81E00F900F900F900F90DF91CF91F7
:10257000FF90EF90DF90CF90BF90AF909F908F90A3
:1025800008956F927F928F929F92AF92BF92CF9257
:10259000DF92EF92FF920F931F93CF93DF93CDB70C
:1025A000DEB7A4970FB6F894DEBF0FBECDBF3C01D7
:1025B0000E941C12F301868597850E9446042D8F88
:1025C0003E8F4F8F58A369A37AA38BA39CA3CE0100
:1025D0004D960E945507882309F4AFC0F30102818C
:1025E0001381248135814681578160857185CE01B3
:1025F0004D960E94DD07AB01BC01F301848D958DE2
:102600000E94A201C3010E942912882321F0C30164
:102610000E94381292C0F30160A171A1CE0101960F
:102620000E949D17F30180819181029749F0CE01AC
:1026300001960E94B60D882331F182E090E079C0C6
:10264000CE0101960E94FD0D811171C02DB73EB7DC
:102650002C5131090FB6F8943EBF0FBE2DBFADB758
:10266000BEB711968CE1FE01319601900D928A95CC
:10267000E1F7C3010E9470120FB6F894DEBF0FBEDF
:10268000CDBF811154C0F3018081918181309105CA
:1026900011F1029709F043C084A195A12DB73EB76F
:1026A0002C5131090FB6F8943EBF0FBE2DBFADB708
:1026B000BEB711962CE1FE01319601900D922A953C
:1026C000E1F70E949D1A6B017C010FB6F894DEBF02
:1026D0000FBECDBF24C0F301848D958D0E949C0157
:1026E0009F938F937F936F93F30182809380A48055
:1026F000B580C680D780E084F1840D8D1E8D2F8D2E
:1027000038A149A15AA16BA17CA1828D938D0E9411
:1027100090036B017C010F900F900F900F90A70119
:10272000B601F301808991890E94B40B06C081E053
:1027300090E0F30191838083A6CFA4960FB6F8941E
:10274000DEBF0FBECDBFDF91CF911F910F91FF90E4
:10275000EF90DF90CF90BF90AF909F908F907F9041
:102760006F900895CF92DF92EF92FF92CF93DF9315
:10277000EC0188819981039709F461C08E859F855A
:102780000E94130588819981892B49F4CE01DF913C
:10279000CF91FF90EF90DF90CF900C9448110E9462
:1027A0009D326B017C014EA95FA968AD79ADD7015F
:1027B000C601841B950BA60BB70B82339105A105AF
:1027C000B10538F0CEAADFAAE8AEF9AECE010E947C
:1027D000C1124AA95BA96CA97DA9D701C601841BB6
:1027E000950BA60BB70BAC01BD01483E53406105EC
:1027F000710538F0CAAADBAAECAAFDAACE010E9494
:1028000007124AAD5BAD6CAD7DADD701C601841B2F
:10281000950BA60BB70BAC01BD01483853416105C0
:10282000710568F0CAAEDBAEECAEFDAECE01DF9155
:10283000CF91FF90EF90DF90CF900C940212DF9138
:10284000CF91FF90EF90DF90CF900895CF92DF92DD
:10285000EF92FF920F931F93CF93DF93EC017B01D5
:102860008C819D818C010F5F1F4F8017910708F0AD
:1028700046C04A815B814017510750F509964817B9
:10288000590730F5C880D9809B838A83880F991FA8
:102890000E944F32998388834C815D81F60120E04C
:1028A00030E02417350789F0A881B981B901660F96
:1028B000771FA60FB71F109721F0608171816D936C
:1028C0007C932F5F3F4F3296ECCFC6010E9451326E
:1028D0008C819D819C01220F331F8017910790F4FA
:1028E000E881F981E20FF31F309729F0D7014D916C
:1028F0005C915183408301962E5F3F4FEECF0817C6
:10290000190710F41D830C83DF91CF911F910F9154
:10291000FF90EF90DF90CF9008954F925F926F926B
:102920007F928F929F92AF92BF92CF92DF92EF925F
:10293000FF920F931F93CF93DF93CDB7DEB72E9700
:102940000FB6F894DEBF0FBECDBF3C01FC01118273
:10295000108216A617A610AA11AA12AA13AA14AAC0
:1029600015AA16AA17AA10AE11AE12AE13AE14AE67
:1029700015AE26E040E855E260E070E08AED93E0B5
:102980000E9454296DEB72E08AED93E00E94B62A12
:1029900064E670E080E090E00E94CC328CE190E050
:1029A0000E944F324C0160E070E00E94DD00F301B4
:1029B000958E848E4DED5DED65E870E4C4010E9456
:1029C00096018FE290E00E944F324C010E940D1858
:1029D000F30191A280A28AEA90E00E944F324C015A
:1029E0000E941204F3019786868688E190E00E9497
:1029F0004F322C018FE38F9380E88F931F921F92A9
:102A0000812C912CE0E8AE2EEFE3BE2EF7E0CF2E26
:102A1000D12CA5E0EA2EF12C06E010E024E030E015
:102A200042E050E063E070E0C2010E94530BF3010A
:102A3000518A408A85E490E00E944F324C01A12CDB
:102A4000B12CBFE8CB2EB2ECDB2EB5EFEB2EBDE305
:102A5000FB2E0AE017ED23E23CE340E050E060E7A4
:102A600071E40E94E60EF301958A848A61E070E0C9
:102A7000C4010E94B32000E010E02FE733E440E0FF
:102A800050E06FE773ECF301848995890E94ED1F94
:102A900062E370E0F301848995890E949F1F80E1C1
:102AA00090E00E944F324C01F301648975890E94C5
:102AB0008C02F301938E828E8AE090E0F401978776
:102AC000868785E490E00E944F324C010AE017EDC2
:102AD00023E23CE340E050E060E771E40E94E60E50
:102AE000F30197A286A261E070E0C4010E94B320C6
:102AF00062E370E0F30186A197A10E949F1F40E06E
:102B000050E060EF71E4F30186A197A10E94320FBB
:102B100082E090E00E944F324C01F30166A177A160
:102B20000E94C619F30195A284A28DE190E00E9453
:102B30004F324C01F30166A177A10FE024E145E19A
:102B40000E941B10F30191A680A689E190E00E94EB
:102B50004F324C010E94D109F30193868286C40151
:102B60000E948A0929EC32E040E050E060E070E029
:102B7000F301828593850E948C091986188688E066
:102B800090E09B878A871D861C8680E190E00E94EA
:102B90004F32998788870F900F900F900F90F30115
:102BA00080A191A1892BB1F084E090E00E944F3286
:102BB0004C01F30160A171A10E947A19F30193A263
:102BC00082A29A828982BE016F5F7F4FCE010896F2
:102BD0000E942614F30186859785892BB1F084E045
:102BE00090E00E944F324C01F301668577850E9488
:102BF0002507F301958684869A828982BE016F5FDC
:102C00007F4FCE0108960E942614F301848D958D86
:102C1000892BB1F084E090E00E944F324C01F30127
:102C2000648D758D0E948402F301978E868E9A8240
:102C30008982BE016F5F7F4FCE0108960E942614E5
:102C4000F30184899589892BB1F084E090E00E949A
:102C50004F324C01F301648975890E941310F3010E
:102C6000918E808E9A828982BE016F5F7F4FCE01E6
:102C700008960E942614F30186A197A1892BB1F032
:102C800084E090E00E944F324C01F30166A177A1ED
:102C90000E941310F30193A682A69A828982BE0134
:102CA0006F5F7F4FCE0108960E942614F301808942
:102CB0009189892BB1F084E090E00E944F324C0161
:102CC000F301608971890E94480DF301938A828A19
:102CD0009A828982BE016F5F7F4FCE0108960E9463
:102CE00026148C859D859E838D8308969C838B837B
:102CF000880F991F0E944F329A8389834D815E818C
:102D000080E090E08417950799F0A885B9859C012B
:102D1000220F331FA20FB31FE981FA81E20FF31FC5
:102D2000309721F02D913C91318320830196EACF99
:102D30008BE090E00E944F324C01F3016285738575
:102D4000AE014F5F5F4F0E94020AF30195A684A671
:102D500089819A810E945132888599850E945132D9
:102D60002E960FB6F894DEBF0FBECDBFDF91CF9188
:102D70001F910F91FF90EF90DF90CF90BF90AF9099
:102D80009F908F907F906F905F904F9008952F92BB
:102D90003F924F925F926F927F928F929F92AF92EB
:102DA000BF92CF92DF92EF92FF920F931F93CF9338
:102DB000DF93CDB7DEB7A8970FB6F894DEBF0FBE8E
:102DC000CDBF1C01DC0150962D913C9151971A9674
:102DD0008D919C911B970196B9010E945E347C01F4
:102DE000F101938782878217930720F084EB91E0AB
:102DF0000E945328EE0CFF1CD1011C96ED91FC9112
:102E00001D97EE0DFF1D808191810E94B119F10186
:102E1000868197810E94C0196DA37EA38FA398A776
:102E2000D10118968D919C9119970E94C0196B0140
:102E30007C01F101828193810E94C0192B013C0128
:102E4000D10114968D919C9115970E94C0196D8F98
:102E50007E8F8F8F98A3F101808191810E94C0198C
:102E600069A37AA38BA39CA3C701B6010E9456361F
:102E70004B015C01C301B2010E9456366B017C011B
:102E80006D8D7E8D8F8D98A10E9456366D8F7E8FB1
:102E90008F8F98A369A17AA18BA19CA10E9456361D
:102EA00069A37AA38BA39CA382E48F9384E38F937B
:102EB0001F921F9281E48F9380EF8F931F921F9236
:102EC0006DA17EA18FA198A50E9456369F938F93E6
:102ED0007F936F930D8D1E8D2F8D38A149A15AA11F
:102EE0006BA17CA1CE0101960E94720D8CE1FE01C6
:102EF0003196D101539601900D928A95E1F70FB664
:102F0000F894DEBF0FBECDBFA8960FB6F894DEBF13
:102F10000FBECDBFDF91CF911F910F91FF90EF902A
:102F2000DF90CF90BF90AF909F908F907F906F90E9
:102F30005F904F903F902F9008952CE1FB01739686
:102F4000DC0101900D922A95E1F70895CF92DF926E
:102F5000EF92FF920F931F93CF93DF93EC017B01CE
:102F60008C819D818C010F5F1F4F8017910708F0A6
:102F700046C04A815B814017510750F509964817B2
:102F8000590730F5C880D9809B838A83880F991FA1
:102F90000E944F32998388834C815D81F60120E045
:102FA00030E02417350789F0A881B981B901660F8F
:102FB000771FA60FB71F109721F0608171816D9365
:102FC0007C932F5F3F4F3296ECCFC6010E94513267
:102FD0008C819D819C01220F331F8017910790F4F3
:102FE000E881F981E20FF31F309729F0D7014D9165
:102FF0005C915183408301962E5F3F4FEECF0817BF
:10300000190710F41D830C83DF91CF911F910F914D
:10301000FF90EF90DF90CF900895EF92FF920F9383
:103020001F93CF93DF93EC018C01045F1F4F1D862C
:103030001C8688E090E09F878E87198A188A80E135
:1030400090E00E944F329D878C87CE0143960E946C
:10305000500D86E190E00E944F327C014CE050E040
:103060006CE070E00E948219F982E88286E190E0CB
:103070000E944F327C014EE050E06EE070E00E9412
:103080008219FB82EA8286E190E00E944F327C0145
:103090004DE050E06DE070E00E948219FD82EC820C
:1030A00086E190E00E944F327C0148E050E068E009
:1030B00070E00E948219FF82EE8286E190E00E9419
:1030C0004F327C0149E050E069E070E00E948219D3
:1030D000F986E886BE016C5F7F4FC8010E94A61783
:1030E000BE016A5F7F4FC8010E94A617BE01C801DA
:1030F0000E94A617BE01685F7F4FC8010E94A617F5
:10310000BE016E5F7F4FC8010E94A6171B861A86FC
:10311000DF91CF911F910F91FF90EF90089526E5D9
:1031200031E0FC0131832083089526E531E0FC0184
:10313000318320830C945132CF93DF93CDB7DEB728
:103140006C970FB6F894DEBF0FBECDBFFC01628155
:103150007381CE0101960E949D1769ED72E08AEDA0
:1031600093E00E94992ACE0101960E94480EAB017D
:10317000BC0122E030E08AED93E00E94952C6EEDD8
:1031800072E08AED93E00E94992ACE0101960E9496
:10319000540EAB01BC0122E030E08AED93E00E94C6
:1031A000952C67EE72E08AED93E00E94992ACE0199
:1031B00001960E944E0EAB01BC0122E030E08AED88
:1031C00093E00E94952C60EF72E08AED93E00E94FC
:1031D000992ACE0101960E94600EAB01BC0122E04B
:1031E00030E08AED93E00E94952C68EF72E08AED62
:1031F00093E00E94992ACE0101960E945A0EAB01DB
:10320000BC0122E030E08AED93E00E94972C6C969E
:103210000FB6F894DEBF0FBECDBFDF91CF910895FA
:10322000CF92DF92EF92FF920F931F93CF93DF9392
:10323000CDB7DEB76C970FB6F894DEBF0FBECDBF2B
:103240006B01FC0162817381CE0101960E949D1782
:10325000CE0101960E94540E8B019C01E12CF12CB1
:1032600040E050E061E070E0C6010E94A409CE0198
:1032700001960E94480E8B019C0140E050E067E0FF
:1032800070E0C6010E94A409CE0101960E944E0E74
:103290008B019C0140E050E06DE070E0C6010E94AF
:1032A000A409CE0101960E94600E8B019C0141E0B1
:1032B00050E061E070E0C6010E94A409CE010196D1
:1032C0000E945A0E8B019C0141E050E06DE070E0DD
:1032D000C6010E94A4096C960FB6F894DEBF0FBE1B
:1032E000CDBFDF91CF911F910F91FF90EF90DF90B5
:1032F000CF90089524E033E0FC0131832083738371
:1033000062830895CF93DF93EC01842F2CE330E0A8
:10331000462F682FCE010E949B1C4FE352E46FE0C2
:1033200070E04A8B5B8B6C8B7D8BDF91CF91089526
:103330000E94901DAC0160E070E0DB01CA010197C2
:10334000A109B109CC97A105B10528F03FE322E41A
:103350008FE090E003C0342F252FCB01632F722F15
:103360000895CF93DF93EC010E949D32CE010E941D
:1033700098196A8B7B8B8C8B9D8BDF91CF910895F5
:10338000FC01628973898489958908950F931F933D
:10339000FC01CB017183608300E010E02FEF33E488
:1033A00040E050E06FEF73EC0E94ED1F1F910F9112
:1033B00008952F923F924F925F926F927F928F92D9
:1033C0009F92AF92BF92CF92DF92EF92FF920F93B4
:1033D0001F93CF93DF9300D000D0CDB7DEB71C0191
:1033E000CE0149960E947F0E2B013C01CE014996E9
:1033F0000E94660E69837A838B839C83CE014996F3
:103400000E94980E4B015C01CE0149960E94D70E96
:10341000D101ED91FC91882381F09AE9C92E99E9B7
:10342000D92EED2C9EE3F92E00E010E020E231E4ED
:1034300040E050E060EC71E410C08FE8C82E82ECF0
:10344000D82E85EFE82E8DE3F82E0DEC1CEC2CE445
:103450003EE340E050E060E771E4CF010E94EC1EE3
:1034600029813A814B815C81C301B2010E94B6354A
:10347000881F8827881F91E08927682F70E0F10155
:10348000808191810E94C920B501A401D1018D9153
:103490009C910E943A0FF101808191810E94CC1D84
:1034A000D1018D919C910E94400F0F900F900F9031
:1034B0000F90DF91CF911F910F91FF90EF90DF90D0
:1034C000CF90BF90AF909F908F907F906F905F90C4
:1034D0004F903F902F900895CF92DF92EF92FF92FE
:1034E0006A017B0120E030E0A901C701B6010E941A
:1034F000C237181674F4A701960160E070E08FE7F8
:1035000093E40E94EF340E9425369B014FEF50E078
:103510000DC020E030E04FE753E4C701B6010E9440
:10352000F0340E942536AB012FEF30E0BA01C9011B
:10353000FF90EF90DF90CF9008950F931F93CF935C
:10354000DF93CDB7DEB78C012DB73EB72C513109D3
:103550000FB6F8943EBF0FBE2DBFADB7BEB71196E4
:103560008CE1FE01379601900D928A95E1F7C80132
:103570000E94D919AB01BC01C8010E946C1A0FB698
:10358000F894DEBF0FBECDBFDF91CF911F910F9199
:1035900008952EE1FC01208308950F93062F22E069
:1035A00046E060E0FC0180810E94551C0F91089567
:1035B0000F93062F23E044E060E0FC0180810E942D
:1035C000551C0F910895462F4295440F407E61E0AF
:1035D000FC0180810C948E1B1F93CF93DF93EC0131
:1035E000162F462F62E088810E948E1B1F83DF9179
:1035F000CF911F910895CF93DF93EC0140E760E0F6
:1036000088810E948E1B61E0CE010E94E31A61E076
:10361000CE01DF91CF910C94EC1AAF92BF92CF9272
:10362000DF92EF92FF920F931F93CF93DF93EC0102
:103630007B015A01690100910A0110910B019C0163
:103640002F5F3F4F46E063E088810E949E1B8F8181
:10365000813029F441E062E088810E948E1B8981DB
:1036600090E0982F88272A81822BF701918380830D
:103670008D8190E0982F88272E81822BF5019183F0
:1036800080838B8190E0982F88272C81822BF601F4
:1036900091838083DF91CF911F910F91FF90EF90E5
:1036A000DF90CF90BF90AF900895EF92FF920F936D
:1036B0001F93CF93DF9300D0CDB7DEB7062F142F23
:1036C000682F8BEB94E029833A830E942030602F8F
:1036D0008BEB94E00E94C72F2981022FE22E3A81C2
:1036E000F32E8E2D801B811740F4F70161917F012D
:1036F0008BEB94E00E94C72FF4CF8BEB94E00E94F9
:103700003D3091E0811190E0892F0F900F90DF9173
:10371000CF911F910F91FF90EF900895CF93DF937A
:103720001F92CDB7DEB749839E012F5F3F4F41E027
:103730000E94551B0F90DF91CF9108953F924F92B9
:103740005F926F927F928F929F92AF92BF92CF9231
:10375000DF92EF92FF920F931F93CF93DF9300D0EE
:1037600000D000D0CDB7DEB7682E562E742E3A8327
:1037700029830E949D326B017C01312C412C872DC5
:1037800090E09C838B834801A12CB12C3714B0F5B9
:10379000662D8BEB94E00E942030652D8BEB94E03E
:1037A0000E94C72F8BEB94E00E943D30662D8BEB7F
:1037B00094E00E9420304B815C81431951094132D1
:1037C000510514F040E250E0662D8BEB94E00E942E
:1037D0001D308BEB94E00E946F2F892B59F101155E
:1037E000110579F10E949D326C197D098E099F099E
:1037F000681579058A059B0520F11CC00115110586
:1038000089F10E949D326C197D098E099F0920E083
:1038100030E0601771078207930720F1872D90E051
:10382000242D332727FD309528173907DCF444244D
:103830004A9418C0872D90E2971508F480E2380E5C
:10384000A5CFE981FA81E40DF11D47FCFA95FE83CD
:10385000ED838BEB94E00E94772FED81FE818083D6
:103860004394B7CF842D26960FB6F894DEBF0FBED3
:10387000CDBFDF91CF911F910F91FF90EF90DF901F
:10388000CF90BF90AF909F908F907F906F905F9000
:103890004F903F9008950F931F9389019A0141E043
:1038A0000E949E1B1F910F910895DF92EF92FF924D
:1038B0000F931F93CF93DF931F92CDB7DEB7F82EF0
:1038C000E62ED42E122F20910A0130910B01AE0169
:1038D0004F5F5F4F0E944B1C882319F14D2D50E024
:1038E000411B51094F5F5F4FE1E0F0E002C0EE0F76
:1038F000FF1F1A95E2F73197042E01C0EE0F0A94CC
:10390000EAF701C0000F4A95EAF74E2F40958981EA
:103910004823E0234E2B49836E2D8F2D0E948E1B52
:1039200001C080E00F90DF91CF911F910F91FF9028
:10393000EF90DF900895CF93DF93DC0170E0FB01FF
:10394000E65EFE4FE4911496EC931497842F90E07A
:10395000FC01E65EFE4FE4911596EC931597625DCF
:103960007E4FFB01C491D0E0CC0FDD1FC45BDE4F66
:10397000FE014591549117965C934E931697FC0166
:10398000E25DFE4F849190E0880F991F8E5B9E4F01
:10399000FC01459154911B965C934E931A97FB0141
:1039A0006491E62FF0E0EE0FFF1FEA5AFE4F85917B
:1039B000949119969C938E931897C901253FF1E035
:1039C0003F0714F084EF91E049E3489F9001499F3D
:1039D000300D1124245E3F4F1D963C932E931C976F
:1039E000DF91CF9108950F931F93CF93DF93EC0155
:1039F000E885F98580819C81892B8083EE81FF8118
:103A000090818C8180958923808384E090E00E945E
:103A1000F432EE81FF8180819C81892B80838AE052
:103A200090E00E94F432EE81FF8190818C8180953C
:103A300089238083E885F98590818C81809589230D
:103A400080830E94A932605B794B8F4F9F4F6E87B6
:103A50007F87888B998BEA85FB8580819D8189236F
:103A600059F00E94A9320E851F85288939890617C9
:103A700017072807390778F7EA85FB8580819D813C
:103A8000892369F40E94A9320E851F852889398906
:103A9000061717072807390778F780E00DC00E943E
:103AA000A9322C853D85620F731F811D911D6E8784
:103AB0007F87888B998B81E0DF91CF911F910F9148
:103AC00008950F931F93CF93DF93EC010E94F31C93
:103AD000882389F0EA85FB8580819D81892371F0A7
:103AE0000E94A9320E851F85288939890617170774
:103AF0002807390778F720E030E00CC00E94A9328F
:103B00002C853D85255031094E855F85241B350B5D
:103B1000260F371FC901DF91CF911F910F91089593
:103B20000E94611D31E020E0009709F430E04C96DE
:103B300069E370E00E945E34832F922F8617970707
:103B400008F4CB0108951F920F920FB60F92112423
:103B50002F933F934F935F936F937F938F939F9395
:103B6000AF93BF93EF93FF93E0919A03F0919B0380
:103B7000309709F00995FF91EF91BF91AF919F9117
:103B80008F917F916F915F914F913F912F910F9006
:103B90000FBE0F901F9018952F923F924F925F92F9
:103BA0006F927F928F929F92AF92BF92CF92DF924D
:103BB000EF92FF920F931F93CF93DF93CDB7DEB7B2
:103BC0002B970FB6F894DEBF0FBECDBF9B878A87B9
:103BD000DC01D896BC91B983B11102C01982E2C050
:103BE0000E949D326A837B838C839D83EA85FB855B
:103BF00080A191A1A2A1B3A14A815B816C817D8149
:103C0000481B590B6A0B7B0B84A595A5A6A5B7A5E8
:103C1000481759076A077B0708F3028CF38DE02DDC
:103C200080809180A280B380AA85BB855E96ED914D
:103C3000FC915F97A50194016081718182819381DC
:103C40000E94EF342B013C01EA85FB8520893189F4
:103C5000428953890E94CD37AA85BB8594962D91C0
:103C60003D914D915C9197970E94F0346B017C01DE
:103C7000EA85FB8564A375A386A397A324A835A82A
:103C800006A917A99101A8010E94C23718161CF4B1
:103C9000C101D80118C0AA85BB85D0968D919D9190
:103CA0000D90BC91A02D8E839F83A887B9879C011E
:103CB000AD01C701B6010E94B63587FF0AC08E81EB
:103CC0009F81A885B985EA85FB8584A395A3A6A3D2
:103CD000B7A3AA85BB851C962D913D914D915C9112
:103CE0001F97C301B2010E94CD37EA85FB8524A14D
:103CF00035A146A157A10E94F0346B017C01AA8531
:103D0000BB8598962D913D914D915C919B97C501F6
:103D1000B4010E94EF34EA85FB8524893589468900
:103D200057890E94CD379B01AC01C701B6010E94A3
:103D3000EF346B017C019101A8010E94C237181673
:103D4000BCF0AA85BB85D0962C90D097D1963C909C
:103D5000D197D2960C91D297D3961C919101A8013C
:103D6000B601C7010E94B63587FD02C01601870162
:103D7000AA85BB855C96ED91FC915D97C101D80148
:103D800080839183A283B383EA85FB8580A691A675
:103D9000A2A6B3A68A819B81AC81BD8180A391A399
:103DA000A2A3B3A389812B960FB6F894DEBF0FBEF2
:103DB000CDBFDF91CF911F910F91FF90EF90DF90DA
:103DC000CF90BF90AF909F908F907F906F905F90BB
:103DD0004F903F902F9008952F923F924F925F9275
:103DE0006F927F928F929F92AF92BF92CF92DF920B
:103DF000EF92FF920F931F93CF93DF9300D000D0E9
:103E0000CDB7DEB71C012A013B014801590120E072
:103E100030E0A901C301B2010E94B63587FD78C028
:103E200020E030E0A901C501B4010E94B63587FD4C
:103E30006FC020E030E0A901C701B6010E94B6358D
:103E400087FD66C0F1014082518262827382848262
:103E50009582A682B782C086D186E286F38664A563
:103E600075A586A597A50E94563620E030E04AE762
:103E700054E40E94BD3569837A838B839C83F1016E
:103E800044865586668677869B01AC01C501B401E0
:103E90000E94CD374B015C01F101608B718B828BED
:103EA000938B29813A814B815C81C701B6010E94C5
:103EB000BD356B017C01F101648B758B868B978B13
:103EC000808D918D019721F5A301920160E070E052
:103ED000CB010E94EF34F10164877587868797874D
:103EE000A501940160E070E0CB010E94EF34F10184
:103EF000608B718B828B938BA701960160E070E0E1
:103F0000CB010E94EF34F101648B758B868B978B0C
:103F10000F900F900F900F90DF91CF911F910F9105
:103F2000FF90EF90DF90CF90BF90AF909F908F90D9
:103F30007F906F905F904F903F902F9008958F9259
:103F40009F92AF92BF92CF92DF92EF92FF92CF9368
:103F5000DF93EC0116161706ACF56B01EE24D7FCC7
:103F6000E094FE2CC701B6010E9458364B015C015B
:103F70006CA57DA58EA59FA50E9456369B01AC0120
:103F8000C501B4010E94BD354B015C019B01AC0130
:103F9000688979898A899B890E94CD37688B798B5A
:103FA0008A8B9B8BA50194016C897D898E899F8961
:103FB0000E94BD356C8B7D8B8E8B9F8BCCA6DDA636
:103FC000EEA6FFA6DF91CF91FF90EF90DF90CF900C
:103FD000BF90AF909F908F9008952F923F924F92F5
:103FE0005F926F927F928F929F92AF92BF92CF9289
:103FF000DF92EF92FF920F931F93CF93DF93EC0129
:104000006A017B0148015901A9019801C701B60164
:104010000E94C23787FF4EC0C8AAD9AAEAAAFBAA43
:104020008CAA9DAAAEAABFAA88AD882309F442C073
:104030002C8C3D8CF1014080518062807380A50101
:104040009401C301B2010E94C237181634F4F10181
:1040500080829182A282B3820DC0A7019601C30122
:10406000B2010E94B63587FF05C0F101C082D1823E
:10407000E282F3828CA09DA0AEA0BFA0CCA8DDA858
:10408000EEA8FFA8A7019601C501B4010E94C2379E
:10409000181664F0C8A8D9A8EAA8FBA8A701960139
:1040A000C501B4010E94B63587FF04C0CCA2DDA2D1
:1040B000EEA2FFA2DF91CF911F910F91FF90EF90A1
:1040C000DF90CF90BF90AF909F908F907F906F9038
:1040D0005F904F903F902F9008958F929F92AF9254
:1040E000BF92CF92DF92EF92FF92CF93DF93EC01DA
:1040F000EC8DFD8DC080D180E280F380CCA2DDA26A
:10410000EEA2FFA2EA8DFB8D80819181A281B38115
:1041100088A799A7AAA7BBA78CA89DA8AEA8BFA847
:10412000A5019401C701B6010E94C237181664F0B8
:1041300088A899A8AAA8BBA8A5019401C701B6019F
:104140000E94B63587FF04C08CA29DA2AEA2BFA27A
:10415000DF91CF91FF90EF90DF90CF90BF90AF9025
:104160009F908F9008951F93CF93DF93EC0111E000
:104170006130710509F010E088AD91E089271813CE
:1041800003C0CE010E946D2018AFDF91CF911F9127
:1041900008950F931F93CF93DF93EC018B0188ADAC
:1041A000882361F1888D998D6817790739F12C85FD
:1041B0003D854E855F8560E070E0CB010E94EF3465
:1041C0006C877D878E879F87288939894A895B8993
:1041D00060E070E0CB010E94EF34688B798B8A8BB2
:1041E0009B8B2C893D894E895F8960E070E0CB0113
:1041F0000E94EF346C8B7D8B8E8B9F8B198F088F79
:10420000DF91CF911F910F9108954F925F926F921E
:104210007F928F929F92AF92BF92CF92DF92EF9256
:10422000FF920F931F93CF93DF9300D000D0CDB7B1
:10423000DEB74C0127013801A982BA82CB82DC8229
:10424000FC01558F448F738F628F378F268F10AE8E
:1042500010AA11AA12AA13AA80E090E0AFE7B3E473
:1042600084AB95ABA6ABB7AB84E690E0A0E0B0E042
:1042700084A795A7A6A7B7A76B8D7C8DC4010E94C4
:10428000C920CF88D88CE98CFA8C09811A812B81BE
:104290003C81B301A201C4010E94EC1E0E949D3228
:1042A000F40144A455A466A477A464197509860989
:1042B000970960A371A382A393A30F900F900F900F
:1042C0000F90DF91CF911F910F91FF90EF90DF90B2
:1042D000CF90BF90AF909F908F907F906F905F90A6
:1042E0004F900895FC0160817181828193810895CE
:1042F000FC0164817581868197810895FC01608548
:1043000071858285938508950F931F93FC010FEFAC
:104310001FEF980100831183228333831086118657
:10432000128613864FEF59EC6AE97BE3408B518B81
:10433000628B738B408F518F628F738F40A351A319
:1043400062A373A340A751A762A773A740AB51AB69
:1043500062AB73AB00AF11AF22AF33AFDC01A05C37
:10436000BF4F8FEF90E011969C938E9314960D9310
:104370001D932D933C93139718960D931D932D9396
:104380003C93139718961C9211961C92509682E0BB
:104390008C9311961C9211961C9211961C92119658
:1043A0001D921D921D921C921397149611961C92A9
:1043B0001E9212961D921C92EA5AFF4F10821F9174
:1043C0000F9108952FEB260F862F992787FD909543
:1043D000263010F4C79708956156663018F4875553
:1043E00091090895C09708950F931F93FB0160E012
:1043F00070E0CB01019120ED200F2A30A0F4AAE05B
:10440000B0E09B01AC010E94CD34112707FD10954F
:10441000212F312F600F711F821F931F605371096D
:1044200081099109E7CF1F910F9108950F931F9371
:10443000CF93FC01EA5AFF4FC1E020812D3219F0E1
:10444000C0E08F0103C08C01095A1F4FB8010E94C0
:10445000F4219B01AC01A4E6B0E00E94CD34F80148
:10446000DF01219130ED320F3A30D0F32E3269F571
:1044700011962C91119730ED320F3A3030F53327E9
:1044800027FD3095205331094AE0429F8001439F28
:10449000100D1124222717FD2095322F600F711F58
:1044A000821F931F12960C9120ED200F2A3068F482
:1044B000112707FD109500531109222717FD20959C
:1044C000322F600F711F821F931FCC2339F09095FC
:1044D0008095709561957F4F8F4F9F4FCF911F9122
:1044E0000F9108954F925F926F927F928F929F9259
:1044F000AF92BF92CF92DF92EF92FF92CF93DF9372
:10450000EC01CA5ADF4FBE010E94F4212B013C018D
:1045100024E630E040E050E00E9486349B01AC018C
:1045200060EA76E881E090E00E944E346B017C0105
:10453000FE01819190ED980F9A30D8F38E3219F5E3
:10454000EF0180E1882E87E2982EA12CB12CA99151
:1045500080ED8A0F8A30B8F4BB27A7FDB095D097BD
:10456000A50194010E94D834C60ED71EE81EF91E7C
:10457000C501B4012AE030E040E050E00E948634FA
:1045800049015A01E4CFC701B6016D5F7F4F8F4FDC
:104590009F4F26E030E040E050E00E948634690101
:1045A0007A01C301B20124E630E040E050E00E940D
:1045B000863460E472E48FE090E00E944E34C60ED0
:1045C000D71EE81EF91EC701B601DF91CF91FF90FB
:1045D000EF90DF90CF90BF90AF909F908F907F90A3
:1045E0006F905F904F900895DB01FA018D918823C1
:1045F00019F091918917D1F3992787FD9095089526
:10460000CF92DF92EF92FF921F93CF93DF93EC0153
:10461000FC01EB5AFF4F1081112309F4A9C0319618
:1046200060810E94E221182FFE01E95AFF4F60814C
:10463000CE010E94E22140E1149F800D1124FE0171
:10464000EC5AFF4F908189138AC074961081112310
:1046500009F458C1359680819181019691838083B8
:10466000B59780819181A281B381349780839183B2
:10467000A283B3833C9680819181A281B3813497D8
:1046800080839183A283B383799680818823A1F16B
:10469000813009F037C18C819D81AE81BF818883D3
:1046A0009983AA83BB838C859D85AE85BF858887CA
:1046B0009987AA87BB878C899D89AE89BF89888B9A
:1046C000998BAA8BBB8B8C8D9D8DAE8DBF8D888F6A
:1046D000998FAA8FBB8F8CA59DA5AEA5BFA588A7D6
:1046E00099A7AAA7BBA78CA99DA9AEA9BFA988AB6A
:1046F00099ABAAABBBAB06C18CA19DA1AEA1BFA1DA
:1047000088A399A3AAA3BBA38C819D81AE81BF81FD
:1047100088839983AA83BB838C899D89AE89BF894D
:10472000888B998BAA8BBB8B8C8D9D8DAE8DBF8D0D
:10473000888F998FAA8FBB8FFE01E05CFF4FDE014F
:10474000AE5BBF4F8D919C91918380838CAD9DAD6D
:10475000AEADBFAD88AF99AFAAAFBBAFD3C0C159A3
:10476000DF4F8881998101969983888310E0CAC0C0
:10477000FC01EA59FF4F30818B599F4F7C01311169
:104780001DC06E0196E5C90ED11C4CE053E0B60188
:10479000CE010E94F422892B11F481E00CC042E189
:1047A00053E0B601CE010E94F422892B19F4F701DF
:1047B0001082A8C082E0D7018C93A4C0DC01EC91E8
:1047C000E23009F49FC0CE018A5A9F4FDC012C9140
:1047D000222309F497C0B0E2EB9FF0011124E32BF0
:1047E0003197E932F10508F08DC0EC5CFF4F0C9475
:1047F000C734CE010E9416226C837D838E839F83F3
:104800000E949D32C85BDF4F12C0C859DF4F81E064
:10481000213409F05DC05DC0CE010E9472226C8B14
:104820007D8B8E8B9F8B0E949D32C05BDF4F688398
:1048300079838A839B8366C0233509F063C08C89A2
:104840009D89AE89BF89B095A095909581959F4F20
:10485000AF4FBF4F8C8B9D8BAE8BBF8B53C0CE01A8
:104860000E9472226C8F7D8F8E8F9F8F4BC0273559
:1048700009F048C08C8D9D8DAE8DBF8DB095A095F3
:10488000909581959F4FAF4FBF4F8C8F9D8FAE8F6F
:10489000BF8F38C0CE010E9416226CA77DA78EA7BD
:1048A0009FA730C0CE010E9416226CAB7DAB8EABB1
:1048B0009FAB28C0BC01CE010E94F4216C877D878C
:1048C0008E879F871FC0C859DF4F81E021330CF4CA
:1048D00080E0888317C00E94C339CE5BDF4F9927E1
:1048E000998388830FC0CE010E9416226CAF7DAFE2
:1048F0008EAF9FAF07C0CE010E9416226CA37DA38E
:104900008EA39FA3812FDF91CF911F91FF90EF90F6
:10491000DF90CF900895CF92DF92EF92FF920F93A6
:104920001F93CF93DF931F92CDB7DEB76C01262F75
:10493000FC01E759FF4F40815181628173814F5FD4
:104940005F4F6F4F7F4F40835183628373838C012E
:1049500009591F4F8B5A9F4F7C01243281F12CF44F
:104960002A3069F02D30E9F50AC02A3241F02C32A4
:10497000C1F5F601EC5AFF4F808182278083F80150
:1049800080818F3060F4F601E80FF11DEA5AFF4F85
:104990001082C60129830E940023298101C080E082
:1049A000F601EA59FF4F90819F5F9083F8011082D2
:1049B00091E02A3209F090E0F70190832AC0F801D3
:1049C0001082F601EA59FF4F108272971082719699
:1049D00082E08083F7011082F601E859FF4F1082D0
:1049E00017C0F80180818E3048F491E0980F9083D1
:1049F000F601E80FF11DEA5AFF4F2083F70180818D
:104A0000811106C0F601EC5AFF4F80818227808316
:104A100080E00F90DF91CF911F910F91FF90EF9069
:104A2000DF90CF900895CF92DF92EF92FF920F9395
:104A30001F93CF93DF93E9016115710551F0FC01DC
:104A4000C088D188E288F388FB01C082D182E282EB
:104A5000F3824115510551F0FC01C08CD18CE28CE0
:104A6000F38CFA01C082D182E282F382209701F1B5
:104A70008C01045B1F4FF80180819181A281B38179
:104A80008F3F9F4FAF4FBF4F61F00E949D32F801A3
:104A90000081118122813381601B710B820B930B8A
:104AA00003C06FEF7FEFCB01688379838A839B8399
:104AB000DF91CF911F910F91FF90EF90DF90CF90FA
:104AC0000895AF92BF92CF92DF92EF92FF920F9331
:104AD0001F93CF93DF93CDB7DEB728970FB6F89427
:104AE000DEBF0FBECDBF5B018A01AE014F5F5F4FDE
:104AF000BE016B5F7F4F0E941325CD80DE80EF806B
:104B0000F8848FEFC81689ECD8068AE9E8068BE3AB
:104B1000F80659F0C701B6010E94583620E034E289
:104B200044E759E40E94BD3504C060E070E08AE7C4
:104B300094E4F5016083718382839383FFEFCF1642
:104B4000F9ECDF06FAE9EF06FBE3FF0669F069819D
:104B50007A818B819C810E94583620E034E244E7C0
:104B600059E40E94BD3504C060E070E08AE794E437
:104B7000F801608371838283938328960FB6F8943B
:104B8000DEBF0FBECDBFDF91CF911F910F91FF9080
:104B9000EF90DF90CF90BF90AF900895FC0160A19F
:104BA00071A182A193A16F3FF9EC7F07FAE98F070A
:104BB000FBE39F0749F00E94583620E030E048ECC4
:104BC00052E40E94BD35089560E074E284E799E400
:104BD0000895FC0112828FEF818310821382089561
:104BE000FC018381882331F0611103C08FEF818341
:104BF000089511820895CF93DF93EC016A838BEBC4
:104C000094E00E94063041E06A818BEB94E00E94C0
:104C10001D3091E0811101C090E09B838BEB94E00B
:104C20000E94772F88838B8190E0DF91CF91089548
:104C3000CF93DF93EC018B818823A9F08981809544
:104C4000862388836A818BEB94E00E942030688100
:104C50008BEB94E00E94C72F8BEB94E00E943D30D9
:104C6000282F30E002C020E030E081E090E0232BEC
:104C700011F080E090E0DF91CF91089508950895BC
:104C8000DC01ED91FC910284F385E02D41E0099572
:104C900081E090E00895FC011382128222E433E067
:104CA000318320830895DC01ED91FC910084F1852E
:104CB000E02D6FEF0994DC01ED91FC910284F38506
:104CC000E02D40E0099461E00E945B2680ED97E0D2
:104CD0000C94F43262E00E945B2680ED97E00C9425
:104CE000F432CF93DF93CDB7DEB728970FB6F894A1
:104CF000DEBF0FBECDBF1D8220E42E8334E13F8393
:104D000034E5388719822A8320E12B8320E52C8320
:104D1000FC012781421710F04FEF420FFC01308554
:104D200050E0FE01E40FF51F303121F4243011F47E
:104D3000218101C02581260F2068622F28960FB699
:104D4000F894DEBF0FBECDBFDF91CF910C945B26F0
:104D5000FC016581262F246025836C600C945B2602
:104D6000CF93DF93EC01423018F08C8188608C8304
:104D70004F836887222329F0413019F48C818460A5
:104D80008C8364E670E080E090E00E94CC326C811D
:104D900064FD31C0E881F9810284F385E02D42E0B1
:104DA00063E0CE01099584E991E10E94F432E88143
:104DB000F9810284F385E02D42E063E0CE0109959C
:104DC00084E991E10E94F432E881F9810284F3855B
:104DD000E02D42E063E0CE01099586E990E00E9473
:104DE000F432E881F9810284F385E02D42E062E04B
:104DF000CE01099516C06062CE010E945B2684E94F
:104E000091E10E94F4326C816062CE010E945B26C7
:104E100086E990E00E94F4326C816062CE010E94CB
:104E20005B266C816062CE010E945B2684E08D83EC
:104E3000CE010E94A826CE010E94632682E08E83C6
:104E400066E0CE010E945B26CE01DF91CF910C94EB
:104E5000532621E001C0220F6A95EAF7DC011C9677
:104E60002C931C971A965C934E931997ED91FC9195
:104E70000084F185E02D60E00994FC012485222363
:104E800099F081859285009719F4611105C006C0DB
:104E9000019721F4611102C0258701C0158665853F
:104EA000CF010E960C94182608950F931F93CF935D
:104EB000DF93EC018C01025F1F4F6B85C8010E94DC
:104EC000FB25019761F461E0C8010E94F0251C8276
:104ED00060E0C8010E94182681E090E002C080E0F6
:104EE00090E0DF91CF911F910F9108958F92AF9233
:104EF000CF92EF920F93CF93DF93CDB7DEB7FC0144
:104F00006387148615861286118681E0982F01C06A
:104F1000990F4A95EAF7928B982F01C0990F2A951D
:104F2000EAF7938B982F01C0990F0A95EAF7948BB3
:104F3000982F01C0990FEA94EAF7958B982F01C03A
:104F4000990FCA94EAF7968B982F01C0990FAA94EB
:104F5000EAF7978B01C0880F8A94EAF7808FDF9178
:104F6000CF910F91EF90CF90AF908F9008956F9267
:104F70007F928F92AF92CF92EF920F93CF93DF9366
:104F800000D01F92CDB7DEB73C012B834A836983E3
:104F90000E944B2682E593E0F30191838083C30155
:104FA0000E960E94E9252B814A816981C3010E94E6
:104FB00076270F900F900F90DF91CF910F91EF9088
:104FC000CF90AF908F907F906F900895FF920F9346
:104FD0001F93CF93DF93EC01F62E8C01025F1F4FDE
:104FE0006A896F29C8010E9418266A8960956F2115
:104FF000C801DF91CF911F910F91FF900C9418265B
:1050000020E030E050E060FF05C0FC01E20FF31F3C
:105010007589572B66952F5F3F4F2430310599F7DF
:10502000413011F4FC014489FC016585652B642B3A
:105030000C94E6270F931F93CF93DF93EC01142F6B
:10504000062F0F70423011F440E00AC070E084E097
:10505000759567958A95E1F7CE010E940028412F4A
:10506000602FCE01DF91CF911F910F910C940028FA
:105070000F931F93CF93DF9300D01F92CDB7DEB76E
:105080008C012B834A8369830E9455272B814A8197
:105090006981C8010F900F900F90DF91CF911F9100
:1050A0000F910C94B0260E94BE3908958CE993E0CC
:1050B0000C948D148CE993E00C94B2130E94FE3290
:1050C0000E9455280E945628CEE9D8E20E945A280C
:1050D0002097E1F30E949E28F9CF8EE993E00C948B
:1050E0002D07FC01818D228D90E0805C9F4F821BFB
:1050F00091098F7399270895FC01918D828D9817DE
:1051000031F0828DE80FF11D858D90E008958FEFCD
:105110009FEF0895FC01918D828D981761F0828D2B
:10512000DF01A80FB11D5D968C91928D9F5F9F73DB
:10513000928F90E008958FEF9FEF08958EE09AE2AE
:10514000892B49F080E090E0892B29F00E940E2AFB
:1051500081110C9400000895FC01848DDF01A80FDB
:10516000B11DA35ABF4F2C91848D90E001968F738F
:105170009927848FA689B7892C93A089B1898C91AE
:1051800080648C93938D848D981306C00288F38974
:10519000E02D80818F7D80830895CF93DF93EC0194
:1051A000888D8823C9F0EA89FB89808185FD05C047
:1051B000A889B9898C9186FD0FC00FB607FCF5CF81
:1051C000808185FFF2CFA889B9898C9185FFEDCFC9
:1051D000CE010E94AC28E7CFDF91CF910895CF9206
:1051E000DF92FF920F931F93CF93DF931F92CDB760
:1051F000DEB76C01DC015B969C915B975C968C91B1
:105200005C97981307C05096ED91FC91519780815F
:1052100085FD32C0F601038D10E00F5F1F4F0F7345
:105220001127F02EF601848DF81211C00FB607FC7D
:10523000F9CFD6015096ED91FC915197808185FF71
:10524000F1CFC60169830E94AC286981EBCF838DC1
:10525000E80FF11DE35AFF4F6083D6015B960C9374
:105260005B975296ED91FC91539780818062808389
:1052700081E058968C930DC0D6015696ED91FC9125
:10528000579760835096ED91FC915197808180648F
:10529000808381E090E00F90DF91CF911F910F917B
:1052A000FF90DF90CF900895BF92CF92DF92EF9260
:1052B000FF92CF93DF93EC016A017B01B22EE88964
:1052C000F98982E08083411581EE580761057105F7
:1052D000A1F060E079E08DE390E0A70196010E94E3
:1052E0008634215031094109510956954795379522
:1052F0002795211580E1380798F0E889F98910820F
:1053000060E874E88EE190E0A70196010E9486347F
:1053100021503109410951095695479537952795EF
:10532000EC85FD853083EE85FF852083188EEC8922
:10533000FD89B082EA89FB89808180618083EA8966
:10534000FB89808188608083EA89FB89808180680D
:105350008083EA89FB8980818F7D8083DF91CF9173
:10536000FF90EF90DF90CF90BF9008951F920F9223
:105370000FB60F9211242F938F939F93EF93FF9368
:10538000E091EA03F091EB038081E091F003F0916A
:10539000F10382FD12C090818091F3038F5F8F73C0
:1053A0002091F403821751F0E091F303F0E0E6520C
:1053B000FC4F958F8093F30301C08081FF91EF91A3
:1053C0009F918F912F910F900FBE0F901F90189566
:1053D0001F920F920FB60F9211242F933F934F936A
:1053E0005F936F937F938F939F93AF93BF93EF934D
:1053F000FF938AED93E00E94AC28FF91EF91BF915B
:10540000AF919F918F917F916F915F914F913F915C
:105410002F910F900FBE0F901F9018958AED93E07B
:105420000E94712821E0892B09F420E0822F089541
:105430001092DD031092DC0388EE93E0A0E0B0E070
:105440008093DE039093DF03A093E003B093E10326
:1054500082E693E09093DB038093DA0385EC90E09F
:105460009093E7038093E60384EC90E09093E90344
:105470008093E80380EC90E09093EB038093EA0341
:1054800081EC90E09093ED038093EC0382EC90E04C
:105490009093EF038093EE0386EC90E09093F103FA
:1054A0008093F0031092F3031092F4031092F5032B
:1054B0001092F6030895CF92DF92EF92FF920F932E
:1054C0001F93CF93DF936C017A01EB01E60EF71E79
:1054D00000E010E0CE15DF0561F06991D601ED9195
:1054E000FC910190F081E02DC6010995080F191F6C
:1054F000F1CFC801DF91CF911F910F91FF90EF90F5
:10550000DF90CF9008956115710581F0DB010D905A
:105510000020E9F7AD0141505109461B570BDC0152
:10552000ED91FC910280F381E02D099480E090E000
:1055300008950C94832ADC01ED91FC910190F08197
:10554000E02D09940F931F93CF93DF93EC016DE04F
:105550000E949B2A8C016AE0CE010E949B2A800F48
:10556000911FDF91CF911F910F9108950F931F937A
:10557000CF93DF93EC010E94832A8C01CE010E941D
:10558000A22A800F911FDF91CF911F910F91089553
:105590008F929F92AF92BF92CF92DF92EF92FF9243
:1055A0000F931F93CF93DF93CDB7DEB7A1970FB6BD
:1055B000F894DEBF0FBECDBF7C01C42EE52FCB011A
:1055C000D22E19A221E02D1510F02AE0D22E8E0144
:1055D0000F5D1F4F8D2C912CA12CB12C6C2D7E2F8B
:1055E000A50194010E9486348C2DD29E801911242D
:1055F000015011098A3014F4805D01C0895CF80102
:105600008083211531054105510521F0C22EE32F7C
:10561000CA01E4CFB801C7010E94832AA1960FB640
:10562000F894DEBF0FBECDBFDF91CF911F910F91D8
:10563000FF90EF90DF90CF90BF90AF909F908F90B2
:105640000895CF92DF92EF92FF920F931F93CF9323
:10565000DF93EC016A017B012115310579F4E881C2
:10566000F9810190F081E02D642FDF91CF911F919E
:105670000F91FF90EF90DF90CF9009942A30310581
:10568000E9F477FF1AC06DE20E949B2A8C0144273F
:105690005527BA014C195D096E097F092AE0CE0130
:1056A0000E94C82A800F911FDF91CF911F910F9107
:1056B000FF90EF90DF90CF9008952AE0B701A60108
:1056C000CE01DF91CF911F910F91FF90EF90DF906E
:1056D000CF900C94C82A9A01AB01662757FD6095BC
:1056E000762F0C94212B0F931F93CF93DF93EC0114
:1056F0009A01AB01662757FD6095762F0E94212BFA
:105700008C01CE010E94A22A800F911FDF91CF91C0
:105710001F910F9108952115310541F4DC01ED91A0
:10572000FC910190F081E02D642F09940C94C82A1B
:105730000F931F93CF93DF93EC010E948B2B8C016F
:10574000CE010E94A22A800F911FDF91CF911F915D
:105750000F9108954F925F926F927F928F929F92D6
:10576000AF92BF92CF92DF92EF92FF920F931F936F
:10577000CF93DF93EC016A017B01B22E9A01AB015A
:10578000C701B6010E947B38882319F06EE673E0EA
:1057900027C026013701E89477F82FEF3FEF4FE756
:1057A0005FE7C301B2010E947B3881110DC02FEF6A
:1057B0003FEF4FE75FE7C301B2010E94B63518160D
:1057C0001CF462E773E00CC02FEF3FEF4FE75FE49C
:1057D000C701B6010E94C2371816ACF466E773E041
:1057E000CE01DF91CF911F910F91FF90EF90DF904D
:1057F000CF90BF90AF909F908F907F906F905F9071
:105800004F900C94832A2FEF3FEF4FE75FECC701D7
:10581000B6010E94B63587FDE1CF20E030E0A90156
:10582000C701B6010E94B63587FF0AC06DE2CE01FE
:105830000E949B2A8C01F7FAF094F7F8F09402C0CA
:1058400000E010E0A12C60E070E080E09FE3AB148A
:1058500041F020E030E040E251E40E94BD35A394E5
:10586000F6CF9B01AC01C701B6010E94F0346B0179
:105870007C010E942A362B013C010E9456369B0176
:10588000AC01C701B6010E94EF346B017C012AE034
:10589000B301A201CE010E94C82A080F191FBB2024
:1058A00039F067ED72E0CE010E94832A080F191FBC
:1058B0007B2C772041F120E030E040E251E4C70149
:1058C000B6010E94CD376B017C010E9425364B0149
:1058D000AA2497FCA094BA2C2AE030E0B501A401D8
:1058E000CE010E94212B080F191FC501B4010E948F
:1058F00058369B01AC01C701B6010E94EF346B0121
:105900007C017A94D6CFC801DF91CF911F910F917E
:10591000FF90EF90DF90CF90BF90AF909F908F90CF
:105920007F906F905F904F9008950C94AA2B0F93E7
:105930001F93CF93DF93EC010E94AA2B8C01CE0121
:105940000E94A22A800F911FDF91CF911F910F918A
:1059500008954F925F926F927F92AF92BF92CF92D3
:10596000DF92EF92FF920F931F93CF93DF93CDB708
:10597000DEB729013A01621B730B840B950B298951
:105980003A894B895C892A193B094C095D09298BA5
:105990003A8B4B8B5C8B9B01AC0169897A898B8933
:1059A0009C890E944E34E418F50806091709A801DD
:1059B00097010E94A8342A0D3B1D4C1D5D1DCA0194
:1059C000B901DF91CF911F910F91FF90EF90DF9080
:1059D000CF90BF90AF907F906F905F904F90089561
:1059E0000E94BE392091B9043091BA0428173907B2
:1059F000B9F49091770480917804981789F0E09138
:105A00007704F0E0E758FB4F80812091770430E085
:105A10002F5F3F4F2F7333272093770490E0089533
:105A20008FEF9FEF08951F93CF93DF93DC015C9678
:105A30008D919C915D97009749F481E090E01396D9
:105A40009C938E93129780E090E03BC05196ED912D
:105A5000FC91529750962C915097322F30951FB74A
:105A60005E964C915E9741FB772770F941FD6095FA
:105A7000F8944081772311F0422B01C043234083E7
:105A8000EC012197F1F748E0508160FF02C0522BF2
:105A900001C053235083EC012197F1F766954150E3
:105AA00099F78081772311F0832301C0822B8083B3
:105AB0001FBF5C968D919C915D970197F1F781E0F6
:105AC00090E0DF91CF911F9108952091B90430911A
:105AD000BA042817390781F49091770480917804EB
