:100000000C94B3000C94DB000C94DB000C94492B93
:100010000C94492B0C94492B0C94DB000C94071B7B
:100020000C94DB000C94DB000C94DB000C94DB00E4
:100030000C94DB000C94DB000C94DB000C94DB00D4
:100040000C94B72F0C94DB000C941A270C944C27BB
:100050000C94DB000C94DB000C94DB000C94DB00B4
:100060000C94862E0C94DB005D217021802193215D
:100070009B21C721CF21D721DF21E621E621E621DF
:10008000E621E621E621E621E621E621E621E62138
:10009000E621E621E621E621E621E621E621E62128
:1000A000E621E621E621E6215D21692170218021FA
:1000B00093219B21AE21B621BE21084AD73B3BCEDE
:1000C000016E84BCBFFDC12F3D6C74319ABD568357
:1000D0003DDA3D00C77F11BED9E4BB4C3E916BAA0F
:1000E000AABE000000803F05A84CCDB2D44EB9385E
:1000F00036A9020C50B9918688083CA6AAAA2ABE45
:10010000000000803F000000000800020100000322
:100110000407000000000000000001020408102095
:100120004080010204081020010204081020040489
:10013000040404040404020202020202030303038F
:100140000303000000002300260029000000000037
:10015000250028002B0000000000240027002A00B2
:10016000D1257C27A42D11241FBECFEFD8E0DEBF00
:10017000CDBF13E0A0E0B1E0EEE9FEE602C00590DD
:100180000D92A235B107D9F725E0A2E5B3E001C091
:100190001D92AD33B207E1F711E0C6E6D1E004C02D
:1001A0002297FE010E942D32C036D107C9F70E9466
:1001B000C2250C944D370C9400000F931F93CF93DE
:1001C000DF93EC018B010E942D1819870887CE015F
:1001D0000E945F1863E0CE010E94311862E0CE01F8
:1001E0000E94471865E0CE010E943C181C8A1D8AB7
:1001F0001E8A1F8A188A198A1A8A1B8ADF91CF9150
:100200001F910F910895CF92DF92EF92FF92CF93BB
:10021000DF93EC019C01225F3F4FAC01445F5F4FD5
:10022000BC01665F7F4F0E9471186A857B858827B5
:1002300077FD8095982F0E94BC3326EF38E24CE979
:100240005FE30E94313527ED33EA40E75FE30E9428
:10025000313520E030E048EB50E40E9454326B012D
:100260007C016C857D85882777FD8095982F0E947D
:10027000BC3326EF38E24CE95FE30E9431352BE7CF
:1002800034E14EE65FE30E94313528EB3EE146E083
:1002900052E40E945432A70196010E94C7326B01BA
:1002A0007C0125E33AEF4EE85CE3688D798D8A8D19
:1002B0009B8D0E9431359B01AC01C701B6010E94A4
:1002C00054326B017C0120E030E0A9010E941A3316
:1002D00087FF0AC02BED3FE049EC50E4C701B601AF
:1002E0000E9454326B017C0120EE3EE245E652E46E
:1002F000C701B6010E9431352885398521153105A0
:1003000039F0AB01BC01C9010E940F0B9B0101C078
:100310009B01A901BC01488B598B6A8B7B8BDF91B8
:10032000CF91FF90EF90DF90CF900895FC01408F28
:10033000518F628F738F0895FC0160897189828962
:1003400093890895FC016489758986899789089540
:10035000CF92DF92EF92FF92FC012089318942898E
:10036000538964897589868997890E9453326B0104
:100370007C0120E030E044E353EC0E941A3387FF15
:1003800009C020E030E044EB53E4C701B6010E940D
:10039000543212C020E030E044E353E4C701B60118
:1003A0000E942635181654F420E030E044EB53E464
:1003B000C701B6010E9453326B017C01C701B6012F
:1003C000FF90EF90DF90CF90089526E531E0FC019B
:1003D00031832083089526E531E0FC0131832083B9
:1003E000089526E531E0FC01318320830C94B52F7C
:1003F00026E531E0FC01318320830C94B52FCF93A7
:10040000DF93EC016DE071E08FE893E00E94FD273F
:100410008A819B810E949C01AB01BC0122E030E0FB
:100420008FE893E00E94F92968E171E08FE893E09A
:100430000E94FD278A819B810E94A201AB01BC0121
:1004400022E030E08FE893E00E94F9296BE271E04E
:100450008FE893E00E94FD278A819B810E94A8017A
:10046000AB01BC0122E030E08FE893E0DF91CF9157
:100470000C94FB29CF92DF92EF92FF920F931F9380
:10048000CF93DF936C01EB0120E431E040E050E0DA
:1004900060E070E0CE010E948609F60182819381BE
:1004A0000E94A8018B019C0184E0E82EF12C40E021
:1004B00050E068E070E0CE010E949E0929E431E03E
:1004C00041E050E060E070E0CE010E948609F60154
:1004D000828193810E949C018B019C0141E050E04C
:1004E00068E070E0CE010E949E09DF91CF911F91DC
:1004F0000F91FF90EF90DF90CF90089522E631E0CA
:10050000FC01318320837383628308950F931F93CB
:10051000CF93DF93EC018B0102960E94270719838A
:100520000883DF91CF911F910F910895EF92FF9271
:100530000F931F93CF93DF93CDB7DEB728970FB6F6
:10054000F894DEBF0FBECDBF7C0109831A832B83D5
:100550003C834D835E836F837887FC010281138126
:10056000248135814681578160857185CE01019650
:100570000E94930798E0FE013196D70112960190F0
:100580000D929A95E1F791E0892728960FB6F89495
:10059000DEBF0FBECDBFDF91CF911F910F91FF90B6
:1005A000EF9008958F929F92AF92BF92CF92DF9279
:1005B000EF92FF920F931F93CF93DF93CDB7DEB7E8
:1005C00060970FB6F894DEBF0FBECDBF09831A83C4
:1005D0002B833C834D835E836F83788784019501F1
:1005E000A601B701CE0101960E94D7072F8D38A131
:1005F00049A15AA10E9453326B017C0120E030E0F6
:1006000044E353EC0E941A3387FF09C020E030E036
:1006100044EB53E4C701B6010E94543212C020E0FB
:1006200030E044E353E4C701B6010E9426351816B2
:1006300054F420E030E044EB53E4C701B6010E94DB
:1006400053326B017C01C701B60160960FB6F89476
:10065000DEBF0FBECDBFDF91CF911F910F91FF90F5
:10066000EF90DF90CF90BF90AF909F908F900895C4
:10067000CF93DF93EC01888199810E94DC0E888101
:1006800099810E94301B88819981DF91CF910C94D0
:10069000E20ECF92DF92EF92FF92CF93DF93EC01C5
:1006A0006A017B0120E030E0A901C701B6010E9488
:1006B00026350E84DF85C02D181694F4A701960107
:1006C00060E070E08FE793E40E9453320E94893328
:1006D000AB016C177D070CF4AE012FEF30E011C0B9
:1006E00020E030E04FE753E4C701B6010E945432E6
:1006F0000E9489339B016C177D070CF49E014FEF1C
:1007000050E0BA01C901DF91CF91FF90EF90DF90E7
:10071000CF9008956F927F928F929F92AF92BF92E7
:10072000CF92DF92EF92FF920F931F93CF93DF93BD
:10073000CDB7DEB760970FB6F894DEBF0FBECDBF62
:100740003C0109831A832B833C834D835E836F8333
:10075000788789869A86AB86BC86CD86DE86EF86CC
:10076000F88AF9A0EAA0DBA0CCA0CE0101960E94F5
:100770004F07811104C060E070E0CB0138C00981EF
:100780001A812B813C814D815E816F817885C30107
:100790000E9496028823F1F0CF92DF92EF92FF92AF
:1007A00089849A84AB84BC84CD84DE84EF84F88809
:1007B00009811A812B813C814D815E816F81788511
:1007C000C3010E94D202AB01BC010F900F900F90A9
:1007D0000F9005C0F3014285538564857585C3017B
:1007E0000E943803AB01BC01C3010E94490360961B
:1007F0000FB6F894DEBF0FBECDBFDF91CF911F9132
:100800000F91FF90EF90DF90CF90BF90AF909F90AF
:100810008F907F906F9008950F931F93CF93DF93E6
:10082000EC010E94E81E8E010D581F4F20E04BE0A6
:100830006AE0C8010E94152CCE018E569F4F0E947F
:100840002707CE0186569F4F0E94270740E855E2B2
:1008500060E070E0C8010E94452CCA55DF4F40910E
:10086000F1025091F2026091F3027091F402488318
:1008700059836A837B83DF91CF911F910F910895F4
:10088000CF93DF93CDB7DEB728970FB6F894DEBFCE
:100890000FBECDBFFC01EE56FF4F88E0DE01119682
:1008A00001900D928A95E1F729813A814B815C8113
:1008B0006D817E818F81988528960FB6F894DEBF72
:1008C0000FBECDBFDF91CF9108950F931F93CF93AC
:1008D000DF93CDB7DEB728970FB6F894DEBF0FBE13
:1008E000CDBF09831A832B833C834D835E836F8343
:1008F0007887DC01A656BF4F88E0FE013196019053
:100900000D928A95E1F728960FB6F894DEBF0FBED8
:10091000CDBFDF91CF911F910F910895CF93DF93BA
:10092000CDB7DEB728970FB6F894DEBF0FBECDBFA8
:10093000FC01E656FF4F88E0DE01119601900D9212
:100940008A95E1F729813A814B815C816D817E81B5
:100950008F81988528960FB6F894DEBF0FBECDBF65
:10096000DF91CF9108958E559F4FFC016081718179
:100970008281938108950F931F93CF93DF93CDB717
:10098000DEB7A8970FB6F894DEBF0FBECDBFFC014F
:10099000E656FF4F28E0DE01519601900D922A9510
:1009A000E1F728E0FE017196DE01599601900D9263
:1009B0002A95E1F7FC01EE56FF4F88E0DE01119623
:1009C00001900D928A95E1F788E0FE013196DE01F3
:1009D000199601900D928A95E1F788E0FE0139960B
:1009E000DE01919601900D928A95E1F7098D1A8D9D
:1009F0002B8D3C8D4D8D5E8D6F8D78A1CE018196B6
:100A00000E94AA08A8960FB6F894DEBF0FBECDBF0D
:100A1000DF91CF911F910F910895EF92FF920F9365
:100A20001F93CF93DF93CDB7DEB760970FB6F894DF
:100A3000DEBF0FBECDBF7C018C010D581F4FC8011A
:100A40000E94E32A892BC1F1C8010E94562A682F0F
:100A5000C7010E94EF21C8010E94E32A892BA1F758
:100A600097012E553F4FAE01475F5F4FBE01635F59
:100A70007F4FC7010E94C52209851A852B853C85B9
:100A80004D855E856F857889CE0101960E94350778
:100A9000D701AE56BF4F88E0FE01319601900D920E
:100AA0008A95E1F7C7010E943223F701EA55FF4F0B
:100AB000608371838283938360960FB6F894DEBF60
:100AC0000FBECDBFDF91CF911F910F91FF90EF909F
:100AD000089526E531E0FC0131832083089526E561
:100AE00031E0FC01318320830C94B52F0F931F93C9
:100AF000CF93DF93CDB7DEB728970FB6F894DEBF5C
:100B00000FBECDBF8C01FC01828193810E94400405
:100B100029833A834B835C836D837E838F8398879D
:100B2000CE0101960E944F07882309F452C06AE65D
:100B300071E08FE893E00E94FD27F80182819381A4
:100B40000E94400429833A834B835C836D837E83B8
:100B50008F839887CE0101960E944307AB01BC01A9
:100B60002FE030E08FE893E00E94F92961E771E01F
:100B70008FE893E00E94FD27F801828193810E9413
:100B8000400429833A834B835C836D837E838F8308
:100B90009887CE0101960E944907AB01BC012FE066
:100BA00030E08FE893E00E94F9296BE771E08FE86D
:100BB00093E00E94FD27F801828193810E94B30493
:100BC000AB01BC012AE030E08FE893E00E94FC28F2
:100BD00006C065E871E08FE893E00E941A28289625
:100BE0000FB6F894DEBF0FBECDBFDF91CF911F913E
:100BF0000F910895AF92BF92CF92DF92EF92FF9242
:100C00000F931F93CF93DF93CDB7DEB760970FB6E7
:100C1000F894DEBF0FBECDBF5C016B01FC01828189
:100C200093810E94400429833A834B835C836D83C4
:100C30007E838F839887CE0101960E944F07882379
:100C400009F4DAC0F501828193810E948E04298320
:100C50003A834B835C836D837E838F839887CE0139
:100C600001960E944F072BE931E040E050E060E040
:100C700070E0882309F47CC0C6010E948609F50152
:100C8000828193810E94400429833A834B835C8351
:100C90006D837E838F839887CE0101960E944307E0
:100CA0008B019C0193E0E92EF12C40E050E064E0E0
:100CB00070E0C6010E949E0920EA31E040E050E069
:100CC00068E070E0C6010E948609F5018281938187
:100CD0000E94400429833A834B835C836D837E8327
:100CE0008F839887CE0101960E9449078B019C0152
:100CF00040E050E06BE070E0C6010E949E0925EAEA
:100D000031E041E050E060E070E0C6010E948609F9
:100D1000F501828193810E948E0429873A874B874F
:100D20005C876D877E878F87988BF50182819381A1
:100D30000E94400429833A834B835C836D837E83C6
:100D40008F83988709851A852B853C854D855E851F
:100D50006F857889CE0101960E94AA088B019C01BB
:100D60004FE0E42EF12C41E050E063E070E040C041
:100D7000C6010E948609F501828193810E94400488
:100D800029833A834B835C836D837E838F8398872B
:100D9000CE0101960E9443078B019C018FE0E82E53
:100DA000F12C40E050E064E070E0C6010E949E0932
:100DB00020EA31E041E050E060E070E0C6010E94CE
:100DC0008609F501828193810E94400429833A8338
:100DD0004B835C836D837E838F839887CE010196DE
:100DE0000E9449078B019C0141E050E064E070E003
:100DF000C6010E949E0912C028EA31E040E050E09E
:100E000060E070E0C6010E9486092FE831E041E011
:100E100050E060E070E0C6010E94860960960FB65F
:100E2000F894DEBF0FBECDBFDF91CF911F910F9120
:100E3000FF90EF90DF90CF90BF90AF90089525EB9B
:100E400031E0FC013183208373836283089540E0A5
:100E500050EC69E774E4FC0140835183628373833F
:100E6000448355836683778308950F931F93FC0112
:100E7000408351836283738304831583268337837E
:100E80001F910F910895FC0160817181828193818E
:100E90000895FC0164817581868197810895CF92C0
:100EA000DF92EF92FF92CF93DF93EC01C880D9805D
:100EB000EA80FB8020E030E044EB52ECC701B60151
:100EC0000E941A3387FD27C020E030E044EB52E453
:100ED000C701B6010E9426351816ECF0CC80DD80E3
:100EE000EE80FF8020E030E044E353ECC701B60120
:100EF0000E941A3387FD0FC0C1E020E030E044E3D8
:100F000053E4C701B6010E94263518160CF0C0E064
:100F100081E08C2701C080E0DF91CF91FF90EF90BE
:100F2000DF90CF900895CF92DF92EF92FF920F93D0
:100F30001F93CF93DF93CDB7DEB728970FB6F89402
:100F4000DEBF0FBECDBF09831A832B833C834D8345
:100F50005E836F837887FC01C080D180E280F3805C
:100F600029813A814B815C81C701B6010E941A3305
:100F700081110DC011E02D813E814F815885C7013F
:100F8000B6010E941A33811110E0812F01C080E068
:100F900028960FB6F894DEBF0FBECDBFDF91CF917C
:100FA0001F910F91FF90EF90DF90CF9008954F9297
:100FB0005F926F927F928F929F92AF92BF92CF92E9
:100FC000DF92EF92FF920F931F93CF93DF93CDB7F2
:100FD000DEB76C970FB6F894DEBF0FBECDBF5C01D5
:100FE00009831A832B833C834D835E836F837887C9
:100FF00025E33AEF4EE85CE3FC0160817181828178
:1010000093810E9431356B017C0125E33AEF4EE874
:101010005CE369817A818B819C810E9431352B014F
:101020003C01F50124813581468157816D817E81A6
:101030008F8198850E94533225E33AEF4EE85CE3B6
:101040000E9431354B015C010E9494356D877E878B
:101050008F87988BC301B2010E941E3369877A87FC
:101060008B879C87C701B6010E941E33698B7A8BE0
:101070008B8B9C8BC301B2010E9494359B01AC0108
:10108000C701B601298F3A8F4B8F5C8F0E94943530
:101090006B017C01C501B4010E941E336D8B7E8BF8
:1010A0008F8B988F298D3A8D4B8D5C8D69897A89CC
:1010B0008B899C890E9431354B015C0129853A85D9
:1010C0004B855C85C701B6010E9431352D893E896B
:1010D0004F89588D0E9431359B01AC01C501B40187
:1010E0000E9453326B017C0129853A854B855C85D2
:1010F0006D857E858F8598890E943135A70196017F
:101100000E94C73220EE3EE245E652E40E943135AD
:1011100020E030E044EB53E40E94543220E030E021
:1011200044EB53E46C960FB6F894DEBF0FBECDBF10
:10113000DF91CF911F910F91FF90EF90DF90CF90B3
:10114000BF90AF909F908F907F906F905F904F90E7
:101150000C94FE332F923F924F925F926F927F9248
:101160008F929F92AF92BF92CF92DF92EF92FF92B7
:101170000F931F93CF93DF93CDB7DEB760970FB672
:10118000F894DEBF0FBECDBF1C0109831A832B83E9
:101190003C834D835E836F837887C980DA80EB80E0
:1011A000FC80FC014080518062807380A301920129
:1011B000C701B6010E94533225E33AEF4EE85CE3E3
:1011C0000E94313520E030E040E05FE30E9431359D
:1011D0000E9494354B015C0125E33AEF4EE85CE355
:1011E000C301B2010E9431350E941E332B013C0124
:1011F00025E33AEF4EE85CE3C701B6010E943135C2
:101200000E941E3369877A878B879C87F10124812E
:101210003581468157816D817E818F8198850E94BD
:10122000533225E33AEF4EE85CE30E94313520E08B
:1012300030E040E05FE30E9431350E9494356B015D
:101240007C01A5019401C501B4010E9431354B0117
:101250005C0129853A854B855C85C301B2010E94FA
:1012600031352B013C01A7019601C701B6010E944F
:1012700031359B01AC01C301B2010E9431359B01A4
:10128000AC01C501B4010E9454326B017C019B0189
:10129000AC0160E070E080E89FE30E9453320E945E
:1012A0009E359B01AC01C701B6012D873E874F8754
:1012B000588B0E949E352D853E854F8558890E940A
:1012C000C7329B01AC010E94543220E73DE642EC5C
:1012D0005AE40E94313560960FB6F894DEBF0FBE17
:1012E000CDBFDF91CF911F910F91FF90EF90DF90D5
:1012F000CF90BF90AF909F908F907F906F905F90B6
:101300004F903F902F9008950C94C7230F931F93F5
:10131000CF93DF93EC0189014230510550F40E94D4
:10132000D523B801CE01DF91CF911F910F910C947D
:10133000FD27DF91CF911F910F9108958F929F927A
:10134000AF92BF92EF92FF920F931F93CF93DF93D1
:10135000EC01480159014230510590F40E94D52317
:101360009701B501A401CE01DF91CF911F910F919B
:10137000FF90EF90BF90AF909F908F900C94F929C1
:10138000DF91CF911F910F91FF90EF90BF90AF90A1
:101390009F908F9008958F92AF92CF92EF920F937C
:1013A000CF93DF93EC0187E0882E96E0A92E25E00D
:1013B000C22E34E0E32E00E021E042E067E2CE01FD
:1013C0000E941B2520E042E064E1CE010E949C25A2
:1013D00040E050E063E0CE010E948D2461E0CE0148
:1013E0000E94A124CE01DF91CF910F91EF90CF9079
:1013F000AF908F900C94CE23CF92DF92EF92FF921A
:101400000F931F93CF93DF93EC017B018A01198225
:10141000188288E090E09B838A831D821C8280E191
:1014200090E00E94B32F6C018883D982FA86E98606
:101430000C171D0709F482C0D80114968D919C9158
:1014400015974A815B814817590720F59B838A834A
:10145000880F991F0E94B32F998388834C815D81E7
:10146000F60120E030E02417350789F0A881B98122
:10147000B901660F771FA60FB71F109721F0608183
:1014800071816D937C932F5F3F4F3296ECCFC601F5
:101490000E94B52F8C819D81F80144815581BA014C
:1014A0008417950708F4BC0120E030E026173707C1
:1014B00099F06901CC0CDD1CD801ED91FC91EC0D8B
:1014C000FD1DE080F180E881F981EC0DFD1DF182C8
:1014D000E0822F5F3F4FEACF8417950758F0F8015D
:1014E000848195812C813D818217930738F59D83F6
:1014F0008C8324C09C01220F331FD80114964D9178
:101500005C9115978417950750F7F801A081B18178
:10151000A20FB31FE881F981E20FF31F309721F08A
:101520004D915C91518340834C815D814F5F5F4F52
:101530005D834C8301962E5F3F4FDFCF18861F825D
:10154000DF91CF911F910F91FF90EF90DF90CF909F
:1015500008950F931F93CF93DF93EC0189859A85AC
:10156000009711F10E9484090F8118858C819D815B
:101570000817190720F08DEB91E00E94B725000FA6
:10158000111FE881F981E00FF11F80819181DC0159
:10159000ED91FC9169857A850680F781E02DDF91D8
:1015A000CF911F910F910994DF91CF911F910F91CE
:1015B0000895FC01878190850196648175810E9460
:1015C000C2319087878308950F931F93CF93DF9342
:1015D0008C016FEC71E08FE893E00E941A28C0E064
:1015E000D0E0F80184819581C817D90798F4CE011D
:1015F000880F991FD801ED91FC91E80FF91F8081A8
:101600009181DC01ED91FC910480F581E02D09953B
:101610002196E7CFDF91CF911F910F9108958F927F
:101620009F92AF92BF92CF92DF92EF92FF92CF93B1
:10163000DF93EC01CB01BA01688B798B8A8B9B8B92
:10164000C880D980EA80FB80A70196010E943135CD
:101650004B015C01A701960160E070E080E89FE328
:101660000E9453322C853D854E855F850E94313521
:101670009B01AC01C501B4010E9454326C877D8787
:101680008E879F87DF91CF91FF90EF90DF90CF9073
:10169000BF90AF909F908F9008952F923F924F925E
:1016A0005F926F927F928F929F92AF92BF92CF92F2
:1016B000DF92EF92FF920F931F93CF93DF93CDB7FB
:1016C000DEB73C01862F2D883E884F88588CF30169
:1016D000158A148A178A168A84869586A686B786FE
:1016E000208A318A428A538A60837183538342837A
:1016F0003583248317830683F186E086D386C286EA
:1017000061E00E94423161E0F30182810E94423136
:1017100061E0F30184810E94423161E0F30186813E
:101720000E94423161E0F30180850E94423161E014
:10173000F3018285DF91CF911F910F91FF90EF9080
:10174000DF90CF90BF90AF909F908F907F906F90E1
:101750005F904F903F902F900C944231CF93DF9346
:10176000EC01CB016F3F710519F014F08FEF90E0A1
:101770009D8B8C8BCA014F3F510519F014F08FEFF0
:1017800090E09F8B8E8B61E0181619060CF060E0DC
:1017900088850E947B3161E08E899F891816190621
:1017A0000CF460E08A850E947B3161E08C899D8920
:1017B000181619060CF060E08A810E947B3161E006
:1017C0008C899D89181619060CF460E08C810E94A2
:1017D0007B316C897D89882777FD8095982F0E94C1
:1017E000BC332C853D854E855F850E9431350E9436
:1017F000893388810E94BA306E897F89882777FD76
:101800008095982F0E94BC33288939894A895B8941
:101810000E9431350E9489338E81DF91CF910C94E3
:10182000BA30AF92BF92CF92DF92EF92FF920F93B6
:101830001F93CF93DF931F92CDB7DEB75C018B016F
:1018400077FF02C000E010E060E0F501828149838B
:101850000E947B3161E0F50184810E947B3161E06F
:10186000F50180850E947B3160E0F50182850E9450
:101870007B314981442391F06FEF70E0F501808165
:101880000E94BA306FEF70E0F50186810E94BA3095
:1018900064E670E080E090E00E943030B801882774
:1018A00077FD8095982F0E94BC336B017C01F50178
:1018B00024853585468557850E9431350E948933B8
:1018C000F50180810E94BA30F50120893189428971
:1018D0005389C701B6010E9431350E948933F50151
:1018E00086810E94BA3088279927801B910BF501C9
:1018F000958B848B178B068B0F90DF91CF911F9167
:101900000F91FF90EF90DF90CF90BF90AF90089530
:10191000CF93DF93EC0160E08A810E947B3160E02D
:101920008C810E947B3160E088850E947B3160E081
:101930008A850E947B3161E088810E947B3161E071
:101940008E810E947B311D8A1C8A1F8A1E8ADF912C
:10195000CF910895FC01848995890895FC018689B9
:101960009789089526E531E0FC01318320830895AD
:1019700026E531E0FC01318320830C94B52FCF9311
:10198000DF93EC016CE172E08FE893E00E94FD27A9
:101990008A819B810E94AA0C4AE050E0BC018FE83A
:1019A00093E00E94CF2862E272E08FE893E00E9409
:1019B000FD278A819B810E94AE0C4AE050E0BC0169
:1019C0008FE893E0DF91CF910C94D728CF92DF92EC
:1019D000EF92FF920F931F93CF93DF936C01EB0174
:1019E0002BE232E040E050E060E070E0CE010E9487
:1019F0008609F601828193810E94AA0CBC01882786
:101A000077FD8095982F0E94BC338B019C01EE24BA
:101A1000E394F12C40E050E066E070E0CE010E94DB
:101A20009E0922E332E041E050E060E070E0CE0148
:101A30000E948609F601828193810E94AE0CBC014E
:101A4000882777FD8095982F0E94BC338B019C01DD
:101A500041E050E066E070E0CE010E949E09DF9117
:101A6000CF911F910F91FF90EF90DF90CF9008954D
:101A70002EE332E0FC013183208373836283089577
:101A8000FC0140E050EC69E774E4408351836283D9
:101A90007383448355836683778340875187628746
:101AA00073874487558766877787408B518B628B16
:101AB000738B148A158A168A178A108E118E128ECD
:101AC000138E08958F929F92AF92BF92CF92DF9222
:101AD000EF92FF920F931F93CF93DF93CDB7DEB7B3
:101AE000FC014083518362837383048315832683BF
:101AF0003783C086D186E286F38684869586A6865D
:101B0000B7864F85588969897A89408B518B628B5A
:101B1000738B4B895C896D897E89448B558B668B71
:101B2000778B4F89588D698D7A8D408F518F628F59
:101B3000738FDF91CF911F910F91FF90EF90DF9006
:101B4000CF90BF90AF909F908F900895CF92DF92EB
:101B5000EF92FF92CF93DF93EC01CC88DD88EE8883
:101B6000FF88A7019601688179818A819B810E9403
:101B70001A3387FD2AC0A7019601688579858A8571
:101B80009B850E941A3387FD20C0A70196016C81B6
:101B90007D818E819F810E941A3387FD16C0A70127
:101BA0009601688979898A899B890E941A3387FD01
:101BB0000CC0A70196016C857D858E859F850E944E
:101BC0001A33881F8827881F01C081E0DF91CF91D9
:101BD000FF90EF90DF90CF900895CF92DF92EF9239
:101BE000FF921F93CF93DF93EC01C88CD98CEA8CC2
:101BF000FB8CA7019601688179818A819B810E9473
:101C00002635181664F5A70196016C817D818E81B9
:101C10009F810E942635181614F5A7019601688544
:101C200079858A859B850E9426351816C4F4A701FC
:101C300096016C857D858E859F850E9426351816B8
:101C400074F411E0A7019601688979898A899B89D2
:101C50000E94263518160CF010E0812F01C080E09C
:101C6000DF91CF911F91FF90EF90DF90CF9008957B
:101C7000FC0160817181828193810895FC016085FE
:101C80007185828593850895FC01648175818681C3
:101C900097810895FC0160897189828993890895EB
:101CA000FC0164857585868597850895CF93DF93BC
:101CB000EC01288539854A855B85688979898A8917
:101CC0009B890E941A3387FF02C0609601C0289644
:101CD000688179818A819B81DF91CF910895CF932B
:101CE000DF93EC012C813D814E815F816C857D8588
:101CF0008E859F850E941A3387FF02C02C9601C0F3
:101D00002496688179818A819B81DF91CF910895A2
:101D10006F927F928F929F92AF92BF92CF92DF92FB
:101D2000EF92FF920F931F93CF93DF93EC013C014F
:101D300081E4680E711C4E01EDE38E0E911CCE0104
:101D4000C9961F921F92FF92EF92DF92CF92580195
:101D500069017A018B019301A401BC01CE010E94AB
:101D6000691EF301108211821282138219AE1AAE1B
:101D70001BAE1CAEF40110821182128213820F90EE
:101D80000F900F900F900F900F90DF91CF911F91B8
:101D90000F91FF90EF90DF90CF90BF90AF909F900A
:101DA0008F907F906F9008958F5B9F4FFC014083D1
:101DB0005183628373830895FC0141AF52AF63AFD7
:101DC00074AF0895CD96FC01608171818281938109
:101DD000089526E531E0FC0131832083089526E54E
:101DE00031E0FC01318320830C94B52FCF93DF9336
:101DF000EC0166E472E08FE893E00E94FD278A819F
:101E00009B810E94D61EAB01BC0122E030E08FE82E
:101E100093E00E94F9296CE472E08FE893E00E945D
:101E2000FD278A819B810E94DC1EAB01BC0122E060
:101E300030E08FE893E00E94F92964E572E08FE8D2
:101E400093E00E94FD278A819B810E94E21EAB01E4
:101E5000BC0122E030E08FE893E00E94F9296CE5B4
:101E600072E08FE893E00E94FD278A819B810E94A7
:101E7000E20EAB01BC0122E030E08FE893E0DF919D
:101E8000CF910C94FB29CF92DF92EF92FF920F93A8
:101E90001F93CF93DF936C01EB0129E632E040E022
:101EA00050E060E070E0CE010E948609F601828178
:101EB00093810E94D61E8B019C0182E0E82EF12CBA
:101EC00040E050E063E070E0CE010E949E092DE604
:101ED00032E040E050E069E070E0CE010E94860907
:101EE000F601828193810E94DC1E8B019C0140E0FF
:101EF00050E06CE070E0CE010E949E0921E732E0E4
:101F000041E050E060E070E0CE010E948609F601F9
:101F1000828193810E94E21E8B019C0141E050E08E
:101F200063E070E0CE010E949E0925E732E041E0C7
:101F300050E069E070E0CE010E948609F6018281DE
:101F400093810E94E20E8B019C0141E050E06BE026
:101F500070E0CE010E949E09DF91CF911F910F91F9
:101F6000FF90EF90DF90CF9008952CE732E0FC01D6
:101F7000318320837383628308950F93FC017183FF
:101F8000608342832383048315821682178210861E
:101F900044EC59E060E070E04187528763877487C2
:101FA000158616861786108A44E650E060E070E0D9
:101FB000418B528B638B748B158A168A178A108E0D
:101FC00044EF51E060E070E0418F528F638F748F77
:101FD0000F9108952F923F924F925F926F927F924E
:101FE0008F929F92AF92BF92CF92DF92EF92FF9229
:101FF0000F931F93CF93DF9300D000D000D0CDB7C5
:10200000DEB79E838D83FC0182810E949D308C010E
:10201000ED81FE8183810E949D304C01ED81FE8126
:1020200084810E949D301C01ED81FE81A580B680D7
:10203000C780D084B801882777FD8095982F2485A4
:102040002F9323852F9322852F9321852F93EE2481
:10205000EA9413E0F12E00E010E020E030E0A90166
:102060000E940D2A2B013C01ED81FE81A584B684DE
:10207000C784D088B401882777FD8095982F24895C
:102080002F9323892F9322892F9321892F9320E047
:1020900030E0A9010E940D2A69837A838B839C8397
:1020A000ED81FE81A588B688C788D08CB1018827CC
:1020B00077FD8095982F248D2F93238D2F93228D3C
:1020C0002F93218D2F9320E030E0A9010E940D2A4B
:1020D0000E94BC3320E030E048EC52E40E942133FF
:1020E0006B017C0169817A818B819C810E94BC3368
:1020F00020E030E048EC52E40E9421334B015C01C7
:10210000C301B2010E94BC3320E030E048EC52E44D
:102110000E942133AB01BC0195018401ED81FE8158
:10212000808191810E94501C0FB6F894DEBF0FBED3
:10213000CDBF26960FB6F894DEBF0FBECDBFDF91A0
:10214000CF911F910F91FF90EF90DF90CF90BF90B4
:10215000AF909F908F907F906F905F904F903F9047
:102160002F900895FC0183A194A10C94D90ACF93D8
:10217000DF93EC018D859E850E94EA0F8BA19CA1C7
:102180000E94E40A8BA19CA1DF91CF910C94A90A33
:10219000CF93DF93EC018F89988D0E94DF148B8998
:1021A0009C89DF91CF910C940301FC01858196817C
:1021B0000E94BB0420E030E040E85FE30E941A3355
:1021C000881F8827881F0895CF93DF93EC0181E053
:1021D000888340E06FEF70E08F8198850E94110C3A
:1021E00060EA7FE080E090E00E9430308F81988547
:1021F000DF91CF910C94880C6F927F928F929F9277
:10220000AF92BF92CF92DF92EF92FF920F931F9304
:10221000CF93DF93CDB7DEB7A4970FB6F894DEBFA8
:102220000FBECDBF3C010E94C810F301858196818D
:102230000E9440042D8F3E8F4F8F58A369A37AA32D
:102240008BA39CA3CE014D960E944F07882329F0B3
:10225000C3010E94D510811174C0F3016789708D8C
:10226000CE0101960E94B515F30185A196A10197B3
:1022700061F0CE0101960E94A60D882379F081E0DD
:1022800090E0F30196A385A309C0CE0101960E94B8
:10229000ED0D882319F0F30116A215A2F30185A113
:1022A00096A1009711F1019709F043C0838D948D99
:1022B0002DB73EB72C5131090FB6F8943EBF0FBE73
:1022C0002DBFADB7BEB711962CE1FE01319601903E
:1022D0000D922A95E1F70E94E2176B017C010FB67F
:1022E000F894DEBF0FBECDBF24C0F301838994896B
:1022F0000E949C019F938F937F936F93F30187A01C
:1023000090A4A1A4B2A4C3A4D4A4E5A4F6A40D8D62
:102310001E8D2F8D38A149A15AA16BA17CA1818965
:1023200092890E948A036B017C010F900F900F909D
:102330000F90A701B601F301878190850E94AE0B33
:1023400003C0C3010E94E410A4960FB6F894DEBF48
:102350000FBECDBFDF91CF911F910F91FF90EF90F6
:10236000DF90CF90BF90AF909F908F907F906F90B5
:102370000895CF92DF92EF92FF92CF93DF93EC011B
:102380008881811168C00E940130CBA8DCA8EDA82B
:10239000FEA89B01AC012C193D094E095F0969019A
:1023A0007A0132E3C316D104E104F10438F06BABD7
:1023B0007CAB8DAB9EABCE010E94FC100E94013025
:1023C0006B017C018BA99CA9ADA9BEA9A7019601AF
:1023D000281B390B4A0B5B0B253131054105510593
:1023E000D0F58D819E810E940D058FA598A9A9A980
:1023F000BAA9A7019601281B390B4A0B5B0BDA011E
:10240000C901883E9340A105B10538F0CFA6D8AAEE
:10241000E9AAFAAACE010E94B7108FA998ADA9AD7A
:10242000BAADA7019601281B390B4A0B5B0BDA01E9
:10243000C90188389341A105B10568F0CFAAD8AE8B
:10244000E9AEFAAECE01DF91CF91FF90EF90DF9031
:10245000CF900C94B210DF91CF91FF90EF90DF906E
:10246000CF900895CF92DF92EF92FF920F931F9338
:10247000CF93DF93EC017B018C819D818C010F5FF9
:102480001F4F8017910708F046C04A815B814017B3
:10249000510750F509964817590730F5C880D9807B
:1024A0009B838A83880F991F0E94B32F9983888307
:1024B0004C815D81F60120E030E02417350789F07A
:1024C000A881B981B901660F771FA60FB71F1097B2
:1024D00021F0608171816D937C932F5F3F4F329625
:1024E000ECCFC6010E94B52F8C819D819C01220FEB
:1024F000331F8017910790F4E881F981E20FF31FF1
:10250000309729F0D7014D915C915183408301961A
:102510002E5F3F4FEECF0817190710F41D830C8371
:10252000DF91CF911F910F91FF90EF90DF90CF90AF
:1025300008954F925F926F927F928F929F92AF9287
:10254000BF92CF92DF92EF92FF920F931F93CF93A0
:10255000DF93CDB7DEB72F970FB6F894DEBF0FBE6F
:10256000CDBF3C0126E040E855E260E070E08FE836
:1025700093E00E94B82664E872E08FE893E00E943E
:102580001A2864E670E080E090E00E9430308CE130
:1025900090E00E94B32F4C0160E070E00E94DD00EB
:1025A000F301948A838A4DED5DED65E870E4C40122
:1025B0000E9496018FE290E00E94B32F4C010E948E
:1025C0002516F301908E878A03ED1BE425E931E49B
:1025D00046EC5FEC65E372E4CE0101960E9435079C
:1025E00088E0FE013196D301979601900D928A956D
:1025F000E1F78AEA90E00E94B32F4C010E940C049C
:10260000F3019682858207A110A521A532A543A5D5
:1026100054A565A576A5C4010E94650488E190E0F3
:102620000E94B32F2C018FE38F9380E88F931F922A
:102630001F92812C912CE0E8AE2EEFE3BE2EF7E046
:10264000CF2ED12CA5E0EA2EF12C06E010E024E0FC
:1026500030E042E050E063E070E0C2010E944D0BC8
:10266000F3015086478285E490E00E94B32F4C012D
:10267000A12CB12CBFE8CB2EB2ECDB2EB5EFEB2EAC
:10268000BDE3FB2E0AE017ED23E23CE340E050E01F
:1026900060E771E40E94880EF3019486838661E00E
:1026A00070E0C4010E94171E00E010E02FE733E441
:1026B00040E050E06FE773ECF301838594850E945E
:1026C000511D62E370E0F301838594850E94031D30
:1026D00080E190E00E94B32F4C01F3016385748583
:1026E0000E948602F301928A818A8AE090E0F401D6
:1026F0009787868785E490E00E94B32F4C010AE01B
:1027000017ED23E23CE340E050E060E771E40E9413
:10271000880EF301968E858E61E070E0C4010E9400
:10272000171E00E010E02FE733E440E050E06FE7D1
:1027300073ECF301858D968D0E94511D62E370E06C
:10274000F301858D968D0E94031D40E050E060EFFF
:1027500071E4F301858D968D0E94D40E82E090E0A5
:102760000E94B32F4C01F301658D768D0E94DE1718
:10277000F301948E838E8DE190E00E94B32F4C0183
:10278000F301658D768D0FE024E145E10E94BD0FD8
:10279000F30190A2878E89E190E00E94B32F4C0153
:1027A0000E94CB09F301928281821A86198688E001
:1027B00090E09C878B871E861D8680E190E00E94BA
:1027C000B32F9A8789870F900F900F900F90F30186
:1027D0008789908D892BB1F084E090E00E94B32F1F
:1027E0004C01F3016789708D0E949217F301928E5C
:1027F000818E9A828982BE016F5F7F4FCE010996DA
:102800000E943212F30185819681892BB1F084E018
:1028100090E00E94B32F4C01F301658176810E9404
:102820001F07F301948283829A828982BE016F5FBF
:102830007F4FCE0109960E943212F3018389948959
:10284000892BB1F084E090E00E94B32F4C01F3019A
:10285000638974890E947E02F301968A858A9A822E
:102860008982BE016F5F7F4FCE0109960E943212AE
:10287000F30183859485892BB1F084E090E00E9478
:10288000B32F4C01F301638574850E94B50FF301EA
:10289000908A87869A828982BE016F5F7F4FCE01C0
:1028A00009960E943212F301858D968D892BB1F025
:1028B00084E090E00E94B32F4C01F301658D768D8A
:1028C0000E94B50FF30192A281A29A828982BE0171
:1028D0006F5F7F4FCE0109960E943212F30187810C
:1028E0009085892BB1F084E090E00E94B32F4C01D9
:1028F000F301678170850E94380DF301928681860D
:102900009A828982BE016F5F7F4FCE0109960E9435
:1029100032128D859E859E838D8308969C838B8342
:10292000880F991F0E94B32F9A8389834D815E81FE
:1029300080E090E08417950799F0A985BA859C01FD
:10294000220F331FA20FB31FE981FA81E20FF31F99
:10295000309721F02D913C91318320830196EACF6D
:102960008BE090E00E94B32F4C01F30161817281F2
:10297000AE014F5F5F4F0E94FC09F30194A283A256
:1029800089819A810E94B52F89859A850E94B52FE9
:102990002F960FB6F894DEBF0FBECDBFDF91CF915B
:1029A0001F910F91FF90EF90DF90CF90BF90AF906D
:1029B0009F908F907F906F905F904F9008952F928F
:1029C0003F924F925F926F927F928F929F92AF92BF
:1029D000BF92CF92DF92EF92FF920F931F93CF930C
:1029E000DF93CDB7DEB7A8970FB6F894DEBF0FBE62
:1029F000CDBF1C01DC0150962D913C9151971A9648
:102A00008D919C911B970196B9010E94C2317C0166
:102A1000F101938782878217930720F08DEB91E075
:102A20000E94B725EE0CFF1CD1011C96ED91FC9184
:102A30001D97EE0DFF1D808191810E94C917F10144
:102A4000868197810E94D8176DA37EA38FA398A734
:102A5000D10118968D919C9119970E94D8176B01FE
:102A60007C01F101828193810E94D8172B013C01E6
:102A7000D10114968D919C9115970E94D8176D8F56
:102A80007E8F8F8F98A3F101808191810E94D8174A
:102A900069A37AA38BA39CA3C701B6010E94BA3392
:102AA0004B015C01C301B2010E94BA336B017C018E
:102AB0006D8D7E8D8F8D98A10E94BA336D8F7E8F24
:102AC0008F8F98A369A17AA18BA19CA10E94BA3390
:102AD00069A37AA38BA39CA382E48F9384E38F934F
:102AE0001F921F9281E48F9380EF8F931F921F920A
:102AF0006DA17EA18FA198A50E94BA339F938F9359
:102B00007F936F930D8D1E8D2F8D38A149A15AA1F2
:102B10006BA17CA1CE0101960E94620D8CE1FE01A9
:102B20003196D101539601900D928A95E1F70FB637
:102B3000F894DEBF0FBECDBFA8960FB6F894DEBFE7
:102B40000FBECDBFDF91CF911F910F91FF90EF90FE
:102B5000DF90CF90BF90AF909F908F907F906F90BD
:102B60005F904F903F902F9008952CE1FB0173965A
:102B7000DC0101900D922A95E1F70895CF92DF9242
:102B8000EF92FF920F931F93CF93DF93EC017B01A2
:102B90008C819D818C010F5F1F4F8017910708F07A
:102BA00046C04A815B814017510750F50996481786
:102BB000590730F5C880D9809B838A83880F991F75
:102BC0000E94B32F998388834C815D81F60120E0B8
:102BD00030E02417350789F0A881B981B901660F63
:102BE000771FA60FB71F109721F0608171816D9339
:102BF0007C932F5F3F4F3296ECCFC6010E94B52FDA
:102C00008C819D819C01220F331F8017910790F4C6
:102C1000E881F981E20FF31F309729F0D7014D9138
:102C20005C915183408301962E5F3F4FEECF081792
:102C3000190710F41D830C83DF91CF911F910F9121
:102C4000FF90EF90DF90CF900895EF92FF920F9357
:102C50001F93CF93DF93EC018C01045F1F4F1D8600
:102C60001C8688E090E09F878E87198A188A80E109
:102C700090E00E94B32F9D878C87CE0143960E94DF
:102C8000400D86E190E00E94B32F7C014CE050E0C3
:102C90006CE070E00E949A17F982E88286E190E089
:102CA0000E94B32F7C014EE050E06EE070E00E9485
:102CB0009A17FB82EA8286E190E00E94B32F7C01A2
:102CC0004DE050E06DE070E00E949A17FD82EC82CA
:102CD00086E190E00E94B32F7C0148E050E068E07C
:102CE00070E00E949A17FF82EE8286E190E00E94D7
:102CF000B32F7C0149E050E069E070E00E949A1730
:102D0000F986E886BE016C5F7F4FC8010E94BE1540
:102D1000BE016A5F7F4FC8010E94BE15BE01C80197
:102D20000E94BE15BE01685F7F4FC8010E94BE159C
:102D3000BE016E5F7F4FC8010E94BE151B861A86BA
:102D4000DF91CF911F910F91FF90EF90089526E5AD
:102D500031E0FC0131832083089526E531E0FC0158
:102D6000318320830C94B52FCF93DF93CDB7DEB79B
:102D70006C970FB6F894DEBF0FBECDBFFC01628129
:102D80007381CE0101960E94B51560E972E08FE86B
:102D900093E00E94FD27CE0101960E94380EAB0100
:102DA000BC0122E030E08FE893E00E94F92965E958
:102DB00072E08FE893E00E94FD27CE0101960E9409
:102DC000440EAB01BC0122E030E08FE893E00E94AA
:102DD000F9296EE972E08FE893E00E94FD27CE01A9
:102DE00001960E943E0EAB01BC0122E030E08FE86C
:102DF00093E00E94F92967EA72E08FE893E00E946D
:102E0000FD27CE0101960E94500EAB01BC0122E0CD
:102E100030E08FE893E00E94F9296FEA72E08FE8D2
:102E200093E00E94FD27CE0101960E944A0EAB015D
:102E3000BC0122E030E08FE893E00E94FB296C9611
:102E40000FB6F894DEBF0FBECDBFDF91CF910895CE
:102E5000CF92DF92EF92FF920F931F93CF93DF9366
:102E6000CDB7DEB76C970FB6F894DEBF0FBECDBFFF
:102E70006B01FC0162817381CE0101960E94B51540
:102E8000CE0101960E94440E8B019C01E12CF12C95
:102E900040E050E061E070E0C6010E949E09CE0172
:102EA00001960E94380E8B019C0140E050E067E0E3
:102EB00070E0C6010E949E09CE0101960E943E0E5E
:102EC0008B019C0140E050E06DE070E0C6010E9483
:102ED0009E09CE0101960E94500E8B019C0141E09B
:102EE00050E061E070E0C6010E949E09CE010196AB
:102EF0000E944A0E8B019C0141E050E06DE070E0C1
:102F0000C6010E949E096C960FB6F894DEBF0FBEF4
:102F1000CDBFDF91CF911F910F91FF90EF90DF9088
:102F2000CF9008952BEB32E0FC0131832083738333
:102F300062830895CF93DF93EC01842F2CE330E07C
:102F4000462F682FCE010E94FF194FE352E46FE035
:102F500070E04A8B5B8B6C8B7D8BDF91CF910895FA
:102F60000E94F41AAC0160E070E0DB01CA01019735
:102F7000A109B109CC97A105B10528F03FE322E4EE
:102F80008FE090E003C0342F252FCB01632F722FE9
:102F90000895CF93DF93EC010E940130CE010E948F
:102FA000B0176A8B7B8B8C8B9D8BDF91CF910895B3
:102FB000FC0162897389848995890895FC01718374
:102FC000608308958F929F92AF92BF92CF92DF92CB
:102FD000EF92FF920F931F93CF93DF93CDB7DEB79E
:102FE0008C01CE010F960E946F0E6B017C01CE0109
:102FF0000F960E94560E4B015C019B01AC01B6017D
:10300000C7010E941A3387FD05C06401750161E0A4
:1030100070E002C060E070E0F801808191810E9460
:103020002D1EA601B701F801808191810E94DC0E5E
:10303000F801808191810E94301B60E070E0CB013B
:10304000DF91CF911F910F91FF90EF90DF90CF9084
:10305000BF90AF909F908F9008952EE1FC01208348
:1030600008950F93062F22E046E060E0FC01808186
:103070000E94B9190F9108950F93062F23E044E0A1
:1030800060E0FC0180810E94B9190F910895462FDC
:103090004295440F407E61E0FC0180810C94F2185F
:1030A0001F93CF93DF93EC01162F462F62E08881A8
:1030B0000E94F2181F83DF91CF911F910895CF9343
:1030C000DF93EC0140E760E088810E94F21861E044
:1030D000CE010E94471861E0CE01DF91CF910C94A0
:1030E0005018AF92BF92CF92DF92EF92FF920F9360
:1030F0001F93CF93DF93EC017B015A01690100918B
:103100000A0110910B019C012F5F3F4F46E063E0E5
:1031100088810E9402198F81813029F441E062E0A8
:1031200088810E94F218898190E0982F88272A814F
:10313000822BF701918380838D8190E0982F8827DF
:103140002E81822BF501918380838B8190E0982FD3
:1031500088272C81822BF60191838083DF91CF9188
:103160001F910F91FF90EF90DF90CF90BF90AF90A5
:103170000895EF92FF920F931F93CF93DF9300D0A8
:10318000CDB7DEB7062F142F682F80E794E0298390
:103190003A830E94842D602F80E794E00E942B2DBB
:1031A0002981022FE22E3A81F32E8E2D801B81176A
:1031B00040F4F70161917F0180E794E00E942B2D9C
:1031C000F4CF80E794E00E94A12D91E0811190E07E
:1031D000892F0F900F90DF91CF911F910F91FF904A
:1031E000EF900895CF93DF931F92CDB7DEB7498359
:1031F0009E012F5F3F4F41E00E94B9180F90DF9171
:10320000CF9108953F924F925F926F927F928F92EB
:103210009F92AF92BF92CF92DF92EF92FF920F9365
:103220001F93CF93DF9300D000D000D0CDB7DEB78F
:10323000682E562E742E3A8329830E9401306B012A
:103240007C01312C412C872D90E09C838B8348019D
:10325000A12CB12C3714B0F5662D80E794E00E94C4
:10326000842D652D80E794E00E942B2D80E794E06B
:103270000E94A12D662D80E794E00E94842D4B8151
:103280005C81431951094132510514F040E250E08C
:10329000662D80E794E00E94812D80E794E00E94F3
:1032A000D32C892B59F10115110579F10E940130B8
:1032B0006C197D098E099F09681579058A059B059A
:1032C00020F11CC00115110589F10E9401306C1913
:1032D0007D098E099F0920E030E0601771078207A1
:1032E000930720F1872D90E0242D332727FD30957B
:1032F00028173907DCF444244A9418C0872D90E23B
:10330000971508F480E2380EA5CFE981FA81E40D23
:10331000F11D47FCFA95FE83ED8380E794E00E945F
:10332000DB2CED81FE8180834394B7CF842D2696DC
:103330000FB6F894DEBF0FBECDBFDF91CF911F91C6
:103340000F91FF90EF90DF90CF90BF90AF909F9044
:103350008F907F906F905F904F903F9008950F9364
:103360001F9389019A0141E00E9402191F910F9158
:103370000895DF92EF92FF920F931F93CF93DF9305
:103380001F92CDB7DEB7F82EE62ED42E122F209145
:103390000A0130910B01AE014F5F5F4F0E94AF19E0
:1033A000882319F14D2D50E0411B51094F5F5F4FAC
:1033B000E1E0F0E002C0EE0FFF1F1A95E2F731974F
:1033C000042E01C0EE0F0A94EAF701C0000F4A95DF
:1033D000EAF74E2F409589814823E0234E2B4983FD
:1033E0006E2D8F2D0E94F21801C080E00F90DF91AA
:1033F000CF911F910F91FF90EF90DF900895CF93A1
:10340000DF93DC0170E0FB01E65EFE4FE491149671
:10341000EC931497842F90E0FC01E65EFE4FE4915C
:103420001596EC931597625D7E4FFB01C491D0E039
:10343000CC0FDD1FC45BDE4FFE0145915491179602
:103440005C934E931697FC01E25DFE4F849190E0F1
:10345000880F991F8E5B9E4FFC01459154911B96DE
:103460005C934E931A97FB016491E62FF0E0EE0F08
:10347000FF1FEA5AFE4F8591949119969C938E9363
:103480001897C901253FF1E03F0714F084EF91E060
:1034900049E3489F9001499F300D1124245E3F4F1E
:1034A0001D963C932E931C97DF91CF9108950F9317
:1034B0001F93CF93DF93EC01E885F98580819C8190
:1034C000892B8083EE81FF8190818C818095892377
:1034D000808384E090E00E945830EE81FF818081FB
:1034E0009C81892B80838AE090E00E945830EE8195
:1034F000FF8190818C81809589238083E885F9857F
:1035000090818C818095892380830E940D30605B3F
:10351000794B8F4F9F4F6E877F87888B998BEA857A
:10352000FB8580819D81892359F00E940D300E8595
:103530001F8528893989061717072807390778F75B
:10354000EA85FB8580819D81892369F40E940D3085
:103550000E851F8528893989061717072807390717
:1035600078F780E00DC00E940D302C853D85620FFC
:10357000731F811D911D6E877F87888B998B81E0DA
:10358000DF91CF911F910F9108950F931F93CF93C8
:10359000DF93EC010E94571A882389F0EA85FB85A6
:1035A00080819D81892371F00E940D300E851F85D9
:1035B00028893989061717072807390778F720E07F
:1035C00030E00CC00E940D302C853D85255031091E
:1035D0004E855F85241B350B260F371FC901DF91F0
:1035E000CF911F910F9108950E94C51A31E020E0FC
:1035F000009709F430E04C9669E370E00E94C23114
:10360000832F922F8617970708F4CB0108951F92F6
:103610000F920FB60F9211242F933F934F935F9306
:103620006F937F938F939F93AF93BF93EF93FF938A
:10363000E0915203F0915303309709F00995FF91FF
:10364000EF91BF91AF919F918F917F916F915F911A
:103650004F913F912F910F900FBE0F901F90189593
:103660002F923F924F925F926F927F928F929F9292
:10367000AF92BF92CF92DF92EF92FF920F931F9380
:10368000CF93DF93CDB7DEB72B970FB6F894DEBF9D
:103690000FBECDBF9B878A87DC01D896BC91B983CA
:1036A000B11102C01982E2C00E9401306A837B839B
:1036B0008C839D83EA85FB8580A191A1A2A1B3A102
:1036C0004A815B816C817D81481B590B6A0B7B0BA6
:1036D00084A595A5A6A5B7A5481759076A077B072E
:1036E00008F3028CF38DE02D80809180A280B3805E
:1036F000AA85BB855E96ED91FC915F97A50194012B
:1037000060817181828193810E9453322B013C013F
:10371000EA85FB8520893189428953890E943135A8
:10372000AA85BB8594962D913D914D915C9197977B
:103730000E9454326B017C01EA85FB8564A375A36A
:1037400086A397A324A835A806A917A99101A801C3
:103750000E94263518161CF4C101D80118C0AA858C
:10376000BB85D0968D919D910D90BC91A02D8E839F
:103770009F83A887B9879C01AD01C701B6010E944C
:103780001A3387FF0AC08E819F81A885B985EA8593
:10379000FB8584A395A3A6A3B7A3AA85BB851C9686
:1037A0002D913D914D915C911F97C301B2010E94F3
:1037B0003135EA85FB8524A135A146A157A10E9498
:1037C00054326B017C01AA85BB8598962D913D9161
:1037D0004D915C919B97C501B4010E945332EA85DB
:1037E000FB8524893589468957890E9431359B019B
:1037F000AC01C701B6010E9453326B017C019101FB
:10380000A8010E9426351816BCF0AA85BB85D09663
:103810002C90D097D1963C90D197D2960C91D2977C
:10382000D3961C919101A801B601C7010E941A33D9
:1038300087FD02C016018701AA85BB855C96ED91C4
:10384000FC915D97C101D80180839183A283B383EA
:10385000EA85FB8580A691A6A2A6B3A68A819B8154
:10386000AC81BD8180A391A3A2A3B3A389812B9630
:103870000FB6F894DEBF0FBECDBFDF91CF911F9181
:103880000F91FF90EF90DF90CF90BF90AF909F90FF
:103890008F907F906F905F904F903F902F90089502
:1038A0002F923F924F925F926F927F928F929F9250
:1038B000AF92BF92CF92DF92EF92FF920F931F933E
:1038C000CF93DF9300D000D0CDB7DEB71C012A0123
:1038D0003B014801590120E030E0A901C301B201D8
:1038E0000E941A3387FD78C020E030E0A901C501AD
:1038F000B4010E941A3387FD6FC020E030E0A901B7
:10390000C701B6010E941A3387FD66C0F1014082EB
:1039100051826282738284829582A682B782C08637
:10392000D186E286F38664A575A586A597A50E9433
:10393000BA3320E030E04AE754E40E94213369833F
:103940007A838B839C83F1014486558666867786CD
:103950009B01AC01C501B4010E9431354B015C01F2
:10396000F101608B718B828B938B29813A814B8122
:103970005C81C701B6010E9421336B017C01F1011A
:10398000648B758B868B978B808D918D019721F53C
:10399000A301920160E070E0CB010E945332F1017B
:1039A0006487758786879787A501940160E070E03A
:1039B000CB010E945332F101608B718B828B938B10
:1039C000A701960160E070E0CB010E945332F10143
:1039D000648B758B868B978B0F900F900F900F9049
:1039E000DF91CF911F910F91FF90EF90DF90CF90DB
:1039F000BF90AF909F908F907F906F905F904F900F
:103A00003F902F9008958F929F92AF92BF92CF9246
:103A1000DF92EF92FF92CF93DF93EC011616170619
:103A2000ACF56B01EE24D7FCE094FE2CC701B60187
:103A30000E94BC334B015C016CA57DA58EA59FA5A2
:103A40000E94BA339B01AC01C501B4010E9421332D
:103A50004B015C019B01AC01688979898A899B894A
:103A60000E943135688B798B8A8B9B8BA5019401E1
:103A70006C897D898E899F890E9421336C8B7D8B17
:103A80008E8B9F8BCCA6DDA6EEA6FFA6DF91CF91F5
:103A9000FF90EF90DF90CF90BF90AF909F908F906E
:103AA00008952F923F924F925F926F927F928F92E2
:103AB0009F92AF92BF92CF92DF92EF92FF920F93BD
:103AC0001F93CF93DF93EC016A017B0148015901F9
:103AD000A9019801C701B6010E94263587FF4EC093
:103AE000C8AAD9AAEAAAFBAA8CAA9DAAAEAABFAA6A
:103AF00088AD882309F442C02C8C3D8CF1014080B4
:103B0000518062807380A5019401C301B2010E94BB
:103B10002635181634F4F10180829182A282B38294
:103B20000DC0A7019601C301B2010E941A3387FF9D
:103B300005C0F101C082D182E282F3828CA09DA0F7
:103B4000AEA0BFA0CCA8DDA8EEA8FFA8A701960153
:103B5000C501B4010E942635181664F0C8A8D9A87A
:103B6000EAA8FBA8A7019601C501B4010E941A3377
:103B700087FF04C0CCA2DDA2EEA2FFA2DF91CF910D
:103B80001F910F91FF90EF90DF90CF90BF90AF907B
:103B90009F908F907F906F905F904F903F902F906D
:103BA00008958F929F92AF92BF92CF92DF92EF9241
:103BB000FF92CF93DF93EC01EC8DFD8DC080D1801F
:103BC000E280F380CCA2DDA2EEA2FFA2EA8DFB8D03
:103BD00080819181A281B38188A799A7AAA7BBA759
:103BE0008CA89DA8AEA8BFA8A5019401C701B601E5
:103BF0000E942635181664F088A899A8AAA8BBA820
:103C0000A5019401C701B6010E941A3387FF04C0C1
:103C10008CA29DA2AEA2BFA2DF91CF91FF90EF90A8
:103C2000DF90CF90BF90AF909F908F9008951F939B
:103C3000CF93DF93EC0111E06130710509F010E0E2
:103C400088AD91E08927181303C0CE010E94D11DD1
:103C500018AFDF91CF911F9108950F931F93CF93CA
:103C6000DF93EC018B0188AD882361F1888D998DFC
:103C70006817790739F12C853D854E855F8560E0B1
:103C800070E0CB010E9453326C877D878E879F87BF
:103C9000288939894A895B8960E070E0CB010E94FC
:103CA0005332688B798B8A8B9B8B2C893D894E890B
:103CB0005F8960E070E0CB010E9453326C8B7D8B9A
:103CC0008E8B9F8B198F088FDF91CF911F910F9152
:103CD00008954F925F926F927F928F929F92AF92D0
:103CE000BF92CF92DF92EF92FF920F931F93CF93E9
:103CF000DF9300D000D0CDB7DEB74C0127013801EB
:103D0000A982BA82CB82DC82FC01558F448F738FEB
:103D1000628F378F268F10AE10AA11AA12AA13AA8B
:103D200080E090E0AFE7B3E484AB95ABA6ABB7AB74
:103D300084E690E0A0E0B0E084A795A7A6A7B7A787
:103D40006B8D7C8DC4010E942D1ECF88D88CE98C90
:103D5000FA8C09811A812B813C81B301A201C40133
:103D60000E94501C0E940130F40144A455A466A492
:103D700077A4641975098609970960A371A382A3C2
:103D800093A30F900F900F900F90DF91CF911F9101
:103D90000F91FF90EF90DF90CF90BF90AF909F90EA
:103DA0008F907F906F905F904F900895FC0160819D
:103DB0007181828193810895FC016481758186817E
:103DC00097810895FC0160857185828593850895AA
:103DD0000F931F93FC010FEF1FEF980100831183D6
:103DE0002283338310861186128613864FEF59EC97
:103DF0006AE97BE3408B518B628B738B408F518FD1
:103E0000628F738F40A351A362A373A340A751A7EE
:103E100062A773A740AB51AB62AB73AB00AF11AFFE
:103E200022AF33AFDC01A05CBF4F8FEF90E0119663
:103E30009C938E9314960D931D932D933C931397FF
:103E400018960D931D932D933C93139718961C92DF
:103E500011961C92509682E08C9311961C921196AA
:103E60001C9211961C9211961D921D921D921C92ED
:103E70001397149611961C921E9212961D921C92E4
:103E8000EA5AFF4F10821F910F9108952FEB260FD2
:103E9000862F992787FD9095263010F4C7970895AF
:103EA0006156663018F4875591090895C0970895B2
:103EB0000F931F93FB0160E070E0CB01019120EDB7
:103EC000200F2A30A0F4AAE0B0E09B01AC010E94D0
:103ED0003132112707FD1095212F312F600F711FEF
:103EE000821F931F6053710981099109E7CF1F91C8
:103EF0000F9108950F931F93CF93FC01EA5AFF4F40
:103F0000C1E020812D3219F0C0E08F0103C08C0187
:103F1000095A1F4FB8010E94581F9B01AC01A4E62B
:103F2000B0E00E943132F801DF01219130ED320F13
:103F30003A30D0F32E3269F511962C91119730ED6D
:103F4000320F3A3030F5332727FD309520533109B1
:103F50004AE0429F8001439F100D1124222717FD44
:103F60002095322F600F711F821F931F12960C91A4
:103F700020ED200F2A3068F4112707FD109500531B
:103F80001109222717FD2095322F600F711F821F04
:103F9000931FCC2339F090958095709561957F4F54
:103FA0008F4F9F4FCF911F910F9108954F925F9226
:103FB0006F927F928F929F92AF92BF92CF92DF9239
:103FC000EF92FF92CF93DF93EC01CA5ADF4FBE010D
:103FD0000E94581F2B013C0124E630E040E050E0F5
:103FE0000E94EA319B01AC0160EA76E881E090E052
:103FF0000E94B2316B017C01FE01819190ED980F1E
:104000009A30D8F38E3219F5EF0180E1882E87E2DD
:10401000982EA12CB12CA99180ED8A0F8A30B8F48A
:10402000BB27A7FDB095D097A50194010E943C3213
:10403000C60ED71EE81EF91EC501B4012AE030E005
:1040400040E050E00E94EA3149015A01E4CFC70143
:10405000B6016D5F7F4F8F4F9F4F26E030E040E00D
:1040600050E00E94EA3169017A01C301B20124E6FD
:1040700030E040E050E00E94EA3160E472E48FE01A
:1040800090E00E94B231C60ED71EE81EF91EC7018D
:10409000B601DF91CF91FF90EF90DF90CF90BF906E
:1040A000AF909F908F907F906F905F904F9008950A
:1040B000DB01FA018D91882319F091918917D1F3D1
:1040C000992787FD90950895CF92DF92EF92FF9206
:1040D0001F93CF93DF93EC01FC01EB5AFF4F10814C
:1040E000112309F4A9C0319660810E94461F182F40
:1040F000FE01E95AFF4F6081CE010E94461F40E158
:10410000149F800D1124FE01EC5AFF4F90818913FA
:104110008AC074961081112309F458C135968081A4
:104120009181019691838083B59780819181A2814D
:10413000B381349780839183A283B3833C9680813B
:104140009181A281B381349780839183A283B383C9
:10415000799680818823A1F1813009F037C18C8163
:104160009D81AE81BF8188839983AA83BB838C851F
:104170009D85AE85BF8588879987AA87BB878C89EF
:104180009D89AE89BF89888B998BAA8BBB8B8C8DBF
:104190009D8DAE8DBF8D888F998FAA8FBB8F8CA57B
:1041A0009DA5AEA5BFA588A799A7AAA7BBA78CA9BF
:1041B0009DA9AEA9BFA988AB99ABAAABBBAB06C101
:1041C0008CA19DA1AEA1BFA188A399A3AAA3BBA3C3
:1041D0008C819D81AE81BF8188839983AA83BB83B3
:1041E0008C899D89AE89BF89888B998BAA8BBB8B63
:1041F0008C8D9D8DAE8DBF8D888F998FAA8FBB8F33
:10420000FE01E05CFF4FDE01AE5BBF4F8D919C91E4
:10421000918380838CAD9DADAEADBFAD88AF99AFBE
:10422000AAAFBBAFD3C0C159DF4F88819981019636
:104230009983888310E0CAC0FC01EA59FF4F30819E
:104240008B599F4F7C0131111DC06E0196E5C90E3F
:10425000D11C43EC52E0B601CE010E945820892BBC
:1042600011F481E00CC049EC52E0B601CE010E948D
:104270005820892B19F4F7011082A8C082E0D701D9
:104280008C93A4C0DC01EC91E23009F49FC0CE0114
:104290008A5A9F4FDC012C91222309F497C0B0E287
:1042A000EB9FF0011124E32B3197E932F10508F07F
:1042B0008DC0EC5CFF4F0C942B32CE010E947A1F14
:1042C0006C837D838E839F830E940130C85BDF4FA8
:1042D00012C0C859DF4F81E0213409F05DC05DC0D4
:1042E000CE010E94D61F6C8B7D8B8E8B9F8B0E9484
:1042F0000130C05BDF4F688379838A839B8366C00C
:10430000233509F063C08C899D89AE89BF89B0953A
:10431000A095909581959F4FAF4FBF4F8C8B9D8BF4
:10432000AE8BBF8B53C0CE010E94D61F6C8F7D8F8A
:104330008E8F9F8F4BC0273509F048C08C8D9D8D87
:10434000AE8DBF8DB095A095909581959F4FAF4F45
:10435000BF4F8C8F9D8FAE8FBF8F38C0CE010E9414
:104360007A1F6CA77DA78EA79FA730C0CE010E94A1
:104370007A1F6CAB7DAB8EAB9FAB28C0BC01CE016E
:104380000E94581F6C877D878E879F871FC0C859E2
:10439000DF4F81E021330CF480E0888317C00E9456
:1043A0002737CE5BDF4F9927998388830FC0CE01D3
:1043B0000E947A1F6CAF7DAF8EAF9FAF07C0CE015A
:1043C0000E947A1F6CA37DA38EA39FA3812FDF91F0
:1043D000CF911F91FF90EF90DF90CF900895CF92F3
:1043E000DF92EF92FF920F931F93CF93DF931F9271
:1043F000CDB7DEB76C01262FFC01E759FF4F408196
:104400005181628173814F5F5F4F6F4F7F4F408358
:104410005183628373838C0109591F4F8B5A9F4FBD
:104420007C01243281F12CF42A3069F02D30E9F539
:104430000AC02A3241F02C32C1F5F601EC5AFF4F86
:10444000808182278083F80180818F3060F4F601BB
:10445000E80FF11DEA5AFF4F1082C60129830E941E
:104460006420298101C080E0F601EA59FF4F908164
:104470009F5F9083F801108291E02A3209F090E06A
:10448000F70190832AC0F8011082F601EA59FF4F24
:10449000108272971082719682E08083F7011082F9
:1044A000F601E859FF4F108217C0F80180818E3065
:1044B00048F491E0980F9083F601E80FF11DEA5A55
:1044C000FF4F2083F7018081811106C0F601EC5A6D
:1044D000FF4F80818227808380E00F90DF91CF9112
:1044E0001F910F91FF90EF90DF90CF900895CF92A2
:1044F000DF92EF92FF920F931F93CF93DF93E90127
:104500006115710551F0FC01C088D188E288F388FB
:10451000FB01C082D182E282F3824115510551F044
:10452000FC01C08CD18CE28CF38CFA01C082D18268
:10453000E282F382209701F18C01045B1F4FF801A6
:1045400080819181A281B3818F3F9F4FAF4FBF4F39
:1045500061F00E940130F8010081118122813381D4
:10456000601B710B820B930B03C06FEF7FEFCB01CE
:10457000688379838A839B83DF91CF911F910F9109
:10458000FF90EF90DF90CF900895AF92BF92CF92BF
:10459000DF92EF92FF920F931F93CF93DF93CDB7EC
:1045A000DEB728970FB6F894DEBF0FBECDBF5B0114
:1045B0008A01AE014F5F5F4FBE016B5F7F4F0E946C
:1045C0007722CD80DE80EF80F8848FEFC81689ECEB
:1045D000D8068AE9E8068BE3F80659F0C701B60168
:1045E0000E94BC3320E034E244E759E40E942133C6
:1045F00004C060E070E08AE794E4F50160837183B1
:1046000082839383FFEFCF16F9ECDF06FAE9EF061A
:10461000FBE3FF0669F069817A818B819C810E94AE
:10462000BC3320E034E244E759E40E94213304C063
:1046300060E070E08AE794E4F8016083718382832C
:10464000938328960FB6F894DEBF0FBECDBFDF91DF
:10465000CF911F910F91FF90EF90DF90CF90BF907F
:10466000AF900895FC0160A171A182A193A16F3F59
:10467000F9EC7F07FAE98F07FBE39F0749F00E94F7
:10468000BC3320E030E048EC52E40E94213308952E
:1046900060E074E284E799E40895FC0112828FEFF0
:1046A0008183108213820895FC018381882331F075
:1046B000611103C08FEF8183089511820895CF9314
:1046C000DF93EC016A8380E794E00E946A2D41E069
:1046D0006A8180E794E00E94812D91E0811101C000
:1046E00090E09B8380E794E00E94DB2C88838B81A1
:1046F00090E0DF91CF910895CF93DF93EC018B8110
:104700008823A9F089818095862388836A8180E740
:1047100094E00E94842D688180E794E00E942B2D14
:1047200080E794E00E94A12D282F30E002C020E015
:1047300030E081E090E0232B11F080E090E0DF9109
:10474000CF91089508950895DC01ED91FC910284C4
:10475000F385E02D41E0099581E090E00895FC01AA
:104760001382128229EF32E0318320830895DC0125
:10477000ED91FC910084F185E02D6FEF0994DC014F
:10478000ED91FC910284F385E02D40E0099461E015
:104790000E94BF2380ED97E00C94583062E00E94A5
:1047A000BF2380ED97E00C945830CF93DF93CDB7C3
:1047B000DEB728970FB6F894DEBF0FBECDBF1D82BF
:1047C00020E42E8334E13F8334E5388719822A833D
:1047D00020E12B8320E52C83FC012781421710F078
:1047E0004FEF420FFC01308550E0FE01E40FF51F52
:1047F000303121F4243011F4218101C02581260FAC
:104800002068622F28960FB6F894DEBF0FBECDBF8A
:10481000DF91CF910C94BF23FC016581262F24608A
:1048200025836C600C94BF23CF93DF93EC0142305F
:1048300018F08C8188608C834F836887222329F04D
:10484000413019F48C8184608C8364E670E080E0F0
:1048500090E00E9430306C8164FD31C0E881F981C4
:104860000284F385E02D42E063E0CE01099584E9FE
:1048700091E10E945830E881F9810284F385E02DAE
:1048800042E063E0CE01099584E991E10E9458304D
:10489000E881F9810284F385E02D42E063E0CE01F6
:1048A000099586E990E00E945830E881F9810284F8
:1048B000F385E02D42E062E0CE01099516C060620A
:1048C000CE010E94BF2384E991E10E9458306C819F
:1048D0006062CE010E94BF2386E990E00E945830BA
:1048E0006C816062CE010E94BF236C816062CE0148
:1048F0000E94BF2384E08D83CE010E940C24CE0150
:104900000E94C72382E08E8366E0CE010E94BF230F
:10491000CE01DF91CF910C94B72321E001C0220F8B
:104920006A95EAF7DC011C962C931C971A965C9307
:104930004E931997ED91FC910084F185E02D60E094
:104940000994FC012485222399F0818592850097A2
:1049500019F4611105C006C0019721F4611102C06C
:10496000258701C015866585CF010E960C947C23A2
:1049700008950F931F93CF93DF93EC018C01025F97
:104980001F4F6B85C8010E945F23019761F461E0AE
:10499000C8010E9454231C8260E0C8010E947C234D
:1049A00081E090E002C080E090E0DF91CF911F9124
:1049B0000F9108958F92AF92CF92EF920F93CF9372
:1049C000DF93CDB7DEB7FC016387148615861286A8
:1049D000118681E0982F01C0990F4A95EAF7928BD2
:1049E000982F01C0990F2A95EAF7938B982F01C051
:1049F000990F0A95EAF7948B982F01C0990FEA94C2
:104A0000EAF7958B982F01C0990FCA94EAF7968B15
:104A1000982F01C0990FAA94EAF7978B01C0880FCD
:104A20008A94EAF7808FDF91CF910F91EF90CF902A
:104A3000AF908F9008956F927F928F92AF92CF92A6
:104A4000EF920F93CF93DF9300D01F92CDB7DEB7D5
:104A50003C012B834A8369830E94AF2389E093E062
:104A6000F30191838083C3010E960E944D232B8115
:104A70004A816981C3010E94DA240F900F900F9040
:104A8000DF91CF910F91EF90CF90AF908F907F906B
:104A90006F900895FF920F931F93CF93DF93EC01D4
:104AA000F62E8C01025F1F4F6A896F29C8010E9490
:104AB0007C236A8960956F21C801DF91CF911F9196
:104AC0000F91FF900C947C2320E030E050E060FFD9
:104AD00005C0FC01E20FF31F7589572B66952F5F08
:104AE0003F4F2430310599F7413011F4FC014489DE
:104AF000FC016585652B642B0C944A250F931F934D
:104B0000CF93DF93EC01142F062F0F70423011F476
:104B100040E00AC070E084E0759567958A95E1F7FA
:104B2000CE010E946425412F602FCE01DF91CF91ED
:104B30001F910F910C9464250F931F93CF93DF93D4
:104B400000D01F92CDB7DEB78C012B834A836983D7
:104B50000E94B9242B814A816981C8010F900F906E
:104B60000F90DF91CF911F910F910C9414240E940C
:104B70002237089584E593E00C94991284E593E03C
:104B80000C94B9110E9462300E94B9250E94BA2586
:104B9000C2E0D6E20E94BE252097E1F30E940226E1
:104BA000F9CF8BE793E00C942707FC01818D228DD0
:104BB00090E0805C9F4F821B91098F739927089525
:104BC000FC01918D828D981731F0828DE80FF11DD7
:104BD000858D90E008958FEF9FEF0895FC01918DF2
:104BE000828D981761F0828DDF01A80FB11D5D964F
:104BF0008C91928D9F5F9F73928F90E008958FEFBD
:104C00009FEF089582E797E2892B49F080E090E0DA
:104C1000892B29F00E94722781110C9400000895BD
:104C2000FC01848DDF01A80FB11DA35ABF4F2C9149
:104C3000848D90E001968F739927848FA689B78918
:104C40002C93A089B1898C9180648C93938D848DF1
:104C5000981306C00288F389E02D80818F7D8083C0
:104C60000895CF93DF93EC01888D8823C9F0EA89FA
:104C7000FB89808185FD05C0A889B9898C9186FD55
:104C80000FC00FB607FCF5CF808185FFF2CFA88952
:104C9000B9898C9185FFEDCFCE010E941026E7CF18
:104CA000DF91CF910895CF92DF92FF920F931F93E0
:104CB000CF93DF931F92CDB7DEB76C01DC015B961B
:104CC0009C915B975C968C915C97981307C050966B
:104CD000ED91FC915197808185FD32C0F601038DE5
:104CE00010E00F5F1F4F0F731127F02EF601848D18
:104CF000F81211C00FB607FCF9CFD6015096ED910E
:104D0000FC915197808185FFF1CFC60169830E9494
:104D100010266981EBCF838DE80FF11DE35AFF4F19
:104D20006083D6015B960C935B975296ED91FC9154
:104D3000539780818062808381E058968C930DC068
:104D4000D6015696ED91FC91579760835096ED9160
:104D5000FC91519780818064808381E090E00F9086
:104D6000DF91CF911F910F91FF90DF90CF90089529
:104D7000BF92CF92DF92EF92FF92CF93DF93EC013D
:104D80006A017B01B22EE889F98982E080834115AE
:104D900081EE580761057105A1F060E079E08DE3CF
:104DA00090E0A70196010E94EA31215031094109A2
:104DB00051095695479537952795211580E1380774
:104DC00098F0E889F989108260E874E88EE190E053
:104DD000A70196010E94EA31215031094109510988
:104DE0005695479537952795EC85FD853083EE855B
:104DF000FF852083188EEC89FD89B082EA89FB89C2
:104E0000808180618083EA89FB89808188608083DA
:104E1000EA89FB89808180688083EA89FB898081B7
:104E20008F7D8083DF91CF91FF90EF90DF90CF90C7
:104E3000BF9008951F920F920FB60F9211242F93D7
:104E40008F939F93EF93FF93E0919F03F091A003C3
:104E50008081E091A503F091A60382FD12C09081AC
:104E60008091A8038F5F8F732091A903821751F05F
:104E7000E091A803F0E0E157FC4F958F8093A803E1
:104E800001C08081FF91EF919F918F912F910F90A1
:104E90000FBE0F901F9018951F920F920FB60F9292
:104EA00011242F933F934F935F936F937F938F932F
:104EB0009F93AF93BF93EF93FF938FE893E00E948C
:104EC0001026FF91EF91BF91AF919F918F917F91AC
:104ED0006F915F914F913F912F910F900FBE0F9067
:104EE0001F9018958FE893E00E94D52521E0892B2B
:104EF00009F420E0822F08951092920310929103FA
:104F000088EE93E0A0E0B0E0809393039093940345
:104F1000A0939503B093960389E193E09093900357
:104F200080938F0385EC90E090939C0380939B0388
:104F300084EC90E090939E0380939D0380EC90E03E
:104F40009093A00380939F0381EC90E09093A20341
:104F50008093A10382EC90E09093A4038093A30339
:104F600086EC90E09093A6038093A5031092A8038B
:104F70001092A9031092AA031092AB030895CF9246
:104F8000DF92EF92FF920F931F93CF93DF936C0109
:104F90007A01EB01E60EF71E00E010E0CE15DF050A
:104FA00061F06991D601ED91FC910190F081E02DC5
:104FB000C6010995080F191FF1CFC801DF91CF91E4
:104FC0001F910F91FF90EF90DF90CF9008956115A2
:104FD000710581F0DB010D900020E9F7AD01415032
:104FE0005109461B570BDC01ED91FC910280F381C6
:104FF000E02D099480E090E008950C94E727DC010F
:10500000ED91FC910190F081E02D09940F931F9395
:10501000CF93DF93EC016DE00E94FF278C016AE0E3
:10502000CE010E94FF27800F911FDF91CF911F912A
:105030000F9108950F931F93CF93DF93EC010E947C
:10504000E7278C01CE010E940628800F911FDF9177
:10505000CF911F910F9108958F929F92AF92BF921F
:10506000CF92DF92EF92FF920F931F93CF93DF9334
:10507000CDB7DEB7A1970FB6F894DEBF0FBECDBF98
:105080007C01C42EE52FCB01D22E19A221E02D15D3
:1050900010F02AE0D22E8E010F5D1F4F8D2C912C27
:1050A000A12CB12C6C2D7E2FA50194010E94EA3118
:1050B0008C2DD29E80191124015011098A3014F4CC
:1050C000805D01C0895CF8018083211531054105AF
:1050D000510521F0C22EE32FCA01E4CFB801C70168
:1050E0000E94E727A1960FB6F894DEBF0FBECDBF92
:1050F000DF91CF911F910F91FF90EF90DF90CF90B4
:10510000BF90AF909F908F900895CF92DF92EF92D3
:10511000FF920F931F93CF93DF93EC016A017B0102
:105120002115310579F4E881F9810190F081E02DB4
:10513000642FDF91CF911F910F91FF90EF90DF903F
:10514000CF9009942A303105E9F477FF1AC06DE257
:105150000E94FF278C0144275527BA014C195D098D
:105160006E097F092AE0CE010E942C28800F911F32
:10517000DF91CF911F910F91FF90EF90DF90CF9033
:1051800008952AE0B701A601CE01DF91CF911F91CA
:105190000F91FF90EF90DF90CF900C942C289A0104
:1051A000AB01662757FD6095762F0C9485280F93E9
:1051B0001F93CF93DF93EC019A01AB01662757FD54
:1051C0006095762F0E9485288C01CE010E940628CA
:1051D000800F911FDF91CF911F910F91089521159D
:1051E000310541F4DC01ED91FC910190F081E02D5D
:1051F000642F09940C942C280F931F93CF93DF9363
:10520000EC010E94EF288C01CE010E940628800F3D
:10521000911FDF91CF911F910F9108954F925F924F
:105220006F927F928F929F92AF92BF92CF92DF92B6
:10523000EF92FF920F931F93CF93DF93EC016A01DC
:105240007B01B22E9A01AB01C701B6010E94DF3586
:10525000882319F065E273E027C026013701E8943E
:1052600077F82FEF3FEF4FE75FE7C301B2010E94EE
:10527000DF3581110DC02FEF3FEF4FE75FE7C3012F
:10528000B2010E941A3318161CF469E273E00CC0D4
:105290002FEF3FEF4FE75FE4C701B6010E942635CD
:1052A0001816ACF46DE273E0CE01DF91CF911F913F
:1052B0000F91FF90EF90DF90CF90BF90AF909F90B5
:1052C0008F907F906F905F904F900C94E7272FEF17
:1052D0003FEF4FE75FECC701B6010E941A3387FD2D
:1052E000E1CF20E030E0A901C701B6010E941A33E6
:1052F00087FF0AC06DE2CE010E94FF278C01F7FAFA
:10530000F094F7F8F09402C000E010E0A12C60E007
:1053100070E080E09FE3AB1441F020E030E040E239
:1053200051E40E942133A394F6CF9B01AC01C70145
:10533000B6010E9454326B017C010E948E332B0116
:105340003C010E94BA339B01AC01C701B6010E9427
:1053500053326B017C012AE0B301A201CE010E940D
:105360002C28080F191FBB2039F06EE872E0CE011F
:105370000E94E727080F191F7B2C772041F120E0BE
:1053800030E040E251E4C701B6010E9431356B01C3
:105390007C010E9489334B01AA2497FCA094BA2C6B
:1053A0002AE030E0B501A401CE010E948528080F53
:1053B000191FC501B4010E94BC339B01AC01C70198
:1053C000B6010E9453326B017C017A94D6CFC8019A
:1053D000DF91CF911F910F91FF90EF90DF90CF90D1
:1053E000BF90AF909F908F907F906F905F904F9005
:1053F00008950C940E290F931F93CF93DF93EC0124
:105400000E940E298C01CE010E940628800F911F58
:10541000DF91CF911F910F9108954F925F926F92FC
:105420007F92AF92BF92CF92DF92EF92FF920F9353
:105430001F93CF93DF93CDB7DEB729013A01621BEB
:10544000730B840B950B29893A894B895C892A193E
:105450003B094C095D09298B3A8B4B8B5C8B9B017B
:10546000AC0169897A898B899C890E94B231E418E0
:10547000F50806091709A80197010E940C322A0DA8
:105480003B1D4C1D5D1DCA01B901DF91CF911F91DC
:105490000F91FF90EF90DF90CF90BF90AF907F90F3
:1054A0006F905F904F9008950E94223720916E0474
:1054B00030916F0428173907B9F490912C0480912A
:1054C0002D04981789F0E0912C04F0E0E25DFB4F89
:1054D000808120912C0430E02F5F3F4F2F733327C2
:1054E00020932C0490E008958FEF9FEF08951F9371
:1054F000CF93DF93DC015C968D919C915D97009733
:1055000049F481E090E013969C938E93129780E08B
:1055100090E03BC05196ED91FC91529750962C91A2
:105520005097322F30951FB75E964C915E9741FB96
:10553000772770F941FD6095F8944081772311F049
:10554000422B01C043234083EC012197F1F748E04F
:10555000508160FF02C0522B01C053235083EC01E5
:105560002197F1F76695415099F78081772311F0E3
:10557000832301C0822B80831FBF5C968D919C91F9
:105580005D970197F1F781E090E0DF91CF911F9156
:10559000089520916E0430916F042817390781F423
:1055A00090912C0480912D04981751F0E0912C04D7
:1055B000F0E0E25DFB4F8081992787FD909508958B
:1055C0008FEF9FEF089520916E0430916F0428179C
:1055D000390771F480912D0420912C0490E0805CB7
:1055E0009F4F821B910960E470E00E94D6310895BC
:1055F00080E090E0089520916E0430916F042817A8
:10560000390739F48FB7F89410922D0410922C04B6
:105610008FBF0895E0916E04F0916F04E817F907C9
:1056200069F4A389B4899C918589809589238C9399
:1056300010926F0410926E0481E0089580E0089546
:10564000CF93DF93EC018A8D9B8D892BF1F08091B4
:105650006E0490916F048C179D07B9F0009711F0BC
:105660000E940A2B8E8D8E7F8E8F10922D041092A9
:105670002C04D0936F04C0936E04EB89FC89808165
:105680009D89892B808381E001C080E0DF91CF91EB
:1056900008951F920F920FB60F9211242F933F93EC
:1056A0004F935F936F937F938F939F93AF93BF932A
:1056B000EF93FF93E0916E04F0916F04309709F43B
:1056C00051C0868DA685B785958581FF04C08C91D4
:1056D000892329F447C08C91892309F043C0A38909
:1056E000B4899C918589809589238C938689978933
:1056F0000197F1F7208D318DA685B785758558E026
:1057000040E0C9010197F1F7842F90E095958795C6
:10571000482F6C91672309F04068515091F7868DAE
:1057200081FD409580912D0490E001968F7399271B
:1057300020912C04281749F0A0912D04B0E0A25D1F
:10574000BB4F4C9380932D0403C0868D8160868F60
:10575000828D938D0197F1F7A389B4898C919589F6
:10576000892B8C93FF91EF91BF91AF919F918F9176
:105770007F916F915F914F913F912F910F900FBE4D
:105780000F901F9018951F93CF93DF93EC01162F66
:105790006E8D6695617081E06827812F0E947B3154
:1057A00061E0812F0E944231812F90E0FC01E65E92
:1057B000FE4FE491E88BFC01E25DFE4FE491F0E0E6
:1057C000EE0FFF1FE45BFE4F859194919A8B898BBE
:1057D000DF91CF911F9108951F93CF93DF93EC0139
:1057E000162F60E0812F0E9442318E8D81FD04C012
:1057F00061E0812F0E947B311C87812F90E0FC01AA
:10580000E65EFE4FE491ED87FC01E25DFE4FE49120
:10581000F0E0EE0FFF1FEE5BFE4F859194919F87A6
:105820008E87DF91CF911F910895FF920F931F9361
:10583000CF93DF93EC01F62E522F1B821A8208EED3
:1058400013E020E030E00C831D832E833F8385E34B
:1058500093E0998388831F8A1E8A198E188E1B8E67
:105860001A8E1D8E1C8E8E8D8E7F50FB81F98E8F31
:10587000642FCE010E94C32B6F2DCE01DF91CF91FB
:105880001F910F91FF900C94EC2BCF93DF93EC01C1
:105890009A01AB011B8E1A8E198E188E1F8A1E8AD2
:1058A00060E079E08DE390E00E940C32C901243081
:1058B000310520F0B9016350710902C061E070E068
:1058C0007D8F6C8FEC85E63108F068C0B901769564
:1058D00067956431710518F06351710902C061E088
:1058E00070E07F8B6E8B069718F0C901059702C098
:1058F00081E090E0998F888FC901880F991F820FEE
:10590000931F96958795969587958D30910510F004
:105910000C9702C081E090E09B8F8A8F20916800F5
:10592000E83050F091E0EE3008F490E081E001C002
:10593000880F9A95EAF701C084E0822B8093680073
:105940002C85283038F02E3040F0263148F48CE693
:1059500090E008C08DE690E005C08BE690E002C0C4
:1059600080E090E09C8B8B8B283030F481E001C08C
:10597000880F2A95EAF70DC0822F90E02E3010F4A0
:10598000089701C00E9791E001C0990F8A95EAF738
:10599000892F8D8B8C8D9D8D0197F1F7CE01DF9135
:1059A000CF910C94202B8091A00490E02091A10431
:1059B000821B910908952091A1048091A0042817C9
:1059C00050F4E22FF0E0EE55FB4F808190E02F5F26
:1059D0002093A10408958FEF9FEF0895E091A10413
:1059E0008091A004E81730F4F0E0EE55FB4F808181
:1059F00090E008958FEF9FEF08950895CF92DF9282
:105A0000EF92FF920F931F93CF93DF937C01CB0113
:105A10008A0120917C04222389F0EB016B01C40EE2
:105A2000D51ECC15DD0569F06991D701ED91FC918A
:105A30000190F081E02DC7010995F3CF642F0E94FA
:105A40005D2EC801DF91CF911F910F91FF90EF90D4
:105A5000DF90CF900895CF93DF931F92CDB7DEB73D
:105A6000698320917C042223D1F020917D0420328F
:105A700040F021E030E0FC013383228380E090E0BD
:105A800015C080917E04E82FF0E0E158FB4F99812A
:105A900090838F5F80937E0480937D0405C061E0D6
:105AA000CE0101960E945D2E81E090E00F90DF9183
:105AB000CF910895FC011382128248EE53E060E01A
:105AC00070E0448355836683778385E493E0918314
:105AD000808308951092A1041092A00410927E0475
