:100000000C94B2000C94DA000C94DA000C94BB1E31
:100010000C94BB1E0C94BB1E0C94DA000C94DA00FA
:100020000C94DA000C94DA000C94DA000C94DA00E8
:100030000C94DA000C94DA000C94DA000C94DA00D8
:100040000C9429230C94DA000C94D31A0C94051BFD
:100050000C94DA000C94DA000C94DA000C94DA00B8
:100060000C94F8210C94DA005F167216821695161D
:100070009D16C916D116D916E116E816E816E81627
:10008000E816E816E816E816E816E816E816E81680
:10009000E816E816E816E816E816E816E816E81670
:1000A000E816E816E816E8165F166B167216821642
:1000B00095169D16B016B816C016084AD73B3BCE0B
:1000C000016E84BCBFFDC12F3D6C74319ABD568357
:1000D0003DDA3D00C77F11BED9E4BB4C3E916BAA0F
:1000E000AABE000000803F05A84CCDB2D44EB9385E
:1000F00036A9020C50B9918688083CA6AAAA2ABE45
:10010000000000803F000000000800020100000322
:100110000407000000000000000001020408102095
:100120004080010204081020010204081020040489
:10013000040404040404020202020202030303038F
:100140000303000000002300260029000000000037
:10015000250028002B0000000000240027002A00B2
:10016000351B162111241FBECFEFD8E0DEBFCDBF57
:1001700013E0A0E0B1E0EEE0F7E502C005900D92DB
:10018000A431B107D9F724E0A4E1B3E001C01D9286
:10019000A53EB207E1F711E0C4E6D1E004C0229722
:1001A000FE010E946526C036D107C9F70E94C41A15
:1001B0000C94852B0C94000025E531E0FC01318383
:1001C0002083089525E531E0FC01318320830895E3
:1001D00025E531E0FC01318320830C94272325E5BC
:1001E00031E0FC01318320830C9427230F931F936C
:1001F000CF93DF93EC0181E691E0998388837D833F
:100200006C8388E090E00E9425238C010E94600EA0
:100210001B830A83C8010E94920E63E08A819B813E
:100220000E94640E62E08A819B810E947A0E65E0E2
:100230008A819B810E946F0E188A198A1A8A1B8AEA
:100240001C861D861E861F86DF91CF911F910F9100
:100250000895CF92DF92EF92FF92CF93DF93EC015C
:100260009C01265F3F4FAC01485F5F4FBC016A5F56
:100270007F4F8A819B810E94A40E6E817F81882797
:1002800077FD8095982F0E94F42726EF38E24CE9FD
:100290005FE30E94692927ED33EA40E75FE30E94AC
:1002A000692920E030E048EB50E40E948C266B0185
:1002B0007C0168857985882777FD8095982F0E9435
:1002C000F42726EF38E24CE95FE30E9469292BE727
:1002D00034E14EE65FE30E94692928EB3EE146E007
:1002E00052E40E948C26A70196010E94FF266B0112
:1002F0007C016C897D898E899F890E9475029B0192
:10030000AC01C701B6010E948C266B017C0120E084
:1003100030E0A9010E94522787FF0AC02BED3FE081
:1003200049EC50E4C701B6010E948C266B017C01A8
:10033000C701B6010E947C022C813D812115310547
:1003400039F0AB01BC01C9010E9460079B0101C0EB
:100350009B01A901BC014C875D876E877F87DF9178
:10036000CF91FF90EF90DF90CF900895FC01448BE8
:10037000558B668B778B0895FC01408B518B628B7C
:10038000738B0895CF92DF92EF92FF92FC01248548
:1003900035854685578560897189828993890E9450
:1003A0008B266B017C0120E030E044E353EC0E949B
:1003B000522787FF09C020E030E044EB53E4C70137
:1003C000B6010E948C2612C020E030E044E353E4E2
:1003D000C701B6010E945E29181654F420E030E0EF
:1003E00044EB53E4C701B6010E948B266B017C01EC
:1003F000C701B601FF90EF90DF90CF900895CF93A3
:10040000DF93EC016CE071E087E393E00E94B61BA0
:100410004C855D856E857F8522E030E087E393E043
:100420000E94B21D67E171E087E393E00E94B61B72
:10043000488959896A897B8922E030E087E393E023
:100440000E94B21D6AE271E087E393E00E94B61B4E
:10045000CE010E94C201AB01BC0122E030E087E383
:1004600093E0DF91CF910C94B41DCF92DF92EF9285
:10047000FF920F931F93CF93DF936C01EB012FE358
:1004800031E040E050E060E070E0CE010E942D06D7
:10049000C6010E94C2018B019C0184E0E82EF12C70
:1004A00040E050E068E070E0CE010E94480628E499
:1004B00031E041E050E060E070E0CE010E942D06A6
:1004C000F601048515852685378541E050E068E012
:1004D00070E0CE010E944806DF91CF911F910F91ED
:1004E000FF90EF90DF90CF90089525E33AEF4EE82C
:1004F0005CE30E946929089520EE3EE245E652E45D
:100500000E946929089525E531E0FC0131832083AB
:10051000089525E531E0FC01318320830C942723E5
:100520000F931F93CF93DF93EC0181EB91E09983BD
:10053000888383E790E00E9425238C010E94EA13C0
:100540001B830A838FE190E00E9425238C0120E029
:100550004BE06AE00E94871F1D830C8340E855E250
:1005600060E070E0C8010E94B71F4091B202509154
:10057000B3026091B4027091B5024E835F836887C5
:1005800079874A875B876C877D874091AE0250915F
:10059000AF026091B0027091B1024A8B5B8B6C8BA1
:1005A0007D8BDF91CF911F910F910895CF93DF93B2
:1005B000EC018C819D81DC01ED91FC910480F58141
:1005C000E02D0995892B71F18C819D81DC01ED91E4
:1005D000FC910680F781E02D0995682F8A819B8127
:1005E0000E94F1168C819D81DC01ED91FC910480CB
:1005F000F581E02D0995892B39F79E01225F3F4F48
:10060000AE01465F5F4FBE016A5F7F4F8A819B816B
:100610000E94C7178A819B810E9434186A8B7B8B4A
:100620008C8B9D8BDF91CF910895FC016681778142
:10063000808591850895FC01628573858485958503
:100640000895CF92DF92EF92FF921F93CF93DF93A3
:10065000EC01C090B202D090B302E090B402F090EE
:10066000B502A70196016E817F81888599850E94D8
:100670005227882371F011E0A70196016A857B85D6
:100680008C859D850E945227811101C010E0812F29
:1006900001C080E0DF91CF911F91FF90EF90DF903C
:1006A000CF900895CF93DF93EC010E94210388231C
:1006B00091F169E671E087E393E00E94B61B4E81F9
:1006C0005F81688579852FE030E087E393E00E94C1
:1006D000B21D60E771E087E393E00E94B61B4A8594
:1006E0005B856C857D852FE030E087E393E00E9499
:1006F000B21D6AE771E087E393E00E94B61B4E8566
:100700005F85688979892AE030E087E393E0DF91AB
:10071000CF910C94B51C64E871E087E393E0DF911E
:10072000CF910C94D31BCF92DF92EF92FF920F9355
:100730001F93CF93DF936C01EB010E942103882369
:10074000B1F12AE931E040E050E060E070E0CE0134
:100750000E942D06F60106811781208531858FE0E4
:10076000E82EF12C40E050E064E070E0CE010E9401
:1007700048062FE931E041E050E060E070E0CE0152
:100780000E942D06F601028513852485358541E0FA
:1007900050E064E070E0CE010E944806DF91CF9106
:1007A0001F910F91FF90EF90DF90CF90089524EA72
:1007B00031E040E050E060E070E0CE010E942D06A4
:1007C0002EE831E041E050E060E070E0CE01DF91E2
:1007D000CF911F910F91FF90EF90DF90CF900C94ED
:1007E0002D064F925F926F927F928F929F92AF925F
:1007F000BF92CF92DF92EF92FF920F931F93CF930E
:10080000DF93CDB7DEB760970FB6F894DEBF0FBEAB
:10081000CDBF2A013B010D831E832F833887CB0177
:10082000BA010E94750269837A838B839C83C70116
:10083000B6010E94750269877A878B879C87A3011E
:100840009201C701B6010E948B260E9475026B01BE
:100850007C012D813E814F815885C501B4010E94E4
:100860008B260E9475026D837E838F83988720E09C
:1008700030E040E05FE3C701B6010E9469290E94B1
:10088000CC296B017C0169817A818B819C810E94DA
:1008900056272B013C0169857A858B859C850E94B2
:1008A000562769837A838B839C8320E030E040E085
:1008B0005FE36D817E818F8198850E9469290E9406
:1008C000CC294B015C01A7019601C701B6010E942A
:1008D00069296B017C0129813A814B815C81C301CB
:1008E000B2010E9469292B013C01A5019401C501B7
:1008F000B4010E9469299B01AC01C301B2010E94AD
:1009000069299B01AC01C701B6010E948C266B01CD
:100910007C019B01AC0160E070E080E89FE30E94F5
:100920008B260E94D6299B01AC01C701B6012D87F9
:100930003E874F87588B0E94D6292D853E854F854F
:1009400058890E94FF269B01AC010E948C2620E75B
:100950003DE642EC5AE40E94692960960FB6F8948D
:10096000DEBF0FBECDBFDF91CF911F910F91FF90E2
:10097000EF90DF90CF90BF90AF909F908F907F903F
:100980006F905F904F9008958F929F92AF92BF9219
:10099000CF92DF92EF92FF920F931F93CF93DF934B
:1009A000EC016A017B01480159010E94210388235F
:1009B00061F00A851B852C853D854E815F816885A8
:1009C0007985CE010E94F10304C060E070E080E808
:1009D0009FEBDF91CF911F910F91FF90EF90DF90F0
:1009E000CF90BF90AF909F908F9008954F925F925D
:1009F0006F927F928F929F92AF92BF92CF92DF922F
:100A0000EF92FF920F931F93CF93DF93CDB7DEB793
:100A100060970FB6F894DEBF0FBECDBF09831A836F
:100A20002B833C83CB01BA010E9475022B013C0150
:100A3000C701B6010E9475026B017C0129813A81D0
:100A40004B815C81C501B4010E948B260E94750216
:100A50004B015C010E94CC296D837E838F83988734
:100A6000C701B6010E94562769837A838B839C83D2
:100A7000C301B2010E94562769877A878B879C87BA
:100A8000C701B6010E94CC299B01AC01C301B20190
:100A90002D873E874F87588B0E94CC296B017C01A4
:100AA000C501B4010E9456272B013C012D853E85CE
:100AB0004F85588969857A858B859C850E9469292F
:100AC0004B015C0129813A814B815C81C701B601F0
:100AD0000E946929A30192010E9469299B01AC012E
:100AE000C501B4010E948B266B017C0129813A81EA
:100AF0004B815C816D817E818F8198850E946929FF
:100B0000A70196010E94FF260E947C0220E030E0AF
:100B100044EB53E40E948C2620E030E044EB53E4A5
:100B200060960FB6F894DEBF0FBECDBFDF91CF91B8
:100B30001F910F91FF90EF90DF90CF90BF90AF90FB
:100B40009F908F907F906F905F904F900C9436287D
:100B50008F929F92AF92BF92CF92DF92EF92FF92CD
:100B60000F931F93CF93DF93EC016A017B01480140
:100B700059010E942103882361F00A851B852C8579
:100B80003D854E815F8168857985CE010E94F6049E
:100B900004C060E070E080E89FEBDF91CF911F918F
:100BA0000F91FF90EF90DF90CF90BF90AF909F900C
:100BB0008F9008956F927F928F92AF92CF92EF9223
:100BC0000F93CF93DF93EC0189E190E00E942523FE
:100BD0003C0187E0882E96E0A92E25E0C22E34E065
:100BE000E32E00E021E042E067E2C3010E941D1A0B
:100BF00079826882D301ED91FC910480F581E02D2A
:100C000020E042E064E1C301099588819981DC011B
:100C1000ED91FC910680F781E02D40E050E063E02B
:100C2000099588819981DC01ED91FC910084F18521
:100C3000E02D61E0099588819981DF91CF910F9135
:100C4000EF90CF90AF908F907F906F900C94D018D2
:100C5000FC01808191810C94C9180F931F93CF934D
:100C6000DF93EC0189014230510568F48881998154
:100C70000E94D718B80188819981DF91CF911F9187
:100C80000F910C94B61BDF91CF911F910F91089596
:100C90008F929F92AF92BF92EF92FF920F931F930A
:100CA000CF93DF93EC014801590142305105A8F47C
:100CB000888199810E94D7189701B501A401888184
:100CC0009981DF91CF911F910F91FF90EF90BF908D
:100CD000AF909F908F900C94B21DDF91CF911F9198
:100CE0000F91FF90EF90BF90AF909F908F900895DD
:100CF000CF92DF92EF92FF920F931F93CF93DF93E8
:100D0000EC017B018A011982188288E090E09B83C4
:100D10008A831D821C8280E190E00E9425236C0161
:100D20008883D982FA86E9860C171D0709F482C0E8
:100D3000D80114968D919C9115974A815B81481733
:100D4000590720F59B838A83880F991F0E942523CA
:100D5000998388834C815D81F60120E030E024177F
:100D6000350789F0A881B981B901660F771FA60FF1
:100D7000B71F109721F0608171816D937C932F5F75
:100D80003F4F3296ECCFC6010E9427238C819D8174
:100D9000F80144815581BA018417950708F4BC0114
:100DA00020E030E02617370799F06901CC0CDD1CF4
:100DB000D801ED91FC91EC0DFD1DE080F180E88102
:100DC000F981EC0DFD1DF182E0822F5F3F4FEACFEC
:100DD0008417950758F0F801848195812C813D8115
:100DE0008217930738F59D838C8324C09C01220FC2
:100DF000331FD80114964D915C9115978417950770
:100E000050F7F801A081B181A20FB31FE881F981E9
:100E1000E20FF31F309721F04D915C915183408395
:100E20004C815D814F5F5F4F5D834C8301962E5FE8
:100E30003F4FDFCF18861F82DF91CF911F910F9117
:100E4000FF90EF90DF90CF9008950F931F93CF9373
:100E5000DF93EC0189859A85009711F10E9428069D
:100E60000F8118858C819D810817190720F089EB67
:100E700091E00E94B91A000F111FE881F981E00F7B
:100E8000F11F80819181DC01ED91FC9169857A856A
:100E90000680F781E02DDF91CF911F910F9109948A
:100EA000DF91CF911F910F910895FC01878190856B
:100EB0000196648175810E94FA2590878783089541
:100EC0008F929F92AF92BF92CF92DF92EF92FF925A
:100ED000CF93DF93EC01CB01BA01688B798B8A8BBE
:100EE0009B8BC880D980EA80FB80A70196010E9475
:100EF00069294B015C01A701960160E070E080E880
:100F00009FE30E948B262C853D854E855F850E9440
:100F100069299B01AC01C501B4010E948C266C8734
:100F20007D878E879F87DF91CF91FF90EF90DF9035
:100F3000CF90BF90AF909F908F90089525E531E0BE
:100F4000FC0131832083089525E531E0FC013183E4
:100F500020830C942723CF93DF93EC0168E172E0A8
:100F600087E393E00E94B61B6E897F894AE050E0D8
:100F700087E393E00E94881C6EE172E087E393E0D0
:100F80000E94B61B688D798D4AE050E087E393E0BC
:100F9000DF91CF910C94901CCF92DF92EF92FF9251
:100FA0000F931F93CF93DF936C01EB0127E232E0A5
:100FB00040E050E060E070E0CE010E942D06F601B6
:100FC00066897789882777FD8095982F0E94F42776
:100FD0008B019C01EE24E394F12C40E050E066E0AC
:100FE00070E0CE010E9448062EE232E041E050E07F
:100FF00060E070E0CE010E942D06F601608D718DDB
:10100000882777FD8095982F0E94F4278B019C01FB
:1010100041E050E066E070E0CE010E944806DF91BA
:10102000CF911F910F91FF90EF90DF90CF90089597
:101030002F923F924F925F926F927F928F929F92E8
:10104000AF92BF92CF92DF92EF92FF920F931F93D6
:10105000CF93DF93CDB7DEB73C01862F2D883E8836
:101060004F88588CEAE3F2E0D3011196FC93EE939B
:1010700057961C921E92569759961C921E925897FC
:10108000F30186869786A08AB18A52962D923D9268
:101090004D925C92559712966C93129713967C938F
:1010A000139715965C934E93149717963C932E9333
:1010B000169719961C930E9318971B96FC92EE9216
:1010C0001A971D96DC92CE921C9761E00E9497249D
:1010D00061E0F30184810E94972461E0D3011696B8
:1010E0008C910E94972461E0F30180850E949724EF
:1010F00061E0D3011A968C910E94972461E0F3017C
:101100008485DF91CF911F910F91FF90EF90DF9039
:10111000CF90BF90AF909F908F907F906F905F9097
:101120004F903F902F900C949724CF93DF93EC0136
:10113000CB016F3F710519F014F08FEF90E09F8B9A
:101140008E8BCA014F3F510519F014F08FEF90E0DC
:10115000998F888F61E0181619060CF060E08A8577
:101160000E94D02461E0888D998D181619060CF420
:1011700060E08C850E94D02461E08E899F891816DA
:1011800019060CF060E08C810E94D02461E08E8909
:101190009F89181619060CF460E08E810E94D024F5
:1011A0006E897F89882777FD8095982F0E94F42784
:1011B0002E853F85488959890E9469290E94C12747
:1011C0008A810E940F24688D798D882777FD80950C
:1011D000982F0E94F4272A893B894C895D890E94B7
:1011E00069290E94C1278885DF91CF910C940F2433
:1011F000CF92DF92EF92FF920F931F93CF93DF93E3
:101200008C016A017B01E90120E030E0A901C701FE
:10121000B6010E945E2918168CF4A701960160E0C1
:1012200070E08FE793E40E948B260E94C1276C1721
:101230007D070CF4BE014FEF50E011C020E030E01C
:101240004FE753E4C701B6010E948C260E94C127D4
:10125000AB016C177D070CF4AE016FEF70E0C801B5
:10126000DF91CF911F910F91FF90EF90DF90CF9082
:101270000C949508AF92BF92CF92DF92EF92FF92BB
:101280000F931F93CF93DF931F92CDB7DEB75C010F
:101290008B0177FF02C000E010E061E0F50184817E
:1012A00049830E94D02460E0F50186810E94D02409
:1012B00060E0F50182850E94D02461E0F50184851B
:1012C0000E94D0244981442391F06FEF70E0F50132
:1012D00082810E940F246FEF70E0F50180850E94EB
:1012E0000F2464E670E080E090E00E94A223B80141
:1012F000882777FD8095982F0E94F4276B017C0149
:10130000F50126853785408951890E9469290E9407
:10131000C127F50182810E940F24F50122893389BA
:1013200044895589C701B6010E9469290E94C127D5
:10133000F50180850E940F24F501178B068B11950E
:1013400001951109118F008F0F90DF91CF911F919F
:101350000F91FF90EF90DF90CF90BF90AF900895E6
:10136000AF92BF92CF92DF92EF92FF920F931F93B3
:10137000CF93DF931F92CDB7DEB75C018B0177FF70
:1013800002C000E010E060E0F501848149830E9422
:10139000D02461E0F50186810E94D02461E0F5014E
:1013A00082850E94D02460E0F50184850E94D024CB
:1013B0004981442391F06FEF70E0F50182810E9432
:1013C0000F246FEF70E0F50180850E940F2464E622
:1013D00070E080E090E00E94A223B801882777FDAA
:1013E0008095982F0E94F4276B017C01F5012685DA
:1013F0003785408951890E9469290E94C127F501DA
:1014000082810E940F24F5012289338944895589FC
:10141000C701B6010E9469290E94C127F501808594
:101420000E940F2488279927801B910BF501978B29
:10143000868B118F008F0F90DF91CF911F910F91AD
:10144000FF90EF90DF90CF90BF90AF900895CF9333
:10145000DF93EC0160E08C810E94D02460E08E81FB
:101460000E94D02460E08A850E94D02460E08C85B0
:101470000E94D02461E08A810E94D02461E08885A6
:101480000E94D0241F8A1E8A198E188EDF91CF9158
:10149000089525E531E0FC0131832083089525E599
:1014A00031E0FC01318320830C9427230F931F9399
:1014B000CF93DF93EC0162E472E087E393E00E9454
:1014C000B61B8E010E5F1F4FC8010E94D813AB01DF
:1014D000BC0122E030E087E393E00E94B21D68E4A3
:1014E00072E087E393E00E94B61BC8010E94DE13FE
:1014F000AB01BC0122E030E087E393E00E94B21D23
:1015000060E572E087E393E00E94B61BC8010E9489
:10151000E413AB01BC0122E030E087E393E00E94DA
:10152000B21D68E572E087E393E00E94B61BEF9678
:10153000488159816A817B8122E030E087E393E032
:10154000DF91CF911F910F910C94B41DAF92BF9278
:10155000CF92DF92EF92FF920F931F93CF93DF937F
:101560006C01EB0125E632E040E050E060E070E025
:10157000CE010E942D06560182E0A80EB11CC501C5
:101580000E94D8138B019C0182E0E82EF12C40E0F0
:1015900050E063E070E0CE010E94480629E632E0A8
:1015A00040E050E069E070E0CE010E942D06C501E8
:1015B0000E94DE138B019C0140E050E06CE070E083
:1015C000CE010E9448062DE632E041E050E060E0A6
:1015D00070E0CE010E942D06C5010E94E4138B012C
:1015E0009C0141E050E063E070E0CE010E944806BB
:1015F00021E732E041E050E069E070E0CE010E9476
:101600002D06F601FF96008111812281338141E090
:1016100050E06BE070E0CE010E944806DF91CF9170
:101620001F910F91FF90EF90DF90CF90BF90AF9000
:101630000895AF92BF92CF92DF92EF92FF920F93F5
:101640001F93CF93DF93EC01DC01AD5BBF4FFC0137
:10165000FF96CB961F921F92FF92EF92DF92CF924E
:10166000580169017A018B019D01AF01BC01C99745
:101670000E946B1388E792E0998388830F900F9004
:101680000F900F900F900F90DF91CF911F910F91BE
:10169000FF90EF90DF90CF90BF90AF900895FC0146
:1016A00043AF54AF65AF76AF0895CF96FC0160812C
:1016B0007181828193810895FC01858596850C94C2
:1016C0005507FC01858596850C942507CF92DF92FE
:1016D000EF92FF92CF93DF93EC01CF84D888E98813
:1016E000FA888B819C810E9415039B01AC01C70184
:1016F000B6010E945227811110C0CB88DC88ED888A
:10170000FE888B819C810E941B039B01AC01C70159
:10171000B6010E945227882389F08B819C810E9408
:1017200015036F87788B898B9A8B8B819C810E94A4
:101730001B036B8B7C8B8D8B9E8B81E0DF91CF911C
:10174000FF90EF90DF90CF9008950F931F9306E4E2
:1017500019E825E931E447E354E366E372E4FC0168
:10176000838194810E94C40420E030E040EA50E488
:101770000E945227881F8827881F1F910F91089564
:10178000CF93DF93EC0181E0888340E06FEF70E05E
:101790008D819E810E94B00960ED77E080E090E04D
:1017A0000E94A2238D819E810E94270A64EF71E02E
:1017B00080E090E00E94A22340E06FEF70E08D8116
:1017C0009E810E943A0960ED77E080E090E00E94FF
:1017D000A2238D819E81DF91CF910C94270A0F93D4
:1017E0001F93CF93DF93EC0106E419E825E931E478
:1017F00047E354E366E372E48B819C810E94A80571
:10180000AB01BC018B859C85DF91CF911F910F911E
:101810000C94BC01CF93DF93EC018B859C850E94D7
:1018200029018B859C850E94C201AB01BC01898581
:101830009A850E944F0B89859A8502960E943210E4
:1018400089859A850E94550BAB01BC012AE030E0E6
:101850008D819E81DF91CF910C94F808CF93DF9317
:10186000EC018B819C810E9421038823B9F0CE0179
:101870000E94660B882369F0CE010E94A50B882385
:1018800029F0CE01DF91CF910C94C00BCE010E94C4
:10189000EF0BCE01DF91CF910C940A0CDF91CF9129
:1018A0000895CF92DF92EF92FF92CF93DF93EC01F6
:1018B0008881811154C08B819C810E94D6020E9434
:1018C00073236B017C014F8D58A169A17AA1D701C7
:1018D000C601841B950BA60BB70BAC01BD014838A4
:1018E00053416105710538F0CF8ED8A2E9A2FAA262
:1018F000CE010E945C0B4F89588D698D7A8DD7017E
:10190000C601841B950BA60BB70BAC01BD01483E6D
:1019100053406105710538F0CF8AD88EE98EFA8E72
:10192000CE010E94610B4B8D5C8D6D8D7E8DD7013C
:10193000C601841B950BA60BB70B82339105A1053D
:10194000B10568F0CB8EDC8EED8EFE8ECE01DF9180
:10195000CF91FF90EF90DF90CF900C942E0CDF9101
:10196000CF91FF90EF90DF90CF900895CF92DF92CC
:10197000EF92FF920F931F93CF93DF93EC017B01C4
:101980008C819D818C010F5F1F4F8017910708F09C
:1019900046C04A815B814017510750F509964817A8
:1019A000590730F5C880D9809B838A83880F991F97
:1019B0000E942523998388834C815D81F60120E074
:1019C00030E02417350789F0A881B981B901660F85
:1019D000771FA60FB71F109721F0608171816D935B
:1019E0007C932F5F3F4F3296ECCFC6010E94272396
:1019F0008C819D819C01220F331F8017910790F4E9
:101A0000E881F981E20FF31F309729F0D7014D915A
:101A10005C915183408301962E5F3F4FEECF0817B4
:101A2000190710F41D830C83DF91CF911F910F9143
:101A3000FF90EF90DF90CF9008954F925F926F925A
:101A40007F928F929F92AF92BF92CF92DF92EF924E
:101A5000FF920F931F93CF93DF93CDB7DEB72E97EF
:101A60000FB6F894DEBF0FBECDBF3C0164E670E058
:101A700080E090E00E94A22388E190E00E9425236C
:101A80004C0160E070E00E94F600F30194868386CA
:101A90004DED5DED65E870E4C4010E94B60186E19C
:101AA00090E00E9425234C010E949002F301948251
:101AB00083828AE190E00E9425232C018FE38F939B
:101AC00080E88F931F921F92812C912CE0E8AE2E1C
:101AD000EFE3BE2EF7E0CF2ED12CA5E0EA2EF12CBD
:101AE00006E010E024E030E042E050E063E070E027
:101AF000C2010E941808F3015682458287E490E0F3
:101B00000E9425234C01A12CB12CBFE8CB2EB2ECB6
:101B1000DB2EB5EFEB2EBDE3FB2E0AE017ED23E243
:101B20003CE340E050E060E771E40E94190BF301F0
:101B30009286818661E070E0C40102960E941913CA
:101B4000F3018185928500E010E02FE733E440E067
:101B500050E06FE773EC02960E945312F301818507
:101B6000928562E370E002960E94051282E090E0A6
:101B70000E9425234C010E94DA05F30192828182A2
:101B80001986188688E090E09B878A871D861C86C8
:101B900080E190E00E94252399878887F301838163
:101BA00094810F900F900F900F90009749F09A83B7
:101BB0008983BE016F5F7F4FCE0108960E94B60CED
:101BC000F30183859485009749F09A838983BE0148
:101BD0006F5F7F4FCE0108960E94B60CF30181859E
:101BE0009285009749F09A838983BE016F5F7F4F8A
:101BF000CE0108960E94B60CF3018581968100976C
:101C000049F09A838983BE016F5F7F4FCE010896AA
:101C10000E94B60C8C859D859E838D8308969C833F
:101C20008B83880F991F0E9425239A8389834D8176
:101C30005E8180E090E08417950799F0A885B985CA
:101C40009C01220F331FA20FB31FE981FA81E20F1B
:101C5000F31F309721F02D913C9131832083019621
:101C6000EACF8BE090E00E9425234C01F3016181D3
:101C70007281AE014F5F5F4F0E947806F301968636
:101C8000858689819A810E942723888599850E946B
:101C900027232E960FB6F894DEBF0FBECDBFDF917F
:101CA000CF911F910F91FF90EF90DF90CF90BF9059
:101CB000AF909F908F907F906F905F904F9008951E
:101CC0002EE1FC01208308950F93062F22E046E0C9
:101CD00060E0FC0180810E94EC0F0F9108950F934A
:101CE000062F23E044E060E0FC0180810E94EC0FBD
:101CF0000F910895462F4295440F407E61E0FC010C
:101D000080810C94250F1F93CF93DF93EC01162F46
:101D1000462F62E088810E94250F1F83DF91CF91BB
:101D20001F910895CF93DF93EC0140E760E0888135
:101D30000E94250F61E0CE010E947A0E61E0CE0183
:101D4000DF91CF910C94830EAF92BF92CF92DF922E
:101D5000EF92FF920F931F93CF93DF93EC017B01E0
:101D60005A01690100910A0110910B019C012F5F3A
:101D70003F4F46E063E088810E94350F8F818130BC
:101D800029F441E062E088810E94250F898190E07A
:101D9000982F88272A81822BF701918380838D8158
:101DA00090E0982F88272E81822BF50191838083E4
:101DB0008B8190E0982F88272C81822BF6019183CC
:101DC0008083DF91CF911F910F91FF90EF90DF9073
:101DD000CF90BF90AF900895EF92FF920F931F9313
:101DE000CF93DF9300D0CDB7DEB7062F142F682F27
:101DF00088E194E029833A830E94F620602F88E1ED
:101E000094E00E949D202981022FE22E3A81F32E38
:101E10008E2D801B811740F4F70161917F0188E1CD
:101E200094E00E949D20F4CF88E194E00E94132169
:101E300091E0811190E0892F0F900F90DF91CF9169
:101E40001F910F91FF90EF900895CF93DF931F9212
:101E5000CDB7DEB749839E012F5F3F4F41E00E941F
:101E6000EC0E0F90DF91CF9108953F924F925F92C9
:101E70006F927F928F929F92AF92BF92CF92DF929A
:101E8000EF92FF920F931F93CF93DF9300D000D078
:101E900000D0CDB7DEB7682E562E742E3A83298334
:101EA0000E9473236B017C01312C412C872D90E023
:101EB0009C838B834801A12CB12C3714B0F5662D7F
:101EC00088E194E00E94F620652D88E194E00E946C
:101ED0009D2088E194E00E941321662D88E194E022
:101EE0000E94F6204B815C81431951094132510512
:101EF00014F040E250E0662D88E194E00E94F32067
:101F000088E194E00E944520892B59F101151105C3
:101F100079F10E9473236C197D098E099F09681558
:101F200079058A059B0520F11CC00115110589F171
:101F30000E9473236C197D098E099F0920E030E00F
:101F4000601771078207930720F1872D90E0242DF9
:101F5000332727FD309528173907DCF444244A94A9
:101F600018C0872D90E2971508F480E2380EA5CFAF
:101F7000E981FA81E40DF11D47FCFA95FE83ED83BA
:101F800088E194E00E944D20ED81FE81808343949E
:101F9000B7CF842D26960FB6F894DEBF0FBECDBF07
:101FA000DF91CF911F910F91FF90EF90DF90CF9035
:101FB000BF90AF909F908F907F906F905F904F9069
:101FC0003F9008950F931F9389019A0141E00E9469
:101FD000350F1F910F910895DF92EF92FF920F93AB
:101FE0001F93CF93DF931F92CDB7DEB7F82EE62E67
:101FF000D42E122F20910A0130910B01AE014F5FB8
:102000005F4F0E94E20F882319F14D2D50E0411BD4
:1020100051094F5F5F4FE1E0F0E002C0EE0FFF1F9C
:102020001A95E2F73197042E01C0EE0F0A94EAF7F1
:1020300001C0000F4A95EAF74E2F40958981482349
:10204000E0234E2B49836E2D8F2D0E94250F01C05A
:1020500080E00F90DF91CF911F910F91FF90EF9053
:10206000DF9008952F923F924F925F926F927F92EE
:102070008F929F92AF92BF92CF92DF92EF92FF9298
:102080000F931F93CF93DF93CDB7DEB72B970FB688
:10209000F894DEBF0FBECDBF9B878A87DC01D89640
:1020A000BC91B983B11102C01982E2C00E947323AE
:1020B0006A837B838C839D83EA85FB8580A191A1C4
:1020C000A2A1B3A14A815B816C817D81481B590B20
:1020D0006A0B7B0B84A595A5A6A5B7A5481759073C
:1020E0006A077B0708F3028CF38DE02D80809180D6
:1020F000A280B380AA85BB855E96ED91FC915F9727
:10210000A501940160817181828193810E948B2657
:102110002B013C01EA85FB8520893189428953895D
:102120000E946929AA85BB8594962D913D914D9178
:102130005C9197970E948C266B017C01EA85FB8558
:1021400064A375A386A397A324A835A806A917A9F5
:102150009101A8010E945E2918161CF4C101D80142
:1021600018C0AA85BB85D0968D919D910D90BC918C
:10217000A02D8E839F83A887B9879C01AD01C701DD
:10218000B6010E94522787FF0AC08E819F81A885D1
:10219000B985EA85FB8584A395A3A6A3B7A3AA85E1
:1021A000BB851C962D913D914D915C911F97C3016C
:1021B000B2010E946929EA85FB8524A135A146A1C7
:1021C00057A10E948C266B017C01AA85BB8598963D
:1021D0002D913D914D915C919B97C501B4010E9459
:1021E0008B26EA85FB8524893589468957890E9493
:1021F00069299B01AC01C701B6010E948B266B01C6
:102200007C019101A8010E945E291816BCF0AA85E4
:10221000BB85D0962C90D097D1963C90D197D296F2
:102220000C91D297D3961C919101A801B601C701D8
:102230000E94522787FD02C016018701AA85BB852F
:102240005C96ED91FC915D97C101D80180839183EB
:10225000A283B383EA85FB8580A691A6A2A6B3A636
:102260008A819B81AC81BD8180A391A3A2A3B3A3EA
:1022700089812B960FB6F894DEBF0FBECDBFDF91DC
:10228000CF911F910F91FF90EF90DF90CF90BF9073
:10229000AF909F908F907F906F905F904F903F9006
:1022A0002F9008952F923F924F925F926F927F925C
:1022B0008F929F92AF92BF92CF92DF92EF92FF9256
:1022C0000F931F93CF93DF9300D000D0CDB7DEB72D
:1022D0001C012A013B014801590120E030E0A9011D
:1022E000C301B2010E94522787FD78C020E030E090
:1022F000A901C501B4010E94522787FD6FC020E0EB
:1023000030E0A901C701B6010E94522787FD66C0CF
:10231000F101408251826282738284829582A68218
:10232000B782C086D186E286F38664A575A586A5A8
:1023300097A50E94F22720E030E04AE754E40E948B
:10234000592769837A838B839C83F1014486558660
:10235000668677869B01AC01C501B4010E9469299C
:102360004B015C01F101608B718B828B938B298116
:102370003A814B815C81C701B6010E9459276B01EC
:102380007C01F101648B758B868B978B808D918D91
:10239000019721F5A301920160E070E0CB010E945A
:1023A0008B26F1016487758786879787A50194013D
:1023B00060E070E0CB010E948B26F101608B718B95
:1023C000828B938BA701960160E070E0CB010E94A5
:1023D0008B26F101648B758B868B978B0F900F90FA
:1023E0000F900F90DF91CF911F910F91FF90EF9081
:1023F000DF90CF90BF90AF909F908F907F906F9025
:102400005F904F903F902F9008958F929F92AF9240
:10241000BF92CF92DF92EF92FF92CF93DF93EC01C6
:1024200016161706ACF56B01EE24D7FCE094FE2CD3
:10243000C701B6010E94F4274B015C016CA57DA584
:102440008EA59FA50E94F2279B01AC01C501B40196
:102450000E9459274B015C019B01AC016889798975
:102460008A899B890E946929688B798B8A8B9B8BCF
:10247000A50194016C897D898E899F890E945927C5
:102480006C8B7D8B8E8B9F8BCCA6DDA6EEA6FFA6DC
:10249000DF91CF91FF90EF90DF90CF90BF90AF9002
:1024A0009F908F9008952F923F924F925F926F92DC
:1024B0007F928F929F92AF92BF92CF92DF92EF92D4
:1024C000FF920F931F93CF93DF93EC016A017B017F
:1024D00048015901A9019801C701B6010E945E296E
:1024E00087FF4EC0C8AAD9AAEAAAFBAA8CAA9DAAAD
:1024F000AEAABFAA88AD882309F442C02C8C3D8CBB
:10250000F1014080518062807380A5019401C30174
:10251000B2010E945E29181634F4F1018082918282
:10252000A282B3820DC0A7019601C301B2010E942D
:10253000522787FF05C0F101C082D182E282F38277
:102540008CA09DA0AEA0BFA0CCA8DDA8EEA8FFA83F
:10255000A7019601C501B4010E945E29181664F016
:10256000C8A8D9A8EAA8FBA8A7019601C501B4018B
:102570000E94522787FF04C0CCA2DDA2EEA2FFA2D8
:10258000DF91CF911F910F91FF90EF90DF90CF904F
:10259000BF90AF909F908F907F906F905F904F9083
:1025A0003F902F9008958F929F92AF92BF92CF92BB
:1025B000DF92EF92FF92CF93DF93EC01EC8DFD8DD4
:1025C000C080D180E280F380CCA2DDA2EEA2FFA287
:1025D000EA8DFB8D80819181A281B38188A799A723
:1025E000AAA7BBA78CA89DA8AEA8BFA8A5019401C7
:1025F000C701B6010E945E29181664F088A899A840
:10260000AAA8BBA8A5019401C701B6010E94522740
:1026100087FF04C08CA29DA2AEA2BFA2DF91CF9182
:10262000FF90EF90DF90CF90BF90AF909F908F90F2
:1026300008951F93CF93DF93EC0111E06130710592
:1026400009F010E088AD91E08927181303C0CE018E
:102650000E94D31218AFDF91CF911F9108950F936D
:102660001F93CF93DF93EC018B0188AD882361F139
:10267000888D998D6817790739F12C853D854E85B0
:102680005F8560E070E0CB010E948B266C877D87C0
:102690008E879F87288939894A895B8960E070E045
:1026A000CB010E948B26688B798B8A8B9B8B2C8924
:1026B0003D894E895F8960E070E0CB010E948B26E6
:1026C0006C8B7D8B8E8B9F8B198F088FDF91CF91B9
:1026D0001F910F9108954F925F926F927F928F9208
:1026E0009F92AF92BF92CF92DF92EF92FF920F93A1
:1026F0001F93CF93DF9300D000D0CDB7DEB74C014E
:1027000027013801A982BA82CB82DC82FC01558F75
:10271000448F738F628F378F268F10AE10AA11AA45
:1027200012AA13AA80E090E0AFE7B3E484AB95ABC4
:10273000A6ABB7AB84E690E0A0E0B0E084A795A795
:10274000A6A7B7A76B8D7C8DC4010E942F13CF88DD
:10275000D88CE98CFA8C09811A812B813C81B301D8
:10276000A201C4010E9452110E947323F40144A4E7
:1027700055A466A477A4641975098609970960A30E
:1027800071A382A393A30F900F900F900F90DF91EE
:10279000CF911F910F91FF90EF90DF90CF90BF905E
:1027A000AF909F908F907F906F905F904F90089523
:1027B000FC0160817181828193810895FC016481B3
:1027C0007581868197810895FC0160857185828578
:1027D000938508950F931F93FC010FEF1FEF98014E
:1027E0000083118322833383108611861286138619
:1027F0004FEF59EC6AE97BE3408B518B628B738B13
:10280000408F518F628F738F40A351A362A373A334
:1028100040A751A762A773A740AB51AB62AB73ABA4
:1028200000AF11AF22AF33AFDC01A05CBF4F8FEF21
:1028300090E011969C938E9314960D931D932D9377
:102840003C93139718960D931D932D933C931397D8
:1028500018961C9211961C92509682E08C931196B9
:102860001C9211961C9211961C9211961D921D920B
:102870001D921C921397149611961C921E921296FA
:102880001D921C92EA5AFF4F10821F910F910895DA
:102890002FEB260F862F992787FD9095263010F471
:1028A000C79708956156663018F4875591090895C1
:1028B000C09708950F931F93FB0160E070E0CB0178
:1028C000019120ED200F2A30A0F4AAE0B0E09B0196
:1028D000AC010E946926112707FD1095212F312F89
:1028E000600F711F821F931F605371098109910945
:1028F000E7CF1F910F9108950F931F93CF93FC0182
:10290000EA5AFF4FC1E020812D3219F0C0E08F015B
:1029100003C08C01095A1F4FB8010E945A149B0131
:10292000AC01A4E6B0E00E946926F801DF01219124
:1029300030ED320F3A30D0F32E3269F511962C91EA
:10294000119730ED320F3A3030F5332727FD3095AF
:10295000205331094AE0429F8001439F100D11240A
:10296000222717FD2095322F600F711F821F931FA2
:1029700012960C9120ED200F2A3068F4112707FDE4
:10298000109500531109222717FD2095322F600F53
:10299000711F821F931FCC2339F0909580957095FD
:1029A00061957F4F8F4F9F4FCF911F910F9108954A
:1029B0004F925F926F927F928F929F92AF92BF924F
:1029C000CF92DF92EF92FF92CF93DF93EC01CA5A3E
:1029D000DF4FBE010E945A142B013C0124E630E077
:1029E00040E050E00E9422269B01AC0160EA76E8BC
:1029F00081E090E00E94EA256B017C01FE0181915B
:102A000090ED980F9A30D8F38E3219F5EF0180E1EE
:102A1000882E87E2982EA12CB12CA99180ED8A0FE7
:102A20008A30B8F4BB27A7FDB095D097A5019401D3
:102A30000E947426C60ED71EE81EF91EC501B401F9
:102A40002AE030E040E050E00E94222649015A018D
:102A5000E4CFC701B6016D5F7F4F8F4F9F4F26E0D8
:102A600030E040E050E00E94222669017A01C30173
:102A7000B20124E630E040E050E00E94222660E40B
:102A800072E48FE090E00E94EA25C60ED71EE81E91
:102A9000F91EC701B601DF91CF91FF90EF90DF9053
:102AA000CF90BF90AF909F908F907F906F905F90EE
:102AB0004F900895DB01FA018D91882319F09191CF
:102AC0008917D1F3992787FD90950895CF92DF92CA
:102AD000EF92FF921F93CF93DF93EC01FC01EB5A2F
:102AE000FF4F1081112309F4A9C0319660810E9423
:102AF0004814182FFE01E95AFF4F6081CE010E9451
:102B0000481440E1149F800D1124FE01EC5AFF4F40
:102B1000908189138AC074961081112309F458C1D9
:102B2000359680819181019691838083B5978081CC
:102B30009181A281B381349780839183A283B383EF
:102B40003C9680819181A281B38134978083918367
:102B5000A283B383799680818823A1F1813009F023
:102B600037C18C819D81AE81BF8188839983AA837F
:102B7000BB838C859D85AE85BF8588879987AA870D
:102B8000BB878C899D89AE89BF89888B998BAA8BDD
:102B9000BB8B8C8D9D8DAE8DBF8D888F998FAA8FAD
:102BA000BB8F8CA59DA5AEA5BFA588A799A7AAA7F1
:102BB000BBA78CA99DA9AEA9BFA988AB99ABAAABAD
:102BC000BBAB06C18CA19DA1AEA1BFA188A399A357
:102BD000AAA3BBA38C819D81AE81BF818883998389
:102BE000AA83BB838C899D89AE89BF89888B998B89
:102BF000AA8BBB8B8C8D9D8DAE8DBF8D888F998F51
:102C0000AA8FBB8FFE01E05CFF4FDE01AE5BBF4FC2
:102C10008D919C91918380838CAD9DADAEADBFAD08
:102C200088AF99AFAAAFBBAFD3C0C159DF4F88817E
:102C3000998101969983888310E0CAC0FC01EA5902
:102C4000FF4F30818B599F4F7C0131111DC06E01A8
:102C500096E5C90ED11C40E852E0B601CE010E94B3
:102C60005A15892B11F481E00CC046E852E0B601F8
:102C7000CE010E945A15892B19F4F7011082A8C0C1
:102C800082E0D7018C93A4C0DC01EC91E23009F41E
:102C90009FC0CE018A5A9F4FDC012C91222309F458
:102CA00097C0B0E2EB9FF0011124E32B3197E9329A
:102CB000F10508F08DC0EC5CFF4F0C946326CE014B
:102CC0000E947C146C837D838E839F830E94732378
:102CD000C85BDF4F12C0C859DF4F81E0213409F0D3
:102CE0005DC05DC0CE010E94D8146C8B7D8B8E8B35
:102CF0009F8B0E947323C05BDF4F688379838A8335
:102D00009B8366C0233509F063C08C899D89AE8999
:102D1000BF89B095A095909581959F4FAF4FBF4FBC
:102D20008C8B9D8BAE8BBF8B53C0CE010E94D81471
:102D30006C8F7D8F8E8F9F8F4BC0273509F048C0D9
:102D40008C8D9D8DAE8DBF8DB095A0959095819504
:102D50009F4FAF4FBF4F8C8F9D8FAE8FBF8F38C0AF
:102D6000CE010E947C146CA77DA78EA79FA730C0C0
:102D7000CE010E947C146CAB7DAB8EAB9FAB28C0A8
:102D8000BC01CE010E945A146C877D878E879F8775
:102D90001FC0C859DF4F81E021330CF480E08883E5
:102DA00017C00E945F2BCE5BDF4F992799838883E2
:102DB0000FC0CE010E947C146CAF7DAF8EAF9FAF71
:102DC00007C0CE010E947C146CA37DA38EA39FA399
:102DD000812FDF91CF911F91FF90EF90DF90CF90E7
:102DE0000895CF92DF92EF92FF920F931F93CF93AC
:102DF000DF931F92CDB7DEB76C01262FFC01E75998
:102E0000FF4F40815181628173814F5F5F4F6F4FF0
:102E10007F4F40835183628373838C0109591F4F15
:102E20008B5A9F4F7C01243281F12CF42A3069F0B7
:102E30002D30E9F50AC02A3241F02C32C1F5F601F5
:102E4000EC5AFF4F808182278083F80180818F3088
:102E500060F4F601E80FF11DEA5AFF4F1082C60137
:102E600029830E946615298101C080E0F601EA5994
:102E7000FF4F90819F5F9083F801108291E02A328A
:102E800009F090E0F70190832AC0F8011082F60162
:102E9000EA59FF4F108272971082719682E0808308
:102EA000F7011082F601E859FF4F108217C0F801B0
:102EB00080818E3048F491E0980F9083F601E80FFE
:102EC000F11DEA5AFF4F2083F7018081811106C06E
:102ED000F601EC5AFF4F80818227808380E00F90BB
:102EE000DF91CF911F910F91FF90EF90DF90CF90E6
:102EF0000895CF92DF92EF92FF920F931F93CF939B
:102F0000DF93E9016115710551F0FC01C088D1889A
:102F1000E288F388FB01C082D182E282F38241150C
:102F2000510551F0FC01C08CD18CE28CF38CFA017C
:102F3000C082D182E282F382209701F18C01045B8E
:102F40001F4FF80180819181A281B3818F3F9F4FF4
:102F5000AF4FBF4F61F00E947323F80100811181D0
:102F600022813381601B710B820B930B03C06FEFC7
:102F70007FEFCB01688379838A839B83DF91CF9135
:102F80001F910F91FF90EF90DF90CF900895AF9237
:102F9000BF92CF92DF92EF92FF920F931F93CF9346
:102FA000DF93CDB7DEB728970FB6F894DEBF0FBE1C
:102FB000CDBF5B018A01AE014F5F5F4FBE016B5F0A
:102FC0007F4F0E947917CD80DE80EF80F8848FEFED
:102FD000C81689ECD8068AE9E8068BE3F80659F0AA
:102FE000C701B6010E94F42720E034E244E759E427
:102FF0000E94592704C060E070E08AE794E4F5017C
:103000006083718382839383FFEFCF16F9ECDF0631
:10301000FAE9EF06FBE3FF0669F069817A818B81AB
:103020009C810E94F42720E034E244E759E40E94A6
:10303000592704C060E070E08AE794E4F8016083F7
:1030400071838283938328960FB6F894DEBF0FBEF8
:10305000CDBFDF91CF911F910F91FF90EF90DF9047
:10306000CF90BF90AF900895FC0160A171A182A1A3
:1030700093A16F3FF9EC7F07FAE98F07FBE39F0706
:1030800049F00E94F42720E030E048EC52E40E942E
:103090005927089560E074E284E799E40895FC01FB
:1030A00012828FEF8183108213820895FC01838145
:1030B000882331F0611103C08FEF8183089511825D
:1030C0000895CF93DF93EC016A8388E194E00E9436
:1030D000DC2041E06A8188E194E00E94F32091E0E5
:1030E000811101C090E09B8388E194E00E944D2013
:1030F00088838B8190E0DF91CF910895CF93DF9308
:10310000EC018B818823A9F08981809586238883AF
:103110006A8188E194E00E94F620688188E194E069
:103120000E949D2088E194E00E941321282F30E026
:1031300002C020E030E081E090E0232B11F080E03D
:1031400090E0DF91CF91089508950895DC01ED910D
:10315000FC910284F385E02D41E0099581E090E047
:103160000895FC01138212822AEB32E0318320831E
:103170000895DC01ED91FC910084F185E02D6FEF65
:103180000994DC01ED91FC910284F385E02D40E08F
:10319000099461E00E94C11880ED97E00C94CA2365
:1031A00062E00E94C11880ED97E00C94CA23CF938F
:1031B000DF93CDB7DEB728970FB6F894DEBF0FBE0A
:1031C000CDBF1D8220E42E8334E13F8334E5388770
:1031D00019822A8320E12B8320E52C83FC0127819F
:1031E000421710F04FEF420FFC01308550E0FE0116
:1031F000E40FF51F303121F4243011F4218101C096
:103200002581260F2068622F28960FB6F894DEBF1E
:103210000FBECDBFDF91CF910C94C118FC01658129
:10322000262F246025836C600C94C118CF93DF9304
:10323000EC01423018F08C8188608C834F83688762
:10324000222329F0413019F48C8184608C8364E658
:1032500070E080E090E00E94A2236C8164FD31C0A8
:10326000E881F9810284F385E02D42E063E0CE013C
:10327000099584E991E10E94CA23E881F9810284D9
:10328000F385E02D42E063E0CE01099584E991E108
:103290000E94CA23E881F9810284F385E02D42E08F
:1032A00063E0CE01099586E990E00E94CA23E88197
:1032B000F9810284F385E02D42E062E0CE010995B8
:1032C00016C06062CE010E94C11884E991E10E949B
:1032D000CA236C816062CE010E94C11886E990E029
:1032E0000E94CA236C816062CE010E94C1186C8169
:1032F0006062CE010E94C11884E08D83CE010E94DD
:103300000E19CE010E94C91882E08E8366E0CE01BC
:103310000E94C118CE01DF91CF910C94B91821E021
:1033200001C0220F6A95EAF7DC011C962C931C97CA
:103330001A965C934E931997ED91FC910084F18558
:10334000E02D60E00994FC012485222399F0818519
:103350009285009719F4611105C006C0019721F408
:10336000611102C0258701C015866585CF010E96C3
:103370000C947E1808950F931F93CF93DF93EC0165
:103380008C01025F1F4F6B85C8010E946118019775
:1033900061F461E0C8010E9456181C8260E0C80117
:1033A0000E947E1881E090E002C080E090E0DF9112
:1033B000CF911F910F9108958F92AF92CF92EF927C
:1033C0000F93CF93DF93CDB7DEB7FC0163871486ED
:1033D00015861286118681E0982F01C0990F4A95B3
:1033E000EAF7928B982F01C0990F2A95EAF7938BF1
:1033F000982F01C0990F0A95EAF7948B982F01C076
:10340000990FEA94EAF7958B982F01C0990FCA9407
:10341000EAF7968B982F01C0990FAA94EAF7978B39
:1034200001C0880F8A94EAF7808FDF91CF910F91C6
:10343000EF90CF90AF908F9008956F927F928F9280
:10344000AF92CF92EF920F93CF93DF9300D01F9262
:10345000CDB7DEB73C012B834A8369830E94B11844
:103460008AEC92E0F30191838083C3010E960E945F
:103470004F182B814A816981C3010E94DC190F908A
:103480000F900F90DF91CF910F91EF90CF90AF9071
:103490008F907F906F900895FF920F931F93CF931B
:1034A000DF93EC01F62E8C01025F1F4F6A896F29B2
:1034B000C8010E947E186A8960956F21C801DF915A
:1034C000CF911F910F91FF900C947E1820E030E077
:1034D00050E060FF05C0FC01E20FF31F7589572B18
:1034E00066952F5F3F4F2430310599F7413011F435
:1034F000FC014489FC016585652B642B0C944C1AF6
:103500000F931F93CF93DF93EC01142F062F0F70AF
:10351000423011F440E00AC070E084E07595679590
:103520008A95E1F7CE010E94661A412F602FCE01E5
:10353000DF91CF911F910F910C94661A0F931F93F7
:10354000CF93DF9300D01F92CDB7DEB78C012B83D2
:103550004A8369830E94BB192B814A816981C80112
:103560000F900F900F90DF91CF911F910F910C94BE
:1035700016190E945A2B089584E193E00C941D0DB6
:1035800084E193E00C94510C0E94D4230E94BB1A56
:103590000E94BC1AC3E3D5E20E94C01A2097E1F34F
:1035A0000E943325F9CF1F920F920FB60F9211246C
:1035B0002F938F939F93EF93FF93E0914703F091A5
:1035C00048038081E0914D03F0914E0382FD12C0CB
:1035D0009081809150038F5F8F73209151038217E8
:1035E00051F0E0915003F0E0E95CFC4F958F80933F
:1035F000500301C08081FF91EF919F918F912F9196
:103600000F900FBE0F901F9018951F920F920FB63C
:103610000F9211242F933F934F935F936F937F9358
:103620008F939F93AF93BF93EF93FF9387E393E0C1
:103630000E944125FF91EF91BF91AF919F918F9192
:103640007F916F915F914F913F912F910F900FBE9E
:103650000F901F90189587E393E00E94062521E0C4
:10366000892B09F420E0822F089510923A031092DA
:10367000390388EE93E0A0E0B0E080933B039093A1
:103680003C03A0933D03B0933E0388E093E0909306
:1036900038038093370385EC90E090934403809344
:1036A000430384EC90E0909346038093450380ECC1
:1036B00090E0909348038093470381EC90E09093CF
:1036C0004A038093490382EC90E090934C038093EB
:1036D0004B0386EC90E090934E0380934D03109241
:1036E0005003109251031092520310925303089505
:1036F000CF92DF92EF92FF920F931F93CF93DF93BE
:103700006C017A01EB01E60EF71E00E010E0CE1529
:10371000DF0561F06991D601ED91FC910190F08196
:10372000E02DC6010995080F191FF1CFC801DF91DF
:10373000CF911F910F91FF90EF90DF90CF90089560
:103740006115710581F0DB010D900020E9F7AD01F5
:1037500041505109461B570BDC01ED91FC91028051
:10376000F381E02D099480E090E008950C94A01B73
:10377000DC01ED91FC910190F081E02D09940F9313
:103780001F93CF93DF93EC016DE00E94B81B8C0177
:103790006AE0CE010E94B81B800F911FDF91CF918C
:1037A0001F910F9108950F931F93CF93DF93EC0117
:1037B0000E94A01B8C01CE010E94BF1B800F911F95
:1037C000DF91CF911F910F9108958F929F92AF92A9
:1037D000BF92CF92DF92EF92FF920F931F93CF93FE
:1037E000DF93CDB7DEB7A1970FB6F894DEBF0FBE5B
:1037F000CDBF7C01C42EE52FCB01D22E19A221E032
:103800002D1510F02AE0D22E8E010F5D1F4F8D2C4A
:10381000912CA12CB12C6C2D7E2FA50194010E941E
:1038200022268C2DD29E80191124015011098A3034
:1038300014F4805D01C0895CF80180832115310595
:103840004105510521F0C22EE32FCA01E4CFB80192
:10385000C7010E94A01BA1960FB6F894DEBF0FBE51
:10386000CDBFDF91CF911F910F91FF90EF90DF902F
:10387000CF90BF90AF909F908F900895CF92DF929E
:10388000EF92FF920F931F93CF93DF93EC016A01A6
:103890007B012115310579F4E881F9810190F081EE
:1038A000E02D642FDF91CF911F910F91FF90EF904A
:1038B000DF90CF9009942A303105E9F477FF1AC0E0
:1038C0006DE20E94B81B8C0144275527BA014C19A0
:1038D0005D096E097F092AE0CE010E94E51B800F79
:1038E000911FDF91CF911F910F91FF90EF90DF908B
:1038F000CF9008952AE0B701A601CE01DF91CF91C4
:103900001F910F91FF90EF90DF90CF900C94E51BEB
:103910009A01AB01662757FD6095762F0C943E1CEB
:103920000F931F93CF93DF93EC019A01AB016627AE
:1039300057FD6095762F0E943E1C8C01CE010E949F
:10394000BF1B800F911FDF91CF911F910F910895A1
:103950002115310541F4DC01ED91FC910190F081DC
:10396000E02D642F09940C94E51B0F931F93CF93C4
:10397000DF93EC010E94A81C8C01CE010E94BF1BAA
:10398000800F911FDF91CF911F910F9108954F925A
:103990005F926F927F928F929F92AF92BF92CF92DF
:1039A000DF92EF92FF920F931F93CF93DF93EC017F
:1039B0006A017B01B22E9A01AB01C701B6010E94D8
:1039C000172A882319F066ED72E027C02601370117
:1039D000E89477F82FEF3FEF4FE75FE7C301B201BD
:1039E0000E94172A81110DC02FEF3FEF4FE75FE7CD
:1039F000C301B2010E94522718161CF46AED72E04E
:103A00000CC02FEF3FEF4FE75FE4C701B6010E9404
:103A10005E291816ACF46EED72E0CE01DF91CF9105
:103A20001F910F91FF90EF90DF90CF90BF90AF90DC
:103A30009F908F907F906F905F904F900C94A01B01
:103A40002FEF3FEF4FE75FECC701B6010E9452270F
:103A500087FDE1CF20E030E0A901C701B6010E9457
:103A6000522787FF0AC06DE2CE010E94B81B8C016D
:103A7000F7FAF094F7F8F09402C000E010E0A12CFF
:103A800060E070E080E09FE3AB1441F020E030E0C4
:103A900040E251E40E945927A394F6CF9B01AC0168
:103AA000C701B6010E948C266B017C010E94C627CB
:103AB0002B013C010E94F2279B01AC01C701B6011A
:103AC0000E948B266B017C012AE0B301A201CE018A
:103AD0000E94E51B080F191FBB2039F062EE72E04F
:103AE000CE010E94A01B080F191F7B2C772041F1EB
:103AF00020E030E040E251E4C701B6010E946929AC
:103B00006B017C010E94C1274B01AA2497FCA09461
:103B1000BA2C2AE030E0B501A401CE010E943E1C7F
:103B2000080F191FC501B4010E94F4279B01AC01C5
:103B3000C701B6010E948B266B017C017A94D6CF17
:103B4000C801DF91CF911F910F91FF90EF90DF900F
:103B5000CF90BF90AF909F908F907F906F905F902D
:103B60004F9008950C94C71C0F931F93CF93DF932E
:103B7000EC010E94C71C8C01CE010E94BF1B800F6C
:103B8000911FDF91CF911F910F9108950E945A2BA1
:103B9000209116043091170428173907B9F4909131
:103BA000D4038091D503981789F0E091D403F0E015
:103BB000EA52FC4F80812091D40330E02F5F3F4FC9
:103BC0002F7333272093D40390E008958FEF9FEF56
:103BD00008951F93CF93DF93DC015C968D919C91A8
:103BE0005D97009749F481E090E013969C938E9343
:103BF000129780E090E03BC05196ED91FC91529776
:103C000050962C915097322F30951FB75E964C915D
:103C10005E9741FB772770F941FD6095F8944081EC
:103C2000772311F0422B01C043234083EC012197FD
:103C3000F1F748E0508160FF02C0522B01C05323CE
:103C40005083EC012197F1F76695415099F78081F7
:103C5000772311F0832301C0822B80831FBF5C96E2
:103C60008D919C915D970197F1F781E090E0DF9154
:103C7000CF911F91089520911604309117042817B1
:103C8000390781F49091D4038091D503981751F0AE
:103C9000E091D403F0E0EA52FC4F8081992787FD40
:103CA000909508958FEF9FEF08952091160430911D
:103CB00017042817390771F48091D5032091D40394
:103CC00090E0805C9F4F821B910960E470E00E944D
:103CD0000E26089580E090E008952091160430911A
:103CE00017042817390739F48FB7F8941092D503C1
:103CF0001092D4038FBF0895E0911604F091170439
:103D0000E817F90769F4A389B4899C91858980959E
:103D100089238C93109217041092160481E0089561
:103D200080E00895CF93DF93EC018A8D9B8D892BE2
:103D3000F1F080911604909117048C179D07B9F04B
:103D4000009711F00E947C1E8E8D8E7F8E8F1092B8
:103D5000D5031092D403D0931704C0931604EB89B3
:103D6000FC8980819D89892B808381E001C080E06E
:103D7000DF91CF9108951F920F920FB60F921124E9
:103D80002F933F934F935F936F937F938F939F9363
:103D9000AF93BF93EF93FF93E0911604F091170454
:103DA000309709F451C0868DA685B785958581FF2A
:103DB00004C08C91892329F447C08C91892309F090
:103DC00043C0A389B4899C918589809589238C936C
:103DD000868997890197F1F7208D318DA685B78562
:103DE000758558E040E0C9010197F1F7842F90E014
:103DF00095958795482F6C91672309F0406851503D
:103E000091F7868D81FD40958091D50390E00196D4
:103E10008F7399272091D403281749F0A091D503D7
:103E2000B0E0AA52BC4F4C938093D50303C0868D5B
:103E30008160868F828D938D0197F1F7A389B48974
:103E40008C919589892B8C93FF91EF91BF91AF91C4
:103E50009F918F917F916F915F914F913F912F91A2
:103E60000F900FBE0F901F9018951F93CF93DF9365
:103E7000EC01162F6E8D6695617081E06827812FA9
:103E80000E94D02461E0812F0E949724812F90E02E
:103E9000FC01E65EFE4FE491E88BFC01E25DFE4F23
:103EA000E491F0E0EE0FFF1FE45BFE4F85919491EB
:103EB0009A8B898BDF91CF911F9108951F93CF9398
:103EC000DF93EC01162F60E0812F0E9497248E8DE6
:103ED00081FD04C061E0812F0E94D0241C87812FC6
:103EE00090E0FC01E65EFE4FE491ED87FC01E25DAF
:103EF000FE4FE491F0E0EE0FFF1FEE5BFE4F859169
:103F000094919F878E87DF91CF911F910895FF92A3
:103F10000F931F93CF93DF93EC01F62E522F1B824A
:103F20001A8208EE13E020E030E00C831D832E831C
:103F30003F8388EE92E0998388831F8A1E8A198EB8
:103F4000188E1B8E1A8E1D8E1C8E8E8D8E7F50FBB2
:103F500081F98E8F642FCE010E94351F6F2DCE0107
:103F6000DF91CF911F910F91FF900C945E1FCF9323
:103F7000DF93EC019A01AB011B8E1A8E198E188EFD
:103F80001F8A1E8A60E079E08DE390E00E9444265B
:103F9000C9012430310520F0B9016350710902C014
:103FA00061E070E07D8F6C8FEC85E63108F068C0D1
:103FB000B901769567956431710518F063517109FF
:103FC00002C061E070E07F8B6E8B069718F0C9012C
:103FD000059702C081E090E0998F888FC901880F12
:103FE000991F820F931F96958795969587958D308B
:103FF000910510F00C9702C081E090E09B8F8A8FB2
:1040000020916800E83050F091E0EE3008F490E044
:1040100081E001C0880F9A95EAF701C084E0822B05
:10402000809368002C85283038F02E3040F02631FF
:1040300048F48CE690E008C08DE690E005C08BE681
:1040400090E002C080E090E09C8B8B8B283030F4B5
:1040500081E001C0880F2A95EAF70DC0822F90E019
:104060002E3010F4089701C00E9791E001C0990F0F
:104070008A95EAF7892F8D8B8C8D9D8D0197F1F7AD
:10408000CE01DF91CF910C94921E8091480490E074
:1040900020914904821B910908952091490480913F
:1040A0004804281750F4E22FF0E0E65BFB4F8081D4
:1040B00090E02F5F2093490408958FEF9FEF0895BC
:1040C000E091490480914804E81730F4F0E0E65BA1
:1040D000FB4F808190E008958FEF9FEF0895089542
:1040E000CF92DF92EF92FF920F931F93CF93DF93C4
:1040F0007C01CB018A0120912404222389F0EB0169
:104100006B01C40ED51ECC15DD0569F06991D70190
:10411000ED91FC910190F081E02DC7010995F3CF5D
:10412000642F0E94CF21C801DF91CF911F910F9181
:10413000FF90EF90DF90CF900895CF93DF931F9281
:10414000CDB7DEB76983209124042223D1F02091DA
:104150002504203240F021E030E0FC01338322834B
:1041600080E090E015C080912604E82FF0E0E95D42
:10417000FB4F998190838F5F809326048093250461
:1041800005C061E0CE0101960E94CF2181E090E060
:104190000F90DF91CF910895FC011382128248EEB7
:1041A00053E060E070E0448355836683778388EF53
:1041B00092E09183808308951092490410924804FC
:1041C00010922604109225040C941A21862F413255
:1041D00008F040E26AE474E00E9438211092490439
:1041E00080934804089521E00C94E62081E08093B8
:1041F0002404609347041092260410922504089525
:104200000F93062F21E04091250467E274E080912E
:1042100047040E947C2110922604109225041092DB
:1042200024040F91089561E00C94002188E194E04A
:104230000C94CC201092D70481E08093D504109286
:10424000D40461E082E10E94D02461E083E10E9415
:10425000D024E9EBF0E080818E7F808380818D7FA8
:10426000808388E48093B80085E48093BC0008953F
:10427000413208F03FC09091D7049111FCCF91E0FA
:104280009093D7042093D5042FEF20936A041092C3
:10429000AF04240F2093AE049093D6049091D604DB
:1042A000880F892B8093D6048091D404813041F407
:1042B0001092D4048091D6048093BB0085EC01C099
:1042C00085EE8093BC008091D7048130E1F380912A
:1042D000AF04841710F44091AF0420EB34E0FB01ED
:1042E000D9018A2F821B841718F48D918193F9CFFD
:1042F000842F089580E008950F93413208F046C05E
:104300009091D7049111FCCF92E09093D704009341
:10431000D5049FEF90936A041092AF044093AE04CB
:10432000FB0160EB74E0DB019A2F961B941718F4E5
:1043300091919D93F9CF1092D6049091D604880F55
:10434000892B8093D6048091D404813041F410925B
:10435000D4048091D6048093BB0085EC01C085EE27
:104360008093BC00222321F08091D7048230E1F3B6
:1043700080916A048F3F61F080916A04803251F02D
:1043800080916A04803341F483E007C081E005C076
:1043900080E003C082E001C084E00F9108956132A3
:1043A00098F42091D704243089F460938C04FC01A4
:1043B0008EE894E0DC012A2F281B261718F421919F
:1043C0002D93F9CF80E0089581E0089582E008956B
:1043D00085ED8093BC008091BC0084FDFCCF1092E1
:1043E000D704089585EC8093BC001092D7040895FB
:1043F0001F920F920FB60F9211242F933F934F935A
:104400005F936F937F938F939F93AF93BF93EF933C
:10441000FF938091B900887F803609F49CC068F5CD
:10442000883209F45BC090F4803109F454C038F448
:10443000882309F4F5C0883009F44DC0F5C08831EF
:1044400009F44CC0803209F45DC0EEC0803409F438
:1044500068C048F4803309F455C0883309F0E4C0DB
:1044600080936A04A8C0803509F44FC0883509F4E8
:104470005DC0883409F0D8C0D5C0883909F4C6C0F9
:10448000A8F4883709F467C038F4883609F463C0A3
:10449000803709F460C0C8C0883809F4B7C08039D3
:1044A00009F45FC0803809F0BFC05BC0803B09F4ED
:1044B00085C038F4803A09F466C0883A09F47EC0B1
:1044C000B3C0803C09F4A6C0883C09F4A3C0883B73
:1044D00009F489C0A9C08091D60410C09091AF049E
:1044E0008091AE04981770F5E091AF0481E08E0FD3
:1044F0008093AF04F0E0E055FB4F80818093BB00D8
:1045000085EC85C080936A048DC0E091AF0481E0A2
:104510008E0F8093AF048091BB00F0E0E055FB4F1D
:1045200080839091AF048091AE046DC0E091AF04A0
:1045300081E08E0F8093AF048091BB00F0E0E055E6
:10454000FB4F80838091D50481116CC081E0809302
:10455000D40484EA60C083E08093D70410926B0493
:10456000CFCF80916B04803208F050C0E0916B0493
:1045700081E08E0F80936B048091BB00F0E0E459E2
:10458000FB4F8083BDCF80916B04803230F4E0918B
:104590006B04F0E0E459FB4F10820E94E821609127
:1045A0006B0470E0E091D004F091D1048CE694E0CB
:1045B000099510926B040E94F22136C084E080932A
:1045C000D70410928D0410928C04E091D204F091E3
:1045D000D304099580918C04811105C081E08093FA
:1045E0008C0410928E04E0918D0481E08E0F8093F4
:1045F0008D04F0E0E257FB4F80818093BB009091E7
:104600008D0480918C04981708F47ACF85E8809304
:10461000BC000AC085EC8093BC001092D70404C093
:1046200010926A040E94E821FF91EF91BF91AF912F
:104630009F918F917F916F915F914F913F912F91BA
:104640000F900FBE0F901F9018950C94332A0C9466
:10465000CB2A1F920F920FB60F9211242F933F93E4
:104660008F939F93AF93BF938091D9049091DA0475
:10467000A091DB04B091DC043091D80423E0230F37
:104680002D3720F40196A11DB11D05C026E8230F8A
:104690000296A11DB11D2093D8048093D904909354
:1046A000DA04A093DB04B093DC048091DD049091E4
:1046B000DE04A091DF04B091E0040196A11DB11DBC
:1046C0008093DD049093DE04A093DF04B093E004B4
:1046D000BF91AF919F918F913F912F910F900FBEFE
:1046E0000F901F9018952FB7F8946091D90470918E
:1046F000DA048091DB049091DC042FBF08953FB76A
:10470000F8948091DD049091DE04A091DF04B091D3
:10471000E00426B5A89B05C02F3F19F00196A11D06
:10472000B11D3FBF6627782F892F9A2F620F711D09
:10473000811D911D42E0660F771F881F991F4A95C2
:10474000D1F70895CF92DF92EF92FF92CF93DF934C
:104750006B017C010E947F23EB01C114D104E104B1
:10476000F10489F00E94E9250E947F236C1B7D0BD8
:10477000683E734090F381E0C81AD108E108F1085F
:10478000C851DC4FEACFDF91CF91FF90EF90DF90DF
:10479000CF900895019739F0880F991F880F991FBE
:1047A00002970197F1F70895789484B5826084BDEB
:1047B00084B5816084BD85B5826085BD85B5816025
:1047C00085BDEEE6F0E0808181608083E1E8F0E085
:1047D0001082808182608083808181608083E0E8B4
:1047E000F0E0808181608083E1EBF0E08081846093
:1047F0008083E0EBF0E0808181608083EAE7F0E095
:1048000080818460808380818260808380818160F8
:1048100080838081806880831092C10008951F93F7
:10482000CF93DF93182FEB0161E00E94972420972C
:1048300011F460E004C0CF3FD10539F461E0812F6D
:10484000DF91CF911F910C94D024E12FF0E0EA5F2B
:10485000FE4FE491E330F9F048F4E130B9F0E23092
:10486000A1F584B5806284BDC8BD34C0E730E9F0ED
:10487000E83019F1E43049F580918000806280933E
:104880008000D0938B00C0938A0024C084B58068D8
:1048900084BDC7BD1FC08091800080688093800068
:1048A000D0938900C093880015C08091B0008068C3
:1048B0008093B000C093B3000DC08091B0008062BF
:1048C0008093B000C093B40005C0C038D1050CF08F
:1048D000B5CFAFCFDF91CF911F910895833081F095
:1048E00028F4813099F08230A1F008958730A9F042
:1048F0008830B9F08430D1F4809180008F7D03C07E
:10490000809180008F7780938000089584B58F77A1
:1049100002C084B58F7D84BD08958091B0008F77EB
:1049200003C08091B0008F7D8093B0000895CF9335
:10493000DF9390E0FC01E65EFE4F2491FC01E25D16
:10494000FE4F8491882349F190E0880F991FFC0164
:10495000EA5AFE4FA591B491845B9E4FFC01C5912C
:10496000D4919FB7611108C0F8948C91209582234F
:104970008C93888182230AC0623051F4F8948C9120
:10498000322F309583238C938881822B888304C0B7
:10499000F8948C91822B8C939FBFDF91CF910895D7
:1049A0000F931F93CF93DF931F92CDB7DEB7282FBE
:1049B00030E0F901EA5FFE4F8491F901E65EFE4FB7
:1049C0001491F901E25DFE4F04910023C9F08823A0
:1049D00021F069830E946E246981E02FF0E0EE0FE0
:1049E000FF1FE45BFE4FA591B4919FB7F8948C91A3
:1049F000611103C01095812301C0812B8C939FBF4F
:104A00000F90DF91CF911F910F910895FC01818D3F
:104A1000228D90E0805C9F4F821B91098F739927B4
:104A20000895FC01918D828D981731F0828DE80FE9
:104A3000F11D858D90E008958FEF9FEF0895FC01A3
:104A4000918D828D981761F0828DDF01A80FB11DC5
:104A50005D968C91928D9F5F9F73928F90E00895E9
:104A60008FEF9FEF08958BE29BE1892B49F080E067
:104A700090E0892B29F00E942B1B81110C940000DF
:104A80000895FC01848DDF01A80FB11DA35ABF4F0B
:104A90002C91848D90E001968F739927848FA6893D
:104AA000B7892C93A089B1898C9180648C93938D64
:104AB000848D981306C00288F389E02D80818F7D54
:104AC00080830895CF93DF93EC01888D8823C9F00C
:104AD000EA89FB89808185FD05C0A889B9898C9107
:104AE00086FD0FC00FB607FCF5CF808185FFF2CFA2
:104AF000A889B9898C9185FFEDCFCE010E9441250F
:104B0000E7CFDF91CF910895CF92DF92FF920F937D
:104B10001F93CF93DF931F92CDB7DEB76C01DC01FB
:104B20005B969C915B975C968C915C97981307C001
:104B30005096ED91FC915197808185FD32C0F60130
:104B4000038D10E00F5F1F4F0F731127F02EF6013A
:104B5000848DF81211C00FB607FCF9CFD60150961C
:104B6000ED91FC915197808185FFF1CFC60169835A
:104B70000E9441256981EBCF838DE80FF11DE35A37
:104B8000FF4F6083D6015B960C935B975296ED9135
:104B9000FC91539780818062808381E058968C934A
:104BA0000DC0D6015696ED91FC91579760835096B3
:104BB000ED91FC91519780818064808381E090E049
:104BC0000F90DF91CF911F910F91FF90DF90CF90C9
:104BD00008950895DB018F939F930E946926BF91EA
:104BE000AF91A29F800D911DA39F900DB29F900D3C
:104BF00011240895AA1BBB1B51E107C0AA1FBB1FAC
:104C0000A617B70710F0A61BB70B881F991F5A9558
:104C1000A9F780959095BC01CD01089597FB072ECB
:104C200016F4009407D077FD09D00E94FA2507FCFE
:104C300005D03EF4909581959F4F089570956195AC
:104C40007F4F0895A1E21A2EAA1BBB1BFD010DC0C8
:104C5000AA1FBB1FEE1FFF1FA217B307E407F5072C
:104C600020F0A21BB30BE40BF50B661F771F881F08
:104C7000991F1A9469F760957095809590959B019E
:104C8000AC01BD01CF010895052E97FB1EF40094E1
:104C90000E945B2657FD07D00E94222607FC03D006
:104CA0004EF40C945B2650954095309521953F4FDE
:104CB0004F4F5F4F089590958095709561957F4F08
:104CC0008F4F9F4F0895EE0FFF1F0590F491E02D39
:104CD00009940E947C26A59F900DB49F900DA49FDF
:104CE000800D911D11240895B7FF0C9469260E9430
:104CF0006926821B930B0895A29FB001B39FC00148
:104D0000A39F700D811D1124911DB29F700D811DF7
:104D10001124911D08955058BB27AA270ED083C295
:104D20004CD230F051D220F031F49F3F11F41EF4F8
:104D30001CC20EF4E095E7FB04C2E92F96D280F383
:104D4000BA17620773078407950718F071F49EF588
:104D5000AEC20EF4E0950B2EBA2FA02D0B01B901B7
:104D600090010C01CA01A0011124FF27591B99F0E1
:104D7000593F50F4503E68F11A16F040A22F232FED
:104D8000342F4427585FF3CF469537952795A7953D
:104D9000F0405395C9F77EF41F16BA0B620B730BE4
:104DA000840BBAF09150A1F0FF0FBB1F661F771F55
:104DB000881FC2F70EC0BA0F621F731F841F48F40A
:104DC000879577956795B795F7959E3F08F0B3CF90
:104DD0009395880F08F09927EE0F9795879508957A
:104DE000ECD158F080E891E009F49EEFEDD128F085
:104DF00040E851E059F45EEF09C0B7C158C2E92F4D
:104E0000E07833D268F3092E052AC1F32617370755
:104E10004807590738F00E2E07F8E02569F0E0251D
:104E2000E0640AC0EF6307F8009407FADB01B901F8
:104E30009D01DC01CA01AD01EF934AD0F4D10AD043
:104E40005F91552331F02BED3FE049E450FD49ECF3
:104E500063CF0895DF93DD27B92FBF7740E85FE385
:104E60001616170648075B0710F4D92F2BD29F930D
:104E70008F937F936F93D8D2EAEBF0E079D1D3D1BF
:104E80002F913F914F915F9130D2DD2349F090589F
:104E9000A2EA2AED3FE049EC5FE3D0785D274DDFE1
:104EA000DF91C1C12AD108F481E0089595D1E3953D
:104EB000CBC10CD0B8C188D140F07FD130F021F403
:104EC0005F3F19F03EC15111F3C14FC1CED198F3EC
:104ED0009923C9F35523B1F3951B550BBB27AA277B
:104EE00062177307840738F09F5F5F4F220F331FED
:104EF000441FAA1FA9F333D00E2E3AF0E0E830D0B9
:104F000091505040E695001CCAF729D0FE2F27D0BB
:104F1000660F771F881FBB1F261737074807AB0789
:104F2000B0E809F0BB0B802DBF01FF2793585F4FFE
:104F30002AF09E3F510568F004C1BAC15F3FECF30F
:104F4000983EDCF3869577956795B795F7959F5FC3
:104F5000C9F7880F911D9695879597F90895E1E017
:104F6000660F771F881FBB1F621773078407BA0776
:104F700020F0621B730B840BBA0BEE1F88F7E095D1
:104F8000089504D06894B11193C1089576D188F042
:104F90009F5790F0B92F9927B751A0F0D1F0660F25
:104FA000771F881F991F1AF0BA95C9F712C0B13040
:104FB00081F07DD1B1E008957AC1672F782F8827DD
:104FC000B85F39F0B93FCCF3869577956795B3957F
:104FD000D9F73EF490958095709561957F4F8F4FEE
:104FE0009F4F0895E89409C097FB3EF490958095F3
:104FF000709561957F4F8F4F9F4F9923A9F0F92F9F
:1050000096E9BB279395F695879577956795B7951C
:10501000F111F8CFFAF4BB0F11F460FF1BC06F5F02
:105020007F4F8F4F9F4F16C0882311F096E911C014
:10503000772321F09EE8872F762F05C0662371F035
:1050400096E8862F70E060E02AF09A95660F771F49
:10505000881FDAF7880F9695879597F90895ADD050
:1050600018F011F0B1D038F480C022C1E92FFDD082
:10507000B0F35523C9F3E7FB62177307840795075D
:10508000A8F199F3E92FFF2788232AF03197660FBB
:10509000771F881FDAF7952F5527442332F0915058
:1050A0005040220F331F441FD2F7BB27E91BF50BDB
:1050B000621B730B840BB109C1F222F4620F731FE0
:1050C000841FB11D31972AF0660F771F881FBB1F01
:1050D000EFCF915050405AF041F0882332F0660FE4
:1050E000771F881F91505040C1F7939530C0869527
:1050F000779567959F5FD9F7F8CF990F0008550FFF
:10510000AA0BE0E8FEEF16161706E807F907C0F04D
:1051100012161306E407F50798F0621B730B840B55
:10512000950B39F40A2661F0232B242B252B21F42F
:1051300008950A2609F4A140A6958FEF811D811DCF
:10514000089597F99F6780E870E060E008959F3FB9
:1051500031F0915020F4879577956795B795880F32
:10516000911D9695879597F908959FEF80EC089586
:10517000DF93CF931F930F93FF92EF92DF927B0108
:105180008C01689405C0DA2EEF01AFD0FE01E894DF
:10519000A5912591359145915591AEF3EF01CDDD66
:1051A000FE019701A801DA9479F7DF90EF90FF9064
:1051B0000F911F91CF91DF91089500240A94161644
:1051C000170618060906089500240A9412161306F5
:1051D000140605060895C9CF50D0E8F3E894E0E03E
:1051E000BB279F57F0F02AED3FE049EC06C0EE0FD9
:1051F000BB0F661F771F881F28F0B23A620773073C
:10520000840728F0B25A620B730B840BE3959A95CE
:1052100072F7803830F49A95BB0F661F771F881F8E
:10522000D2F7904896CF092E0394000C11F48823EE
:1052300052F0BB0F40F4BF2B11F460FF04C06F5F4E
:105240007F4F8F4F9F4F0895EF93E0FF06C0A2EA74
:105250002AED3FE049EC5FEB70DDE5DF0F90039452
:1052600001FC9058E7EEF0E0EDC057FD9058440F78
:10527000551F59F05F3F71F04795880F97FB991FB5
:1052800061F09F3F79F08795089512161306140672
:10529000551FF2CF4695F1DF08C0161617061806FF
:1052A000991FF1CF86957105610508940895E894DA
:1052B000BB2766277727CB0197F908951EDF08F4EF
:1052C0008FEF08959B01AC0160E070E080E89FE300
:1052D000F0CD0BD0A8CF71DF28F076DF18F0952342
:1052E00009F02FCF42CF1124E3CFBFDFA0F3959F6A
:1052F000D1F3950F50E0551F629FF001729FBB27BD
:10530000F00DB11D639FAA27F00DB11DAA1F649F68
:105310006627B00DA11D661F829F2227B00DA11D1B
:10532000621F739FB00DA11D621F839FA00D611DA1
:10533000221F749F3327A00D611D231F849F600DC2
:10534000211D822F762F6A2F11249F5750408AF0FB
:10535000E1F088234AF0EE0FFF1FBB1F661F771F87
:10536000881F91505040A9F79E3F510570F0E9CE3B
:105370009FCF5F3FECF3983EDCF38695779567957A
:10538000B795F795E7959F5FC1F7FE2B880F911DA5
:105390009695879597F908959F931EDF0F9007FCC8
:1053A000EE5F52CF11F40EF4E0CED1CE66DFD0F333
:1053B0009923D9F3CEF39F57550B87FF3CD0002498
:1053C000A0E640EA900180585695979528F4805CB5
:1053D000660F771F881F20F026173707480730F41D
:1053E000621B730B840B202931294A2BA695179435
:1053F0000794202531254A2758F7660F771F881F05
:1054000020F026173707480730F4620B730B840B24
:10541000200D311D411DA09581F7B901842F9158B0
:10542000880F9695879508959B01AC0152CF65DE54
:10543000880B990B089591505040660F771F881F75
:10544000D2F708959F938F937F936F93FF93EF937A
:105450009B01AC013EDFEF91FF918ADE2F913F91DE
:105460004F915F9136CFCF93DF938230910510F447
:1054700082E090E0E091E304F091E40420E030E089
:10548000A0E0B0E0309739F14081518148175907C9
:10549000B8F04817590771F482819381109729F069
:1054A00013969C938E9312972CC09093E404809350
:1054B000E30427C02115310531F04217530718F0D6
:1054C000A901DB0101C0EF019A01BD01DF010280EA
:1054D000F381E02DD7CF21153105F9F0281B390BC9
:1054E0002430310580F48A819B816115710521F09A
:1054F000FB019383828304C09093E4048093E304CC
:10550000FE01329644C0FE01E20FF31F8193919396
:1055100022503109398328833AC02091E104309127
:10552000E204232B41F420910201309103013093D6
:10553000E2042093E1042091000130910101211542
:10554000310541F42DB73EB740910401509105015A
:10555000241B350BE091E104F091E204E217F3071C
:10556000A0F42E1B3F0B2817390778F0AC014E5FD3
:105570005F4F2417350748F04E0F5F1F5093E2042A
:105580004093E1048193919302C0E0E0F0E0CF0109
:10559000DF91CF910895CF93DF93009709F487C0EF
:1055A000FC01329713821282C091E304D091E4048B
:1055B000209781F420813181280F391F8091E104E7
:1055C0009091E2048217930779F5F093E204E09357
:1055D000E1046DC0DE0120E030E0AE17BF0750F4FB
:1055E00012964D915C9113979D014115510509F15A
:1055F000DA01F3CFB383A28340815181840F951FD9
:105600008A179B0771F48D919C911197840F951FB8
:1056100002969183808312968D919C911397938328
:1056200082832115310529F4F093E404E093E30427
:105630003EC0D9011396FC93EE9312974D915D9164
:10564000A40FB51FEA17FB0779F480819181840FBD
:10565000951F0296D90111969C938E938281938116
:1056600013969C938E931297E0E0F0E08A819B81E1
:10567000009719F0FE01EC01F9CFCE0102962881C6
:105680003981820F931F2091E1043091E2042817A1
:10569000390769F4309729F41092E4041092E30476
:1056A00002C013821282D093E204C093E104DF911E
:1056B000CF91089581E090E0F8940C94852BFC0143
:1056C00088279927E89421912032E9F3293010F0B6
:1056D0002E30C8F32B3241F02D3239F4689404C0D7
:1056E0000E947D2B820F911D219120532A30C0F3FF
:1056F0001EF4909581959F4F08957AE0979F902D85
:0E570000879F802D910D11240895F894FFCFFE
:10570E000000E504800001000000E8030A4845415E
:10571E0044494E473A200020202020474F414C203C
:10572E0048454144494E473A200020202020484514
:10573E004144494E47204F46465345543A20004F68
:10574E004646534554203D0048454144494E473D49
:10575E000000000000DC00E800C61DC61D000000B1
:10576E0000E200EF00FF0135020A4C41543A2000DE
:10577E00202020204C4F4E3A200020202020414750
:10578E00453A20000A4C4F434154494F4E20554E46
:10579E00415641494C41424C45004C41543D004C10
:1057AE004F4E3D004C4F434154494F4E00000000B8
:1057BE00008302890252039303496E76616C696419
:1057CE0020737562736372697074000A3D3D3D3DCE
:1057DE003D3D3D3D3D3D3D3D3D3D3D3D3D3D3D3DEB
:1057EE003D3D3D3D3D3D3D3D3D3D3D3D3D3D3D3DDB
:1057FE003D3D3D3D3D3D3D3D3D3D3D3D3D3D3D3DCB
:10580E003D3D3D3D3D3D3D3D3D3D3D3D3D3D3D3DBA
:10581E003D3D3D3D3D3D3D000A4C573A2000202088
:10582E00202052573A20004C4546543A2000524907
:10583E004748543A2000000000009E07A407AB071B
:10584E00CC070A4B703A2000202020204B693A00EA
:10585E00202020204B643A00202020204F55545009
:10586E0055543A20006B703D006B693D006B643DF2
:10587E00004F3D0000000000490A4F0A560AA60AD2
:10588E004750524D43004750474741004E4E45004A
:10589E00454E450045534500535345005300535361
:1058AE00570057535700574E57004E4E570000247F
:1058BE00744900007A4400000000A618781B1619DF
:1058CE00A418A518C61D00000000A618781B9E1A65
:1058DE008F19A319801A6E616E00696E66006F765D
:1058EE0066002E0000000000E91D781B551EC81D25
:1058FE003B1E6D1E000000009D20702045204D2097
:10590E0060206F20000000008425781B06251F25CF
:04591E0011256225C8
:00000001FF
